:020000041004E6
:100000000060002075030410510504106D050410F4
:10001000AA5555AA45554C420000000000000000BA
:10002000000000000000000000000000890504102E
:100030000000000000000000A5050410C105041028
:10004000DD050410F90504100000000000000000A8
:1000500015060410310604104D060410690604103C
:100060000000000000000000000000000000000090
:100070000000000085060410A1060410BD0604104F
:1000800000000000D9060410F90604101907041036
:100090003907041059070410790204107907041075
:1000A0000000000000000000000000000000000050
:1000B0000000000000000000000000000000000040
:1000C000EFF31482EFF30981002080F31488BFF36B
:1000D0006F8FF0B543464C4655465E466746F8B4CA
:1000E000164CEFF30883236006B4154C2068154CBA
:1000F0002060154C2068154C2060154C2068154C6C
:100100002060154C276800202060BFF34F8F30BF60
:1001100027600A4C246884F3088882B003BCF8BCCA
:100120009846A146AA46B346BC46F0BC04BC80F340
:10013000098881F31488BFF36F8F104708000020EF
:1001400004ED00E0D802002024ED00E0CC02002005
:1001500000E200E0DC020020080020400E4AD369E3
:100160001B061B0F4370D9B2D3690C4A1B07944678
:100170001B0F83700A4B1B68436063445A42534110
:1001800001330370002901D101234370054B9B8A81
:1001900001339B008360704700009040BF5FFFFD0C
:1001A0002800904000001040084B1A68084B9A4203
:1001B00000D070473F23074A40061381000C2E3BB6
:1001C00090611380138ADB07FCD5F2E7140000204E
:1001D000CCBCECFC00001040244B1A7A244BD2B269
:1001E0001B899BB2002A09D0022A3DD00220042A92
:1001F00003D00020082A00D1033070471A00093AC2
:10020000782A18D8092206201A40092AF5D0112286
:1002100001301A40112AF0D0212201301A40212A3F
:10022000EBD0412201301A40412AE6D08122013030
:100230001A40812AE1D002221900FF3211400B201E
:100240009142DAD019000B4A013011409142D4D0CA
:10025000052207381A40052ACFD002381840033843
:10026000434258418000C8E70120C6E700009040A3
:1002700000001048010400007047C046012130B55D
:10028000364A85B0137A03240B4313720022344B91
:100290001A606B46DD1CFFF79FFF28702B78002B40
:1002A00003D1013CE4B2002CF5D12B78052B02D808
:1002B000012005B030BD2B780B2B1BD001AC2000EA
:1002C000FFF74CFF6378A2781B011343112B17DC57
:1002D000244B1B681B070DD59023234ADB051969A6
:1002E0001368283B5B1A1B02002B03DD9023126866
:1002F000DB055A6001221D4B1A70FFF70AFFFEE76B
:10030000184B1B681B0717D59021174AC9050869A8
:100310001368283B1B1A1B02002BEBDD8020144BBB
:1003200040021B041B0C0343CB60CB680342DDD0AF
:10033000CB680342F9D1D9E7802290210C4B5202BD
:100340001B041B0C1343C905CB60CB681342FCD1C3
:100350000122064B1A70FFF7DCFED0E700002040B8
:1003600014000020C0000020180000200C00002015
:10037000D002002010B5FFF781FF012805D01B4BEC
:1003800083F3088800F048F810BD1948194B9842CB
:1003900007D2C243D218920801329200164900F0E7
:1003A000FBF91648164B984207D2C243D21892085E
:1003B00001329200134900F0EFF91348134B9842B1
:1003C00007D2C243D218920801329200002100F0F5
:1003D000ECF90F480F4B9842D1D2C243D218920881
:1003E00001329200002100F0E0F9C8E7006000202F
:1003F000E0020020E002002000F8051008000020C4
:1004000034000020BC070410C0000020CC020020F3
:10041000CC020020E0020020434B70B51B68002B8B
:1004200003D1424B1B68002B32D03F4B1A68404B24
:100430009A4229D03C4B3E4A1B6893426ED03A4BBD
:100440001B68002B03D1394B1B68013320D0364B7E
:100450001A68374B9A4256D0334B1B68002B04D195
:10046000324B1A68324B9A4234D02F4B1B680133FF
:100470002CD02D4B1B6801334AD02B4B1B6801330A
:1004800001D12A4B1B68FEE7284B1B68002BD1D1FA
:10049000284B294A02E0043393420FD019680131F6
:1004A000F9D03F24254D264B2B6020000134A4B207
:1004B000FFF77AFE7D2CF8D100232B60214B224AD6
:1004C00012681B6883F308889047FEE7174B1B6888
:1004D000002BCED11B4B174A02E00433934210D0BD
:1004E00019680131F9D00124144D154B2B602000FF
:1004F0000134A4B2FFF758FE3F2CF8D100232B6043
:100500000C4B124ADCE7094B1B680133A4D1BFE74F
:10051000064B1A68064B9A42AFD1DBE7034A1268D2
:100520009A428CD1B4E7C0461008041010F80510A8
:10053000AA5555AA00F8051000E80710140000207D
:10054000CCBCECFC000804100408041004F80510EE
:10055000044B054A1B6810B5934202D09B6898472C
:1005600010BDFEE71000002000000410044B054AF7
:100570001B6810B5934202D0DB68984710BDFEE7B8
:100580001000002000000410044B054A1B6810B541
:10059000934202D0DB6A984710BDFEE710000020AE
:1005A00000000410044B054A1B6810B5934202D0AA
:1005B0009B6B984710BDFEE7100000200000041060
:1005C000044B054A1B6810B5934202D0DB6B984779
:1005D00010BDFEE71000002000000410044B054A87
:1005E0001B6810B5934202D01B6C984710BDFEE704
:1005F0001000002000000410044B054A1B6810B5D1
:10060000934202D05B6C984710BDFEE710000020BB
:1006100000000410044B054A1B6810B5934202D039
:100620001B6D984710BDFEE710000020000004106D
:10063000044B054A1B6810B5934202D05B6D984786
:1006400010BDFEE71000002000000410044B054A16
:100650001B6810B5934202D09B6D984710BDFEE712
:100660001000002000000410044B054A1B6810B560
:10067000934202D0DB6D984710BDFEE710000020CA
:1006800000000410044B054A1B6810B5934202D0C9
:100690005B6F984710BDFEE71000002000000410BB
:1006A000044B054A1B6810B5934202D09B6F9847D4
:1006B00010BDFEE71000002000000410044B054AA6
:1006C0001B6810B5934202D0DB6F984710BDFEE760
:1006D0001000002000000410054B064A1B6810B5EE
:1006E000934203D084229B58984710BDFEE7C04632
:1006F0001000002000000410054B064A1B6810B5CE
:10070000934203D088229B58984710BDFEE7C0460D
:100710001000002000000410054B064A1B6810B5AD
:10072000934203D08C229B58984710BDFEE7C046E9
:100730001000002000000410054B064A1B6810B58D
:10074000934203D090229B58984710BDFEE7C046C5
:100750001000002000000410054B064A1B6810B56D
:10076000934203D094229B58984710BDFEE7C046A1
:100770001000002000000410054B064A1B6810B54D
:10078000934203D09C229B58984710BDFEE7C04679
:100790001000002000000410002310B59A4200D180
:1007A00010BDCC5CC4540133F8E7030082189342B7
:0C07B00000D1704719700133F9E7000018
:1007BC000000000000000000000004100000000019
:1007CC00000000000000000000000000000000001D
:0C07DC0000000000000000000000000011
:04000005100403756B
:00000001FF
:020000041004E6
:1008000000600020096F0410ED710410EF710410F6
:10081000AA5555AA45554C420000000000000000B2
:10082000000000000000000000000000F171041052
:1008300000000000000000006B6D0410F571041052
:10084000157204106D6D041000000000000000001F
:10085000717204106F6D0410857204107B6D0410AA
:100860000000000000000000000000000000000088
:10087000000000007D6D04107F6D0410816D041078
:1008800000000000716D0410736D0410756D04108C
:10089000776D0410796D0410696D041045720410B1
:1008A0000000000000000000000000000000000048
:1008B0000000000000000000000000000000000038
:1008C000EFF31482EFF30981002080F31488BFF363
:1008D0006F8FF0B543464C4655465E466746F8B4C2
:1008E000164CEFF30883236006B4154C2068154CB2
:1008F0002060154C2068154C2060154C2068154C64
:100900002060154C276800202060BFF34F8F30BF58
:1009100027600A4C246884F3088882B003BCF8BCC2
:100920009846A146AA46B346BC46F0BC04BC80F338
:10093000098881F31488BFF36F8F104708000020E7
:1009400004ED00E07821002024ED00E06C2100207F
:1009500000E200E07C2100200800204002B4714643
:1009600049084900095C49008E4402BC7047C046F2
:10097000002243088B4274D303098B425FD3030ADE
:100980008B4244D3030B8B4228D3030C8B420DD3F1
:10099000FF22090212BA030C8B4202D3121209027F
:1009A00065D0030B8B4219D300E0090AC30B8B42BD
:1009B00001D3CB03C01A5241830B8B4201D38B036B
:1009C000C01A5241430B8B4201D34B03C01A524110
:1009D000030B8B4201D30B03C01A5241C30A8B4253
:1009E00001D3CB02C01A5241830A8B4201D38B023E
:1009F000C01A5241430A8B4201D34B02C01A5241E2
:100A0000030A8B4201D30B02C01A5241CDD2C30953
:100A10008B4201D3CB01C01A524183098B4201D3CF
:100A20008B01C01A524143098B4201D34B01C01ABA
:100A3000524103098B4201D30B01C01A5241C30832
:100A40008B4201D3CB00C01A524183088B4201D3A1
:100A50008B00C01A524143088B4201D34B00C01A8D
:100A60005241411A00D20146524110467047FFE7F9
:100A700001B5002000F0F0F802BDC0460029F7D013
:100A800076E7704703460B437FD4002243088B422E
:100A900074D303098B425FD3030A8B4244D3030B05
:100AA0008B4228D3030C8B420DD3FF22090212BACA
:100AB000030C8B4202D31212090265D0030B8B4246
:100AC00019D300E0090AC30B8B4201D3CB03C01A30
:100AD0005241830B8B4201D38B03C01A5241430B0B
:100AE0008B4201D34B03C01A5241030B8B4201D3FB
:100AF0000B03C01A5241C30A8B4201D3CB02C01A66
:100B00005241830A8B4201D38B02C01A5241430ADD
:100B10008B4201D34B02C01A5241030A8B4201D3CC
:100B20000B02C01A5241CDD2C3098B4201D3CB0173
:100B3000C01A524183098B4201D38B01C01A524122
:100B400043098B4201D34B01C01A524103098B4226
:100B500001D30B01C01A5241C3088B4201D3CB0011
:100B6000C01A524183088B4201D38B00C01A5241F4
:100B700043088B4201D34B00C01A5241411A00D2A4
:100B800001465241104670475DE0CA0F00D049420D
:100B9000031000D34042534000229C4603098B427D
:100BA0002DD3030A8B4212D3FC22890112BA030A05
:100BB0008B420CD3890192118B4208D38901921187
:100BC0008B4204D389013AD0921100E08909C3090C
:100BD0008B4201D3CB01C01A524183098B4201D30E
:100BE0008B01C01A524143098B4201D34B01C01AF9
:100BF000524103098B4201D30B01C01A5241C30871
:100C00008B4201D3CB00C01A524183088B4201D3DF
:100C10008B00C01A5241D9D243088B4201D34B00FA
:100C2000C01A5241411A00D20146634652415B103C
:100C3000104601D34042002B00D54942704763461D
:100C40005B1000D3404201B5002000F005F802BD62
:100C50000029F8D016E770477047C0468446101C3C
:100C600062468C46191C634600E0C0461FB501F081
:100C7000CBFE002801D40021C8421FBD10B501F0F1
:100C800025FE4042013010BD10B501F0BDFE002828
:100C900001DB002010BD012010BDC04610B501F0E1
:100CA000B3FE002801DD002010BD012010BDC046AC
:100CB00010B501F045FE002801DC002010BD012028
:100CC00010BDC04610B501F03BFE002801DA00203F
:100CD00010BD012010BDC0468446081C6146FFE7D8
:100CE0001FB500F0E3FB002801D40021C8421FBD5E
:100CF00010B500F075FB4042013010BD10B500F09A
:100D0000D5FB002801DB002010BD012010BDC0462E
:100D100010B500F0CBFB002801DD002010BD012044
:100D200010BDC04610B500F081FB002801DC00209A
:100D300010BD012010BDC04610B500F077FB0028A3
:100D400001DA002010BD012010BDC0469E2110B563
:100D5000C905041CFFF7F0FF002803D1201C00F098
:100D6000BBFE10BD9E21201CC90500F001FD00F056
:100D7000B3FE80231B069C466044F2E770B5002258
:100D80000C4B04000D00FFF79DFF002804D120004C
:100D9000290002F031FC70BD064B00222000290022
:100DA00002F014F902F028FC80231B069C466044E4
:100DB000F1E7C0460000E041437802781B021A4385
:100DC0008378C0781B041343000618437047C0465D
:100DD000030A4B70030C8B70030E0870CB707047C6
:100DE00003005A78007812020243987819790004B7
:100DF0000243D878000610435A7912020A439979BF
:100E000009040A43D979090611437047030A53704C
:100E1000030C9370030ED3700B0A53710B0C937178
:100E20000B0E10701171D3717047C046F0B5C646F5
:100E30004E024702760A7B0A4400C50FF7004800BD
:100E4000984600B5240E2A00DB00000EC90FBC46F0
:100E50008D4267D0221A002A00DCA5E000283AD192
:100E6000002F00D193E0511E002900D0BCE00124E6
:100E7000DB1B5A0146D59B019E09300002F046FD5E
:100E800005388640844200DD9DE0041B32002020AE
:100E90000134E240041BA64033005E1EB34100242F
:100EA00013435A0704D00F221A40042A00D00433F7
:100EB0005A0129D50134FF2C00D181E02A009B0181
:100EC0005B0AE4B25B02E405580AD20720431043F0
:100ED00004BC9046F0BDFF2CE3D080213800C9044B
:100EE000084384461B2A00DD82E020206146D14071
:100EF000821A604690400200501E82410A439B1AAB
:100F00005A01B8D45A07CED1DE082A00FF2C3AD1B4
:100F1000002E00D1AEE08023DB0333435B025B0A8B
:100F2000FF24CFE7211A002952DD002831D0FF2C01
:100F3000B7D080203E00C0040643B4461B2900DD24
:100F4000AAE020266046C840711A66468E403100ED
:100F50004E1EB14101435B185901D3D50134FF2C1A
:100F600000D187E0012278491A405B080B40134307
:100F700097E7002C00D0A7E0002B00D0B6E03B1E86
:100F800062D10026002273025B0AE4B29AE71400E1
:100F900087E7002F4DD0481E002857D16344012415
:100FA0005A01AFD50224DDE7002A24D1621CD2B257
:100FB000012ADEDDDE1B720135D5FE1A0D005CE76D
:100FC0002A0000237EE73300604A241A134068E7B2
:100FD000002963D1611CC8B201284EDDFF2949D028
:100FE00063445B080C005CE7FF2A41D00A0079E704
:100FF00001229B1A84E7002C1DD0FF2822D08024D8
:10100000E404524223431B2A00DD8AE01C00202511
:10101000D440AA1A93405A1E9341234362460400C7
:10102000D31A0D0025E7002E00D026E70022002469
:10103000A9E70C0035E7002B4DD0D243002AEDD0B4
:10104000FF28E0D16346FF240D002AE7FF290FD0D7
:10105000010073E7002B61D0FF24002F00D120E7AF
:1010600080224146D203114202D0164200D13B00F9
:10107000FF2416E7FF24002324E7002CEAD1002BED
:1010800058D0002F00D10CE763445A0100D439E74F
:101090002E4A0C00134004E701215CE7002C1ED10E
:1010A000002B40D0C94300290BD0FF2836D01B2984
:1010B00047DC1C002026CC40711A8B40591E8B4106
:1010C00023436344040047E7002B18D13B1E2DD077
:1010D0000D00FF24E5E63B0004000D00E1E6FF28DB
:1010E0001CD08024E40449422343E0E7002F00D1D0
:1010F000D7E6DE1B72011FD5FB1A0D00D1E6FF24D7
:10110000002F00D1CDE680224046D2031042AFD05E
:101110001642ADD13B000D00FF24C2E66346FF241A
:10112000BFE601237AE73B000400BAE680260022EE
:10113000F603F0E63B00B4E6331E00D0E2E6002200
:1011400021E70123BDE7C046FFFFFF7DFFFFFFFB57
:10115000F0B557464E46DE464546E0B544024300EC
:10116000C60F83B00F1C640A1B0EB24653D0FF2B70
:1011700027D08022E400D20414437F2252429046BA
:101180009844002399469B467D027800FB0F6D0A28
:10119000000E009324D0FF2846D080230021ED00CC
:1011A000DB041D437F384746381A4F460F43BF00C4
:1011B000B9463300009A874F53404A46BA580193C4
:1011C0009746002C4ED108239946F7339846FD3BAD
:1011D0009B467D027800FB0F6D0A000E0093DAD16A
:1011E000002D26D1002001213300009A7A4F534070
:1011F0004246101A4A460A439200BA581D009746C2
:10120000009B2C009A468B465B46022B31D15346FD
:10121000FF21002438E0002C17D104239946002335
:10122000984601339B46AFE7FF20002D0BD10221EA
:10123000DAE7280002F06AFB431F9D4076235B42F9
:10124000181A0021AFE70321ADE7200002F05EFB92
:10125000431F9C4076235B421B1A98460023994605
:101260009B4691E70C239946F3339846FC3B9B46FB
:101270008AE7032B00D1A5E05546012B00D081E081
:101280000123002100242B406402C905600ADB070A
:101290000843184303B03CBC90469946A246AB466F
:1012A000F0BD80240023E403FF21EDE7FF210024AB
:1012B000EAE70123591A1B2966DD019A1340002130
:1012C0000024E1E78023DB031C4238D01D4251D0CB
:1012D0001C436402640A3300FF21D5E763016C01FB
:1012E000A3423BD21B260021013801251F004900E3
:1012F0005B00002F01DB9C4201D81B1B2943013EF0
:10130000002EF3D11C00631E9C410C4301007F3171
:101310000029CEDD630704D00F232340042B00D027
:101320000434230103D501002C4B80311C40FE29DD
:101330000DDD0123019AFF2113400024A4E780233F
:10134000DB031C436402640A3300FF219CE7012392
:10135000019AA401640AC9B2134095E71B1B1A261F
:101360000121C2E7009B8B469A4600244CE76302AA
:10137000E5D500258024E4032C436402640A009B25
:10138000FF2181E70195C1E723002020CB40411ACE
:101390008C40611E8C411C43630704D00F23234003
:1013A000042B00D00434630105D50123019A0121E7
:1013B0001340002468E70123019AA401640A134042
:1013C000002161E78023DB031C436402640A534667
:1013D000FF2159E7ACD80510ECD80510FFFFFFF747
:1013E00070B5420045024E024C00C30F6D0A120E4A
:1013F000760A240EC90F0120FF2A06D0FF2C03D045
:10140000A24201D1B54206D070BD002DFCD1FF2C07
:10141000FAD1002EF8D18B4206D00120002AF3D158
:101420002800451EA841EFE70020EDE7F0B5420097
:1014300045024C02C30F48006D0A120E640A000EEA
:10144000C90FFF2A1ED0FF2821D0002A0AD16E42E0
:101450006E41F6B200280FD1002C0DD10020002DD6
:1014600009D005E0002801D1002C01D08B4211D019
:10147000012158420843F0BD002EF7D00120013968
:101480000843F8E7002DDED002204042F3E7002CAD
:10149000DBD0F9E78242EBDC04DBA542E8D8002090
:1014A000A542E8D20121581E0843E4E7F0B5420006
:1014B0004D024C004602760A120EC30F6D0A240E2E
:1014C000C90FFF2A16D0FF2C18D0002A0AD170426B
:1014D0007041C0B2002C15D0002805D00120013980
:1014E0000843F0BD002C13D0994214D001205B4278
:1014F0001843F6E70220002EF3D1E4E70220002D86
:10150000EFD1E2E7002DE7D10020002EE9D0EDE792
:10151000002DE9D1EAE7A24206DCDFDBAE4203D8C8
:101520000020AE42DAD3DCE7012049420843D8E785
:10153000F8B557464E464546DE46E0B547024600FA
:1015400088467F0A360EC40F002E47D0FF2E24D0C7
:10155000FB008027FF041F43002399469A467F3EE5
:1015600043465D025800DB0F6D0A000E984643D0DB
:10157000FF283BD0EB0080250022ED041D437F387F
:101580003618731C41469B464B46614013430F2B54
:1015900064D875489B00C3589F46002F42D108234A
:1015A0009946063BFF269A46DAE74146022A28D0AA
:1015B000032A00D1CEE0012A00D0ACE01140002087
:1015C0000022CCB24002D205400AE4071043204377
:1015D0003CBC90469946A246AB46F8BD002F15D1BB
:1015E00004239946033B00269A46B9E7FF200222CE
:1015F000002DC5D00322C3E7002D19D10020012200
:10160000BEE70124FF220C400020DBE7380002F097
:101610007DF97626431F9F4000237642361A99466D
:101620009A469DE70C239946093BFF269A4697E781
:10163000280002F06BF9431F9D4076235B42181A85
:1016400000229DE780200024C003FF22BAE73D006E
:101650005246ABE73D0021005246A7E73B0C9C46B3
:101660002A04120C2B0C1400604665463F043F0C04
:101670007C4342435D437B43270C9B18FF18BA42CF
:1016800003D980235B029C46654424043A04240C5D
:10169000121993015C1EA3413F0C920E7D191A434F
:1016A000AD0115432B0104D501235E466A081D4098
:1016B000154332007F32002A25DD6B0704D00F234B
:1016C0002B40042B00D004352B0103D53200274BCF
:1016D00080321D40FE2A94DC0124A801400AD2B2C7
:1016E0000C406FE78020C003074207D0054205D1B8
:1016F00028434002400A4446FF2263E73843400241
:10170000400AFF225EE70124A31A1B2B05DD0C40D3
:101710000022002056E75E46CBE72A002020DA4070
:10172000C31A9D402B005D1EAB4113435A0704D0E2
:101730000F221A40042A00D004335A0104D5012490
:1017400001220C4000203DE701249B01580A0C4077
:10175000002237E780200124C00328434002400ACA
:101760000C40FF222EE7C0462CD90510FFFFFFF7E3
:10177000F0B54F46D64646464400C0B5C20F4702B4
:101780004802400A844666467B0A4800C90F9A46CA
:10179000240E1500DB00000E8946F600FF2800D15C
:1017A0008FE001214F464F403900914266D0221A06
:1017B000002A00DC9DE000283DD1002E00D18BE006
:1017C000511E002900D0B5E001249B1B5A0144D5CD
:1017D0009B019F09380002F099F805388740844240
:1017E00000DD96E0041B3A0020200134E240041B97
:1017F000A7403B005F1EBB41002413435A0704D09F
:101800000F221A40042A00D004335A0127D501348C
:10181000FF2C00D179E001229B015B0AE4B22A404F
:101820005B02E405580AD207204310431CBC9046D3
:101830009946A246F0BDFF2CE0D08021C9040E439A
:101840001B2A7BDC31002020D140821A9640721E78
:1018500096410E439B1B5A01BAD45A07D0D101229C
:10186000DF082A40FF2C33D1002F00D1A8E08023CD
:10187000DB033B435B025B0AFF24D1E7211A00290B
:101880004CDD00282AD0FF2CB8D08020C0040643AD
:101890001B2900DDAFE030002027C840791A8E40B8
:1018A000711E8E4106439B195901D6D50134FF2C78
:1018B00000D185E001227A491A405B080B401343AE
:1018C0009CE7002E00D070E76BE73B1EC5D10022DD
:1018D0007B025B0AE4B2A3E714008FE7002E4DD031
:1018E000481E002857D19B1901245A01B5D502245E
:1018F000E0E7002A25D1621CD2B2012A72DD9F1BCB
:101900007A0135D5F71A0D0064E7012200232A4039
:1019100086E73B00634A241A13406FE700296CD125
:10192000611CC8B201284EDDFF2949D09B195B0814
:101930000C0063E7FF2A41D00A0081E701269B1BC8
:1019400089E7002C1CD0FF2821D08024E4045242D7
:1019500023431B2A00DD96E01C002025D440AA1A50
:1019600093405A1E93412343F31A04000D002DE7C0
:10197000002F00D02EE700220024A9E70C003DE74D
:10198000002B58D0D243002AEED0FF28E1D13300FB
:10199000FF240D0032E7FF2910D0010078E7002B6B
:1019A0006ED0FF24002E00D128E780225146D203BA
:1019B000114203D06146114200D13300FF241DE7DC
:1019C000FF2400232CE7002CE9D1002B63D0002E4C
:1019D00000D113E79B195A0100D43EE7314A0C00AD
:1019E00013400BE7002C1ED1002B2FD1002E4FD01F
:1019F00033000D0002E7012655E7002C1FD1002B14
:101A000043D0C94300290BD0FF2839D01B2944DC1F
:101A10001C002027CC40791A8B40591E8B41234350
:101A20009B19040040E7002B1AD1002E24D18027F7
:101A30000022FF031BE7330004000D00DEE6FF2851
:101A40001ED08024E40449422343DFE7002E00D166
:101A5000D4E69F1B7A0100D437E7F31A0D00CDE6D8
:101A6000FF24002E00D1C9E680225046D203104246
:101A7000A4D060461042A1D133000D00FF24BDE682
:101A80003300FF24BAE601236EE733000400B5E615
:101A9000002700221CE73300B0E60123C0E7C04660
:101AA000FFFFFF7DFFFFFFFB42024B0240004900AA
:101AB000520A000E5B0A090EFF2803D00020FF29FE
:101AC00006D07047FE38002AFBD10020FF29F8D14C
:101AD0001800431E9841F4E741024300C20F490A2F
:101AE0001B0E00207E2B0DDD9D2B0CDC80200004C6
:101AF0000143952B0ADC9620C31AD9404842002A9C
:101B000000D108007047034BD018FBE7963B994083
:101B1000F4E7C046FFFFFF7F70B5002830D0C31741
:101B2000C4185C40C50F200001F0F0FE9E231B1A74
:101B3000962B0DDC9622D21A94402A006402640A85
:101B4000DBB26402DB05600AD2071843104370BDA4
:101B5000992B19DC9922D21A002A29DD94402200FF
:101B6000144C1440510704D00F210A40042A00D01D
:101B70000434620113D4A401640ADBB22A00E0E752
:101B8000002200230024DCE705222100121AD140A4
:101B9000B922D21A9440621E94410C43DAE7054BF5
:101BA0002A001C409F23A4011B1A640ADBB2C8E769
:101BB0002200D5E7FFFFFFFB10B5041E27D001F080
:101BC000A5FE9E231B1A962B0ADC9622D21A94405D
:101BD0006402640ADBB26402DB05600A184310BDCC
:101BE000992B17DC9922D21A002A27DD9440220073
:101BF000134C1440510704D00F210A40042A00D08E
:101C00000434620112D4A401640ADBB2E3E70023C6
:101C10000024E0E7B9222100D21A91400A00511EA7
:101C20008A410521091ACC401443DBE7044B1C40D0
:101C30009F23A4011B1A640ADBB2CCE72200D7E77A
:101C4000FFFFFFFBF8B54546DE4657464E460C0300
:101C5000E0B54E00C90F88460D00610A440F0C43E1
:101C6000C70019035800DB0F9B464B0A510F0B436B
:101C7000760D400D1900D200D84500D1AEE0351ADE
:101C8000002D00DCF6E000280FD1134300D1DBE08B
:101C90006B1E002B00D037E1BA1A9742BF41641A7D
:101CA0007F42E41B0126170024E0C64B9E424DD024
:101CB00080231B041943382D00DD07E11F2D00DDB3
:101CC00038E12020431B9A460B005046834099463A
:101CD00013004846EB401843030050468240501E14
:101CE0008241E9401A43BA1A611A9742A441170087
:101CF00064420C1B230262D56402650A002D00D1E8
:101D0000DFE0280001F002FE0300083B1F2B00DD8E
:101D1000D2E020223C00D21A9D40D4409F4025436F
:101D20009E4200DDC4E09E1B731C1F2B00DDF1E012
:101D3000202238002900D21AD840914097402C0028
:101D40000143781E8741DC4000260F437B0709D002
:101D50000F233B40042B05D03B1DBB42BF417F42BC
:101D6000E4191F0023022CD5964B01369E4200D168
:101D70009AE04546944BFF081C40600776056402D4
:101D80000743240B760D00212403230B0C0D8F4AEF
:101D900024051C431440330523435B00ED075B0817
:101DA0002B43380019003CBC90469946A246AB46EE
:101DB000F8BD6446044300D111E2040067467B0786
:101DC000C6D145466007FF080743E4087D4B9E42A5
:101DD00030D024037605240B760DD4E7331A9A46C7
:101DE000002B78DD002831D076488642AED08020A6
:101DF000000401435346382B00DCE9E00A43511E3E
:101E00008A410021D219BA42BF4109197C42170008
:101E10000C192302D3D56B4B01369E4200D13AE117
:101E20000120694B1C407B0807401F43E007074324
:101E300064088BE723003B4300D1CBE180221203EF
:101E400014432403240B9EE72E007FE70800104371
:101E500000D1B4E0581E002800D0DEE0BA18BA4223
:101E60009B4164185B42E418170001262302A6D5A3
:101E70000226D5E7002D6ED1701C4005400D0128CB
:101E800000DCF9E0B81A844687428041E51A4042F6
:101E90002D1A280200D489E0D71BBA4292411C1B9C
:101EA0005242A51AD84629E74546002400276AE78A
:101EB000454CF61A2C4049E73D002838854000275C
:101EC0002EE7380001F022FD20301DE70A43511EA5
:101ED0008A41002107E7002B00D0F3E0701C430586
:101EE0005B0D012B00DCADE0364B984200D1D1E018
:101EF000BA18BA42BF4164187F42E419E707520892
:101F000017436408060021E72E48854200D193E07C
:101F10001D00D0E629001F3EF140202B00D18DE0AE
:101F20004022D31A9D402F437D1EAF4100240F4312
:101F3000002644E72B000800203BD8400300202D5A
:101F400000D17DE04020451BA9400A43511E8A4133
:101F500000211A43C7E6002E50D01A4EB04257D087
:101F600080266B429946360434434B46382B00DDBD
:101F7000D6E01F2B00DD35E12026F51A2600AE4005
:101F8000B2463E00DE40AC46350056462E4365461E
:101F9000AF407D1EAF41DC403743D71BBA42924170
:101FA0000C1B5242A41A0600D846A3E664466746B4
:101FB0002C4300D0A2E600250026002706E71E00DD
:101FC000C4E6C046FF070000FFFF7FFFFFFF0F8052
:101FD0001F2B63DC2020C31A080098409C468346D0
:101FE00053461000D84003005846184363469A40B1
:101FF000531E9A4153460243D94003E726003E430D
:1020000006D0EB439946002BC7D0944EB042ACD1DA
:102010000C0017000600D84698E6904B9A450BD066
:102020008246E7E6002800D09EE01800104300D169
:10203000E9E01C001700D846884E87E6002572E7C5
:10204000002182E723003B43002E00D0ABE0002BB1
:1020500000D1E7E00B00134300D177E6BA18BA428B
:10206000BF4164187F42E419230200D4F2E07C4BA4
:1020700017001C40060069E620003843002ED1D12D
:1020800000285BD11C00144300D1A8E01C001700FD
:10209000D8465BE606000024002797E650460B0072
:1020A0002038C34099465346202B00D195E0402369
:1020B00050461B1A99400A43511E8A414B46002143
:1020C0001A439FE6002E30D126003E4367D0DB4303
:1020D0009A46002B1CD0614EB04260D05346382B3C
:1020E00000DD96E01F2B00DD9FE02026F31A26007E
:1020F0009E409C46B34653463E00DE4033005E465B
:102100001E4363469F407B1E9F415346DC4037433E
:10211000BF189742924164185242A418060078E60C
:1021200027437C1EA741002437E74C4EB04236D0EF
:1021300080265B4236049A463443CFE718001043AA
:1021400000D103E6B81A84466745AD41E01A6D42F6
:10215000401B050200D42CE6D71BBA4292411C1B3F
:102160005242A41AD846F1E51800104300D163E7A3
:10217000F808670707438020E4080003044208D0FA
:10218000DD08054205D1D208590711430F002C0084
:10219000D8467B0FE4001C43FF00304ED6E50C0010
:1021A00017000600D2E5002B38D00B00134300D1F6
:1021B00042E7F808670707438020E4080003044269
:1021C000E7D0CB080342E4D1D208490711430F00FE
:1021D0001C00DEE700270024D5E500216BE7002581
:1021E0000027F3E54E462500203EF5404B462E00E5
:1021F000202B2DD04025ED1AAC4027437C1EA74153
:1022000000243743C9E6802400252403134E002709
:10221000DCE527437C1EA741002479E70C0017006A
:102220000E4E93E50C00170090E556462300203E25
:10223000F34099465346202B0ED0402356469B1B15
:102240009C4027437C1EA7414B4600241F435FE769
:102250000024D2E71700B2E50024F2E7FF070000F0
:10226000FFFF7FFFF0B557464546DE464E46E0B5D8
:102270004C000E0387B0834692461D008046360B05
:10228000640DCF0F002C4FD06F4B9C4235D0802374
:10229000420F1B04F600134333439946C30098468C
:1022A0006A4B00269C460023644403932B031B0BBC
:1022B0009B466B00ED0F50465B0D01955ED0624A68
:1022C000934253D05A46D1008022400F1204024359
:1022D0000A4393465246D1005C4A94460022634426
:1022E0003800684084460290E41A16430F2E00D945
:1022F000B4E0574BB6009B599F46030033439946C1
:102300006CD100239846023308260393CEE7CB46D0
:102310004146039A0197022A65D1019B4A4C9C468B
:102320000023002298466BE00300334399464ED0C9
:10233000002E00D1BCE1300001F0E8FA03000B3BB5
:102340001C2B00DDACE11D22D31A5A460100DA40F5
:1023500008398E401300334399465B468B409846BC
:1023600000233C4C0026241A03939FE751465A460B
:10237000114329D1002293460232B1E75946014365
:102380001ED05B46002B00D19EE1584601F0BEFAFC
:1023900003000B3B1C2B00DD8FE102005946083A7D
:1023A00091408B461D21CB1A5146D9400B0059460E
:1023B0000B4351469B469140264B00221B1A8FE748
:1023C000002301229B468BE75146032288E7002326
:1023D0009846013304260024039367E70323B1469C
:1023E00003930C2662E7032A00D15CE2019B012AD9
:1023F00000D0E4E113409C460023002400229846CC
:1024000000211203130B0A0D12051A432305124C67
:1024100040462240134362465B00D2075B081343E9
:10242000190007B03CBC90469946A246AB46F0BDA9
:10243000002380229C4612039846034CE0E70023C9
:10244000014C00229846DBE7FF07000001FCFFFF7C
:102450006CD905100DFCFFFFFFFF0F80D94500D997
:1024600039E100D134E1002346464D469A46013C0D
:102470005B460A0E1B021A430B02170C039313044C
:102480001B0C3900280090460193FEF771FA0200F8
:10249000019B83465A43280039009146FEF7EEFA25
:1024A000350C09040D43A9450DD95B464544013B54
:1024B000A84500D93AE1A94500D837E102235B429B
:1024C0009C464544E3444B46EB1A390018000493FC
:1024D000FEF74EFA019B05004343390004989946E4
:1024E000FEF7CCFA330409041B0C0B43994509D9B8
:1024F00043446A1E984500D91AE1994500D817E16E
:10250000023D43444A469B1A5A4612042A43039901
:102510009346100C0A0C914609045A46090C4E4683
:102520000D001204120C4543059151437243704350
:1025300052190E0CB218954203D980256D02AC4693
:102540006044150C09041204090C2818521883421F
:1025500000D2CEE000D1C8E01D1A53469E1AB24503
:1025600092415242AB1A9A46984500D117E1390080
:102570001800FEF7FDF9019B050043433900504662
:102580000493FEF77BFA04980B04310C194388423C
:1025900009D941446B1E884500D907E1884200D81B
:1025A00004E1023D4144049BCB1A18003900049316
:1025B000FEF7DEF9019B82464343390004980193FC
:1025C000FEF75CFA01980B043104090C19438842A8
:1025D0000DD953464144013B884500D9E8E0884283
:1025E00000D8E5E002235B429C464144E244019B63
:1025F0002D04CE1A51462943059D4F462A000B044F
:10260000080C1B0C5A4345437B4378435B19170C5A
:10261000FB189D4203D980256D02AC4660441D0C19
:1026200012041B04120C28189B18864200D293E057
:1026300000D18EE001231943A04BE318002B00DCEE
:1026400099E04A0700D09EE05A46D20106D55A4684
:102650009B4B1A4080239346DB00E318994A934230
:1026600068DD0123029A984C1A400023944698464C
:102670000022C5E680224B46120313420AD05B4675
:10268000134206D11A431203120BAC4688468E4CF5
:10269000B6E64B461A431203120BBC468A4CAFE611
:1026A00003005A46283B9A4000239146984657E635
:1026B000584601F02BF9203040E603005246283BF3
:1026C0009A400021934677E601F020F920305FE63A
:1026D000884500D2C7E64B46DE075D0843465B08E7
:1026E0001E434346DB079A46C2E60025924500D3C7
:1026F00033E7039E5946B446E244B245AD416D42CC
:102700004544EB180139984507D2984200D97FE03B
:1027100000D1BCE01D1A8B461FE79845FAD1039DF6
:102720005545F2D943468B461D1A16E79B46CAE625
:102730001500E7E65A46C90852070A435B0590466A
:102740005C0D5A460123029952021940120B8C4625
:1027500056E6002B00D16FE746444A1EB04529D902
:102760001100864200D065E7039A934200D061E7EA
:1027700062E7012149420120C21A382A21DD029B69
:1027800003409C4638E60F220A40042A00D15BE74A
:102790000A00111D914292415242934454E7474B23
:1027A000E318002BE5DD01225242F2E71D00FAE6B4
:1027B0009A461CE7B04239D86ED011003AE702932E
:1027C0003AE71F2A3CDC20239B1A0C00584699400C
:1027D00098404B1E99415B46D440D3402043084368
:1027E0001A00430709D00F230340042B05D0010032
:1027F000081D88429B415B42D21813023AD501233F
:10280000029A01241A400023944698460022F7E5D4
:10281000022149428C46039DE344AC46E244AA456A
:10282000AD416D424544ED182D1A96E68A1E039976
:102830004D008D42894149424144761803958FE706
:102840001F204042C31A5846D8400300202A28D0EF
:1028500040205D46821A954029434A1E9141194302
:10286000072300220B4009D00F2300220B40080051
:10287000042BBDD1010053075202120BC9081943A2
:10288000012388460299002419408C46B8E5524538
:10289000BED88B46002560E6039D9D42C6D311003D
:1028A00062E70025D8E780225B4612031A43019BAA
:1028B0001203120B9C468846034CA1E5FF0300005F
:1028C000FFFFFFFEFE070000FF070000F0B54F46C8
:1028D0004646D6465C00C0B51F03DB0F9A46174B31
:1028E0000E034D0084468046360B6D0DC90F914690
:1028F0003F0B640D01209D4208D09C4201D0A542AF
:102900000BD01CBC90469946A246F0BD63463343AB
:10291000F7D1AC42F5D13A43F3D10120BE42F0D118
:10292000C845EED1514507D0002DEAD163461E437C
:102930003000461EB041E4E70020E2E7FF07000058
:10294000F0B54546DE4657464E46E0B51F033D0B03
:102950002C4F0E034C00AB465D008446360B640DD5
:10296000C90F90466D0DDB0FBC422AD0254FBD42EA
:102970002DD0002C0FD1304307008146784278419A
:10298000C0B2002D17D15F463A4314D14B46002008
:10299000002B0AD006E0002D02D15846024301D098
:1029A000994218D04842012108433CBC90469946C0
:1029B000A246AB46F0BD0028F2D00120013B1843EF
:1029C000F3E737000743D1D002204042EDE75F46EE
:1029D0001743CED0F8E7AC42E4DC03DA481E01210D
:1029E0000843E2E75E45DDD806D000205E45DCD234
:1029F0000123481E1843D8E7C445D3D80020C44556
:102A0000F6D3D2E7FF070000F0B54E464546DE4656
:102A100057465C00E0B51F03DB0F99462A4B0E03B7
:102A20004D00C90F8446360B6D0D8B4690463F0B0B
:102A3000640D9D4220D0244B9C4222D0002D12D107
:102A4000304343424341DBB2002C1FD0002B0CD05B
:102A50004B460120013B034318003CBC904699467D
:102A6000A246AB46F0BD002C16D0CB4517D05B4636
:102A7000594201230B43EFE7310002230143EBD11D
:102A8000D9E7390002231143E6D1D7E73A43DDD134
:102A900000230028E0D0EAE73A43E6D1E7E7A54281
:102AA000E5DC05DBBE42E2D807D00023BE42D3D22C
:102AB0005946012301390B43CEE7C445D7D800233B
:102AC000C445F5D3C8E7C046FF070000F0B5574638
:102AD0004546DE464E46E0B50C0398464E00230BB5
:102AE00087B0070092469B46760DCD0F002E6BD027
:102AF0006D4B9E4235D080245B46420F2404DB00A0
:102B000014431C43C3009946684BA3469C460023CC
:102B100000276644029343461C035A00DB0F5046CD
:102B2000240B520D984600D176E05F4B9A426DD04F
:102B30008023410F1B040B435C49E4008C461C437B
:102B4000C300002062444146B6186940721C0191DE
:102B5000944607430F2F00D9B0E0554ABF00D25921
:102B600097465B460343994600D087E000239B4687
:102B7000023308270293CEE742460192022867D02B
:102B8000032800D10EE2012800D062E100230024D6
:102B90000022994601990140CDB2002112030B0D8C
:102BA000120B1B051343434A240513401C436400C6
:102BB000ED0764082C434846210007B03CBC904612
:102BC0009946A246AB46F0BD034399464FD05B46BB
:102BD000002B00D189E1584600F098FE03000B3B22
:102BE0001C2B00DD7AE11D22D31A3A0001005C465D
:102BF000DA4008398C4013008F4023439B46B94686
:102C000000232D4E0027361A029384E753462343B0
:102C10002AD10024022096E75346234320D0002CDB
:102C200000D157E1200000F071FE03000B3B1C2B8C
:102C300000DD49E11D21CB1A51460200D94053461F
:102C4000083A944093400C431B4A121A00207AE73A
:102C50000125019B144C1D400023002299469CE74E
:102C60000024002201206EE7534603206BE7002377
:102C70009B4601330427002602934CE70323814639
:102C80000C27029347E78022002300251203994670
:102C9000054C82E75C464B4602986FE75C464B4624
:102CA000019502986AE7C046FF07000001FCFFFF9C
:102CB000ACD90510FFFF0F800DFCFFFF4A464946C7
:102CC000170C1A0C1B041B0C08041900000C4143C0
:102CD0001500884619007D437943039589462900EC
:102CE000150045434D44029545462D0CAA46029DCC
:102CF0005544A94506D98A46802149028946CA44D5
:102D000051460391290C0491414609042D04090CF4
:102D100088462900250C24044144240C05912100F7
:102D200041438846210079438A46684341465044DE
:102D30008146080C48446F43824503D980214902EB
:102D400089464F44010C8946390049440291414665
:102D50000F0404993F0C88460004C0198044414682
:102D6000049159460F0C0904090C884659438A46B8
:102D700039005143894641464A435146090C8B4626
:102D80007B43D2185A44934203D980235B029B466B
:102D9000D94451460904090C8A46414661437C43A3
:102DA000130C12044B445244A1468A463C0041464F
:102DB0006C434D4351464D440F0C7D19A94503D931
:102DC0008021490288464444049F0399B8464144FF
:102DD0008B468345804141428846514608042F0472
:102DE000000C3F18584602991018894690429241AB
:102DF0004F44BA46524299469346C244D144CB44CA
:102E00008F42BF41C245894199459B4193459241BB
:102E10007F4249422D0C52420F435B4213437F19BC
:102E2000FF185B463C19DB0D059A64021C43430204
:102E300013435D1EAB415A46C00D03435202134378
:102E4000E20156D501205A0803401343E207134319
:102E500064085A48604400284DDD5A0709D00F2203
:102E60001A40042A05D01A1D9A429B415B42E4187D
:102E70001300E20104D58020514AC0001440604490
:102E8000504A904200DDE3E60125DB0862071A4361
:102E90006402019B9146220B4405640D1D407CE6B3
:102EA000802259461203114208D0144206D122430F
:102EB0001203120B45469946434C6EE65B461A4395
:102EC0001203120B404C68E603005446283B9C401A
:102ED0000023B9E600F01AFD2030A6E60300283BE7
:102EE0009F400023BB4699468AE600F00FFD203044
:102EF00074E6B446ADE701252A1A382A06DD019B9F
:102F000000241D4000230022994646E61F2A21DCAA
:102F100020252000AD1A1E00AB40A840D6405D1E03
:102F2000AB4130431843D440430709D00F2303403B
:102F3000042B05D00300181D98429B415B42E41806
:102F4000230221D50125019B01241D4000230022DD
:102F5000994622E61F2521006D42281AC14008002B
:102F6000202A1DD05F35AA1A944023435C1EA3413A
:102F7000072503431D400022002D09D00F22002405
:102F80001A401800042AD6D1030065076402220BF8
:102F9000DB082B4301259946019B00241D40FCE5DD
:102FA0000024E2E780220125120322430199120343
:102FB000120B0D409946044CEFE5C046FF0300009C
:102FC000FFFFFFFEFE070000FF070000F0B54646CA
:102FD000D6464F460C03C0B5CD0F4E00610A440FD4
:102FE0000C43C1005800400D84468A460F00190367
:102FF000500F490A0143C648760DA846DB0FD200A0
:10300000844500D1D8E001204340AB4200D1A6E086
:103010006046351A002D00DC05E1002810D10B00B8
:10302000134300D1D7E06B1E002B00D04BE1534679
:103030009F1ABA458041641A4042241A01261EE0B4
:10304000B34B9E4248D080231B041943382D00DD2A
:1030500019E11F2D00DD4CE120230F005B1B100048
:103060009A409F40E840531E9A41E9400743174366
:103070005346DF1B611ABA45A44164420C1B23026C
:1030800000D4C5E06402650A002D00D1F6E02800F6
:1030900000F03CFC0300083B1F2B00DDE9E0202290
:1030A0003C00D21A9D40D4409F4025439E4200DD03
:1030B000DBE09E1B731C1F2B00DD0AE12022380081
:1030C000D21A290097402C009140D8407A1E97418F
:1030D000DC40002601430F437B0709D00F233B4010
:1030E000042B05D03B1DBB42BF417F42E4191F00AA
:1030F000230225D5864B01369E4200D1AFE0854B99
:1031000001251C4043466207FF0864027605174309
:10311000240B760D1D4000212403230B0C0D7E4A49
:1031200024051C431440330523435B00ED075B0873
:103130002B43380019001CBC90469946A246F0BDAE
:10314000012543466207FF081743E4081D40704B02
:103150009E4236D024037605240B760DDBE76346CA
:10316000F31A002B00DC94E06046002835D0684854
:103170008642B1D080273F043943382B00DCFDE084
:103180000A43170000217A1E974157445745804152
:10319000091944420C1923023AD55D4B01369E426F
:1031A00000D14BE101225B4B1C407B0817401F43C1
:1031B000E207174364088FE70800104300D024E7B4
:1031C00021E723003B4300D1B9E1802212031443DD
:1031D0002403240B9FE72E007EE70800104300D154
:1031E000CAE0581E8446002800D0E7E05244524509
:1031F000804164184042241817000126230207D595
:103200000226CFE764462C4300D1B3E12C00674689
:103210007B0700D062E76307FF081F430125434691
:10322000E4081D4093E7002D78D1751C6D056D0DE8
:10323000012D00DCF2E05046801A8245BF41651A3C
:103240007F42ED1B8446280200D48CE05046171ABA
:10325000BA4292410C1B5542651B984614E7012562
:10326000434600241D40002755E72A4CF61A2C40FF
:1032700032E73D0028388540002717E7380000F086
:1032800045FB203006E70A43170000217A1E9741CC
:10329000EEE6002B00D0E5E0731C9C465B055B0D61
:1032A000012B00DC9FE01A4B9C4500D1C5E0524445
:1032B00052458041641840422418E70752081743DA
:1032C0006408664608E71248854200D185E01D0083
:1032D000BCE629001F3EF140202B00D17FE04022B8
:1032E000D31A9D402F437D1EAF4100240F4300267B
:1032F0008EE72B000F00203BDF40202D71D04023B4
:103300005D1BA9400A43511E8A4100211743AFE6C5
:10331000FF070000FFFF7FFFFFFF0F80002E3ED062
:10332000B34EB44545D0802636046D423443382D23
:1033300000DDA8E01F2D00DD1FE1202627005046FC
:10334000761BB740E84007435046B040461EB041A8
:10335000EC403843171ABA4292410C1B5242A41A4D
:10336000664698468BE6644667462C4300D08BE65B
:10337000002500260027EAE61E00ADE61F2B60DCD4
:103380002027F81A0F00844687401000D8400743D2
:1033900060468240501E8241D9401743F5E6260020
:1033A0005046064305D0ED43002DD3D0904EB44592
:1033B000BDD10C001700664698468DE68C488342C6
:1033C0000BD06346D9E6002D00D096E008001043EC
:1033D00000D1E2E00C0017009846854E7CE60025FF
:1033E00080E700218EE7230050460343002E00D0E3
:1033F000A8E0002B00D1DEE00B00134300D16BE608
:103400005244524580416418404224181700230258
:1034100000D4FDE6774B66461C405DE6250050462D
:103420000543002ECFD1002D4FD10C00144300D105
:10343000A0E00C00170098464EE6664600240027E0
:1034400085E61F000800203FF8400700202B00D130
:103450008EE04020C31A99400A43511E8A41002140
:10346000174392E6002E14D126005046064362D040
:10347000DB43002B5CD1871897429241641852427B
:10348000A418664687E650462043441EA041002407
:1034900060E7574EB4454ED0802636045B42344335
:1034A000382B00DD7FE01F2B00DD8BE0202627007E
:1034B0005046F61AB740D84007435046B040461E23
:1034C000B0410743DC40BF18D6E70D00154300D1DB
:1034D00002E65046801A8245BF41651A7F42ED1BC5
:1034E0008446280200D48DE65046171ABA4292410B
:1034F0000C1B5242A41A9846EEE50D00154300D16C
:103500006BE750466707C00807438020E4080003C4
:10351000044207D0CD08054204D12C009846D708B4
:1035200049070F437B0FE4001C43FF00304ED3E5F7
:103530002F4EB445B4D10C0017006646CCE50027E9
:103540000024E8E5002B39D00B00134300D144E7F9
:10355000C008670707438020E40800030442E1D065
:10356000CB080342DED1D70849070F431C00D9E737
:10357000002171E700250027E9E52E002700203E05
:10358000F740202D2FD04026751BAC4050462043DD
:10359000441EA04100243843DCE680240025240397
:1035A000134E0027D3E5504620430700781E87417D
:1035B0000024BF1860E70C0017008DE50C00170011
:1035C0000B4E89E51E002700203EF740202B0CD033
:1035D0004026F31A9C4050462043441EA041074316
:1035E0000024BF1848E70024D0E70024F3E7C046D2
:1035F000FF070000FFFF7FFF30B5134D0A034B00AC
:10360000120B5B0DC90F0024AB4210DD0F4CA3421F
:103610000FDC80240E4D64032243ED1A1F2D0BDDB9
:103620000C48C31ADA405442002900D1140020008B
:1036300030BD094BCC18FAE7084CE840A446634477
:103640009A400243EFE7C046FE0300001D0400005D
:103650003304000013040000FFFFFF7FEDFBFFFFBA
:1036600070B5002830D0C317C4185C40C50F2000C7
:1036700000F04CF9174B184A1B1AD21A1F2A18DDF2
:10368000164AD21A9440002224035B05240B5B0DDA
:103690000021100024030A0D240B12052243104CB4
:1036A0001B05224013435B00ED075B082B43190009
:1036B00070BD210091400A000B21081AC4405B052F
:1036C0002403240B5B0DE3E70025002300240022E4
:1036D000DEE7C0461E0400003304000013040000AF
:1036E000FFFF0F8010B5041E28D000F00FF9154B16
:1036F000154A1B1AD21A1F2A15DD144AD21A9440F1
:10370000002224035B05240B5B0D00211000240321
:103710000A0D240B120522430D4C1B0522401343B6
:103720005B00590810BD210091400A000B21081AC6
:10373000C4405B052403240B5B0DE6E70023002453
:103740000022E2E71E04000033040000130400001E
:10375000FFFF0F804100090E4B1C70B5DBB2460223
:10376000750AC40F012B14DDE0239B006D07360B97
:10377000CB1800210A0D280012051C4D32435B05B1
:103780002A405B0813435B00E4075B0823431900EE
:1037900070BD002914D1002D1ED0280000F0B6F80D
:1037A0000A281CDC0B232A001B1ADA4003001533FD
:1037B0009D400F4B12031B1A5B05160B5B0DD8E7E0
:1037C000002D06D0320B802636036D071643094BB9
:1037D000CFE7084B0026CCE700230026C9E703000B
:1037E0002A000B3B9A400025E3E7C046FFFF0F800D
:1037F00089030000FF070000F0B54C00640D0B03C7
:10380000621C450F5B0A52052B43C90FC500520DC0
:10381000012A28DD3A4AA618FE2E1BDC002E3EDDCA
:1038200080010200501E82416D0F2A43DB001343CA
:103830005A0704D00F221A40042A00D004338022F1
:10384000D2041A405AD00136FF2E03D09B015B0AE6
:10385000F4B201E0FF2400235802E405400AC9073E
:1038600020430843F0BD002C07D01D43F2D0802038
:10387000DB0080040343FF26DAE72B4303D0052354
:10388000DB08FF2C03D05B025B0AE4B2E4E7002B09
:1038900032D08020C00303435B025B0ADCE73200C6
:1038A000173214DB80221E2712041343BF1B1F2F65
:1038B0000FDC144A944664442A00A5402E00A3401D
:1038C000751EAE41FA40334313430026B0E700248F
:1038D000D5E702225242961B1A00F240202F09D04F
:1038E000094884466444A3402B435D1EAB41002637
:1038F00013439DE70023F7E70023ADE73400BFE75C
:1039000080FCFFFF82FCFFFFA2FCFFFF1C210123C4
:103910001B04984201D3000C10391B0A984201D3B2
:10392000000A08391B09984201D30009043902A290
:10393000105C40187047C0460403020201010101F7
:103940000000000000000000F7B51F4A0023D15E10
:1039500057681E4B01914900CC5AC31B002083427B
:1039600001DA5B420830E1089C4203DC04261B1BA1
:103970003043091966089E4203DC02259B1B28433D
:103980008919A4089C4202DC012309191843030782
:1039900007D5791A516051680D4B994203DD536088
:1039A00004E07918F6E70B4B9942F8DB0A4B0199D2
:1039B0001B565B181BB2002B02DA00231380FEBDDE
:1039C000582BFBDD5823F9E75C200020FCD90510BB
:1039D000FF7F00000080FFFFECD90510F8B50D0057
:1039E0001C4C0A000100200008F093FC1A4B281917
:1039F0001F001E001D001C005A6D4E3701325A6513
:103A000059365A355B34102A18D10022134994468E
:103A10005A6500228B5E03701B1243704B681912AB
:103A20008370C17019141B0E437101713878831FA4
:103A3000337006232B7063462370F8BD06220021E5
:103A400008F082FC002338782B700638C0B2307042
:103A5000F2E7C04604200020BC0A00205C200020C1
:103A600010B55C220021024808F06EFC10BDC04673
:103A7000BC0A00200F2210B5204C00236265E632FC
:103A8000FF322281220050321380220058322370EC
:103A9000E3801370C2789A4201D1012010BD83786F
:103AA0009A42FAD8591E0729F7D821004A310A70DC
:103AB00022004B321370FA2300885B01984203D036
:103AC000FA239B019842E8D1230048331880C8218B
:103AD000FCF74EFF2300C0B242004C331A707F2324
:103AE000184023004D331870230006304E331870F1
:103AF000012363700F3323700020CFE7BC0A00203E
:103B0000014B58787047C046BC0A00200288044B1D
:103B10009A87428802339A878288DA877047C0463C
:103B2000BC0A0020014B18787047C046BC0A002030
:103B3000134B01201989002909D01A78402A0CD189
:103B4000DA88121892B2914202D0DA8000207047CF
:103B50000020D88020221A70F9E7302AF6D1DA88BE
:103B6000013292B2DA809142F0D10F225A651A00E6
:103B7000002050321080034AD88010805060E9E75E
:103B8000BC0A00205C200020F7B5464B00905A7814
:103B90000E002020002A46D09A781038002A42D001
:103BA0000221DA7821308A43012A3CD1FA214833B4
:103BB0001B8889018B4226D1402332009A43102A68
:103BC00004D07F231F303340202B2CD10025354CCF
:103BD00027004B373B7873439D4225D323002100B8
:103BE00050334D311A8809788A4249D12300012285
:103BF00058332D481A70FFF7F1FE0023E38030237D
:103C0000402023700FE0FA21100049018B420AD1B5
:103C1000202332009A43082AD8D040233200502073
:103C20009A43102AD2D0FEBD204B214A1B78503433
:103C3000EB189B18009A5B00985EFFF785FE6A46BA
:103C400001901C4B12791A70184B3A781B78EB18BC
:103C50009B18174A9B18009A5B00985EFFF774FE4A
:103C60000F21144B5870019B00010B402288184310
:103C70000D4B9854013222803B785B00ED18A6E78B
:103C800020004C30057841209542CCD100251D8084
:103C9000230002220448583308181A70FFF79EFECA
:103CA000E580ACE7BC0A002064200020060B002061
:103CB000FFFFFF7FB80A002073B5214C6020A37A74
:103CC000002B29D0E37A002B26D000231425E38093
:103CD0003033237023005B331A78230059331B7869
:103CE0009A4208D323005A331B78002B1BD10020A3
:103CF0005834207010E09B1A142B00DD2B00DEB22C
:103D0000104BE18FD218A08F3300009200220BF0ED
:103D100075F9642801D1802076BD22005B321378CA
:103D2000F3181370D6E7A31CD98F064BA08FD218B7
:103D30000092062300220BF061F96428D7D1EAE74C
:103D4000BC0A0020042000200122024B98809A70B7
:103D50007047C046BC0A0020174BD98F02318842F9
:103D60001ED11278012A0FD19A72DA7A002A06D06F
:103D7000DA78002A04D10122DA7020221A70704702
:103D8000022AFAD10322F7E7002AF8D1DA78012AC9
:103D900002D10022DA70F2E7032AF0D10222F9E719
:103DA000991CC98F02318842E9D11278012AEBD1DE
:103DB000DA729A7ADAE7C046BC0A0020C021074AC4
:103DC000074B08485360036A09061B021B0A0B4392
:103DD00003620023936007331360704710E000E034
:103DE0007E3E000000ED00E00E4AD3691B061B0F6B
:103DF0004370D9B2D3690C4A1B071B0F83700B4B5E
:103E00001B68436093420BD102230370002901D148
:103E100001234370064B9B8A01339B0083607047EC
:103E20000123F2E70000904041A0000228009040EA
:103E300000001040F0B5070085B001AC0E00200076
:103E40001500FFF7D1FF23783B7063783370A378B8
:103E50002B7005B0F0BD10B508F05BFA10BD10B5C1
:103E600008F072FA10BD10B508F044FA10BD000059
:103E7000F0B51B4C1500A5440D910400EFF3108321
:103E8000069372B60022174B1A7019F023FA060037
:103E9000200003F093FB331C864200D9031CDAB2E6
:103EA000A24200D9231CDBB20F4A990000938B5821
:103EB00001338B50009B002B07D1069B83F31088A6
:103EC0000020A9239B009D44F0BD009B012B0FD136
:103ED0000021064B1A7A1972D2B230BF1A72ECE77F
:103EE0005CFDFFFF0C000020180B0020000070405C
:103EF00034226B46E14C9B1825701B787DA82371FA
:103F0000FFF772FF237ADE49DBB20F938B88DD4A1D
:103F10009BB2109313685C9111930023089405924F
:103F200080A91A000598C032920080589A00013387
:103F30005050082BF5D1D44CD4482368D44912935F
:103F4000036AD44F13938023DB051A68D24E149270
:103F50005A68D24D15929A681692DA6817921A69C1
:103F600018925A6919929A691A92DA690A92DA6A67
:103F70001B921A6B1C925A6B1D921A8F92B21E9250
:103F80005B6CC74A1F93CB6820930B7FDBB22193F6
:103F90008B8C9BB22293C34B1B78DBB22393C24B17
:103FA0001B78DBB224930B6B2593C04B1B78DBB2E1
:103FB00026930B8F9BB22793BD4B1B78DBB22893C4
:103FC000BC4B9C461B78DBB229933B78DBB22A932F
:103FD0003378DBB22B932B78DBB22C93B64B1B7868
:103FE000DBB22D9313682E9353682F93137CDBB2AF
:103FF0003093137DDBB23193B04BDB7FDBB2329376
:10400000138D9BB23393D36A3493138E0491A549D5
:104010009BB25E91A44935935F91A44900236091BE
:10402000A349019261916146A44A6291A2495D94BB
:104030006397649665950E906691679269AF6BAED3
:104040006DAD6FAC9E4A9A1892041168D9515168AF
:104050009951918BE950118CE150908C71A9C85005
:10406000108D73A9C850D06A75A9585011004C31F1
:10407000088877A9C850106D79A95850916D7BAA0E
:1040800099500433082BDDD1B0231B061B688D4CDF
:10409000369363688C4A3793A3688C4D3893238A90
:1040A0009BB23993A38A9BB23A93A3693B93237F34
:1040B000DBB23C93238E9BB23D93636B3E93A36B29
:1040C0003F93E36B4093236C4193636C4293A36CE7
:1040D000439393889BB2449313899BB24593137C7B
:1040E000DBB24693137DDBB24793138B9BB24893AD
:1040F000137FDBB24993764B998889B24A9119892B
:1041000089B24B91197CC9B24C91197DC9B24D91BC
:10411000198B89B24E91197FC9B24F916D490868C8
:1041200050904868519028685290287AC0B25390B5
:10413000C020000128580995039302920D00002326
:10414000002800D1644B90AA0C939446002388A8C1
:1041500098A9052266465A43604FD21957689F5165
:1041600017681F5097685F50D768A0AA9F50043304
:10417000202BEED18123DB055A6854921A7BD2B2F0
:1041800055925A8B92B256921A8B92B257925A6AA1
:1041900058929A6A1B8859929BB25A93C0231B0665
:1041A0009B685B93009B032B06D19022C023D20512
:1041B00051689B050B435360494B4A4A1B68079360
:1041C000503B0B9300230B99C9180968D150043355
:1041D000502BF8D1444B079A1A607DAA53789278F5
:1041E0001B011343112B04DD0020404B186002F02B
:1041F00013FE9023DB055A683D4B1A60089B1E791D
:104200001A788023DB051B685B0A53409E4300D06D
:1042100053E6012000F0E4FFFCF752FB300000F011
:10422000DFFF344B1B78002B00D0A1E032494B68F4
:104230005B0675D4314B32484A6800685C6A844238
:1042400016D1304849680068884204D00599424038
:10425000096811420CD12C4A596812685140C900B2
:1042600006D45B685A4053015AD52B689B0757D533
:10427000264A274813681B09D91C4BE00000204040
:104280000000104000E100E020ED00E00000904060
:104290000000304054003040580030405C00304056
:1042A00000004040280030402C00304034003040B6
:1042B0004800304050003040600030400500404031
:1042C000281000000000F0400000D04000007040C6
:1042D0000000E04010E000E051E5CC1A080000A02A
:1042E00000080410102100200C21002014000020E0
:1042F000180000200C000020FCE100E000ED00E0D0
:104300006C2100207C210020782100201000004832
:10431000FFFF0F0081421BD813681B099942FBD88D
:104320007DAA537892781B011343112B05DD0120E0
:1043300002F072FD0A4A0B4B1A60009B032B00D05F
:10434000BBE59022D205536807490B405360B4E5A2
:1043500006495B18116809099942FBD1E0E7C0469C
:10436000CCBCECFC14000020FFFFFFCF0400F0FFEA
:104370000122E74F3A83E74ABE813E610B9B915988
:104380009B1904361960502EF8D1079AE24B402150
:104390001A606A4652185C9B128880A89A80059B16
:1043A000119A1A6000239A0011581A00059EC03213
:1043B00092000133B150082BF5D15D9B129A782100
:1043C0001A600E9B139A6DAE1A628023149ADB0555
:1043D0001A60159A5A60169A9A60179ADA601A9AB1
:1043E0009A61199A5A61189A1A610A9A9A620A9AF3
:1043F000DA611B9ADA621C9A1A631D9A5A636A463A
:10440000521812880C311A871F9A5A64049B209AFA
:10441000DA606A465218049B127804311A776A46A9
:104420005218049B128804319A846A4652185E9B83
:10443000127804311A706A4652185F9B127808315C
:104440001A70049B259A1A636A465218609B127868
:1044500004311A706A465218049B128804311A8774
:104460006A465218619B127804311A706A465218D3
:104470001278629B04311A706A465218639B127854
:1044800004311A706A465218649B127804311A700B
:104490006A465218659B127804311A706A4652189F
:1044A000669B12780C311A70019B2E9A1A60019B40
:1044B0002F9A5A606A465218019B127804311A7476
:1044C0006A465218019B127804311A756A465218CE
:1044D000679B12780431DA776A465218019B12887A
:1044E00008311A85019B349ADA626A465218019B98
:1044F00012881A86002369AA94466FAA049261461C
:104500000C20864A59589A189204116068A9091813
:10451000C95851600191995B91830499595A11844A
:1045200071A9595889B2918473A9595889B21185D2
:1045300075A95958D16277A9595888B211004C31E0
:10454000088079A9595811657BA959580433916598
:10455000082BD4D1B023369A1B061A60519B509A6F
:104560006B600023AB602A60379AE4216260389A5E
:104570008820A2606A4652181288043122826A4654
:10458000521812880831A2823B9A4000A2616A4602
:1045900052181278043122773E9A052662633F9AB8
:1045A00090ADA263409AE263419A2264429A6264A7
:1045B000439AA2646A4652186946128809182286EC
:1045C000029A09880430918069460918029A09887C
:1045D0000430118169460918029A0978043011746F
:1045E00069460918029A0978922411754021489A5F
:1045F00002988A430283684664000019029A007890
:104600000434107768460019039A008804349080B7
:1046100068460019039A008804341081684600191E
:10462000039A00780434107468460019039A0078DD
:1046300088AC10754E9A9E208A43039940000A83E5
:1046400069460918039A097810301177099A529926
:10465000116069460918099A09781172C0220C98EC
:1046600009991201885098A832005A432C495218CF
:10467000595951601959116019589160A0A9595898
:104680000433D160202BEFD18123549ADB05AA217A
:104690005A606A4649005218127804311A736A4601
:1046A0005218128804315A836A46521812880C3103
:1046B0001A83589A5A62599A9A626A46521812880C
:1046C0001A80C0235B9A1B069A600E9B1B7A002BF4
:1046D00049D13B89082B46D93B89812B43D80D9B77
:1046E000002B40D009223B891340934204D1802300
:1046F000DB05DB699B0533D411223B8913409342D0
:1047000010D18023DB05DB695B0529D40AE0C046B4
:1047100000001048102100200C210020281000006B
:10472000080000A021223B891340934204D180233A
:10473000DB05DB691B0513D441223B8913409342FF
:1047400004D18023DB05DB69DB0409D481223B89AA
:104750001340934207D18023DB05DB699B0402D51C
:1047600001220E4B5A60009B032B05D19022D205EB
:1047700053680B490B4053606A463C215218089B12
:1047800012781A72009B032B05D100203B3902F0EE
:1047900001FCFFF792FB00210800F8E7FCE100E0D4
:1047A000FFFFFFCFF7B581250191ED056A6807008E
:1047B000520337D4254C1800FDF7FEF9061C3800CB
:1047C000FDF7AAF96B681B069B0F012B03D06B68E2
:1047D0001B069B0F05D18123DB055B685B0324D49B
:1047E0001B4C019B211C022B21D1FCF7B1FC194968
:1047F000FCF79EFEFEF7AEFF174A184BFDF722FAB4
:104800000D00FE2104008905301CFCF70FFBFEF7AC
:10481000A1FF02000B0020002900FEF757F9FEF768
:10482000EBFFFEBD8E24E405C5E70D4CD9E7FCF790
:104830008FFC0849FCF77CFEFEF78CFF02000B00A2
:1048400005480649FEF7C2FBDAE7C04600720A4790
:10485000002C21479A991940333333333333E33FE4
:104860000003154710B5002302220121FFF79AFF2C
:104870000149FCF75DFE10BD1F858B408122082396
:10488000D20511880B43138070470000812310B5B7
:104890000324DB0501785A682140BD348901A24315
:1048A0000A435A60427859680F2A22D18022D203E3
:1048B0000A435A60812303240179DB055A682140A9
:1048C0002D340901A2430A435A608278082A1AD17A
:1048D0008022596812010A435A608121C27803205C
:1048E000C9054B6802400A481202034013434B605B
:1048F00010BD084C214007245960596822402419F2
:104900005200A143D4E75A6803490A40E4E7C0468D
:10491000FFFCFFFFFFFFBFFFFFF7FFFF8123DB056A
:1049200001280FD15A681988520204D580225200FA
:104930000A431A8005E004220A431A801A881043A9
:104940001880704719881022F2E700008123DB05E8
:10495000012805D18022198892000A431A807047E5
:104960001A8801490A40F9E7FFFDFFFF8123DB05B3
:104970001988012803D102220A431A807047402275
:104980000A4302211A801A888A43F6E78123DB054D
:1049900080221988012802D10A431A807047914366
:1049A0001980FBE78123DB051B7C1840431E9841DF
:1049B000C0B270478123DB055A68520302D4D88AFB
:1049C00080B27047988AFBE7012203689343036033
:1049D0000023036043608360C360204B984206D18C
:1049E000A022F023120651680B43536070471C4B02
:1049F000984205D1A022F023120651681B01F3E76B
:104A0000184B984205D1A022F023120651681B02D0
:104A1000EAE7154B984205D1A022F023120651680F
:104A20001B03E1E7114B984205D1A022F0231206A7
:104A300051681B04D8E70E4B984205D1A022F02301
:104A4000120651681B05CFE70A4B9842CED1A0222F
:104A5000F023120651681B06C6E7C0461C0000A0E2
:104A6000300000A0440000A0580000A06C0000A08E
:104A7000800000A0940000A002680D4B10B51A4001
:104A80000C6A8B6823430C6923434C6923438C696C
:104A90002343CC6923434C6A23438C6A2343134347
:104AA0000360CB6843600B6883604B68C36010BDD4
:104AB0000F80FFFF01230268002902D01343036027
:104AC00070479A430260FBE7044BDA7F002902D06B
:104AD0001043D87770478243DA77FBE705009040B0
:104AE0000368002A02D01943016070478B430360BA
:104AF000FBE7A0231B061B681840431E9841C0B269
:104B00007047A0231B065860704700687047007804
:104B1000C0B27047024A138ADB07FCD57047C04613
:104B200000001040084B10B51A68084B9A4209D192
:104B30003F22074B40061A81000C2E3A98611A80DA
:104B4000FFF7E8FF10BDC04614000020CCBCECFC11
:104B500000001040084B10B51A68084B9A4209D162
:104B60003F22074B80081A810C3A986119641A8019
:104B7000FFF7D0FF10BDC04614000020CCBCECFCF9
:104B8000000010400B4B10B51A680B4B9A4210D125
:104B90003F220A4B80081A8198610A681A644A68A1
:104BA0005A648A689A64CA68DA64CC221A80FFF769
:104BB000B1FF10BD14000020CCBCECFC0000104084
:104BC000034B1B8A1840431E9841C0B27047C04631
:104BD00000001040F7B5019001790468002931D137
:104BE0008022D2055368A3435360019B20251E6891
:104BF000802300226D42DB0534000120D4400442B2
:104C00000BD0D4B2072A26D897000E30B840DC6A01
:104C100084430800B8400443DC62013204351A2A98
:104C2000EAD1019B5A798023DB05012A3AD1DA685F
:104C30003243DA60019A9279012A36D19A68164392
:104C40009E60F7BD0629D0D18022D205536800218D
:104C500023435360C9E72700083F072F08D80F27D1
:104C6000AF401C6BBC430F00AF403C431C63D4E718
:104C7000103C072C0AD82F000F20203FB8405C6B57
:104C800084430800B84004435C63C6E72F000F204C
:104C9000403FB8401C8F84430800B8400443A4B28E
:104CA0001C87BAE7DA68B243C3E79A68B2439A60EE
:104CB000C7E700230360037183714371704780234A
:104CC000DB051B681840431E9841C0B27047802323
:104CD000DB05186470478023DB05012901D1D86307
:104CE00070471864FCE780234268DB050168012AED
:104CF0000FD11A690A431A6180238168DB050268B3
:104D0000012909D1996911439961596991435961FF
:104D100070471A698A43EEE7002907D1D24399699F
:104D20001140996159690A405A61F1E759690A438A
:104D3000FAE78023DB05DA69002902D01043D86145
:104D400070478243DA61FBE78022D205936A1843F9
:104D5000906270478023DB055B6A1840431E9841D0
:104D6000C0B27047012270B503880D0093430380E1
:104D700049790400080023880232274E104040037E
:104D8000334003432380254B4900C85A2968244BEC
:104D90004843181A234B994229D84900FBF7E8FDEC
:104DA0003022238893432380C023626892B29B02FF
:104DB000134363606368EA889B0A9B0213430322E0
:104DC000062180B2636020852B791A402388520027
:104DD0008B43134323802A7A0823012A18D122887F
:104DE00013432380012322881343238070BD0E4B7D
:104DF0009942DFD85143FBF7BBFD30222388934310
:104E00001A001023134323806268802392B2CEE7F6
:104E100022889A432280E5E7FF9FFFFFF8270020C2
:104E20000024F400A0860100801A0600034B0360F2
:104E3000002303714371C38003727047881300001D
:104E40008A880B881343CA8813430A8913434A8804
:104E500049895200C9030A431343C3607047017470
:104E60007047007EC0B270478023028813430380DE
:104E70007047022300680006C00F181A7047006BC5
:104E80000840411E8841C0B2704781637047406945
:104E90000007800F7047C02380211B061A680A4351
:104EA0001A601A688A431A6070470000044B1A6A35
:104EB000012902D110431862704782431A62FBE74E
:104EC00000009040244B1A7A244BD2B21B899BB22B
:104ED000002A36D11A00093A782A19D809211A006D
:104EE00006200A408A422BD0112201301A40112A92
:104EF00026D0212201301A40212A21D04122080047
:104F00001A40412A1CD0812201301A40812A17D030
:104F100002221900FF3211400B20914210D01900DB
:104F20000F4A0130114091420AD01A00073802405E
:104F3000824205D00238184003384342584180006D
:104F400070470120022AFBD00018042AF8D0002064
:104F5000082AF5D10330F3E7000090400000104824
:104F600001040000054B0122196B002802D00A43FE
:104F70001A63704791431963FBE7C0460000304055
:104F8000F8B54A4C0500236B01681B0700D56DE09E
:104F900009014748FBF7ECFCC3099AB2A284454AD1
:104FA000DB0101301340C01A400880B23F2802D90B
:104FB0003F233F381840032760263F4BC0B218708C
:104FC0003E4B2A7918783A405201B043104318708A
:104FD00001206979227F39404901B2430A4322778F
:104FE000AA7919780240BA400730814311431970F9
:104FF000217F81430A432277EA79002A38D10221AE
:105000001A788A431A70227F8A43012022772A7AEB
:10501000216B1600C2402A4F0640760239403143C8
:105020002163216B274E0240314012020A43226362
:10503000697A226B0E00C140234F06403A40B60306
:1050400032432263226B214E01403240C903114397
:105050002163AA7A197802400F301201814311436B
:105060001970237F83431A432277F8BDC90090E764
:10507000022A0CD104201978114319701978814340
:105080001970217F0A432277227F8243BDE70221E4
:105090001A780A431A700422187810431870207F77
:1050A00001432177217F0A43AFE7C046000030402B
:1050B0000000127A80FF7F00280030402C00304032
:1050C000FFFDFFFFFFFEFFFFFFBFFFFFFF7FFFFFB3
:1050D000044B1A8F002902D010431887704782436F
:1050E0001A87FBE700003040024BC005C00D188056
:1050F0007047C04600003040054B002805DA5B6869
:105100001840431E9841C0B270471B8BF8E7C04659
:1051100000003040034B9B8F1840431E9841C0B2A3
:105120007047C04600003040014BD8877047C046EA
:10513000060030400722024038200449D2000B7894
:1051400083431800104308707047C0463400304055
:10515000F0B583780178002B33D040784AB28001D3
:10516000002A1BDA0F230B40083B1B4A9B089B00BD
:105170009B18FF22032517000D40ED00AF400240B1
:10518000AA40DE69BE433243DA611F224B09114057
:105190001E3A8A4011499B00CA50F0BDFF270F4BB1
:1051A00092089200D21803233C00C0250B40DB007C
:1051B0009C4038409840AD005659A643304350516A
:1051C000E3E71F234A090B40012199401300034ADA
:1051D00020339B00D150E0E700ED00E000E100E06B
:1051E000054B04221969002802D00A431A6170474E
:1051F00091431961FBE7C04600ED00E010B50800DF
:1052000001230F225F2101F01BFA431E9841C0B217
:1052100010BD0000F0B589B007AC05910223B022A3
:105220005F21200001F00CFA002803D00126300095
:1052300009B0F0BD6378B62201935F2102232000FC
:10524000277801F0FDF90028F0D123786578BA229B
:1052500002935F210223200001F0F2F90028E5D13A
:105260006378A822039323785F210493200002230C
:1052700001F0E6F9061ED9D1029B2D021D43637889
:1052800020781B0218432DB200B2401BFCF744FCEF
:10529000019B041C7F085808C01BFCF73DFC011C47
:1052A000201CFCF745F9039B041C1802049B1843BF
:1052B00000B2401BFCF730FC011C201CFBF748FF30
:1052C000041C38B2FCF728FC011C201CFBF7AEFDC7
:1052D0000C49FCF72DF90C49041CFBF723FD0028B1
:1052E0000DD10021201CFBF709FD3300002803D15C
:1052F000201CFBF72BFD83B2059A138097E7FA2356
:105300009B00F9E70000204100007A44F0B58BB023
:1053100009AC07910223B2225F21200001F090F92D
:10532000002803D0012738000BB0F0BD08ABDD1C0E
:10533000352201235F21280001F082F90028F1D1F4
:105340002B78BC22019323785F210293637820009D
:105350000393042301F074F90028E3D123786678DD
:105360000493E378AA220593A3785F210693200093
:10537000022301F065F9071ED4D1019B36021D02FC
:10538000C0239B001D40029B20781D43049BED0819
:105390001E43637836B21B02184300B2801BFCF731
:1053A000BBFB019B041C9801C0239B001840039B7E
:1053B0001843C008401BFCF7AFFB011C201CFCF786
:1053C000B7F8059B041C1802069B184300B2801B0B
:1053D000FCF7A2FB011C201CFBF7BAFE041C2800F2
:1053E000FCF79AFB011C201CFBF720FD0349FCF78E
:1053F0009FF8FCF771FB079B188094E700002041A1
:1054000070B50D0011000400FFF780FF012807D0E0
:1054100029002000FFF7FEFE013843425841C0B288
:1054200070BD13B56B46DC1D202201235F212000D7
:1054300001F006F9012300280CD180222178524284
:105440000A4322705F212022200001F069F8431EE8
:105450009841C3B2180016BD0A0010B501000248F9
:1054600006F07AFFFEE7C046E7DA051037B50D0013
:10547000072904D9F0210F48FF31FFF7EDFF6B46F4
:10548000DC1D102201235F21200001F0D9F8012347
:1054900000280CD10721227820008A431543583177
:1054A0001022257001F03CF8431E9841C3B2180049
:1054B0003EBDC046AEDA051037B518230A000D0010
:1054C0009A4305D0202A03D00E490F48FFF7C4FFA6
:1054D0006B46DC1D102201235F21200001F0B0F893
:1054E000012300280CD13821227820008A4315435B
:1054F00027311022257001F013F8431E9841C3B2E2
:1055000018003EBD07020000AEDA051037B50D00E9
:10551000012903D90F491048FFF79EFF6B46DC1D98
:10552000202201235F21200001F08AF801230028B6
:105530000DD104222178AD009143294321701C3202
:105540005F21200000F0ECFF431E9841C3B2180019
:105550003EBDC04635020000AEDA051037B50D007D
:10556000012903D90F491048FFF776FF6B46DC1D70
:10557000202201235F21200001F062F8012300288E
:105580000DD17F222178ED011140294321705F3A2E
:105590005F21200000F0C4FF431E9841C3B21800F1
:1055A0003EBDC04661020000AEDA051037B50D0001
:1055B000032904D9A3210F488900FFF74DFF6B464B
:1055C000DC1D202201235F21200001F039F8012396
:1055D00000280CD10321227820008A4315435C3136
:1055E0002022257000F09CFF431E9841C3B2180092
:1055F0003EBDC046AEDA051037B50D00012904D90D
:10560000B3210F488900FFF727FF6B46DC1D2122DD
:1056100001235F21200001F013F8012300280DD1A0
:1056200002229D40217820009143294321701F329E
:105630005F2100F075FF431E9841C3B218003EBDC4
:10564000AEDA051073B57F260D00314203D00E4946
:105650000E48FFF701FF6B46DC1D222201235F216C
:10566000200000F0EDFF012300280BD122785F21FC
:105670003240154320002222257000F051FF431EC6
:105680009841C3B2180076BD0E030000AEDA0510D3
:1056900073B50B0040260D00B34303D00E490F48ED
:1056A000FFF7DAFE6B46DC1D222201235F2120007A
:1056B00000F0C6FF012300280BD122785F21B243FE
:1056C000154320002222257000F02AFF431E984136
:1056D000C3B2180076BDC04639030000AEDA05102B
:1056E00037B501AC0D00012360221E21200000F01F
:1056F000A7FF032321781D40994329432170023BD2
:1057000060221E21200000F00BFF3EBD37B501AC2A
:105710000D00012360221E21200000F091FF0321D3
:105720000C230D402178AD009943294321700B3B98
:1057300060221E21200000F0F3FE3EBD37B501AC13
:105740000D00012360221E21200000F079FF7F233D
:105750002178ED011940294321707E3B60221E21F2
:10576000200000F0DDFE3EBD37B501AC0D00012389
:1057700061221E21200000F063FF032106230D405B
:1057800021786D00994329432170053B61221E2138
:10579000200000F0C5FE3EBD37B501AC0D00012371
:1057A00062221E21200000F04BFF012310222178ED
:1057B0001D402D0191432943217052321E212000AA
:1057C00000F0AEFE3EBD10B508000623E8221E2103
:1057D00000F036FF10BD10B5080001234F221E2136
:1057E00000F02EFF10BD37B501AC0D0001231022D3
:1057F0005D21200000F024FF00280CD101230222AB
:105800001D409D40217820009143294321700E3294
:105810005D2100F085FE3EBD37B501230D0010224D
:105820005D21684600F00CFF00282CD101AC01235B
:1058300011225D21200000F003FF002823D107235F
:105840002B401A016B4670211B7868468B4313432B
:105850006A46133913700123102200F061FE0028FC
:1058600011D10123290919404A00217802308143CE
:105870001143ED081D4099432943217011225D21F8
:10588000200000F04DFE3EBD10B508000323282285
:105890005D2100F0D5FE10BD10B5080001230F22D8
:1058A0005D2100F0CDFE10BD37B501AC0D00012328
:1058B0000E225D21200000F0C3FE01230422217886
:1058C0001D40AD009143294321700A325D21200023
:1058D00000F026FE3EBD37B501AC0D0001230E22BF
:1058E0005D21200000F0ACFE002812D101232A0027
:1058F0001A409A4021780230814311437F222D09BA
:105900001140ED0129432170713A5D21200000F022
:1059100007FE3EBD37B501AC0D0001230B225D2112
:10592000200000F08DFE00280CD1012304222178F4
:105930001D409143AD002943217007325D212000B5
:1059400000F0EEFD3EBD37B501AC0D000123112284
:105950005D21200000F074FE00280CD101232022DC
:1059600021781D4091436D01294321700F3A5D213B
:10597000200000F0D5FD3EBD37B501AC0D00012380
:1059800011225D21200000F05BFE00280CD10123D4
:10599000402221781D409143AD01294321702F3AC7
:1059A0005D21200000F0BCFD3EBD012337B501ACF8
:1059B0001A0005006B21200000F042FE3F232078F2
:1059C000AD01184028433E3B20701A006B21200097
:1059D00000F0A6FD3EBD37B501AC0D00012310223D
:1059E0006B21200000F02CFE03210C230D402178B8
:1059F000AD009943294321700B3B10226B212000FD
:105A000000F08EFD3EBD37B501AC0D000123102224
:105A10006B21200000F014FE0F2321782D01194086
:105A2000294321700E3B10226B21200000F078FDED
:105A30003EBD37B501AC0D00012311226B212000C2
:105A400000F0FEFD07210E230D4021786D009943E3
:105A5000294321700D3B11226B21200000F060FDD5
:105A60003EBD37B501AC0D00012311226B21200092
:105A700000F0E6FD0F2321782D0119402943217004
:105A80000E3B11226B21200000F04AFD3EBD37B5D0
:105A900001AC0D00012312226B21200000F0D0FD8B
:105AA0000123402221781D40AD01914329432170FB
:105AB0002E3A6B21200000F033FD3EBD37B501AC1E
:105AC0000D00022314226B21200000F0B9FD7F217C
:105AD00023786A10D2010B40134323700123102254
