:020000041004E6
:10000000006000209D2E0410FD310410FF3104100B
:10001000AA5555AA45554C420000000000000000BA
:100020000000000000000000000000000132041089
:100030000000000000000000012D04100332041035
:100040000B320410032D041000000000000000001B
:100050000D320410052D041015320410112D04105A
:100060000000000000000000000000000000000090
:1000700000000000132D0410152D0410172D04107E
:1000800000000000072D0410092D04100B2D041092
:100090000D2D04100F2D0410FD2C0410FF2C041046
:1000A0000000000000000000000000000000000050
:1000B0000000000000000000000000000000000040
:1000C000EFF31482EFF30981002080F31488BFF36B
:1000D0006F8FF0B543464C4655465E466746F8B4CA
:1000E000164CEFF30883236006B4154C2068154CBA
:1000F0002060154C2068154C2060154C2068154C6C
:100100002060154C276800202060BFF34F8F30BF60
:1001100027600A4C246884F3088882B003BCF8BCCA
:100120009846A146AA46B346BC46F0BC04BC80F340
:10013000098881F31488BFF36F8F104708000020EF
:1001400004ED00E0A017002024ED00E0941700204B
:1001500000E200E0A4170020080020400023C25C59
:100160000133002AFBD1581E7047000002B47146CB
:1001700049084900095C49008E4402BC7047C046EA
:1001800003B47146490840004900095A49008E44A9
:1001900003BC7047002243088B4274D303098B428F
:1001A0005FD3030A8B4244D3030B8B4228D3030C47
:1001B0008B420DD3FF22090212BA030C8B4202D3E9
:1001C0001212090265D0030B8B4219D300E0090A11
:1001D000C30B8B4201D3CB03C01A5241830B8B421A
:1001E00001D38B03C01A5241430B8B4201D34B0303
:1001F000C01A5241030B8B4201D30B03C01A524168
:10020000C30A8B4201D3CB02C01A5241830A8B42EC
:1002100001D38B02C01A5241430A8B4201D34B02D5
:10022000C01A5241030A8B4201D30B02C01A524139
:10023000CDD2C3098B4201D3CB01C01A52418309ED
:100240008B4201D38B01C01A524143098B4201D327
:100250004B01C01A524103098B4201D30B01C01A52
:100260005241C3088B4201D3CB00C01A52418308CC
:100270008B4201D38B00C01A524143088B4201D3F9
:100280004B00C01A5241411A00D201465241104659
:100290007047FFE701B5002000F0F0F802BDC0464E
:1002A0000029F7D076E7704703460B437FD400223E
:1002B00043088B4274D303098B425FD3030A8B42FA
:1002C00044D3030B8B4228D3030C8B420DD3FF2264
:1002D000090212BA030C8B4202D31212090265D032
:1002E000030B8B4219D300E0090AC30B8B4201D3E5
:1002F000CB03C01A5241830B8B4201D38B03C01A2C
:100300005241430B8B4201D34B03C01A5241030BA2
:100310008B4201D30B03C01A5241C30A8B4201D353
:10032000CB02C01A5241830A8B4201D38B02C01AFE
:100330005241430A8B4201D34B02C01A5241030A75
:100340008B4201D30B02C01A5241CDD2C3098B425A
:1003500001D3CB01C01A524183098B4201D38B01D7
:10036000C01A524143098B4201D34B01C01A52417A
:1003700003098B4201D30B01C01A5241C3088B42BF
:1003800001D3CB00C01A524183088B4201D38B00AA
:10039000C01A524143088B4201D34B00C01A52414C
:1003A000411A00D201465241104670475DE0CA0F23
:1003B00000D04942031000D34042534000229C46E3
:1003C00003098B422DD3030A8B4212D3FC228901ED
:1003D00012BA030A8B420CD3890192118B4208D3C3
:1003E000890192118B4204D389013AD0921100E025
:1003F0008909C3098B4201D3CB01C01A5241830939
:100400008B4201D38B01C01A524143098B4201D365
:100410004B01C01A524103098B4201D30B01C01A90
:100420005241C3088B4201D3CB00C01A524183080A
:100430008B4201D38B00C01A5241D9D243088B4260
:1004400001D34B00C01A5241411A00D20146634603
:1004500052415B10104601D34042002B00D5494267
:10046000704763465B1000D3404201B5002000F0A6
:1004700005F802BD0029F8D016E770477047C0465E
:100480008446101C62468C46191C634600E0C04638
:100490001FB501F0BDF9002801D40021C8421FBDDD
:1004A00010B501F017F94042013010BD10B501F050
:1004B000AFF9002801DB002010BD012010BDC046AF
:1004C00010B501F0A5F9002801DD002010BD0120C4
:1004D00010BDC04610B501F037F9002801DC00203E
:1004E00010BD012010BDC04610B501F02DF9002847
:1004F00001DA002010BD012010BDC046002B11D133
:10050000002A0FD1002900D1002802D00021C943C0
:10051000081C07B4024802A14018029003BDC0465F
:100520005DFFFFFF03B4684601B5029800F006F8CE
:10053000019B9E4602B00CBC7047C046F0B55746C2
:100540004E464546DE46E0B5040083B00D009246B7
:1005500099468B422FD82CD04946504602F08EF84F
:1005600029000600200002F089F8331A9846203B43
:100570009B4600D574E053465A4693401F005346AD
:10058000424693401E00AF4229D826D05B46A41BAA
:10059000BD41002B00DA79E0002200230092019394
:1005A00001235A469340019301234246934000930E
:1005B00019E08242D0D900220023009201930C9BC3
:1005C000002B01D01C605D600098019903B03CBC19
:1005D00090469946A246AB46F0BDA342D6D900222A
:1005E0000023009201934346002BE8D0FB077208DA
:1005F0001A4346467B080EE0AB4201D1A2420CD81A
:10060000A41A9D41012024196D410021013E2418A6
:100610004D41002E06D0AB42EED9013E24196D416A
:10062000002EF8D15B460098019900196941002B12
:1006300022DB2B005A46D3402A004446E2401C00ED
:100640005B461500002B2CDB26009E403300260065
:100650004746BE403200801A994100900191AEE7B2
:10066000424620239B1A5246DA40414613004A462E
:100670008A4017001F4382E7424620239B1A2A0024
:1006800046469A402300F3401343D5E742462023D1
:1006900000219B1A0022009101920122DA4001926E
:1006A00082E74246202326009B1ADE402F00B446F4
:1006B000974066463B003343C9E7C046437802781B
:1006C0001B021A438378C0781B04134300061843A7
:1006D0007047C046030A4B70030C8B70030E087002
:1006E000CB70704703005A78007812020243987862
:1006F000197900040243D878000610435A7912028F
:100700000A43997909040A43D979090611437047C4
:10071000030A5370030C9370030ED3700B0A5371CA
:100720000B0C93710B0E10701171D3717047C04692
:10073000F0B557464E46DE464546E0B54402430016
:10074000C60F83B00F1C640A1B0EB24653D0FF2B9A
:1007500027D08022E400D20414437F2252429046E4
:100760009844002399469B467D027800FB0F6D0A52
:10077000000E009324D0FF2846D080230021ED00F6
:10078000DB041D437F384746381A4F460F43BF00EE
:10079000B9463300009A874F53404A46BA580193EE
:1007A0009746002C4ED108239946F7339846FD3BD7
:1007B0009B467D027800FB0F6D0A000E0093DAD194
:1007C000002D26D1002001213300009A7A4F53409A
:1007D0004246101A4A460A439200BA581D009746EC
:1007E000009B2C009A468B465B46022B31D1534628
:1007F000FF21002438E0002C17D104239946002360
:10080000984601339B46AFE7FF20002D0BD1022114
:10081000DAE7280001F014FF431F9D4076235B4276
:10082000181A0021AFE70321ADE7200001F008FF0F
:10083000431F9C4076235B421B1A9846002399462F
:100840009B4691E70C239946F3339846FC3B9B4625
:100850008AE7032B00D1A5E05546012B00D081E0AB
:100860000123002100242B406402C905600ADB0734
:100870000843184303B03CBC90469946A246AB4699
:10088000F0BD80240023E403FF21EDE7FF210024D5
:10089000EAE70123591A1B2966DD019A134000215A
:1008A0000024E1E78023DB031C4238D01D4251D0F5
:1008B0001C436402640A3300FF21D5E763016C0125
:1008C000A3423BD21B260021013801251F0049000D
:1008D0005B00002F01DB9C4201D81B1B2943013E1A
:1008E000002EF3D11C00631E9C410C4301007F319C
:1008F0000029CEDD630704D00F232340042B00D052
:100900000434230103D501002C4B80311C40FE2907
:100910000DDD0123019AFF2113400024A4E7802369
:10092000DB031C436402640A3300FF219CE70123BC
:10093000019AA401640AC9B2134095E71B1B1A2649
:100940000121C2E7009B8B469A4600244CE76302D4
:10095000E5D500258024E4032C436402640A009B4F
:10096000FF2181E70195C1E723002020CB40411AF8
:100970008C40611E8C411C43630704D00F2323402D
:10098000042B00D00434630105D50123019A012111
:100990001340002468E70123019AA401640A13406C
:1009A000002161E78023DB031C436402640A534691
:1009B000FF2159E74C5B05108C5B0510FFFFFFF72B
:1009C00010B5041E27D001F03BFE9E231B1A962B68
:1009D0000ADC9622D21A94406402640ADBB26402F2
:1009E000DB05600A184310BD992B17DC9922D21A37
:1009F000002A27DD94402200134C1440510704D0F4
:100A00000F210A40042A00D00434620112D4A40148
:100A1000640ADBB2E3E700230024E0E7B922210007
:100A2000D21A91400A00511E8A410521091ACC4070
:100A30001443DBE7044B1C409F23A4011B1A640AE8
:100A4000DBB2CCE72200D7E7FFFFFFFBF8B5454656
:100A5000DE4657464E460C03E0B54E00C90F8846A9
:100A60000D00610A440F0C43C70019035800DB0F47
:100A70009B464B0A510F0B43760D400D1900D200D7
:100A8000D84500D1AEE0351A002D00DCF6E0002894
:100A90000FD1134300D1DBE06B1E002B00D037E1F8
:100AA000BA1A9742BF41641A7F42E41B012617001D
:100AB00024E0C64B9E424DD080231B041943382DA1
:100AC00000DD07E11F2D00DD38E12020431B9A46A1
:100AD0000B0050468340994613004846EB401843AC
:100AE000030050468240501E8241E9401A43BA1A20
:100AF000611A9742A441170064420C1B230262D57D
:100B00006402650A002D00D1DFE0280001F098FDA5
:100B10000300083B1F2B00DDD2E020223C00D21A4C
:100B20009D40D4409F4025439E4200DDC4E09E1B73
:100B3000731C1F2B00DDF1E0202238002900D21A9F
:100B4000D840914097402C000143781E8741DC40FB
:100B500000260F437B0709D00F233B40042B05D011
:100B60003B1DBB42BF417F42E4191F0023022CD52D
:100B7000964B01369E4200D19AE04546944BFF08C1
:100B80001C406007760564020743240B760D0021A4
:100B90002403230B0C0D8F4A24051C4314403305FA
:100BA00023435B00ED075B082B43380019003CBC76
:100BB00090469946A246AB46F8BD6446044300D130
:100BC00011E2040067467B07C6D145466007FF086F
:100BD0000743E4087D4B9E4230D024037605240B66
:100BE000760DD4E7331A9A46002B78DD002831D0F1
:100BF00076488642AED08020000401435346382B0D
:100C000000DCE9E00A43511E8A410021D219BA42B0
:100C1000BF4109197C4217000C192302D3D56B4B35
:100C200001369E4200D13AE10120694B1C407B080D
:100C300007401F43E007074364088BE723003B435B
:100C400000D1CBE18022120314432403240B9EE73E
:100C50002E007FE70800104300D1B4E0581E0028A2
:100C600000D0DEE0BA18BA429B4164185B42E41837
:100C7000170001262302A6D50226D5E7002D6ED146
:100C8000701C4005400D012800DCF9E0B81A8446CC
:100C900087428041E51A40422D1A280200D489E09B
:100CA000D71BBA4292411C1B5242A51AD84629E7CB
:100CB0004546002400276AE7454CF61A2C4049E7D0
:100CC0003D002838854000272EE7380001F0B8FCA9
:100CD00020301DE70A43511E8A41002107E7002BFF
:100CE00000D0F3E0701C43055B0D012B00DCADE090
:100CF000364B984200D1D1E0BA18BA42BF416418CD
:100D00007F42E419E707520817436408060021E709
:100D10002E48854200D193E01D00D0E629001F3EF9
:100D2000F140202B00D18DE04022D31A9D402F436B
:100D30007D1EAF4100240F43002644E72B0008002E
:100D4000203BD8400300202D00D17DE04020451BF2
:100D5000A9400A43511E8A4100211A43C7E6002ECA
:100D600050D01A4EB04257D080266B429946360476
:100D700034434B46382B00DDD6E01F2B00DD35E138
:100D80002026F51A2600AE40B2463E00DE40AC46B4
:100D9000350056462E436546AF407D1EAF41DC40D0
:100DA0003743D71BBA4292410C1B5242A41A060089
:100DB000D846A3E6644667462C4300D0A2E6002549
:100DC0000026002706E71E00C4E6C046FF07000015
:100DD000FFFF7FFFFFFF0F801F2B63DC2020C31A64
:100DE000080098409C46834653461000D8400300B4
:100DF0005846184363469A40531E9A41534602434D
:100E0000D94003E726003E4306D0EB439946002B2A
:100E1000C7D0944EB042ACD10C0017000600D846A3
:100E200098E6904B9A450BD08246E7E6002800D022
:100E30009EE01800104300D1E9E01C001700D846DE
:100E4000884E87E6002572E7002182E723003B43B6
:100E5000002E00D0ABE0002B00D1E7E00B001343E5
:100E600000D177E6BA18BA42BF4164187F42E4194C
:100E7000230200D4F2E07C4B17001C40060069E618
:100E800020003843002ED1D100285BD11C00144330
:100E900000D1A8E01C001700D8465BE6060000243D
:100EA000002797E650460B002038C340994653462A
:100EB000202B00D195E0402350461B1A99400A434D
:100EC000511E8A414B4600211A439FE6002E30D125
:100ED00026003E4367D0DB439A46002B1CD0614E70
:100EE000B04260D05346382B00DD96E01F2B00DD6A
:100EF0009FE02026F31A26009E409C46B3465346A8
:100F00003E00DE4033005E461E4363469F407B1E2C
:100F10009F415346DC403743BF18974292416418C3
:100F20005242A418060078E627437C1EA7410024FD
:100F300037E74C4EB04236D080265B4236049A46A4
:100F40003443CFE71800104300D103E6B81A8446B3
:100F50006745AD41E01A6D42401B050200D42CE606
:100F6000D71BBA4292411C1B5242A41AD846F1E543
:100F70001800104300D163E7F80867070743802093
:100F8000E4080003044208D0DD08054205D1D20878
:100F9000590711430F002C00D8467B0FE4001C4377
:100FA000FF00304ED6E50C0017000600D2E5002BFE
:100FB00038D00B00134300D142E7F8086707074316
:100FC0008020E40800030442E7D0CB080342E4D1C8
:100FD000D208490711430F001C00DEE70027002458
:100FE000D5E500216BE700250027F3E54E462500F7
:100FF000203EF5404B462E00202B2DD04025ED1AEB
:10100000AC4027437C1EA74100243743C9E6802417
:1010100000252403134E0027DCE527437C1EA7414F
:10102000002479E70C0017000E4E93E50C00170022
:1010300090E556462300203EF34099465346202B28
:101040000ED0402356469B1B9C4027437C1EA74145
:101050004B4600241F435FE70024D2E71700B2E5A8
:101060000024F2E7FF070000FFFF7FFFF0B55746BF
:101070004546DE464E46E0B54C000E0387B083463B
:1010800092461D008046360B640DCF0F002C4FD0CA
:101090006F4B9C4235D08023420F1B04F600134354
:1010A00033439946C30098466A4B00269C4600236A
:1010B000644403932B031B0B9B466B00ED0F5046C0
:1010C0005B0D01955ED0624A934253D05A46D100DF
:1010D0008022400F120402430A4393465246D10035
:1010E0005C4A94460022634438006840844602907B
:1010F000E41A16430F2E00D9B4E0574BB6009B59A3
:101100009F460300334399466CD10023984602332F
:1011100008260393CEE7CB464146039A0197022A5D
:1011200065D1019B4A4C9C460023002298466BE007
:101130000300334399464ED0002E00D1BCE130006D
:1011400001F07EFA03000B3B1C2B00DDACE11D22FD
:10115000D31A5A460100DA4008398E40130033434F
:1011600099465B468B40984600233C4C0026241A47
:1011700003939FE751465A46114329D100229346D3
:101180000232B1E7594601431ED05B46002B00D125
:101190009EE1584601F054FA03000B3B1C2B00DD86
:1011A0008FE102005946083A91408B461D21CB1A27
:1011B0005146D9400B0059460B4351469B4691403E
:1011C000264B00221B1A8FE7002301229B468BE748
:1011D0005146032288E70023984601330426002461
:1011E000039367E70323B14603930C2662E7032AC0
:1011F00000D15CE2019B012A00D0E4E113409C464F
:10120000002300240022984600211203130B0A0D2C
:1012100012051A432305124C4046224013436246EE
:101220005B00D2075B081343190007B03CBC904633
:101230009946A246AB46F0BD002380229C4612038D
:101240009846034CE0E70023014C00229846DBE778
:10125000FF07000001FCFFFFCC5B05100DFCFFFF4A
:10126000FFFF0F80D94500D939E100D134E10023D7
:1012700046464D469A46013C5B460A0E1B021A43FF
:101280000B02170C039313041B0C39002800904623
:101290000193FEF77FFF0200019B83465A4328001B
:1012A00039009146FEF7FCFF350C09040D43A945B2
:1012B0000DD95B464544013BA84500D93AE1A94513
:1012C00000D837E102235B429C464544E3444B4649
:1012D000EB1A390018000493FEF75CFF019B050030
:1012E0004343390004989946FEF7DAFF33040904B2
:1012F0001B0C0B43994509D943446A1E984500D9F4
:101300001AE1994500D817E1023D43444A469B1A29
:101310005A4612042A4303999346100C0A0C91462C
:1013200009045A46090C4E460D001204120C45439E
:10133000059151437243704352190E0CB2189542F5
:1013400003D980256D02AC466044150C09041204D3
:10135000090C28185218834200D2CEE000D1C8E010
:101360001D1A53469E1AB24592415242AB1A9A46F2
:10137000984500D117E139001800FEF70BFF019BDB
:1013800005004343390050460493FEF789FF049853
:101390000B04310C1943884209D941446B1E88451E
:1013A00000D907E1884200D804E1023D4144049B92
:1013B000CB1A180039000493FEF7ECFE019B82461D
:1013C0004343390004980193FEF76AFF01980B0428
:1013D0003104090C194388420DD953464144013B5D
:1013E000884500D9E8E0884200D8E5E002235B4266
:1013F0009C464144E244019B2D04CE1A51462943A8
:10140000059D4F462A000B04080C1B0C5A4345430C
:101410007B4378435B19170CFB189D4203D9802549
:101420006D02AC4660441D0C12041B04120C2818FB
:101430009B18864200D293E000D18EE0012319432D
:10144000A04BE318002B00DC99E04A0700D09EE097
:101450005A46D20106D55A469B4B1A4080239346E2
:10146000DB00E318994A934268DD0123029A984C05
:101470001A400023944698460022C5E680224B4637
:10148000120313420AD05B46134206D11A431203D9
:10149000120BAC4688468E4CB6E64B461A431203F6
:1014A000120BBC468A4CAFE603005A46283B9A40D2
:1014B00000239146984657E6584601F0C1F820307F
:1014C00040E603005246283B9A400021934677E6C7
:1014D00001F0B6F820305FE6884500D2C7E64B46FB
:1014E000DE075D0843465B081E434346DB079A461A
:1014F000C2E60025924500D333E7039E5946B44621
:10150000E244B245AD416D424544EB18013998457E
:1015100007D2984200D97FE000D1BCE01D1A8B466B
:101520001FE79845FAD1039D5545F2D943468B46AE
:101530001D1A16E79B46CAE61500E7E65A46C90893
:1015400052070A435B0590465C0D5A4601230299F7
:1015500052021940120B8C4656E6002B00D16FE761
:1015600046444A1EB04529D91100864200D065E79D
:10157000039A934200D061E762E7012149420120CA
:10158000C21A382A21DD029B03409C4638E60F220E
:101590000A40042A00D15BE70A00111D91429241E2
:1015A0005242934454E7474BE318002BE5DD0122F8
:1015B0005242F2E71D00FAE69A461CE7B04239D8DB
:1015C0006ED011003AE702933AE71F2A3CDC202351
:1015D0009B1A0C005846994098404B1E99415B4617
:1015E000D440D340204308431A00430709D00F23B7
:1015F0000340042B05D00100081D88429B415B423B
:10160000D21813023AD50123029A01241A4000236A
:10161000944698460022F7E5022149428C46039DF4
:10162000E344AC46E244AA45AD416D424544ED1861
:101630002D1A96E68A1E03994D008D428941494232
:101640004144761803958FE71F204042C31A58463D
:10165000D8400300202A28D040205D46821A9540B9
:1016600029434A1E91411943072300220B4009D008
:101670000F2300220B400800042BBDD101005307AB
:101680005202120BC908194301238846029900240B
:1016900019408C46B8E55245BED88B46002560E619
:1016A000039D9D42C6D3110062E70025D8E7802242
:1016B0005B4612031A43019B1203120B9C46884699
:1016C000034CA1E5FF030000FFFFFFFEFE07000043
:1016D000FF070000F0B54F464646D6465C00C0B551
:1016E0001F03DB0F9A46174B0E034D0084468046BE
:1016F000360B6D0DC90F91463F0B640D01209D42C5
:1017000008D09C4201D0A5420BD01CBC9046994603
:10171000A246F0BD63463343F7D1AC42F5D13A431C
:10172000F3D10120BE42F0D1C845EED1514507D0DA
:10173000002DEAD163461E433000461EB041E4E767
:101740000020E2E7FF070000F0B54546DE465746B9
:101750004E46E0B51F033D0B2C4F0E034C00AB462D
:101760005D008446360B640DC90F90466D0DDB0F8E
:10177000BC422AD0254FBD422DD0002C0FD1304382
:101780000700814678427841C0B2002D17D15F46EC
:101790003A4314D14B460020002B0AD006E0002D1E
:1017A00002D15846024301D0994218D04842012143
:1017B00008433CBC90469946A246AB46F0BD002883
:1017C000F2D00120013B1843F3E737000743D1D0A3
:1017D00002204042EDE75F461743CED0F8E7AC4227
:1017E000E4DC03DA481E01210843E2E75E45DDD868
:1017F00006D000205E45DCD20123481E1843D8E7FE
:10180000C445D3D80020C445F6D3D2E7FF07000073
:10181000F0B54E464546DE4657465C00E0B51F0330
:10182000DB0F99462A4B0E034D00C90F8446360B39
:101830006D0D8B4690463F0B640D9D4220D0244B8E
:101840009C4222D0002D12D1304343424341DBB2AF
:10185000002C1FD0002B0CD04B460120013B034332
:1018600018003CBC90469946A246AB46F0BD002C01
:1018700016D0CB4517D05B46594201230B43EFE707
:10188000310002230143EBD1D9E739000223114390
:10189000E6D1D7E73A43DDD100230028E0D0EAE7DC
:1018A0003A43E6D1E7E7A542E5DC05DBBE42E2D8F4
:1018B00007D00023BE42D3D25946012301390B433E
:1018C000CEE7C445D7D80023C445F5D3C8E7C04602
:1018D000FF070000F0B557464546DE464E46E0B5E8
:1018E0000C0398464E00230B87B0070092469B4698
:1018F000760DCD0F002E6BD06D4B9E4235D08024DF
:101900005B46420F2404DB0014431C43C30099468A
:10191000684BA3469C460023002766440293434637
:101920001C035A00DB0F5046240B520D984600D181
:1019300076E05F4B9A426DD08023410F1B040B432E
:101940005C49E4008C461C43C300002062444146CD
:10195000B6186940721C0191944607430F2F00D9B5
:10196000B0E0554ABF00D25997465B4603439946BB
:1019700000D087E000239B46023308270293CEE77E
:1019800042460192022867D0032800D10EE20128C6
:1019900000D062E100230024002299460199014011
:1019A000CDB2002112030B0D120B1B051343434A4A
:1019B000240513401C436400ED0764082C4348468B
:1019C000210007B03CBC90469946A246AB46F0BD0C
:1019D000034399464FD05B46002B00D189E158461E
:1019E00000F02EFE03000B3B1C2B00DD7AE11D22D4
:1019F000D31A3A0001005C46DA4008398C401300E3
:101A00008F4023439B46B94600232D4E0027361AAC
:101A1000029384E7534623432AD10024022096E709
:101A20005346234320D0002C00D157E1200000F082
:101A300007FE03000B3B1C2B00DD49E11D21CB1AE7
:101A400051460200D9405346083A944093400C4313
:101A50001B4A121A00207AE70125019B144C1D40F5
:101A60000023002299469CE70024002201206EE713
:101A7000534603206BE700239B46013304270026CF
:101A800002934CE7032381460C27029347E7802209
:101A90000023002512039946054C82E75C464B461D
:101AA00002986FE75C464B46019502986AE7C0468C
:101AB000FF07000001FCFFFF0C5C0510FFFF0F801B
:101AC0000DFCFFFF4A464946170C1A0C1B041B0C61
:101AD00008041900000C41431500884619007D4395
:101AE0007943039589462900150045434D440295E5
:101AF00045462D0CAA46029D5544A94506D98A465D
:101B0000802149028946CA4451460391290C049117
:101B1000414609042D04090C88462900250C24049B
:101B20004144240C0591210041438846210079431A
:101B30008A466843414650448146080C48446F43F6
:101B4000824503D98021490289464F44010C8946C8
:101B500039004944029141460F0404993F0C8846DC
:101B60000004C01980444146049159460F0C0904F1
:101B7000090C884659438A463900514389464146F3
:101B80004A435146090C8B467B43D2185A44934230
:101B900003D980235B029B46D94451460904090CB2
:101BA0008A46414661437C43130C12044B44524421
:101BB000A1468A463C0041466C434D4351464D4444
:101BC0000F0C7D19A94503D9802149028846444458
:101BD000049F0399B84641448B4683458041414266
:101BE0008846514608042F04000C3F1858460299B5
:101BF00010188946904292414F44BA465242994643
:101C00009346C244D144CB448F42BF41C24589412F
:101C100099459B41934592417F4249422D0C524246
:101C20000F435B4213437F19FF185B463C19DB0DE2
:101C3000059A64021C43430213435D1EAB415A469E
:101C4000C00D034352021343E20156D501205A0846
:101C500003401343E207134364085A4860440028D2
:101C60004DDD5A0709D00F221A40042A05D01A1D4B
:101C70009A429B415B42E4181300E20104D58020A4
:101C8000514AC00014406044504A904200DDE3E6EF
:101C90000125DB0862071A436402019B9146220B6F
:101CA0004405640D1D407CE6802259461203114212
:101CB00008D0144206D122431203120B454699461E
:101CC000434C6EE65B461A431203120B404C68E627
:101CD00003005446283B9C400023B9E600F0B0FCCA
:101CE0002030A6E60300283B9F400023BB469946D0
:101CF0008AE600F0A5FC203074E6B446ADE7012585
:101D00002A1A382A06DD019B00241D4000230022E8
:101D1000994646E61F2A21DC20252000AD1A1E0028
:101D2000AB40A840D6405D1EAB4130431843D44081
:101D3000430709D00F230340042B05D00300181DCF
:101D400098429B415B42E418230221D50125019B67
:101D500001241D4000230022994622E61F25210070
:101D60006D42281AC1400800202A1DD05F35AA1AEA
:101D7000944023435C1EA341072503431D400022DA
:101D8000002D09D00F2200241A401800042AD6D1B1
:101D9000030065076402220BDB082B4301259946EB
:101DA000019B00241D40FCE50024E2E78022012580
:101DB0001203224301991203120B0D409946044C61
:101DC000EFE5C046FF030000FFFFFFFEFE07000037
:101DD000FF070000F0B54646D6464F460C03C0B597
:101DE000CD0F4E00610A440F0C43C1005800400D56
:101DF00084468A460F001903500F490A0143C6481A
:101E0000760DA846DB0FD200844500D1D8E0012032
:101E10004340AB4200D1A6E06046351A002D00DCFD
:101E200005E1002810D10B00134300D1D7E06B1E51
:101E3000002B00D04BE153469F1ABA458041641AEB
:101E40004042241A01261EE0B34B9E4248D0802314
:101E50001B041943382D00DD19E11F2D00DD4CE175
:101E600020230F005B1B10009A409F40E840531E48
:101E70009A41E940074317435346DF1B611ABA45AD
:101E8000A44164420C1B230200D4C5E06402650A2D
:101E9000002D00D1F6E0280000F0D2FB0300083B43
:101EA0001F2B00DDE9E020223C00D21A9D40D440E7
:101EB0009F4025439E4200DDDBE09E1B731C1F2BD1
:101EC00000DD0AE120223800D21A290097402C00B8
:101ED0009140D8407A1E9741DC40002601430F43D1
:101EE0007B0709D00F233B40042B05D03B1DBB4291
:101EF000BF417F42E4191F00230225D5864B0136DE
:101F00009E4200D1AFE0854B01251C40434662074D
:101F1000FF08640276051743240B760D1D4000214F
:101F20002403230B0C0D7E4A24051C431440330567
:101F300023435B00ED075B082B43380019001CBCF2
:101F400090469946A246F0BD012543466207FF0828
:101F50001743E4081D40704B9E4236D0240376059B
:101F6000240B760DDBE76346F31A002B00DC94E0CC
:101F70006046002835D068488642B1D080273F04AB
:101F80003943382B00DCFDE00A43170000217A1E9C
:101F90009741574457458041091944420C1923027F
:101FA0003AD55D4B01369E4200D14BE101225B4B9D
:101FB0001C407B0817401F43E207174364088FE764
:101FC0000800104300D024E721E723003B4300D161
:101FD000B9E18022120314432403240B9FE72E004F
:101FE0007EE70800104300D1CAE0581E844600284E
:101FF00000D0E7E052445245804164184042241822
:1020000017000126230207D50226CFE764462C439A
:1020100000D1B3E12C0067467B0700D062E763077D
:10202000FF081F4301254346E4081D4093E7002DA8
:1020300078D1751C6D056D0D012D00DCF2E0504668
:10204000801A8245BF41651A7F42ED1B84462802F3
:1020500000D48CE05046171ABA4292410C1B5542EC
:10206000651B984614E70125434600241D400027C0
:1020700055E72A4CF61A2C4032E73D0028388540B7
:10208000002717E7380000F0DBFA203006E70A43A4
:10209000170000217A1E9741EEE6002B00D0E5E004
:1020A000731C9C465B055B0D012B00DC9FE01A4B0B
:1020B0009C4500D1C5E052445245804164184042DD
:1020C0002418E707520817436408664608E71248D1
:1020D000854200D185E01D00BCE629001F3EF1408D
:1020E000202B00D17FE04022D31A9D402F437D1E3C
:1020F000AF4100240F4300268EE72B000F00203B4A
:10210000DF40202D71D040235D1BA9400A43511EA2
:102110008A4100211743AFE6FF070000FFFF7FFF62
:10212000FFFF0F80002E3ED0B34EB44545D0802631
:1021300036046D423443382D00DDA8E01F2D00DD4C
:102140001FE1202627005046761BB740E840074392
:102150005046B040461EB041EC403843171ABA42D0
:1021600092410C1B5242A41A664698468BE664467E
:1021700067462C4300D08BE6002500260027EAE6C0
:102180001E00ADE61F2B60DC2027F81A0F008446E6
:1021900087401000D840074360468240501E82416D
:1021A000D9401743F5E626005046064305D0ED43D7
:1021B000002DD3D0904EB445BDD10C00170066461B
:1021C00098468DE68C4883420BD06346D9E6002DB5
:1021D00000D096E00800104300D1E2E00C001700A8
:1021E0009846854E7CE6002580E700218EE7230097
:1021F00050460343002E00D0A8E0002B00D1DEE0C3
:102200000B00134300D16BE65244524580416418E1
:10221000404224181700230200D4FDE6774B66469F
:102220001C405DE6250050460543002ECFD1002D11
:102230004FD10C00144300D1A0E00C0017009846C9
:102240004EE666460024002785E61F000800203F72
:10225000F8400700202B00D18EE04020C31A99409F
:102260000A43511E8A410021174392E6002E14D1E1
:1022700026005046064362D0DB43002B5CD1871812
:102280009742924164185242A418664687E6504627
:102290002043441EA041002460E7574EB4454ED071
:1022A000802636045B423443382B00DD7FE01F2B51
:1022B00000DD8BE0202627005046F61AB740D840B4
:1022C00007435046B040461EB0410743DC40BF18AC
:1022D000D6E70D00154300D102E65046801A82452C
:1022E000BF41651A7F42ED1B8446280200D48DE66B
:1022F0005046171ABA4292410C1B5242A41A9846F1
:10230000EEE50D00154300D16BE750466707C008A6
:1023100007438020E4080003044207D0CD080542AB
:1023200004D12C009846D70849070F437B0FE400DF
:102330001C43FF00304ED3E52F4EB445B4D10C0002
:1023400017006646CCE500270024E8E5002B39D0CD
:102350000B00134300D144E7C00867070743802000
:10236000E40800030442E1D0CB080342DED1D708E1
:1023700049070F431C00D9E7002171E7002500271A
:10238000E9E52E002700203EF740202D2FD04026E3
:10239000751BAC4050462043441EA04100243843E6
:1023A000DCE6802400252403134E0027D3E55046A5
:1023B00020430700781E87410024BF1860E70C0007
:1023C00017008DE50C0017000B4E89E51E00270055
:1023D000203EF740202B0CD04026F31A9C4050465C
:1023E0002043441EA04107430024BF1848E70024AF
:1023F000D0E70024F3E7C046FF070000FFFF7FFFA0
:1024000070B50E4E0D031C0349005B002D0B490DEA
:10241000240B5B0DB14204D0084900208B4208D048
:1024200070BD05430120002DFAD1044900208B42E4
:10243000F6D114432000441EA041F1E7FF0700003D
:1024400030B5134D0A034B00120B5B0DC90F00246E
:10245000AB4210DD0F4CA3420FDC80240E4D640311
:102460002243ED1A1F2D0BDD0C48C31ADA405442EB
:10247000002900D11400200030BD094BCC18FAE728
:10248000084CE840A44663449A400243EFE7C04644
:10249000FE0300001D0400003304000013040000CC
:1024A000FFFFFF7FEDFBFFFF70B5002830D0C317A3
:1024B000C4185C40C50F200000F0C2F8174B184A42
:1024C0001B1AD21A1F2A18DD164AD21A944000226B
:1024D00024035B05240B5B0D0021100024030A0D6F
:1024E000240B12052243104C1B05224013435B00B2
:1024F000ED075B082B43190070BD210091400A00D5
:102500000B21081AC4405B052403240B5B0DE3E791
:102510000025002300240022DEE7C0461E04000040
:102520003304000013040000FFFF0F8010B5041EE9
:1025300028D000F085F8154B154A1B1AD21A1F2A0D
:1025400015DD144AD21A9440002224035B05240BA3
:102550005B0D0021100024030A0D240B12052243F9
:102560000D4C1B05224013435B00590810BD210090
:1025700091400A000B21081AC4405B052403240B78
:102580005B0DE6E7002300240022E2E71E040000C2
:102590003304000013040000FFFF0F804100090E08
:1025A0004B1C70B5DBB24602750AC40F012B14DD5B
:1025B000E0239B006D07360BCB1800210A0D280085
:1025C00012051C4D32435B052A405B0813435B0038
:1025D000E4075B082343190070BD002914D1002DC6
:1025E0001ED0280000F02CF80A281CDC0B232A003F
:1025F0001B1ADA40030015339D400F4B12031B1AC0
:102600005B05160B5B0DD8E7002D06D0320B80263C
:1026100036036D071643094BCFE7084B0026CCE77E
:1026200000230026C9E703002A000B3B9A4000253F
:10263000E3E7C046FFFF0F8089030000FF070000AB
:102640001C2101231B04984201D3000C10391B0AE2
:10265000984201D3000A08391B09984201D30009A6
:10266000043902A2105C40187047C04604030202FD
:1026700001010101000000000000000010B5002968
:1026800003D1FFF7DDFF203002E0081CFFF7D8FF81
:1026900010BDC046024A1368013313607047C0463C
:1026A00000030020C021074A074B08485360036A13
:1026B00009061B021B0A0B430362002393600733C6
:1026C0001360704710E000E0FE7C000000ED00E0C9
:1026D000014B18687047C046000300200E4AD369BA
:1026E0001B061B0F4370D9B2D3690C4A1B071B0F83
:1026F00083700B4B1B68436093420BD10223037022
:10270000002901D101234370064B9B8A01339B00B2
:10271000836070470123F2E70000904041A000026F
:102720002800904000001040F0B5070085B001ACD3
:102730000E0020001500FFF7D1FF23783B7063786F
:102740003370A3782B7005B0F0BD10B501F00DF813
:1027500010BD10B501F024F810BD10B500F0F6FF63
:1027600010BD0000024A138ADB07FCD57047C04643
:1027700000001040084B10B51A68084B9A4209D166
:102780003F22074B40061A81000C2E3A98611A80AE
:10279000FFF7E8FF10BDC04614000020CCBCECFCE5
:1027A00000001040084B10B51A68084B9A4209D136
:1027B0003F22074B80081A810C3A986119641A80ED
:1027C000FFF7D0FF10BDC04614000020CCBCECFCCD
:1027D00000001040F7B5019001790468002931D15B
:1027E0008022D2055368A3435360019B20251E68B5
:1027F000802300226D42DB0534000120D4400442D6
:102800000BD0D4B2072A26D897000E30B840DC6A25
:1028100084430800B8400443DC62013204351A2ABC
:10282000EAD1019B5A798023DB05012A3AD1DA6883
:102830003243DA60019A9279012A36D19A681643B6
:102840009E60F7BD0629D0D18022D20553680021B1
:1028500023435360C9E72700083F072F08D80F27F5
:10286000AF401C6BBC430F00AF403C431C63D4E73C
:10287000103C072C0AD82F000F20203FB8405C6B7B
:1028800084430800B84004435C63C6E72F000F2070
:10289000403FB8401C8F84430800B8400443A4B2B2
:1028A0001C87BAE7DA68B243C3E79A68B2439A6012
:1028B000C7E7C02380211B061A680A431A601A68FA
:1028C0008A431A6070470000044B1A6A012902D13A
:1028D00010431862704782431A62FBE70000904081
:1028E000244B1A7A244BD2B21B899BB2002A36D1D0
:1028F0001A00093A782A19D809211A0006200A4034
:102900008A422BD0112201301A40112A26D02122CE
:1029100001301A40212A21D0412208001A40412AC0
:102920001CD0812201301A40812A17D002221900BE
:10293000FF3211400B20914210D019000F4A013094
:10294000114091420AD01A0007380240824205D055
:102950000238184003384342584180007047012034
:10296000022AFBD00018042AF8D00020082AF5D14A
:102970000330F3E70000904000001048010400001D
:10298000054B0122196B002802D00A431A637047D5
:1029900091431963FBE7C04600003040F8B54A4C4C
:1029A0000500236B01681B0700D56DE0090147484E
:1029B000FDF7F0FBC3099AB2A284454ADB0101305E
:1029C0001340C01A400880B23F2802D93F233F3845
:1029D0001840032760263F4BC0B218703E4B2A793F
:1029E00018783A405201B0431043187001206979B9
:1029F000227F39404901B2430A432277AA791978E4
:102A00000240BA400730814311431970217F81434E
:102A10000A432277EA79002A38D102211A788A43B8
:102A20001A70227F8A43012022772A7A216B1600AE
:102A3000C2402A4F06407602394031432163216B60
:102A4000274E0240314012020A432263697A226B08
:102A50000E00C140234F06403A40B6033243226382
:102A6000226B214E01403240C90311432163AA7AEF
:102A7000197802400F301201814311431970237FEE
:102A800083431A432277F8BDC90090E7022A0CD18C
:102A90000420197811431970197881431970217F26
:102AA0000A432277227F8243BDE702211A780A4334
:102AB0001A700422187810431870207F0143217780
:102AC000217F0A43AFE7C046000030400000127A81
:102AD00080FF7F00280030402C003040FFFDFFFFCA
:102AE000FFFEFFFFFFBFFFFFFF7FFFFF024BC005A1
:102AF000C00D18807047C04600003040014B188858
:102B0000C0B2704700003040054B002805DA5B6812
:102B10001840431E9841C0B270471B8BF8E7C0466F
:102B200000003040034B9B8F1840431E9841C0B2B9
:102B30007047C04600003040072202403820044958
:102B4000D2000B7883431800104308707047C046CA
:102B50003400304010B504002020FFF7D5FF0128D5
:102B6000FAD0A0B2FFF7C2FF10BDF0B5012187B0C7
:102B700006000920FFF7A8FE80230024012501AFED
:102B80005B00380001933D71BC717C71FFF722FE40
:102B9000802338001B0101933D71FFF71BFE0323C7
:102BA00003A80371437103728471C4714472857206
:102BB0000396FFF7F3FE2000FFF7BEFF2800FFF7A4
:102BC000DFFE07B0F0BD0000034B10B51B68002B03
:102BD00000D0984710BDC0460403002007B5102060
:102BE000FFF7A0FF002809D107BDFFF787FF6B465D
:102BF000D871073301211800FFF7E6FF1020FFF717
:102C000083FF0028F1D0EFE701000A4A0A4810B517
:102C10001368046801209C4209D00848C05C013355
:102C2000087080210020C9008B4201D0136010BDC4
:102C30001060FCE70C0700200807002008030020B4
:102C40000B4A10B513680B49002B00D1116080248A
:102C50001368640118180919884205D90C2201204B
:102C6000054B40421A6010BD10601800FBE7C046DB
:102C70001017002010070020D0170020012040422C
:102C8000704780239B0100204B60704701207047F4
:102C90000020704770B50E0015000C00A31B9D426C
:102CA00001DC280070BD2078FFF754FF0134F5E700
:102CB00070B50E0015000024AC4208D23019FFF7A1
:102CC000A3FF002801D10134F6E7002CF4D0200046
:102CD00070BD10B500F049FD10BD10B500F045FD08
:102CE00010BD10B50A00002100F05AFD10BD000013
:102CF0000222014B1A70704714170020704770476A
:102D0000704770477047704770477047704770470B
:102D10007047704770477047002210B5104B995CA0
:102D2000C9B2002917D11C2A14DC0220212498548E
:102D3000501C1C54901C193C1C54D01C19549B183A
:102D4000802290219BB252021343C905CB60CB680D
:102D50001342FCD110BD995C01315218D2B2DEE7AA
:102D600015170020002330B50E4AD15CC9B20029E6
:102D700013D11C2B08DC02243525D4545C1C1555BA
:102D80009C1C03331055D1540222074B1A70333266
:102D90005A7000229870DA7030BDD15C01315B1836
:102DA000DBB2E2E7151700209817002010B5104B92
:102DB00000280AD0802290219BB252021343C905F9
:102DC000CB60CB681342FCD110BD042198789A786F
:102DD0009CB28A439A708022902152021443C90502
:102DE000C0B2CC60CC681442FCD19870ECE7C0460D
:102DF00098170020012330B5234A0324117A85B0A7
:102E00000B4313720022214B1A60FFF769FD6B46DA
:102E1000033318701A78002A03D1013CE4B2002C65
:102E2000F3D11A78052A2BD91B780B2B10D001ACC3
:102E30002000FFF753FC6278A37812011A43144B69
:102E40001B681B070AD4112A02DD0120FFF7AEFF21
:102E50000122104B1A70FDF75CF9FEE790250E4C2D
:102E6000ED0528692368283B1B1A1B02002BEFDDA8
:102E7000112A02DD0120FFF799FF23686B60E7E765
:102E8000012005B030BDC0460000204014000020E5
:102E9000C00000200C0000201800002070B5FFF7D3
:102EA000A9FF012817D1002314481549154C1A18F9
:102EB0008A4216D3002314481449154C1A188A4222
:102EC00013D30021134B144A934212D30021134B06
:102ED000134A93420FD3134B83F3088800F056F93B
:102EE00070BDE55804331560E1E7E558043315601B
:102EF000E4E702C3E8E702C3EBE7C046E0170020BF
:102F0000A01E0020B464051008000020340000203A
:102F100088640510C0000020CC020020CC020020F4
:102F2000E01700200060002070B58AB003AC0500F7
:102F30000E0019224349200000F017FC6846FFF7F5
:102F4000CDFB002D60D044233F4AA373117A433B4D
:102F50000B4313724C23E3722C3B23729233637442
:102F6000573B2375394B3A4A1B68190C914208D1DB
:102F70007020E17D1B018143E175E17D03400B433E
:102F8000E375344B1B68190C914208D130206179EC
:102F90001B0181436171617903400B4363712E4BC7
:102FA0001B68190C914207D10321E27D0B408A4333
:102FB000E275E27D1343E3750422E37A69469343A5
:102FC000E3726B465B78897893400B43112B06DDE7
:102FD000E37D1A43E275E07DC0B2FFF7C3FE8023B4
:102FE00090222404240C5B021C43D205D460D168D7
:102FF0001942FCD16B466A465B7892781B011343F9
:10300000112B01DDFFF788FE144B1A8B002AFCD030
:1030100001221A8316329A8100221A61964207D041
:1030200090231021DB0518691A6942400A42FBD03F
:10303000002D02D015220A4B1A700A4A0A4B1A6058
:103040000AB070BDD05A051000002040E8070010FB
:1030500055AA0000E4070010B00700100000104857
:103060000000C040CCBCECFC140000200822C021B1
:10307000F8B53F4B3F4D9A803F4A0904136AFF2041
:103080002B400B43C0211362136A09061B021B0A63
:103090000B431362C02292009446384B64469A5800
:1030A000374E82433F38024360461A501A58C020B8
:1030B0003240000202431A51C122FF2792009C585D
:1030C000BC433F3F3C439C509C583F3734400443F3
:1030D0009C509C582C409C509C582402240A0C4321
:1030E0009C500832944664469A58324002431A5122
:1030F0001A59C0242A402404224364461A511A59FA
:103100001202120A0A431A51C422920094466446DB
:103110009A58324002431A511A59C0242A402404B2
:10312000224364461A511A591202120A0A431A51CA
:10313000C52292009C58BC432700C0242743C024CA
:103140009F509F5824043E40304398509858054063
:103150002C439C5098580002000A014399500121C9
:103160000800FFF7E1FE074A074B1A6262B6F8BD96
:1031700000001040FFFF00FF00ED00E000E100E074
:10318000FF00FFFF66000E000000904007B5FFF74C
:103190006DFFFFF7ADFDFFF785FAE1200003FFF7B4
:1031A000E4FC104804F0FCFA011E03D00E4800F0C5
:1031B000FFFAFEE710230D49009317220C3B0C4841
:1031C00000F0F6FA00F056F9011E03D0094800F0AD
:1031D000EFFAFEE7084800F06BFB04F09DFA00F000
:1031E000E9F9FAE74C5C0510805C0510B15C05104C
:1031F000B75C0510FD5C0510285D05107047FEE703
:10320000704710B5FFF746FA10BD704710B5FFF7CD
:10321000E5FC10BD10B507F0D3FF10BDF0B51024CC
:103220002D4D93B02900220006A800F09EFA29191E
:1032300022000AA800F099FA2900220020310EA8E5
:1032400000F093FA254D220006A92800FFF77DFA29
:10325000234E0623009601222900022004F023FABF
:10326000071E34D11F4D22000AA92800FFF76DFA6E
:103270001D4B308805930123029704930197039413
:10328000009413332A00022104F0EEF9071E1ED128
:1032900022000EA92800FFF758FA01233088134EA8
:1032A000049302930B33039400930596019708331C
:1032B0002A00022104F0D8F9041E08D10A4B3288F2
:1032C00019880B4800F074FA200013B0F0BD0948CB
:1032D00000F0EEFA4724F7E7E95A0510BE17002080
:1032E000BA170020A8170020B8170020BC1700202C
:1032F0003F5D05107D5D05104B4BF7B51B88010048
:1033000001331600984200D07EE01378302B03D0B2
:10331000464800F0CDFAF7BD454D464C2B68002BD2
:1033200012D1454800F0C4FAFFF7D2F9434B727C42
:103330001860337C12021A43B37C1B041A43F37CDB
:103340001B061343013B2360727C337C12021A4339
:10335000B37C21681B041A43F37C394E1B061343CC
:1033600033608B4204D11900364800F021FAD2E7CD
:103370004A1C354F934206D08B4238D20A0033485C
:10338000396800F015FA23683B60336823602B68C6
:10339000581C28600028BED0FA214900FCF780FFA5
:1033A0000029B8D1FFF794F9244D2B68C41A2000E6
:1033B000FDF706FB011C2648FDF7BAF9FFF7EEF80A
:1033C00000900191FA2122004900224800F0F0F912
:1033D000214C2168002904D0204B21481A6800F0B4
:1033E000E7F9FFF775F900232860236093E71A488F
:1033F0000268013A521AD2180260184A194813603A
:103400001A0000F0D5F9BEE7174B18481B880233A5
:103410009942AAD11378012B00D07CE7144A0333D8
:1034200011680B43136076E7BC1700209E5D051002
:103430004C17002044170020AF5D051050170020E6
:1034400048170020BD5D051040170020CF5D051016
:1034500000409C47E35D05103C1700203817002012
:10346000235E0510DC5D0510B81700203B5E0510DB
:103470002C180020F0B508252D4C8BB021002A0017
:1034800008A800F072F96119062206A800F06DF98B
:1034900006AA0621002004F03AF9041E06D0010015
:1034A000244800F085F920000BB0F0BD0421012074
:1034B00004F029F904F012F9041E02D001001E489C
:1034C000EFE71E4800F0F4F9122616236E446B4411
:1034D00005AF01932100009733002A00012004F07A
:1034E00077F8041E02D001001548DAE7154800F00D
:1034F000DFF908AB3A883188200003930194230058
:103500000295009504F0EEF8041E02D001000E486A
:10351000C7E70E4800F0CCF9FFF780FE041E02D08A
:1035200001000B48BDE70B4800F0C2F9BBE7C046FD
:10353000195B0510FB5E05101C5F05103F5F051051
:103540005C5F05107D5F0510995F0510CC5F05106D
:10355000FA5F05102360051030B50E248DB01249B6
:1035600008AD22000919280000F0FFF8002108002A
:1035700007F07EF800209622C8210690059004905E
:1035800003900295019400900300520004F038F873
:10359000011E04D0054800F00BF90DB030BD044801
:1035A00000F086F9F9E7C046195B0510A55E051025
:1035B000D35E051070B50225344C8AB023682B42C7
:1035C00004D0FFF7C9FF2368AB4323602368DB0700
:1035D00034D523685B0731D523689B062ED42C494C
:1035E00005AD14221C31280000F0BFF8294E3368C5
:1035F0001A0A6A741A0CAA741A0E2B74EA74002B35
:1036000006D1254800F054F9FFF762F8234B186003
:10361000234B1888234B80B21A88234B1988142314
:1036200003950025029300930195133B04F05AF88B
:10363000642805D120232268134323600AB070BD9B
:103640003368581C30600028F8D0FA214900FCF794
:1036500027FE0029F2D1FFF73BF8104D2B68C41A62
:103660002000FDF7ADF9011C1048FDF761F8FEF7E9
:1036700095FF00900191FA21220049000C4800F0CA
:1036800097F8FFF725F82860D8E7C0462C180020E7
:10369000195B051058170020575E05105C170020B5
:1036A00054170020B8170020BA17002000409C478C
:1036B000655E0510034B044A1980012311680B4312
:1036C00013607047541700202C1800200121104B64
:1036D0001A688A431A60022219680A4304211A6090
:1036E0001A688A431A601A681C318A431A601A6879
:1036F00008490A401A601A6807490A401A601A689D
:1037000006490A401A601A6805490A401A6070475B
:103710002C180020FFFEFFFFFFFDFFFFFFFBFFFF58
:10372000FFF7FFFF10B50800029AD9B2FFF7E4FDDA
:1037300010BD00002021024A13688B4313607047BC
:103740002C18002010B500F019F810BD30B5002479
:10375000A24201D1002005E0035D651C0C5DA3427F
:1037600001D0181B30BD2C00F2E7002310B59A429F
:1037700000D110BDCC5CC4540133F8E710B58842C9
:1037800002D98B18984208D300239A4207D0CC5C08
:10379000C4540133F9E78B5C8354013AFBD210BD6A
:1037A00003008218934200D1704719700133F9E782
:1037B0000FB40B4B13B51C68002C05D0A369002B6C
:1037C00002D1200002F0F6F905AB049AA1682000AE
:1037D000019300F077F816BC08BC04B01847C04647
:1037E0003018002030B5050089B008000C00FCF747
:1037F000B5FC2A4A04AB06920122019302230590EC
:1038000080180494079203900293002D05D0AB69B1
:10381000002B02D1280002F0CDF9AB69AC68002B77
:1038200002D1280002F0C6F91D4B9C422BD16C68D6
:10383000636EDB0705D4A3899B0502D4A06D02F05B
:10384000D5FC0C23E25E80239B011A4205D1134371
:10385000A381626E134B13406366280001AA210006
:1038600002F032FB431E98410A25636E4042054335
:10387000DB0705D4A3899B0502D4A06D02F0B7FC39
:10388000280009B030BD084B9C4201D1AC68CFE79D
:10389000064B9C42CCD1EC68CAE7C046FB5C0510E5
:1038A000D0600510FFDFFFFFF0600510B06005106D
:1038B00010B5034B01001868FFF794FF10BDC04618
:1038C00030180020F0B5C5B00E0015001F001C0018
:1038D0000A9002F07DFC036818001893FCF73EFC88
:1038E0000A9B1290002B06D09B690793002B02D1F4
:1038F0000A9802F05FF9A94B9E422FD10A9B5E689D
:10390000736EDB0705D4B3899B0502D4B06D02F05A
:103910006DFC0C23F25E80239B011A4205D11343F8
:10392000B381726E9E4B13407366B3891B0702D539
:103930003369002B1ED131000A9801F01FF90028CD
:1039400018D0736EDB0705D4B3899B0502D4B06D24
:1039500002F04DFC01235B42139323E0914B9E4206
:1039600002D10A9B9E68CBE78F4B9E42C8D10A9B2F
:10397000DE68C5E71A23B28913400A2B15D10E2140
:10398000735E002B11DB736EDB0704D4930502D446
:10399000B06D02F02CFC3B002A0031000A9801F0C7
:1039A000A9F81390139845B0F0BD002334AF2797C2
:1039B0002993289311950E93169317931A9319939D
:1039C0001393119D2B78002B02D0252B00D098E06B
:1039D000119BEB1A07931ED0079A119B94463B60EC
:1039E000079B7B60299B083763442993289B0B9393
:1039F00001332893072B09DD27AA31000A9803F029
:103A000051FB002801D000F0EFFF34AF079A139B61
:103A10009446634413932B78002B01D101F009F8ED
:103A20001F22002318A95218012113701A004942BD
:103A300001350B9114930793691C119129780D910D
:103A40000D982038582801D900F0E4FCFCF798FBC9
:103A5000DB00E204E204E100E204E204E204E20446
:103A6000E204E204E6005B00E204EE00F000E2049F
:103A70001501170117011701170117011701170188
:103A800017011701E204E204E204E204E204E204A2
:103A9000E204E204E204E2044B016701E20467018C
:103AA000E204E204E204E2042901E204E204D803AD
:103AB000E204E204E204E204E2044004E204E20478
:103AC000AE00E204E204E204E204E204E204E204FE
:103AD000E204E204E2043C015F0067016701670160
:103AE0002B015F00E204E2042D01E204B503DC03D4
:103AF00009043401E2041C04E2044404E204E20484
:103B0000690401355EE701232B22119D94E7002B08
:103B100003D01F2318A95B181A70079B9B0600D4BB
:103B2000ECE0072307349C43230008330F932368FA
:103B3000646808930994099A0123002A0CDA089909
:103B4000099A00244B429441089309941F232D2283
:103B500018A95B181A7001230999089A0A430B994E
:103B6000013101D100F08EFF8021079D8D43002A95
:103B700001D000F08CFF0B9A002A01D100F03FFC2D
:103B8000012B01D100F0F2FB022B01D100F019FC56
:103B9000002300240893099400F07FFFD0600510F3
:103BA000FFDFFFFFF0600510B0600510002B03D0B1
:103BB0001F2318A95B181A70954B1A932023079A94
:103BC000134000D1B5E3072307349C432300083397
:103BD0000F932368646808930994079A0223D20715
:103BE00000D420E3089A09990A4300D11BE330214D
:103BF00020AA117034206946091809785170079A73
:103C00001A4307920FE3002A00D07EE70123202207
:103C10007BE7012107980843079076E72168043481
:103C20001491002900DB70E7494214910421F1E767
:103C300011981199007801310D902A2809D000209F
:103C40000B900D9D0800303DAC46092D0CD911900C
:103C5000F6E6201D24680B94002C02DA012464424D
:103C60000B940400119150E70A250B9868436044B7
:103C70000B90087801310D90E3E78021CAE700211D
:103C800014910A20149941430D9830384118149129
:103C90001199481C097811900D9130390929F0D9F2
:103CA000D5E70821B6E74021B4E7119909786C29D6
:103CB00005D11199013111910799202001E01020BF
:103CC00007990143079120E7231D22680F932AAB30
:103CD0001A701F22002418A95218147001220B9286
:103CE00010940C933EE1002B03D01F2318A95B18FE
:103CF0001A701023079A1A4307920EE7079B221D9A
:103D0000DB0605D523680F920893DB17099312E7AA
:103D1000079923680F924906F6D51BB2F4E7002BEA
:103D200003D01F2318A95B181A70072307349C437C
:103D30002300012208330F932368524216936368CD
:103D4000169D1793179B28005C006408314B2100D7
:103D5000FEF756FB002801D000F07AFE01222D4B21
:103D6000524228002100FCF7ABFB002801D000F0F4
:103D70006FFE0022002316981799FCF797FB002886
:103D800004D01F232D2218A95B181A70224B0C9304
:103D90000D9B472B01DC214B0C9380230024079AB9
:103DA0009A437D3B07920B931094DBE00B9B01330E
:103DB00025D020230D9A9A43472A02D10B9B002B32
:103DC00020D08023079A5B001A43179C169B1C92F5
:103DD0001093002C18DA80221206230094466344C4
:103DE00015932D231B9320230D9C9C43462C17D009
:103DF0000B9D452C01D10B9B5D1C022312E0062379
:103E00000B93DEE70123FBE715940023EAE7C046A6
:103E100060600510FFFFEF7F5460051050600510D3
:103E200003230B9D25AA049222AA039221AA02929F
:103E300000930195109A159B0A9800F099FF0C9039
:103E4000472C04D1079BDB0701D400F015FE0C9B27
:103E50005B190E93462C13D10C9B1B78302B0AD187
:103E60000022002310981599FCF71AFB002802D1B4
:103E700001235D1B2195219A0E9B944663440E936A
:103E80000022002310981599FCF70AFB3022002825
:103E900000D143E10E9B2593259B0C9A9B1A0E9310
:103EA000472C00D03FE1219BDA1C03DB0B9A9A429E
:103EB00000DB6AE10D9B023B0D9369463420219A99
:103EC00009180978541E23AB21941970002C00DBCB
:103ED00041E10124A41A2D225A70092C00DC43E18F
:103EE0003B2518ABED186B1E20000A210B93FCF745
:103EF000C1FA6B1E3031197020000A21FCF7D4F989
:103F00000400092800DD28E12E233B2118AA023DE8
:103F100030342C709B1889181A008D4200D21EE193
:103F200023ABD31A1993199A0E9B944663440B93AF
:103F30000E9B012B04DC0123079A1A40109206D035
:103F4000129A0B9B944663440B93002310931B9B84
:103F5000002B04D01F232D2218A95B181A700024EF
:103F60001C9B07930B9B15949C4200DA15931F230F
:103F700018AA9B181B785A1E9341159AD3181593AB
:103F80000223079A1A401B9202D0159B0233159305
:103F90008423079A1A401C921ED1149B159A9D1ACD
:103FA000002D19DDC74B3B60102D00DD4EE2299B33
:103FB0007D605D19289B29951D930133289308374F
:103FC000072B09DD27AA31000A9803F06BF80028B7
:103FD00001D000F009FD34AF1F2318AA9B181A78EE
:103FE000002A16D03B6001237B60299B08370133F0
:103FF0002993289B1D9301332893072B09DD27AABA
:1040000031000A9803F04EF8002801D000F0ECFCD3
:1040100034AF1B9B002B17D020AB3B6002237B608F
:10402000299B083702332993289B1B93013328933C
:10403000072B09DD27AA31000A9803F033F800287E
:1040400001D000F0D1FC34AF1C9B802B1ED1149BFF
:10405000159A9D1A002D19DD9B4B3B60102D00DD3C
:104060000BE2299B7D605D19289B29951B930133E9
:1040700028930837072B09DD27AA31000A9803F097
:1040800011F8002801D000F0AFFC34AF0B9B1025D5
:10409000E41A002C00DD1CE2079BDB0500D532E2B0
:1040A0000C9B3B600B9B7B60299B08370C930C9A05
:1040B0000B9B944663442993289B0B9301332893CD
:1040C000072B09DD27AA31000A9802F0EBFF002830
:1040D00001D000F089FC34AF079B5B0701D500F0ED
:1040E00062FC1499159B994200DA1900139B5B1826
:1040F0001393299B0793002B08D027AA31000A9815
:1041000002F0D0FF002801D000F06EFC00230F9CCD
:10411000289334AF55E4591C25911A70259B0E99AC
:104120009942F8D8B8E60D9B652B00DCC5E60D9BDF
:10413000662B2AD1219B002B1DDD0B9A002A02D170
:10414000079AD20703D5129A9B180B9A9B18219AAB
:104150000B931092FBE62B22BEE60B9DC3E62A785A
:1041600001351A700133D7E6302223ABA4189A70B8
:10417000DC7024AAD4E60B9B002B03D1079A0133F1
:104180001A42E4D0129B0133DFE7219A0E9B9A4238
:1041900007DB079BDB070ED5129BD31867220D9216
:1041A000D5E712990E9B5B1867210D91002ACEDC92
:1041B0009B1A0133CBE71300F0E7002B03D01F233A
:1041C00018A95B181A70079A231D920607D5226852
:1041D00013991160C91751601C00FFF7F2FB079A91
:1041E000D20603D5226813991160F5E7079A5206A3
:1041F000F8D569464C200918226809881180EBE738
:104200001023079A1A4307922021079B194010D0C8
:10421000072307349C43230008330F932368646803
:104220000893099400231F22002118A81218117066
:1042300092E41022079B201D1A4004D023680F909F
:1042400008930991EEE7402307990F900B4004D0A3
:10425000236809929BB20893E4E7226809930892C5
:10426000E1E7231D0F932368782008930023302172
:10427000079A099302331A43079220AA11705070CB
:10428000124A0D901A92CEE7231D0F932368002443
:104290000C931F2318AA9B181C700B9B01330BD087
:1042A0000B9A21000C9802F025FAA04200D1CBE035
:1042B0000C9BC31A0B9377E50C98FBF74FFF0B9001
:1042C00072E5C046826005109260051071600510AD
:1042D0001023079A1A4307922023079A13400BD002
:1042E000072307349C43230008330F932368646833
:1042F00008930994012396E7102207990A40211D8B
:10430000002A04D00F91226809930892F2E7402313
:1043100007980F910340F6D0236809929BB2089347
:10432000E8E7002B03D01F2318A95B181A70AE4BC7
:1043300043E4102207990A40211D002A04D00F915E
:1043400022680993089248E4402307980F9103409C
:10435000F6D0236809929BB208933EE40C9B9FE33E
:10436000099B002B0AD1089B092B07D8089B2CAA74
:104370003033D3776F2318AA9B18B0E334AB0C9378
:104380000C9B08980999013B0C930A220023FCF727
:10439000B5F8089809990C9B30321A700A2200234C
:1043A000FCF7ACF808900991089B099A1343E7D1F0
:1043B0000C9A34AB9B1A0B9C0B930023079510931C
:1043C000D0E500230024089309940F2034AB0C930C
:1043D0000C9B1A9A013B0C93089B0340D35C0C9AEC
:1043E0001370099B1907089B1A09099B11431B09A4
:1043F00009930B00099A08911343E9D1D8E734AA2D
:104400000C92002BD4D1079BDB07D1D530222CABEB
:10441000DA77AFE7002B03D01F2318A95B181A70B7
:104420000D9B002B00D104E334216A465218127808
:104430002AAB1A701F22002018A9521810700122EE
:104440000F940B9204004BE40400ADE410237B6056
:10445000299B083710332993289B1D9301332893F8
:10446000072B08DD27AA31000A9802F01BFE00285E
:1044700000D0B9E234AF103D94E510237B60299B56
:10448000083710332993289B1B9301332893072B5C
:1044900008DD27AA31000A9802F004FE002800D0A7
:1044A000A2E234AF103DD7E5299B7D6010332993FC
:1044B000289B08371B9301332893072B08DD27AA75
:1044C00031000A9802F0EEFD002800D08CE234AFF3
:1044D000103C464B3B60102CE6DC299B7C601C1991
:1044E000289B29941B93013328930837072B00DC62
:1044F000D2E527AA31000A9802F0D4FD002800D0A6
:1045000072E234AFC8E50D9B652B00DCB3E10022FD
:10451000002316981799FBF7C3FF00286AD0344B85
:104520003B6001237B60299B083701332993289B3B
:104530000B9301332893072B08DD27AA31000A9833
:1045400002F0B0FD002800D04EE234AF219B0E9A5D
:10455000934203DB079BDB0700D4BDE5129A189B4F
:1045600094463B60129B7B60299B083763442993E8
:10457000289B0B9301332893072B08DD27AA3100D2
:104580000A9802F08FFD002800D02DE234AF0E9B78
:1045900010255C1E002C00DC9EE5144B3B60102CAB
:1045A0000BDC7C60299B1C192994289B0B930133FD
:1045B0002893072B00DC87E084E5299B7D6010337E
:1045C0002993289B08370B9301332893072B08DD89
:1045D00027AA31000A9802F065FD002800D003E206
:1045E00034AF103CD9E7C0467160051092600510E9
:1045F000B55C0510219B002B7FDCD14B3B60012378
:104600007B60299B083701332993289B0B93013347
:104610002893072B08DD27AA31000A9802F042FDF3
:10462000002800D0E0E134AF219B002B06D10E9B87
:10463000002B03D1079BDB0700D44DE5129A189B92
:1046400094463B60129B7B60299B08376344299307
:10465000289B0B9301332893072B08DD27AA3100F1
:104660000A9802F01FFD002800D0BDE134AF219C64
:10467000002C19DA10256442B24A3A60102C25DC6D
:10468000299B7C601C19289B29945A1C08370B9382
:104690002892072A08DD27AA31000A9802F002FDB5
:1046A000002800D0A0E134AF0E990C9B8C463B60F3
:1046B0000E9B7B60299B63442993289B5A1C0B9378
:1046C0002892072A00DDFDE4083705E5299B7D6077
:1046D0001A00289B103229925A1C0B9328920837F3
:1046E000072A08DD27AA31000A9802F0DBFC00281F
:1046F00000D079E134AF103CBEE7109C0E9A944292
:1047000000DD1400002C15DD0C9B7C603B60299BB8
:1047100008371B192993289B0B9301332893072BE8
:1047200008DD27AA31000A9802F0BCFC002800D05E
:104730005AE134AFE343DB171C40109B10251C1BD0
:10474000002C7EDC219B0E9A934202DB079BDB0749
:1047500018D5129A189B94463B60129B7B60299B4C
:10476000083763442993289B0B9301332893072B25
:1047700008DD27AA31000A9802F094FC002800D036
:1047800032E134AF109A0E9B21999B1A0E9A541A5B
:104790009C4200DD1C00002C18DD109A0C9B9446F6
:1047A00063443B60299B7C601B192993289B083735
:1047B0000B9301332893072B08DD27AA31000A98B1
:1047C00002F070FC002800D00EE134AFE343DB17A9
:1047D0001C40219A0E9B10259B1A1C1B002C00DCF0
:1047E0007AE4584B3B60102C00DCDAE6299B7D60B4
:1047F00010332993289B08370B9301332893072BF9
:1048000008DD27AA31000A9802F04CFC002800D0ED
:10481000EAE034AF103CE4E7299B7D601033299334
:10482000289B08370B9301332893072B08DD27AA11
:1048300031000A9802F036FC002800D0D4E034AFF2
:10484000103C404B3B60102CE6DC299B7C601C1923
:10485000289B29940B93013328930837072B00DCFE
:1048600070E727AA31000A9802F01CFC002800D04B
:10487000BAE034AF66E70E9B012B04DC0123079AF4
:104880001A4200D188E00C9B3B6001237B60299B8E
:10489000083701332993289B0B9301332893072B67
:1048A00008DD27AA31000A9802F0FCFB002800D09E
:1048B0009AE034AF129A189B94463B60129B7B603F
:1048C000299B083763442993289B0B930133289332
:1048D000072B08DD27AA31000A9802F0E3FB002825
:1048E00000D081E034AF0023002216981799FBF71F
:1048F000D7FD0E9B5D1E002826D10C9B0E9A01331E
:104900003B60299B7D60013B9B182993289B0837BE
:104910000B9301332893072B07DD27AA31000A9850
:1049200002F0C0FB00285FD134AF199A23AB944644
:104930003B60199B7B60299B6344299335E6C04605
:10494000B55C0510926005101024002DEDDD654B5F
:104950003B60102D0BDC299B7D605D192995289B00
:104960000B9301332893072BD7DC0837DDE7299B0E
:104970007C6010332993289B08370B9301332893CD
:10498000072B07DD27AA31000A9802F08BFB0028CD
:104990002AD134AF103DDAE77B60299B0C9A0133B2
:1049A0003A602993DBE7149B159A10259C1A002C7A
:1049B00001DCFFF796FB4C4B3B60102C24DC299B61
:1049C0007C601C19289B2994079301332893072B9B
:1049D00001DCFFF786FB27AA31000A9802F062FB90
:1049E000002801D1FFF77DFB736EDB0705D4B38987
:1049F0009B0502D4B06D01F0FAFBB3895B0601D4CC
:104A0000FEF7D0FFFEF7A6FF299B7D6010332993A8
:104A1000289B0837079301332893072B07DD27AA24
:104A200031000A9802F03EFB0028DDD134AF103C83
:104A3000C1E7299B0793002B02D100232893D3E7DA
:104A400027AA31000A9802F02DFB0028F5D0CBE709
:104A5000169A179B16981799FDF7D2FC002801D1DA
:104A6000FFF7A4F9214B0C930D9B472B01DDFFF7BA
:104A700094F91F4BFFF790F9259B0C9A9B1A0E9304
:104A8000FFF711FA079D002A01D1FFF779F8012BF2
:104A900000D165E4022B00D197E40722944634ABA1
:104AA0005A1E0C92624608990A403032591E0A700A
:104AB00009994C070899C80809990443C90809913C
:104AC000210009980894014300D047E4E90700D485
:104AD0006EE4302A00D16BE43022023B1A700C9352
:104AE00066E4C04692600510826005105C600510A7
:104AF00058600510F0B5150002221E4C1F008B896E
:104B0000A54493436A4693814B6E06001993CB8963
:104B100016A8D3810B6A0C0008938B6A0A931AAB10
:104B2000009304938023DB000293059300230693F4
:104B300001F05AFB2A003B0069463000FEF7C2FE36
:104B4000051E07DB6946300000F092FF002801D007
:104B500001256D426B469A8940231A4202D0A289F0
:104B60001343A381169801F040FB2800024B9D449B
:104B7000F0BDC04694FBFFFF6C040000364B70B5DF
:104B80001D6806000C00002D05D0AB69002B02D17A
:104B9000280001F00FF8314B9C420FD16C680C23B8
:104BA000E25E93B219072DD4D90611D4092301204E
:104BB000336037331343A381404270BD284B9C427E
:104BC00001D1AC68EBE7274B9C42E8D1EC68E6E703
:104BD0005B0713D5616B002908D023004433994249
:104BE00002D0300001F0BCF8002363632422A389C3
:104BF0009343A38100236360236923600823A28970
:104C00001343A3812369002B0BD1A0218022A38908
:104C1000890092000B40934203D02100300001F044
:104C200017FB0123A289134011D00023A3606369FD
:104C30005B42A361002023698342BED10C23E25E64
:104C40001306BAD540231343A3810138B5E7920771
:104C500000D46369A360EDE730180020D060051030
:104C6000F0600510B0600510F0B503690C6989B0FB
:104C70000700059100269C426DDC0B00013C1433BB
:104C8000A50003935B1904930300143302935D1989
:104C9000049B28681B68591C0193FBF77BFA019061
:104CA000B0422DD0039B02989C460696624608CAE5
:104CB0009446019A99B251431B0C534389190A0C2B
:104CC0009B18079302881E0C069B89B2D2180368B2
:104CD000521A190C6B469B8BCB1A11145B181914C2
:104CE00092B21B041A43049B069104C06345DDD2B3
:104CF0002B68002B04D1029B043DAB422ED33C61B8
:104D00000599380001F023FF002823DB0025019BD3
:104D1000029801330399019308C9028855199AB280
:104D2000AA1A05681B0C2D0CEB1A15145B191D141F
:104D300092B21B04134308C0049B8B42ECD2029A2C
:104D4000A300D3181A68002A04D1029A043B9A429D
:104D500009D33C61019E300009B0F0BD2B68002BE7
:104D6000CDD1013CC7E71A68002AF2D1013CECE73B
:104D7000F0B516001F00446A9DB00490259D06966C
:104D80000797002C08D1102001F0A6FA049B586266
:104D9000446084600460C460049B5B6A19680029F5
:104DA0000BD05A68012393404A608B60049801F04D
:104DB000F5FC0022049B5B6A1A60079B002B1FDA3C
:104DC00001232B607B005B080793079CB74B2200F5
:104DD00019931A409A4216D1B54B249A1360069B38
:104DE000002B03D1240301D100F091FDB14B269A91
:104DF0000A93B14B002A01D000F08FFD00F08FFD27
:104E000000232B60E1E7069E079F0022002330006D
:104E10003900FBF745FB051E0ED00123249A1360D1
:104E2000A64B269A0A93002A01D100F078FDA44AE5
:104E300026990A6000F073FD1AAB01931BAB009337
:104E400032003B00049801F0FFFE630005905B0D0B
:104E500000D17FE03A039B4C120B144321009A4A85
:104E6000300018959E180022984BFCF7B3FF984A23
:104E7000984BFCF72FFD984A984BFBF7E7FD040091
:104E800030000D00FDF710FB954A964BFCF722FD14
:104E900002000B0020002900FBF7D8FD04000D00E4
:104EA000FDF7CEFA00220390002320002900FBF733
:104EB000FDFA00280ED00398FDF7F6FA0B00020069
:104EC00029002000FBF7ECFA030058425841039BED
:104ED0001B1A039301231693039B162B0FD88249A9
:104EE000DB00C91808684968069A079BFBF7F2FAC5
:104EF00000284BD0039B013B0393002316931A9B7E
:104F00009E1B00230B933300013B0C9304D501231C
:104F10009B1B0B9300230C93039B002B38DB039A02
:104F20000C9B944663440C9300230F920893229B9E
:104F30000125092B00D991E0052B02DD0025043B5A
:104F40002293229B981E032800D991E0FBF70EF9CB
:104F5000828429761A9B1B9A9E18644BF218202A89
:104F60000FDD634B0698F318D84040239B1A9C40F2
:104F70002043FDF7DBFA01235E4C013E091918932B
:104F800071E7202306989B1A9840F2E71690B6E73F
:104F90000B9B039A9B1A0B935342089300230F9386
:104FA000C5E701230E93239B002B65DD1F000D93A6
:104FB000049A546A0022626004321100143199424A
:104FC0005FD96168049801F0B1FB049B20605B6AC3
:104FD0001B680A930E2F00D905E1002D00D102E1D4
:104FE000069B079C14931594039B002B00DC85E023
:104FF0001A000F213C4B0A40D2009B185C681B68CA
:1050000010931194039B02241D11EB060AD53A4B11
:105010000D401A6A5B6A14981599FCF727F80690F8
:1050200007910134344E002D30D1109A119B06980F
:105030000799FCF71BF8069007917AE00123239A61
:105040000E939446039B63445F1C0D933B1EAFDCA1
:105050000123ADE70023A5E70023F0E700230E9529
:105060002293013B00220D931F00133323929FE7ED
:1050700001230E93023BF5E701230D931F001A0055
:10508000F4E7616852000131616096E701231D4237
:1050900008D010981199E41832687368FCF71AFC6C
:1050A000109011916D100836BDE7C0460000F07FEA
:1050B0000F270000AB600510AE600510B55C051051
:1050C000B65C05100000F03F01FCFFFF0000F83F58
:1050D00061436F63A787D23FB3C8608B288AC63FFE
:1050E000FB799F501344D33F386105103204000010
:1050F00012040000000010FE10610510039B022442
:10510000002B16D0149815995D420F23CA4A2B40E4
:10511000DB00D3181A685B68FCF7DCFB0023069001
:105120000791C64E2D11002D00D08CE0002B00D031
:1051300081E7169B002B00D191E0069A079B109205
:105140001193109811990022BD4BFBF7AFF900287D
:1051500000D184E0002F00D181E00D9B002B3EDDCB
:1051600010981199039B00225E1EB64BFCF7B2FB10
:10517000069007910D9D01342000FDF795F9069AE0
:10518000079BFCF7A7FB0022AF4BFBF75FFC1290DD
:105190001391129B139CAD4A10931194139B9C186E
:1051A0001194002D5ED1069807990022A84BFCF7B8
:1051B00011FE109A230006900791FBF78BF9002847
:1051C00000D001E3A3481399844661440B0006987C
:1051D0000799109AFBF76AF9002800D0E8E2149BBF
:1051E000159C069307941B9B002B00DA57E1039A4A
:1051F0000E2A00DD53E1904BD2009B185C681B68BF
:1052000008930994239B002B00DBCEE0002F00DDE8
:10521000CBE000D0CFE20898099900228C4BFCF734
:1052200059FB069A079BFBF75FF93E000897002899
:1052300000D0A4E20A9B0A9A5D1C31231370039BE1
:10524000013303939FE20122154205D0A41832686E
:105250007368FCF73FFB01236D10083663E7039E7C
:105260003D0089E70A9A691E521917920E9A724BED
:10527000C900002A4AD05B181A685B68002076498A
:10528000FBF7F4FE109A119BFCF7A4FD0A9B10900B
:105290001191129306980799FDF7D2F80400FDF7D3
:1052A00003F902000B0006980799FCF793FD129B87
:1052B00030345D1C1C70109A119B06900791FBF70F
:1052C000F5F8002865D1069A079B00205C49FCF799
:1052D00081FD109A119BFBF7E9F8002800D0BEE091
:1052E000179B9D4200D17AE7109811990022554BE7
:1052F000FCF7F0FA00221090119106980799514B93
:10530000FCF7E8FA129506900791C3E75918086868
:105310004968109A119BFCF7DDFA109011910A9CD4
:10532000179D06980799FDF78BF81290FDF7BCF8CA
:1053300002000B0006980799FCF74CFD129B0690A3
:10534000079130332370179B01340022A34224D1EC
:10535000414B10981199FBF779FB02000B0006985E
:105360000799FBF7B7F8002800D078E0109A119B56
:1053700000203949FCF72EFD02000B000698079922
:10538000FBF794F8002800D129E76B1E1A78302A21
:1053900001D003963FE01D00F7E706980799294BD7
:1053A000FCF798FA06900791BBE70A9E089A099BBA
:1053B00006980799FBF75AFEFDF742F80400FDF73F
:1053C00073F8089A099BFCF785FA0B00020006980F
:1053D0000799FCF7FFFC2300303333700A9B751CE0
:1053E000EB1A9F424CD102000B00FBF72FFB06008B
:1053F0000F0002000B0008980999FBF757F80028E6
:105400002CD10898099932003B00FBF749F8002895
:1054100001D0E30722D40599049801F0BFF90023D5
:105420002B70039B249A01331360269B002B00D121
:1054300075E21D6073E2C046386105101061051009
:105440000000F03F0000244000001C400000C0FCB1
:10545000000014400000C07C0000E03F039E6B1E73
:105460001A78392A06D10A9A9A4207D13023137042
:10547000130001361A7801321A708AE71D00EEE730
:105480000022CF4BFCF726FA00220023069007915A
:105490002E00FBF705F8002800D187E7BBE70E9A3E
:1054A000002A00D187E0229A012A6EDC189A002A8D
:1054B00067D0C44A9B18089D0B9C0B9A0121D218F7
:1054C0000B920C9A0498D3180C9301F005FA06007D
:1054D000002C0EDD0C9B002B0BDD0C9A230094425C
:1054E00000DD13000B9AE41AD21A0B920C9AD31A0D
:1054F0000C93089B002B1ED00E9B002B5FD0002D21
:1055000011DD31002A00049801F07EFA059A0100AD
:105510000600049801F0E9F905991090049801F04B
:105520003DF9109B0593089B5A1B04D005990498DC
:1055300001F06AFA05900121049801F0CDF90F9B62
:105540000890002B3DDD1A000100049801F05CFA80
:10555000229B08900025012B3BDC0025069BAB42DB
:1055600033D1079B1B03AB422FD1199B079A1342E0
:105570002BD00B9B013501330B930C9B01330C9308
:1055800023E036231A9A9B1A95E7089B7D1EAB42AF
:1055900006DB5D1B002F0BDA0B9BDC1B00238CE76B
:1055A000089B0895EA1A0F9B00259B180F93F1E7BB
:1055B0000B9C3B0081E7089D0B9C0E9E88E7089A98
:1055C000B4E7229B0025012BC7DD0F9B0120002B98
:1055D0000BD0089B089A1B690F9303339B00D318C9
:1055E000586801F030F92023181A0C9BC0181F23AB
:1055F000184000D1ABE001331B1A042B00DC9BE008
:105600001C23181A0B9B24181B180B930C9B1B189C
:105610000C930B9B002B05DD1A000599049801F0F3
:1056200045FA05900C9B002B05DD1A00089904989B
:1056300001F03CFA0890169B002B00D189E00899F4
:10564000059801F084FA002800DB82E0039B0A221F
:10565000013B039305990023049801F0B8F80E9BD1
:105660000590002B00D15DE1002331000A2204984F
:1056700001F0ADF80D9B0600002B02DC229B022BF3
:105680006DDC002C05DD31002200049801F00EFADB
:1056900006003000002D11D07168049801F046F822
:1056A0003100040033690C319A1C92000C30FEF773
:1056B0005CF801222100049801F0F8F90D9F0A9B83
:1056C000013F0B93DB19370006000F9308990598EB
:1056D000FFF7CAFA39000D900400059801F037FA77
:1056E00032000E900899049801F04AFA01230C93B5
:1056F000C36830340500002B04D10100059801F087
:1057000026FA0C902900049801F048F80C9B229A84
:10571000134300D089E0069A0133134200D084E09D
:10572000392C00D1A3E00E9B002B01DD0D9C313400
:105730000B9B5D1C1C7027E0042B00D169E70B9AC2
:105740001C33D2180B920C9AE418D31860E70300AC
:10575000F5E7002F3CDC229B022B39DD0D970D9BDA
:10576000002B0CD108990522049801F030F808901C
:105770000100059801F0EBF9002800DD5AE5239BB4
:105780000A9DDB43039300270899049801F006F86B
:10579000002E00D13FE6002F05D0B74203D03900DC
:1057A000049800F0FBFF3100049800F0F7FF32E6A8
:1057B00008952E00E3E7002308931E00DFE7C046AC
:1057C0000000244033040000039608952E0031E5C4
:1057D0000E9B0D97002B00D053E70A9D0899059862
:1057E000FFF742FA0A9B30300D9A28700135040009
:1057F000EB1A9A4278DC151E00DC012500270A9B73
:105800005D1905990122049801F050F90899059055
:1058100001F09DF900282FDC01D1E3072CD46B1E89
:105820001A78302AB0D11D00F9E70E9B002B07DB58
:105830001D00229B1D4326D10123069A134222D12B
:105840000C9B002B00DC73E705990122049801F002
:105850002DF90899059001F07AF9002804DC00D0B0
:1058600066E7E30700D463E7392C00D05EE70B9BC3
:105870000B9A5D1C392313706B1E1A78392A3BD0A2
:1058800001321A7080E70B9B01330D930C9B002BA8
:1058900005DD392CEBD00D9D01340B9B4AE70B9BAA
:1058A0000F9A0D9D1C709342ABD000230A220599DC
:1058B000049800F08CFF002305900A223900049818
:1058C000B74206D100F083FF070006000D9B0B9343
:1058D000FCE600F07CFF3100070000230A22049858
:1058E00000F075FF0600F1E700230A2205990498ED
:1058F00000F06DFF059071E70A9A9A4205D1039B6B
:1059000001330393312313703EE71D00B4E70A4BC4
:10591000269A0A93094B002A01D0269A13600A9806
:105920001DB0F0BD0D9B002B00DD56E7229B022B26
:1059300000DC52E713E7C046A2600510AA6005101C
:10594000F7B50C228B5E0C0099B205000A0700D552
:1059500068E0802212011A436368A281002B04DCF4
:10596000236C002B01DC0020FEBDE76A002FFAD07B
:1059700000232E682B6080235B011A4038D0606DB5
:10598000A3895B0706D56368C01A636B002B01D03F
:10599000236CC01A0200216A00232800E76AB84776
:1059A000A189431C06D12B681D2B35D82E4ADA401D
:1059B000D30731D500222D4B62600B4022691BB208
:1059C000A3812260DB0405D5431C02D12B68002B88
:1059D00000D16065616B2E600029C4D02300443380
:1059E000994202D0280000F0BBF900206063BBE7B9
:1059F0000123216A2800B847431CC1D12B68002B22
:105A0000BED01D2B01D0162B01D12E60ABE7402359
:105A1000A2891343A381A7E740230B430120A3815D
:105A20004042A1E72769002F9DD023682760DB1B38
:105A3000019300238A0700D16369A360019B002BB7
:105A400000DC90E7019B3A00216A2800A66AB04773
:105A5000002803DC4023A2891343DFE7019B3F18A2
:105A60001B1A0193EAE7C04601004020FFF7FFFF41
:105A70000B6970B505000C00002B02D10025280031
:105A800070BD002804D08369002B01D100F092F88A
:105A9000144B9C421BD16C680C22A35E002BEDD0F2
:105AA000626ED20704D49B0502D4A06D00F09EFB69
:105AB00028002100FFF744FF636E0500DB07DED4FA
:105AC000A3899B05DBD4A06D00F091FBD7E7064BC3
:105AD0009C4201D1AC68DFE7044B9C42DCD1EC680E
