:020000041004E6
:100000000060002075030410510504106D050410F4
:10001000AA5555AA45554C420000000000000000BA
:10002000000000000000000000000000890504102E
:100030000000000000000000A5050410C105041028
:10004000DD050410F90504100000000000000000A8
:1000500015060410310604104D060410690604103C
:100060000000000000000000000000000000000090
:100070000000000085060410A1060410BD0604104F
:1000800000000000D9060410F90604101907041036
:100090003907041059070410790204107907041075
:1000A0000000000000000000000000000000000050
:1000B0000000000000000000000000000000000040
:1000C000EFF31482EFF30981002080F31488BFF36B
:1000D0006F8FF0B543464C4655465E466746F8B4CA
:1000E000164CEFF30883236006B4154C2068154CBA
:1000F0002060154C2068154C2060154C2068154C6C
:100100002060154C276800202060BFF34F8F30BF60
:1001100027600A4C246884F3088882B003BCF8BCCA
:100120009846A146AA46B346BC46F0BC04BC80F340
:10013000098881F31488BFF36F8F104708000020EF
:1001400004ED00E0D802002024ED00E0CC02002005
:1001500000E200E0DC020020080020400E4AD369E3
:100160001B061B0F4370D9B2D3690C4A1B07944678
:100170001B0F83700A4B1B68436063445A42534110
:1001800001330370002901D101234370054B9B8A81
:1001900001339B008360704700009040BF5FFFFD0C
:1001A0002800904000001040084B1A68084B9A4203
:1001B00000D070473F23074A40061381000C2E3BB6
:1001C00090611380138ADB07FCD5F2E7140000204E
:1001D000CCBCECFC00001040244B1A7A244BD2B269
:1001E0001B899BB2002A09D0022A3DD00220042A92
:1001F00003D00020082A00D1033070471A00093AC2
:10020000782A18D8092206201A40092AF5D0112286
:1002100001301A40112AF0D0212201301A40212A3F
:10022000EBD0412201301A40412AE6D08122013030
:100230001A40812AE1D002221900FF3211400B201E
:100240009142DAD019000B4A013011409142D4D0CA
:10025000052207381A40052ACFD002381840033843
:10026000434258418000C8E70120C6E700009040A3
:1002700000001048010400007047C046012130B55D
:10028000364A85B0137A03240B4313720022344B91
:100290001A606B46DD1CFFF79FFF28702B78002B40
:1002A00003D1013CE4B2002CF5D12B78052B02D808
:1002B000012005B030BD2B780B2B1BD001AC2000EA
:1002C000FFF74CFF6378A2781B011343112B17DC57
:1002D000244B1B681B070DD59023234ADB051969A6
:1002E0001368283B5B1A1B02002B03DD9023126866
:1002F000DB055A6001221D4B1A70FFF70AFFFEE76B
:10030000184B1B681B0717D59021174AC9050869A8
:100310001368283B1B1A1B02002BEBDD8020144BBB
:1003200040021B041B0C0343CB60CB680342DDD0AF
:10033000CB680342F9D1D9E7802290210C4B5202BD
:100340001B041B0C1343C905CB60CB681342FCD1C3
:100350000122064B1A70FFF7DCFED0E700002040B8
:1003600014000020C0000020180000200C00002015
:10037000D002002010B5FFF781FF012805D01B4BEC
:1003800083F3088800F048F810BD1948194B9842CB
:1003900007D2C243D218920801329200164900F0E7
:1003A000FBF91648164B984207D2C243D21892085E
:1003B00001329200134900F0EFF91348134B9842B1
:1003C00007D2C243D218920801329200002100F0F5
:1003D000ECF90F480F4B9842D1D2C243D218920881
:1003E00001329200002100F0E0F9C8E7006000202F
:1003F000E0020020E002002000F8051008000020C4
:1004000034000020BC070410C0000020CC020020F3
:10041000CC020020E0020020434B70B51B68002B8B
:1004200003D1424B1B68002B32D03F4B1A68404B24
:100430009A4229D03C4B3E4A1B6893426ED03A4BBD
:100440001B68002B03D1394B1B68013320D0364B7E
:100450001A68374B9A4256D0334B1B68002B04D195
:10046000324B1A68324B9A4234D02F4B1B680133FF
:100470002CD02D4B1B6801334AD02B4B1B6801330A
:1004800001D12A4B1B68FEE7284B1B68002BD1D1FA
:10049000284B294A02E0043393420FD019680131F6
:1004A000F9D03F24254D264B2B6020000134A4B207
:1004B000FFF77AFE7D2CF8D100232B60214B224AD6
:1004C00012681B6883F308889047FEE7174B1B6888
:1004D000002BCED11B4B174A02E00433934210D0BD
:1004E00019680131F9D00124144D154B2B602000FF
:1004F0000134A4B2FFF758FE3F2CF8D100232B6043
:100500000C4B124ADCE7094B1B680133A4D1BFE74F
:10051000064B1A68064B9A42AFD1DBE7034A1268D2
:100520009A428CD1B4E7C0461008041010F80510A8
:10053000AA5555AA00F8051000E80710140000207D
:10054000CCBCECFC000804100408041004F80510EE
:10055000044B054A1B6810B5934202D09B6898472C
:1005600010BDFEE71000002000000410044B054AF7
:100570001B6810B5934202D0DB68984710BDFEE7B8
:100580001000002000000410044B054A1B6810B541
:10059000934202D0DB6A984710BDFEE710000020AE
:1005A00000000410044B054A1B6810B5934202D0AA
:1005B0009B6B984710BDFEE7100000200000041060
:1005C000044B054A1B6810B5934202D0DB6B984779
:1005D00010BDFEE71000002000000410044B054A87
:1005E0001B6810B5934202D01B6C984710BDFEE704
:1005F0001000002000000410044B054A1B6810B5D1
:10060000934202D05B6C984710BDFEE710000020BB
:1006100000000410044B054A1B6810B5934202D039
:100620001B6D984710BDFEE710000020000004106D
:10063000044B054A1B6810B5934202D05B6D984786
:1006400010BDFEE71000002000000410044B054A16
:100650001B6810B5934202D09B6D984710BDFEE712
:100660001000002000000410044B054A1B6810B560
:10067000934202D0DB6D984710BDFEE710000020CA
:1006800000000410044B054A1B6810B5934202D0C9
:100690005B6F984710BDFEE71000002000000410BB
:1006A000044B054A1B6810B5934202D09B6F9847D4
:1006B00010BDFEE71000002000000410044B054AA6
:1006C0001B6810B5934202D0DB6F984710BDFEE760
:1006D0001000002000000410054B064A1B6810B5EE
:1006E000934203D084229B58984710BDFEE7C04632
:1006F0001000002000000410054B064A1B6810B5CE
:10070000934203D088229B58984710BDFEE7C0460D
:100710001000002000000410054B064A1B6810B5AD
:10072000934203D08C229B58984710BDFEE7C046E9
:100730001000002000000410054B064A1B6810B58D
:10074000934203D090229B58984710BDFEE7C046C5
:100750001000002000000410054B064A1B6810B56D
:10076000934203D094229B58984710BDFEE7C046A1
:100770001000002000000410054B064A1B6810B54D
:10078000934203D09C229B58984710BDFEE7C04679
:100790001000002000000410002310B59A4200D180
:1007A00010BDCC5CC4540133F8E7030082189342B7
:0C07B00000D1704719700133F9E7000018
:1007BC000000000000000000000004100000000019
:1007CC00000000000000000000000000000000001D
:0C07DC0000000000000000000000000011
:04000005100403756B
:00000001FF
:020000041004E6
:1008000000600020D11E0410C1210410C321041077
:10081000AA5555AA45554C420000000000000000B2
:10082000000000000000000000000000C5210410CE
:100830000000000000000000351D0410C721041056
:10084000C9210410371D0410000000000000000042
:10085000CB210410391D0410D3210410451D0410B0
:100860000000000000000000000000000000000088
:1008700000000000471D0410491D04104B1D04100A
:10088000000000003B1D04103D1D04103F1D04101E
:10089000411D0410431D0410311D0410331D0410AC
:1008A0000000000000000000000000000000000048
:1008B0000000000000000000000000000000000038
:1008C000EFF31482EFF30981002080F31488BFF363
:1008D0006F8FF0B543464C4655465E466746F8B4C2
:1008E000164CEFF30883236006B4154C2068154CB2
:1008F0002060154C2068154C2060154C2068154C64
:100900002060154C276800202060BFF34F8F30BF58
:1009100027600A4C246884F3088882B003BCF8BCC2
:100920009846A146AA46B346BC46F0BC04BC80F338
:10093000098881F31488BFF36F8F104708000020E7
:1009400004ED00E0AC17002024ED00E0A01700202B
:1009500000E200E0B0170020080020400022430819
:100960008B4274D303098B425FD3030A8B4244D377
:10097000030B8B4228D3030C8B420DD3FF220902B9
:1009800012BA030C8B4202D31212090265D0030B78
:100990008B4219D300E0090AC30B8B4201D3CB036E
:1009A000C01A5241830B8B4201D38B03C01A5241B0
:1009B000430B8B4201D34B03C01A5241030B8B42B2
:1009C00001D30B03C01A5241C30A8B4201D3CB029D
:1009D000C01A5241830A8B4201D38B02C01A524182
:1009E000430A8B4201D34B02C01A5241030A8B4285
:1009F00001D30B02C01A5241CDD2C3098B4201D39D
:100A0000CB01C01A524183098B4201D38B01C01A1A
:100A1000524143098B4201D34B01C01A5241030991
:100A20008B4201D30B01C01A5241C3088B4201D340
:100A3000CB00C01A524183088B4201D38B00C01AED
:100A4000524143088B4201D34B00C01A5241411A14
:100A500000D20146524110467047FFE701B5002021
:100A600000F006F802BDC0460029F7D076E77047CF
:100A70007047C046437802781B021A438378C078D7
:100A80001B041343000618437047C046030A4B700B
:100A9000030C8B70030E0870CB70704703005A78FC
:100AA0000078120202439878197900040243D8783A
:100AB000000610435A7912020A43997909040A433D
:100AC000D979090611437047030A5370030C9370D8
:100AD000030ED3700B0A53710B0C93710B0E107035
:100AE0001171D3717047C0460E4AD3691B061B0FA4
:100AF0004370D9B2D3690C4A1B071B0F83700B4B91
:100B00001B68436093420BD102230370002901D17B
:100B100001234370064B9B8A01339B00836070471F
:100B20000123F2E70000904041A00002280090401D
:100B300000001040F0B5070085B001AC0E002000A9
:100B40001500FFF7D1FF23783B7063783370A378EB
:100B50002B7005B0F0BD10B501F09EFC10BD10B5B6
:100B600001F0B5FC10BD10B501F087FC10BD0320ED
:100B700070470000F0B51B4C1500A5440E91040011
:100B8000EFF31083069372B60022174B1A700EF023
:100B900065FC06002000FFF7EAFF331C864200D9FF
:100BA000031CDAB2A24200D9231CDBB20F4A99001F
:100BB00000938B5801338B50009B002B07D1069B71
:100BC00083F310880020A9239B009D44F0BD009B67
:100BD000012B0FD10021064B1A7A1972D2B230BF05
:100BE0001A72ECE75CFDFFFF0C0000200003002000
:100BF0000000704038226B46E14C9B1825701B7832
:100C00007DA82371FFF770FF237ADE49DBB20A93D8
:100C10008B88DD4A9BB2109313685C91119300237B
:100C20000894059280A91A000598C0329200805855
:100C30009A0001335050082BF5D1D44CD448236886
:100C4000D4491293036AD44F13938023DB051A68A7
:100C5000D24E14925A68D24D15929A681692DA685A
:100C600017921A6918925A6919929A691A92DA694E
:100C70000B92DA6A1B921A6B1C925A6B1D921A8F96
:100C800092B21E925B6CC74A1F93CB6820930B7F76
:100C9000DBB221938B8C9BB22293C34B1B78DBB2CC
:100CA0002393C24B1B78DBB224930B6B2593C04B71
:100CB0001B78DBB226930B8F9BB22793BD4B1B781F
:100CC000DBB22893BC4B9C461B78DBB229933B7864
:100CD000DBB22A933378DBB22B932B78DBB22C93E5
:100CE000B64B1B78DBB22D9313682E9353682F936A
:100CF000137CDBB23093137DDBB23193B04BDB7FDF
:100D0000DBB23293138D9BB23393D36A3493138E39
:100D10000491A5499BB25E91A44935935F91A44982
:100D200000236091A349019261916146A44A6291B6
:100D3000A2495D946397649665950F90669167925A
:100D400069AF6BAE6DAD6FAC9E4A9A189204116894
:100D5000D95151689951918BE950118CE150908C87
:100D600071A9C850108D73A9C850D06A75A9585080
:100D700011004C31088877A9C850106D79A95850D6
:100D8000916D7BAA99500433082BDDD1B0231B064B
:100D90001B688D4C369363688C4A3793A3688C4DDF
:100DA0003893238A9BB23993A38A9BB23A93A3695F
:100DB0003B93237FDBB23C93238E9BB23D93636BCB
:100DC0003E93A36B3F93E36B4093236C4193636C1F
:100DD0004293A36C439393889BB2449313899BB231
:100DE0004593137CDBB24693137DDBB24793138BA1
:100DF0009BB24893137FDBB24993764B998889B2B3
:100E00004A91198989B24B91197CC9B24C91197DCB
:100E1000C9B24D91198B89B24E91197FC9B24F91C8
:100E20006D49086850904868519028685290287A17
:100E3000C0B25390C0200001285809950393029234
:100E40000D000023002800D1644B90AA0D93944616
:100E5000002388A898A9052266465A43604FD219F4
:100E600057689F5117681F5097685F50D768A0AAAE
:100E70009F500433202BEED18123DB055A68549216
:100E80001A7BD2B255925A8B92B256921A8B92B268
:100E900057925A6A58929A6A1B8859929BB25A93EF
:100EA000C0231B069B685B93009B032B06D19022FB
:100EB000C023D20551689B050B435360494B4A4AF6
:100EC0001B680793503B0C9300230C99C9180968C1
:100ED000D1500433502BF8D1444B079A1A607DAAA5
:100EE000537892781B011343112B04DD0020404BF3
:100EF000186000F075FF9023DB055A683D4B1A60BF
:100F0000089B1E791A788023DB051B685B0A534017
:100F10009E4300D053E6012000F0AEFDFFF7D0FC69
:100F2000300000F0A9FD344B1B78002B00D0A1E06D
:100F300032494B685B0675D4314B32484A680068C9
:100F40005C6A844216D1304849680068884204D0FF
:100F500005994240096811420CD12C4A596812681F
:100F60005140C90006D45B685A4053015AD52B68DA
:100F70009B0757D5264A274813681B09D91C4BE005
:100F8000000020400000104000E100E020ED00E003
:100F90000000904000003040540030405800304085
:100FA0005C00304000004040280030402C003040C1
:100FB0003400304048003040500030406000304045
:100FC00005004040281000000000F0400000D04024
:100FD000000070400000E04010E000E051E5CC1A55
:100FE000080000A000080410501700204C17002033
:100FF00014000020180000200C000020FCE100E09C
:1010000000ED00E0A0170020B0170020AC17002072
:1010100010000048FFFF0F0081421BD813681B0916
:101020009942FBD87DAA537892781B011343112B68
:1010300005DD012000F0D4FE0A4A0B4B1A60009B2C
:10104000032B00D0BBE59022D205536807490B4023
:101050005360B4E506495B18116809099942FBD150
:10106000E0E7C046CCBCECFC14000020FFFFFFCF43
:101070000400F0FF0122E74F3A83E74ABE813E6158
:101080000C9B91599B1904361960502EF8D1079A80
:10109000E24B40211A606A4652185C9B128880A875
:1010A0009A80059B119A1A6000239A0011581A0021
:1010B000059EC03292000133B150082BF5D15D9BE3
:1010C000129A78211A600F9B139A6DAE1A628023D0
:1010D000149ADB051A60159A5A60169A9A60179A44
:1010E000DA601A9A9A61199A5A61189A1A610B9AD7
:1010F0009A620B9ADA611B9ADA621C9A1A631D9A39
:101100005A636A46521812880C311A871F9A5A6419
:10111000049B209ADA606A465218049B12780431C4
:101120001A776A465218049B128804319A846A46D8
:1011300052185E9B127804311A706A4652185F9BEF
:10114000127808311A70049B259A1A636A4652185D
:10115000609B127804311A706A465218049B1288F8
:1011600004311A876A465218619B127804311A704A
:101170006A4652181278629B04311A706A465218F5
:10118000639B127804311A706A465218649B127875
:1011900004311A706A465218659B127804311A702D
:1011A0006A465218669B12780C311A70019B2E9A6F
:1011B0001A60019B2F9A5A606A465218019B127856
:1011C00004311A746A465218019B127804311A7558
:1011D0006A465218679B12780431DA776A465218C9
:1011E000019B128808311A85019B349ADA626A469B
:1011F0005218019B12881A86002369AA94466FAA86
:10120000049261460C20864A59589A18920411603B
:1012100068A90918C95851600191995B9183049993
:10122000595A118471A9595889B2918473A959588E
:1012300089B2118575A95958D16277A9595888B2D0
:1012400011004C31088079A9595811657BA959586A
:1012500004339165082BD4D1B023369A1B061A604B
:10126000519B509A6B600023AB602A60379AE4214F
:101270006260389A8820A2606A4652181288043147
:1012800022826A46521812880831A2823B9A400094
:10129000A2616A4652181278043122773E9A0526D6
:1012A00062633F9A90ADA263409AE263419A2264DE
:1012B000429A6264439AA2646A4652186946128846
:1012C00009182286029A0988043091806946091813
:1012D000029A09880430118169460918029A09782E
:1012E0000430117469460918029A0978922411751C
:1012F0004021489A02988A43028368466400001994
:10130000029A00780434107768460019039A00881E
:101310000434908068460019039A008804341081D0
:1013200068460019039A007804341074684600195E
:10133000039A007888AC10754E9A9E208A430399D0
:1013400040000A8369460918039A0978103011771A
:10135000099A5299116069460918099A0978117217
:10136000C0220D9809991201885098A832005A435A
:101370002C495218595951601959116019589160E6
:10138000A0A959580433D160202BEFD18123549A5E
:10139000DB05AA215A606A464900521812780431C6
:1013A0001A736A465218128804315A836A465218D0
:1013B00012880C311A83589A5A62599A9A626A466C
:1013C000521812881A80C0235B9A1B069A600F9BE2
:1013D0001B7A002B49D13B89082B46D93B89812BAD
:1013E00043D80E9B002B40D009223B8913409342E7
:1013F00004D18023DB05DB699B0533D411223B89B3
:101400001340934210D18023DB05DB695B0529D4AF
:101410000AE0C04600001048501700204C1700207A
:1014200028100000080000A021223B8913409342AD
:1014300004D18023DB05DB691B0513D441223B89E2
:101440001340934204D18023DB05DB69DB0409D41C
:1014500081223B891340934207D18023DB05DB695E
:101460009B0402D50122214B5A60009B032B05D11E
:101470009022D20553681E490B4053606A462821CA
:101480005218089B12781A72009B032B2BD1002054
:10149000273900F063FD0A9BDB0701D4FFF78FFBC0
:1014A00000F05CF968ABD87003331B780B2B15D0B8
:1014B000104B1B881B0711D590220F4BD2051169C9
:1014C0001B685B1A1B021B12D9175B184B40202BA1
:1014D00004DC13692D3311698B42FCD21522074BB2
:1014E0001A70FFF76CFB00210800D2E7FCE100E076
:1014F000FFFFFFCFC0000020180000200000C04008
:101500002D4B1A7A002A24D12C4A1189082920D976
:10151000118981291DD8092011890140083809291C
:1015200048D01189103001400F38112942D011895B
:101530001F3001401D3821293CD011893D30014028
:101540003938412936D08121128908300A408A422F
:1015500030D01A7A002A07D10221184AFF311289A5
:1015600020200A408A4225D01A7A002A06D1134A3E
:101570001349128940200A408A421BD01A7A002A55
:1015800006D105210D4AF12012890A408A4211D064
:101590001A7A002A05D1094AF0201289D24392070B
:1015A00008D01A7AF220022A04D01B7A0130042BC8
:1015B00000D00C307047C04600009040000010483A
:1015C00001040000024A138ADB07FCD57047C046BD
:1015D00000001040084B10B51A68084B9A4209D118
:1015E0003F22074B40061A81000C2E3A98611A8060
:1015F000FFF7E8FF10BDC04614000020CCBCECFC97
:1016000000001040084B10B51A68084B9A4209D1E7
:101610003F22074B80081A810C3A986119641A809E
:10162000FFF7D0FF10BDC04614000020CCBCECFC7E
:1016300000001040F7B5019001790468002931D10C
:101640008022D2055368A3435360019B20251E6866
:10165000802300226D42DB0534000120D440044287
:101660000BD0D4B2072A26D897000E30B840DC6AD7
:1016700084430800B8400443DC62013204351A2A6E
:10168000EAD1019B5A798023DB05012A3AD1DA6835
:101690003243DA60019A9279012A36D19A68164368
:1016A0009E60F7BD0629D0D18022D2055368002163
:1016B00023435360C9E72700083F072F08D80F27A7
:1016C000AF401C6BBC430F00AF403C431C63D4E7EE
:1016D000103C072C0AD82F000F20203FB8405C6B2D
:1016E00084430800B84004435C63C6E72F000F2022
:1016F000403FB8401C8F84430800B8400443A4B264
:101700001C87BAE7DA68B243C3E79A68B2439A60C3
:10171000C7E78023DB05012901D1D863704718642E
:10172000FCE78022D2051368584010607047C02340
:1017300080211B061A680A431A601A688A431A60D5
:1017400070470000044B1A6A012902D11043186245
:10175000704782431A62FBE700009040244B1A7ADC
:10176000244BD2B21B899BB2002A36D11A00093A07
:10177000782A19D809211A0006200A408A422BD05B
:10178000112201301A40112A26D0212201301A409C
:10179000212A21D0412208001A40412A1CD081224E
:1017A00001301A40812A17D002221900FF3211405D
:1017B0000B20914210D019000F4A01301140914284
:1017C0000AD01A0007380240824205D00238184079
:1017D000033843425841800070470120022AFBD061
:1017E0000018042AF8D00020082AF5D10330F3E7C6
:1017F000000090400000104801040000054B012249
:10180000196B002802D00A431A6370479143196389
:10181000FBE7C04600003040F8B54A4C0500236B9A
:1018200001681B0700D56DE009014748FFF796F8EE
:10183000C3099AB2A284454ADB0101301340C01AA1
:10184000400880B23F2802D93F233F381840032781
:1018500060263F4BC0B218703E4B2A7918783A4048
:101860005201B0431043187001206979227F39403A
:101870004901B2430A432277AA7919780240BA4053
:101880000730814311431970217F81430A43227736
:10189000EA79002A38D102211A788A431A70227F05
:1018A0008A43012022772A7A216B1600C2402A4FF0
:1018B00006407602394031432163216B274E0240B6
:1018C000314012020A432263697A226B0E00C14042
:1018D000234F06403A40B60332432263226B214E27
:1018E00001403240C90311432163AA7A19780240AA
:1018F0000F301201814311431970237F83431A4330
:101900002277F8BDC90090E7022A0CD1042019788B
:1019100011431970197881431970217F0A43227786
:10192000227F8243BDE702211A780A431A700422FB
:10193000187810431870207F01432177217F0A43D4
:10194000AFE7C046000030400000127A80FF7F0001
:10195000280030402C003040FFFDFFFFFFFEFFFF5E
:10196000FFBFFFFFFF7FFFFF044B1A8F002902D04C
:1019700010431887704782431A87FBE70000304006
:10198000024BC005C00D18807047C04600003040B3
:10199000014B1888C0B2704700003040054B00284A
:1019A00005DA5B681840431E9841C0B270471B8B34
:1019B000F8E7C04600003040034B9B8F1840431EA1
:1019C0009841C0B27047C046000030400722024034
:1019D00038200449D2000B78834318001043087064
:1019E0007047C04634003040F0B583780178002B52
:1019F00033D040784AB28001002A1BDA0F230B4013
:101A0000083B1B4A9B089B009B18FF2203251700DD
:101A10000D40ED00AF400240AA40DE69BE433243B4
:101A2000DA611F224B0911401E3A8A4011499B007E
:101A3000CA50F0BDFF270F4B92089200D218032323
:101A40003C00C0250B40DB009C4038409840AD0076
:101A50005659A64330435051E3E71F234A090B4030
:101A6000012199401300034A20339B00D150E0E745
:101A700000ED00E000E100E0054B042219690028B8
:101A800002D00A431A61704791431961FBE7C046CF
:101A900000ED00E010B504002020FFF77FFF0128D3
:101AA000FAD0A0B2FFF76CFF10BDF0B5012187B0EE
:101AB00006000920FFF746FE80230024012501AF20
:101AC0005B00380001933D71BC717C71FFF7B2FD82
:101AD000802338001B0101933D71FFF7ABFD032309
:101AE00003A80371437103728471C47144728572D7
:101AF0000396FFF791FE2000FFF768FF2800FFF72D
:101B00007DFE07B0F0BD042313B5040001A80370E7
:101B1000013B43708470FFF767FF21001020FFF73F
:101B200023FF13BD094B10B51860E1204002FFF7F9
:101B3000BCFF0120FFF7E7FF054B022218680023D6
:101B40008068190000F050FD10BDC0461003002051
:101B500004180020034B10B51B68002B00D09847D9
:101B600010BDC0461003002007B51020FFF724FF6A
:101B7000002809D107BDFFF70BFF6B46D87107336B
:101B800001211800FFF7E6FF1020FFF707FF0028EC
:101B9000F1D0EFE710B50820FFF700FF013843420E
:101BA0005841C0B210BD0000064A07491368C85426
:101BB00080210133C9008B4201D01360704700239C
:101BC000FBE7C046140700201403002001000A4A66
:101BD0000A4810B51368046801209C4209D00848DF
:101BE000C05C0133087080210020C9008B4201D005
:101BF000136010BD1060FCE71807002014070020D8
:101C00001403002070B504004518AC4200D170BD2B
:101C10002078FFF7C9FF0134F7E700000B4A10B541
:101C200013680B49002B00D11160802413686401F4
:101C300018180919884205D90C220120054B404289
:101C40001A6010BD10601800FBE7C0461C1700208A
:101C50001C070020B4170020012040427047802359
:101C60009B0100204B6070470120704700207047A7
:101C700070B50E0015000C00A31B9D4201DC28006E
:101C800070BD2078FFF706FF0134F5E770B50E0050
:101C900015000024AC4208D23019FFF797FF002846
:101CA00001D10134F6E7002CF4D0200070BD10B54E
:101CB000FFF78CFF43425841C0B210BD10B500F091
:101CC000EBFB10BD0222014B1A7070472017002059
:101CD000012804D00123022803D0082301E0802337
:101CE000DB011800704710B5FFF7F2FF0121FFF785
:101CF00010FD10BD13B5012104000800FFF722FDFF
:101D00002000FFF7E5FF6A460623137100230090C9
:101D10009371684601335371FFF78CFC2000FFF785
:101D2000E2FF13BD10B5FFF7D3FFFFF7FAFC10BDBC
:101D300070477047704770477047704770477047EB
:101D4000704770477047704770477047002210B562
:101D5000104B995CC9B2002917D11C2A14DC02204F
:101D600021249854501C1C54901C193C1C54D01C09
:101D700019549B18802290219BB252021343C9052B
:101D8000CB60CB681342FCD110BD995C0131521875
:101D9000D2B2DEE721170020002330B50E4AD15C15
:101DA000C9B2002913D11C2B08DC02243525D454D8
:101DB0005C1C15559C1C03331055D1540222074B53
:101DC0001A7033325A7000229870DA7030BDD15CCC
:101DD00001315B18DBB2E2E721170020A4170020D5
:101DE00010B5104B00280AD0802290219BB25202DD
:101DF0001343C905CB60CB681342FCD110BD04214D
:101E000098789A789CB28A439A70802290215202E4
:101E10001443C905C0B2CC60CC681442FCD19870A0
:101E2000ECE7C046A4170020012330B5234A032461
:101E3000117A85B00B4313720022214B1A60FFF711
:101E40008DFC6B46033318701A78002A03D1013CCD
:101E5000E4B2002CF3D11A78052A2BD91B780B2B6E
:101E600010D001AC2000FEF73FFE6278A37812018B
:101E70001A43144B1B681B070AD4112A02DD0120E8
:101E8000FFF7AEFF0122104B1A70FEF742FDFEE78E
:101E900090250E4CED0528692368283B1B1A1B0270
:101EA000002BEFDD112A02DD0120FFF799FF2368E7
:101EB0006B60E7E7012005B030BDC0460000204060
:101EC00014000020C00000200C000020180000209A
:101ED00070B5FFF7A9FF012817D100231448154951
:101EE000154C1A188A4216D3002314481449154C6D
:101EF0001A188A4213D30021134B144A934212D367
:101F00000021134B134A93420FD3134B83F30888DA
:101F100000F044FA70BDE55804331560E1E7E55878
:101F200004331560E4E702C3E8E702C3EBE7C04609
:101F3000B817002068180020C4FD04100800002015
:101F40003400002098FD0410C0000020CC020020C6
:101F5000CC020020B81700200060002070B58AB0C5
:101F600003AC05000E0019224349200000F094FA4A
:101F70006846FEF7B9FD002D60D044233F4AA373A5
:101F8000117A433B0B4313724C23E3722C3B2372B5
:101F900092336374573B2375394B3A4A1B68190CCB
:101FA000914208D17020E17D1B018143E175E17D03
:101FB00003400B43E375344B1B68190C914208D165
:101FC000302061791B0181436171617903400B43CA
:101FD00063712E4B1B68190C914207D10321E27DDE
:101FE0000B408A43E275E27D1343E3750422E37AF2
:101FF00069469343E3726B465B78897893400B4361
:10200000112B06DDE37D1A43E275E07DC0B2FFF7D8
:10201000C3FE802390222404240C5B021C43D205BF
:10202000D460D1681942FCD16B466A465B789278DD
:102030001B011343112B01DDFFF788FE144B1A8B94
:10204000002AFCD001221A8316329A8100221A61DA
:10205000964207D090231021DB0518691A69424087
:102060000A42FBD0002D02D015220A4B1A700A4AF0
:102070000A4B1A600AB070BDB4F80410000020408A
:10208000E807001055AA0000E4070010B007001090
:10209000000010480000C040CCBCECFC1400002044
:1020A0000822C021F8B53F4B3F4D9A803F4A0904B2
:1020B000136AFF202B400B43C0211362136A0906E9
:1020C0001B021B0A0B431362C02292009446384B3A
:1020D00064469A58374E82433F38024360461A504E
:1020E0001A58C0203240000202431A51C122FF2771
:1020F00092009C58BC433F3F3C439C509C583F3708
:10210000344004439C509C582C409C509C582402C2
:10211000240A0C439C500832944664469A58324034
:1021200002431A511A59C0242A4024042243644607
:102130001A511A591202120A0A431A51C422920061
:10214000944664469A58324002431A511A59C024A0
:102150002A402404224364461A511A591202120AD0
:102160000A431A51C52292009C58BC432700C02440
:102170002743C0249F509F5824043E40304398502A
:10218000985805402C439C5098580002000A01437F
:10219000995001210800FFF7E1FE074A074B1A6238
:1021A00062B6F8BD00001040FFFF00FF00ED00E048
:1021B00000E100E0FF00FFFF66000E00000090401D
:1021C0007047FEE770477047704710B5FFF7CCFCCB
:1021D00010BD10B503F018FF10BD000010B50C487D
:1021E00000F0F8F90B4800F0F5F90B4800F0F2F9AF
:1021F0000A4800F0EFF90A4800F0ECF9094800F04D
:10220000E9F9094800F0E6F9084800F069F910BD5D
:1022100057FA041004F9041034F9041072F9041088
:1022200087F90410A7F90410C1F90410DEF90410AD
:1022300010B51D4800F054F9FFF762F9202829D0A5
:102240000ED8042822D005D8012819D002281BD086
:10225000164816E008281BD01028F9D1144810E0C1
:10226000F1281BD005D8402816D0F028F0D111480D
:1022700007E0F32816D013D3FF28E9D10E4800E079
:102280000E4800F0A7F910BD0D48FAE70D48F8E731
:102290000D48F6E70D48F4E70D48F2E70D48F0E782
:1022A0000D48EEE70D48ECE76AFA0410E8FA04106E
:1022B00096FA0410B9FA0410D7FA04107BFA041045
:1022C00081FA041088FA04108FFA04109DFA0410A1
:1022D000ABFA0410BEFA0410C3FA0410D2FA0410C8
:1022E000042370B50C4C0D4D237000230C482B704B
:1022F00000F070F9FFF74EFC0128FBD021782A7816
:102300000320FEF737FC011E03D0064800F0E8F872
:10231000FEE7FFF78DFF70BD421700204117002038
:10232000F8FA041020FB041070B504230026154CA5
:10233000154D164823702E7000F04CF914493000EA
:1023400003F019F9C3B2B34204D0C1B2114800F08E
:10235000C7F8FEE701F016F9FFF71CFC0128FBD0D7
:1023600021782A780220FEF705FC041E04D0010023
:10237000094800F0B5F8FEE7FFF75AFF200003F028
:1023800014F970BD42170020411700203FFB0410D4
:102390008813000067FB041020FB041013B5FFF73F
:1023A0007FFEFFF78FFC2948FFF7BCFB0020FFF7FB
:1023B000A1FC0120FFF79EFC0220FFF79BFC002000
:1023C000FFF791FC224801F021F9011E03D02148BA
:1023D00000F086F8FEE7204800F0FCF81F4800F007
:1023E000F9F801F0CFF86B46DC1D2000FFF75FFC29
:1023F0000028F6D023786C2B19D007D80D2BF0D0FD
:102400003F2B18D00A2BECD01548E8E7722B15D0DB
:1024100003D81448702BE2D0F6E7732B04D0742B4A
:10242000F2D1FFF781FFDCE7FFF75AFFD9E7002081
:10243000FFF778FCD5E7FFF7D1FED2E7BFF34F8F68
:10244000094A0A4BDA60BFF34F8FFEE7051C041000
:10245000D0F80410E3F9041018FA041024FA041058
:1024600059FA041042FA04100400FA0500ED00E0E5
:10247000704710B500F019F810BD30B50024A24225
:1024800001D1002005E0035D651C0C5DA34201D075
:10249000181B30BD2C00F2E7002310B59A4200D182
:1024A00010BDCC5CC4540133F8E710B5884202D9A2
:1024B0008B18984208D300239A4207D0CC5CC454AE
:1024C0000133F9E78B5C8354013AFBD210BD030062
:1024D0008218934200D1704719700133F9E7000068
:1024E0000FB40B4B13B51C68002C05D0A369002B4F
:1024F00002D1200000F0E8FA05AB049AA1682000A0
:10250000019300F0BDFC16BC08BC04B01847C046DF
:102510000418002070B505000E00002804D083695F
:10252000002B01D100F0D0FAAB69AC68002B02D1CE
:10253000280000F0C9FA244B9C420FD16C68A38993
:102540001B0702D52369002B20D12100280000F0B1
:102550004DF900281AD00120404270BD1B4B9C420F
:1025600001D1AC68EBE71A4B9C42E8D1EC68E6E796
:10257000013B0136A360002B04DAA269934216DB0B
:102580000A2914D023685A1C226019703178A36874
:102590000029EDD1013BA360002B0FDA22000A31A4
:1025A000280000F0CDF8431CD5D00A20D5E7220042
:1025B000280000F0C5F8431CE8D1CCE70A202368C6
:1025C0005A1C22601870C8E7B0FB0410D0FB04103E
:1025D00090FB041010B5034B01001868FFF79AFF39
:1025E00010BDC04604180020F0B51D004F4B85B04B
:1025F0001E6804000F000092002E05D0B369002B66
:1026000002D1300000F060FA494B9C4250D174680E
:10261000009B022B05D0012B00D984E0002D00DAAD
:1026200081E02100300000F0E1F9616B002908D061
:1026300023004433994202D0300000F051FB0023C4
:1026400063630023A3616360A3891B0603D521692B
:10265000300000F045FBA389364A1340A381009B5C
:10266000022B5AD003AB02AA2100300000F0C2FABC
:10267000A3891843A081002D24D1029D280000F0D9
:1026800025FB0195071E42D1029B0193AB4239D134
:10269000012040420223A2891343A3810023A360A7
:1026A00023004733236023610123636105B0F0BD3C
:1026B000214B9C4201D1B468AAE7204B9C42A7D190
:1026C000F468A5E7002FD9D0B369002B02D1300000
:1026D00000F0FAF9009B012B03D1A389009A1A4359
:1026E000A2810820A389276027616561184018D05E
:1026F000012018400023984211D06D42A360A561CB
:102700001800D3E7019800F0E1FA071EC0D080233B
:10271000A289019D1343A381D6E70020BAE7A560F3
:10272000C4E7A060C2E701204042BFE704180020D0
:10273000B0FB04105CF3FFFFD0FB041090FB04100F
:10274000F8B505000E001400002804D08369002BA2
:1027500001D100F0B9F9224B9C422DD16C68A369DC
:10276000A360A3891B0731D52369002B2ED02368D2
:102770002269F7B2981A6369F6B2984205DB210024
:10278000280000F033F9002826D1A3680130013B6E
:10279000A36023685A1C22601F706369984204D0AA
:1027A000A389DB071AD50A2E18D12100280000F0D2
:1027B0001DF9002812D00FE00A4B9C4201D1AC68F1
:1027C000CDE7094B9C42CAD1EC68C8E7210028003C
:1027D00000F00CF80028CAD0012676423000F8BD7F
:1027E000B0FB0410D0FB041090FB0410364B70B506
:1027F0001D6806000C00002D05D0AB69002B02D12E
:10280000280000F061F9314B9C420FD16C680C2319
:10281000E25E93B219072DD4D90611D40923012001
:10282000336037331343A381404270BD284B9C4231
:1028300001D1AC68EBE7274B9C42E8D1EC68E6E7B6
:102840005B0713D5616B002908D0230044339942FC
:1028500002D0300000F044FA002363632422A389ED
:102860009343A38100236360236923600823A28923
:102870001343A3812369002B0BD1A0218022A389BC
:10288000890092000B40934203D02100300000F0F9
:10289000D9F90123A289134011D00023A3606369F1
:1028A0005B42A361002023698342BED10C23E25E18
:1028B0001306BAD540231343A3810138B5E7920725
:1028C00000D46369A360EDE704180020B0FB041096
:1028D000D0FB041090FB0410F7B58A8905000C00AA
:1028E000130760D44B68002B04DC0B6C002B01DC5D
:1028F0000020FEBDE76A002FFAD000232E682B606F
:1029000080235B011A4034D0606DA3895B0706D534
:102910006368C01A636B002B01D0236CC01A0200DD
:10292000216A00232800E76AB847A189431C06D121
:102930002B681D2B31D82C4ADA40D3072DD5002324
:10294000636023692360CB0405D5431C02D12B6847
:10295000002B00D16065616B2E600029C8D0230078
:102960004433994202D0280000F0BAF90020606395
:10297000BFE70123216A2800B847431CC5D12B6853
:10298000002BC2D01D2B01D0162B01D12E60AFE73A
:102990004023A2891343A381ABE740230B430120CB
:1029A000A3814042A5E70F69002FA1D00B680F60FB
:1029B000DB1B01930023920700D14B69A360019BAD
:1029C000002B00DC94E7019B3A00216A2800A66AEC
:1029D000B047002803DC4023A2891343DFE7019BB3
:1029E0003F181B1A0193EAE7010040200B6970B5FC
:1029F00005000C00002B01D1002070BD002804D080
:102A00008369002B01D100F05FF80B4B9C4209D188
:102A10006C680C22A35E002BEED021002800FFF78B
:102A20005BFFEAE7054B9C4201D1AC68F1E7044B40
:102A30009C42EED1EC68ECE7B0FB0410D0FB041034
:102A400090FB041010B5024900F0B2F810BDC0466A
:102A5000ED290410002310B5040003604360836077
:102A600081814366C2810361436183611900082249
:102A70005C30FFF72CFD054B24626362044BA362BC
:102A8000044BE362044B236310BDC046ED330410D6
:102A9000153404104D3404107934041070B56825D1
:102AA0004A1E55430E002900743100F063F9041EDC
:102AB00008D000212A00016046600C30A060683216
:102AC000FFF705FD200070BD836913B50400002BDE
:102AD00028D18364C3640365134B144A1B68826264
:102AE0000193984201D101238361200000F020F876
:102AF0006060200000F01CF8A060200000F018F8D2
:102B00000022E06004216068FFF7A4FF0122092190
:102B1000A068FFF79FFF02221221E068FFF79AFFEB
:102B20000123A36113BDC0468CFB0410452A041089
:102B3000F8B51E4B07001E68B369002B02D13000A8
:102B4000FFF7C2FF4836B4687368013B04D53368A9
:102B5000002B07D03668F6E70C22A55E002D0DD0BD
:102B60006834F2E704213800FFF798FF306000284E
:102B7000F0D10C2304003B602000F8BD01232000AD
:102B80005B42E3810233A38165662560A5606560D1
:102B900025616561A561082229005C30FFF797FC7B
:102BA0006563A563A564E564E6E7C0468CFB041095
:102BB000F7B504000700002601914834002C01D12C
:102BC0003000FEBD6368A5680093009B013B009345
:102BD00001D52468F2E7AB89012B08D90E22AB5E40
:102BE000013304D029003800019B9847064368351B
:102BF000EBE7000070B50E001D000E23C95E90B01B
:102C00001400002907DA00232B60B3891B0611D4B6
:102C10008023DB000FE001AA00F05AFC0028F2DB61
:102C2000F022029B12021340054A9B185A4253415C
:102C30002B60EDE740230020236010B070BDC0463C
:102C400000E0FFFFF7B502268B8905000C00334238
:102C500006D0230047332360236101236361F7BD5E
:102C600001AB6A46FFF7C6FF00990700280000F095
:102C700081F8002808D10C22A35E9A05EFD4032224
:102C800093431E43A681E4E70F4BAB628023A289E6
:102C900020601343A381009B20616361019B002B93
:102CA0000DD00E23E15E280000F024FC002806D0A1
:102CB0000322A38993431A0001231343A381A0890C
:102CC0003843A081CBE7C046452A041010B5034B1A
:102CD0000100186800F04EF810BDC046041800202E
:102CE00070B50500002910D00C1F2368002B00DAF6
:102CF000E418280000F02FFC1D4A1368002B05D1B2
:102D000063601460280000F027FC70BDA34209D95D
:102D1000216860188342F3D118685B68411821600C
:102D2000EEE713005A68002A01D0A242F9D91968C7
:102D30005818A0420BD1206809185818196082420F
:102D4000E0D110685268411819605A60DAE7A04271
:102D500002D90C232B60D5E721686018824203D189
:102D6000106852684118216062605C60CAE7C04622
:102D700044170020032370B5CD1C9D430835060081
:102D80000C2D1ED20C25A9421DD8300000F0E3FB0B
:102D9000254A14682100002919D1244C2368002BEE
:102DA00003D1300000F010FB20602900300000F05B
:102DB0000BFB431C2CD10C233000336000F0CCFB08
:102DC00003E0002DDFDA0C233360002070BD0B68B8
:102DD0005B1B1AD40B2B03D90B60CC18256003E0C6
:102DE0008C420ED163681360300000F0B5FB200008
:102DF00007220B30231D9043C31AE7D05A42E250FA
:102E0000E4E74B6863600C00EEE70C004968C2E73A
:102E10000323C41C9C43A042E0D0211A300000F0E0
:102E2000D3FA431CDAD1C6E7441700204817002024
:102E3000936810B5013B9360002B05DA9469A342B7
:102E400008DBCBB20A2B05D01368581C1060197030
:102E5000C8B210BDFFF774FCFBE7F8B506000F0021
:102E60001400D518AC4201D1002007E021783A00C7
:102E70003000FFF7DDFF0134431CF3D1F8BD000043
:102E8000F0B59FB006000F0014000593002804D091
:102E90008369002B01D1FFF717FE7F4B9F425CD166
:102EA0007768BB891B0762D53B69002B5FD0002385
:102EB00006AD6B6120336B761033AB760294029CC7
:102EC0002378002B5DD1029BE31A04930DD0049B61
:102ED000029A39003000FFF7C0FF431C00D1CCE05C
:102EE0006A69049B944663446B612378002B00D18C
:102EF000C3E00122002352426A6002A954325218F0
:102F000001342B60EB60AB601370AB652178052258
:102F1000624800F015FB631C9C46002835D12968E7
:102F2000CB0604D5532302AA20309B1818700B0738
:102F300004D553232B2002AA9B18187023782A2B20
:102F40002CD000200A21099B2278303A092A00D887
:102F50006BE000282AD0099328E0514B9F4201D111
:102F6000B7689EE74F4B9F429BD1F76899E73900BE
:102F70003000FFF73BFC002899D0012040421FB0F1
:102F8000F0BD252B9FD001349AE7444B2968C01A25
:102F9000012383400B432B606446B7E7059B181D54
:102FA0001B680590002B3ADB0993644623782E2B8F
:102FB0000BD16378621C2A2B3FD1059B02341A1D6A
:102FC0001B680592002B35DB0793217803223648D6
:102FD00000F0B6FA002807D0334B2A68C01A402305
:102FE000834013432B6001342178631C06222F4851
:102FF0000293297600F0A4FA002844D02C4B002B31
:103000002FD12968059B0722C90528D59B18934312
:10301000083305936B69039A9B186B614FE75B421A
:10302000EB6002230B432B60BFE74B4301349B183B
:10303000012089E701235B42C6E7002314000A2030
:103040001A006B6021783039092903D9002BBCD0D4
:103050000792BAE74243013452180123F2E70733DB
:10306000D5E705AB00933A00124B2900300000E091
:1030700000BF0390039B0133CCD1BB895B0600D515
:103080007BE70B987BE705AB00933A00094B2900DF
:10309000300000F07FF8ECE7B0FB0410F0FB041008
:1030A000D0FB041090FB0410F6FB0410FAFB041094
:1030B000000000005B2E0410F7B5150001938A682C
:1030C0000B6900900C00934200DA130022002B6081
:1030D00043321278002A01D001332B6023689B060B
:1030E00002D52B6802332B60062723681F4027D0A8
:1030F000230043331B785A1E93412268920630D432
:103100002200019943320098089EB047431C25D005
:10311000062320682A68E16803400025042B03D1B8
:103120008D1AEB43DB171D40A3682269934201DD32
:103130009B1AED180027BD4220D1002010E0013776
:10314000E3682A689B1A9F42D2DA220001231932CF
:1031500001990098089EB047431CF0D101204042DD
:10316000FEBD3020E1184331087021005A1C453162
:103170000978A218433202331170C1E722000123FB
:103180001A3201990098089EB047431CE6D00137D7
:10319000D1E70000F0B58BB006920A0043320793E6
:1031A000059004920A7E0C00109B6E2A00D18FE0DD
:1031B00017D8632A2CD008D8002A00D199E0582AC1
:1031C00054D026004236327029E0642A01D0692AA0
:1031D000F7D121681A68080623D5111D19601568F2
:1031E00025E0732A00D188E008D86F2A29D0702AF8
:1031F000E7D1202209680A43226003E0752A20D023
:10320000782ADED122007821453211706C4A30E0F4
:103210000E001A684236111D1960136833700123BD
:1032200079E04906D9D5111D19600023D55E002D1E
:1032300003DA2D23049A6D421370624B0A2703931D
:103240002FE020681968050603D5081D18600D6871
:1032500005E04006F9D50D68081D1860ADB2594B60
:10326000082703936F2A18D00A2716E045310A7001
:10327000544A03921A682168101D186015680806E0
:1032800022D5CB0702D52023194321601027002D1A
:1032900003D1202322689A43226023000022433373
:1032A0001A706368A360002B5CDB042221689143E1
:1032B0002160002D58D1049E002B64D02600039B72
:1032C00042361B7833705EE04806DAD5ADB2D8E7F7
:1032D00009681A68080605D5111D19601368626926
:1032E0001A6006E04906F7D5111D19601368A28A15
:1032F0001A800023049E236154E01A68111D19608E
:10330000166800216268300000F01AF9002801D028
:10331000801B6060636823610023049A137041E09E
:103320002369320006990598079DA847431C43D09E
:10333000236800259B070FD4099BE06898423DDA7B
:1033400018003BE022000123193206990598079ED8
:10335000B047431C30D00135E368099A9B1A9D425F
:10336000F0DBE9E7002DA9D0049E28003900FDF725
:103370007BFB039B013E5B5C280033703900FDF74B
:10338000EDFA051EF1D1082F09D12368DB0706D518
:1033900063682269934202DC3023013E3370049B50
:1033A0009B1B2361079B09AA00932100069B05989C
:1033B000FFF782FE431CB3D1012040420BB0F0BDA9
:1033C00012FC041001FC0410002370B5064C05002B
:1033D00008002360FEF722FC431C03D12368002B66
:1033E00000D02B6070BDC046B417002070B50C0033
:1033F0000E25495F00F0B2F8002803DB636D1B184F
:10340000636570BDA389024A1340A381F9E7C046F2
:10341000FFEFFFFFF8B51F008B8905000C001600B9
:10342000DB0505D50E23C95E0022022300F074F8E7
:10343000A389054A28001340A38132000E23E15ED0
:103440003B0000F01FF8F8BDFFEFFFFF70B50C0068
:103450000E25495F00F060F8A389421C03D1054A9C
:103460001340A38170BD802252011343A381606584
:10347000F8E7C046FFEFFFFF10B50E23C95E00F06E
:1034800015F810BD70B50500080011000022064CAB
:1034900022601A00FEF7ECFB431C03D12368002BCB
:1034A00000D02B6070BDC046B4170020002370B55B
:1034B000064C050008002360FEF7CEFB431C03D139
:1034C0002368002B00D02B6070BDC046B4170020CD
:1034D000002370B5064C0500080011002360FEF7BC
:1034E000BEFB431C03D12368002B00D02B6070BDB2
:1034F000B4170020002370B5064C050008002360B7
:10350000FEF7B2FB431C03D12368002B00D02B60D5
:1035100070BDC046B417002070B50500080011004A
:103520000022064C22601A00FEF7A0FB431C03D1C8
:103530002368002B00D02B6070BDC046B41700205C
:10354000C9B28218904201D10020704703788B42A3
:10355000FBD00130F6E770477047000070B50500FA
:10356000080011000022064C22601A00FEF78EFBB4
:10357000431C03D12368002B00D02B6070BDC046D4
:10358000B417002010B502F0A5F81E4C47212068A2
:1035900049014118097B002909D1A0300079C007F1
:1035A00029D001F02DFF01F0DDFE09F05BF900F0FC
:1035B00003F92068014640310A78C9798A4319D154
:1035C0003E21095C002915D10F490A88120711D53F
:1035D0000922D2061269497A836AC9005918092357
:1035E0001B02C018806D801A00020012814201DAAD
:1035F00006F00CFB10BD00F039FA00F0D3FD07F027
:103600002BFAD0E700180020C000002010B5837FFF
:103610000122002492024168082B03D942249142DE
:1036200002D310E0914201D242240CE00146342240
:103630000648FDF790FA00F07FF8002801DA4824E8
:1036400001E000F029F9204610BD0000CC02002066
:103650003EB5174D15482968827F0846A0310A7388
:1036600000246030047644768476E122C27680229B
:10367000027702224277302008704C7002AA01A91A
:103680006846FDF757FA68460078A22201016846AD
:10369000007A891C00020143684600790003014357
:1036A00028681152A03004713EBD0000CC020020F9
:1036B0000018002070B501F0F1FF06F05DF805F08C
:1036C000EBF909F0EFFE02F0BFF9184C1849206839
:1036D000184D4018811001202A68C0021018C166D8
:1036E000616889080167A1688908416708F0B8FA2C
:1036F0001D2029688001228B08180287628B42876F
:10370000A28B4286628C82862046203002783B2043
:103710004001081882750021017000F067F901F07E
:103720002FFE01F0B7FD09F023F970BDCC02002097
:103730000000FCEF0018002070B50025ED4301F0FB
:103740005CFE01282ED0002318490322888BFF2419
:10375000401E10438A7F4D3462438218088B282410
:1037600060431218488B30246043121808462030FA
:1037700040782C24604310180D4A181884184869A2
:10378000A0420DD10B4884420AD90D6901F035FEE3
:10379000C1B2284604F0C0F904F0EEFA401B251A25
:1037A000284670BDFF23B533CEE70000CC020020D1
:1037B00039190000580A0000F8B52C4F3C68206EFB
:1037C0005C34401C002814D0002529480023C07B0D
:1037D00000283ED00926F6062648002D1CD00021E0
:1037E0000A460B464169521C994204D1002902D075
:1037F00004E00125E9E7204B9A42F2D321600069F9
:1038000060603069A1680002090E000A09060143E0
:10381000A16000F033F81DE03169A2680902090ACD
:10382000150E08D0018BC90712D0416921600069CB
:103830006060E37210E0881A00027D2300121B030F
:10384000984205DD100E00060843A06000F016F84F
:10385000F8BD6360002DFBD003CC06F007F9FA2019
:1038600006F0F4F839688862F8BD000000180020FE
:10387000EC020020000010488813000004490020DA
:1038800008610448012100686030C1717047000080
:103890000000104800180020F8B5062632484025E0
:1038A0000560324800270780A9050920C00641604D
:1038B0002F4A9160016801602E4803210469426922
:1038C000601E08433946401CFDF749F901F095FD9B
:1038D000C1B2204604F020F904F04EFA04F058FA80
:1038E00003F03EFB244917208881244C20684219AC
:1038F00001465770FA2088622820107001F07BFD85
:10390000012805D120681022403001781143017050
:1039100008F09CFF012805D1206880224030017802
:103920001143017020680146403002783243027032
:103930000020C0430866FDF7FAFEFFF789FEFFF797
:10394000B9FE20680121203001770721417701204D
:1039500001F056FC03F026FBFFF72EFF02488038EB
:10396000056002210160F8BD80E100E0C000002098
:1039700040000048CC020020000010480018002041
:1039800038B5184A14682246BA32AE34A378DD0737
:1039900001D001290AD05B070CD501290AD0217971
:1039A00049070BD5E17A002905D007E0E0788021AE
:1039B0000843E07038BD0121E17250802079410652
:1039C000090FF7D078210840694608700020487038
:1039D0006A460221422000F0C5F82079872108407C
:1039E000207138BD001800207047000003480021F6
:1039F0000068AE30C1708170704700000018002070
:103A000038B50246174801240068AE30022A1FD09C
:103A1000052A03D0072A07D00B2A20D108460979A6
:103A20004088FFF7ADFF1AE000790024020600D5B8
:103A30000124820703D1C20601D480060FD50846AF
:103A400000216A461170694600F032F8044606E02B
:103A50008178490703D50179FB2211400171204685
:103A600038BD000000180020704700001FB50E4848
:103A70000468AE34E078010612D5A178C9070CD0ED
:103A8000800708D5042069460873684601F0FEFEE9
:103A9000022000F03FF80020E0704006400EE07089
:103AA00000F004F81FBD000000180020704700005F
:103AB00030B5174B047A1B68C268AE331B799D067C
:103AC000AD0F04D10078042801D000200BE00120C4
:103AD00030BD401CC0B2155C012D08D01518203D2A
:103AE000ED7F2818C0B2A042F3D3087830BD401C47
:103AF000DD070124C0B2002D02D0105CC00703E036
:103B00009B07F2D5105C80070028EED00C70ECE724
:103B10000018002010B50446C1061148006803D5FE
:103B20001522BF210C4006E01B2189014118497E66
:103B3000C90710D012222107890E08181121C901C6
:103B40004018C06F0023214608F05EFF010004D03A
:103B5000204608F045FF002010BD072010BD0000E2
:103B600000180020F8B5891ECDB20646A81C032116
:103B70000843401C8308174817460068F10603D520
:103B80001C22BF210E4008E01B2189014118497EFB
:103B9000090601D40020F8BD19223107890E081842
:103BA0001121C9014018C06F314608F02DFF0400F3
:103BB0000ED03978217179786171A5712A46B91CC6
:103BC000E01DFCF7C8FF2146304608F009FFE1E799
:103BD0000720F8BD0018002010B50D4900050B683E
:103BE0000521490259188A690021000DA0331B7B69
:103BF0000AE04C01145B2405240D844202D14801E3
:103C0000801810BD491CC9B28B42F2D8002010BDEB
:103C100000180020F8B5069C1F4615460646002CE5
:103C200013D0A06802220D30FCF795FFE81E82B287
:103C30003B460721204604F0BDFFE580A068012E29
:103C400005D01D2101730020F8BD4720F8BD1B21C0
:103C5000F8E70000F1B5FFB08BB0012460020590D9
:103C60000027CC4807970168E320C000081803909C
:103C70008A98C74D0005000D0AAA05A906F063FC45
:103C80000690002872D104260AA805994218203A05
:103C9000D27F0B2A23D00026002004900AA8811985
:103CA000022201A80291FCF756FF6846818809AB01
:103CB00008AA039800F064FF012817D002287DD0DD
:103CC00068468088854200D30546844200D9204654
:103CD000044602988078012871D013363BE1491ED2
:103CE000761E36040591360CCFD1D5E708980090A2
:103CF000002F79D10099022228310298FCF733FF76
:103D000000281ED100982030017B029880788142E3
:103D100017D1012808D10098029902220830C91C45
:103D2000FCF721FF002815D002988078022808D1DE
:103D30000098029910220830C91CFCF714FF0028D3
:103D400008D00098008DA84200D80546A04200D2B5
:103D50002046044602990AA88978012907D013361B
:103D60000599B6B28E4204D3012707E005E1761D1E
:103D7000F6E78119022201A8FCF7EDFE03990098ED
:103D800008318E462EE084466946026A8B882030D0
:103D90000DE0918B994203D3012F7DD199427BD9BC
:103DA000A94200D80D46A14200D30C4612688242B7
:103DB000EFD10498002817D1604601E015E0BFE07C
:103DC000006870450ED0018D994203D3012F09D1AF
:103DD000994207D98D4200D30D468C4200D80C463B
:103DE000012F59D17045CED1BAE008980090002F2C
:103DF00072D1009902221C310298FCF7B4FE00280F
:103E00001ED100982030C17802988078814217D165
:103E1000012808D10098029902220830C91CFCF739
:103E2000A2FE00281AD002988078022808D10098B3
:103E3000029910220830C91CFCF795FE00280DD00D
:103E40000098808BA84200D80546A04200D22046A8
:103E5000044602988078012826D003E002988078F2
:103E6000012805D013360798B6B201281ED021E0EC
:103E7000009849490089884216D18A98FFF7ACFE1C
:103E80000146009800F08AF80099098C484300998F
:103E900089694018022200E038E00299491DFCF7C8
:103EA0005AFE01200790D4E7761DDCE7B61C0020FF
:103EB000B6B207900598864201D3012705E00AA80B
:103EC0008119022201A8FCF746FE039A00990832E4
:103ED00009980968944630E01AE086466A46938855
:103EE00020300DE08A8B9A4203D3012F0ED19A42E3
:103EF0000CD9AA4200D81546A24200D3144609683C
:103F00008142EFD1049800282AD102E001200490D8
:103F100026E07046006860450FD0028D016A9A4223
:103F200003D3012F09D19A4207D9954200D31546F0
:103F3000944200D81446012FE8D16045CDD10FE05E
:103F40000298C078022805D102980079292801D169
:103F5000B61CB6B2761D0598B6B2864200D30127CC
:103F60000598811B042902D3864200D294E6049866
:103F70000028FBD1A54203D906987FB00CB0F0BD54
:103F8000224629468A9800F03FFE0690F5E7000099
:103F9000FFFF0000001800200229000030B5024693
:103FA00023239B5C0020012B1AD112890D4B9A42CE
:103FB00016D10D4A052312685B02D318A0329B6903
:103FC000127B0AE045010C885D5B24052D05240D5C
:103FD0002D0DAC4204D0401CC0B28242F2D8002069
:103FE00030BD00000229000000180020830810B531
:103FF0000A4800210268052040021018A03280699A
:10400000127B07E04C01045B002C01D0994204D0E4
:10401000491CC9B28A42F5D8002010BD0018002002
:1040200010B50446022000F033F80D480021026864
:10403000052040021018A0328369107B05E04A0178
:104040009A5A002A04D0491CC9B28842F7D810BD38
:1040500048011C52C018026904210A43026110BDC4
:104060000018002010B504460146042001F00EFEA1
:10407000002809D00548E3210068C90040182146FE
:104080003C3009F029FB432010BD0000001800203F
:1040900004490A683B21490151180A7802430A7011
:1040A000704700000018002000B51138C0B2FFF7BB
:1040B0009DFF002804D001220169520511430161CE
:1040C00000BD000002460948E3210068C90041180C
:1040D0008868083103E0038D934202D20068884269
:1040E000F9D1884200D1002070470000001800205C
:1040F000034610B50F48E3210068C90041188868DD
:10410000083103E0148D9C4203D8104602688A42AD
:10411000F8D18A420CD1018D994209D20146026A36
:1041200020318A4203D0416A898B994200D2002013
:1041300010BD000000180020024610B50B48120503
:10414000016805204002081883690020120DA03183
:10415000097B07E044011C5B2405240D944203D035
:10416000401CC0B28142F5D810BD000000180020EC
:10417000F7B505461746019809F07EFA2E05044664
:10418000360D0CE0A0882568B04207D12146019881
:1041900009F0BFFA3946204604F0B8FC2C46002C42
:1041A000F0D1FEBDF0B58BB0002064490290E32051
:1041B0000A68C000141872B610464030C579022350
:1041C0001D43C57162B625464035287AC0077DD0AB
:1041D000052040021018002687694AE071017A5ACA
:1041E000002A44D0C919069109694A021FD48A02DB
:1041F00027D5022104910699012309880905090D93
:1042000003911B2189014118C97E89070FD511210E
:10421000C901083040182322C06F022108F0F4FBC6
:10422000010004D0039A8A80049808F0D9FB06980C
:1042300000880090069800F083F8009807F001FDD0
:1042400015E0480713D5069800880005000D07F013
:10425000D4FC002805D1069800880005000DFFF762
:10426000F9FC069904200969814306980161761CCE
:10427000F6B23248AC210068095CB142AED800F019
:10428000EBFD20462430064609F03CFA012802D016
:10429000012000F0E3FC2046183009F033FA012831
:1042A00002D0002000F0DAFC3C34204609F02AFA63
:1042B00001280FD002A9204609F04DFA04200299E6
:1042C00001F0E4FC0028F0D0204600E034E0029940
:1042D00009F0EFF9287A00062ED5304609F012FAD7
:1042E000012829D1002004F091FBA98B2331490931
:1042F000491CC9B2FCF7B8FB00281DD00F4D04467D
:1043000028681121C90108304018422601233822AB
:10431000C06F314608F078FB01000DD000228A8082
:10432000CC80304608F05CFB3B212A6849015118DB
:104330000A78802082430A700BB0F0BD001800207C
:10434000F0B504463C48E3210068C9004518218ABD
:1043500085B089041AD5022104911B2189014118D5
:10436000497F412627880123C9070FD01121C901A0
:10437000083040183122C06F022108F045FB0100CF
:1043800004D08F808E71049808F02AFB294620887B
:1043900001221831FFF7ECFE294620880122303136
:1043A000FFF7E6FE2946208801222431FFF7E0FED0
:1043B0002946208800223C31FFF7DAFE20880005DC
:1043C000000DFFF7B9FE85002946113168460173DB
:1043D00001F05CFA294612316846017301F056FA81
:1043E000294613316846017301F050FA68461435C6
:1043F000057301F04BFA208800F046F9208801058A
:104400000D48090D0268052040021018828F914264
:1044100001D100218187E069002802D0012104F048
:1044200075FB202200212046A568FCF798FB172089
:10443000A560608005B0F0BD00180020F8B5044606
:104440007D480E460068E321C90047184820C05D3A
:10445000C0077BD0B088FFF7BFFB0546012C02D018
:10446000002C75D0E6E0002D0CD0286941074AD415
:10447000B268F188147B0029F4D062060CD56888F4
:10448000884201D20121B2E0D22C01D0522CF9D1C4
:104490003846314618303FE0A106890E1E293ED825
:1044A0001E2C21D101071FD50821884328612988A6
:1044B000012004F0AFFD0121304604F027FB5E48E7
:1044C00011210068C9010830401842242D880123B9
:1044D0003922C06F214608F097FA010003D08D8081
:1044E000204608F07DFAA5E0E1070AD01D2C10D087
:1044F0001B2C0ED0410529D4012189020843EE610D
:1045000092E0C00601D54520F8BD2988002004F0BE
:104510006FFD38463146243009F0DEF88AE02988FC
:104520002022002004F096FA05000FD00121304629
:1045300004F0ECFA2B4600222146062009F040FC4C
:104540002846FFF78FFD75E000E001E04120F8BD4F
:10455000B068047B1D2C3AD01B2C41D00021304682
:1045600004F0D4FA032C46D0052C44D0072C42D0BA
:10457000092C40D00B2C3ED00D2C3CD00F2C3AD027
:10458000112C38D0132C36D0172C34D0192C32D013
:10459000012C30D0022C35D0042C33D0062C31D055
:1045A000082C2FD00A2C2DD00C2C2BD00E2C29D03F
:1045B000102C27D0122C25D0162C23D0182C21D02B
:1045C000522C1FD0D22C1DD01E2C2FD032E0002D0B
:1045D00003D02988012004F00BFD3146022001E0C0
:1045E0003146012000F02AFD002823D0002130466A
:1045F00004F08CFA1EE02969102081432961298882
:10460000002015E02869402188432861010511D563
:10461000FF210131084328612988022004F0E8FCC9
:1046200001212869C9028843286103E02988032001
:1046300004F0F0FC0020F8BD0018002010B5114A6D
:10464000E3231268DB00D2184032127AD20706D078
:1046500002280AD0052804D00B2810D101E04120FF
:1046600010BD4888FFF7DCFC09E04888FFF7B4FA82
:10467000002804D001220169920511430161002044
:1046800010BD000000180020F1B5FFB085B0472034
:1046900001900020694608805348E3210068C90062
:1046A00047188498FFF798FA0290002874D0B968E8
:1046B00008374FE0684600880D4604AC20186B466A
:1046C0000222283100F070FD684600882946201833
:1046D0006B4601222C3100F067FD2E462036307BE0
:1046E00069460128098804A809D040186B461022A1
:1046F0002946083100F058FD01902C6A27E0401847
:104700006B460222F4E76946098804A8401821464E
:104710006B4602221C3100F047FD6946098804A857
:10472000401821466B460122233100F03DFD232035
:10473000005D69460128098804A830D04018214648
:104740006B461022083100F02FFD01902468B4421E
:10475000D9D12968B942ADD1019800281CD1684649
:10476000008881070AD0214A011D11406A46118044
:104770000A1A04A908180B21FCF7F1F9029800881D
:1047800007F03BFA002807D1849869460005000D20
:1047900004AA098805F008FE7FB006B0F0BD4018F5
:1047A00021466B460222083100F0FEFC0190208970
:1047B0000F498842CAD120460299FFF7EFFB40001B
:1047C000A16903906A460918128804A880186B46EC
:1047D000022200F0E9FC0190A16903980222081866
:1047E0000021FCF7BCF9B1E700180020FCFF000035
:1047F00002290000FFB5002099B0239A0B90129077
:1048000005461490064615901C46DB480B4600688A
:10481000E321C900411803910021229F08910991C9
:104820005188069111880A913B214901401800786E
:10483000C00706D00FA9184600F0D0F900280AD109
:1048400002E047201DB0F0BD10AA0F991B9800F0A0
:10485000B5F9002801D06020F4E71998002803D0AA
:10486000600701D5012000E000201390A007800F11
:104870001C90109817902030C078012840D11798CC
:10488000BE4B01899942F9D11798069904680A9894
:10489000228C4118914233D82046203016908078DF
:1048A000012816D0E08B0490179880690078800664
:1048B000800F7DD0039840301890007A800777D51C
:1048C0001C980028F5D0AD4F0F99FF372031206894
:1048D00014E0BA4214D3B942DDD80497E4E703895F
:1048E000A64A934203D12322125C012A08D0BB427C
:1048F00003D12322125C012A03D000688842EED142
:1049000034E105900028FBD09B480521026849024C
:10491000511889690027009162E07801009903909D
:10492000085A01055AD01999002901D0884255D159
:1049300005997A008B69511C595C9A5C09028918A7
:1049400089B20D91890749D00222059909F0B6FA7A
:10495000002804D01998002840D0652072E7002074
:1049600008A9C8551C98C00718D017988069007806
:10497000C00613D50D98C00710D00120C8550543B7
:10498000009A039880184088159A904206D915908D
:10499000009A0398105A0005000D14901C98800787
:1049A0001CD5179880690078800617D50D9800E00F
:1049B00084E0800712D50220CA5D05430243CA5530
:1049C00000990398401840881599884206D9159097
:1049D00000990398085A0005000D14907F1CFFB23F
:1049E00065480068A030037BBB4296D8002D65D097
:1049F0001898007A00065FD45F48016805204002DD
:104A00000818816900201BE042018E5A360515D036
:104A1000AE070BD556183669B7070DD408AF3F5C03
:104A2000BF0703D5360701D546200BE7EE0705D0B3
:104A30005218127CD20701D0432003E7401CC0B2B9
:104A40008342E1D81598C01E86B20498864200D9E8
:104A50000646A8070FD520220020149903F0FAFF7C
:104A6000129000287DD0F01C82B20021129800F034
:104A7000EDF8002811D1E80720D020220020149959
:104A800003F0E8FF0B90002807D0F01C82B2002151
:104A90000B9800F0DBF8002810D08020FFF7F8FA20
:104AA0001298002802D0002104F030F80B9800285A
:104AB00002D0002104F02AF86420C3E6A1690A9814
:104AC000069A08182499FCF746F816988078012869
:104AD00001D10498E083002D46D0274B05201968AA
:104AE000400208188169002008AA0CE04301CF5A4F
:104AF0003F0506D05F18BC463B69175C3B436746E1
:104B00003B61401CC0B21C4B1B68A0331B7B834223
:104B1000ECD8A8070DD512980090F01C82B221465F
:104B20001C310220A369FFF775F80220129900F0EA
:104B300085FAE80718D00B980090F61C2146B2B20F
:104B40001C310120A369FFF765F81398002805D0F0
:104B50000B988021C07C08430B99C87401200B99E5
:104B600000E005E000F06AFA00206BE6422069E60A
:104B70008020FFF78DFA9FE700180020032800002F
:104B8000F0B58468083015E0258D8D4203D114609E
:104B900018600120F0BD26461C602036256A06E01C
:104BA000AF8B8F4202D102201560F0BD2D68B54257
:104BB000F6D124688442E7D10020F0BD10B50B6A1D
:104BC000203106E09C8B844202D10020136010BD8E
:104BD0001B688B42F6D1412010BD000010B5094A78
:104BE000E3231268DB00D2189368083206E01C8DBC
:104BF000844202D100200B6010BD1B689342F6D1A5
:104C0000412010BD0018002030B50F4BE3251B6874
:104C1000ED005B19403304461B7A412085B09B07A9
:104C200010D56B469981DA810020188204205882C1
:104C300003AA04A96D4607C502231A46012120468E
:104C4000FFF7D8FD05B030BD0018002010B5121DCB
:104C5000806892B203F078FF10BD0000F0B57D4986
:104C6000E3220968D2008E1885B0012806D03046AC
:104C70001830009008F000FD0446E7E0304624308C
:104C8000039008F0F9FC0546BCE0A8682F68007B9B
:104C90000290A888FEF7A0FF040073D0218820228C
:104CA000002003F0D7FE019000286CD0E8886188CE
:104CB000884204D900220420019B029920E046206A
:104CC000009002980E284ED00ADC801E030000F0EF
:104CD0007AFA0B1C13221329132F133813411300D4
:104CE00016285AD004DC102846D0122804D14BE0F4
:104CF00018285BD01D2874D000220620019B029941
:104D000009F05EF8002000905CE029462046019AF8
:104D100009F062F94FE02A4621463046019B09F02E
:104D200089FB48E029462046019A09F08DFA42E0C5
:104D30002069000355D429462046019A09F0C4FE93
:104D400039E0206900034CD429462046019A0AF034
:104D5000EDF830E02069000343D429462046019A4B
:104D600009F020FD27E0206900033AD429462046B7
:104D7000019A0AF011F81EE029462046019A09F02E
:104D8000B1FD18E035E040E02069800329D42946D0
:104D90002046019A0AF0F5F90DE02069800320D43D
:104DA00029462046019A09F041FC04E029462046A4
:104DB000019A09F06BF90090452812D0692810D0AB
:104DC00046280ED001212069090688431021084396
:104DD00020610198FFF746F90098002809D010E0FB
:104DE000FFE70021019803F091FE009845280CD0C0
:104DF000F2E72946039808F08CFC0121284603F0CD
:104E000085FE3D46002D00D03FE705B0F0BDA0680F
:104E10002668077BA088FEF7DFFE05000DD0522F25
:104E200001D0D22F06D1286940030ED4214628464E
:104E30000AF011F92869400307D42146009808F0C8
:104E400068FC0121204603F061FE3446002CDED1CF
:104E5000DBE7000000180020F0B56348E32201689A
:104E6000D2008DB08A180C920522520289180027B0
:104E70008D69AFE07E01A85B002872D070190A909E
:104E8000C069002866D00A990969CA0532D54A0561
:104E900030D580680124A402007BA1430A9A1D2812
:104EA000116154D01B2852D00A9A927B824202D0C0
:104EB000012802D04BE0012806D10A98C069806819
:104EC000407B401C82424CD1C80509D5A95B022019
:104ED00004F0A0F80A98FF220169013291430161B0
:104EE0000A9881698847452831D10A980169214388
:104EF00001612CE0012103F009FE0A990020C8613C
:104F00000A980121026989028A43026142200190C4
:104F10000220089005900A98069020681121C90186
:104F20000830401801232122C06F019907F06CFD61
:104F300004000CD00899217105996171A01D059A92
:104F40000699FBF708FE2146019807F049FDA85B8A
:104F500000283DD00C982430049008F08DFB0446C6
:104F600034E035E020680890A068A388017BA85B46
:104F70000205120D8446934216D11D2914D10A98B8
:104F800000698646C0040FD40122120371460A98B4
:104F900011430161A95B032004F02AF8A95B2246B2
:104FA000022000F071F808E093420ED11B290CD1C9
:104FB00022466146022000F0AFF82146049808F02E
:104FC000A8FB0121204603F0A1FD089C002CC9D1BB
:104FD0007F1CFFB2044C2068A030007BB84200D98F
:104FE00048E70DB0F0BD000000180020F0B5944671
:104FF00000220A806346104C1A60052322685B0277
:105000008646D2184120926900230FE05D01AD1859
:105010002F697646374207D06F880E88B74203D98A
:105020000F806046056000205B1CDBB22568A03560
:105030002D7B9D42EAD8F0BD001800207CB50C46BF
:1050400005466A4601A9FFF7D1FF002801D041209B
:105050007CBD6846E1888088814200D9E080009864
:105060000088A0802046FEF7FDFF0098012D07D0A4
:1050700001690822114302229143016100207CBD95
:10508000016949084900F8E7F7B506469079916843
:10509000C01E82B01746C5B2022268460D31FBF72A
:1050A0005AFD681D03210843401C83081948F10676
:1050B00003D53222BF210E400AE01B220168920173
:1050C0008918097F890602D4002005B0F0BD2F227F
:1050D00031070068890E08181121C9014018C06FF6
:1050E000314607F091FC040011D00398A080684677
:1050F0000088E080234625722A4607213846093376
:1051000003F068FC2146304607F06AFCDCE7072024
:10511000DBE7000000180020F7B50646907991689B
:10512000C01E82B01746C5B2022268460D31FBF799
:1051300012FD681D03210843401C83081948F1062D
:1051400003D53322BF210E400AE01B2201689201E1
:105150008918097F490602D4002005B0F0BD30222D
:1051600031070068890E08181121C9014018C06F65
:10517000314607F049FC040011D00398A08068462E
:105180000088E080234625722A46072138460933E5
:1051900003F020FC2146304607F022FCDCE7072024
:1051A000DBE700000018002010B51C88A418A4B28A
:1051B0001C8001235B029C4203D8FBF7CCFC00203F
:1051C00010BD412010BD30B47446641E2578641CA7
:1051D000AB4200D21D46635D5B00E31830BC18474C
:1051E000F0B50E460746002407E03D1900F02AF806
:1051F0002870000A6870A41CE4B2B442F5D3F0BD74
:1052000010B5012818D8072916D80C4A1268134679
:105210002033187759778007C906000E090E01431D
:105220000020074BA03204E08401E418A172401C66
:10523000C0B2147B8442F7D8002010BD00180020B3
:105240000001002000210B200007026852070DD545
:10525000026804239A430260026808231A4302602A
:1052600004E0491C052901DD0020704742689207CF
:10527000F7D54168C907FCD0806880B2704710B587
:10528000FFF7E0FF0446FFF7DDFF0004201810BD24
:105290007047000010B505486F2300681B01042209
:1052A0000021C018FBF75BFC10BD000000180020B7
:1052B00004E003780B70401C491C521E002AF8D1F0
:1052C000704700003EB50B4801AA0468694602A871
:1052D000683400F01FF800280BD06846007AE18897
:1052E00001228240114204D069460978019AFFF7F1
:1052F000CFFF3EBD0018002005480021006868303F
:10530000017141710268D208D2000260C180704709
:105310000018002070B514460D4A136872B6683341
:105320001A79002A01D0012500E0002500221A7117
:105330005A79027018784007400F087018684001C9
:10534000000A00F0CFFA206062B6284670BD000067
:105350000018002003E00870000A491C521E002AB1
:10536000F9D1704710B501F0A5FE00F043F800F048
:1053700044F8012801D101F0A0FE01F09FFE10BD0C
:1053800070B51A4C1B252068AD0141190026184B39
:105390000E720622FF21C018FBF7E1FB20682021D6
:1053A0004019C673017400F028F801281CD01F2092
:1053B00021680F4B491948742068093307220021DE
:1053C000C018FBF7CCFB0A4B206810330522FF21E5
:1053D000C018FBF7C4FB064B20681B33FF220021DB
:1053E000C01808F05EF970BD5F20E1E700180020EA
:1053F000C906000070470020704700207047000079
:1054000070B572B6184D4023286801464030C27905
:105410001A43C27162B6154E881908F073F9002854
:1054200012D12868801908F027F904460AE02046BE
:1054300008F066F8002807D128682146801908F08E
:1054400068F92468002CF2D12868801908F05AF90C
:10545000012807D072B62868BF224030C1791140B8
:10546000C17162B670BD000000180020E4060000A3
:105470000A4610B50146002002F000FB10BD10B531
:1054800001460022412002F0F9FA10BDFEB50646A1
:1054900002200190B0880090B5790321681D08436F
:1054A000401C8308134811220068D40108300019F9
:1054B000377B0221C06F07F0A7FA040017D00098CD
:1054C000A0800020A771E0710146234625812A466D
:1054D00030460A3303F07EFA2146019807F080FA3D
:1054E00000240121304603F011FB2046FEBD0724B5
:1054F000FBE7000000180020F8B5074685880F4834
:1055000011240068E401083002260019012310224A
:105510003146C06F07F078FA01000CD08D8001226F
:105520000024CA80304607F05BFA0021384603F0B9
:10553000EDFA2046F8BD0724FBE700000018002024
:10554000074A914202DC5242914200DA1146FF22A0
:10555000993251430A1251180A1451180818704709
:10556000FFFF4F0010B50920C00600690002000AC5
:1055700000F0B8F910BD70B50D460446FFF7F2FF14
:105580002946FFF7DDFF0146204600F001F870BD17
:105590001FB56A463A3010736846029100F03AF936
:1055A000002800D0012004B010BD1FB569463A3074
:1055B0000873684600F06AF91FBD000030B5EFF3CC
:1055C000108172B60922D2061269FF25821A1202D0
:1055D00014120C4A91351368AC4208DC0122120601
:1055E00090431A464032D479DF252C40D471C20151
:1055F0000724D20924021B191A61034A906081F31F
:10560000108830BD001800204000004810B503008D
:10561000FFF7D9FD3A332D2D2D1E2130332A2A2AAA
:105620002A2A2A2A2A2A2424242424242424242416
:10563000242424242424242424242424242424242A
:1056400024242424242424272727272727272733F3
:10565000FEF70AFA10BD03F04FFC10BDFEF724FD63
:1056600010BD00F039FB10BD06F06EFB10BD06F05A
:1056700031FB10BDFEF7B8F910BD3A38C0B20428AE
:10568000FAD2FCF7F5FE10BD0348DF220068403077
:10569000C1791140C17170470018002070B50B48E6
:1056A0000B49006844182646646008362460E660AA
:1056B0000025A660206929014118304603F0B8FC96
:1056C0006D1CEDB20B2DF5D370BD0000001800204D
:1056D000F4060000F0B5002693B0701E0E9041480D
:1056E00041490068374644180920C0060069050290
:1056F0002D0A72B6A0692146281A0002000A22313A
:1057000004F00EFA6169A5614018606135480068CF
:105710004030C1798A0663D420221143C17162B638
:10572000256814E0A8686169401A00280ADCBA00FC
:1057300001A8761C85507F1CF6B2FFB2287BFFF7CC
:1057400065FF03E00E99884200D20E902D68A542B5
:10575000E8D12046083000250C901830129018E04F
:10576000AF0001A8761EC159F6B2204603F07FFCB7
:1057700001A8C1590C9803F05BFC01A8C059007B3B
:105780003A2804D2129812990078401E08706D1CB5
:10579000EDB2002EE4D12068A04217D03D256D0463
:1057A000284604F0B5F901460E98814201D82846F2
:1057B00001E004F04BF9A169081800020121000A78
:1057C00009064018FFF7FAFE13B0F0BD72B60020CC
:1057D0000449072209681202891808610349886090
:1057E00062B6F1E700180020F4060000400000480F
:1057F00010B504460920C00600690002000A00F046
:1058000071F8A168FFF79CFEA060204600F002F846
:1058100010BD0000F8B51B4D06461B49286844180A
:10582000317B481E3E2801D34220F8BD2046A268A5
:105830000830824205D03A2905D22021095D072986
:1058400001D36420F8BD694603F004FC1022314600
:105850000098FBF780F92046009903F0E9FB0098D7
:10586000007B3A2803D220342078401C207072B686
:105870002868DF224030C1791140C17162B6002032
:10588000F8BD000000180020F406000070B5134EAB
:10589000134A31688D182C681DE0017B227B9142F0
:1058A00018D12146284603F0E2FB2846214608305D
:1058B00003F0BEFB207B3A2803D220352878401E17
:1058C000287072B63068DF224030C1791140C17152
:1058D00062B670BD2468AC42DFD170BD00180020F4
:1058E000F406000010B50649064A09688C18A1693B
:1058F000401A0002000A04F00BF96169081810BD93
:1059000000180020F406000070B50E46054601465A
:105910002022002003F09EF8040023D0284600F047
:1059200059F8050027D02879B04224D1A8788007FB
:105930001FD4A06801210173A06800214673A068EC
:1059400002268673A068C173A0680174A0684174C0
:105950000620E0802146052000F098F9002803D0B9
:10596000412509E064250BE0A8783043A8700025A4
:1059700006E0462500E042250021204603F0C6F857
:10598000284670BD70B514460D4600280BD111464F
:10599000284606F0E3FB21462846FEF74FFE214647
:1059A000284600F0A3FA70BD70B505460C460020ED
:1059B00000F010F800280BD02905090D0180002106
:1059C0008170002C01D10821817001210171C17009
:1059D00070BD000030B502460A4811230068DB01A3
:1059E0000021C318A030047B07E0586E0D01401958
:1059F0000588954204D0491CC9B28C42F5D80020D4
:105A000030BD00000018002030B50A491123096894
:105A10000246DB010020CB18A031097B07E05C6E59
:105A2000050164192488944203D0401CC0B281420D
:105A3000F5D830BD001800208068017A407A000255
:105A4000081880B27047000070B50023134A1DE0AB
:105A50001125ED0140191901466E0024C81C34546B
:105A600010684019466E081D345410684019406E85
:105A7000445210684019466E084608303452106887
:105A80000C314019406E5B1C4450DBB21068AC21F5
:105A9000095C9942DCD8002070BD0000001800208D
:105AA00010B5024688680C46817AC07A0002081850
:105AB00081B2E088001FE080042909D005290CD0BC
:105AC00006290FD00121204603F020F8002010BD48
:105AD00021461046FEF7B2FC08E02146104600F0D1
