:020000041004E6
:1008000000600020710E0410230E0410150E041059
:10081000AA5555AA45554C420000000000000000B2
:10082000000000000000000000000000DF0E0410C7
:1008300000000000000000006D0E0410891004107C
:10084000710C0410690E041000000000000000008C
:10085000D5110410DD0E0410090B0410211404102E
:100860000000000000000000000000000000000088
:1008700000000000C50A0410190E0410170E041021
:10088000000000001B0E04101D0E04101F0E0410AB
:10089000210E04109F0E04106B0E04100B0B04109D
:1008A0000000000000000000000000000000000048
:1008B0000000000000000000000000000000000038
:1008C000EFF31482EFF309811C4880F31488BFF31F
:1008D0006F8FF0B543464C4655465E466746F8B4C2
:1008E000174CEFF30883236006B4164C2068164CAF
:1008F0002060164C2068164C2060164C2068164C60
:100900002060164C276800202060BFF34F8F30BF57
:1009100027600B4C246884F3088882B003BCF8BCC1
:100920009846A146AA46B346BC46F0BC04BC80F338
:10093000098881F31488BFF36F8F1047000000000F
:100940000800002004ED00E0D402002024ED00E0C7
:10095000D802002000E200E0DC0200200800204075
:100960000348854600F06EF8004800473919041026
:100970000060002030B50B460146002020220124F3
:1009800009E00D46D5409D4205D31D469540491BC3
:100990002546954040191546521E002DF1DC30BD0C
:1009A00003460B439B0703D009E008C9121F08C088
:1009B000042AFAD203E00B780370401C491C521E33
:1009C000F9D27047F0B51FB40646002082B0054644
:1009D0004024019100901BE0019922460F463046C9
:1009E00000F042F8049A059B801A994110D31046F2
:1009F0001946224600F016F8361A8F410197224612
:100A000001200021009F00F00DF838184D410090A2
:100A10002046641E0028DFDC019B009829463246F0
:100A200007B0F0BD10B5202A04DB0146203A914002
:100A3000002010BD914020239C1A0346E340194337
:100A4000904010BD064C0125064E05E0E36807CC3A
:100A50002B430C3C98471034B442F7D3FFF784FF84
:100A6000B01A0410401B041010B5202A04DB0846FD
:100A7000203AD040002110BD0B46D340D040202466
:100A8000A21A91400843194610BD30B58C1802785F
:100A9000401C13071B0F01D10378401C120906D11B
:100AA0000278401C03E005780D70401C491C5B1E59
:100AB000F9D101E00B70491C521EFBD1A142E6D3D3
:100AC000002030BD7047000070B500210C4A03E0E3
:100AD000535C491C5918C9B2535C002BF8D1CE1C89
:100AE00002243525202E04D2545451184D7088709C
:100AF000CB7004490C704D708870CB7070BD0000D5
:100B0000E8020020E002002070477047F3B58BB088
:100B100005461C2248A103A8FFF742FF684600F0E3
:100B200053F909240126E406002D67D044206946C4
:100B300088764848017A314301724C206946C8756D
:100B400020200875B22048775B2008A90870424A27
:100B5000906A4249030C8B420AD108AFFB788F2779
:100B60003B4008AFFB70FB784007400E0343FB702F
:100B7000506A020C8A420AD16B465A7CCF231A4033
:100B80006B465A745A7C8007800E02435A7432486E
:100B90004038006B020C8A4209D108AAD178890832
:100BA0008900D170D1788007800F0143D1706946E8
:100BB000C87DFB2108406946C875487889780001DE
:100BC0000843122808D308A9C8780421084308A9B3
:100BD000C870C878FFF778FF03A8012180B2090424
:100BE0004018E060E068C003FCD469464878897822
:100BF00000010843122801D300F0B4F91849088B0A
:100C00000028FCD00E8317208881002008610C98F2
:100C1000002806D0216910200140226902408A4242
:100C2000FBD0002D02D00F49152008700F490E4847
:100C300008600DB0F0BD0000023F00023E30023CF3
:100C400020023B4C023A400239B202345B02350BBF
:100C50000000000000002040C007001055AA00005E
:100C6000000010480000C040CCBCECFC1400002088
:100C700070470000F8B504460068800103D17A216E
:100C80004F4800F051FE207900280BD0062809D0EB
:100C9000012807D0042805D0052803D07B21484827
:100CA00000F042FEA079002805D0012803D07C2165
:100CB000434800F039FE6079002805D0012803D0B0
:100CC0007D213F4800F030FE2088C00406D5207901
:100CD000062803D180213A4800F026FE20888004AF
:100CE00006D52079062803D18121354800F01CFE65
:100CF000207901229207002802D0062804D008E0BB
:100D000051682368994303E0516800202368194320
:100D1000516000210F232568CD40ED07ED0F37D03E
:100D2000082909D2D66A8D001F46AF40BE43074648
:100D3000AF403E43D6622BE00D46083D082D0AD257
:100D40008D001E46203D176BAE40B7430646AE40B1
:100D5000374317631CE00D46103D082D0AD28D0065
:100D60001E46403D576BAE40B7430646AE40374344
:100D700057630DE017290BD9124E8D001F46603DB9
:100D8000368BAF40BE430746AF400E4D3E432E83E9
:100D9000491CC9B21A29BED360790128D0682168DC
:100DA00009D08843D060A07901289068216804D0D8
:100DB00088439060F8BD0843F4E70843F9E7000072
:100DC000D8190410200000400F4910B528390E4BE7
:100DD000CA691206120F4270C9690907090F8170AA
:100DE00019680A4C01234160A14202D1022101701D
:100DF00000E00370002A00D143700549898A491C2C
:100E00008900816010BD00002800904041A00002D0
:100E100000001040FEE7704770477047704770470A
:100E2000704770478307FF22DB0E9A408907090E3F
:100E3000994000280BDA0007000F0838830808489B
:100E40009B001818C36993430B43C3617047830821
:100E500004489B001818036893430B4303607047D2
:100E600000ED00E000E400E07047704770470000CC
:100E700010B500F0E7FA012805D0044880F308888F
:100E800000F05AFD10BDFFF76BFD10BD00600020A3
:100E90000B2000074068C00700D001207047704752
:100EA0000D49012289B212048A1830B50921C906F8
:100EB000002804D0CA60C868C003FCD430BD064B0B
:100EC0009C789878FB2528409870CA60C868C00351
:100ED000FCD49C7030BD0000E002002070477047D9
:100EE00070B5064686B00121092000F0ADF8FF205C
:100EF00001300390012569460D7400248C744C74F4
:100F000003A8FFF7B7FEE802039069460D7403A833
:100F1000FFF7B0FE032069460096087148718C7196
:100F2000CC714C7208728D72684600F055F9002041
:100F300000F03EFA012000F005F906B070BD000097
:100F40000149022008707047D002002010B5044605
:100F5000202000F00FF90128FAD0204600F04AFACC
:100F600010BD00000020104903E00A5C401C10186E
:100F7000C0B20A5C002AF8D1C21C202A12D2022276
:100F80000A54212208184270082181700021C17082
:100F9000012180B2090441180920C006C160C1685E
:100FA000C903FCD470470000E80200202348017AFE
:100FB00023480089002906D0022938D0042938D0D6
:100FC000082938D01FE0092810D381280ED809211C
:100FD00081431AD01121814319D02121814318D096
:100FE0004121814317D08121814316D0FF21023155
:100FF000814314D01349814313D00521814312D07A
:10100000C043800711D0002070470620704707209A
:10101000704708207047092070470A2070470B204E
:1010200070470C207047052070470420704701204E
:101030007047022070470320704700000000904076
:10104000000010480104000070B50D460B4904462D
:10105000084203D187210A4800F066FC094E002DA2
:1010600005D0012D07D08821054800F05DFC306ACD
:10107000A043306270BD306A2043FAE79F3F0F0003
:10108000201A0410000090407047000010B52A4953
:10109000082088800321481FFFF7C4FE0321081F92
:1010A000FFF7C0FE03210020FFF7BCFE0321012053
:1010B000FFF7B8FE03210420FFF7B4FE032105204B
:1010C000FFF7B0FE00210620FFF7ACFE032107204A
:1010D000FFF7A8FE03210D20FFF7A4FE03210E2039
:1010E000FFF7A0FE03210F20FFF79CFE0321112034
:1010F000FFF798FE03211220FFF794FE032113202F
:10110000FFF790FE03211420FFF78CFE032115202A
:10111000FFF788FE03211620FFF784FE0321172026
:10112000FFF780FE01210846FFF7F0FC0449034861
:10113000086262B610BD00000000104066000E009C
:101140000000904010B5094C002809D0012803D0B8
:101150005F21074800F0E8FB206B0121084302E013
:10116000206B40084000206310BD000000003040AC
:10117000681A041070B5144D044601281ED0082CBE
:101180001CD0102C1AD0202C18D0402C16D0802C1B
:1011900014D00E4884420DD0C01F84420AD0401C97
:1011A000844207D0801C844204D0FF215631084875
:1011B00000F0BAFB002C01DA686800E0288B2040C0
:1011C00000D0012070BD0000000030400800008009
:1011D000681A04107047000070B504460068704932
:1011E000401E884203D993216E4800F09DFB207970
:1011F000002809D0012807D0022805D0032803D0F1
:101200009421684800F090FB6079002809D00128FB
:1012100007D0022805D0032803D09521614800F0AB
:1012200083FBA079002805D0012803D096215D48D2
:1012300000F07AFBE079002807D0012805D00228C9
:1012400003D09721574800F06FFB207A032803D979
:101250009821544800F068FB607A032803D999214B
:10126000504800F061FBA07A002805D0012803D087
:101270009A214C4800F058FB4B4D286B01074B4816
:10128000216801D4090100E0C900FFF773FB0146A2
:101290004002020C444820308280D201891A012683
:1012A000C903F6038919090C3F2902D9491C89068B
:1012B000890E0172027B23799F219B070A405B0EF6
:1012C0001A4302732A7F0A4061798907490E0A434B
:1012D0002A77017BA279F723D2071940120F114315
:1012E0000173297FA2791940D207120F1143297780
:1012F000E179002943D002220229017B44D0114325
:101300000173037B04210B4303732B7F13432B7760
:101310002A7F0A432A77296B012252029143227ABB
:10132000D207920D11432963296BFF2201329143A9
:10133000227A9207D20F120211432963296B0122EC
:1013400092039143627AD207520C11432963296BAD
:10135000627AB1439207D20FD20311432963027B11
:10136000A37AEF21DB070A40DB0E1A430273287FC2
:101370000840A17AC907C90E0843287770BD027BCF
:10138000FD210A40027308E011430173037BFB2136
:101390000B4003732B7F13432B772A7F0A40B9E757
:1013A0003F420F00681A0410000030400000127A1B
:1013B00010B5040010D0012C0ED0022C0CD0032C40
:1013C0000AD0042C08D0052C06D0062C04D0FF210E
:1013D000DA31064800F0A8FA0549087DC722104016
:1013E0006207920E1043087510BD0000681A0410C1
:1013F0002000304010B504460648844204D9FF213D
:101400001231054800F090FAE0050449C00D08804B
:1014100010BD0000FF010000681A041000003040F9
:10142000704700000FB410B503A9044B044A02989A
:1014300000F040F810BC08BC04B018472B19041089
:10144000CC02002038B51048017A012529430172E9
:101450000E49002008600446FFF7A8FD69460870A1
:101460000878002803D1641CE4B2032CF4D3087874
:10147000062807D3087800F07FFA05480570FFF7C3
:1014800048FAFEE7012038BD00002040140000208B
:101490000C00002002E008C8121F08C1002AFAD17F
:1014A00070477047002001E001C1121F002AFBD1E4
:1014B00070470000FFB591B00F460546002606E0D4
:1014C00025280AD0149A139990476D1C761C287809
:1014D0000028F5D1304615B0F0BD0024009401215C
:1014E000F34A029400E004436D1C2B780846203B2D
:1014F00098401042F7D128782A280ED00221287867
:101500000246303A092A15D8009A0A235A43303A3B
:1015100080180C436D1C0090F1E701CF009000286B
:1015200005DA012040030443009840420090022065
:1015300004436D1C28782E2815D1042004436878B4
:101540006D1C2A280AD101CF6D1C02900BE0029974
:101550000A225143303940186D1C02902878014608
:1015600030390929F3D928786C2810D006DC4C28AA
:101570001AD068280ED06A2817D104E0742813D036
:101580007A2812D110E00120400504430CE001212B
:10159000090501E0032109050C436978814203D163
:1015A0000120000524186D1C6D1C287803906E28FE
:1015B0001ED00CDC632831D004DC00288AD05828E7
:1015C00011D1B2E064287BD069280CD178E073286F
:1015D0002DD004DC6F2870D0702804D1A7E07528C6
:1015E0006CD078286BD0149A13999047761C62E0DF
:1015F0006002400F022807D003280AD00428386868
:101600000AD006603F1D56E03868F1170660416059
:10161000F8E738680680F5E70670F3E7387869463A
:1016200008740020487404A80390012003E038687F
:1016300003900020C0433F1D61070FD5002101E04A
:101640000199491C029A0191914213DA8142F7DB18
:10165000019A0399895C0029F2D10BE0002101E095
:101660000199491C01918142FADB019A0399895C35
:101670000029F5D101990098139A401A009021464B
:10168000149B00F03BF901998019461807E0039874
:1016900003990078491C0391149A13999047019873
:1016A000401E0190401CF2D12146149B139A0098D1
:1016B00000F014F986196D1C09E741E033E034E0CD
:1016C0000A200021049005916002410F022905D0F3
:1016D00001CFC2179446032905D007E0FF1DFF087C
:1016E000FF0003CF06E000B2C2179446042902D1DE
:1016F00040B2C1178C4600226146944506DA0A467C
:101700000021404291418C462D2102E0210504D563
:101710002B216A461176012103E0E10701D0202147
:10172000F7E7019154E00A200BE0102009E01020B7
:10173000049000210420044308200591029003E056
:1017400008200021059104906002410F022905D074
:1017500001CF00229446032906D006E0FF1DFF08B2
:10176000FF0003CF8C4603E080B2042900D1C0B251
:101770000021019121072BD50399702906D0049AE5
:101780001021059B4A401A4305D00EE040216A46CD
:101790001176012108E06146014306D030216A46F6
:1017A00011760399517602210191049A0821059B33
:1017B0004A401A430CD16146014301D1610707D564
:1017C00030216A461176012101910299491E029148
:1017D0000399582904D037A103910FA90F910DE067
:1017E00039A1F9E76146059B049AFFF7EBF8039BE3
:1017F0008C469B5C0F9A521E0F92137061460143F8
:10180000F0D10F9807A9081A20300390600704D57B
:10181000012000048443029801E001200290039912
:10182000884201DD401A00E0002041180290019832
:1018300009180098401A0090E00306D42146149B32
:10184000139A009800F05AF886190020049008E0D6
:1018500006A9085C149A139990470498401C761CBA
:10186000049001998842F3DBE0030CD52146149BD8
:10187000139A009800F042F8861904E0149A302078
:1018800013999047761C0299481E02900029F5DCB6
:1018900008E00F980F990078491C0F91149A13993A
:1018A0009047761C0399481E03900029F1DCFBE663
:1018B0000928010030313233343536373839616226
:1018C00063646566000000003031323334353637EA
:1018D000383941424344454600000000F8B504460B
:1018E00000251E461746880404D405E0394620200A
:1018F000B0476D1C641EF9D52846F8BDFFB50446F7
:10190000002581B01E46C80301D5302700E02027FE
:10191000880404D505E038460399B0476D1C641E61
:10192000F9D5284605B0F0BDFEE710B5C0B2FFF707
:101930000DFB012010BD0000FFF7A8FBFFF700FB27
:10194000E1204002FFF7CCFA0B242407FFF7A0FAAE
:101950000128FBD1A16802A0FFF764FDF6E70000B3
:1019600052616E646F6D2076616C75653A203078D7
:10197000253034580D0A0000FEB501240B2813D081
:101980006846FFF721FA69464878897800010843DC
:10199000122800D200240E480068000705D4002C4D
:1019A00002D00120FFF77CFAFEBD0925ED0628696B
:1019B000084E31682830081A000200120028F3DDB2
:1019C000002C02D00120FFF76BFA30686860FEBD82
:1019D000C0000020180000202E2E2F2E2E2F2E2E7D
:1019E0002F2E2E2F2E2E2F2E2E2F4C6962726172CB
:1019F000792F426C75654E5247315F506572697040
:101A0000685F4472697665722F7372632F426C75DA
:101A1000654E5247315F6770696F2E6300000000AA
:101A20002E2E2F2E2E2F2E2E2F2E2E2F2E2E2F2ED1
:101A30002E2F4C6962726172792F426C75654E521D
:101A400047315F5065726970685F4472697665728C
:101A50002F7372632F426C75654E5247315F7379F5
:101A6000734374726C2E63002E2E2F2E2E2F2E2E6B
:101A70002F2E2E2F2E2E2F2E2E2F4C69627261723A
:101A8000792F426C75654E5247315F5065726970AF
:101A9000685F4472697665722F7372632F426C754A
:101AA000654E5247315F756172742E63000000000D
:101AB000401B0410080000200400000094140410CF
:101AC000441B04100C0000200400000094140410B7
:101AD000481B04101000002004000000941404109F
:101AE0004C1B041014000020040000009414041087
:101AF000501B04101800002004000000941404106F
:101B0000541B041030000020040000009414041042
:101B1000581B0410C00000200C0200008A0A0410A8
:101B2000601B0410CC0200201C0000009414041060
:101B30007C1B0410E802002020000000A414041004
:101B40000000000000000000000804100000000079
:101B5000000000000000000001FF01FF0111000073
:101B60000000000000000000000000000000000075
:0C1B700000000000000000000000000069
:040000051004096179
:00000001FF
