:020000041004E6
:1000000000600020DD350410553904105739041004
:10001000AA5555AA45554C420000000000000000BA
:10002000000000000000000000000000593904102A
:1000300000000000000000003F3404105B39041091
:100040006339041041340410000000000000000077
:1000500065390410433404106D3904104F34041012
:100060000000000000000000000000000000000090
:1000700000000000513404105334041055340410AF
:1000800000000000453404104734041049340410C3
:100090004B3404104D3404103B3404103D34041030
:1000A0000000000000000000000000000000000050
:1000B0000000000000000000000000000000000040
:1000C000EFF31482EFF30981002080F31488BFF36B
:1000D0006F8FF0B543464C4655465E466746F8B4CA
:1000E000164CEFF30883236006B4154C2068154CBA
:1000F0002060154C2068154C2060154C2068154C6C
:100100002060154C276800202060BFF34F8F30BF60
:1001100027600A4C246884F3088882B003BCF8BCCA
:100120009846A146AA46B346BC46F0BC04BC80F340
:10013000098881F31488BFF36F8F104708000020EF
:1001400004ED00E0FC17002024ED00E0F017002093
:1001500000E200E000180020080020400023C25CFC
:100160000133002AFBD1581E7047000002B47146CB
:1001700049084900095C49008E4402BC7047C046EA
:1001800003B47146490840004900095A49008E44A9
:1001900003BC7047002243088B4274D303098B428F
:1001A0005FD3030A8B4244D3030B8B4228D3030C47
:1001B0008B420DD3FF22090212BA030C8B4202D3E9
:1001C0001212090265D0030B8B4219D300E0090A11
:1001D000C30B8B4201D3CB03C01A5241830B8B421A
:1001E00001D38B03C01A5241430B8B4201D34B0303
:1001F000C01A5241030B8B4201D30B03C01A524168
:10020000C30A8B4201D3CB02C01A5241830A8B42EC
:1002100001D38B02C01A5241430A8B4201D34B02D5
:10022000C01A5241030A8B4201D30B02C01A524139
:10023000CDD2C3098B4201D3CB01C01A52418309ED
:100240008B4201D38B01C01A524143098B4201D327
:100250004B01C01A524103098B4201D30B01C01A52
:100260005241C3088B4201D3CB00C01A52418308CC
:100270008B4201D38B00C01A524143088B4201D3F9
:100280004B00C01A5241411A00D201465241104659
:100290007047FFE701B5002000F0F0F802BDC0464E
:1002A0000029F7D076E7704703460B437FD400223E
:1002B00043088B4274D303098B425FD3030A8B42FA
:1002C00044D3030B8B4228D3030C8B420DD3FF2264
:1002D000090212BA030C8B4202D31212090265D032
:1002E000030B8B4219D300E0090AC30B8B4201D3E5
:1002F000CB03C01A5241830B8B4201D38B03C01A2C
:100300005241430B8B4201D34B03C01A5241030BA2
:100310008B4201D30B03C01A5241C30A8B4201D353
:10032000CB02C01A5241830A8B4201D38B02C01AFE
:100330005241430A8B4201D34B02C01A5241030A75
:100340008B4201D30B02C01A5241CDD2C3098B425A
:1003500001D3CB01C01A524183098B4201D38B01D7
:10036000C01A524143098B4201D34B01C01A52417A
:1003700003098B4201D30B01C01A5241C3088B42BF
:1003800001D3CB00C01A524183088B4201D38B00AA
:10039000C01A524143088B4201D34B00C01A52414C
:1003A000411A00D201465241104670475DE0CA0F23
:1003B00000D04942031000D34042534000229C46E3
:1003C00003098B422DD3030A8B4212D3FC228901ED
:1003D00012BA030A8B420CD3890192118B4208D3C3
:1003E000890192118B4204D389013AD0921100E025
:1003F0008909C3098B4201D3CB01C01A5241830939
:100400008B4201D38B01C01A524143098B4201D365
:100410004B01C01A524103098B4201D30B01C01A90
:100420005241C3088B4201D3CB00C01A524183080A
:100430008B4201D38B00C01A5241D9D243088B4260
:1004400001D34B00C01A5241411A00D20146634603
:1004500052415B10104601D34042002B00D5494267
:10046000704763465B1000D3404201B5002000F0A6
:1004700005F802BD0029F8D016E770477047C0465E
:100480008446101C62468C46191C634600E0C04638
:100490001FB501F0A3FA002801D40021C8421FBDF6
:1004A00010B501F0FDF94042013010BD10B501F06A
:1004B00095FA002801DB002010BD012010BDC046C8
:1004C00010B501F08BFA002801DD002010BD0120DD
:1004D00010BDC04610B501F01DFA002801DC002057
:1004E00010BD012010BDC04610B501F013FA002860
:1004F00001DA002010BD012010BDC0468446081C52
:100500006146FFE71FB500F045FB002801D400213C
:10051000C8421FBD10B500F0D7FA4042013010BDEF
:1005200010B500F037FB002801DB002010BD0120D2
:1005300010BDC04610B500F02DFB002801DD0020E5
:1005400010BD012010BDC04610B500F0E3FA002830
:1005500001DC002010BD012010BDC04610B500F028
:10056000D9FA002801DA002010BD012010BDC046D4
:10057000002B11D1002A0FD1002900D1002802D070
:100580000021C943081C07B4024802A14018029088
:1005900003BDC046E9FEFFFF03B4684601B50298FB
:1005A00000F006F8019B9E4602B00CBC7047C046A6
:1005B000F0B557464E464546DE46E0B5040083B0EA
:1005C0000D00924699468B422FD82CD04946504672
:1005D00002F0C4F929000600200002F0BFF9331A26
:1005E0009846203B9B4600D574E053465A469340BC
:1005F0001F005346424693401E00AF4229D826D0E2
:100600005B46A41BBD41002B00DA79E000220023E9
:100610000092019301235A469340019301234246DD
:100620009340009319E08242D0D900220023009227
:1006300001930C9B002B01D01C605D600098019918
:1006400003B03CBC90469946A246AB46F0BDA342DF
:10065000D6D900220023009201934346002BE8D014
:10066000FB0772081A4346467B080EE0AB4201D1F5
:10067000A2420CD8A41A9D41012024196D410021E9
:10068000013E24184D41002E06D0AB42EED9013E6A
:1006900024196D41002EF8D15B460098019900198C
:1006A0006941002B22DB2B005A46D3402A004446E6
:1006B000E2401C005B461500002B2CDB26009E4010
:1006C000330026004746BE403200801A9941009010
:1006D0000191AEE7424620239B1A5246DA4041463A
:1006E00013004A468A4017001F4382E742462023F0
:1006F0009B1A2A0046469A402300F3401343D5E74D
:100700004246202300219B1A0022009101920122DF
:10071000DA40019282E74246202326009B1ADE40FF
:100720002F00B446974066463B003343C9E7C046B6
:10073000437802781B021A438378C0781B04134362
:10074000000618437047C046030A4B70030C8B70B9
:10075000030E0870CB70704703005A7800781202BD
:1007600002439878197900040243D87800061043B0
:100770005A7912020A43997909040A43D979090678
:1007800011437047030A5370030C9370030ED37028
:100790000B0A53710B0C93710B0E10701171D37106
:1007A0007047C046F0B5C6464E024702760A7B0A3D
:1007B0004400C50FF7004800984600B5240E2A00F3
:1007C000DB00000EC90FBC468D4267D0221A002AFA
:1007D00000DCA5E000283AD1002F00D193E0511EA3
:1007E000002900D0BCE00124DB1B5A0146D59B0147
:1007F0009E09300002F094F805388640844200DDFE
:100800009DE0041B320020200134E240041BA6407E
:1008100033005E1EB341002413435A0704D00F2255
:100820001A40042A00D004335A0129D50134FF2C80
:1008300000D181E02A009B015B0AE4B25B02E4057F
:10084000580AD2072043104304BC9046F0BDFF2C49
:10085000E3D080213800C904084384461B2A00DD08
:1008600082E020206146D140821A6046904002001A
:10087000501E82410A439B1A5A01B8D45A07CED15E
:10088000DE082A00FF2C3AD1002E00D1AEE08023F2
:10089000DB0333435B025B0AFF24CFE7211A002905
:1008A00052DD002831D0FF2CB7D080203E00C0049C
:1008B0000643B4461B2900DDAAE020266046C84056
:1008C000711A66468E4031004E1EB14101435B18DD
:1008D0005901D3D50134FF2C00D187E0012278499A
:1008E0001A405B080B40134397E7002C00D0A7E0A9
:1008F000002B00D0B6E03B1E62D10026002273021E
:100900005B0AE4B29AE7140087E7002F4DD0481E37
:10091000002857D1634401245A01AFD50224DDE7F2
:10092000002A24D1621CD2B2012ADEDDDE1B720154
:1009300035D5FE1A0D005CE72A0000237EE7330060
:10094000604A241A134068E7002963D1611CC8B2C9
:1009500001284EDDFF2949D063445B080C005CE7A9
:10096000FF2A41D00A0079E701229B1A84E7002C74
:100970001DD0FF2822D08024E404524223431B2AA6
:1009800000DD8AE01C002025D440AA1A93405A1E9C
:100990009341234362460400D31A0D0025E7002E3D
:1009A00000D026E700220024A9E70C0035E7002B41
:1009B0004DD0D243002AEDD0FF28E0D16346FF247A
:1009C0000D002AE7FF290FD0010073E7002B61D04B
:1009D000FF24002F00D120E780224146D20311429C
:1009E00002D0164200D13B00FF2416E7FF2400236B
:1009F00024E7002CEAD1002B58D0002F00D10CE7BF
:100A000063445A0100D439E72E4A0C00134004E72E
:100A100001215CE7002C1ED1002B40D0C9430029E6
:100A20000BD0FF2836D01B2947DC1C002026CC40E9
:100A3000711A8B40591E8B4123436344040047E7DE
:100A4000002B18D13B1E2DD00D00FF24E5E63B0006
:100A500004000D00E1E6FF281CD08024E404494294
:100A60002343E0E7002F00D1D7E6DE1B72011FD53C
:100A7000FB1A0D00D1E6FF24002F00D1CDE6802225
:100A80004046D2031042AFD01642ADD13B000D001C
:100A9000FF24C2E66346FF24BFE601237AE73B005A
:100AA0000400BAE680260022F603F0E63B00B4E636
:100AB000331E00D0E2E6002221E70123BDE7C04655
:100AC000FFFFFF7DFFFFFFFB70B5420045024E02B6
:100AD0004C00C30F6D0A120E760A240EC90F0120B6
:100AE000FF2A06D0FF2C03D0A24201D1B54206D086
:100AF00070BD002DFCD1FF2CFAD1002EF8D18B4215
:100B000006D00120002AF3D12800451EA841EFE7B6
:100B10000020EDE7F0B5420045024C02C30F48004B
:100B20006D0A120E640A000EC90FFF2A1ED0FF289C
:100B300021D0002A0AD16E426E41F6B200280FD1B0
:100B4000002C0DD10020002D09D005E0002801D196
:100B5000002C01D08B4211D0012158420843F0BD36
:100B6000002EF7D0012001390843F8E7002DDED030
:100B700002204042F3E7002CDBD0F9E78242EBDCB5
:100B800004DBA542E8D80020A542E8D20121581E86
:100B90000843E4E7F0B542004D024C004602760AF5
:100BA000120EC30F6D0A240EC90FFF2A16D0FF2C98
:100BB00018D0002A0AD170427041C0B2002C15D062
:100BC000002805D0012001390843F0BD002C13D0C6
:100BD000994214D001205B421843F6E70220002E10
:100BE000F3D1E4E70220002DEFD1E2E7002DE7D1B9
:100BF0000020002EE9D0EDE7002DE9D1EAE7A2427E
:100C000006DCDFDBAE4203D80020AE42DAD3DCE7FD
:100C1000012049420843D8E7F8B54546DE46574625
:100C20004E460C03E0B54E00C90F88460D00610A20
:100C3000440F0C43C70019035800DB0F9B464B0AB7
:100C4000510F0B43760D400D1900D200D84500D14D
:100C5000AEE0351A002D00DCF6E000280FD113437A
:100C600000D1DBE06B1E002B00D037E1BA1A9742AF
:100C7000BF41641A7F42E41B0126170024E0C64BE3
:100C80009E424DD080231B041943382D00DD07E11F
:100C90001F2D00DD38E12020431B9A460B005046F3
:100CA0008340994613004846EB40184303005046E2
:100CB0008240501E8241E9401A43BA1A611A974293
:100CC000A441170064420C1B230262D56402650A2A
:100CD000002D00D1DFE0280001F022FE0300083BD8
:100CE0001F2B00DDD2E020223C00D21A9D40D440D0
:100CF0009F4025439E4200DDC4E09E1B731C1F2BBA
:100D000000DDF1E0202238002900D21AD8409140BD
:100D100097402C000143781E8741DC4000260F439A
:100D20007B0709D00F233B40042B05D03B1DBB4262
:100D3000BF417F42E4191F0023022CD5964B013698
:100D40009E4200D19AE04546944BFF081C40600744
:100D5000760564020743240B760D00212403230B40
:100D60000C0D8F4A24051C431440330523435B00BC
:100D7000ED075B082B43380019003CBC90469946B0
:100D8000A246AB46F8BD6446044300D111E204001C
:100D900067467B07C6D145466007FF080743E4085E
:100DA0007D4B9E4230D024037605240B760DD4E78C
:100DB000331A9A46002B78DD002831D076488642D7
:100DC000AED08020000401435346382B00DCE9E01C
:100DD0000A43511E8A410021D219BA42BF41091962
:100DE0007C4217000C192302D3D56B4B01369E426F
:100DF00000D13AE10120694B1C407B0807401F43AA
:100E0000E007074364088BE723003B4300D1CBE1B5
:100E10008022120314432403240B9EE72E007FE755
:100E20000800104300D1B4E0581E002800D0DEE0D6
:100E3000BA18BA429B4164185B42E41817000126B5
:100E40002302A6D50226D5E7002D6ED1701C4005E1
:100E5000400D012800DCF9E0B81A84468742804141
:100E6000E51A40422D1A280200D489E0D71BBA4265
:100E700092411C1B5242A51AD84629E74546002438
:100E800000276AE7454CF61A2C4049E73D00283810
:100E9000854000272EE7380001F042FD20301DE795
:100EA0000A43511E8A41002107E7002B00D0F3E0DE
:100EB000701C43055B0D012B00DCADE0364B984206
:100EC00000D1D1E0BA18BA42BF4164187F42E41998
:100ED000E707520817436408060021E72E488542B9
:100EE00000D193E01D00D0E629001F3EF140202BE9
:100EF00000D18DE04022D31A9D402F437D1EAF418B
:100F000000240F43002644E72B000800203BD84074
:100F10000300202D00D17DE04020451BA9400A435D
:100F2000511E8A4100211A43C7E6002E50D01A4EA6
:100F3000B04257D080266B429946360434434B4624
:100F4000382B00DDD6E01F2B00DD35E12026F51A19
:100F50002600AE40B2463E00DE40AC463500564666
:100F60002E436546AF407D1EAF41DC403743D71B63
:100F7000BA4292410C1B5242A41A0600D846A3E67C
:100F8000644667462C4300D0A2E6002500260027D1
:100F900006E71E00C4E6C046FF070000FFFF7FFF14
:100FA000FFFF0F801F2B63DC2020C31A080098402E
:100FB0009C46834653461000D840030058461843C9
:100FC00063469A40531E9A4153460243D94003E771
:100FD00026003E4306D0EB439946002BC7D0944EE3
:100FE000B042ACD10C0017000600D84698E6904BF2
:100FF0009A450BD08246E7E6002800D09EE0180014
:10100000104300D1E9E01C001700D846884E87E65F
:10101000002572E7002182E723003B43002E00D029
:10102000ABE0002B00D1E7E00B00134300D177E6E3
:10103000BA18BA42BF4164187F42E419230200D4AF
:10104000F2E07C4B17001C40060069E620003843A4
:10105000002ED1D100285BD11C00144300D1A8E0A0
:101060001C001700D8465BE606000024002797E620
:1010700050460B002038C34099465346202B00D1E0
:1010800095E0402350461B1A99400A43511E8A415D
:101090004B4600211A439FE6002E30D126003E43E6
:1010A00067D0DB439A46002B1CD0614EB04260D023
:1010B0005346382B00DD96E01F2B00DD9FE02026F5
:1010C000F31A26009E409C46B34653463E00DE403F
:1010D00033005E461E4363469F407B1E9F4153463E
:1010E000DC403743BF189742924164185242A4181B
:1010F000060078E627437C1EA741002437E74C4EC4
:10110000B04236D080265B4236049A463443CFE75D
:101110001800104300D103E6B81A84466745AD4174
:10112000E01A6D42401B050200D42CE6D71BBA42E0
:1011300092411C1B5242A41AD846F1E518001043F4
:1011400000D163E7F808670707438020E40800033D
:10115000044208D0DD08054205D1D20859071143E1
:101160000F002C00D8467B0FE4001C43FF00304EDC
:10117000D6E50C0017000600D2E5002B38D00B0096
:10118000134300D142E7F808670707438020E408CB
:1011900000030442E7D0CB080342E4D1D208490758
:1011A00011430F001C00DEE700270024D5E50021D5
:1011B0006BE700250027F3E54E462500203EF5406D
:1011C0004B462E00202B2DD04025ED1AAC40274356
:1011D0007C1EA74100243743C9E680240025240350
:1011E000134E0027DCE527437C1EA741002479E746
:1011F0000C0017000E4E93E50C00170090E55646C4
:101200002300203EF34099465346202B0ED0402326
:1012100056469B1B9C4027437C1EA7414B460024FF
:101220001F435FE70024D2E71700B2E50024F2E78E
:10123000FF070000FFFF7FFFF0B557464546DE463B
:101240004E46E0B54C000E0387B0834692461D0023
:101250008046360B640DCF0F002C4FD06F4B9C4255
:1012600035D08023420F1B04F600134333439946C5
:10127000C30098466A4B00269C46002364440393AF
:101280002B031B0B9B466B00ED0F50465B0D01952E
:101290005ED0624A934253D05A46D1008022400F1A
:1012A000120402430A4393465246D1005C4A9446D4
:1012B000002263443800684084460290E41A1643D2
:1012C0000F2E00D9B4E0574BB6009B599F46030040
:1012D000334399466CD10023984602330826039382
:1012E000CEE7CB464146039A0197022A65D1019B7E
:1012F0004A4C9C460023002298466BE0030033438F
:1013000099464ED0002E00D1BCE1300001F008FB20
:1013100003000B3B1C2B00DDACE11D22D31A5A4607
:101320000100DA4008398E401300334399465B468A
:101330008B40984600233C4C0026241A03939FE7D9
:1013400051465A46114329D1002293460232B1E751
:10135000594601431ED05B46002B00D19EE1584602
:1013600001F0DEFA03000B3B1C2B00DD8FE10200D5
:101370005946083A91408B461D21CB1A5146D94017
:101380000B0059460B4351469B469140264B002289
:101390001B1A8FE7002301229B468BE7514603224D
:1013A00088E700239846013304260024039367E767
:1013B0000323B14603930C2662E7032A00D15CE2C3
:1013C000019B012A00D0E4E113409C460023002445
:1013D0000022984600211203130B0A0D12051A432E
:1013E0002305124C40462240134362465B00D2075D
:1013F0005B081343190007B03CBC90469946A246CF
:10140000AB46F0BD002380229C4612039846034C55
:10141000E0E70023014C00229846DBE7FF070000CD
:1014200001FCFFFF60C805100DFCFFFFFFFF0F80F0
:10143000D94500D939E100D134E1002346464D4673
:101440009A46013C5B460A0E1B021A430B02170C1C
:10145000039313041B0C3900280090460193FEF7F8
:1014600099FE0200019B83465A43280039009146A9
:10147000FEF716FF350C09040D43A9450DD95B464F
:101480004544013BA84500D93AE1A94500D837E1D8
:1014900002235B429C464544E3444B46EB1A390029
:1014A00018000493FEF776FE019B050043433900C4
:1014B00004989946FEF7F4FE330409041B0C0B4311
:1014C000994509D943446A1E984500D91AE19945BE
:1014D00000D817E1023D43444A469B1A5A4612047B
:1014E0002A4303999346100C0A0C914609045A4664
:1014F000090C4E460D001204120C45430591514350
:101500007243704352190E0CB218954203D98025CC
:101510006D02AC466044150C09041204090C28182D
:101520005218834200D2CEE000D1C8E01D1A5346C3
:101530009E1AB24592415242AB1A9A46984500D142
:1015400017E139001800FEF725FE019B0500434313
:10155000390050460493FEF7A3FE04980B04310CA7
:101560001943884209D941446B1E884500D907E1D7
:10157000884200D804E1023D4144049BCB1A180084
:1015800039000493FEF706FE019B8246434339006F
:1015900004980193FEF784FE01980B043104090CB2
:1015A000194388420DD953464144013B884500D92F
:1015B000E8E0884200D8E5E002235B429C464144D3
:1015C000E244019B2D04CE1A51462943059D4F4606
:1015D0002A000B04080C1B0C5A4345437B437843F9
:1015E0005B19170CFB189D4203D980256D02AC4690
:1015F00060441D0C12041B04120C28189B18864210
:1016000000D293E000D18EE001231943A04BE318F0
:10161000002B00DC99E04A0700D09EE05A46D20138
:1016200006D55A469B4B1A4080239346DB00E318AD
:10163000994A934268DD0123029A984C1A4000238C
:10164000944698460022C5E680224B461203134278
:101650000AD05B46134206D11A431203120BAC4662
:1016600088468E4CB6E64B461A431203120BBC4614
:101670008A4CAFE603005A46283B9A400023914625
:10168000984657E6584601F04BF9203040E60300F3
:101690005246283B9A400021934677E601F040F9F4
:1016A00020305FE6884500D2C7E64B46DE075D087E
:1016B00043465B081E434346DB079A46C2E60025C5
:1016C000924500D333E7039E5946B446E244B245FF
:1016D000AD416D424544EB180139984507D2984217
:1016E00000D97FE000D1BCE01D1A8B461FE798456A
:1016F000FAD1039D5545F2D943468B461D1A16E78C
:101700009B46CAE61500E7E65A46C90852070A434F
:101710005B0590465C0D5A4601230299520219401E
:10172000120B8C4656E6002B00D16FE746444A1E4A
:10173000B04529D91100864200D065E7039A93424B
:1017400000D061E762E7012149420120C21A382A2C
:1017500021DD029B03409C4638E60F220A40042A02
:1017600000D15BE70A00111D91429241524293441D
:1017700054E7474BE318002BE5DD01225242F2E724
:101780001D00FAE69A461CE7B04239D86ED0110027
:101790003AE702933AE71F2A3CDC20239B1A0C000D
:1017A0005846994098404B1E99415B46D440D340DF
:1017B000204308431A00430709D00F230340042B9A
:1017C00005D00100081D88429B415B42D2181302DC
:1017D0003AD50123029A01241A40002394469846E0
:1017E0000022F7E5022149428C46039DE344AC46C2
:1017F000E244AA45AD416D424544ED182D1A96E6E6
:101800008A1E03994D008D42894149424144761810
:1018100003958FE71F204042C31A5846D840030063
:10182000202A28D040205D46821A954029434A1E2E
:1018300091411943072300220B4009D00F230022B6
:101840000B400800042BBDD1010053075202120BBC
:10185000C9081943012388460299002419408C467F
:10186000B8E55245BED88B46002560E6039D9D42F3
:10187000C6D3110062E70025D8E780225B46120339
:101880001A43019B1203120B9C468846034CA1E5A8
:10189000FF030000FFFFFFFEFE070000FF07000040
:1018A000F0B54F464646D6465C00C0B51F03DB0F79
:1018B0009A46174B0E034D0084468046360B6D0D3D
:1018C000C90F91463F0B640D01209D4208D09C42F8
:1018D00001D0A5420BD01CBC90469946A246F0BD53
:1018E00063463343F7D1AC42F5D13A43F3D10120FB
:1018F000BE42F0D1C845EED1514507D0002DEAD106
:1019000063461E433000461EB041E4E70020E2E794
:10191000FF070000F0B54546DE4657464E46E0B5A7
:101920001F033D0B2C4F0E034C00AB465D0084465D
:10193000360B640DC90F90466D0DDB0FBC422AD0EB
:10194000254FBD422DD0002C0FD1304307008146DA
:1019500078427841C0B2002D17D15F463A4314D186
:101960004B460020002B0AD006E0002D02D158463D
:10197000024301D0994218D04842012108433CBC9F
:1019800090469946A246AB46F0BD0028F2D0012011
:10199000013B1843F3E737000743D1D00220404210
:1019A000EDE75F461743CED0F8E7AC42E4DC03DA5C
:1019B000481E01210843E2E75E45DDD806D000203D
:1019C0005E45DCD20123481E1843D8E7C445D3D86E
:1019D0000020C445F6D3D2E7FF070000F0B54E461D
:1019E0004546DE4657465C00E0B51F03DB0F9946CF
:1019F0002A4B0E034D00C90F8446360B6D0D8B46E6
:101A000090463F0B640D9D4220D0244B9C4222D037
:101A1000002D12D1304343424341DBB2002C1FD092
:101A2000002B0CD04B460120013B034318003CBC6B
:101A300090469946A246AB46F0BD002C16D0CB4549
:101A400017D05B46594201230B43EFE731000223D5
:101A50000143EBD1D9E7390002231143E6D1D7E79F
:101A60003A43DDD100230028E0D0EAE73A43E6D14B
:101A7000E7E7A542E5DC05DBBE42E2D807D000235C
:101A8000BE42D3D25946012301390B43CEE7C445A8
:101A9000D7D80023C445F5D3C8E7C046FF070000E8
:101AA000F0B557464546DE464E46E0B50C0398462F
:101AB0004E00230B87B0070092469B46760DCD0F54
:101AC000002E6BD06D4B9E4235D080245B46420F7A
:101AD0002404DB0014431C43C3009946684BA3460F
:101AE0009C46002300276644029343461C035A0089
:101AF000DB0F5046240B520D984600D176E05F4B29
:101B00009A426DD08023410F1B040B435C49E400D3
:101B10008C461C43C300002062444146B61869400D
:101B2000721C0191944607430F2F00D9B0E0554A2B
:101B3000BF00D25997465B460343994600D087E0E1
:101B400000239B46023308270293CEE742460192C8
:101B5000022867D0032800D10EE2012800D062E1FC
:101B6000002300240022994601990140CDB20021B2
:101B700012030B0D120B1B051343434A240513409C
:101B80001C436400ED0764082C434846210007B05D
:101B90003CBC90469946A246AB46F0BD03439946ED
:101BA0004FD05B46002B00D189E1584600F0B8FECB
:101BB00003000B3B1C2B00DD7AE11D22D31A3A00F7
:101BC00001005C46DA4008398C4013008F40234303
:101BD0009B46B94600232D4E0027361A029384E710
:101BE000534623432AD10024022096E75346234339
:101BF00020D0002C00D157E1200000F091FE03001E
:101C00000B3B1C2B00DD49E11D21CB1A5146020084
:101C1000D9405346083A944093400C431B4A121A49
:101C200000207AE70125019B144C1D40002300226F
:101C300099469CE70024002201206EE753460320CA
:101C40006BE700239B4601330427002602934CE7F1
:101C5000032381460C27029347E7802200230025B7
:101C600012039946054C82E75C464B4602986FE7A3
:101C70005C464B46019502986AE7C046FF070000A4
:101C800001FCFFFFA0C80510FFFF0F800DFCFFFF48
:101C90004A464946170C1A0C1B041B0C0804190071
:101CA000000C41431500884619007D437943039594
:101CB00089462900150045434D44029545462D0CA3
:101CC000AA46029D5544A94506D98A468021490263
:101CD0008946CA4451460391290C0491414609049E
:101CE0002D04090C88462900250C24044144240CA9
:101CF0000591210041438846210079438A46684383
:101D0000414650448146080C48446F43824503D9FC
:101D10008021490289464F44010C894639004944D3
:101D2000029141460F0404993F0C88460004C019F3
:101D300080444146049159460F0C0904090C884619
:101D400059438A4639005143894641464A435146E0
:101D5000090C8B467B43D2185A44934203D9802303
:101D60005B029B46D94451460904090C8A46414608
:101D700061437C43130C12044B445244A1468A46EF
:101D80003C0041466C434D4351464D440F0C7D1978
:101D9000A94503D98021490288464444049F0399F8
:101DA000B84641448B46834580414142884651466E
:101DB00008042F04000C3F18584602991018894651
:101DC000904292414F44BA46524299469346C24489
:101DD000D144CB448F42BF41C245894199459B4183
:101DE000934592417F4249422D0C52420F435B4240
:101DF00013437F19FF185B463C19DB0D059A6402FB
:101E00001C43430213435D1EAB415A46C00D0343BE
:101E100052021343E20156D501205A0803401343EE
:101E2000E207134364085A48604400284DDD5A070E
:101E300009D00F221A40042A05D01A1D9A429B414C
:101E40005B42E4181300E20104D58020514AC0002F
:101E500014406044504A904200DDE3E60125DB086F
:101E600062071A436402019B9146220B4405640DEC
:101E70001D407CE6802259461203114208D01442CC
:101E800006D122431203120B45469946434C6EE697
:101E90005B461A431203120B404C68E6030054469B
:101EA000283B9C400023B9E600F03AFD2030A6E62E
:101EB0000300283B9F400023BB4699468AE600F07A
:101EC0002FFD203074E6B446ADE701252A1A382AE2
:101ED00006DD019B00241D4000230022994646E6B2
:101EE0001F2A21DC20252000AD1A1E00AB40A8408F
:101EF000D6405D1EAB4130431843D440430709D060
:101F00000F230340042B05D00300181D98429B416A
:101F10005B42E418230221D50125019B01241D40C9
:101F200000230022994622E61F2521006D42281A2F
:101F3000C1400800202A1DD05F35AA1A94402343CF
:101F40005C1EA341072503431D400022002D09D03C
:101F50000F2200241A401800042AD6D10300650776
:101F60006402220BDB082B4301259946019B0024C8
:101F70001D40FCE50024E2E78022012512032243F4
:101F800001991203120B0D409946044CEFE5C0462F
:101F9000FF030000FFFFFFFEFE070000FF07000039
:101FA000F0B54646D6464F460C03C0B5CD0F4E00A1
:101FB000610A440F0C43C1005800400D84468A4614
:101FC0000F001903500F490A0143C648760DA84671
:101FD000DB0FD200844500D1D8E001204340AB4262
:101FE00000D1A6E06046351A002D00DC05E100288E
:101FF00010D10B00134300D1D7E06B1E002B00D093
:102000004BE153469F1ABA458041641A4042241A54
:1020100001261EE0B34B9E4248D080231B04194387
:10202000382D00DD19E11F2D00DD4CE120230F00CC
:102030005B1B10009A409F40E840531E9A41E940C4
:10204000074317435346DF1B611ABA45A441644254
:102050000C1B230200D4C5E06402650A002D00D1E8
:10206000F6E0280000F05CFC0300083B1F2B00DDBD
:10207000E9E020223C00D21A9D40D4409F402543F5
:102080009E4200DDDBE09E1B731C1F2B00DD0AE17E
:1020900020223800D21A290097402C009140D840C5
:1020A0007A1E9741DC40002601430F437B0709D08D
:1020B0000F233B40042B05D03B1DBB42BF417F4259
:1020C000E4191F00230225D5864B01369E4200D11C
:1020D000AFE0854B01251C4043466207FF086402C0
:1020E00076051743240B760D1D4000212403230B96
:1020F0000C0D7E4A24051C431440330523435B002A
:10210000ED075B082B43380019001CBC904699462C
:10211000A246F0BD012543466207FF081743E408C5
:102120001D40704B9E4236D024037605240B760D5D
:10213000DBE76346F31A002B00DC94E060460028DE
:1021400035D068488642B1D080273F043943382BC8
:1021500000DCFDE00A43170000217A1E9741574436
:1021600057458041091944420C1923023AD55D4B69
:1021700001369E4200D14BE101225B4B1C407B08A3
:1021800017401F43E207174364088FE70800104316
:1021900000D024E721E723003B4300D1B9E18022AE
:1021A000120314432403240B9FE72E007EE708004C
:1021B000104300D1CAE0581E8446002800D0E7E052
:1021C00052445245804164184042241817000126A9
:1021D000230207D50226CFE764462C4300D1B3E1A2
:1021E0002C0067467B0700D062E76307FF081F43A8
:1021F00001254346E4081D4093E7002D78D1751C66
:102200006D056D0D012D00DCF2E05046801A82450F
:10221000BF41651A7F42ED1B8446280200D48CE042
:102220005046171ABA4292410C1B5542651B9846FC
:1022300014E70125434600241D40002755E72A4C9A
:10224000F61A2C4032E73D0028388540002717E772
:10225000380000F065FB203006E70A431700002134
:102260007A1E9741EEE6002B00D0E5E0731C9C46F9
:102270005B055B0D012B00DC9FE01A4B9C4500D1F8
:10228000C5E0524452458041641840422418E70793
:10229000520817436408664608E71248854200D191
:1022A00085E01D00BCE629001F3EF140202B00D137
:1022B0007FE04022D31A9D402F437D1EAF41002472
:1022C0000F4300268EE72B000F00203BDF40202D20
:1022D00071D040235D1BA9400A43511E8A41002151
:1022E0001743AFE6FF070000FFFF7FFFFFFF0F80F0
:1022F000002E3ED0B34EB44545D0802636046D4204
:102300003443382D00DDA8E01F2D00DD1FE120261D
:1023100027005046761BB740E84007435046B04080
:10232000461EB041EC403843171ABA4292410C1B8A
:102330005242A41A664698468BE6644667462C438A
:1023400000D08BE6002500260027EAE61E00ADE659
:102350001F2B60DC2027F81A0F00844687401000EE
:10236000D840074360468240501E8241D9401743FF
:10237000F5E626005046064305D0ED43002DD3D0A8
:10238000904EB445BDD10C001700664698468DE6C8
:102390008C4883420BD06346D9E6002D00D096E0EE
:1023A0000800104300D1E2E00C0017009846854E6B
:1023B0007CE6002580E700218EE72300504603439A
:1023C000002E00D0A8E0002B00D1DEE00B0013436C
:1023D00000D16BE6524452458041641840422418B3
:1023E0001700230200D4FDE6774B66461C405DE6ED
:1023F000250050460543002ECFD1002D4FD10C00B3
:10240000144300D1A0E00C00170098464EE6664643
:102410000024002785E61F000800203FF840070041
:10242000202B00D18EE04020C31A99400A43511E50
:102430008A410021174392E6002E14D1260050460F
:10244000064362D0DB43002B5CD187189742924150
:1024500064185242A418664687E650462043441E3C
:10246000A041002460E7574EB4454ED08026360484
:102470005B423443382B00DD7FE01F2B00DD8BE017
:10248000202627005046F61AB740D840074350464A
:10249000B040461EB0410743DC40BF18D6E70D00F0
:1024A000154300D102E65046801A8245BF41651AA5
:1024B0007F42ED1B8446280200D48DE65046171A51
:1024C000BA4292410C1B5242A41A9846EEE50D0006
:1024D000154300D16BE750466707C00807438020CB
:1024E000E4080003044207D0CD08054204D12C00C3
:1024F0009846D70849070F437B0FE4001C43FF00B1
:10250000304ED3E52F4EB445B4D10C0017006646CB
:10251000CCE500270024E8E5002B39D00B0013435D
:1025200000D144E7C008670707438020E4080003A0
:102530000442E1D0CB080342DED1D70849070F435C
:102540001C00D9E7002171E700250027E9E52E00EE
:102550002700203EF740202D2FD04026751BAC4091
:1025600050462043441EA04100243843DCE680242A
:1025700000252403134E0027D3E5504620430700CF
:10258000781E87410024BF1860E70C0017008DE516
:102590000C0017000B4E89E51E002700203EF74077
:1025A000202B0CD04026F31A9C4050462043441E5A
:1025B000A04107430024BF1848E70024D0E70024C7
:1025C000F3E7C046FF070000FFFF7FFF70B50E4E28
:1025D0000D031C0349005B002D0B490D240B5B0D03
:1025E000B14204D0084900208B4208D070BD054399
:1025F0000120002DFAD1044900208B42F6D114436A
:102600002000441EA041F1E7FF07000030B5134D44
:102610000A034B00120B5B0DC90F0024AB4210DD07
:102620000F4CA3420FDC80240E4D64032243ED1AAD
:102630001F2D0BDD0C48C31ADA405442002900D18B
:102640001400200030BD094BCC18FAE7084CE840D4
:10265000A44663449A400243EFE7C046FE030000ED
:102660001D0400003304000013040000FFFFFF7F7F
:10267000EDFBFFFF70B5002830D0C317C4185C40D5
:10268000C50F200000F04CF9174B184A1B1AD21A3C
:102690001F2A18DD164AD21A9440002224035B0533
:1026A000240B5B0D0021100024030A0D240B1205DE
:1026B0002243104C1B05224013435B00ED075B08CF
:1026C0002B43190070BD210091400A000B21081A0C
:1026D000C4405B052403240B5B0DE3E700250023C6
:1026E00000240022DEE7C0461E0400003304000080
:1026F00013040000FFFF0F8010B5041E28D000F067
:102700000FF9154B154A1B1AD21A1F2A15DD144A48
:10271000D21A9440002224035B05240B5B0D002198
:10272000100024030A0D240B120522430D4C1B0537
:10273000224013435B00590810BD210091400A005C
:102740000B21081AC4405B052403240B5B0DE6E74C
:10275000002300240022E2E71E04000033040000EE
:1027600013040000FFFF0F804100090E4B1C70B5E1
:10277000DBB24602750AC40F012B14DDE0239B0077
:102780006D07360BCB1800210A0D280012051C4DD1
:1027900032435B052A405B0813435B00E4075B0898
:1027A0002343190070BD002914D1002D1ED028002C
:1027B00000F0B6F80A281CDC0B232A001B1ADA40AA
:1027C000030015339D400F4B12031B1A5B05160BBC
:1027D0005B0DD8E7002D06D0320B802636036D073F
:1027E0001643094BCFE7084B0026CCE70023002611
:1027F000C9E703002A000B3B9A400025E3E7C046E7
:10280000FFFF0F8089030000FF070000F0B54C00B8
:10281000640D0B03621C450F5B0A52052B43C90F65
:10282000C500520D012A28DD3A4AA618FE2E1BDCEF
:10283000002E3EDD80010200501E82416D0F2A43B2
:10284000DB0013435A0704D00F221A40042A00D099
:1028500004338022D2041A405AD00136FF2E03D00E
:102860009B015B0AF4B201E0FF2400235802E40557
:10287000400AC90720430843F0BD002C07D01D4380
:10288000F2D08020DB0080040343FF26DAE72B43ED
:1028900003D00523DB08FF2C03D05B025B0AE4B204
:1028A000E4E7002B32D08020C00303435B025B0AC5
:1028B000DCE73200173214DB80221E271204134398
:1028C000BF1B1F2F0FDC144A944664442A00A54006
:1028D0002E00A340751EAE41FA4033431343002639
:1028E000B0E70024D5E702225242961B1A00F240BC
:1028F000202F09D0094884466444A3402B435D1E21
:10290000AB41002613439DE70023F7E70023ADE723
:102910003400BFE780FCFFFF82FCFFFFA2FCFFFF4B
:102920001C2101231B04984201D3000C10391B0AFF
:10293000984201D3000A08391B09984201D30009C3
:10294000043902A2105C40187047C046040302021A
:1029500001010101000000000000000010B5002985
:1029600003D1FFF7DDFF203002E0081CFFF7D8FF9E
:1029700010BDC046024A1368013313607047C04659
:1029800010030020C021074A074B08485360036A20
:1029900009061B021B0A0B430362002393600733E3
:1029A0001360704710E000E0FE7C000000ED00E0E6
:1029B000014B18687047C04610030020034A116895
:1029C00013685B1A8342FBD37047C0461003002094
:1029D00010B541600400FFF7EBFF206010BD0368F5
:1029E00042689B180360704710B50400FFF7E0FFD2
:1029F0002368C31A6068013398428041404210BD89
:102A00000E4AD3691B061B0F4370D9B2D3690C4A17
:102A10001B071B0F83700B4B1B68436093420BD14A
:102A200002230370002901D101234370064B9B8AC6
:102A300001339B00836070470123F2E70000904060
:102A400041A000022800904000001040F0B50700AF
:102A500085B001AC0E0020001500FFF7D1FF2378F0
:102A60003B7063783370A3782B7005B0F0BD10B560
:102A700001F0B5FD10BD10B501F0CCFD10BD10B5D5
:102A800001F09EFD10BD0000024A138ADB07FCD551
:102A90007047C04600001040084B10B51A68084B3C
:102AA0009A4209D13F22074B40061A81000C2E3A68
:102AB00098611A80FFF7E8FF10BDC046140000209F
:102AC000CCBCECFC00001040084B10B51A68084B59
:102AD0009A4209D13F22074B80081A810C3A98612B
:102AE00019641A80FFF7D0FF10BDC0461400002003
:102AF000CCBCECFC00001040F7B5019001790468F3
:102B0000002931D18022D2055368A3435360019B31
:102B100020251E68802300226D42DB053400012041
:102B2000D44004420BD0D4B2072A26D897000E30E6
:102B3000B840DC6A84430800B8400443DC620132D8
:102B400004351A2AEAD1019B5A798023DB05012A30
:102B50003AD1DA683243DA60019A9279012A36D1A1
:102B60009A6816439E60F7BD0629D0D18022D2050F
:102B70005368002123435360C9E72700083F072F0C
:102B800008D80F27AF401C6BBC430F00AF403C433D
:102B90001C63D4E7103C072C0AD82F000F20203FDD
:102BA000B8405C6B84430800B84004435C63C6E7EC
:102BB0002F000F20403FB8401C8F84430800B840CE
:102BC0000443A4B21C87BAE7DA68B243C3E79A6841
:102BD000B2439A60C7E7202310B5013BC25CCC5CCE
:102BE000121B01D1002BF8D1100010BDC023802191
:102BF0001B061A680A431A601A688A431A607047EB
:102C0000C02301211B061A680A431A601A688A4306
:102C10001A607047C0231B0618688007C00F7047F2
:102C2000054B01201B78002B04D1044B1868431E70
:102C30009841C0B27047C04614030020000400C091
:102C400070B5294C90B0060020220D006846210086
:102C500001F0C5FC21002022203108A801F0BFFCB2
:102C6000012E1DD108A92800FFF7B5FF1F4B042234
:102C70001978002805DB34000A431A70200010B0D0
:102C800070BD91431A4A197029002B0020311C682D
:102C9000581B043384508B42F9D100241462EDE7B1
:102CA000022E0FD169462800FFF795FF0F4B012434
:102CB0001A78002802DB22431A70DFE7A2431A7059
:102CC0000C4AE1E70124032ED8D169462800FFF71A
:102CD00082FF064B02221978002801DB0A43EBE74A
:102CE00091431970044ACFE7F0C705101403002080
:102CF0006C0400C0900400C0B40400C003000128AC
:102D00000FD002280FD00120032B09D1074B1A0046
:102D1000C91A20321878C85401339342FAD10020DE
:102D20007047034BF3E7034BF1E7C046B40400C020
:102D30006C0400C0900400C0044B1A6A012902D13F
:102D400010431862704782431A62FBE7000090400C
:102D5000244B1A7A244BD2B21B899BB2002A36D15B
:102D60001A00093A782A19D809211A0006200A40BF
:102D70008A422BD0112201301A40112A26D021225A
:102D800001301A40212A21D0412208001A40412A4C
:102D90001CD0812201301A40812A17D0022219004A
:102DA000FF3211400B20914210D019000F4A013020
:102DB000114091420AD01A0007380240824205D0E1
:102DC00002381840033843425841800070470120C0
:102DD000022AFBD00018042AF8D00020082AF5D1D6
:102DE0000330F3E7000090400000104801040000A9
:102DF000054B0122196B002802D00A431A63704761
:102E000091431963FBE7C04600003040F8B54A4CD7
:102E10000500236B01681B0700D56DE009014748D9
:102E2000FDF7B8F9C3099AB2A284454ADB01013023
:102E30001340C01A400880B23F2802D93F233F38D0
:102E40001840032760263F4BC0B218703E4B2A79CA
:102E500018783A405201B043104318700120697944
:102E6000227F39404901B2430A432277AA7919786F
:102E70000240BA400730814311431970217F8143DA
:102E80000A432277EA79002A38D102211A788A4344
:102E90001A70227F8A43012022772A7A216B16003A
:102EA000C2402A4F06407602394031432163216BEC
:102EB000274E0240314012020A432263697A226B94
:102EC0000E00C140234F06403A40B603324322630E
:102ED000226B214E01403240C90311432163AA7A7B
:102EE000197802400F301201814311431970237F7A
:102EF00083431A432277F8BDC90090E7022A0CD118
:102F00000420197811431970197881431970217FB1
:102F10000A432277227F8243BDE702211A780A43BF
:102F20001A700422187810431870207F014321770B
:102F3000217F0A43AFE7C046000030400000127A0C
:102F400080FF7F00280030402C003040FFFDFFFF55
:102F5000FFFEFFFFFFBFFFFFFF7FFFFF044B1A8F46
:102F6000002902D010431887704782431A87FBE775
:102F700000003040024BC005C00D18807047C046AD
:102F800000003040014B1888C0B27047000030404C
:102F9000054B002805DA5B681840431E9841C0B213
:102FA00070471B8BF8E7C04600003040034B9B8FF7
:102FB0001840431E9841C0B27047C04600003040E0
:102FC0000722024038200449D2000B7883431800BE
:102FD000104308707047C04634003040F0B5837825
:102FE0000178002B33D040784AB28001002A1BDAE6
:102FF0000F230B40083B1B4A9B089B009B18FF229A
:10300000032517000D40ED00AF400240AA40DE69E5
:10301000BE433243DA611F224B0911401E3A8A40F7
:1030200011499B00CA50F0BDFF270F4B9208920038
:10303000D21803233C00C0250B40DB009C403840E5
:103040009840AD005659A64330435051E3E71F2343
:103050004A090B40012199401300034A20339B0089
:10306000D150E0E700ED00E000E100E010B5040021
:103070002020FFF78DFF0128FAD0A0B2FFF77AFFDA
:1030800010BDF0B5012187B006000920FFF754FEFE
:1030900080230024012501AF5B00380001933D71BE
:1030A000BC717C71FFF728FD802338001B01019360
:1030B0003D71FFF721FD032303A8037143710372E0
:1030C0008471C471447285720396FFF79FFE2000DD
:1030D000FFF776FF2800FFF78BFE07B0F0BD042353
:1030E00013B5040001A80370013B43708470FFF71F
:1030F00075FF21001020FFF731FF13BD094B10B5FC
:103100001860E1200003FFF7BCFF0120FFF7E7FF95
:10311000054B0222186800238068190001F00CFB9F
:1031200010BDC04618030020581E0020034B10B5E8
:103130001B68002B00D0984710BDC0461803002024
:1031400007B51020FFF732FF002809D107BDFFF7B0
:1031500019FF6B46D871073301211800FFF7E6FF0E
:103160001020FFF715FF0028F1D0EFE701000A4A11
:103170000A4810B51368046801209C4209D0084829
:10318000C05C0133087080210020C9008B4201D04F
:10319000136010BD1060FCE7200700201C07002012
:1031A0001C03002010B50400C0B2FFF75FFF200031
:1031B00010BD00000B4A10B513680B49002B00D15D
:1031C000116080241368640118180919884205D910
:1031D0000C220120054B40421A6010BD10601800FF
:1031E000FBE7C0462417002024070020201A0020F7
:1031F00001204042704780239B0100204B607047B4
:10320000012070470020704770B50E0015000C00BB
:10321000A31B9D4201DC280070BD2078FFF726FF2C
:103220000134F5E770B50E0015000024AC4208D259
:103230003019FFF79BFF002801D10134F6E7002C7D
:10324000F4D0200070BD10B501F0C9F910BD10B563
:1032500001F0C5F910BD00000222014B1A70704741
:103260002817002010B50CF071FC10BD10B50CF043
:1032700087F810BD10B50CF03DFB10BD7FB50BAE4F
:10328000368808AC09AD2D88248803960A9E0195DE
:10329000029600940CF04AFD7FBD7FB508AC20CCAF
:1032A0000AAE247836780194029600950CF080FCE2
:1032B00004B070BD10B505F057FE10BD10B50EF08E
:1032C0005DF910BD01207047F0B58DB012AC2478C7
:1032D00009930A9413AC248818AB1B880B9415AD82
:1032E00014AC16AE17AF24882D8836883F88069315
:1032F0000B9B059701930A9B0496009303950294F8
:10330000099B05F03FF90DB0F0BD10B505F038FC94
:1033100010BD10B505F0B2FD10BD10B510F038FBB2
:1033200010BD10B50EF02AF810BD10B50DF032FB2F
:1033300010BD10B505F0EEFD10BD10B505F0F2FDA5
:1033400010BD10B50AF09AF810BD10B513F03CF995
:1033500010BD10B512F0D6FE10BD10B513F02EFA48
:1033600010BD10B512F0F6FE10BD10B509F060F8F2
:1033700010BD10B50CF018FE10BD10B509F054FECC
:1033800010BD10B50DF016F810BD10B50CF05CFEB8
:1033900010BD10B50CF058FF10BD0120704710B5DE
:1033A00008F0F0FE10BD10B515F004FA10BD10B510
:1033B00015F0D2F910BD10B515F0B2F910BD10B569
:1033C00015F0D4FB10BD0120704710B515F04EFC70
:1033D00010BD10B515F00CFC10BD10B513F0C2FEF9
:1033E00010BD10B513F0DEFE10BD10B513F06CFF6C
:1033F00010BD10B513F032FE10BD10B513F04EFE27
:1034000010BD10B513F074FE10BD10B513F0E0FE42
:1034100010BD10B513F0FEFE10BD10B512F0D0FEB9
:1034200010BD10B512F09FFE10BD10B513F0EFF9EE
:1034300010BD10B513F004F910BD70477047704708
:1034400070477047704770477047704770477047C4
:103450007047704770470000002210B5104B995C10
:10346000C9B2002917D11C2A14DC02202124985447
:10347000501C1C54901C193C1C54D01C19549B18F3
:10348000802290219BB252021343C905CB60CB68C6
:103490001342FCD110BD995C01315218D2B2DEE763
:1034A00029170020002330B50E4AD15CC9B200298B
:1034B00013D11C2B08DC02243525D4545C1C155573
:1034C0009C1C03331055D1540222074B1A7033321F
:1034D0005A7000229870DA7030BDD15C01315B18EF
:1034E000DBB2E2E729170020F417002010B5104BDB
:1034F00000280AD0802290219BB252021343C905B2
:10350000CB60CB681342FCD110BD042198789A7827
:103510009CB28A439A708022902152021443C905BA
:10352000C0B2CC60CC681442FCD19870ECE7C046C5
:10353000F4170020012330B5234A0324117A85B003
:103540000B4313720022214B1A60FFF701FC6B46FC
:10355000033318701A78002A03D1013CE4B2002C1E
:10356000F3D11A78052A2BD91B780B2B10D001AC7C
:103570002000FFF745FA6278A37812011A43144B32
:103580001B681B070AD4112A02DD0120FFF7AEFFDA
:103590000122104B1A70FCF7BCFDFEE790250E4C83
:1035A000ED0528692368283B1B1A1B02002BEFDD61
:1035B000112A02DD0120FFF799FF23686B60E7E71E
:1035C000012005B030BDC04600002040140000209E
:1035D000C00000200C0000201800002070B5FFF78C
:1035E000A9FF012817D1002314481549154C1A18B2
:1035F0008A4216D3002314481449154C1A188A42DB
:1036000013D30021134B144A934212D30021134BBE
:10361000134A93420FD3134B83F3088800F056F9F3
:1036200070BDE55804331560E1E7E55804331560D3
:10363000E4E702C3E8E702C3EBE7C046301A002024
:10364000C824002000D80510080000203400002005
:10365000D4D70510C0000020CC020020CC020020EE
:10366000301A00200060002070B58AB003AC05005D
:103670000E0019224349200000F0B1FF6846FFF711
:10368000BFF9002D60D044233F4AA373117A433B16
:103690000B4313724C23E3722C3B237292336374FB
:1036A000573B2375394B3A4A1B68190C914208D194
:1036B0007020E17D1B018143E175E17D03400B43F7
:1036C000E375344B1B68190C914208D130206179A5
:1036D0001B0181436171617903400B4363712E4B80
:1036E0001B68190C914207D10321E27D0B408A43EC
:1036F000E275E27D1343E3750422E37A694693435E
:10370000E3726B465B78897893400B43112B06DD9F
:10371000E37D1A43E275E07DC0B2FFF7C3FE80236C
:1037200090222404240C5B021C43D205D460D1688F
:103730001942FCD16B466A465B7892781B011343B1
:10374000112B01DDFFF788FE144B1A8B002AFCD0E9
:1037500001221A8316329A8100221A61964207D0FA
:1037600090231021DB0518691A6942400A42FBD0F8
:10377000002D02D015220A4B1A700A4A0A4B1A6011
:103780000AB070BD30C8051000002040E8070010E6
:1037900055AA0000E4070010B00700100000104810
:1037A0000000C040CCBCECFC140000200822C0216A
:1037B000F8B53F4B3F4D9A803F4A0904136AFF20FA
:1037C0002B400B43C0211362136A09061B021B0A1C
:1037D0000B431362C02292009446384B64469A58B9
:1037E000374E82433F38024360461A501A58C02071
:1037F0003240000202431A51C122FF2792009C5816
:10380000BC433F3F3C439C509C583F3734400443AB
:103810009C509C582C409C509C582402240A0C43D9
:103820009C500832944664469A58324002431A51DA
:103830001A59C0242A402404224364461A511A59B2
:103840001202120A0A431A51C42292009446644694
:103850009A58324002431A511A59C0242A4024046B
:10386000224364461A511A591202120A0A431A5183
:10387000C52292009C58BC432700C0242743C02483
:103880009F509F5824043E4030439850985805401C
:103890002C439C5098580002000A01439950012182
:1038A0000800FFF7E1FE074A074B1A6262B6F8BD4F
:1038B00000001040FFFF00FF00ED00E000E100E02D
:1038C000FF00FFFF66000E000000904010B5FFF7FC
:1038D0006DFFFFF7C1FCFFF755F8E1200003FFF78C
:1038E000D0FB1348FFF70AFC124804F029FF011E21
:1038F00003D0114800F096FEFEE71049104800F092
:1039000091FE00F04BFA011E03D00E4800F08AFE33
:10391000FEE70D4800F006FF102400F057F80B4BAF
:10392000DC6704F0C9FE0A4B1C6000F025FBF6E7DB
:10393000ED420410E4C8051018C9051049C9051066
:103940004FC905108BC90510ABC9051004E100E093
:1039500000E100E07047FEE7704710B5FFF70AF896
:1039600010BD704710B5FFF7EBFB10BD10B509F0A7
:10397000F1FB10BDF0B50C4E0378421C141AA142A5
:1039800001D81800F0BD08251478240263401FB246
:103990005C00A3B2002F01DA7440A3B2013D002DF8
:1039A000F5D10132EAE7C04621100000044B05487A
:1039B0001A685043044A801818604000400C704751
:1039C00054170020FD430300C39E260070B50A482B
:1039D00000F0A8FE094D0A4B6C1CED18631E220076
:1039E000197808486C3400F01DFEAC42F6D1064848
:1039F00000F098FE70BDC04600D10510881A002066
:103A0000CD03000031D1051006D10510094B10B5CA
:103A10001B681B0402D50848FEF7E1FF2C22002199
:103A2000064800F0F7FD2C220021054800F0F2FDC9
:103A300010BDC046841A0020881700205C170020A3
:103A40009017002070B5564D280000F06BFE5548C9
:103A500000F068FE544B5548198889B200F0E2FD29
:103A6000534B5448198800F0DDFD534B53481978E7
:103A700000F0D8FD524CA06AFEF776FE02000B0063
:103A8000504800F0CFFD504EB06AFEF76DFE0200C8
:103A90000B004E4800F0C6FDB16AA06AFCF782FE3A
:103AA000FEF762FE02000B00494800F0BBFD494CE6
:103AB0004948216800F0B6FD484B4948196800F0B4
:103AC000B1FD280000F02EFE23684649DB0700D434
:103AD0004549464800F0A6FD236842499B0700D4AB
:103AE0004149434800F09EFD23683E495B0700D4EE
:103AF0003D49404800F096FD23683A491B0700D431
:103B000039493D4800F08EFD236836499B0600D4B4
:103B100035493A4800F086FD236832495B0600D4F7
:103B20003149374800F07EFD23682E491B0600D43A
:103B30002D49344800F076FD23682A49DB0500D47E
:103B40002949314800F06EFD236826499B0500D4C1
:103B500025492E4800F066FD236822495B0500D404
:103B600021492B4800F05EFD23681E491B0500D447
:103B70001D49284800F056FD23681A499B0400D4CB
:103B80001949254800F04EFD236816495B0400D40E
:103B90001549224800F046FD280000F0C3FD70BD25
:103BA00070CE05109FCE051050170020A6CE051030
:103BB0001C180020C2CE051058170020D6CE0510C4
:103BC0009017002003CF05105C17002023CF0510AD
:103BD00043CF0510841A00206BCF05104C1700202E
:103BE0007FCF05109AD105106DCE051098CF051026
:103BF000AACF0510C2CF0510E0CF0510FCCF0510ED
:103C000013D0051032D005104CD005106ED0051021
:103C10008ED00510B0D00510D0D00510E5D005101D
:103C2000F0B589B0FEF7C4FE544C05006069002869
:103C300000D199E0FEF760FD0022514BFDF730FF07
:103C4000636822680600981A0F00FEF755FD0B0006
:103C5000020039003000FDF7EFFAFEF7D7FD002330
:103C60000690656025606361A66A0021301CFCF740
:103C70006BFC002800D17AE0301CFEF775FD414A4C
:103C8000414BFDF70DFF060006980F00FEF76CFD97
:103C90003E4A3F4BFDF704FF02000B0030003900A5
:103CA000FCF7BAFFFEF7B2FDA0623A4C606900284B
:103CB0005FD0FEF721FD0022314BFDF7F1FE636876
:103CC00022680600981A0F00FEF716FD0B0002008E
:103CD00039003000FDF7B0FAFEF798FD0023079099
:103CE000656025606361A66A0021301CFCF72CFC2E
:103CF000002841D0301CFEF737FD224A224BFDF749
:103D0000CFFE060007980F00FEF72EFD1F4A204B3E
:103D1000FDF7C6FE02000B0030003900FCF77CFF07
:103D2000FEF774FDA0620698FEF71EFD0F00FA2153
:103D3000060089002800FCF72DFAE36905000493CA
:103D4000A36907980393236A0293FEF70DFD3200DF
:103D5000009001913B0029000F4800F063FC002215
:103D6000064B5A6209B0F0BD002306937CE7069823
:103D70009AE700230793B6E70798D3E79017002048
:103D800000002040666666666666EE3F9A999999DD
:103D90009999A93F5C17002042D10510F0B508267B
:103DA000324C8BB02100320008A800F018FCA11999
:103DB000062206A800F013FCFFF728FE06AA06213B
:103DC000002004F074FC2A4D041E07D029000200D4
:103DD000284800F027FC20000BB0F0BD0421012092
:103DE00004F061FC04F042FC041E03D00200290030
:103DF0002148EEE72900214800F014FC16236B440B
:103E00000193122305AF210000976B443200042078
:103E100004F0E5FB041E03D0020029001848D8E78F
:103E20002900184800F0FEFB6B46598A08AB3A8817
:103E300020000393019423000296009604F01AFCDC
:103E4000041E03D0020029000F48C2E729000F48D2
:103E500000F0E8FB17220E4B1A800E4B153A1C603F
:103E60000D4B1C6019680A431A60B4E749C8051075
:103E70009FCE0510ABCB0510CFCB0510F5CB0510B1
:103E800016CC05103ACC05105ACC051090CC051074
:103E90001C1800204C170020841A002010B513496C
:103EA0008AB006220E3108A800F099FBFA23DB0045
:103EB0000693059380213C2300220493C901143BFF
:103EC000029301930392009208AB0800FFF7FCF9FC
:103ED000041E07D002000649064800F0A3FB642038
:103EE000FEF76CFD20000AB010BDC04649C80510A1
:103EF0009FCE0510C2CC0510F0B516000022042597
:103F0000164C85B003AB5A7022680231AA43226076
:103F100089B202221E7004F0BEFB071E1AD123686C
:103F20001D432560802523682D022B4209D10C4BAF
:103F30000C481B6859000193FEF74AFD23681D4396
:103F400025600949012E00D00849094800F06AFBA4
:103F5000084B1E70380005B0F0BDC046841A002022
:103F6000E0C805108817002085D1051092D10510F2
:103F70009DD10510541E0020F0B50225BE4C89B01D
:103F800023682B4207D0FFF789FF002832D123682E
:103F9000AB4323602EE02368DB072BD523681B048B
:103FA0000ED5B64D2800FEF71FFD002808D0B44BF3
:103FB00028001B6859000293FEF70AFDFFF730FE48
:103FC00023685B040AD5AF4B188880B204F032FB3B
:103FD000002803D12368AC4A134023608027AB4DEF
:103FE0007F002B683B4207D0FFF72CFDA84B2A68C7
:103FF00013402B6009B0F0BD5A072AD001221342AA
:1040000019D01B2693432B60A24C32002100A248FA
:1040100000F008FB32009B4B0E321888D20080B2B1
:1040200092B2B1B2FFF7A1F90028E3D021009B487A
:1040300000F0F8FADEE70222134203D093432B602C
:104040006426E1E704221342DED093432B60FB2673
:10405000DAE7082633421CD023681B0611D4402718
:1040600023683B420DD1874B188880B204F0FAFADE
:10407000011E8B48DCD123681F432B682760B343A4
:10408000B7E7884800F04EFB08232A689A431300DC
:10409000AFE71022134223D0802322689B011A42EB
:1040A00008D02368804A81481340236000F03AFB1F
:1040B0001023EAE7802622687D481343236000F03E
:1040C00031FB236836023342F2D16D4B6B481B68DB
:1040D00059000293FEF77CFC23681E432660E7E745
:1040E0008026334211D0674B02221888714B80B270
:1040F0001988FFF701FF002800D07BE72B686E4886
:10410000B3432B6000F00EFB74E7402633420FD020
:104110005C4B01221888674B80B21988FFF7ECFED0
:10412000002800D066E72B686448B3432B60E9E7BA
:1041300023689B0519D423683B4200D05AE704AD9D
:104140005F492800FEF793FC4E4B012118885D4A19
:1041500080B20095022304F071FA011E5A4800D083
:1041600066E723681F43276044E723681B051AD4CA
:1041700023685B0500D53DE704AD54492800FEF7F0
:1041800076FC404B012118884E4A80B200950223EC
:1041900004F054FA011E4E4800D049E780232268FB
:1041A000DB001343F5E623685B0708D4354B012297
:1041B0001888404B80B21988FFF79EFE1AE72368E3
:1041C0009B0400D416E720232668424D1E404FD1A1
:1041D000414F2B7B3B706B7B7B70AB7BBB70EB7B76
:1041E000FB703E4B1A880B3A93B202935B08039321
:1041F000039B9E422CD302993948FFF7BBFB030A6D
:104200007B71030CBB711F4B3871000EF87118885D
:10421000344B029A19880832013189B280B2D2B285
:104220003B0004F03CFA011E1AD16B69002B02D14D
:10423000FEF7BEFB2860EB68284A0133EB606B6930
:104240001288033B9B186B61FEF7B2FB6860D1E6F6
:10425000FFF7ACFB224A73000136D052F6B2C7E733
:104260002148642900D0E3E6202322681343236019
:104270006B6A01336B62BDE6841A00208817002048
:10428000E0C8051050170020FFBFFFFF4C170020AB
:10429000FFFEFFFF9FCE0510E2C9051011CA0510F1
:1042A00037CA05106ACA0510FFDFFFFFA5CA05104F
:1042B000BDCA051004180020D4CA0510F1CA0510A3
:1042C000D2C90510FFFF000010CB0510C2C90510B0
:1042D00056CB0510901700201E1800201C18002037
:1042E000261800201A1800209CCB0510F7B50D00E9
:1042F000002401270190AC4221D2019B0022185DCD
:104300000F4B02E00132092A0FD06C215143CE5CE1
:104310008642F7D13A005B189B6E9A401300094A17
:1043200011680B4313609B0506D5FFF74FFB054A49
:10433000054B11680B4013600134E4B2DBE7F7BDB5
:10434000881A00204C170020FFFDFFFF17220A4BA0
:1043500010B51980094B0A481A800A4B04321A70AA
:1043600000F060F90122084B19680A4310211A6015
:104370001A688A431A6010BD501700201C180020CC
:10438000BDCD051058170020841A002010B507482D
:1043900000F048F9FFF73AFB0022054B05491A6087
:1043A0000A60196802320A431A6010BD76CD051002
:1043B000841A00204C170020F8B516000F00FEF7F5
:1043C000F7FA737835781B022B43B5781F4C2D0410
:1043D0002B43F5782D061D43237A002B04D16B1E49
:1043E00023610123206023722269954223D1290091
:1043F000174800F017F9E3690133E3613000390031
:1044000008300839FFF7B6FA7279337912021A4385
:10441000B3791B041A43F3791B061343984202D065
:10442000236A0133236263692561DF196761FEF73F
:10443000BFFA6060F8BD531C9D42DFD09542DAD3CD
:10444000A369013B9B1A5B19A361D7E75C170020A6
:104450005FCD051070B507481D0000F063F9049C9E
:10446000049BE31A9D4200DC70BD2078FEF79AFEA3
:104470000134F5E712CD0510F0B50C00160005006B
:1044800085B0039309490AAB09481F8800F0CAF8B0
:10449000039B01970093220033002900054800F098
:1044A000C1F8054B1C7005B0F0BDC0469FCE05108D
:1044B000F2CD051016CE05105817002010B50800D3
:1044C0001100044A1278012A02D11A00FFF774FF82
:1044D00010BDC046541E002010B504000800110095
:1044E000094A1278022A02D11A00FFF765FF20005C
:1044F00004F0A0F8002805D08023044ADB011168ED
:104500000B43136010BDC046541E0020841A0020C7
:104510000B4B10B51A68D20508D51A68920505D458
:10452000084B0948198000F07DF810BD1A68520543
:10453000FBD51B681B05F8D4044B05481980F2E72E
:10454000841A00200418002031CD05101A1800200C
:1045500048CD05100A4B1A68D20508D58022196883
:104560009200114203D119680A431A6007E01A68E1
:10457000520504D58022196812011142F3D0704708
:10458000841A00202021024A13688B43136070476D
:10459000841A0020054B10B519808023044A106846
:1045A00003430448136000F03DF810BD1C180020C0
:1045B000841A0020EFCC051010B500F019F810BDDA
:1045C00030B50024A24201D1002005E0035D651C46
:1045D0000C5DA34201D0181B30BD2C00F2E7002374
:1045E00010B59A4200D110BDCC5CC4540133F8E739
:1045F00010B5884202D98B18984208D300239A42FA
:1046000007D0CC5CC4540133F9E78B5C8354013A86
:10461000FBD210BD03008218934200D1704719707D
:104620000133F9E70FB40B4B13B51C68002C05D010
:10463000A369002B02D1200002F0C4FA05AB049A52
:10464000A1682000019300F045F916BC08BC04B035
:104650001847C046581E002030B5050089B0080034
:104660000C00FBF77BFD2A4A04AB06920122019362
:104670000223059080180494079203900293002D62
:1046800005D0AB69002B02D1280002F09BFAAB6980
:10469000AC68002B02D1280002F094FA1D4B9C421A
:1046A0002BD16C68636EDB0705D4A3899B0502D40C
:1046B000A06D02F0A3FD0C23E25E80239B011A4251
:1046C00005D11343A381626E134B13406366280028
:1046D00001AA210002F000FC431E98410A25636EE6
:1046E00040420543DB0705D4A3899B0502D4A06D96
:1046F00002F085FD280009B030BD084B9C4201D175
:10470000AC68CFE7064B9C42CCD1EC68CAE7C04608
:1047100089C9051040D20510FFDFFFFF60D20510E8
:1047200020D2051010B5034B01001868FFF794FF65
:1047300010BDC046581E0020F0B51D00604B85B06E
:104740001E6804000F000092002E05D0B369002BF4
:1047500002D1300002F036FA5A4B9C4262D17468A2
:10476000009B022B05D0012B00D9A3E0002D00DA1D
:10477000A0E0636EDB0705D4A3899B0502D4A06D7E
:1047800002F03CFD2100300002F07AF9616B002953
:1047900008D023004433994202D0300002F0E8FAF6
:1047A000002363630023A3616360A3891B0603D511
:1047B0002169300002F0DCFAA389434A1340A38147
:1047C000009B022B00D16FE003AB02AA2100300056
:1047D00002F016FDA3891843A081002D2CD1029D63
:1047E000280002F081FD0195071E57D1029B01931D
:1047F000AB424ED101256D420223A289616E134363
:104800000022A260220047322260226101221BB2F4
:10481000A3816261114239D19B0537D4A06D02F0AA
:10482000EEFC33E0294B9C4201D1B46898E7284B59
:104830009C4295D1F46893E7002FD1D0B369002B47
:1048400002D1300002F0BEF9029B9D4204D08023C9
:10485000A2891B011343A381009B012B03D1A389D0
:10486000009A1A43A2810823A28927602761656103
:1048700013401DD0D30719D500236D42A360A56155
:104880000125636E1D4018D19305C7D5280005B0DA
:10489000F0BD019802F028FD071EABD08023A2894D
:1048A000019D1343A381C9E70025A5E7A560E7E7BC
:1048B000A360E5E701256D42E8E70025E6E7C0468D
:1048C000581E002040D205105CF3FFFF60D2051097
:1048D00020D20510F0B5C5B00E0015001F001C0059
:1048E0000A9002F07DFC036818001893FBF736FC71
:1048F0000A9B1290002B06D09B690793002B02D1D4
:104900000A9802F05FF9A94B9E422FD10A9B5E687C
:10491000736EDB0705D4B3899B0502D4B06D02F03A
:104920006DFC0C23F25E80239B011A4205D11343D8
:10493000B381726E9E4B13407366B3891B0702D519
:104940003369002B1ED131000A9801F01FF90028AD
:1049500018D0736EDB0705D4B3899B0502D4B06D04
:1049600002F04DFC01235B42139323E0914B9E42E6
:1049700002D10A9B9E68CBE78F4B9E42C8D10A9B0F
:10498000DE68C5E71A23B28913400A2B15D10E2120
:10499000735E002B11DB736EDB0704D4930502D426
:1049A000B06D02F02CFC3B002A0031000A9801F0A7
:1049B000A9F81390139845B0F0BD002334AF2797A2
:1049C0002993289311950E93169317931A9319937D
:1049D0001393119D2B78002B02D0252B00D098E04B
:1049E000119BEB1A07931ED0079A119B94463B60CC
:1049F000079B7B60299B083763442993289B0B9373
:104A000001332893072B09DD27AA31000A9803F008
:104A100051FB002801D000F0EFFF34AF079A139B41
:104A20009446634413932B78002B01D101F009F8CD
:104A30001F22002318A95218012113701A0049429D
:104A400001350B9114930793691C119129780D91ED
:104A50000D982038582801D900F0E4FCFBF790FBB2
:104A6000DB00E204E204E100E204E204E204E20426
:104A7000E204E204E6005B00E204EE00F000E2047F
:104A80001501170117011701170117011701170168
:104A900017011701E204E204E204E204E204E20482
:104AA000E204E204E204E2044B016701E20467016C
:104AB000E204E204E204E2042901E204E204D8038D
:104AC000E204E204E204E204E2044004E204E20458
:104AD000AE00E204E204E204E204E204E204E204DE
:104AE000E204E204E2043C015F0067016701670140
:104AF0002B015F00E204E2042D01E204B503DC03B4
:104B000009043401E2041C04E2044404E204E20463
:104B1000690401355EE701232B22119D94E7002BE8
:104B200003D01F2318A95B181A70079B9B0600D49B
:104B3000ECE0072307349C43230008330F932368DA
:104B4000646808930994099A0123002A0CDA0899E9
:104B5000099A00244B429441089309941F232D2263
:104B600018A95B181A7001230999089A0A430B992E
:104B7000013101D100F08EFF8021079D8D43002A75
:104B800001D000F08CFF0B9A002A01D100F03FFC0D
:104B9000012B01D100F0F2FB022B01D100F019FC36
:104BA000002300240893099400F07FFF40D20510F1
:104BB000FFDFFFFF60D2051020D20510002B03D0CD
:104BC0001F2318A95B181A70954B1A932023079A74
:104BD000134000D1B5E3072307349C432300083377
:104BE0000F932368646808930994079A0223D207F5
:104BF00000D420E3089A09990A4300D11BE330212D
:104C000020AA117034206946091809785170079A52
:104C10001A4307920FE3002A00D07EE701232022E7
:104C20007BE7012107980843079076E72168043461
:104C30001491002900DB70E7494214910421F1E747
:104C400011981199007801310D902A2809D000207F
:104C50000B900D9D0800303DAC46092D0CD91190EC
:104C6000F6E6201D24680B94002C02DA012464422D
:104C70000B940400119150E70A250B986843604497
:104C80000B90087801310D90E3E78021CAE70021FD
:104C900014910A20149941430D9830384118149109
:104CA0001199481C097811900D9130390929F0D9D2
:104CB000D5E70821B6E74021B4E7119909786C29B6
:104CC00005D11199013111910799202001E010209F
:104CD00007990143079120E7231D22680F932AAB10
:104CE0001A701F22002418A95218147001220B9266
:104CF00010940C933EE1002B03D01F2318A95B18DE
:104D00001A701023079A1A4307920EE7079B221D79
:104D1000DB0605D523680F920893DB17099312E78A
:104D2000079923680F924906F6D51BB2F4E7002BCA
:104D300003D01F2318A95B181A70072307349C435C
:104D40002300012208330F932368524216936368AD
:104D5000169D1793179B28005C006408314B2100B7
:104D6000FDF734FC002801D000F07AFE01222D4B23
:104D7000524228002100FBF7A3FB002801D000F0DD
:104D80006FFE0022002316981799FBF78FFB00286F
:104D900004D01F232D2218A95B181A70224B0C93E4
:104DA0000D9B472B01DC214B0C9380230024079A99
:104DB0009A437D3B07920B931094DBE00B9B0133EE
:104DC00025D020230D9A9A43472A02D10B9B002B12
:104DD00020D08023079A5B001A43179C169B1C92D5
:104DE0001093002C18DA80221206230094466344A4
:104DF00015932D231B9320230D9C9C43462C17D0E9
:104E00000B9D452C01D10B9B5D1C022312E0062358
:104E10000B93DEE70123FBE715940023EAE7C04686
:104E2000CCD10510FFFFEF7FC0D10510BCD105101C
:104E300003230B9D25AA049222AA039221AA02927F
:104E400000930195109A159B0A9800F099FF0C9019
:104E5000472C04D1079BDB0701D400F015FE0C9B07
:104E60005B190E93462C13D10C9B1B78302B0AD167
:104E70000022002310981599FBF712FB002802D19D
:104E800001235D1B2195219A0E9B944663440E934A
:104E90000022002310981599FBF702FB302200280E
:104EA00000D143E10E9B2593259B0C9A9B1A0E93F0
:104EB000472C00D03FE1219BDA1C03DB0B9A9A427E
:104EC00000DB6AE10D9B023B0D9369463420219A79
:104ED00009180978541E23AB21941970002C00DBAB
:104EE00041E10124A41A2D225A70092C00DC43E16F
:104EF0003B2518ABED186B1E20000A210B93FBF726
:104F0000B9FA6B1E3031197020000A21FBF7CCF979
:104F10000400092800DD28E12E233B2118AA023DC8
:104F200030342C709B1889181A008D4200D21EE173
:104F300023ABD31A1993199A0E9B944663440B938F
:104F40000E9B012B04DC0123079A1A40109206D015
:104F5000129A0B9B944663440B93002310931B9B64
:104F6000002B04D01F232D2218A95B181A700024CF
:104F70001C9B07930B9B15949C4200DA15931F23EF
:104F800018AA9B181B785A1E9341159AD31815938B
:104F90000223079A1A401B9202D0159B02331593E5
:104FA0008423079A1A401C921ED1149B159A9D1AAD
:104FB000002D19DDC74B3B60102D00DD4EE2299B13
:104FC0007D605D19289B29951D930133289308372F
:104FD000072B09DD27AA31000A9803F06BF8002897
:104FE00001D000F009FD34AF1F2318AA9B181A78CE
:104FF000002A16D03B6001237B60299B08370133D0
:105000002993289B1D9301332893072B09DD27AA99
:1050100031000A9803F04EF8002801D000F0ECFCB3
:1050200034AF1B9B002B17D020AB3B6002237B606F
:10503000299B083702332993289B1B93013328931C
:10504000072B09DD27AA31000A9803F033F800285E
:1050500001D000F0D1FC34AF1C9B802B1ED1149BDF
:10506000159A9D1A002D19DD9B4B3B60102D00DD1C
:105070000BE2299B7D605D19289B29951B930133C9
:1050800028930837072B09DD27AA31000A9803F077
:1050900011F8002801D000F0AFFC34AF0B9B1025B5
:1050A000E41A002C00DD1CE2079BDB0500D532E290
:1050B0000C9B3B600B9B7B60299B08370C930C9AE5
:1050C0000B9B944663442993289B0B9301332893AD
:1050D000072B09DD27AA31000A9802F0EBFF002810
:1050E00001D000F089FC34AF079B5B0701D500F0CD
:1050F00062FC1499159B994200DA1900139B5B1806
:105100001393299B0793002B08D027AA31000A98F4
:1051100002F0D0FF002801D000F06EFC00230F9CAD
:10512000289334AF55E4591C25911A70259B0E998C
:105130009942F8D8B8E60D9B652B00DCC5E60D9BBF
:10514000662B2AD1219B002B1DDD0B9A002A02D150
:10515000079AD20703D5129A9B180B9A9B18219A8B
:105160000B931092FBE62B22BEE60B9DC3E62A783A
:1051700001351A700133D7E6302223ABA4189A7098
:10518000DC7024AAD4E60B9B002B03D1079A0133D1
:105190001A42E4D0129B0133DFE7219A0E9B9A4218
:1051A00007DB079BDB070ED5129BD31867220D92F6
:1051B000D5E712990E9B5B1867210D91002ACEDC72
:1051C0009B1A0133CBE71300F0E7002B03D01F231A
:1051D00018A95B181A70079A231D920607D5226832
:1051E00013991160C91751601C00FFF7F2FB079A71
:1051F000D20603D5226813991160F5E7079A520683
:10520000F8D569464C200918226809881180EBE717
:105210001023079A1A4307922021079B194010D0A8
:10522000072307349C43230008330F9323686468E3
:105230000893099400231F22002118A81218117046
:1052400092E41022079B201D1A4004D023680F907F
:1052500008930991EEE7402307990F900B4004D083
:10526000236809929BB20893E4E7226809930892A5
:10527000E1E7231D0F932368782008930023302152
:10528000079A099302331A43079220AA11705070AB
:10529000124A0D901A92CEE7231D0F932368002423
:1052A0000C931F2318AA9B181C700B9B01330BD067
:1052B0000B9A21000C9802F025FAA04200D1CBE015
:1052C0000C9BC31A0B9377E50C98FAF747FF0B90EA
:1052D00072E5C046F0D1051000D20510DDD10510F1
:1052E0001023079A1A4307922023079A13400BD0E2
:1052F000072307349C43230008330F932368646813
:1053000008930994012396E7102207990A40211D6A
:10531000002A04D00F91226809930892F2E74023F3
:1053200007980F910340F6D0236809929BB2089327
:10533000E8E7002B03D01F2318A95B181A70AE4BA7
:1053400043E4102207990A40211D002A04D00F913E
:1053500022680993089248E4402307980F9103407C
:10536000F6D0236809929BB208933EE40C9B9FE31E
:10537000099B002B0AD1089B092B07D8089B2CAA54
:105380003033D3776F2318AA9B18B0E334AB0C9358
:105390000C9B08980999013B0C930A220023FBF708
:1053A000E7F8089809990C9B30321A700A220023FA
:1053B000FBF7DEF808900991089B099A1343E7D19F
:1053C0000C9A34AB9B1A0B9C0B93002307951093FC
:1053D000D0E500230024089309940F2034AB0C93EC
:1053E0000C9B1A9A013B0C93089B0340D35C0C9ACC
:1053F0001370099B1907089B1A09099B11431B0984
:1054000009930B00099A08911343E9D1D8E734AA0C
:105410000C92002BD4D1079BDB07D1D530222CABCB
:10542000DA77AFE7002B03D01F2318A95B181A7097
:105430000D9B002B00D104E334216A4652181278E8
:105440002AAB1A701F22002018A9521810700122CE
:105450000F940B9204004BE40400ADE410237B6036
:10546000299B083710332993289B1D9301332893D8
:10547000072B08DD27AA31000A9802F01BFE00283E
:1054800000D0B9E234AF103D94E510237B60299B36
:10549000083710332993289B1B9301332893072B3C
:1054A00008DD27AA31000A9802F004FE002800D087
:1054B000A2E234AF103DD7E5299B7D6010332993DC
:1054C000289B08371B9301332893072B08DD27AA55
:1054D00031000A9802F0EEFD002800D08CE234AFD3
:1054E000103C464B3B60102CE6DC299B7C601C1971
:1054F000289B29941B93013328930837072B00DC42
:10550000D2E527AA31000A9802F0D4FD002800D085
:1055100072E234AFC8E50D9B652B00DCB3E10022DD
:10552000002316981799FAF7BBFF00286AD0344B6E
:105530003B6001237B60299B083701332993289B1B
:105540000B9301332893072B08DD27AA31000A9813
:1055500002F0B0FD002800D04EE234AF219B0E9A3D
:10556000934203DB079BDB0700D4BDE5129A189B2F
:1055700094463B60129B7B60299B083763442993C8
:10558000289B0B9301332893072B08DD27AA3100B2
:105590000A9802F08FFD002800D02DE234AF0E9B58
:1055A00010255C1E002C00DC9EE5144B3B60102C8B
:1055B0000BDC7C60299B1C192994289B0B930133DD
:1055C0002893072B00DC87E084E5299B7D6010335E
:1055D0002993289B08370B9301332893072B08DD69
:1055E00027AA31000A9802F065FD002800D003E2E6
:1055F00034AF103CD9E7C046DDD1051000D205100C
:10560000EED10510219B002B7FDCD14B3B600123A9
:105610007B60299B083701332993289B0B93013327
:105620002893072B08DD27AA31000A9802F042FDD3
:10563000002800D0E0E134AF219B002B06D10E9B67
:10564000002B03D1079BDB0700D44DE5129A189B72
:1056500094463B60129B7B60299B083763442993E7
:10566000289B0B9301332893072B08DD27AA3100D1
:105670000A9802F01FFD002800D0BDE134AF219C44
:10568000002C19DA10256442B24A3A60102C25DC4D
:10569000299B7C601C19289B29945A1C08370B9362
:1056A0002892072A08DD27AA31000A9802F002FD95
:1056B000002800D0A0E134AF0E990C9B8C463B60D3
:1056C0000E9B7B60299B63442993289B5A1C0B9358
:1056D0002892072A00DDFDE4083705E5299B7D6057
:1056E0001A00289B103229925A1C0B9328920837D3
:1056F000072A08DD27AA31000A9802F0DBFC0028FF
:1057000000D079E134AF103CBEE7109C0E9A944271
:1057100000DD1400002C15DD0C9B7C603B60299B98
:1057200008371B192993289B0B9301332893072BC8
:1057300008DD27AA31000A9802F0BCFC002800D03E
:105740005AE134AFE343DB171C40109B10251C1BB0
:10575000002C7EDC219B0E9A934202DB079BDB0729
:1057600018D5129A189B94463B60129B7B60299B2C
:10577000083763442993289B0B9301332893072B05
:1057800008DD27AA31000A9802F094FC002800D016
:1057900032E134AF109A0E9B21999B1A0E9A541A3B
:1057A0009C4200DD1C00002C18DD109A0C9B9446D6
:1057B00063443B60299B7C601B192993289B083715
:1057C0000B9301332893072B08DD27AA31000A9891
:1057D00002F070FC002800D00EE134AFE343DB1789
:1057E0001C40219A0E9B10259B1A1C1B002C00DCD0
:1057F0007AE4584B3B60102C00DCDAE6299B7D6094
:1058000010332993289B08370B9301332893072BD8
:1058100008DD27AA31000A9802F04CFC002800D0CD
:10582000EAE034AF103CE4E7299B7D601033299314
:10583000289B08370B9301332893072B08DD27AAF1
:1058400031000A9802F036FC002800D0D4E034AFD2
:10585000103C404B3B60102CE6DC299B7C601C1903
:10586000289B29940B93013328930837072B00DCDE
:1058700070E727AA31000A9802F01CFC002800D02B
:10588000BAE034AF66E70E9B012B04DC0123079AD4
:105890001A4200D188E00C9B3B6001237B60299B6E
:1058A000083701332993289B0B9301332893072B47
:1058B00008DD27AA31000A9802F0FCFB002800D07E
:1058C0009AE034AF129A189B94463B60129B7B601F
:1058D000299B083763442993289B0B930133289312
:1058E000072B08DD27AA31000A9802F0E3FB002805
:1058F00000D081E034AF0023002216981799FAF700
:10590000CFFD0E9B5D1E002826D10C9B0E9A013305
:105910003B60299B7D60013B9B182993289B08379E
:105920000B9301332893072B07DD27AA31000A9830
:1059300002F0C0FB00285FD134AF199A23AB944624
:105940003B60199B7B60299B6344299335E6C046E5
:10595000EED1051000D205101024002DEDDD654BB1
:105960003B60102D0BDC299B7D605D192995289BE0
:105970000B9301332893072BD7DC0837DDE7299BEE
:105980007C6010332993289B08370B9301332893AD
:10599000072B07DD27AA31000A9802F08BFB0028AD
:1059A0002AD134AF103DDAE77B60299B0C9A013392
:1059B0003A602993DBE7149B159A10259C1A002C5A
:1059C00001DCFFF796FB4C4B3B60102C24DC299B41
:1059D0007C601C19289B2994079301332893072B7B
:1059E00001DCFFF786FB27AA31000A9802F062FB70
:1059F000002801D1FFF77DFB736EDB0705D4B38967
:105A00009B0502D4B06D01F0FAFBB3895B0601D4AB
:105A1000FEF7D0FFFEF7A6FF299B7D601033299388
:105A2000289B0837079301332893072B07DD27AA04
:105A300031000A9802F03EFB0028DDD134AF103C63
:105A4000C1E7299B0793002B02D100232893D3E7BA
:105A500027AA31000A9802F02DFB0028F5D0CBE7E9
:105A6000169A179B16981799FCF7B0FD002801D1DC
:105A7000FFF7A4F9214B0C930D9B472B01DDFFF79A
:105A800094F91F4BFFF790F9259B0C9A9B1A0E93E4
:105A9000FFF711FA079D002A01D1FFF779F8012BD2
:105AA00000D165E4022B00D197E40722944634AB81
:105AB0005A1E0C92624608990A403032591E0A70EA
:105AC00009994C070899C80809990443C90809911C
:105AD000210009980894014300D047E4E90700D465
