:020000041004E6
:100000000060002075030410510504106D050410F4
:10001000AA5555AA45554C420000000000000000BA
:10002000000000000000000000000000890504102E
:100030000000000000000000A5050410C105041028
:10004000DD050410F90504100000000000000000A8
:1000500015060410310604104D060410690604103C
:100060000000000000000000000000000000000090
:100070000000000085060410A1060410BD0604104F
:1000800000000000D9060410F90604101907041036
:100090003907041059070410790204107907041075
:1000A0000000000000000000000000000000000050
:1000B0000000000000000000000000000000000040
:1000C000EFF31482EFF30981002080F31488BFF36B
:1000D0006F8FF0B543464C4655465E466746F8B4CA
:1000E000164CEFF30883236006B4154C2068154CBA
:1000F0002060154C2068154C2060154C2068154C6C
:100100002060154C276800202060BFF34F8F30BF60
:1001100027600A4C246884F3088882B003BCF8BCCA
:100120009846A146AA46B346BC46F0BC04BC80F340
:10013000098881F31488BFF36F8F104708000020EF
:1001400004ED00E0D802002024ED00E0CC02002005
:1001500000E200E0DC020020080020400E4AD369E3
:100160001B061B0F4370D9B2D3690C4A1B07944678
:100170001B0F83700A4B1B68436063445A42534110
:1001800001330370002901D101234370054B9B8A81
:1001900001339B008360704700009040BF5FFFFD0C
:1001A0002800904000001040084B1A68084B9A4203
:1001B00000D070473F23074A40061381000C2E3BB6
:1001C00090611380138ADB07FCD5F2E7140000204E
:1001D000CCBCECFC00001040244B1A7A244BD2B269
:1001E0001B899BB2002A09D0022A3DD00220042A92
:1001F00003D00020082A00D1033070471A00093AC2
:10020000782A18D8092206201A40092AF5D0112286
:1002100001301A40112AF0D0212201301A40212A3F
:10022000EBD0412201301A40412AE6D08122013030
:100230001A40812AE1D002221900FF3211400B201E
:100240009142DAD019000B4A013011409142D4D0CA
:10025000052207381A40052ACFD002381840033843
:10026000434258418000C8E70120C6E700009040A3
:1002700000001048010400007047C046012130B55D
:10028000364A85B0137A03240B4313720022344B91
:100290001A606B46DD1CFFF79FFF28702B78002B40
:1002A00003D1013CE4B2002CF5D12B78052B02D808
:1002B000012005B030BD2B780B2B1BD001AC2000EA
:1002C000FFF74CFF6378A2781B011343112B17DC57
:1002D000244B1B681B070DD59023234ADB051969A6
:1002E0001368283B5B1A1B02002B03DD9023126866
:1002F000DB055A6001221D4B1A70FFF70AFFFEE76B
:10030000184B1B681B0717D59021174AC9050869A8
:100310001368283B1B1A1B02002BEBDD8020144BBB
:1003200040021B041B0C0343CB60CB680342DDD0AF
:10033000CB680342F9D1D9E7802290210C4B5202BD
:100340001B041B0C1343C905CB60CB681342FCD1C3
:100350000122064B1A70FFF7DCFED0E700002040B8
:1003600014000020C0000020180000200C00002015
:10037000D002002010B5FFF781FF012805D01B4BEC
:1003800083F3088800F048F810BD1948194B9842CB
:1003900007D2C243D218920801329200164900F0E7
:1003A000FBF91648164B984207D2C243D21892085E
:1003B00001329200134900F0EFF91348134B9842B1
:1003C00007D2C243D218920801329200002100F0F5
:1003D000ECF90F480F4B9842D1D2C243D218920881
:1003E00001329200002100F0E0F9C8E7006000202F
:1003F000E0020020E002002000F8051008000020C4
:1004000034000020BC070410C0000020CC020020F3
:10041000CC020020E0020020434B70B51B68002B8B
:1004200003D1424B1B68002B32D03F4B1A68404B24
:100430009A4229D03C4B3E4A1B6893426ED03A4BBD
:100440001B68002B03D1394B1B68013320D0364B7E
:100450001A68374B9A4256D0334B1B68002B04D195
:10046000324B1A68324B9A4234D02F4B1B680133FF
:100470002CD02D4B1B6801334AD02B4B1B6801330A
:1004800001D12A4B1B68FEE7284B1B68002BD1D1FA
:10049000284B294A02E0043393420FD019680131F6
:1004A000F9D03F24254D264B2B6020000134A4B207
:1004B000FFF77AFE7D2CF8D100232B60214B224AD6
:1004C00012681B6883F308889047FEE7174B1B6888
:1004D000002BCED11B4B174A02E00433934210D0BD
:1004E00019680131F9D00124144D154B2B602000FF
:1004F0000134A4B2FFF758FE3F2CF8D100232B6043
:100500000C4B124ADCE7094B1B680133A4D1BFE74F
:10051000064B1A68064B9A42AFD1DBE7034A1268D2
:100520009A428CD1B4E7C0461008041010F80510A8
:10053000AA5555AA00F8051000E80710140000207D
:10054000CCBCECFC000804100408041004F80510EE
:10055000044B054A1B6810B5934202D09B6898472C
:1005600010BDFEE71000002000000410044B054AF7
:100570001B6810B5934202D0DB68984710BDFEE7B8
:100580001000002000000410044B054A1B6810B541
:10059000934202D0DB6A984710BDFEE710000020AE
:1005A00000000410044B054A1B6810B5934202D0AA
:1005B0009B6B984710BDFEE7100000200000041060
:1005C000044B054A1B6810B5934202D0DB6B984779
:1005D00010BDFEE71000002000000410044B054A87
:1005E0001B6810B5934202D01B6C984710BDFEE704
:1005F0001000002000000410044B054A1B6810B5D1
:10060000934202D05B6C984710BDFEE710000020BB
:1006100000000410044B054A1B6810B5934202D039
:100620001B6D984710BDFEE710000020000004106D
:10063000044B054A1B6810B5934202D05B6D984786
:1006400010BDFEE71000002000000410044B054A16
:100650001B6810B5934202D09B6D984710BDFEE712
:100660001000002000000410044B054A1B6810B560
:10067000934202D0DB6D984710BDFEE710000020CA
:1006800000000410044B054A1B6810B5934202D0C9
:100690005B6F984710BDFEE71000002000000410BB
:1006A000044B054A1B6810B5934202D09B6F9847D4
:1006B00010BDFEE71000002000000410044B054AA6
:1006C0001B6810B5934202D0DB6F984710BDFEE760
:1006D0001000002000000410054B064A1B6810B5EE
:1006E000934203D084229B58984710BDFEE7C04632
:1006F0001000002000000410054B064A1B6810B5CE
:10070000934203D088229B58984710BDFEE7C0460D
:100710001000002000000410054B064A1B6810B5AD
:10072000934203D08C229B58984710BDFEE7C046E9
:100730001000002000000410054B064A1B6810B58D
:10074000934203D090229B58984710BDFEE7C046C5
:100750001000002000000410054B064A1B6810B56D
:10076000934203D094229B58984710BDFEE7C046A1
:100770001000002000000410054B064A1B6810B54D
:10078000934203D09C229B58984710BDFEE7C04679
:100790001000002000000410002310B59A4200D180
:1007A00010BDCC5CC4540133F8E7030082189342B7
:0C07B00000D1704719700133F9E7000018
:1007BC000000000000000000000004100000000019
:1007CC00000000000000000000000000000000001D
:0C07DC0000000000000000000000000011
:04000005100403756B
:00000001FF
:020000041004E6
:100800000060002051650410B5680410B76804103A
:10081000AA5555AA45554C420000000000000000B2
:10082000000000000000000000000000B968041093
:100830000000000000000000B5630410BB68041055
:10084000C3680410B763041000000000000000003B
:10085000CD680410B9630410D5680410C563041092
:100860000000000000000000000000000000000088
:1008700000000000C7630410C9630410CB630410B8
:1008800000000000BB630410BD630410BF630410CC
:10089000C1630410C3630410B3630410CB68041075
:1008A0000000000000000000000000000000000048
:1008B0000000000000000000000000000000000038
:1008C000EFF31482EFF30981002080F31488BFF363
:1008D0006F8FF0B543464C4655465E466746F8B4C2
:1008E000164CEFF30883236006B4154C2068154CB2
:1008F0002060154C2068154C2060154C2068154C64
:100900002060154C276800202060BFF34F8F30BF58
:1009100027600A4C246884F3088882B003BCF8BCC2
:100920009846A146AA46B346BC46F0BC04BC80F338
:10093000098881F31488BFF36F8F104708000020E7
:1009400004ED00E0B817002024ED00E0AC17002013
:1009500000E200E0BC17002008002040D9B598B0A4
:100960000F00A44813A90880042618A800780028BE
:1009700001D0052300E004239F4CA01C009001221D
:10098000012007F081FF010052D1A07F002800D094
:1009900005269A4869468887201D05900020049006
:1009A0001020039000200290019612200090012355
:1009B0000FAA0121608807F020FF010038D118A894
:1009C0000078002820D0A7718D486946888509A83D
:1009D000801C0770012141700AA808900020079030
:1009E00010200690002005900491039609A8801C11
:1009F00002900220019000900BAB0122A188608838
:100A000007F01AFF010013D1642009A9087009A892
:100A1000039001200290002001900120009000230B
:100A2000A2886188002007F0A3FF010000D1002008
:100A30001AB0D0BD70B590B006007248694688857E
:100A40006D4C2000083000900B2301220BA90120DF
:100A500007F01AFF010051D10425A07F002800D023
:100A6000052569486946888306A8059000200490FA
:100A7000102003900020029001950220009009238D
:100A800007AA0121208907F0B8FE010036D103969C
:100A90000920029000200190092000900023684660
:100AA000028B2189002007F063FF010026D15748FF
:100AB0006946888306A805900020049010200390C2
:100AC00000200290019502200090042307AA012132
:100AD000208907F092FE010010D130000930039008
:100AE000042002900020019004200090002368461A
:100AF000028B2189002007F03BFF010078D1444898
:100B00006946888306A80590002004901020039071
:100B100000200290019502200090042307AA0121E1
:100B2000208907F06AFE010062D130000D30039089
:100B300004200290002001900420009000236846C9
:100B4000028B2189002007F013FF010050D13148AA
:100B50006946888306A80590002004901020039021
:100B600000200290019502200090042307AA012191
:100B7000208907F042FE01003AD130001130039085
:100B80000420029000200190042000900023684679
:100B9000028B2189002007F0EBFE010028D11E48BE
:100BA0006946888306A805900020049010200390D1
:100BB00000200290019502200090072307AA01213E
:100BC000208907F01AFE010012D130001530039081
:100BD0000720029000200190072000900023684623
:100BE000028B2189002007F0C3FE010000D1002004
:100BF00010B070BD0F180000F8170020192A00006F
:100C0000082900000A180000292A0000242A0000F0
:100C1000262A0000282A0000502A0000F0B59DB0C6
:100C20000400082008232178002909D0217B00290D
:100C300000D00D20617B002901D0C01CC0B2831CF4
:100C4000DBB2A07B002801D05B1CDBB2207A00283D
:100C500009D0A07A401E04D0401E012803D8DB1C16
:100C600000E01B1DDBB28D4818A908808C4800905D
:100C70000122012007F008FE070000D0EFE1894DB6
:100C8000A07C002817D0A08A14A90880A08A8649D1
:100C9000884202D129880A1D01E0E18A228B0BA833
:100CA000801C019014A80090012392B2688907F07B
:100CB0000CFE070068D1042009A90870287F0028CD
:100CC00001D0052008707948694608860AA8059071
:100CD00000200490102003900020029009A80078C2
:100CE00001900220009004230CAA0121688907F0DA
:100CF00084FD070048D120001A30039004200290A0
:100D0000002001900420009000236846028D69892C
:100D1000002007F02DFE070036D1607F8007C10F4D
:100D2000D0480170D04869460886D0480590002018
:100D30000490102003900120029009A800780190EF
:100D40000420009001230CAA0121688907F055FDB9
:100D5000070019D12078002878D0C5486946088650
:100D6000C4480590002004901020039001200290B8
:100D700009A8007801900620009001230CAA012107
:100D8000688907F03AFD070000D068E120001A30BA
:100D90000390042002900020019004200090002382
:100DA0006846028D6989002007F0E2FD0700EBD15B
:100DB000207B00282FD0B04869460886AF480590B0
:100DC00000200490102003900520029009A80078CC
:100DD00001901A20009008230CAA0121688907F0CD
:100DE0000CFD0700D0D1A64869460886A5480590A5
:100DF00000200490102003900520029009A800789C
:100E000001900E20009001230CAA0121688907F0AF
:100E1000F4FC0700B8D1607B002817D09A486946D7
:100E200008869A4805900020049010200390052021
:100E3000029009A8007801901A20009003230CAAC0
:100E40000121688907F0D9FC07009DD190486946C7
:100E500008860AA805900020049010200390002026
:100E6000029009A8007801900220009063780CAAF3
:100E70000121688907F0C1FC070072D160780090F9
:100E8000322100F07FFFC0B205900098322101F0BE
:100E90005FF86846017400261EE000BF12180000CB
:100EA00004180020FA1700200F1800004A2A00003A
:100EB00032207043C0B26168091803913221029157
:100EC0000190009100236846028D6989002007F097
:100ED0004FFD070045D1761C05988642E8DB684641
:100EE000007C002816D0059832214843C0B26168C2
:100EF000091803916946097C029101906846007CBB
:100F0000009000236846028D6989002007F030FDBB
:100F1000070026D10AAEB61CA07B002822D0AB4821
:100F200010A90880192030702A2070700BA8089032
:100F300000200790102006900020059001200490CA
:100F400009A8007803900AA8801C02900220019052
:100F5000009010AB01226846018D688907F06CFC97
:100F600007007CD1207A002879D0A07A012811D1FD
:100F70001A2009A9C91C0870E07A09A9891C0870FF
:100F8000607A307001207070052009A9491C087032
:100F900001206876A07A022810D10E2009A9C91C68
:100FA0000870E07A09A9891C0870607A3070022004
:100FB0007070052109AA521C11706876A07A032866
:100FC00010D10A2009A9C91C0870E07A09A9891C56
:100FD0000870607A3070032070706876052009A967
:100FE000491C0870CD4869460886CD480590002008
:100FF00004901020039009A8401C0078029009A8D2
:101000000078019009A8C01C0078009009A8801CF5
:1010100003780CAA0121688907F0EFFB07001ED1B5
:1010200030782876BF4810A908800BA808900020C7
:10103000079010200690002005900120049009A838
:10104000007803900AA8801C029002200190009072
:1010500010AB0122E98A688907F0EEFB070038002F
:101060001DB0F0BD3E1800204C2A000006180020DC
:101070004E2A000008180020222A00000A1800202A
:10108000322A00000C180020332A00000E1800201D
:101090004B2A000076B588B005001E0005A8801C0C
:1010A0004BA10A880280052D01DB42208CE00F9ABB
:1010B0000621002007F071FC0400F7D107F01CFCAA
:1010C0000400F3D104A8801C019005A8009004AB93
:1010D000F2B20021012007F0A7FA040074D1022225
:1010E00008A906A805F03BF806AC08A8801CA11CBE
:1010F00002780A7042784A70022208A8011D201D59
:1011000005F02DF808A8801DA11D02780A7042780C
:101110004A7006A803900820029000200190082041
:10112000009000230A226846018A002007F020FC74
:101130000E980390F0B2029000200190F6B2009653
:1011400000236846828A018A002007F011FC05A866
:10115000801C039002200290002001900220009049
:1011600000236846428A018A002007F001FC04211E
:10117000012007F00EFC040026D1280007F0F3FA46
:101180000400BB4E5821300004F0EDFF35703000F4
:1011900048306946098C018008A94988418008A91E
:1011A0008988818008A9C988C180C24D0020287023
:1011B000687000F08AF810202870112068701021E3
:1011C000002000F033FA20000AB070BD07290000AB
:1011D000C0030000F4B58EB005000C00B6480668E8
:1011E00007A800BF2AA10A680260A14F22000E9939
:1011F00038002B3004F0AFFF2A203C5408A8092106
:10120000017022000E99401C04F0A5FF07A81221CE
:10121000417018218170A74C2078102801D00C252E
:1012200032E00020002131707570B0702A20385CE7
:10123000401C012D0691059107A904910DD10321B0
:10124000039108A90291C0B20190002000900023F0
:101250005022302107F08FFA0CE00321039108A9F6
:101260000291C0B201900020009000235022302152
:1012700007F058FA050007D1202020702120607067
:101280002021102000F0D2F928000FB0F0BD00009E
:101290000200000080B5884800684178022901D129
:1012A000012101700021817007F086FA02BD38B576
:1012B00000246F4DE87F002802D000F0DBF8EC77C7
:1012C00007F0AEF920216C5432BD1CB5794C68464C
:1012D0002178017061784170009800F060FB019006
:1012E00001A8017821704178617013BD00B585B007
:1012F0005F4B98774B1E9B41DB0F002104910392BB
:101300000293102101910721009100230022010086
:10131000012007F0ADF905B000BD00004D2A000026
:101320001018002008290000F0B58FB00C0017003D
:1013300041780078FFF712FB010050D12000FFF741
:1013400079FB01004BD1AF4869460885484D28001C
:1013500050300090062301220AA9012007F094FAD8
:10136000010034D104242E001E363078002800D02D
:101370000524A548694608832800523005900020BE
:10138000049010200390012002900194042000900A
:10139000042306AA0121708E07F02FFA010016D14E
:1013A0009A4869460883280054300590002004902C
:1013B000102003900020029001941020009001233F
:1013C00006AA0121708E07F018FA010001D0010071
:1013D00005D13800FFF722FC010000D100200FB03A
:1013E000F0BD234948627047894908707047002062
:1013F00030494A78432A00D1704710B509781C4A11
:10140000102906D0602904D05623D35C002B00D1CC
:1014100001205623D35C002B02D003000220184386
:101420001F3253781278102906D11C0009D01400FD
:1014300004D00100042011E0602902D1040008203A
:101440002043002A04D0002B09D10100102005E020
:10145000102904D1002B02D101002020084310BD27
:1014600080B501000248808B07F0F6F802BD00004D
:10147000F817002080B513216648808B07F0A6F985
:1014800002BD1FB502A90191891C009103AB022284
:101490000021604C40002018008B801C80B207F0B7
:1014A0002FFA002803D16846007A012800D00020D6
:1014B00004B010BD5418002050180020F1B584B0BD
:1014C0000024501E00E0641CE4B28442FBDB51485F
:1014D000042907D103930292002101910092012374
:1014E000428A1CE0062907D1039302920021019150
:1014F00000920123C28A12E0002405196E46367C50
:10150000AF7EBE4210D1ED7E012D0DD1039302922C
:101510000023019300920123610041180A8B818905
:10152000808B07F025FA04E0641CE4B2012CE4D1BE
:10153000422005B0F0BDF1B584B00F0015001E00CB
:10154000344CA08BA189042F07D10396029200226C
:10155000019200950123628A12E0052F07D10396BC
:1015600002920022019200950123A28A08E0062F30
:1015700009D1039602920022019200950123E28A8A
:1015800007F0F6F90200002A03D1A08B07F097F9C3
:1015900023E0002021186A46127C8B7E9A4217D1E4
:1015A000C97EB94214D1039602950021019100959C
:1015B000012340002018028BA189A08B07F0D8F9E5
:1015C000020003D1A08B07F07AF90200100004E0BA
:1015D000401CC0B20128DDD1422005B0F0BD01B5EC
:1015E00084B00C4804A903910121029100210191CA
:1015F00001210091012382884188808B07F0B8F98E
:1016000005B000BD131800004F2A0000312A000069
:1016100021180020F817002080B5082801DB42209F
:1016200002BD0100012007F0B4F902BD704770B59A
:10163000FF241470834B5D8A6D1CA84201D10425E0
:1016400015709D8A6D1CA84201D105251570DD8A93
:101650006D1CA84202D10620107002E01578FF2D03
:1016600001D00C701CE09C88641CA04204D19879C5
:1016700008700120107013E0002465005D192D8BA7
:101680006D1C854204D11D19AE7E0E70ED7E157065
:10169000641C012CF1D11078FF2801D1422070BDCB
:1016A000002070BD10B531281FD032281ED16548EA
:1016B000816D0978002918D004001C342179002993
:1016C0000AD0010040313F22805C0AF05FFB002815
:1016D00009D10120207306E0E078002803D013210F
:1016E000208807F073F8332010BD322010BD0000B1
:1016F000F1B58EB00EA8007852498A6D07AB00BFD5
:1017000048A425681D600C002A340923122507AE61
:101710000EAF3F78412F07D005D3432F48D038D3A1
:10172000452F74D068D37BE000205627C855107031
:101730005070907075701820B070207F00281DD0F8
:1017400008A80370247822002B31401C04F003FD0C
:1017500000200690059007A804900320039008A895
:101760000290641CE4B20194002000900023FA224D
:101770001201C821C90006F0FEFF07E001900090A9
:101780000B004033627D012106F0BAFF00280DD026
:1017900043E01078002809D0507800283FD1207FFE
:1017A000002801D041203BE0432039E0422037E0CF
:1017B00000201070507075701820B07008A8037069
:1017C000247822002B31401C04F0C5FC0020069038
:1017D000059007A804900320039008A80290641CB9
:1017E000E4B201940020009000233022202106F072
:1017F000C2FF002811D108E01078002805D05078E9
:1018000000280CD106F0D8FF07E0442008E09078CB
:10181000002802D15078002801D1462000E0452060
:101820000FB0F0BD02000000212808D0222807D107
:101830000448806D0078002801D0232070472220C2
:1018400070470000F81700207FB59E4DAC6D002654
:10185000512804D06DD353283CD004D369E066707E
:101860002670A67034E020782918C97E01290CD191
:10187000FFF707FE002804D02078401C2070A670D7
:1018800005E0A078401CA07001E0401C2070A0780A
:101890002178002901D10A281ADB0A2816DB02A8C0
:1018A00025A10A8802800020FFF7EBFD00280DD15A
:1018B000E87E01280AD1298B02A80190022000901D
:1018C00000238A1C92B2A88907F044F8A6702FE082
:1018D00052202EE002A8019003A8009002AB9B1CAE
:1018E00002220021A888801C80B207F009F801209C
:1018F0006946097A012901D1607017E0A178491C75
:10190000A1706278C9B20A2901DA110010D0002A48
:101910000CD169460872A98802A8019002200090A3
:1019200000238A1C92B2688807F014F8542000E063
:10193000532004B070BD0000010038B5614B1C009D
:101940002434626B0025112806D027D313280ED02B
:1019500007D314281CD032BD107800280ED11120D6
:1019600032BD5570216801200AF0ADFA0BE06079B4
:10197000002805D001200AF0C0FA6571122032BD9E
:101980005078002801D1132032BDFFF773FD02E02B
:10199000D87F002801D0142032BD152032BDF1B50A
:1019A00084B00190AE4C20000A3003902000243017
:1019B000029051275025002601206946097C002904
:1019C0000CD0102954D0202911D0302921D0402901
:1019D00027D0502932D060295DD064E0FA21490037
:1019E000029A116003990870562026545BE004A8FF
:1019F0004078FFF719FF01A94870232853D1A06D43
:101A0000817800292FD00670302069460871312076
:101A100047E004A84078FFF745FE01A94870332845
:101A200006E004A84078FFF763FE01A94870462845
:101A300039D16846057101A8477034E004A84078A0
:101A4000FFF702FF01A9487054282CD1A06D067041
:101A50000298408D00900298038DC28C818C03986F
:101A6000408A06F09EFF102069460871112018E098
:101A700004A84078FFF761FF01A94870152803D03A
:101A80000398407D00280ED1029846716020694677
:101A90000871612005E056216054402069460871B4
:101AA000412001A94870019805B0F0BD05498A6D33
:101AB000002805D1C8776B490978402900D15070BA
:101AC00070470000F8170020F2B582B0644C210086
:101AD0001C31009101210022624D2E78202E0BD165
:101AE000A66D070007D17778022F00D13170B17051
:101AF000009FF97000E0B2702D78402D0AD1A56DDD
:101B0000002804D16970009AD170297004E06A70CD
:101B10002970F7BD00280BD13F2023546846008967
:101B200000990880062208992000403004F013FB39
:101B3000F7BD4B4801214B4A1378202B01D1836D0F
:101B400019701278402A01D1806D0170704780B5FC
:101B500000E000BF01BD0122414B002902D1988362
:101B6000012000E00020202158543E48017830290F
:101B700001D1996D0A700078402801D1986D82706A
:101B8000704780B53648002120228154808B06F0B2
:101B900043FD01BD70B582B008001D00304B069CAE
:101BA0001E8A761CB04205D1012D1BD1207805F08C
:101BB00007FB73BDDB895B1C984205D1012D11D158
:101BC000207805F005FB73BD6A4600A9491CFFF7A4
:101BD0002EFD002806D12300EAB26846017840783D
:101BE00005F0AAFA73BD80B508006A4600A9491C31
:101BF000FFF71DFD002804D168460178407805F004
:101C0000B5FA01BD1648826DC07F002800D170472B
:101C100080B5002907D01078002806D1124901208C
:101C20000AF051F901BD0120107001BD704770B577
:101C300082B00E4EF56B012811D1F07800280ED03D
:101C400001242878002809D1708E0090338EF28DFF
:101C5000B18D308806F0A5FE2C7073BD6C7073BD1D
:101C6000F8170020541800203075000014180020C8
:101C7000002243088B4274D303098B425FD3030ACB
:101C80008B4244D3030B8B4228D3030C8B420DD3DE
:101C9000FF22090212BA030C8B4202D3121209026C
:101CA00065D0030B8B4219D300E0090AC30B8B42AA
:101CB00001D3CB03C01A5241830B8B4201D38B0358
:101CC000C01A5241430B8B4201D34B03C01A5241FD
:101CD000030B8B4201D30B03C01A5241C30A8B4240
:101CE00001D3CB02C01A5241830A8B4201D38B022B
:101CF000C01A5241430A8B4201D34B02C01A5241CF
:101D0000030A8B4201D30B02C01A5241CDD2C30940
:101D10008B4201D3CB01C01A524183098B4201D3BC
:101D20008B01C01A524143098B4201D34B01C01AA7
:101D3000524103098B4201D30B01C01A5241C3081F
:101D40008B4201D3CB00C01A524183088B4201D38E
:101D50008B00C01A524143088B4201D34B00C01A7A
:101D60005241411A00D20146524110467047FFE7E6
:101D700001B5002000F0F0F802BDC0460029F7D000
:101D800076E7704703460B437FD4002243088B421B
:101D900074D303098B425FD3030A8B4244D3030BF2
:101DA0008B4228D3030C8B420DD3FF22090212BAB7
:101DB000030C8B4202D31212090265D0030B8B4233
:101DC00019D300E0090AC30B8B4201D3CB03C01A1D
:101DD0005241830B8B4201D38B03C01A5241430BF8
:101DE0008B4201D34B03C01A5241030B8B4201D3E8
:101DF0000B03C01A5241C30A8B4201D3CB02C01A53
:101E00005241830A8B4201D38B02C01A5241430ACA
:101E10008B4201D34B02C01A5241030A8B4201D3B9
:101E20000B02C01A5241CDD2C3098B4201D3CB0160
:101E3000C01A524183098B4201D38B01C01A52410F
:101E400043098B4201D34B01C01A524103098B4213
:101E500001D30B01C01A5241C3088B4201D3CB00FE
:101E6000C01A524183088B4201D38B00C01A5241E1
:101E700043088B4201D34B00C01A5241411A00D291
:101E800001465241104670475DE0CA0F00D04942FA
:101E9000031000D34042534000229C4603098B426A
:101EA0002DD3030A8B4212D3FC22890112BA030AF2
:101EB0008B420CD3890192118B4208D38901921174
:101EC0008B4204D389013AD0921100E08909C309F9
:101ED0008B4201D3CB01C01A524183098B4201D3FB
:101EE0008B01C01A524143098B4201D34B01C01AE6
:101EF000524103098B4201D30B01C01A5241C3085E
:101F00008B4201D3CB00C01A524183088B4201D3CC
:101F10008B00C01A5241D9D243088B4201D34B00E7
:101F2000C01A5241411A00D20146634652415B1029
:101F3000104601D34042002B00D54942704763460A
:101F40005B1000D3404201B5002000F005F802BD4F
:101F50000029F8D016E770477047C0468446101C29
:101F600062468C46191C634600E0C0461FB501F06E
:101F700073FD002801D40021C8421FBD10B501F037
:101F8000CDFC4042013010BD10B501F065FD0028C8
:101F900001DB002010BD012010BDC04610B501F0CE
:101FA0005BFD002801DD002010BD012010BDC046F2
:101FB00010B501F0EDFC002801DC002010BD01206F
:101FC00010BDC04610B501F0E3FC002801DA002086
:101FD00010BD012010BDC04670B500220C4B04009E
:101FE0000D00FFF7EFFF002804D12000290002F0C8
:101FF0004BFB70BD064B00222000290002F00EF8BA
:1020000002F042FB80231B069C466044F1E7C04679
:102010000000E041437802781B021A438378C078BD
:102020001B041343000618437047C046030A4B7055
:10203000030C8B70030E0870CB70704703005A7846
:102040000078120202439878197900040243D87884
:10205000000610435A7912020A43997909040A4387
:10206000D979090611437047030A5370030C937022
:10207000030ED3700B0A53710B0C93710B0E10707F
:102080001171D3717047C046F0B5C6464E02470283
:10209000760A7B0A4400C50FF7004800984600B551
:1020A000240E2A00DB00000EC90FBC468D4267D00B
:1020B000221A002A00DCA5E000283AD1002F00D126
:1020C00093E0511E002900D0BCE00124DB1B5A0123
:1020D00046D59B019E09300002F09EFB05388640E4
:1020E000844200DD9DE0041B320020200134E240E8
:1020F000041BA64033005E1EB341002413435A075D
:1021000004D00F221A40042A00D004335A0129D5E2
:102110000134FF2C00D181E02A009B015B0AE4B26C
:102120005B02E405580AD2072043104304BC9046E2
:10213000F0BDFF2CE3D080213800C9040843844659
:102140001B2A00DD82E020206146D140821A6046D1
:1021500090400200501E82410A439B1A5A01B8D493
:102160005A07CED1DE082A00FF2C3AD1002E00D12A
:10217000AEE08023DB0333435B025B0AFF24CFE73F
:10218000211A002952DD002831D0FF2CB7D0802041
:102190003E00C0040643B4461B2900DDAAE0202609
:1021A0006046C840711A66468E4031004E1EB141ED
:1021B00001435B185901D3D50134FF2C00D187E0CE
:1021C000012278491A405B080B40134397E7002C23
:1021D00000D0A7E0002B00D0B6E03B1E62D1002665
:1021E000002273025B0AE4B29AE7140087E7002F2B
:1021F0004DD0481E002857D1634401245A01AFD561
:102200000224DDE7002A24D1621CD2B2012ADEDDDD
:10221000DE1B720135D5FE1A0D005CE72A00002393
:102220007EE73300604A241A134068E7002963D12F
:10223000611CC8B201284EDDFF2949D063445B0808
:102240000C005CE7FF2A41D00A0079E701229B1AC3
:1022500084E7002C1DD0FF2822D08024E4045242C1
:1022600023431B2A00DD8AE01C002025D440AA1A43
:1022700093405A1E9341234362460400D31A0D0033
:1022800025E7002E00D026E700220024A9E70C0055
:1022900035E7002B4DD0D243002AEDD0FF28E0D106
:1022A0006346FF240D002AE7FF290FD0010073E7E2
:1022B000002B61D0FF24002F00D120E7802241466F
:1022C000D203114202D0164200D13B00FF2416E790
:1022D000FF24002324E7002CEAD1002B58D0002F44
:1022E00000D10CE763445A0100D439E72E4A0C00B0
:1022F000134004E701215CE7002C1ED1002B40D0E5
:10230000C94300290BD0FF2836D01B2947DC1C000D
:102310002026CC40711A8B40591E8B4123436344C5
:10232000040047E7002B18D13B1E2DD00D00FF24E1
:10233000E5E63B0004000D00E1E6FF281CD0802408
:10234000E40449422343E0E7002F00D1D7E6DE1B37
:1023500072011FD5FB1A0D00D1E6FF24002F00D11A
:10236000CDE680224046D2031042AFD01642ADD116
:102370003B000D00FF24C2E66346FF24BFE60123B5
:102380007AE73B000400BAE680260022F603F0E676
:102390003B00B4E6331E00D0E2E6002221E7012331
:1023A000BDE7C046FFFFFF7DFFFFFFFBF0B55746CF
:1023B0004E46DE464546E0B544024300C60F83B0B4
:1023C0000F1C640A1B0EB24653D0FF2B27D080226D
:1023D000E400D20414437F225242904698440023E2
:1023E00099469B467D027800FB0F6D0A000E009314
:1023F00024D0FF2846D080230021ED00DB041D43BC
:102400007F384746381A4F460F43BF00B94633005E
:10241000009A874F53404A46BA5801939746002C7A
:102420004ED108239946F7339846FD3B9B467D02E3
:102430007800FB0F6D0A000E0093DAD1002D26D133
:10244000002001213300009A7A4F53404246101A6F
:102450004A460A439200BA581D009746009B2C003A
:102460009A468B465B46022B31D15346FF2100240E
:1024700038E0002C17D104239946002398460133F5
:102480009B46AFE7FF20002D0BD10221DAE72800A1
:1024900002F0C2F9431F9D4076235B42181A0021C7
:1024A000AFE70321ADE7200002F0B6F9431F9C40DF
:1024B00076235B421B1A9846002399469B4691E778
:1024C0000C239946F3339846FC3B9B468AE7032B43
:1024D00000D1A5E05546012B00D081E00123002169
:1024E00000242B406402C905600ADB070843184337
:1024F00003B03CBC90469946A246AB46F0BD802452
:102500000023E403FF21EDE7FF210024EAE7012394
:10251000591A1B2966DD019A134000210024E1E7C6
:102520008023DB031C4238D01D4251D01C4364027F
:10253000640A3300FF21D5E763016C01A3423BD25B
:102540001B260021013801251F0049005B00002FD8
:1025500001DB9C4201D81B1B2943013E002EF3D115
:102560001C00631E9C410C4301007F310029CEDD1D
:10257000630704D00F232340042B00D0043423012D
:1025800003D501002C4B80311C40FE290DDD0123B9
:10259000019AFF2113400024A4E78023DB031C439E
:1025A0006402640A3300FF219CE70123019AA4011D
:1025B000640AC9B2134095E71B1B1A260121C2E722
:1025C000009B8B469A4600244CE76302E5D5002524
:1025D0008024E4032C436402640A009BFF2181E70A
:1025E0000195C1E723002020CB40411A8C40611E99
:1025F0008C411C43630704D00F232340042B00D0DD
:102600000434630105D50123019A012113400024FC
:1026100068E70123019AA401640A1340002161E7DD
:102620008023DB031C436402640A5346FF2159E7FD
:10263000AC790510EC790510FFFFFFF7F8B55746A8
:102640004E464546DE46E0B54702460088467F0ACC
:10265000360EC40F002E47D0FF2E24D0FB0080275B
:10266000FF041F43002399469A467F3E43465D027E
:102670005800DB0F6D0A000E984643D0FF283BD070
:10268000EB0080250022ED041D437F383618731CB3
:1026900041469B464B46614013430F2B64D8754817
:1026A0009B00C3589F46002F42D108239946063B02
:1026B000FF269A46DAE74146022A28D0032A00D1AB
:1026C000CEE0012A00D0ACE0114000200022CCB2C4
:1026D0004002D205400AE407104320433CBC904628
:1026E0009946A246AB46F8BD002F15D10423994662
:1026F000033B00269A46B9E7FF200222002DC5D0F1
:102700000322C3E7002D19D100200122BEE70124D6
:10271000FF220C400020DBE7380002F07DF876262F
:10272000431F9F4000237642361A99469A469DE7FA
:102730000C239946093BFF269A4697E7280002F0AA
:102740006BF8431F9D4076235B42181A00229DE7D9
:1027500080200024C003FF22BAE73D005246ABE7C9
:102760003D0021005246A7E73B0C9C462A04120C70
:102770002B0C1400604665463F043F0C7C434243EB
:102780005D437B43270C9B18FF18BA4203D9802373
:102790005B029C46654424043A04240C12199301FC
:1027A0005C1EA3413F0C920E7D191A43AD011543E7
:1027B0002B0104D501235E466A081D4015433200F3
:1027C0007F32002A25DD6B0704D00F232B40042B1A
:1027D00000D004352B0103D53200274B80321D4039
:1027E000FE2A94DC0124A801400AD2B20C406FE713
:1027F0008020C003074207D0054205D1284340028C
:10280000400A4446FF2263E738434002400AFF2261
:102810005EE70124A31A1B2B05DD0C4000220020DB
:1028200056E75E46CBE72A002020DA40C31A9D40D7
:102830002B005D1EAB4113435A0704D00F221A40F0
:10284000042A00D004335A0104D5012401220C408B
:1028500000203DE701249B01580A0C40002237E785
:1028600080200124C00328434002400A0C40FF227C
:102870002EE7C0462C7A0510FFFFFFF7F0B54F4654
:10288000D64646464400C0B5C20F47024802400A39
:10289000844666467B0A4800C90F9A46240E1500F6
:1028A000DB00000E8946F600FF2800D18FE00121F1
:1028B0004F464F403900914266D0221A002A00DC70
:1028C0009DE000283DD1002E00D18BE0511E002953
:1028D00000D0B5E001249B1B5A0144D59B019F0900
:1028E000380001F099FF05388740844200DD96E00A
:1028F000041B3A0020200134E240041BA7403B00A7
:102900005F1EBB41002413435A0704D00F221A4014
:10291000042A00D004335A0127D50134FF2C00D1FA
:1029200079E001229B015B0AE4B22A405B02E405E4
:10293000580AD207204310431CBC90469946A24631
:10294000F0BDFF2CE0D08021C9040E431B2A7BDCA4
:1029500031002020D140821A9640721E96410E43CB
:102960009B1B5A01BAD45A07D0D10122DF082A4052
:10297000FF2C33D1002F00D1A8E08023DB033B43A1
:102980005B025B0AFF24D1E7211A00294CDD0028F5
:102990002AD0FF2CB8D08020C00406431B2900DDBC
:1029A000AFE030002027C840791A8E40711E8E415A
:1029B00006439B195901D6D50134FF2C00D185E07F
:1029C00001227A491A405B080B4013439CE7002E12
:1029D00000D070E76BE73B1EC5D100227B025B0A8B
:1029E000E4B2A3E714008FE7002E4DD0481E002864
:1029F00057D19B1901245A01B5D50224E0E7002ADA
:102A000025D1621CD2B2012A72DD9F1B7A0135D515
:102A1000F71A0D0064E7012200232A4086E73B00F5
:102A2000634A241A13406FE700296CD1611CC8B2B5
:102A300001284EDDFF2949D09B195B080C0063E794
:102A4000FF2A41D00A0081E701269B1B89E7002C61
:102A50001CD0FF2821D08024E404524223431B2AA7
:102A600000DD96E01C002025D440AA1A93405A1E8F
:102A700093412343F31A04000D002DE7002F00D0EB
:102A80002EE700220024A9E70C003DE7002B58D0D8
:102A9000D243002AEED0FF28E1D13300FF240D00FD
:102AA00032E7FF2910D0010078E7002B6ED0FF2419
:102AB000002E00D128E780225146D203114203D0D4
:102AC0006146114200D13300FF241DE7FF2400239B
:102AD0002CE7002CE9D1002B63D0002E00D113E7A6
:102AE0009B195A0100D43EE7314A0C0013400BE712
:102AF000002C1ED1002B2FD1002E4FD033000D0003
:102B000002E7012655E7002C1FD1002B43D0C94313
:102B100000290BD0FF2839D01B2944DC1C002027BA
:102B2000CC40791A8B40591E8B4123439B190400DA
:102B300040E7002B1AD1002E24D180270022FF036A
:102B40001BE7330004000D00DEE6FF281ED08024C2
:102B5000E40449422343DFE7002E00D1D4E69F1B63
:102B60007A0100D437E7F31A0D00CDE6FF24002EDA
:102B700000D1C9E680225046D2031042A4D060465C
:102B80001042A1D133000D00FF24BDE63300FF2425
:102B9000BAE601236EE733000400B5E60027002201
:102BA0001CE73300B0E60123C0E7C046FFFFFF7D0E
:102BB000FFFFFFFB41024300C20F490A1B0E00202A
:102BC0007E2B0DDD9D2B0CDC802000040143952B1A
:102BD0000ADC9620C31AD9404842002A00D10800D6
:102BE0007047034BD018FBE7963B9940F4E7C0468B
:102BF000FFFFFF7F70B5002830D0C317C4185C40BA
:102C0000C50F200001F008FE9E231B1A962B0DDC39
:102C10009622D21A94402A006402640ADBB264024B
:102C2000DB05600AD2071843104370BD992B19DCED
:102C30009922D21A002A29DD94402200144C144013
:102C4000510704D00F210A40042A00D00434620145
:102C500013D4A401640ADBB22A00E0E700220023B7
:102C60000024DCE705222100121AD140B922D21A31
:102C70009440621E94410C43DAE7054B2A001C4045
:102C80009F23A4011B1A640ADBB2C8E72200D5E720
:102C9000FFFFFFFBF8B54546DE4657464E460C03A0
:102CA000E0B54E00C90F88460D00610A440F0C4381
:102CB000C70019035800DB0F9B464B0A510F0B430B
:102CC000760D400D1900D200D84500D1AEE0351A7E
:102CD000002D00DCF6E000280FD1134300D1DBE02B
:102CE0006B1E002B00D037E1BA1A9742BF41641A1D
:102CF0007F42E41B0126170024E0C64B9E424DD0C4
:102D000080231B041943382D00DD07E11F2D00DD52
:102D100038E12020431B9A460B00504683409946D9
:102D200013004846EB401843030050468240501EB3
:102D30008241E9401A43BA1A611A9742A441170026
:102D400064420C1B230262D56402650A002D00D187
:102D5000DFE0280001F060FD0300083B1F2B00DDD1
:102D6000D2E020223C00D21A9D40D4409F4025430F
:102D70009E4200DDC4E09E1B731C1F2B00DDF1E0B2
:102D8000202238002900D21AD840914097402C00C8
:102D90000143781E8741DC4000260F437B0709D0A2
:102DA0000F233B40042B05D03B1DBB42BF417F425C
:102DB000E4191F0023022CD5964B01369E4200D108
:102DC0009AE04546944BFF081C4060077605640274
:102DD0000743240B760D00212403230B0C0D8F4A8F
:102DE00024051C431440330523435B00ED075B08B7
:102DF0002B43380019003CBC90469946A246AB468E
:102E0000F8BD6446044300D111E2040067467B0725
:102E1000C6D145466007FF080743E4087D4B9E4244
:102E200030D024037605240B760DD4E7331A9A4666
:102E3000002B78DD002831D076488642AED0802045
:102E4000000401435346382B00DCE9E00A43511EDD
:102E50008A410021D219BA42BF4109197C421700A8
:102E60000C192302D3D56B4B01369E4200D13AE1B7
:102E70000120694B1C407B0807401F43E0070743C4
:102E800064088BE723003B4300D1CBE1802212038F
:102E900014432403240B9EE72E007FE70800104311
:102EA00000D1B4E0581E002800D0DEE0BA18BA42C3
:102EB0009B4164185B42E418170001262302A6D543
:102EC0000226D5E7002D6ED1701C4005400D01286B
:102ED00000DCF9E0B81A844687428041E51A404296
:102EE0002D1A280200D489E0D71BBA4292411C1B3C
:102EF0005242A51AD84629E74546002400276AE72A
:102F0000454CF61A2C4049E73D00283885400027FB
:102F10002EE7380001F080FC20301DE70A43511EE7
:102F20008A41002107E7002B00D0F3E0701C430525
:102F30005B0D012B00DCADE0364B984200D1D1E0B7
:102F4000BA18BA42BF4164187F42E419E707520831
:102F500017436408060021E72E48854200D193E01C
:102F60001D00D0E629001F3EF140202B00D18DE04E
:102F70004022D31A9D402F437D1EAF4100240F43B2
:102F8000002644E72B000800203BD8400300202DFA
:102F900000D17DE04020451BA9400A43511E8A41D3
:102FA00000211A43C7E6002E50D01A4EB04257D027
:102FB00080266B429946360434434B46382B00DD5D
:102FC000D6E01F2B00DD35E12026F51A2600AE40A5
:102FD000B2463E00DE40AC46350056462E436546BE
:102FE000AF407D1EAF41DC403743D71BBA42924110
:102FF0000C1B5242A41A0600D846A3E66446674654
:103000002C4300D0A2E600250026002706E71E007C
:10301000C4E6C046FF070000FFFF7FFFFFFF0F80F1
:103020001F2B63DC2020C31A080098409C4683466F
:1030300053461000D84003005846184363469A4050
:10304000531E9A4153460243D94003E726003E43AC
:1030500006D0EB439946002BC7D0944EB042ACD17A
:103060000C0017000600D84698E6904B9A450BD006
:103070008246E7E6002800D09EE01800104300D109
:10308000E9E01C001700D846884E87E6002572E765
:10309000002182E723003B43002E00D0ABE0002B51
:1030A00000D1E7E00B00134300D177E6BA18BA422B
:1030B000BF4164187F42E419230200D4F2E07C4B44
:1030C00017001C40060069E620003843002ED1D1CD
:1030D00000285BD11C00144300D1A8E01C0017009D
:1030E000D8465BE606000024002797E650460B0012
:1030F0002038C34099465346202B00D195E0402309
:1031000050461B1A99400A43511E8A414B460021E2
:103110001A439FE6002E30D126003E4367D0DB43A2
:103120009A46002B1CD0614EB04260D05346382BDB
:1031300000DD96E01F2B00DD9FE02026F31A26001D
:103140009E409C46B34653463E00DE4033005E46FA
:103150001E4363469F407B1E9F415346DC403743DE
:10316000BF189742924164185242A418060078E6AC
:1031700027437C1EA741002437E74C4EB04236D08F
:1031800080265B4236049A463443CFE7180010434A
:1031900000D103E6B81A84466745AD41E01A6D4296
:1031A000401B050200D42CE6D71BBA4292411C1BDF
:1031B0005242A41AD846F1E51800104300D163E743
:1031C000F808670707438020E4080003044208D09A
:1031D000DD08054205D1D208590711430F002C0024
:1031E000D8467B0FE4001C43FF00304ED6E50C00B0
:1031F00017000600D2E5002B38D00B00134300D196
:1032000042E7F808670707438020E4080003044208
:10321000E7D0CB080342E4D1D208490711430F009D
:103220001C00DEE700270024D5E500216BE7002520
:103230000027F3E54E462500203EF5404B462E0084
:10324000202B2DD04025ED1AAC4027437C1EA741F2
:1032500000243743C9E6802400252403134E0027A9
:10326000DCE527437C1EA741002479E70C0017000A
:103270000E4E93E50C00170090E556462300203EC5
:10328000F34099465346202B0ED0402356469B1BB5
:103290009C4027437C1EA7414B4600241F435FE709
:1032A0000024D2E71700B2E50024F2E7FF07000090
:1032B000FFFF7FFFF0B557464546DE464E46E0B578
:1032C0004C000E0387B0834692461D008046360BA5
:1032D000640DCF0F002C4FD06F4B9C4235D0802314
:1032E000420F1B04F600134333439946C30098462C
:1032F0006A4B00269C460023644403932B031B0B5C
:103300009B466B00ED0F50465B0D01955ED0624A07
:10331000934253D05A46D1008022400F12040243F8
:103320000A4393465246D1005C4A944600226344C5
:103330003800684084460290E41A16430F2E00D9E4
:10334000B4E0574BB6009B599F4603003343994660
:103350006CD100239846023308260393CEE7CB4670
:103360004146039A0197022A65D1019B4A4C9C462B
:103370000023002298466BE00300334399464ED069
:10338000002E00D1BCE1300001F046FA03000B3BF7
:103390001C2B00DDACE11D22D31A5A460100DA4095
:1033A00008398E401300334399465B468B4098465C
:1033B00000233C4C0026241A03939FE751465A46AB
:1033C000114329D1002293460232B1E75946014305
:1033D0001ED05B46002B00D19EE1584601F01CFA3E
:1033E00003000B3B1C2B00DD8FE102005946083A1D
:1033F00091408B461D21CB1A5146D9400B005946AE
:103400000B4351469B469140264B00221B1A8FE7E7
:10341000002301229B468BE75146032288E70023C5
:103420009846013304260024039367E70323B1463B
:1034300003930C2662E7032A00D15CE2019B012A78
:1034400000D0E4E113409C4600230024002298466B
:1034500000211203130B0A0D12051A432305124C07
:1034600040462240134362465B00D2075B08134389
:10347000190007B03CBC90469946A246AB46F0BD49
:10348000002380229C4612039846034CE0E7002369
:10349000014C00229846DBE7FF07000001FCFFFF1C
:1034A0006C7A05100DFCFFFFFFFF0F80D94500D996
:1034B00039E100D134E1002346464D469A46013CAD
:1034C0005B460A0E1B021A430B02170C03931304EC
:1034D0001B0C3900280090460193FEF7C9FB02003F
:1034E000019B83465A43280039009146FEF746FC6B
:1034F000350C09040D43A9450DD95B464544013BF4
:10350000A84500D93AE1A94500D837E102235B423A
:103510009C464544E3444B46EB1A3900180004939B
:10352000FEF7A6FB019B050043433900049899462A
:10353000FEF724FC330409041B0C0B43994509D9FD
:1035400043446A1E984500D91AE1994500D817E10D
:10355000023D43444A469B1A5A4612042A430399A1
:103560009346100C0A0C914609045A46090C4E4623
:103570000D001204120C45430591514372437043F0
:1035800052190E0CB218954203D980256D02AC4633
:103590006044150C09041204090C281852188342BF
:1035A00000D2CEE000D1C8E01D1A53469E1AB245A3
:1035B00092415242AB1A9A46984500D117E1390020
:1035C0001800FEF755FB019B0500434339005046A8
:1035D0000493FEF7D3FB04980B04310C1943884283
:1035E00009D941446B1E884500D907E1884200D8BB
:1035F00004E1023D4144049BCB1A180039000493B6
:10360000FEF736FB019B8246434339000498019341
:10361000FEF7B4FB01980B043104090C19438842EE
:103620000DD953464144013B884500D9E8E0884222
:1036300000D8E5E002235B429C464144E244019B02
:103640002D04CE1A51462943059D4F462A000B04EE
:10365000080C1B0C5A4345437B4378435B19170CFA
:10366000FB189D4203D980256D02AC4660441D0CB9
:1036700012041B04120C28189B18864200D293E0F7
:1036800000D18EE001231943A04BE318002B00DC8E
:1036900099E04A0700D09EE05A46D20106D55A4624
:1036A0009B4B1A4080239346DB00E318994A9342D0
:1036B00068DD0123029A984C1A40002394469846EC
:1036C0000022C5E680224B46120313420AD05B4615
:1036D000134206D11A431203120BAC4688468E4C95
:1036E000B6E64B461A431203120BBC468A4CAFE6B1
:1036F00003005A46283B9A4000239146984657E6D5
:10370000584601F089F8203040E603005246283B35
:103710009A400021934677E601F07EF820305FE67C
:10372000884500D2C7E64B46DE075D0843465B0886
:103730001E434346DB079A46C2E60025924500D366
:1037400033E7039E5946B446E244B245AD416D426B
:103750004544EB180139984507D2984200D97FE0DB
:1037600000D1BCE01D1A8B461FE79845FAD1039D96
:103770005545F2D943468B461D1A16E79B46CAE6C5
:103780001500E7E65A46C90852070A435B0590460A
:103790005C0D5A460123029952021940120B8C46C5
:1037A00056E6002B00D16FE746444A1EB04529D9A2
:1037B0001100864200D065E7039A934200D061E78A
:1037C00062E7012149420120C21A382A21DD029B09
:1037D00003409C4638E60F220A40042A00D15BE7EA
:1037E0000A00111D914292415242934454E7474BC3
:1037F000E318002BE5DD01225242F2E71D00FAE654
:103800009A461CE7B04239D86ED011003AE70293CD
:103810003AE71F2A3CDC20239B1A0C0058469940AB
:1038200098404B1E99415B46D440D3402043084307
:103830001A00430709D00F230340042B05D00100D1
:10384000081D88429B415B42D21813023AD50123DE
:10385000029A01241A400023944698460022F7E574
:10386000022149428C46039DE344AC46E244AA450A
:10387000AD416D424544ED182D1A96E68A1E039916
:103880004D008D42894149424144761803958FE7A6
:103890001F204042C31A5846D8400300202A28D08F
:1038A00040205D46821A954029434A1E91411943A2
:1038B000072300220B4009D00F2300220B400800F1
:1038C000042BBDD1010053075202120BC908194342
:1038D000012388460299002419408C46B8E55245D8
:1038E000BED88B46002560E6039D9D42C6D31100DD
:1038F00062E70025D8E780225B4612031A43019B4A
:103900001203120B9C468846034CA1E5FF030000FE
:10391000FFFFFFFEFE070000FF070000F0B54F4667
:103920004646D6465C00C0B51F03DB0F9A46174BD0
:103930000E034D0084468046360B6D0DC90F91462F
:103940003F0B640D01209D4208D09C4201D0A5424E
:103950000BD01CBC90469946A246F0BD634633434B
:10396000F7D1AC42F5D13A43F3D10120BE42F0D1B8
:10397000C845EED1514507D0002DEAD163461E431C
:103980003000461EB041E4E70020E2E7FF070000F8
:10399000F0B54546DE4657464E46E0B51F033D0BA3
:1039A0002C4F0E034C00AB465D008446360B640D75
:1039B000C90F90466D0DDB0FBC422AD0254FBD428A
:1039C0002DD0002C0FD1304307008146784278413A
:1039D000C0B2002D17D15F463A4314D14B460020A8
:1039E000002B0AD006E0002D02D15846024301D038
:1039F000994218D04842012108433CBC9046994660
:103A0000A246AB46F0BD0028F2D00120013B18438E
:103A1000F3E737000743D1D002204042EDE75F468D
:103A20001743CED0F8E7AC42E4DC03DA481E0121AC
:103A30000843E2E75E45DDD806D000205E45DCD2D3
:103A40000123481E1843D8E7C445D3D80020C445F5
:103A5000F6D3D2E7FF070000F0B54E464546DE46F6
:103A600057465C00E0B51F03DB0F99462A4B0E0357
:103A70004D00C90F8446360B6D0D8B4690463F0BAB
:103A8000640D9D4220D0244B9C4222D0002D12D1A7
:103A9000304343424341DBB2002C1FD0002B0CD0FB
:103AA0004B460120013B034318003CBC904699461D
:103AB000A246AB46F0BD002C16D0CB4517D05B46D6
:103AC000594201230B43EFE7310002230143EBD1BD
:103AD000D9E7390002231143E6D1D7E73A43DDD1D4
:103AE00000230028E0D0EAE73A43E6D1E7E7A54221
:103AF000E5DC05DBBE42E2D807D00023BE42D3D2CC
:103B00005946012301390B43CEE7C445D7D80023DA
:103B1000C445F5D3C8E7C046FF070000F0B55746D7
:103B20004546DE464E46E0B50C0398464E00230B54
:103B300087B0070092469B46760DCD0F002E6BD0C6
:103B40006D4B9E4235D080245B46420F2404DB003F
:103B500014431C43C3009946684BA3469C4600236C
:103B600000276644029343461C035A00DB0F50466D
:103B7000240B520D984600D176E05F4B9A426DD0EF
:103B80008023410F1B040B435C49E4008C461C431B
:103B9000C300002062444146B6186940721C01917E
:103BA000944607430F2F00D9B0E0554ABF00D259C1
:103BB00097465B460343994600D087E000239B4627
:103BC000023308270293CEE742460192022867D0CB
:103BD000032800D10EE2012800D062E10023002476
:103BE0000022994601990140CDB2002112030B0D2C
:103BF000120B1B051343434A240513401C43640066
:103C0000ED0764082C434846210007B03CBC9046B1
:103C10009946A246AB46F0BD034399464FD05B465A
:103C2000002B00D189E1584600F0F6FD03000B3B64
:103C30001C2B00DD7AE11D22D31A3A0001005C46FC
:103C4000DA4008398C4013008F4023439B46B94625
:103C500000232D4E0027361A029384E75346234350
:103C60002AD10024022096E75346234320D0002C7B
:103C700000D157E1200000F0CFFD03000B3B1C2BCF
:103C800000DD49E11D21CB1A51460200D9405346BF
:103C9000083A944093400C431B4A121A00207AE7DA
:103CA0000125019B144C1D400023002299469CE7EE
:103CB0000024002201206EE7534603206BE7002317
:103CC0009B4601330427002602934CE703238146D9
:103CD0000C27029347E78022002300251203994610
:103CE000054C82E75C464B4602986FE75C464B46C4
:103CF000019502986AE7C046FF07000001FCFFFF3C
:103D0000AC7A0510FFFF0F800DFCFFFF4A464946C5
:103D1000170C1A0C1B041B0C08041900000C41435F
:103D20001500884619007D4379430395894629008B
:103D3000150045434D44029545462D0CAA46029D6B
:103D40005544A94506D98A46802149028946CA4474
:103D500051460391290C0491414609042D04090C94
:103D600088462900250C24044144240C0591210097
:103D700041438846210079438A466843414650447E
:103D80008146080C48446F43824503D9802149028B
:103D900089464F44010C8946390049440291414605
:103DA0000F0404993F0C88460004C0198044414622
:103DB000049159460F0C0904090C884659438A4658
:103DC00039005143894641464A435146090C8B46C6
:103DD0007B43D2185A44934203D980235B029B460B
:103DE000D94451460904090C8A46414661437C4343
:103DF000130C12044B445244A1468A463C004146EF
:103E00006C434D4351464D440F0C7D19A94503D9D0
:103E10008021490288464444049F0399B84641449E
:103E20008B468345804141428846514608042F0411
:103E3000000C3F185846029910188946904292414A
:103E40004F44BA46524299469346C244D144CB4469
:103E50008F42BF41C245894199459B41934592415B
:103E60007F4249422D0C52420F435B4213437F195C
:103E7000FF185B463C19DB0D059A64021C434302A4
:103E800013435D1EAB415A46C00D03435202134318
:103E9000E20156D501205A0803401343E2071343B9
:103EA00064085A48604400284DDD5A0709D00F22A3
:103EB0001A40042A05D01A1D9A429B415B42E4181D
:103EC0001300E20104D58020514AC0001440604430
:103ED000504A904200DDE3E60125DB0862071A4301
:103EE0006402019B9146220B4405640D1D407CE653
:103EF000802259461203114208D0144206D12243AF
:103F00001203120B45469946434C6EE65B461A4334
:103F10001203120B404C68E603005446283B9C40B9
:103F20000023B9E600F078FC2030A6E60300283B29
:103F30009F400023BB4699468AE600F06DFC203086
:103F400074E6B446ADE701252A1A382A06DD019B3E
:103F500000241D4000230022994646E61F2A21DC4A
:103F600020252000AD1A1E00AB40A840D6405D1EA3
:103F7000AB4130431843D440430709D00F230340DB
:103F8000042B05D00300181D98429B415B42E418A6
:103F9000230221D50125019B01241D40002300227D
:103FA000994622E61F2521006D42281AC1400800CB
:103FB000202A1DD05F35AA1A944023435C1EA341DA
:103FC000072503431D400022002D09D00F220024A5
:103FD0001A401800042AD6D1030065076402220B98
:103FE000DB082B4301259946019B00241D40FCE57D
:103FF0000024E2E7802201251203224301991203E3
:10400000120B0D409946044CEFE5C046FF0300003B
:10401000FFFFFFFEFE070000FF070000F0B5464669
:10402000D6464F460C03C0B5CD0F4E00610A440F73
:104030000C43C1005800400D84468A460F00190306
:10404000500F490A0143C648760DA846DB0FD2003F
:10405000844500D1D8E001204340AB4200D1A6E026
:104060006046351A002D00DC05E1002810D10B0058
:10407000134300D1D7E06B1E002B00D04BE1534619
:104080009F1ABA458041641A4042241A01261EE054
:10409000B34B9E4248D080231B041943382D00DDCA
:1040A00019E11F2D00DD4CE120230F005B1B1000E8
:1040B0009A409F40E840531E9A41E9400743174306
:1040C0005346DF1B611ABA45A44164420C1B23020C
:1040D00000D4C5E06402650A002D00D1F6E0280096
:1040E00000F09AFB0300083B1F2B00DDE9E02022D3
:1040F0003C00D21A9D40D4409F4025439E4200DDA3
:10410000DBE09E1B731C1F2B00DD0AE12022380020
:10411000D21A290097402C009140D8407A1E97412E
:10412000DC40002601430F437B0709D00F233B40AF
:10413000042B05D03B1DBB42BF417F42E4191F0049
:10414000230225D5864B01369E4200D1AFE0854B38
:1041500001251C4043466207FF08640276051743A9
:10416000240B760D1D4000212403230B0C0D7E4AE9
:1041700024051C431440330523435B00ED075B0813
:104180002B43380019001CBC90469946A246F0BD4E
:10419000012543466207FF081743E4081D40704BA2
:1041A0009E4236D024037605240B760DDBE763466A
:1041B000F31A002B00DC94E06046002835D06848F4
:1041C0008642B1D080273F043943382B00DCFDE024
:1041D0000A43170000217A1E9741574457458041F2
:1041E000091944420C1923023AD55D4B01369E420F
:1041F00000D14BE101225B4B1C407B0817401F4361
:10420000E207174364088FE70800104300D024E753
:1042100021E723003B4300D1B9E18022120314437C
:104220002403240B9FE72E007EE70800104300D1F3
:10423000CAE0581E8446002800D0E7E052445245A8
:10424000804164184042241817000126230207D534
:104250000226CFE764462C4300D1B3E12C00674629
:104260007B0700D062E76307FF081F430125434631
:10427000E4081D4093E7002D78D1751C6D056D0D88
:10428000012D00DCF2E05046801A8245BF41651ADC
:104290007F42ED1B8446280200D48CE05046171A5A
:1042A000BA4292410C1B5542651B984614E7012502
:1042B000434600241D40002755E72A4CF61A2C409F
:1042C00032E73D0028388540002717E7380000F026
:1042D000A3FA203006E70A43170000217A1E97410F
:1042E000EEE6002B00D0E5E0731C9C465B055B0D01
:1042F000012B00DC9FE01A4B9C4500D1C5E05244E5
:1043000052458041641840422418E7075208174379
:104310006408664608E71248854200D185E01D0022
:10432000BCE629001F3EF140202B00D17FE0402257
:10433000D31A9D402F437D1EAF4100240F4300261A
:104340008EE72B000F00203BDF40202D71D0402353
:104350005D1BA9400A43511E8A4100211743AFE665
:10436000FF070000FFFF7FFFFFFF0F80002E3ED002
:10437000B34EB44545D0802636046D423443382DC3
:1043800000DDA8E01F2D00DD1FE12026270050469C
:10439000761BB740E84007435046B040461EB04148
:1043A000EC403843171ABA4292410C1B5242A41AED
:1043B000664698468BE6644667462C4300D08BE6FB
:1043C000002500260027EAE61E00ADE61F2B60DC74
:1043D0002027F81A0F00844687401000D840074372
:1043E00060468240501E8241D9401743F5E62600C0
:1043F0005046064305D0ED43002DD3D0904EB44532
:10440000BDD10C001700664698468DE68C48834265
:104410000BD06346D9E6002D00D096E0080010438B
:1044200000D1E2E00C0017009846854E7CE600259E
:1044300080E700218EE7230050460343002E00D082
:10444000A8E0002B00D1DEE00B00134300D16BE6A7
:1044500052445245804164184042241817002302F8
:1044600000D4FDE6774B66461C405DE625005046CD
:104470000543002ECFD1002D4FD10C00144300D1A5
:10448000A0E00C00170098464EE666460024002780
:1044900085E61F000800203FF8400700202B00D1D0
:1044A0008EE04020C31A99400A43511E8A410021E0
:1044B000174392E6002E14D126005046064362D0E0
:1044C000DB43002B5CD1871897429241641852421B
:1044D000A418664687E650462043441EA0410024A7
:1044E00060E7574EB4454ED0802636045B423443D5
:1044F000382B00DD7FE01F2B00DD8BE0202627001E
:104500005046F61AB740D84007435046B040461EC2
:10451000B0410743DC40BF18D6E70D00154300D17A
:1045200002E65046801A8245BF41651A7F42ED1B64
:104530008446280200D48DE65046171ABA429241AA
:104540000C1B5242A41A9846EEE50D00154300D10B
:104550006BE750466707C00807438020E408000364
:10456000044207D0CD08054204D12C009846D70854
:1045700049070F437B0FE4001C43FF00304ED3E597
:104580002F4EB445B4D10C0017006646CCE5002789
:104590000024E8E5002B39D00B00134300D144E799
:1045A000C008670707438020E40800030442E1D005
:1045B000CB080342DED1D70849070F431C00D9E7D7
:1045C000002171E700250027E9E52E002700203EA5
:1045D000F740202D2FD04026751BAC40504620437D
:1045E000441EA04100243843DCE680240025240337
:1045F000134E0027D3E5504620430700781E87411D
:104600000024BF1860E70C0017008DE50C001700B0
:104610000B4E89E51E002700203EF740202B0CD0D2
:104620004026F31A9C4050462043441EA0410743B5
:104630000024BF1848E70024D0E70024F3E7C04671
:10464000FF070000FFFF7FFF70B50E4E0D031C0338
:1046500049005B002D0B490D240B5B0DB14204D0CA
:10466000084900208B4208D070BD05430120002D71
:10467000FAD1044900208B42F6D114432000441E95
:10468000A041F1E7FF07000030B5134D0A034B00CE
:10469000120B5B0DC90F0024AB4210DD0F4CA3427F
:1046A0000FDC80240E4D64032243ED1A1F2D0BDD19
:1046B0000C48C31ADA405442002900D114002000EB
:1046C00030BD094BCC18FAE7084CE840A4466344D7
:1046D0009A400243EFE7C046FE0300001D040000BD
:1046E0003304000013040000FFFFFF7FEDFBFFFF1A
:1046F00070B5002830D0C317C4185C40C50F200027
:1047000000F08AF8174B184A1B1AD21A1F2A18DD14
:10471000164AD21A9440002224035B05240B5B0D39
:104720000021100024030A0D240B12052243104C13
:104730001B05224013435B00ED075B082B43190068
:1047400070BD210091400A000B21081AC4405B058E
:104750002403240B5B0DE3E7002500230024002243
:10476000DEE7C0461E04000033040000130400000E
:10477000FFFF0F804100090E4B1C70B5DBB24602F3
:10478000750AC40F012B14DDE0239B006D07360B67
:10479000CB1800210A0D280012051C4D32435B0581
:1047A0002A405B0813435B00E4075B0823431900BE
:1047B00070BD002914D1002D1ED0280000F02CF867
:1047C0000A281CDC0B232A001B1ADA4003001533CD
:1047D0009D400F4B12031B1A5B05160B5B0DD8E7B0
:1047E000002D06D0320B802636036D071643094B89
:1047F000CFE7084B0026CCE700230026C9E70300DB
:104800002A000B3B9A400025E3E7C046FFFF0F80DC
:1048100089030000FF0700001C2101231B049842AC
:1048200001D3000C10391B0A984201D3000A083941
:104830001B09984201D30009043902A2105C4018F8
:104840007047C0460403020201010101000000009C
:1048500000000000024A1368013313607047C0462D
:1048600000030020C021074A074B08485360036A31
:1048700009061B021B0A0B430362002393600733E4
:104880001360704710E000E07E3E000000ED00E0A5
:10489000034A116813685B1A8342FBD37047C04612
:1048A000000300200E4AD3691B061B0F4370D9B2C8
:1048B000D3690C4A1B071B0F83700B4B1B684360AB
:1048C00093420BD102230370002901D101234370CD
:1048D000064B9B8A01339B00836070470123F2E7FC
:1048E0000000904041A000022800904000001040CD
:1048F000F0B5070085B001AC0E0020001500FFF7F1
:10490000D1FF23783B7063783370A3782B7005B0A8
:10491000F0BD10B502F0CBFC10BD10B502F0E2FC0A
:1049200010BD10B502F0B4FC10BD0000F0B51B4C7A
:104930001500A5440D910400EFF31083069372B6A1
:104940000022174B1A7012F063FD0600200001F0E0
:104950009DFF331C864200D9031CDAB2A24200D963
:10496000231CDBB20F4A990000938B5801338B5004
:10497000009B002B07D1069B83F310880020A923FE
:104980009B009D44F0BD009B012B0FD10021064BE5
:104990001A7A1972D2B230BF1A72ECE75CFDFFFFCF
:1049A0000C000020040300200000704034226B46FD
:1049B000E14C9B1825701B787DA82371FFF772FFCF
:1049C000237ADE49DBB20F938B88DD4A9BB21093CA
:1049D00013685C91119300230894059280A91A0032
:1049E0000598C032920080589A0001335050082B2D
:1049F000F5D1D44CD4482368D4491293036AD44FD8
:104A000013938023DB051A68D24E14925A68D24D54
:104A100015929A681692DA6817921A6918925A696A
:104A200019929A691A92DA690A92DA6A1B921A6BD7
:104A30001C925A6B1D921A8F92B21E925B6CC74ADF
:104A40001F93CB6820930B7FDBB221938B8C9BB29F
:104A50002293C34B1B78DBB22393C24B1B78DBB290
:104A600024930B6B2593C04B1B78DBB226930B8FE3
:104A70009BB22793BD4B1B78DBB22893BC4B9C4663
:104A80001B78DBB229933B78DBB22A933378DBB215
:104A90002B932B78DBB22C93B64B1B78DBB22D9388
:104AA00013682E9353682F93137CDBB23093137DDE
:104AB000DBB23193B04BDB7FDBB23293138D9BB211
:104AC0003393D36A3493138E0491A5499BB25E91BC
:104AD000A44935935F91A44900236091A3490192B1
:104AE00061916146A44A6291A2495D94639764967C
:104AF00065950E906691679269AF6BAE6DAD6FACC8
:104B00009E4A9A1892041168D95151689951918B13
:104B1000E950118CE150908C71A9C850108D73A987
:104B2000C850D06A75A9585011004C31088877A92F
:104B3000C850106D79A95850916D7BAA99500433D3
:104B4000082BDDD1B0231B061B688D4C36936368A0
:104B50008C4A3793A3688C4D3893238A9BB2399340
:104B6000A38A9BB23A93A3693B93237FDBB23C9326
:104B7000238E9BB23D93636B3E93A36B3F93E36B9A
:104B80004093236C4193636C4293A36C439393884B
:104B90009BB2449313899BB24593137CDBB246933B
:104BA000137DDBB24793138B9BB24893137FDBB229
:104BB0004993764B998889B24A91198989B24B9168
:104BC000197CC9B24C91197DC9B24D91198B89B22A
:104BD0004E91197FC9B24F916D490868509048684D
:104BE000519028685290287AC0B25390C02000019A
:104BF00028580995039302920D000023002800D144
:104C0000644B90AA0C939446002388A898A9052287
:104C100066465A43604FD21957689F5117681F5014
:104C200097685F50D768A0AA9F500433202BEED11D
:104C30008123DB055A6854921A7BD2B255925A8B63
:104C400092B256921A8B92B257925A6A58929A6AB4
:104C50001B8859929BB25A93C0231B069B685B9397
:104C6000009B032B06D19022C023D20551689B05DF
:104C70000B435360494B4A4A1B680793503B0B93C5
:104C800000230B99C9180968D1500433502BF8D16F
:104C9000444B079A1A607DAA537892781B011343FC
:104CA000112B04DD0020404B186001F0D9FB90234C
:104CB000DB055A683D4B1A60089B1E791A788023E1
:104CC000DB051B685B0A53409E4300D053E601207E
:104CD00000F006FEFBF7F4FD300000F001FE344B5F
:104CE0001B78002B00D0A1E032494B685B0675D4DD
:104CF000314B32484A6800685C6A844216D13048B9
:104D000049680068884204D0059942400968114208
:104D10000CD12C4A596812685140C90006D45B680E
:104D20005A4053015AD52B689B0757D5264A274826
:104D300013681B09D91C4BE0000020400000104004
:104D400000E100E020ED00E0000090400000304075
:104D500054003040580030405C003040000040407B
:104D6000280030402C0030403400304048003040B3
:104D700050003040600030400500404028100000E6
:104D80000000F0400000D040000070400000E04013
:104D900010E000E051E5CC1A080000A00008041063
:104DA0005C17002058170020140000201800002075
:104DB0000C000020FCE100E000ED00E0AC1700205A
:104DC000BC170020B817002010000048FFFF0F009C
:104DD00081421BD813681B099942FBD87DAA5378DE
:104DE00092781B011343112B05DD012001F038FBE4
:104DF0000A4A0B4B1A60009B032B00D0BBE59022A4
:104E0000D205536807490B405360B4E506495B1867
:104E1000116809099942FBD1E0E7C046CCBCECFC23
:104E200014000020FFFFFFCF0400F0FF0122E74F36
:104E30003A83E74ABE813E610B9B91599B19043628
:104E40001960502EF8D1079AE24B40211A606A4649
:104E500052185C9B128880A89A80059B119A1A6050
:104E600000239A0011581A00059EC03292000133A7
:104E7000B150082BF5D15D9B129A78211A600E9BD8
:104E8000139A6DAE1A628023149ADB051A60159A84
:104E90005A60169A9A60179ADA601A9A9A61199A61
:104EA0005A61189A1A610A9A9A620A9ADA611B9AE6
:104EB000DA621C9A1A631D9A5A636A46521812885B
:104EC0000C311A871F9A5A64049B209ADA606A464A
:104ED0005218049B127804311A776A465218049BC0
:104EE000128804319A846A4652185E9B1278043103
:104EF0001A706A4652185F9B127808311A70049B28
:104F0000259A1A636A465218609B127804311A7007
:104F10006A465218049B128804311A876A4652184E
:104F2000619B127804311A706A4652181278629B9B
:104F300004311A706A465218639B127804311A7051
:104F40006A465218649B127804311A706A465218E5
:104F5000659B127804311A706A465218669B127863
:104F60000C311A70019B2E9A1A60019B2F9A5A607D
:104F70006A465218019B127804311A746A46521814
:104F8000019B127804311A756A465218679B127891
:104F90000431DA776A465218019B128808311A8563
:104FA000019B349ADA626A465218019B12881A866B
:104FB000002369AA94466FAA049261460C20864A8F
:104FC00059589A189204116068A90918C958516073
:104FD0000191995B91830499595A118471A9595887
:104FE00089B2918473A9595889B2118575A9595804
:104FF000D16277A9595888B211004C31088079A93B
:10500000595811657BA9595804339165082BD4D19F
:10501000B023369A1B061A60519B509A6B6000238E
:10502000AB602A60379AE4216260389A8820A260D7
:105030006A4652181288043122826A46521812882F
:105040000831A2823B9A4000A2616A465218127847
:10505000043122773E9A052662633F9A90ADA2639F
:10506000409AE263419A2264429A6264439AA2643B
:105070006A4652186946128809182286029A0988D7
:105080000430918069460918029A09880430118118
:1050900069460918029A097804301174694609189A
:1050A000029A0978922411754021489A02988A43FD
:1050B0000283684664000019029A0078043410776D
:1050C00068460019039A00880434908068460019E5
:1050D000039A00880434108168460019039A007806
:1050E0000434107468460019039A007888AC10756F
:1050F0004E9A9E208A43039940000A836946091804
:10510000039A097810301177099A5299116069460B
:105110000918099A09781172C0220C98099912018C
:10512000885098A832005A432C4952185959516056
:105130001959116019589160A0A959580433D160C8
:10514000202BEFD18123549ADB05AA215A606A46AD
:1051500049005218127804311A736A46521812889C
:1051600004315A836A46521812880C311A83589AAD
:105170005A62599A9A626A46521812881A80C02353
:105180005B9A1B069A600E9B1B7A002B49D13B89C8
:10519000082B46D93B89812B43D80D9B002B40D04F
:1051A00009223B891340934204D18023DB05DB694C
:1051B0009B0533D411223B891340934210D18023A5
:1051C000DB05DB695B0529D40AE0C0460000104816
:1051D0005C1700205817002028100000080000A0CD
:1051E00021223B891340934204D18023DB05DB69F4
:1051F0001B0513D441223B891340934204D18023E1
:10520000DB05DB69DB0409D481223B89134093422F
:1052100007D18023DB05DB699B0402D501220E4BFD
:105220005A60009B032B05D19022D20553680B498D
:105230000B4053606A463C215218089B12781A7240
:10524000009B032B05D100203B3901F0C7F9FFF784
:1052500092FB00210800F8E7FCE100E0FFFFFFCF30
:10526000024A138ADB07FCD57047C0460000104095
:10527000084B10B51A68084B9A4209D13F22074BD8
:1052800040061A81000C2E3A98611A80FFF7E8FF59
:1052900010BDC04614000020CCBCECFC0000104047
:1052A000084B10B51A68084B9A4209D13F22074BA8
:1052B00080081A810C3A986119641A80FFF7D0FFB0
:1052C00010BDC04614000020CCBCECFC0000104017
:1052D000F7B5019001790468002931D18022D20507
:1052E0005368A3435360019B20251E68802300223E
:1052F0006D42DB0534000120D44004420BD0D4B20F
:10530000072A26D897000E30B840DC6A844308008C
:10531000B8400443DC62013204351A2AEAD1019B09
:105320005A798023DB05012A3AD1DA683243DA6000
:10533000019A9279012A36D19A6816439E60F7BD88
:105340000629D0D18022D20553680021234353601F
:10535000C9E72700083F072F08D80F27AF401C6B6D
:10536000BC430F00AF403C431C63D4E7103C072C08
:105370000AD82F000F20203FB8405C6B8443080000
:10538000B84004435C63C6E72F000F20403FB8409D
:105390001C8F84430800B8400443A4B21C87BAE7BA
:1053A000DA68B243C3E79A68B2439A60C7E700235A
:1053B000036003718371437170478023DB051B68B1
:1053C0001840431E9841C0B270478023DB05012975
:1053D00001D1D86370471864FCE78022D2051368B6
:1053E00058401060704780234268DB050168012A3D
:1053F0000FD11A690A431A6180238168DB050268AC
:10540000012909D1996911439961596991435961F8
:1054100070471A698A43EEE7002907D1D243996998
:105420001140996159690A405A61F1E759690A4383
:10543000FAE78023DB05DA69002902D01043D8613E
:1054400070478243DA61FBE78022D205936A1843F2
:10545000906270478023DB055B6A1840431E9841C9
:10546000C0B27047012270B503880D0093430380DA
:1054700049790400080023880232274E1040400377
:10548000334003432380254B4900C85A2968244BE5
:105490004843181A234B994229D84900FCF7E8FBE6
:1054A0003022238893432380C023626892B29B02F8
:1054B000134363606368EA889B0A9B0213430322D9
:1054C000062180B2636020852B791A402388520020
:1054D0008B43134323802A7A0823012A18D1228878
:1054E00013432380012322881343238070BD0E4B76
:1054F0009942DFD85143FCF7BBFB3022238893430A
:105500001A001023134323806268802392B2CEE7EF
:1055100022889A432280E5E7FF9FFFFFA41800201E
:105520000024F400A0860100801A0600034B0360EB
:10553000002303714371C380037270478813000016
:105540008A880B881343CA8813430A8913434A88FD
:1055500049895200C9030A431343C3607047017469
:105560007047007EC0B270478023028813430380D7
:105570007047022300680006C00F181A7047006BBE
:105580000840411E8841C0B270478163704740693E
:105590000007800F7047C02380211B061A680A434A
:1055A0001A601A688A431A6070470000044B1A6A2E
:1055B000012902D110431862704782431A62FBE747
:1055C00000009040244B1A7A244BD2B21B899BB224
:1055D000002A36D11A00093A782A19D809211A0066
:1055E00006200A408A422BD0112201301A40112A8B
:1055F00026D0212201301A40212A21D04122080040
:105600001A40412A1CD0812201301A40812A17D029
:1056100002221900FF3211400B20914210D01900D4
:105620000F4A0130114091420AD01A000738024057
:10563000824205D002381840033843425841800066
:1056400070470120022AFBD00018042AF8D000205D
:10565000082AF5D10330F3E700009040000010481D
:1056600001040000054B0122196B002802D00A43F7
:105670001A63704791431963FBE7C046000030404E
:10568000F8B54A4C0500236B01681B0700D56DE097
:1056900009014748FCF7ECFAC3099AB2A284454ACB
:1056A000DB0101301340C01A400880B23F2802D904
:1056B0003F233F381840032760263F4BC0B2187085
:1056C0003E4B2A7918783A405201B0431043187083
:1056D00001206979227F39404901B2430A43227788
:1056E000AA7919780240BA400730814311431970F2
:1056F000217F81430A432277EA79002A38D10221A7
:105700001A788A431A70227F8A43012022772A7AE4
:10571000216B1600C2402A4F0640760239403143C1
:105720002163216B274E0240314012020A4322635B
:10573000697A226B0E00C140234F06403A40B603FF
:1057400032432263226B214E01403240C903114390
:105750002163AA7A197802400F3012018143114364
:105760001970237F83431A432277F8BDC90090E75D
:10577000022A0CD104201978114319701978814339
:105780001970217F0A432277227F8243BDE70221DD
:105790001A780A431A700422187810431870207F70
:1057A00001432177217F0A43AFE7C0460000304024
:1057B0000000127A80FF7F00280030402C0030402B
:1057C000FFFDFFFFFFFEFFFFFFBFFFFFFF7FFFFFAC
:1057D000044B1A8F002902D0104318877047824368
:1057E0001A87FBE700003040024BC005C00D18804F
:1057F0007047C04600003040014B1888C0B2704767
:1058000000003040054B002805DA5B681840431E55
:105810009841C0B270471B8BF8E7C046000030408B
:10582000034B9B8F1840431E9841C0B27047C0463F
:10583000000030400722024038200449D2000B7893
:1058400083431800104308707047C046340030404E
:10585000F0B583780178002B33D040784AB28001CC
:10586000002A1BDA0F230B40083B1B4A9B089B00B6
:105870009B18FF22032517000D40ED00AF400240AA
:10588000AA40DE69BE433243DA611F224B09114050
:105890001E3A8A4011499B00CA50F0BDFF270F4BAA
:1058A00092089200D21803233C00C0250B40DB0075
:1058B0009C4038409840AD005659A6433043505163
:1058C000E3E71F234A090B40012199401300034AD3
:1058D00020339B00D150E0E700ED00E000E100E064
:1058E000054B04221969002802D00A431A61704747
:1058F00091431961FBE7C04600ED00E00A0010B5D6
:105900000100024801F0F6FCFEE7C046257B0510C9
:1059100037B50D00012903D90F491048FFF7EEFFF5
:105920006B46DC1D202201235F21200000F0A0FC3B
:10593000012300280DD17F222178ED011140294358
:1059400021705F3A5F21200000F04CFC431E98411B
:10595000C3B218003EBDC04661020000EC7A0510DB
:1059600073B57F260D00314203D00E490E48FFF774
:10597000C5FF6B46DC1D222201235F21200000F0C1
:1059800077FC012300280BD122785F213240154398
:1059900020002222257000F025FC431E9841C3B24E
:1059A000180076BD0E030000EC7A051073B50B00ED
:1059B00040260D00B34303D00E490F48FFF79EFF6A
:1059C0006B46DC1D222201235F21200000F050FCE9
:1059D000012300280BD122785F21B2431543200018
:1059E0002222257000F0FEFB431E9841C3B218002E
:1059F00076BDC04639030000EC7A051037B501AC1E
:105A00000D00012360221E21200000F031FC032341
:105A100021781D40994329432170023B60221E21B9
:105A2000200000F0DFFB3EBD37B501AC0D000223C6
:105A300010225D21200000F01BFC032370212B406D
:105A40001A0123788B431343012223700223291167
:105A5000114048006178ED1099430143154091438E
:105A6000294361700F325D21200000F0BBFB3EBD79
:105A700037B50D0001AC01230E225D21200000F09E
:105A8000F7FB01232A0002201A409A4021782D11A9
:105A9000814311437F22ED01114029432170713A66
:105AA0005D21200000F09EFB3EBD37B501AC0D002E
:105AB00001230E225D21200000F0DAFB01230422E5
:105AC00021781D40AD009143294321700A325D21A8
:105AD000200000F087FB3EBD37B501AC0D0001236F
