:020000041004E6
:1008000000600020ED7A0410D36E04108D510410A6
:10081000AA5555AA45554C420000000000000000B2
:10082000000000000000000000000000DD92041045
:100830000000000000000000A97304108997041054
:10084000CB370410196F04100000000000000000F6
:10085000999B0410DB920410E51B04100D9D0410FD
:100860000000000000000000000000000000000088
:1008700000000000DF0B0410915104108F51041090
:1008800000000000536A0410556A0410576A0410EF
:10089000596A04100D7B0410336F041001220410F8
:1008A0000000000000000000000000000000000048
:1008B0000000000000000000000000000000000038
:1008C000EFF31482EFF309811C4880F31488BFF31F
:1008D0006F8FF0B543464C4655465E466746F8B4C2
:1008E000174CEFF30883236006B4164C2068164CAF
:1008F0002060164C2068164C2060164C2068164C60
:100900002060164C276800202060BFF34F8F30BF57
:1009100027600B4C246884F3088882B003BCF8BCC1
:100920009846A146AA46B346BC46F0BC04BC80F338
:10093000098881F31488BFF36F8F1047000000000F
:100940000800002004ED00E0E402002024ED00E0B7
:10095000E802002000E200E0EC0200200800204055
:100960000348854600F0A6F80048004761ED0410F2
:100970000060002030B50B460146002020220124F3
:1009800009E00D46D5409D4205D31D469540491BC3
:100990002546954040191546521E002DF1DC30BD0C
:1009A00010B5441A0346944209D28318891803E00B
:1009B000491E0C785B1E1C70521EF9D210BD0C46ED
:1009C0000443A40703D009E010C9121F10C3042A6E
:1009D000FAD203E00C781C70491C5B1C521EF9D241
:1009E00010BDD2B201E00270401C491EFBD270471C
:1009F0000022F6E710B513460A4604461946FFF7EB
:100A0000F0FF204610BD30B504460020034600E04C
:100A10005B1C934203D2E05CCD5C401BF8D030BD40
:100A20000321001D401E037812021A43491EF9D506
:100A300010467047F0B51FB40646002082B0054648
:100A40004024019100901BE0019922460F46304658
:100A500000F042F8049A059B801A994110D3104681
:100A60001946224600F016F8361A8F4101972246A1
:100A700001200021009F00F00DF838184D41009032
:100A80002046641E0028DFDC019B00982946324680
:100A900007B0F0BD10B5202A04DB0146203A914092
:100AA000002010BD914020239C1A0346E3401943C7
:100AB000904010BD064C0125064E05E0E36807CCCA
:100AC0002B430C3C98471034B442F7D3FFF74CFF4C
:100AD0008C1305101C14051010B5202A04DB0846E1
:100AE000203AD040002110BD0B46D340D0402024F6
:100AF000A21A91400843194610BD70B58C180578AC
:100B0000401C6B075B0F01D10378401C2A1106D1F2
:100B10000278401C03E006780E70401C491C5B1EE6
:100B2000F9D12B0705D40023521E0DD40B70491C9C
:100B3000FAE70378401CCB1A921C03E01D780D7075
:100B4000491C5B1C521EF9D5A142D8D3002070BDB0
:100B50008121C90580220128088802D0904308809D
:100B600070471043FBE78121C9050222012808884C
:100B700006D04023184308800888904308807047B7
:100B80001043FBE78121C905012804D00888102201
:100B900010430880704748684002088804D5FF2247
:100BA00001321043088070470422104308800888EF
:100BB00001221043088070478120C0050188082267
:100BC00011430180704781210122C9055202012889
:100BD000088802D09043088070471043FBE77047B5
:100BE0007FB505469868012202739A681C465173C6
:100BF0009868022202A90E3006F093F9A168052038
:100C00000D74E0807FBD70B5064608881D460C4611
:100C1000001D81B213460222304606F0EBFA21880D
:100C20002B46891C2180091D89B20222304606F01C
:100C3000E1FA2088801C208070BDFEB500240E469D
:100C40002746056845E028680290A96802223046D8
:100C50000D3106F066F93088B84209D087B23846BF
:100C600003F0F6F9014601AA384604F06DF8019C3C
:100C7000A968022268460F3106F053F9E888401F40
:100C800081B22220005D002806D001280BD0002868
:100C900011D0012814D01BE0E08B6A461288401E58
:100CA000904206D307E0208C6A461288401E90428C
:100CB00006D20720FEBD684600880818E18B03E0D5
:100CC000684600880818218C884201D90D20FEBD95
:100CD000029D002DB7D100203080FEBDFFB5C88831
:100CE0000025401E83B00E4687B2012427E0B0687D
:100CF0000222083001196846091D06F012F96846FB
:100D0000008803F0A5F901001DD068460A8D00880F
:100D1000824212D001AA04F017F800280DD10199DF
:100D20002620405C400708D506986A001018022269
:100D30001C3106F0F6F86D1CADB2A41CA4B2BC4286
:100D4000D5D30C98058007B0F0BDFFB5074683B03A
:100D5000002000900D9803F07BF9054606980C30B2
:100D60000190002D26D00837BD4223D0288D0E9942
:100D700088421FD80D99884213D30E99884210D803
:100D8000294602222A31019806F0CBF810220C994C
:100D9000069806F0C2F8002809D0298D0E988142E5
:100DA00008D02E462C6A2036B442DDD03EE00598AD
:100DB0000021018007B0F0BDA08B0D99884234D38B
:100DC0000E99884234D8204620300290C0780128FD
:100DD00008D02046083010220C9906F09EF8002812
:100DE00008D022E0214602220831019806F099F845
:100DF0000698F0E702988079400716D500980028F9
:100E000001D1E08B0090E18B814211D10598022243
:100E1000008841000498081821461C3106F081F82A
:100E2000059805990088401C08802468B442C3D105
:100E30002D6899E706480021026805204002101835
:100E40000173417303218173C17300207047000057
:100E50004003002070B50D4D044611212868C901DA
:100E60004018902601231A46C06F314609F0E6FD6E
:100E7000010003D030464C6009F0CCFD0520296804
:100E800040020918087B401C087370BD4003002015
:100E900010B5044600202082A074A168A1616161A0
:100EA0002060204605F0DCF9452801D0412010BD26
:100EB000A08803210BF0CAFE04460CF093FB002827
:100EC00012D072B60948012201684F20400109186A
:100ED0004879A2401043487162B600200EF03EFDF2
:100EE000002801D00AF000FD002010BD40030020C2
:100EF00070B5C17C0E4D4906490EC17404461121DE
:100F00002868C9014018902601230022C06F31468D
:100F100009F094FD010003D030464C6009F07AFDE1
:100F20000520296840020918487B401C487370BDA1
:100F30004003002010B508F0D2F9002803D108F0D2
:100F4000D8F9002801D0002010BD032010BDF8B54D
:100F500016460D460746002407F0DAFF002806D0A3
:100F600032462946384601F087F8044604E0203529
:100F70006879002802D00E242046F8BD2879C107E0
:100F800001D1012E09D0810701D4022E03D04007E0
:100F9000F2D4042EF0D10324EEE70224ECE70000A3
:100FA000F0B41C4D94461A4FEA691206140FFF2242
:100FB0001202260293431640EA693343FF252D04AB
:100FC0001207120BAB432A4013433A68124E012515
:100FD000B24204D11A0A02261202324302E01A0A6D
:100FE00012022A43002C07D1FF231B029A432B0233
:100FF000FF24240223401A43084B9B8A02701004EA
:10100000000E08701002010E60460170F0BC7047BF
:10101000280090400000904041A0000200001040D5
:1010200010B508F081FC1E4C472120684901411889
:10103000097B002909D1A0300079C00729D00CF024
:1010400027F801F069F801F0C3FB00F001FD20680A
:10105000014640310A78C9798A4319D13E21095C99
:10106000002915D10F490A88120711D50922D20685
:101070001269497A836AC900591809231B02C018EA
:10108000806D801A00020012814201DA0AF080FBB2
:1010900010BD02F0DDFA03F035F807F035FDD0E7BA
:1010A00040030020C0000020F3B5FFB096B008A8B0
:1010B00003F000FFFE48007A7390FE48808872902B
:1010C000FD4800687190FD480168009141680191F8
:1010D00081680291C1680391016904914169059198
:1010E00081690691C0690790F548006A5C90F548EF
:1010F000006A5B900120800701685A91416859910C
:1011000081685891C168579101695691416955911B
:1011100081695491C1691091C16A5391016B5291D7
:10112000406B5190E848008B5090E8484068E8498F
:101130004F90C8684E90087F4D90E64882884C9248
:10114000027A4B92027B4A92096B4991017D489148
:10115000008B4790E048017A4691017C4591017DE2
:101160004491017E4391007F4290DC480078419099
:10117000DB480168409141683F91017C3E91017DCF
:101180003D91D8490A793C920A893B92C06A3A90CB
:10119000088A3990D4480168709141686E91818BBA
:1011A0006C91018C6A91818C6891018D6691C16A04
:1011B0006491CE4989896291016D6091806D5E90E4
:1011C000CB4801686F9141686D91818B6B91018C67
:1011D0006991818C6791018D6591C16A6391C5495F
:1011E00089896191016D5F91806D5D900B20000791
:1011F00000683890C0484168379181683691018A0B
:101200003591818A349181693391017F3291BB4953
:10121000098A3191416B3091816B2F91C06B2E9077
:10122000B74801682D9141682C9180682B90B54892
:1012300081882A9101892991017C2891017D27913A
:10124000018B2691007F2590AF48818824910189E8
:101250002391017C2291017D2191018B2091007FBE
:101260001F90AA4800691E90A84840691D90A84890
:1012700000681C90A648007A1B90A64800680028C9
:1012800030D000200F9000207CAE142102464A434B
:10129000A14951184B688200B3500B6874ACA3503D
:1012A0008C6884AB9C50C968401C8CABC0B2995010
:1012B0000828EAD38120C00541681A91017B199161
:1012C000418B1891018B1791416A1691816A159192
:1012D0000088149003208007806813909598032855
:1012E00002D008E08D48CDE70920C00641680322FE
:1012F0001207114341608A488A4C016850390E91A7
:1013000001C9894D14222860012012912160121A0E
:1013100001469446226808CA8700401CEB51491CCC
:10132000C0B222608C45F5DA08A9487889780001B6
:1013300008430027122804D37C480760002007F0E8
:10134000C5FA0920C00640687949086058490879FB
:101350000978012292071268520A4A4090437DD1CF
:10136000012008F071FAFFF7ABFA002008F06CFAE0
:1013700070480078002872D06F4801220283002153
:10138000818101610E9829680160129921601423FE
:10139000104611469B1A8200AF58226880C2401C3A
:1013A000491CC0B222608B42F5DA424972988880AB
:1013B000414971980860414B00206A4681005458A9
:1013C000C9180C60401CC0B20828F7D33C495C988F
:1013D00008623C495B980862012080075A990160C5
:1013E00059994160589981605799C16054998161B8
:1013F0005599416156990161109981621099C161B5
:101400005399C16252990163519941632E49509891
:1014100008832E494F9848602D494E98C8604D98D2
:1014200008772C484C9A82804B9A02724A9A02732F
:10143000499A0A6348990175479901832648469954
:101440000172459901744499017543990176429955
:101450000177224941980870214801E053E1FFE0FB
:10146000409901603F9941603E9901743D99017531
:101470001C493C9A0A713B9A0A813A9AC26239988D
:1014800008821949709808606E9848606C98888343
:101490006A98088468988884669808856498C86201
:1014A0001249629888811049609808655E9845E005
:1014B000000020400000104000E100E000E400E0F7
:1014C00000ED00E00000904020000040400000409F
:1014D000000030402000304040003040600030408C
:1014E00000004040200040400000A0404000A040DC
:1014F0000000B0404000B0400000F0402000F0404C
:101500004000F0400000D0400000E04000E000E07B
:1015100000007040000C7040080000A051E5CC1A9B
:1015200000080410D0020020540300201400002002
:10153000180000200C0000200000104888659F481B
:101540006F9901606D9941606B99818369990184FC
:1015500067998184659901856399C162984A619907
:1015600091815F9901655D9981650B210907389823
:10157000086094481D994161002181611E990161B3
:101580009148379941603699816035990182349943
:1015900081823399816132990177309941632F9922
:1015A00081632E99C16389482D9901602C9941600E
:1015B0002B99816086493198088286482A998180D2
:1015C000299901812899017427990175824A2699E0
:1015D00011400183259901778048249981802399BE
:1015E000018122990174219901752099114001838B
:1015F0001F9901777A481C9901601B9901727949FA
:101600000F980860784F002084AC8CAD14214143C2
:10161000C9198200B3584B6074AB9B580B60A35838
:101620008B60AA58CA60401CC0B20828EED3812043
:10163000C0051A9941601999017318994183179946
:1016400001831699416215998162149901800321E1
:101650008907139888606548007A002856D08EE084
:1016600063480168490637D4026862490B686249D9
:101670005A404C6A614D2D68AC421AD100689842BC
:1016800003D05F480068104213D15E480122006811
:10169000120703464C6813401440A34209D192102C
:1016A000496810401140884216D0464800698007BA
:1016B00012D50921C9060869534B0209D01C98426A
:1016C00004D80A6912098242FBD305E04F4810187A
:1016D0000A6912098242FBD108A948788978000179
:1016E0000843122805D3012007F0F0F8494848497B
:1016F00001609598032806D10920C006416803229D
:101700001207914341607FB018B0F0BD4248018993
:10171000092934D30189812931D8969900292ED0FD
:1017200002890921914303D18102C969890523D422
:1017300002891121914304D101218907C969490511
:101740001AD402892121914304D101218907C96951
:10175000090511D402894121914304D1012189074E
:10176000C969C90408D401898120884307D10120AF
:101770008007C069800402D51D4901200860959842
:10178000032806D10920C0064168032212079143AD
:1017900041602249739808729598032806D0002169
:1017A000084600F045FD7FB018B0F0BD01210020D3
:1017B00000F03EFD7FB018B0F0BD00000000B0406A
:1017C0004000B04000E000E00000F0404000F04089
:1017D0002000F0400000D040BFFF00000000E040CB
:1017E00000007040000C7040080000A00000904015
:1017F00000E200E0EC02002000ED00E0E802002042
:1018000000E100E0E4020020FFFF0F000400F0FF11
:10181000CCBCECFC1400002000001048000020406C
:10182000F7B50746EFF3108472B600251948057026
:1018300000F070F906463846FFF77CFBB84200D34B
:101840003846864200D23046134982008B585B1CD2
:101850008B5000280ED0012811D01049029A0A702E
:10186000019A0A710199FFF71FFC84F31088002088
:1018700003B0F0BD84F31088002003B0F0BD084829
:10188000017A057230BF017284F31088002003B022
:10189000F0BD00000C0000204403002000002040A8
:1018A0000000704010B5837F01220024920241683D
:1018B000082B03D94224914202D310E0914201D275
:1018C00042240CE001463422064805F02AFB00F0D1
:1018D0007FF8002801DA482401E008F031FC2046B6
:1018E00010BD0000C40300203EB5174D15482968FF
:1018F000827F0846A0310A73002460300476447663
:101900008476E122C276802202770222427730205A
:1019100008704C7002AA01A96846FFF741FB6846AF
:101920000078A22201016846007A891C0002014366
:10193000684600790003014328681152A030047101
:101940003EBD0000C40300204003002070B507F036
:10195000CFFF04F0AFFB05F0BFFBFFF76BFA03F01E
:1019600019FE184C18492068184D401881100120A4
:101970002A68C0021018C166616889080167A168F9
:101980008908416707F086F81D2029688001228BAD
:1019900008180287628B4287A28B4286628C8286FD
:1019A0002046203002783B20400108188275002133
:1019B000017001F0C5FC03F0E3FA0AF0B3FA00F09D
:1019C0008DFF70BDC40300200000FCEF4003002029
:1019D00070B50025ED430BF07DF801282ED00023D3
:1019E00018490322888BFF24401E10438A7F4D3400
:1019F00062438218088B282460431218488B3024D5
:101A0000604312180846203040782C246043101898
:101A10000D4A181884184869A0420DD10B48844219
:101A20000AD90D690BF056F8C1B2284600F098FDAE
:101A300000F0C6FE401B251A284670BDFF23B533B3
:101A4000CEE70000C403002039190000580A000046
:101A5000F8B52C4F3C68206E5C34401C002814D034
:101A6000002529480023C07B00283ED00926F60621
:101A70002648002D1CD000210A460B464169521C05
:101A8000994204D1002902D004E00125E9E7204B66
:101A90009A42F2D32160006960603069A168000257
:101AA000090E000A09060143A16000F08DF81DE04F
:101AB0003169A2680902090A150E08D0018BC9070D
:101AC00012D04169216000696060E37210E0881AF9
:101AD00000027D2300121B03984205DD100E000654
:101AE0000843A06000F070F8F8BD6360002DFBD0E3
:101AF00003CC0DF0D9FEFA200DF022F93968886286
:101B0000F8BD000040030020E4030020000010485E
:101B100088130000F8B5294D002029680A46403294
:101B20001378D279934347D14A6E120E44D13E22A4
:101B3000525C002A40D1431E21488D6A467A1A46DB
:101B40000024F600AD190926F606376900887D19CC
:101B500007070120002F06DAF314CB189C6D631BD6
:101B60001B021B1228D407273F02C9190969CF019C
:101B700003D54A1B120212121ED401252D07002B79
:101B800006DA002A0ADA75600E48856003200AE04A
:101B90001120000604437460002A03DB2943084631
:101BA00007F048FD02200549096840314A78002ABB
:101BB00002D0002048700320F8BD00004003002040
:101BC000C00000204000004804490020086104488B
:101BD000012100686030C1717047000000001048AA
:101BE0004003002010B505F073FE10BD70B5244908
:101BF0000023086802464032537613764F22520182
:101C0000821853710F222030827505221846520225
:101C10000C680546A418246B303523540C68A418AE
:101C2000246B63550C683035A418246B63550C681D
:101C3000A418256B04469034401CC0B22B552D28A7
:101C4000E6D309688A18106B9060044630345460FB
:101C5000903010600B480C464834038009224271D2
:101C600005238371C2710372418100F00DF8FF20DA
:101C700020706070A070E0701F20207170BD0000A7
:101C800040030020C000002010B506480168064847
:101C9000406A002803D020220AF0B5FE10BD0020C3
:101CA000087010BD40030020C4030020F8B5069C56
:101CB0001F4615460646002C13D0A06802220D30A0
:101CC00005F02FF9E81E82B23B460721204605F0B9
:101CD00091FAE580A068012E05D01D210173002036
:101CE000F8BD4720F8BD1B21F8E770B5154606463C
:101CF000FFF72DF90446082D0BD1052C09D13046EC
:101D000007F006F9002804D0008A4004800F00D0B4
:101D10000024204670BD2423184204D0C81F09287F
:101D200003D82032D1710020704742207047000054
:101D3000F1B5FFB08BB00124600205900027CC48BC
:101D400007970168E320C000081803908A98C74DE0
:101D50000005000D0AAA05A906F099FD06900028C5
:101D600072D104260AA805994218203AD27F0B2A7C
:101D700023D00026002004900AA88119022201A87D
:101D8000029105F0CEF86846818809AB08AA03984D
:101D900002F0BCFF012817D002287DD06846808859
:101DA000854200D30546844200D920460446029865
:101DB0008078012871D013363BE1491E761E360427
:101DC0000591360CCFD1D5E708980090002F79D136
:101DD000009902222831029805F09FF800281ED1B0
:101DE00000982030017B02988078814217D1012829
:101DF00008D10098029902220830C91C05F08DF81C
:101E0000002815D002988078022808D100980299FD
:101E100010220830C91C05F080F8002808D000986E
:101E2000008DA84200D80546A04200D220460446B4
:101E300002990AA88978012907D013360599B6B204
:101E40008E4204D3012707E005E1761DF6E78119EC
:101E5000022201A805F065F80399009808318E4622
:101E60002EE084466946026A8B8820300DE0918B13
:101E7000994203D3012F7DD199427BD9A94200D841
:101E80000D46A14200D30C4612688242EFD104985D
:101E9000002817D1604601E015E0BFE000687045FA
:101EA0000ED0018D994203D3012F09D1994207D950
:101EB0008D4200D30D468C4200D80C46012F59D1DB
:101EC0007045CED1BAE008980090002F72D10099E9
:101ED00002221C31029805F020F800281ED100983B
:101EE0002030C17802988078814217D1012808D12A
:101EF0000098029902220830C91C05F00EF800284B
:101F00001AD002988078022808D1009802991022ED
:101F10000830C91C05F001F800280DD00098808B0E
:101F2000A84200D80546A04200D2204604460298A6
:101F30008078012826D003E002988078012805D017
:101F400013360798B6B201281ED021E000984949FF
:101F50000089884216D18A9800F074FF01460098E3
:101F600000F052FE0099098C484300998969401895
:101F7000022200E038E00299491D04F0D2FF01205E
:101F80000790D4E7761DDCE7B61C0020B6B20790B8
:101F90000598864201D3012705E00AA8811902228B
:101FA00001A804F0BEFF039A009908320998096855
:101FB000944630E01AE086466A46938820300DE069
:101FC0008A8B9A4203D3012F0ED19A420CD9AA428E
:101FD00000D81546A24200D3144609688142EFD1C9
:101FE000049800282AD102E00120049026E07046DF
:101FF000006860450FD0028D016A9A4203D3012F19
:1020000009D19A4207D9954200D31546944200D887
:102010001446012FE8D16045CDD10FE00298C07879
:10202000022805D102980079292801D1B61CB6B240
:10203000761D0598B6B2864200D301270598811B0C
:10204000042902D3864200D294E604980028FBD1EA
:10205000A54203D906987FB00CB0F0BD22462946B0
:102060008A9803F0C1F90690F5E70000FFFF000031
:10207000400300200229000070B515460C460646B4
:1020800006F02FFF20346179012D09D00A0702D50F
:102090004207920F0FD0CA0625D5020709D522E0C4
:1020A000CA0702D04207920F05D08A0705D502075A
:1020B00003D4082070BD052070BD490707D5C007AF
:1020C00009D0E179304606F094FE5F2805D02079EA
:1020D000C00704D005E00F2070BD0C2070BD0220A9
:1020E00070BD002070BD890607D5C007F3D0E17927
:1020F000304606F07EFE5F28EFD02079810701D4BC
:10210000022D07D0410701D4042D03D00007E8D4E5
:10211000082DE6D1032070BD10B505F041F904F09B
:1021200009FF0AF0D7FC012801D100F077F800F090
:10213000F3F910BD0521490748607047002901687F
:1021400002D00122114301E04908490001607047B3
:102150000168490849000160002101604160816017
:10216000C160204A05214907904204D14868F02205
:102170001043486070471C4A904205D148680F22BE
:102180001202104348607047184A904205D14868CF
:102190000F221203104348607047154A904205D140
:1021A00048680F221204104348607047114A904259
:1021B00005D148680F2212051043486070470E4A47
:1021C000904205D148680F221206104348607047BC
:1021D0000A4A9042FBD148680F2212071043486018
:1021E000704700001C0000A0300000A0440000A0C8
:1021F000580000A06C0000A0800000A0940000A087
:1022000070470000044A0029117901D0014300E021
:1022100081431171704700002000904070470020FA
:102220007047002101E000BF491C8142FBD3704789
:10223000F0B464A2F0CA87B00094019502960397A7
:102240005568146892680494059506920025002844
:102250007ED04422684682736148027A0124224378
:1022600002724C226846C27220220272B22242746A
:102270005B2202755B4EB26A5B48140C84420AD141
:102280006C46E77D8F2427406C46E775E77D520753
:10229000520E1743E775726A140C84420AD16C46D9
:1022A0006679CF2426406C46667166799207920E55
:1022B000164366714D4A126B140C84420BD168466A
:1022C000C07D8408A4006846C475C47D9007800F53
:1022D00004436846C4756A46D07AFB2210406A46B9
:1022E000D0721804000E06011802000E06430227E1
:1022F0003F48122E1FD3D37D042213436A46D37561
:10230000D47D03780022002B09D0835C521C9A18DC
:10231000D2B2835C002BF8D1D31C202B05D287547A
:102320003523821853709470D570324A1770352354
:1023300053709470D5706A4693B2012212049A18B1
:102340000923DB06DA60DA68D203FCD4122E00E03F
:102350001DE01CD304780022002C09D0845C521CA0
:10236000A218D2B2845C002CF8D1D41C202C0ED23E
:10237000875421248018447008228270C57082B26C
:10238000012000041018D860D868C003FCD41A4893
:10239000028B002AFCD00122028317228281056170
:1023A000002908D00921C9060869102210400B69CC
:1023B00013408342FBD012491048086007B0F0BCBC
:1023C00070470000023F00023E30023C20023B4CBE
:1023D000023A400239B202345B02350B00000000C1
:1023E00000002040C007001055AA00008007001020
:1023F000A4030020F002002000001048CCBCECFC3C
:102400001400002000B585B00421012008F0E9FD8A
:10241000010003D012A007F039FFFEE708F0F4FC3A
:10242000010003D01AA007F031FF02E021A007F05D
:102430002DFF04A903A80191009002AB08220021FE
:10244000012008F087FB010004D022A007F01EFF46
:1024500005B000BD28A007F019FF05B000BD0000C1
:102460004572726F7220696E206163695F68616C8A
:102470005F7365745F74785F706F7765725F6C65AA
:1024800076656C282920307825303478720A00006F
:102490004572726F7220696E206163695F67617453
:1024A000745F696E69742829203078253034787219
:1024B0000A0000006163695F676174745F696E6937
:1024C000742829202D2D3E20535543434553530D49
:1024D0000A0000004572726F7220696E20616369A4
:1024E0005F6761705F696E697428292030782530D4
:1024F00034780D0A000000006163695F6761705FF6
:10250000696E69742829202D2D3E2053554343457B
:1025100053530D0A00000000F8B5104E306820300B
:10252000C57D002D19D0002405277F0210E0E907A2
:102530000BD0C01941695820604308184030417DD4
:10254000204603F0B5FE002807D06D08641CE4B2F5
:102550003068AC21095CA142E9D8F8BD40030020F5
:10256000F3B581B0934A012101A804F0A7FC924C75
:1025700004222060432101A804F0A0FC1127216857
:10258000FF01C91908670422432101A804F096FC41
:1025900021680422C9194867FF21843101A804F089
:1025A0008DFC2168854DC9198867A97F0C2201A877
:1025B0000B3104F083FC05262168760289198863B3
:1025C000A97F202201A804F079FC21681022891932
:1025D0008862A97F01A804F071FC2168282289196A
:1025E000C862052101A804F069FC2168302289191C
:1025F0004863052101A804F061FC2168FF228919C4
:1026000008630132012101A804F058FC2168582216
:1026100089190864A97F01A804F050FC21682022D0
:1026200089194861A97F01A804F048FC2168782233
:1026300089198861A97F01A804F040FC0F21226854
:10264000C9015118C8630722032101A804F036FC10
:102650000F212268C901511808642822012101A80C
:1026600004F02CFC0F212268C90151188864AA8B40
:10267000012101A804F022FC072122680902511857
:10268000C866298B282201A804F018FC07212268BB
:10269000090251184866698B302201A804F00EFC2B
:1026A000072122680902511888660C22012101A81D
:1026B00004F004FC21680C2289190861012101A899
:1026C00004F0FCFB216828228919096988602846E2
:1026D00020300090417801A804F0F0FB216804222A
:1026E00089190969896888600098417801A8491C9E
:1026F00004F0E4FB2168102289190969896848609F
:10270000A97F01A804F0DAFB21680222C9194866F2
:10271000A97F01A804F0D2FB21680222C919C8636D
:10272000A97F01A804F0CAFB21680222C919086424
:10273000A97F01A804F0C2FB21680222C9194864DC
:10274000A97F01A804F0BAFB21680122C919886495
:10275000A97F01A8491C04F0B1FB21681022C91906
:1027600008660B2101A804F0A9FB072122680902D1
:10277000511848600422802101A804F09FFB2168C1
:102780008919C861029ADC204243012101A8443220
:1027900004F094FB216889190862029AD820424308
:1027A000012101A82C3204F089FB216889194862B3
:1027B0000198FEBD580A000040030020C403002019
:1027C000704710B5C001000C00F0ECF9002010BDFE
:1027D000FEB572B63F4D0823286801464030C279E5
:1027E0001A43C27162B6002011276C46FF018200B5
:1027F0005218D219D26F52884300401CC0B2E25224
:102800000328F4D372B6C8190021866E816662B6B9
:10281000F00702D000200AF0D1FCB00702D5012059
:102820000AF0CCFC700702D502200AF0C7FC300782
:1028300002D503200AF0C2FC002623E00D281AD29C
:10284000211D254A8000125820469047002812D0AA
:1028500072B62868F7224030C1791140C17162B662
:1028600030E03A2807D21C49231D8000E8390A5875
:10287000194620469047029829684018C019C06F31
:102880002188018071006846415AB00002902A6890
:102890008018C019C06F028892089200141802882C
:1028A00008348A420ED0A27891070BD09107890F85
:1028B000012901D104460834A0788008C006E078D8
:1028C000CFD5BBE7761CF6B2032EDBD30AF098FB1C
:1028D000FEBD0000400300201C13051070B50AF077
:1028E000A9FB124C11252068ED014019006F402111
:1028F0000AF062F921684919C867486F40210AF057
:102900005BF90926216836028A1910604819FF21EF
:10291000806F81310AF050F92368082299194860C4
:1029200003480021181804F000FB70BD400300208C
:10293000E8080000FEB506462A4814460068E3226F
:10294000D2008518C888032806D023460022022119
:102950000420FEF745F943E08968022268460D31FC
:1029600004F0DFFA326990052FD4684601881729F0
:1029700003D35C20405B172801D2172002E081427C
:1029800000D20846708001204002024302203261DA
:10299000019014481B210068890141183788C97EBD
:1029A00076880123490710D51121C9010830401844
:1029B0002422C06F022108F041F8002805D087804A
:1029C000C6800146019808F025F8A0680326067322
:1029D000A068294602225C310D3004F0A2FAE6809C
:1029E0000020FEBD40030020F7B590B000206A46ED
:1029F0000D9090826A4AE3231268DB00D218CB88DC
:102A00000446022B08D0002218210420129BFEF756
:102A1000E7F8002013B0F0BD8B6800205E7B0A90C1
:102A20000B9088883032019209900027019808F0B5
:102A30002DFB054620E028680890A9880998814266
:102A400019D1A968022207A80D3104F06AFA002FF3
:102A500001D16846878B6846808B87420BD1294617
:102A6000019808F060FB002028600A98002811D027
:102A70000B9805600B95089D002DDCD1002FD4D15B
:102A8000129819218068017301211298012EC180CA
:102A900002D081E00A95EDE702A90AA8FEF7CDF879
:102AA000002879D069460A891821129BFEF798F808
:102AB000002671E081680546022202A80D3104F06B
:102AC00030FA012E66D16846008901F0C1FA01464C
:102AD00068460EAA008902F037F90E9C109920462C
:102AE00000F092F80D9055E02F68012E3FD1002F95
:102AF00006D0B968022205A80D3104F012FA02E0EE
:102B0000002069468882A968022204A80F3104F0D7
:102B100008FAE8880D99401F80B20090208CA269C5
:102B2000484369461018098A009A43180921284623
:102B300004F070FA2220005D012804D16846018A61
:102B400000980818E08368460189808A81420ED087
:102B5000208C0D99A2694843101800210190009122
:102B60001098E38B0188A28B022008F0C5F80A991F
:102B700008680A90002008600A99002900D10B908B
:102B80000121284604F0E2FA69460889898A8842C8
:102B900002D13D46002DA7D10A9800288AD139E7F5
:102BA0004003002008490968084A91420AD14006BA
:102BB000010C07483F220281816111210180018AB5
:102BC000C907FCD07047000014000020CCBCECFC0E
:102BD00000001040084A1268084B9A420BD1084A7C
:102BE0003F231381800890610648016033201080E4
:102BF000108AC007FCD0704714000020CCBCECFC4D
:102C0000000010404000104030B5024623239B5C7A
:102C10000020012B1AD112890D4B9A4216D10D4A70
:102C2000052312685B02D318A0329B69127B0AE06D
:102C300045010C885D5B24052D05240D2D0DAC424E
:102C400004D0401CC0B28242F2D8002030BD000047
:102C50000229000040030020F7B578480F460068BD
:102C6000E321C9004418F88888B0072804D200225C
:102C7000062104200A9B2AE0B968022268460D3129
:102C800004F04FF9B968022201A80F3104F049F9A4
:102C9000B968022204A8113104F043F9F888C01F72
:102CA00080B2039068460288808882420CD8002A4D
:102CB0000AD00898002142880A9804F07DFB002879
:102CC00008D045200BB0F0BD062101200A9BFDF77E
:102CD00087FFABE00A98072180680834017301215F
:102CE000684601810594008801F0B2F905007CD0A6
:102CF00086E06846008A0522D202904202D0521C29
:102D0000904226D168460088814278D329460B221A
:102D100008313846039B04F013FA69466A8D098A24
:102D20008A426CD10399022901D0102967D1002869
:102D300065D12A462846296A28322030814202D0AD
:102D40006B6A1C3300E0134602A90A98FDF75BFF8B
:102D500055E02E462C6A2036B4424ED14FE06946EB
:102D6000A08B0988884247D369468988884257D80A
:102D70002320005D01283FD120460899FFF744FF3A
:102D8000218CA269414351180B223846039B04F061
:102D9000D7F9069008980122008821460005000D09
:102DA000FEF7D5F801466A462089128A904223D15F
:102DB000002921D1E28B03998A421DD1069900296D
:102DC0001AD108996A4649881289891A042927D391
:102DD00022461B491C32884208D12068B04205D0E7
:102DE0000089884202D02468F7E719E023461C33A3
:102DF00002A90A98FDF707FF2468B442AFD12D68F5
:102E0000059885420CD06846298D8088814207D874
:102E100008986A4640881289801A042800D368E717
:102E200068460089012803D90A99C880002049E72B
:102E30006846028806210A200A9B48E740030020D2
:102E40000328000010B50D4900050B680521490253
:102E500059188A690021000DA0331B7B0AE04C0140
:102E6000145B2405240D844202D14801801810BD52
:102E7000491CC9B28B42F2D8002010BD400300208B
:102E8000FFB589B0002405460794D088164605286A
:102E900004D00022042108460C9B20E0B1680222E5
:102EA00008A80D3104F03DF8B168022268460F31E0
:102EB00004F037F86846028C008882420CD8002A59
:102EC0000AD00A98002142880C9804F075FA00286C
:102ED00008D045200DB0F0BD042101200C9BFDF76A
:102EE0007FFEB9E06846008C01F0B2F8060076D0AB
:102EF000083504950498864272D06946308D098C55
:102F0000884230D36946098888422CD8002C0AD1DF
:102F1000012107910C9805218068022401730C9807
:102F20000799806841730A984088001B042857D38A
:102F30000798012854D1201D81B23346283302223C
:102F40000C9804F057F9A01D81B233462A330222AF
:102F5000A41C0C9804F04EF96946A41C308D098815
:102F6000A4B2884274D03746356A2037BD42C1D0FA
:102F700060E06946A88B098C88425AD36946098863
:102F8000884265D8002C36D02320415D07988142C5
:102F900060D10A984088001B042802D307990129B0
:102FA00004D0122856D30798022853D1201D81B28D
:102FB0002B461C3302220C9804F01CF9A41C079821
:102FC000A4B201280DD0201D81B22B460833102257
:102FD0000C9804F00FF92046103084B229E03DE04F
:102FE00036E0201D81B22B46083302220C9804F0F3
:102FF00001F9A01CF1E72320415D07910C98052100
:103000008068022201730C980799806841730C98BC
:10301000294680681C310E3003F083FF079901298F
:103020000CD02B460833102208210C9804F0E2F84B
:1030300014242D68BD429CD136685BE70C98294664
:10304000806802220831103003F06BFF0624F0E79D
:10305000002C03D00C98C48000203BE76846028C0B
:1030600004210A200C9B3AE7830810B50A48002186
:103070000268052040021018A0328069127B07E028
:103080004C01045B002C01D0994204D0491CC9B208
:103090008A42F5D8002010BD4003002070B50C46D0
:1030A0000B4E81000B4832680D1801232032D37774
:1030B00021462846FFF78EFD28680021844201D171
:1030C000084600E0FB2032682032D17770BD000056
:1030D000400300200000041038B5184A1468224646
:1030E000BA32AE34A378DD0701D001290AD05B07DC
:1030F0000CD501290AD0217949070BD5E17A00299D
:1031000005D007E0E07880210843E07038BD012158
:10311000E172508020794106090FF7D078210840EC
:1031200069460870002048706A460221422007F074
:1031300085FD207987210840207138BD400300209B
:1031400070470000FFB50C4678A103C995B0019106
:103150000090002108A801730321C9026846418636
:10316000012108A8734E017435681746AE3502F088
:10317000A7F8002808D170493068401801F056FEC1
:10318000A878002802D0462019B0F0BD0BA81599E8
:1031900000F09AFA0028F7D1072010A90871012C35
:1031A00005D0022C0AD0002C0ED04220ECE708A853
:1031B000017B1020014308A8017305E011A90BA8A9
:1031C00000F091FA0028DFD110A8027901230CA9A0
:1031D000284600F077FE00287ED102222946189862
:1031E00003F09FFE298868468181152149020182EA
:1031F0000784012686734E2108A881700024C470BC
:10320000067107214171867103A902A800F014FC20
:10321000002861D1022202A91E9803F082FE082F25
:1032200002D26846478502E008206946488569461B
:103230000C850B4628880AAA098901F06DFB002835
:103240006DD13E49684601820227078408A884712F
:1032500003A902A800F0F0FB002860D1022202A915
:103260001F9803F05EFE68460470694644704F85FF
:103270000B4628880AAA098901F04EFB00284ED186
:1032800008A8007BC00723D02C496846C91C0182CE
:103290000821018408A88770047103A902A800F01E
:1032A000CBFB00283BD1FF216846C1718171C17001
:1032B000817041700170447104716946082048852D
:1032C0000B4628880AAA098901F026FB002826D186
:1032D00008A8007B800600E021E022D52988684606
:1032E00081811649A53101820684867308A88770FA
:1032F000C470047107214171847103A902A800F010
:103300009BFB00280BD169460E700C854E850B4641
:1033100028880AAA098901F0FFFA002801D047206D
:1033200032E708A8007BA87000202DE7626C756565
:103330006E72672140030020DE060000012A0000B3
:10334000034800210068AE30C170817070470000F2
:103350004003002038B50246174801240068AE300B
:10336000022A1FD0052A03D0072A07D00B2A20D112
:10337000084609794088FFF7AFFE1AE0007900247B
:10338000020600D50124820703D1C20601D48006BB
:103390000FD5084600216A461170694606F044FFC1
:1033A000044606E08178490703D50179FB221140E4
:1033B0000171204638BD0000400300207047000026
:1033C0000FB410B5079C01282DD168468089174994
:1033D000884210D103A80FC800F0AAF900281DD117
:1033E00005F064F9FA281ED001281CD92078F321B1
:1033F0000840207017E00D49491C884208D0C91EBA
:10340000884205D0491C884202D0C91C88420AD192
:1034100003AC0FCC00F08CF9002800D0632010BC66
:1034200008BC04B018470020F9E70000022A000099
:10343000FFB5074671480D4604688FB0AE34A178D9
:103440001E46C80602D5E078C0067DD4880607D59A
:10345000E0788006800F03D0022F01D0002E73D0B9
:103460008806800F06D0022F08D0032F06D0002E2A
:103470006AD003E0012F01D0002FF8D1880603D4D1
:10348000002D01D0012D5FD1002E06D1302001404A
:10349000384602F011FB002856D11199002008701F
:1034A000A0788006800F7DD00CA908A802F0B6FD98
:1034B00007900DA90AA802F0DDFD069007980028E4
:1034C00002D00698002801D1012E58D1022F04A85D
:1034D00007D001F05FFC002E3CD00798002803D0F5
:1034E00012E005F0D7FCF6E7444F45483B6806225A
:1034F00008A9181803F011FD0028386808D04030DA
:10350000417E4908490041760698002805D014E01C
:103510004030417E01221143F5E7384F38483B687F
:1035200006220AA9181803F0F8FC002838680CD005
:103530004030417EFD22114041760798002809D095
:103540000698002806D01AE043E04030417E02226F
:103550001143F1E7294806220368294804A91818ED
:1035600003F0DFFC052069460873002E02D10846EF
:1035700006F0B6FA23480290684606F063FAA0788F
:10358000800611D51198032101702079C10603D559
:10359000002D01D0022D1CD1800605D5012D03D0B0
:1035A000032D00E018E014D1A078C00623D51199AE
:1035B000012008702079C10601D5002D09D18106AE
:1035C00001D5012D05D1000615D5002D13D0012DF3
:1035D00011D0422013B0F0BD012F0CD1002E0AD122
:1035E0000648062203680648611D181803F099FC76
:1035F0001199012008700020ECE700004003002032
:10360000DE060000A0BB0D003EB509F0FBFA044643
:1036100009F086FB082C01D1082813D00A480B4971
:10362000006806224118684603F07BFC6846407932
:10363000400601D5022000E00320012302AA002158
:10364000FFF7F6FE3EBD000040030020DE0600004E
:103650001FB50E480468AE34E078010612D5A17893
:10366000C9070CD0800708D504206946087368464E
:1036700006F036FA022007F087FA0020E0704006D4
:10368000400EE07000F02EF81FBD00004003002047
:10369000F0B58DB00C4616A9E0C90021089109913A
:1036A0000A910B911599049105A9E0C112A962C96B
:1036B000009301911346014603960295224601208C
:1036C00006F0A8FE0DB0F0BD0A07920F01D042200F
:1036D00070478A07FBD002788907890F0A43027076
:1036E00000207047704742207047000010B5044624
:1036F000022000F051F80D48002102680520400228
:103700001018A0328369107B05E04A019A5A002AFA
:1037100004D0491CC9B28842F7D810BD48011C52D8
:10372000C018026904210A43026110BD4003002051
:103730001FB582B0002401F071FB694601F014FB53
:10374000009A6846116A0089203209E023235B5CF5
:10375000012B04D10B89834201D1641CE4B20968B6
:103760009142F3D1204606B010BD000010B50446CA
:103770000146042002F030F8002809D00548E32172
:103780000068C900401821463C3007F0AFFC4320D8
:1037900010BD00004003002004490A683B21490194
:1037A00051180A7802430A70704700004003002055
:1037B00000B51138C0B2FFF757FC002804D0012231
:1037C000016952051143016100BD7047F0B40379EE
:1037D000012292070168002B02D0062B03D006E0DD
:1037E00054688C4302E0546800230C435460002169
:1037F0000F270468CC40E407E40F37D0082909D22A
:10380000D56A8E003C46B440A5431C46B4402543CF
:10381000D5622BE00C46083C082C0AD28C003E46B0
:10382000203C156BA640B5431E46A64035431563A4
:103830001CE00C46103C082C0AD28C003E46403C52
:10384000556BA640B5431E46A640354355630DE073
:1038500017290BD9114D8C003E46603C2D8BA6409C
:10386000B5431E46A6400D4C35432583491CC9B2BD
:103870001A29BED341790129D16803680AD0994336
:10388000D160817901299168006805D081439160F8
:10389000F0BC70471943F3E70143F8E7200000400C
:1038A000002101600171817141717047012902D0CD
:1038B00003490860704701218907C8637047000009
:1038C0004000004003480068AE3080788006800FDA
:1038D0007047000040030020F3B597B00D8848887A
:1038E0000590081D1DC80DAE1DC68C8ACE8A087EA7
:1038F0001390C869203101900878009048780490AE
:1039000088780390C87802900F7900F047FD00286E
:1039100017D10120400284425FD8B4425DD8002F05
:1039200001D1B44259D114A9284601F01DFA00284A
:1039300006D115AA1499059801F006FA002802D0BC
:10394000602019B0F0BD149D11A92846183003F06D
:1039500047F810A88088002810D0284612A92030E7
:1039600003F03EF810A8838800892A8D1818696A28
:1039700010188A8B904203D16120E2E74820E0E7EB
:1039800015982C4B02899A4227D12322125C012AD6
:1039900023D1006800681690139801281FD168464B
:1039A000808E29221202801A030006F08CFC060485
:1039B000180404070A18022C0FD110E0072C0CD1B0
:1039C0000DE0042C09D3E00707D1012F07D1A6424F
:1039D00003D3042E01D3F00701D04220B1E70298AF
:1039E0000B90039B049A0A9309920098019A0C97F2
:1039F00008900696059407920DA81DC8019002A88C
:103A00001CC013980B4600902A461699179800F090
:103A1000AFF9002895D168460649808EFF3188426B
:103A200005D01798018800200A4601F0DDFC00202F
:103A300087E7000003280000F3B5A5B008881A90B6
:103A400088780C4611901022091D13A8FCF7A8FFD6
:103A5000A08A1090A17D68460172E07D0F90207EC3
:103A60002090677EA07E1F9000200646014612909F
:103A700020A801810F20BB4C2390E3212068C900BE
:103A80004018199000F08AFC00280BD101211098F1
:103A9000490288425FD821A91A9801F065F90028E7
:103AA00002D0602027B0F0BD2198179001F0B6F940
:103AB0001A9988420CD102A801901698009013AD73
:103AC0000ECD1198FFF77CFC002801D06320E9E7B8
:103AD0006846017A8806800F05D001201290206880
:103AE000A030007B4600C80703D01298401CB61CCB
:103AF0001290080603D51298401CB61C1290179815
:103B00000DA918301D9002F06BFF6846129C808E44
:103B1000A41CA04237D317980EA92030019002F0C0
:103B20005FFF6846018F00290DD01798179A6B46E2
:103B3000406A9B8E128D5918808B5118081AA0422A
:103B400001D26120AEE71798846911982568012891
:103B500003D0022803D04220A4E7052000E0132070
:103B6000E0832A4639460F98FEF7D5F8422899D0C7
:103B7000199FE28B4037788B398B411A10981018B7
:103B80008019814201DA48208CE70EA9019802F0E1
:103B900027FF6846008F0028179802D0406A808B64
:103BA00000E0008D2599401C08802598012100889F
:103BB000A083259802220088401CA8836A4820819F
:103BC000204620301790C1700021817081711998B2
:103BD000398B406D40186946A061097A0170A0696F
:103BE00029461C31401C03F09CF911980128A0695A
:103BF0007ED0102213A9C01C03F093F9284610228E
:103C000013A9083003F08DF9388B133038832E4612
:103C100020361198F0701098E8831F98B0701098B3
:103C20002084109828841998398B406D4018A86119
:103C30000021109A03F079F9398B1098081838830D
:103C40001799012008711799002048713071684652
:103C5000007A810701D5012131710107022700296E
:103C600002DA317939433171410703D531790422C0
:103C700011433171400603D5307908210843307172
:103C80000F9870712098B07121461D9802F0D1FEF6
:103C90002146019802F0AEFE29461D9802F0C9FEA9
:103CA0002946019802F0A6FE1298002841D06846E5
:103CB0001A998181A18BC18107844784012408A8B6
:103CC000047122A80A9008A88473239941730F995C
:103CD0003820014008A801730721C173002505742D
:103CE0006846007AC00708D020486946088200E08C
:103CF0002AE003A924A8FFF7EFFD6846007A8006B2
:103D0000800F07D019486946401E088203A924A8DD
:103D1000FFF7E2FD6846007A00060AD5292109026C
:103D20006846018208A84473057303A924A8FFF715
:103D3000D3FD259801881298401C081882B20020F3
:103D400001F052FB0020ADE6022213A9C01C03F0D3
:103D5000E8F82846022213A9083003F0E2F8388B6D
:103D6000401D53E740030020032800000329000002
:103D7000FFB55248E322006887B0D200821806924D
:103D800010AA109B0126169F9288012B04D14C4B40
:103D90009A4201D1A030067B069D34464035688B9F
:103DA0002B8B7C43C31A099820300390A34222DA5C
:103DB00048200BB0F0BD2320405C012819D10889B0
:103DC0006C46208098420CD03D4C641EA04208D026
:103DD000641CA04205D0641CA04202D0A41CA042D6
:103DE00007D1374CFF3CA04201D0904201D1622064
:103DF000DFE7096801E029231B0203988142DAD139
:103E000009981B99846918982246FDF784FF422877
:103E1000CFD01C98012804D11598874201D24220A6
:103E2000C7E71598E083204620301C9905908170E3
:103E300027840A98808B401CA0831098012814D0F6
:103E40002046102211A9083003F06BF8059910984C
:103E5000C8700698298B406D4018A061298B3846A0
:103E600070430818288300250FE011A80FC80834F4
:103E70000FC4183CEAE72846A16978430818159A48
:103E8000179903F04EF86D1CEDB2B542F3D30599C6
:103E90001898487105991998087105991A988871A8
:103EA00009982146183002F0C4FD2146039802F01B
:103EB000A1FD0798A18B018000207AE74003002034
:103EC00002290000FFB58FB014460E78102205A815
:103ED000891CFCF765FD5048E3210068C9004518BE
:103EE00000F05CFA00281ED1002C57D0012E09D119
:103EF0006846808A4949884204D12846A968083022
:103F000081424BD12846103029690390814209D063
:103F10000AA9284602F064FD6846018D601E0D90D6
:103F2000814202D2482013B0F0BD284608300CA9C7
:103F3000049002F055FD6846008E002814D0EF680A
:103F40000AA93846183002F04BFD384620300CA93B
:103F500002F046FD6846398D008D09186846008ECE
:103F6000401C081887B200E0012701200004C01B94
:103F7000A04201D26120D6E72C69286801901298EE
:103F8000012802D0022803D008E00520C00200E08A
:103F900023486085012E03D0022E05D04220C2E7BF
:103FA00020460830022202E020460830102205A9EF
:103FB00002F0B7FF204631462030064601730F98C5
:103FC000214607802785039802F033FD2146049897
:103FD00002F010FD27461837E7616662A761266286
:103FE0000D9884B20BE02846019902F022FD384674
:103FF000019902F0FFFC2868641EA4B20190002C15
:10400000F1D10F9801880D98081882B2002001F0B4
:10401000EBF9002087E700004003002001180000B2
:104020000128000002460948E3210068C900411840
:104030008868083103E0038D934202D20068884209
:10404000F9D1884200D100207047000040030020D1
:10405000034610B50F48E3210068C900411888687D
:10406000083103E0148D9C4203D8104602688A424E
:10407000F8D18A420CD1018D994209D20146026AD7
:1040800020318A4203D0416A898B994200D20020B4
:1040900010BD000040030020024610B50B48120579
:1040A000016805204002081883690020120DA03124
:1040B000097B07E044011C5B2405240D944203D0D6
:1040C000401CC0B28142F5D810BD00004003002062
:1040D000F7B505461746019806F0D8FF2E050446A9
:1040E000360D0CE0A0882568B04207D12146019822
:1040F00007F019F83946204603F028F82C46002C22
:10410000F0D1FEBDF0B58BB0002064490290E320F1
:104110000A68C000141872B610464030C5790223F0
:104120001D43C57162B625464035287AC0077DD04B
:10413000052040021018002687694AE071017A5A6A
:10414000002A44D0C919069109694A021FD48A027B
:1041500027D5022104910699012309880905090D33
:1041600003911B2189014118C97E89070FD51121AF
:10417000C901083040182322C06F022106F05EFCFE
:10418000010004D0039A8A80049806F043FC069844
:1041900000880090069800F083F8009804F06CFC0A
:1041A00015E0480713D5069800880005000D04F0B7
:1041B0003FFC002805D1069800880005000DFDF79A
:1041C000B7FD069904200969814306980161761CB0
:1041D000F6B23248AC210068095CB142AED803F0B7
:1041E000ADFA20462430064606F096FF012802D09C
:1041F000012003F0A5F92046183006F08DFF0128B4
:1042000002D0002003F09CF93C34204606F084FFE5
:1042100001280FD002A9204606F0A7FF042002992A
:1042200001F0DAFA0028F0D0204600E034E00299EC
:1042300006F049FF287A00062ED5304606F06CFFBE
:10424000012829D1002002F001FFA98B233149095F
:10425000491CC9B2FCF78EFB00281DD00F4D044647
:1042600028681121C901083040184226012338224C
:10427000C06F314606F0E2FB01000DD000228A80BB
:10428000CC80304606F0C6FB3B212A684901511814
:104290000A78802082430A700BB0F0BD40030020F2
:1042A000F0B504463C48E3210068C9004518218A5E
:1042B00085B089041AD5022104911B218901411876
:1042C000497F412627880123C9070FD01121C90141
:1042D000083040183122C06F022106F0AFFB010008
:1042E00004D08F808E71049806F094FB29462088B4
:1042F00001221831FFF7ECFE2946208801223031D7
:10430000FFF7E6FE2946208801222431FFF7E0FE70
:104310002946208800223C31FFF7DAFE208800057C
:10432000000DFFF7B9FE850029461131684601737B
:1043300005F0D6FB294612316846017305F0D0FB23
:10434000294613316846017305F0CAFB68461435E7
:10435000057305F0C5FB208800F028FA20880105C8
:104360000D48090D0268052040021018828F914205
:1043700001D100218187E069002802D0012102F0EB
:10438000E5FE202200212046A56802F0CEFD172080
:10439000A560608005B0F0BD4003002010B50B485B
:1043A000E3210068C90044184034207AC00709D0CE
:1043B000002002F04BFE217A890701D5002803D0A6
:1043C000002010BD472010BD642010BD4003002018
:1043D000F0B55FA099B000685E491590E3220868C7
:1043E000D20084180522520282189269254640356F
:1043F00014922A7AD20702D0622019B0F0BDAA8B9B
:1044000001235B029A4201D9AB8303E0172A01D250
:104410001722AA83149AA0301392067B0DE0761E11
:10442000F6B2139871010F18B8680F903846202221
:10443000002102F07AFD0F98B860002EEFD12046DF
:104440000830E0606460A060246008301390606110
:104450002061FF220021083006F02DFE2046FF22B9
:104460000021243006F027FE2046AA7F00213030AC
:1044700006F021FE2046FF2200213C3006F01BFE04
:1044800000222A7210461721324B05E0149E470184
:10449000BE19401C7180C0B21E68A036367B8642B1
:1044A000F4D8002028832F8C688C0026149008E014
:1044B0002820E16C70430918204602F09BFA761C14
:1044C000B6B2BE42F4D3002608E03020216D70431E
:1044D0000918139802F08EFA761CB6B21498864228
:1044E000F3D30120FFF758F90124684604701A49F4
:1044F00041802346042269460CA8FFF7E3FC00280C
:1045000022D16846018E81821449018304260685E2
:104510008475202108A881720024C47204730721C5
:104520004173847305A90DA8FFF786FA00280BD103
:10453000684604874687818E15AB0EAA008E00F070
:10454000EBF9002800D158E700202872472054E7F3
:104550000000FFFF4003002001180000052A0000B2
:10456000F8B504467D480E460068E321C9004718A7
:104570004820C05DC0077BD0B088FEF763FC0546CD
:10458000012C02D0002C75D0E6E0002D0CD028695B
:1045900041074AD4B268F188147B0029F4D062063E
:1045A0000CD56888884201D20121B2E0D22C01D01A
:1045B000522CF9D13846314618303FE0A106890E19
:1045C0001E293ED81E2C21D101071FD50821884362
:1045D00028612988012005F067F80121304602F0A2
:1045E000B5FD5E4811210068C90108304018422419
:1045F0002D8801233922C06F214606F01FFA0100E1
:1046000003D08D80204606F005FAA5E0E1070AD028
:104610001D2C10D01B2C0ED0410529D4012189025C
:104620000843EE6192E0C00601D54520F8BD298817
:10463000002005F027F838463146243006F056FDB4
:104640008AE029882022002002F024FD05000FD0F6
:104650000121304602F07AFD2B4600222146062039
:10466000FCF7BEFA2846FFF781F875E000E001E0AC
:104670004120F8BDB068047B1D2C3AD01B2C41D0E2
:104680000021304602F062FD032C46D0052C44D0B8
:10469000072C42D0092C40D00B2C3ED00D2C3CD006
:1046A0000F2C3AD0112C38D0132C36D0172C34D0F4
:1046B000192C32D0012C30D0022C35D0042C33D020
:1046C000062C31D0082C2FD00A2C2DD00C2C2BD01E
:1046D0000E2C29D0102C27D0122C25D0162C23D00C
:1046E000182C21D0522C1FD0D22C1DD01E2C2FD0F4
:1046F00032E0002D03D02988012004F0C3FF3146A9
:10470000022001E03146012004F06EFF002823D092
:104710000021304602F01AFD1EE029691020814375
:1047200029612988002015E02869402188432861F3
:10473000010511D5FF210131084328612988022094
:1047400004F0A0FF01212869C9028843286103E021
:104750002988032004F0A8FF0020F8BD40030020B2
:1047600010B5114AE3231268DB00D2184032127AE6
:10477000D20706D002280AD0052804D00B2810D171
:1047800001E0412010BD4888FEF7B0FF09E04888ED
:10479000FEF758FB002804D001220169920511435D
:1047A0000161002010BD000040030020F1B5FFB002
:1047B00085B0472001900020694608805348E321D6
:1047C0000068C90047188498FEF73CFB0290002857
:1047D00074D0B96808374FE0684600880D4604ACCD
:1047E00020186B46022228310CF09FFB6846008897
:1047F000294620186B4601222C310CF096FB2E46E0
:104800002036307B69460128098804A809D0401861
:104810006B461022294608310CF087FB01902C6A68
:1048200027E040186B460222F4E76946098804A88D
:10483000401821466B4602221C310CF076FB69467B
:10484000098804A8401821466B46012223310CF048
:104850006CFB2320005D69460128098804A830D03C
:10486000401821466B46102208310CF05EFB019087
:104870002468B442D9D12968B942ADD10198002841
:104880001CD16846008881070AD0214A011D1140C9
:104890006A4611800A1A04A908180B2102F045FB88
:1048A0000298008804F0C4F8002807D1849869466B
:1048B0000005000D04AA098803F01AFF7FB006B0B6
:1048C000F0BD401821466B46022208310CF02DFB4A
:1048D000019020890F498842CAD120460299FEF7EB
:1048E00093F94000A16903906A460918128804A848
:1048F00080186B4602220CF018FB0190A169039806
:1049000002220818002102F010FBB1E7400300204A
:10491000FCFF000002290000F0B5074617480E46CC
:1049200000683B2149014018007885B01D461446B7
:10493000C00706D003A9384600F016FA00280AD1AD
:1049400002E0472005B0F0BD04AA3046039900F00C
:10495000FBF9002801D06020F4E7049922886088E0
:104960000968002A00D0088C32466E4631C60323FF
:104970003946002000F004F8E4E70000400300207E
:10498000FFB5002099B0239A0B9012900546149021
:10499000064615901C46DB480B460068E321C9001B
:1049A000411803910021229F089109915188069195
:1049B00011880A913B21490140180078C00706D0B0
:1049C0000FA9184600F0D0F900280AD102E04720CC
:1049D0001DB0F0BD10AA0F991B9800F0B5F9002882
:1049E00001D06020F4E71998002803D0600701D5B2
:1049F000012000E000201390A007800F1C90109869
:104A000017902030C078012840D11798BE4B0189FB
:104A10009942F9D11798069904680A98228C41188E
:104A2000914233D82046203016908078012816D045
:104A3000E08B04901798806900788006800F7DD005
:104A4000039840301890007A800777D51C9800288A
:104A5000F5D0AD4F0F99FF372031206814E0BA42EE
:104A600014D3B942DDD80497E4E70389A64A9342F8
:104A700003D12322125C012A08D0BB4203D1232296
:104A8000125C012A03D000688842EED134E105901F
:104A90000028FBD09B48052102684902511889690A
:104AA0000027009162E0780100990390085A0105FF
:104AB0005AD01999002901D0884255D105997A0018
:104AC0008B69511C595C9A5C0902891889B20D9155
:104AD000890749D002220599FCF739FA002804D049
:104AE0001998002840D0652072E7002008A9C85511
:104AF0001C98C00718D0179880690078C00613D595
:104B00000D98C00710D00120C8550543009A03989E
:104B100080184088159A904206D91590009A0398FB
:104B2000105A0005000D14901C9880071CD517988A
:104B300080690078800617D50D9800E084E0800732
:104B400012D50220CA5D05430243CA550099039855
:104B5000401840881599884206D915900099039805
:104B6000085A0005000D14907F1CFFB265480068CC
:104B7000A030037BBB4296D8002D65D01898007AF0
:104B800000065FD45F48016805204002081881696B
:104B900000201BE042018E5A360515D0AE070BD51A
:104BA00056183669B7070DD408AF3F5CBF0703D569
:104BB000360701D546200BE7EE0705D05218127CC8
:104BC000D20701D0432003E7401CC0B28342E1D8A2
:104BD0001598C01E86B20498864200D90646A807DA
:104BE0000FD520220020149902F054FA12900028C8
:104BF0007DD0F01C82B20021129802F0D6FB002872
:104C000011D1E80720D020220020149902F042FAA6
:104C10000B90002807D0F01C82B200210B9802F004
:104C2000C4FB002810D08020FEF7B6FD12980028A3
:104C300002D0002102F08AFA0B98002802D000214D
:104C400002F084FA6420C3E6A1690A98069A08185B
:104C5000249902F066F916988078012801D1049809
:104C6000E083002D46D0274B052019684002081824
:104C70008169002008AA0CE04301CF5A3F0506D005
:104C80005F18BC463B69175C3B4367463B61401C71
:104C9000C0B21C4B1B68A0331B7B8342ECD8A80717
:104CA0000DD512980090F01C82B221461C310220D2
:104CB000A369FCF7FBFF0220129904F095FCE807BA
:104CC00018D00B980090F61C2146B2B21C3101207E
:104CD000A369FCF7EBFF1398002805D00B988021FF
:104CE000C07C08430B99C87401200B9900E005E0D3
:104CF00004F07AFC00206BE6422069E68020FEF793
:104D00004BFD9FE74003002003280000F0B58468B6
:104D1000083015E0258D8D4203D114601860012004
:104D2000F0BD26461C602036256A06E0AF8B8F4218
:104D300002D102201560F0BD2D68B542F6D124687D
:104D40008442E7D10020F0BD10B50B6A203106E0A7
:104D50009C8B844202D10020136010BD1B688B42E3
:104D6000F6D1412010BD000010B5094AE3231268B6
:104D7000DB00D2189368083206E01C8D844202D111
:104D800000200B6010BD1B689342F6D1412010BD7E
:104D900040030020F8B5204E04463568AE3500F0DB
:104DA000CFF92070000A607000F0CAF9A070000A04
:104DB000E07000F0C5F9C2B28004830E22710021B8
:104DC00063710846275C401C7918C0B289B2062876
:104DD000F8D30029E3D02078FF280CD16078FF2891
:104DE00009D1A078FF2806D1E078FF2803D1FF2A57
:104DF00001D1FF2BD3D00622691D204602F08DF889
:104E00000028CCD0316806222046783102F085F89F
:104E10000028C4D0F8BD000040030020024800680C
:104E2000AE300088704700004003002010B50349F1
:104E300006220968B33102F074F810BD4003002067
:104E4000F7B5164600241CE00098114900194018D7
:104E500081080198890000194278057812021543EB
:104E60008278C07812040006024309481543404284
:104E70000F1829463846FDF7ADFE3868854204D143
:104E8000241DB442E0D30020FEBDFB20FEBD000087
:104E90000000FCEFF0B50E460746002407E03D1980
:104EA00000F04EF92870000A6870A41CE4B2B44205
:104EB000F5D3F0BD10B410490E4BCA691206120F9B
:104EC0004270C9690907090F817019680B4C0123E9
:104ED0004160A14202D10221017000E00370002A6A
:104EE00000D143700649898A491C8900816010BC41
:104EF00070470000280090400000904041A0000250
:104F00000000104010B5012818D8072916D80C4AFF
:104F1000126813462033187759778007C906000EA8
:104F2000090E01430020074BA03204E08401E4187D
:104F3000A172401CC0B2147B8442F7D8002010BD7F
:104F40004003002000010020074A914202DC524247
:104F5000914200DA1146FF22993251430A12511848
:104F60000A14511808187047FFFF4F0010B50920A8
:104F7000C00600690002000A04F0DEFD10BD7047A3
:104F800070B51A4C1B252068AD0141190026184B3D
:104F90000E720622FF21C01801F0C7FF20682021F1
:104FA0004019C673017407F095FD01281CD01F201D
:104FB00021680F4B491948742068093307220021E2
:104FC000C01801F0B2FF0A4B206810330522FF2100
:104FD000C01801F0AAFF064B20681B33FF220021F6
:104FE000C01806F068F870BD5F20E1E740030020BC
:104FF000C906000038B50C0007D0402C05D00FA121
:105000001C4A1D4805F042F9FEE7222268460123AA
:105010005F2104F0D7F900280ED169460878BF2136
:1050200008402043694608702222684601235F2118
:1050300004F034FA002800D0012038BD2E2E5C2E5A
:105040002E5C2E2E5C2E2E5C2E2E5C4C69627261C4
:1050500072795C53444B5F4576616C5F426C756559
:105060004E5247315C7372635C4854533232312E76
:1050700063000000390300001051041038B50C0023
:1050800007D0012C05D00FA11C4A1D4805F0FEF8E1
:10509000FEE72022684601235F2104F093F90028EF
:1050A0000ED168460078E1014006400E0143684693
:1050B0000170202201235F2104F0F0F9002800D0C4
:1050C000012038BD2E2E5C2E2E5C2E2E5C2E2E5CEA
:1050D0002E2E5C4C6962726172795C53444B5F4561
:1050E00076616C5F426C75654E5247315C737263DA
:1050F0005C4854533232312E6300000061020000DC
:10510000105104100A46014601A005F0BFF8FEE761
:1051100057726F6E6720706172616D65746572732E
:105120002076616C75653A2066696C652025732070
:105130006F6E206C696E652025640D0A000000000A
:1051400000210B200007026852070DD502680423D6
:105150009A430260026808231A43026004E0491C73
:10516000052901DD0020704742689207F7D54168A4
:10517000C907FCD0806880B2704710B5FFF7E0FF28
:105180000446FFF7DDFF0004201810BDFEE770475E
:10519000704710B40A888B884C881A43CB88640007
:1051A00023431A430B8949891A43C9030A43C2603E
:1051B00010BC70478163704701747047016880229A
:1051C000114301607047006B084000D00120704718
:1051D00040690007800F704770B5044600680D46AF
:1051E0004008400020602068032149038843697912
:1051F0008907490C08432060687923494000085A10
:105200002968224A4843101A214A302691420BD875
:105210004900FBF7AFFB2168B143216061683203AD
:1052200089B28918616010E01A4A91420DD84A008B
:105230008918FBF79FFB2168B14310312160616839
:10524000012289B25204891861606168EA88890A7A
:10525000890211436160218D2085206806218843E1
:1052600029798907490F08432060297A08200129F4
:10527000216806D081432160206801210843206015
:1052800070BD0143F7E70000D40200200024F400C1
:10529000A0860100801A0600007E70470349016065
:1052A000002101714171C1800172704788130000B3
:1052B0000068000601D501207047022070470000F9
:1052C000F0B5454C052526686D027019406C002725
:1052D000416B4248AE368DB0814242D006216846CD
:1052E000FFF7D8FD69464879C021084369464871EF
:1052F000206806224019406C2430FFF7A1FD0746C4
:10530000102105A8FFF7C6FD206810224019406C47
:1053100005A9001DFFF794FD0743102109A8FFF719
:10532000B9FD206810224019406C09A91430FFF71C
:1053300087FD0146394313D1206829494019406C43
:10534000264F4018800881002648081839460490E6
:10535000FDF740FC04980068B84201D1002700E046
:10536000FB2722685019406CA63224300190062099
:1053700001460090002008F026F9002802D120689C
:10538000A6300190701D009A019901F0CAFD2268B3
:10539000102631460020803208F015F9002807D089
:1053A000206832464119496C8030091D01F0B9FD71
:1053B000226831460020903208F005F9002807D015
:1053C000206832464119496C9030143101F0A9FD32
:1053D00038460DB0F0BD000040030020AAAAAAAADA
:1053E0003400FCEF0000041030B50F4BE3251B68C0
:1053F000ED005B19403304461B7A412085B09B07C2
:1054000010D56B469981DA810020188204205882D9
:1054100003AA04A96D4607C502231A4601212046A6
:10542000FFF7AEFA05B030BD400300200246002071
:105430000146535C002B00D00120491CC9B206294B
:10544000F7D37047024800682030C07F70470000E3
:105450004003002070B50E4605460146202200207C
:1054600001F018FE040023D0284600F059F805008A
:1054700027D02879B04224D1A87880071FD4A0680B
:1054800001210173A06800214673A068022686737B
:10549000A068C173A0680174A06841740620E08010
:1054A0002146052000F098F9002803D0412509E0A5
:1054B00064250BE0A8783043A870002506E0462557
:1054C00000E042250021204601F040FE284670BD44
:1054D00070B514460D4600280BD11146284603F03E
:1054E0003FFE21462846FFF73BF92146284600F0BB
:1054F000A3FA70BD70B505460C46002000F010F808
:1055000000280BD02905090D018000218170002C95
:1055100001D10821817001210171C17070BD0000AD
:1055200030B502460A4811230068DB010021C31888
:10553000A030047B07E0586E0D01401905889542A4
:1055400004D0491CC9B28C42F5D8002030BD0000FF
:105550004003002030B50A49112309680246DB01E7
:105560000020CB18A031097B07E05C6E05016419AF
:105570002488944203D0401CC0B28142F5D830BD8B
:10558000400300208068017A407A0002081880B247
:105590007047000070B50023134A1DE01125ED018E
:1055A00040191901466E0024C81C34541068401973
:1055B000466E081D345410684019406E44521068FD
:1055C0004019466E08460830345210680C314019B4
:1055D000406E5B1C4450DBB21068AC21095C994200
:1055E000DCD8002070BD00004003002010B502464A
:1055F00088680C46817AC07A0002081881B2E08877
:10560000001FE080042909D005290CD006290FD0FD
:105610000121204601F09AFD002010BD21461046D0
:10562000FEF79EFF08E02146104600F02BF903E04C
:105630002146104603F01AFD0028EED0E188091D2E
:10564000E18010BDF3B581B00D4600268888FFF7D4
:1056500067FF07002FD03C46287B08340228F868F3
:105660002ED0002834D0E888218840182080284691
:1056700001F0E6FC61688A680146104601F0EDF928
:105680000121284601F062FD0120616801F098FCCB
:105690006068FFF777FF001D218880B281421FD824
:1056A00081421BD16168C88061680198FFF79EFF45
:1056B00006000FD017E00121284601F047FD12E057
:1056C000002801D04526E3E76560E8882080DFE711
:1056D000656005E000206060208004E0452E02D176
:1056E000384600F0BBF93046FEBD024610B500203A
:1056F000002A05D0012A02D11046FFF7A3FF10BDF2
:105700001046FFF773FF10BD70B50546801E0C46AE
:10571000030004F0D8FD0A0C1C1C06180B0B0B0B25
:10572000060B0A4620782946FFF7D2FE70BD2846B0
:10573000FFF716F82146284603F012FD21462846B9
:1057400000F07AF970BD284603F00AFD70BD62884A
:105750000978284603F000FC70BD0000F0B585B064
:10576000FFF7F8FE1B4D04462868A030007BA042DE
:105770002DD92046323069460873684604F0B0F9E6
:1057800011262868F6018019426E00212401115368
:10579000286827468019426EE01C115428680C378F
:1057A0008019426E201D115428688019406EC0591E
:1057B00000280CD0012101F0C9FC296800208919BA
:1057C000496EC85129688919496E0834085305B0D3
:1057D000F0BD00004003002010B50C46014604282F
:1057E00005D0052903D0062901D0502010BDA0689E
:1057F000A2790272E088020AA0684272A0688172EF
:10580000A068090AC172E088001DE08002202073B0
:105810002046FBF73DFB0028E8D0E088001FE08031
:10582000412010BDF8B5323801060220144E009018
:1058300011253068ED010C0D42191B218901526EB2
:105840004118897E175B012349070CD508304019A0
:105850001E220221C06F05F0F1F8010003D08F80F5
:10586000009805F0D7F83168002049194A6E211DCB
:10587000505431684919496EE41C0855F8BD0000C0
:1058800040030020F0B50D468DB000210A91A968B3
:1058900000280F7B02D0012822D0C5E0A888FFF79E
:1058A00059FE634E04463068A030007BA04215D9F3
:1058B000122F08D15F4802902046323069460873A3
:1058C000684604F0BFF811203168C0010818406E26
:1058D000210140188178FD22114081700021A0E053
:1058E000A888FFF737FE06465148AC220168525C93
:1058F000B24218D91120C0010818406E3201841834
:10590000A278100710D5122F10D1500710D4A988F3
:105910002A46422005F06CFBA07804210843A070C1
:10592000A868407B20717BE0132F0AD0012F42D062
:10593000A868417BA888FFF78DFD0A9000286FD0EA
:1059400072E0A868E778437BBB4269D1520767D50C
:10595000027C407C01230002101887B24220049090
:10596000A88806901B2080010818807E800710D52B
:105970001120C001083108181D22C06F049905F0DC
:105980005DF8010005D0069A8A80CF80049805F062
:1059900041F8A078FB210840A070E078401C000688
:1059A000000EE07001D10120E070684632360673C7
:1059B00004F096F834E0100732D4A868E178407B10
:1059C00088422DD150072BD5FB200240A270E078F1
:1059D000401C0006000EE07001D10120E070684616
:1059E0003236067304F07CF8114811210068C901B1
:1059F000083040184224AE8820220223C06F21467E
:105A000005F01CF801000BD0A868437B877BC07BA6
:105A10008E80000238188B710881204604F0FAFF4E
:105A20000121284601F092FB0A980DB0F0BD00005C
:105A3000400300203075000010B5022809D0052869
:105A400001D00B2808D1084609794088FFF752FD9C
:105A500002E04888FFF782FE002010BDF8B5054639
:105A6000807810210843A87042200090114811212D
:105A70000068C90108304018012702263B46212250
:105A8000C06F009904F0DAFF04000AD02771667134
:105A900032462946A01D01F044FA2146009804F040
:105AA000B9FF0121E86801F051FB0020E86028817E
:105AB000F8BD000040030020FEB50F460646002456
:105AC00007F02EF9054607F09DF8082D01D30828A8
:105AD00011D202A9684600F089FA002F684606D064
:105AE0004079400601D5022102E0032100E0017A5D
:105AF000B14200D041242046FEBD0000FFB507465C
:105B00008DB000200890079073481E4601687348C6
:105B100015460C181120800108184775C275002B16
:105B200001D0002101750E9800287DD0FFF77EFC82
:105B3000002879D0002E03D020342079012873D09A
:105B4000FF24002E07D0022D02D0032D02D002E048
:105B5000002500E0012560486149006840180B906D
:105B6000022F01D0032F66D1684605700622401C23
:105B70000E9901F0D6F96946002001F045FBFF2897
:105B800003D00B99C2005118CC795349002E0A68F2
:105B9000544910D05118CC7200220A75FF284AD0FF
:105BA000362044434C48FF2100682F312018095CFF
:105BB000002903D014E05118CC71EFE70146FF3102
:105BC000FF3047311F3001F0EDFB434806220068EB
:105BD0002118FF3105A8483101F0A3F901200790F1
:105BE0003D49FF2208684E322018125C002A19D164
:105BF0000146FF31FF304031303001F0D3FB3648F1
:105C0000062200682118FF3103A8413101F089F90B
:105C100001200890002E05D02F480121026831484C
:105C200010180175079800E010E0002803D03246F4
:105C3000012105A802E0324629460E9800F01AFD1F
:105C40000898002802D0012103A811E0002F06D0F7
:105C5000012F1AD0022F02D0032F07D115E01E48C2
:105C6000062201686846783101F05BF90021684638
:105C700000F06AFD0124A402002F10D0012F16D0DD
:105C8000022F0CD0032F24D111E013480622016803
:105C900015480918684601F044F90121E7E70E4864
:105CA0000068816F041909027B30E1640CE00A4846
:105CB00005680D482818FAF7B3FE00022C19401C9D
:105CC000E0640948C01C2818FAF7AAFE0002000A7E
:105CD0002065002011B0F0BD40030020080900003D
:105CE0005C04000040040000DE0600000020704755
:105CF000F0B58F4D04468F49286885B04018019053
:105D000006F080FF05267602002C7DD008280DD3F2
:105D100042200746039088480024029006F0DCFFEA
:105D20000090082004900098082802D30C2005B0A9
:105D3000F0BD00F05BFC00F04BFB00987F49800158
:105D4000421828688019018E01988030036BC03199
:105D50005980016B09800021C94301820021456AF5
:105D6000CB1DEF54856AEF54C56AEF54056AEF54B2
:105D7000066B039DF554039B3F0A1B0A0393466A77
:105D8000029D0B1DF554866AF554C66AF554066AE1
:105D9000F554066BF554029B491C1B0AC9B20293C9
:105DA0000329DCD3009911234907090E456A0B43E7
:105DB000AB72856AAB72C56AAB72019B1D7E022312
:105DC000022D0BD1456AAE7A1E43AE72856AAE7A59
:105DD0001E43AE72C56AAE7A1E43AE72466A012792
:105DE000F772866AF772C66AF7721943036B997283
:105DF000036A9972036B0321D972016ACF72002181
:105E00000B465354551800E04CE06B71491CC9B265
:105E10000529F6D38025957201992031CE7BD67263
:105E2000868C1682068E5682454E9661454ED66108
:105E30003E462027BE54D375019A127E002A04D014
:105E4000012A04D0062A12D110E018240FE0032200
:105E5000836828245202934209D1C368934206D131
:105E600000220492FF225632028200E01024497B75
:105E7000002904D0012904D0022906D103E0C02161
:105E800002E02C4301E040210C430499C26809025E
:105E9000806853184218E108C900491C009809F0AD
:105EA0009DFA44E772B608280AD22A6891194B690C
:105EB00058214143891C5C5C6407640F012C01D0AC
:105EC00062B633E7F024A45C002C04D01126FF2432
:105ED000B6019219D47100225A54452329685B01F6
:105EE000CC18267B012383409E43267362B604466A
:105EF000124E0C3E308808230007000F1C43A042BE
:105F000014D18A6300F060FC012801D105F0ECFC9B
:105F10000D49286832881207120FA24206D1826BFF
:105F20008A4203D2826B521C8263F3E70020FEE6B2
:105F300040030020080900008100B000CC000020D0
:105F4000D6BE898E5555550000710200FFB50C462E
:105F500091B00146102204A800F0E3FF1022214670
:105F600008A800F0DEFF04A8009008A801900CA883
:105F700002900026684606731848194900680927E8
:105F80004518FF062C46803472B66846007B002810
:105F900008D062B610220CA9139800F0C2FF0020AE
:105FA00015B0F0BD286D3969401A0E490002098804
:105FB000000A09070BD51499002908D10A49FF38AE
:105FC000884204D368460673606430BF03E06846C5
:105FD000666406F081FD62B6D6E70000400300204B
:105FE00008090000C000002002FF7F0070B50446D1
:105FF00008480D460068084946182046316807F0F1
:10600000E7F972682271100A6071100C2870002084
:1060100070BD0000400300200809000070B50D4667
:10602000044606F0EFFD082801D31F2070BD094883
:106030000949006840180022416B931CC95CA154B7
:10604000521C062AF8DB406B00784006C00F28700F
:10605000002070BD400300200809000010B5044670
:106060000348807A06F0D8FC2070002010BD0000A4
:1060700000010020F8B50C46054606F051FE082840
:1060800001D31F20F8BD0A4E052730687F02C019D2
:10609000406B06222946801C06F0B5FC3068C0190A
:1060A000406B00784006C00F20700020F8BD000053
:1060B00040030020F8B55B4F5B483D68002228187C
:1060C00001460523027620315B020A73ED186E6BE0
:1060D000283686636D6B544E5035456308358562AE
:1060E00007258D73416B0A70456B062169703C680A
:1060F000E1184D6B7835C563496B0825A031016403
:106100000146C0314A720A72CD738D731B250D8210
:10611000FF2549354D82FB258D82C03ECE820D8301
:106120004E8342496265216501463C462668B518A2
:10613000F618776B603516462D7E2A36BD552668D3
:10614000F618776B16465236BD552668F618776BEB
:1061500016467A36BD552668F618776B1646A2366F
:10616000BD550D70521CD2B2491C062ADED3002543
:106170000D70826B06215170426B51700246803265
:106180005561294695611BE005256D025B1958256F
:106190004D435F692B46264E0A33FE52052327687E
:1061A0005B02FB185F692B4600262033FE50052357
:1061B00027685B02FB1824355B69491C5E51C9B234
:1061C0002368AC25ED5C8D42DED800250121958346
:1061D000C902018455640520216840020918898C90
:1061E000936B891C598021680818808C516B801C26
:1061F00048801048818D206840300186FBF7F6FC0E
:10620000452120684901411823220D73920108217C
:106210008018817400F010F808F0DAFF2068203050
:10622000C574F8BD4003002008090000862E000058
:10623000FFFF0000C403002010B5084C5D23206858
:106240001B01F822FF21C01800F06FFE1722216801
:10625000002092018918087310BD0000400300203F
:1062600010B504468088032106F0F0FC022172B6C6
:10627000082815D20D4A1368052252029A1858238D
:1062800052695843831CD35C002B09D0002110189D
:106290002160016A002906D0416A0C6045214462F0
:1062A00062B6084610BD0462F8E700004003002013
:1062B000F8B5064624480F460068244944180521CD
:1062C000490240184169582070430D18304607F0C4
:1062D00089F9002816D02046CF30CC3472B6027827
