:020000041004E6
:10080000006000209D0E0410410E0410250E0410FF
:10081000AA5555AA45554C420000000000000000B2
:10082000000000000000000000000000FF0E0410A7
:100830000000000000000000990E04108110041058
:10084000850C0410950E041000000000000000004C
:1008500075110410FD0E04101D0B0410D9120410A4
:100860000000000000000000000000000000000088
:1008700000000000D90A0410370E0410350E0410D1
:1008800000000000390E04103B0E04103D0E041051
:100890003F0E0410BD0E0410970E04101F0B041021
:1008A0000000000000000000000000000000000048
:1008B0000000000000000000000000000000000038
:1008C000EFF31482EFF309811C4880F31488BFF31F
:1008D0006F8FF0B543464C4655465E466746F8B4C2
:1008E000174CEFF30883236006B4164C2068164CAF
:1008F0002060164C2068164C2060164C2068164C60
:100900002060164C276800202060BFF34F8F30BF57
:1009100027600B4C246884F3088882B003BCF8BCC1
:100920009846A146AA46B346BC46F0BC04BC80F338
:10093000098881F31488BFF36F8F1047000000000F
:100940000800002004ED00E0D402002024ED00E0C7
:10095000D802002000E200E0DC0200200800204075
:100960000348854600F078F800480047ED1704106A
:100970000060002030B50B460146002020220124F3
:1009800009E00D46D5409D4205D31D469540491BC3
:100990002546954040191546521E002DF1DC30BD0C
:1009A00003460B439B0703D009E008C9121F08C088
:1009B000042AFAD203E00B780370401C491C521E33
:1009C000F9D27047034603220870000A491C521EE0
:1009D000FAD518467047F0B51FB40646002082B01D
:1009E00005464024019100901BE0019922460F46E4
:1009F000304600F043F8049A059B801A994110D3C1
:100A000010461946224600F016F8361A8F41019713
:100A1000224601200021009F00F00DF838184D41BA
:100A200000902046641E0028DFDC019B00982946C8
:100A3000324607B0F0BD10B5202A04DB0146203A4B
:100A40009140002010BD914020239C1A0346E340B2
:100A50001943904010BD0000064C0125064E05E0EC
:100A6000E36807CC2B430C3C98471034B442F7D3CF
:100A7000FFF77AFFA81A0410381B041010B5202ABB
:100A800004DB0846203AD040002110BD0B46D3407D
:100A9000D0402024A21A91400843194610BD30B519
:100AA0008C180278401C13071B0F01D10378401CDF
:100AB000120906D10278401C03E005780D70401C35
:100AC000491C5B1EF9D101E00B70491C521EFBD181
:100AD000A142E6D3002030BD7047000070B5002170
:100AE0000C4A03E0535C491C5918C9B2535C002BF3
:100AF000F8D1CE1C02243525202E04D2545451188E
:100B00004D708870CB7004490C704D708870CB703C
:100B100070BD0000E8020020E0020020704770472E
:100B2000F3B58BB005461C2248A103A8FFF738FF98
:100B3000684600F051F909240126E406002D67D02B
:100B40004420694688764848017A314301724C2036
:100B50006946C87520200875B22048775B2008A92F
:100B60000870424A906A4249030C8B420AD108AF8E
:100B7000FB788F273B4008AFFB70FB784007400EA7
:100B80000343FB70506A020C8A420AD16B465A7CBE
:100B9000CF231A406B465A745A7C8007800E02435A
:100BA0005A7432484038006B020C8A4209D108AAB4
:100BB000D17889088900D170D1788007800F0143EE
:100BC000D1706946C87DFB2108406946C8754878E0
:100BD000897800010843122808D308A9C87804219D
:100BE000084308A9C870C878FFF778FF03A8012157
:100BF00080B209044018E060E068C003FCD4694694
:100C00004878897800010843122801D300F0BAF926
:100C10001849088B0028FCD00E83172088810020FB
:100C200008610C98002806D0216910200140226933
:100C300002408A42FBD0002D02D00F4915200870D7
:100C40000F490E4808600DB0F0BD0000023F0002E1
:100C50003E30023C20023B4C023A400239B20234A0
:100C60005B02350B0000000000002040C0070010B0
:100C700055AA0000000010480000C040CCBCECFCAD
:100C80001400002070470000F0B5027901239B0793
:100C90000168002A02D0062A03D006E05C688C4373
:100CA00002E05C6800220C435C6000210F240568B0
:100CB000CD40ED07ED0F37D0082909D2DE6A8D004F
:100CC0002746AF40BE431746AF403E43DE622BE0AF
:100CD0000D46083D082D0AD28D002646203D1F6B8B
:100CE000AE40B7431646AE4037431F631CE00D4687
:100CF000103D082D0AD28D002646403D5F6BAE4068
:100D0000B7431646AE4037435F630DE017290BD952
:100D1000114E8D002746603D368BAF40BE431746CF
:100D2000AF400D4D3E432E83491CC9B21A29BED394
:100D300041790129D968026809D09143D960817944
:100D400001299968006804D081439960F0BD11437E
:100D5000F4E70143F9E700002000004005460A4699
:100D6000134C002001468300E150401C0A28FAD3AE
:100D70000F491046FFF726FE0D492846091DFFF7CB
:100D800021FE022007230B4E5B0782005119083910
:100D9000CF18B74201D80968A150401C0A28F4D3E3
:100DA000BFF34F8F05490448C860BFF34F8FFEE77C
:100DB00034000020FF5F00000400FA0500ED00E0B1
:100DC00010B528220349FFF7EBFD02490020FFF789
:100DD000F9FD10BD340000200F4910B528390E4B25
:100DE000CA691206120F4270C9690907090F81709A
:100DF00019680A4C01234160A14202D1022101700D
:100E000000E00370002A00D143700549898A491C1B
:100E10008900816010BD00002800904041A00002C0
:100E200000001040EFF308800149FFF797FFFEE74D
:100E30000200ECBC704770477047704770477047BE
:100E4000EFF308800149FFF789FFFEE70100ECBCE2
:100E50008307FF22DB0E9A408907090E994000287C
:100E60000BDA0007000F0838830808489B001818A1
:100E7000C36993430B43C3617047830804489B00D5
:100E80001818036893430B430360704700ED00E0BC
:100E900000E400E0704770477047000010B500F0B4
:100EA0002DFA012805D0044880F3088800F09EFC44
:100EB00010BDFFF755FD10BD006000207047000019
:100EC0000D49012289B212048A1830B50921C906D8
:100ED000002804D0CA60C868C003FCD430BD064BEB
:100EE0009C789878FB2528409870CA60C868C00331
:100EF000FCD49C7030BD0000E002002070477047B9
:100F000070B5064686B00121092000F0ADF8FF203B
:100F100001300390012569460D7400248C744C74D3
:100F200003A8FFF7B1FEE802039069460D7403A819
:100F3000FFF7AAFE032069460096087148718C717C
:100F4000CC714C7208728D72684600F015F9002061
:100F500000F0AEF9012000F0F1F806B070BD00001D
:100F60000149022008707047D002002010B50446E5
:100F7000202000F0F1F80128FAD0204600F0A4F972
:100F800010BD00000020104903E00A5C401C10184E
:100F9000C0B20A5C002AF8D1C21C202A12D2022256
:100FA0000A54212208184270082181700021C17062
:100FB000012180B2090441180920C006C160C1683E
:100FC000C903FCD470470000E80200202348017ADE
:100FD00023480089002906D0022938D0042938D0B6
:100FE000082938D01FE0092810D381280ED80921FC
:100FF00081431AD01121814319D02121814318D076
:101000004121814317D08121814316D0FF21023134
:10101000814314D01349814313D00521814312D059
:10102000C043800711D0002070470620704707207A
:10103000704708207047092070470A2070470B202E
:1010400070470C207047052070470420704701202E
:101050007047022070470320704700000000904056
:101060000000104801040000044A0129116A02D05E
:101070008143116270470143FBE70000000090408C
:101080007047000010B52A49082088800321481FB6
:10109000FFF7DEFE0321081FFFF7DAFE0321002021
:1010A000FFF7D6FE03210120FFF7D2FE0321042023
:1010B000FFF7CEFE03210520FFF7CAFE0021062020
:1010C000FFF7C6FE03210720FFF7C2FE03210D2014
:1010D000FFF7BEFE03210E20FFF7BAFE03210F200B
:1010E000FFF7B6FE03211120FFF7B2FE0321122005
:1010F000FFF7AEFE03211320FFF7AAFE0321142001
:10110000FFF7A6FE03211520FFF7A2FE03211620FC
:10111000FFF79EFE03211720FFF79AFE01210846E4
:10112000FFF7FEFC04490348086262B610BD0000E8
:101130000000104066000E000000904005490028A5
:10114000086B02D00122104301E040084000086310
:1011500070470000000030400549002801DA496866
:1011600000E0098B014201D0012070470020704748
:10117000000030407047000070B54B4D0446286BAE
:101180004A4A0107206801D4010100E0C10010466D
:10119000FFF7F0FB01464002020C434820308280FA
:1011A000D201891A0126C903F6038919090C3F29BE
:1011B00002D9491C8906890E0172027B23799F217D
:1011C0009B070A405B0E1A4302732A7F0A4061792B
:1011D0008907490E0A432A77017BA279F723D207B0
:1011E0001940120F11430173297FA2791940D207C8
:1011F000120F11432977E179002943D002220229F5
:10120000017B44D011430173037B04210B4303731F
:101210002B7F13432B772A7F0A432A77296B0122DE
:1012200052029143227AD207920D11432963296B0E
:10123000FF2201329143227A9207D20F1202114308
:101240002963296B012292039143627AD207520CDF
:1012500011432963296B627AB1439207D20FD203FB
:1012600011432963027BA37AEF21DB070A40DB0EDF
:101270001A430273287F0840A17AC907C90E0843A0
:10128000287770BD027BFD210A40027308E01143FC
:101290000173037BFB210B4003732B7F13432B77DD
:1012A0002A7F0A40B9E70000000030400000127AAF
:1012B000044A117DC72340071940800E0143117570
:1012C0007047000020003040C0050249C00D088072
:1012D0007047000000003040704700000FB410B5A8
:1012E00003A9044B044A029800F040F810BC08BC63
:1012F00004B01847E1170410CC02002038B510489C
:10130000017A0125294301720E4900200860044634
:10131000FFF75CFE694608700878002803D1641C5A
:10132000E4B2032CF4D30878062807D3087800F039
:101330008BFB05480570FFF7ECFAFEE7012038BD8E
:1013400000002040140000200C00002002E008C82B
:10135000121F08C1002AFAD170477047002001E02F
:1013600001C1121F002AFBD170470000FFB591B0E8
:101370000F460546002606E025280AD0149A139940
:1013800090476D1C761C28780028F5D1304615B0A2
:10139000F0BD002400940121F34A029400E00443CC
:1013A0006D1C2B780846203B98401042F7D12878D6
:1013B0002A280ED0022128780246303A092A15D868
:1013C000009A0A235A43303A80180C436D1C00904F
:1013D000F1E701CF0090002805DA01204003044323
:1013E000009840420090022004436D1C28782E286B
:1013F00015D10420044368786D1C2A280AD101CF36
:101400006D1C02900BE002990A22514330394018BA
:101410006D1C02902878014630390929F3D92878C3
:101420006C2810D006DC4C281AD068280ED06A2808
:1014300017D104E0742813D07A2812D110E00120CB
:10144000400504430CE00121090501E003210905E1
:101450000C436978814203D10120000524186D1CDA
:101460006D1C287803906E281ED00CDC632831D0C8
:1014700004DC00288AD0582811D1B2E064287BD03F
:1014800069280CD178E073282DD004DC6F2870D047
:10149000702804D1A7E075286CD078286BD0149AF6
:1014A00013999047761C62E06002400F022807D033
:1014B00003280AD0042838680AD006603F1D56E089
:1014C0003868F11706604160F8E738680680F5E78C
:1014D0000670F3E73878694608740020487404A859
:1014E0000390012003E0386803900020C0433F1DB3
:1014F00061070FD5002101E00199491C029A019171
:10150000914213DA8142F7DB019A0399895C002941
:10151000F2D10BE0002101E00199491C01918142C7
:10152000FADB019A0399895C0029F5D101990098A9
:10153000139A401A00902146149B00F03BF9019940
:101540008019461807E0039803990078491C039115
:10155000149A139990470198401E0190401CF2D1B3
:101560002146149B139A009800F014F986196D1CFB
:1015700009E741E033E034E00A20002104900591BE
:101580006002410F022905D001CFC21794460329FA
:1015900005D007E0FF1DFF08FF0003CF06E000B203
:1015A000C2179446042902D140B2C1178C460022CA
:1015B0006146944506DA0A460021404291418C4634
:1015C0002D2102E0210504D52B216A461176012147
:1015D00003E0E10701D02021F7E7019154E00A2060
:1015E0000BE0102009E010200490002104200443A7
:1015F00008200591029003E0082000210591049045
:101600006002410F022905D001CF00229446032930
:1016100006D006E0FF1DFF08FF0003CF8C4603E065
:1016200080B2042900D1C0B20021019121072BD53D
:101630000399702906D0049A1021059B4A401A4349
:1016400005D00EE040216A461176012108E061468E
:10165000014306D030216A46117603995176022162
:101660000191049A0821059B4A401A430CD1614616
:10167000014301D1610707D530216A461176012166
:1016800001910299491E02910399582904D037A16A
:1016900003910FA90F910DE039A1F9E76146059B70
:1016A000049AFFF798F9039B8C469B5C0F9A521E95
:1016B0000F92137061460143F0D10F9807A9081AE1
:1016C00020300390600704D5012000048443029871
:1016D00001E0012002900399884201DD401A00E0F8
:1016E000002041180290019809180098401A0090B3
:1016F000E00306D42146149B139A009800F05AF890
:1017000086190020049008E006A9085C149A139931
:1017100090470498401C761C049001998842F3DBA2
:10172000E0030CD52146149B139A009800F042F870
:10173000861904E0149A302013999047761C029978
:10174000481E02900029F5DC08E00F980F990078F8
:10175000491C0F91149A13999047761C0399481EBF
:1017600003900029F1DCFBE6092801003031323317
:1017700034353637383961626364656600000000CD
:1017800030313233343536373839414243444546B7
:1017900000000000F8B5044600251E4617468804E0
:1017A00004D405E039462020B0476D1C641EF9D5ED
:1017B0002846F8BDFFB50446002581B01E46C80383
:1017C00001D5302700E02027880404D505E03846FD
:1017D0000399B0476D1C641EF9D5284605B0F0BDCD
:1017E00010B5C0B2FFF7C2FB012010BD8EB00024BF
:1017F000FFF748FC6846FFF7EFFAFFF7B1FBE1207F
:101800004002FFF77DFB03A8FFF7DAFA03981F49B0
:10181000000C88422AD11EA0FFF760FD24A0039986
:10182000FFF75CFD2BA00499FFF758FD32A0059946
:10183000FFF754FD39A00699FFF750FD40A0079926
:10184000FFF74CFD47A00899FFF748FD4EA0099906
:10185000FFF744FD55A00A99FFF740FD5CA00B99E6
:10186000FFF73CFD63A00C99FFF738FD6A4D684611
:1018700083784278017869A0FFF730FD2946601C23
:10188000FFF778F80C00F9D1F1E70000ECBC00009C
:101890004170706C69636174696F6E20637261730B
:1018A000682064657465637465640D0A0000000057
:1018B000437261736820496E666F207369676E6159
:1018C00074757265203D2030782530386C780D0AAB
:1018D00000000000437261736820496E666F2053F8
:1018E0005020202020202020203D20307825303816
:1018F0006C780D0A00000000437261736820496E25
:10190000666F20523020202020202020203D2030D3
:10191000782530386C780D0A00000000437261733E
:101920006820496E666F2052312020202020202020
:10193000203D2030782530386C780D0A00000000FA
:10194000437261736820496E666F205232202020F6
:1019500020202020203D2030782530386C780D0A5A
:1019600000000000437261736820496E666F205268
:101970003320202020202020203D203078253038A2
:101980006C780D0A00000000437261736820496E94
:10199000666F20523132202020202020203D203030
:1019A000782530386C780D0A0000000043726173AE
:1019B0006820496E666F204C522020202020202075
:1019C000203D2030782530386C780D0A000000006A
:1019D000437261736820496E666F20504320202057
:1019E00020202020203D2030782530386C780D0ACA
:1019F00000000000437261736820496E666F2078B2
:101A00005053522020202020203D2030782530388F
:101A10006C780D0A00000000FFFF0F0048656C6C39
:101A20006F20576F726C643A20426C75654E524756
:101A30002D2564202825642E2564292069732068BB
:101A4000657265210D0A0000FEB501240B2813D034
:101A50006846FFF7C1F9694648788978000108436C
:101A6000122800D200240E480068000705D4002C7C
:101A700002D00120FFF724FAFEBD0925ED062869F2
:101A8000084E31682830081A000200120028F3DDE1
:101A9000002C02D00120FFF713FA30686860FEBD09
:101AA000C000002018000020381B0410080000208F
:101AB000040000004C1304103C1B04100C00002018
:101AC000040000004C130410401B04101000002000
:101AD000040000004C130410441B041014000020E8
:101AE000040000004C130410481B041018000020D0
:101AF000040000004C1304104C1B041030000020A4
:101B0000040000004C130410501B0410C0000020FF
:101B10000C0200009E0A0410581B0410CC02002086
:101B20001C0000004C130410741B0410E802002079
:101B3000200000005C130410000000000000000002
:101B40000008041000000000000000000000000079
:101B500001FF01FF01110000000000000000000073
:101B60000000000000000000000000000000000075
:041B70000000000071
:040000051004096179
:00000001FF
