:020000041004E6
:1000000000600020A59D0410417F04100D5C0410C9
:10001000AA5555AA45554C420000000000000000BA
:10002000000000000000000000000000D5B904102E
:10003000000000000000000053960410CDBC041026
:10004000733B0410897F04100000000000000000D2
:10005000BDC20410D3B904103D1E041031C40410F5
:100060000000000000000000000000000000000090
:1000700000000000F5080410115C04100F5C04106F
:10008000000000003B7A04103D7A04103F7A04100F
:10009000417A0410C59D0410E57F0410F12304107B
:1000A0000000000000000000000000000000000050
:1000B0000000000000000000000000000000000040
:1000C000EFF31482EFF309811C4880F31488BFF327
:1000D0006F8FF0B543464C4655465E466746F8B4CA
:1000E000174CEFF30883236006B4164C2068164CB7
:1000F0002060164C2068164C2060164C2068164C68
:100100002060164C276800202060BFF34F8F30BF5F
:1001100027600B4C246884F3088882B003BCF8BCC9
:100120009846A146AA46B346BC46F0BC04BC80F340
:10013000098881F31488BFF36F8F10470000000017
:100140000800002004ED00E0E802002024ED00E0BB
:10015000EC02002000E200E0F00200200800204055
:100160000348854600F078FB00480047CD33051072
:100170000060002030B50B460146002020220124FB
:1001800009E00D46D5409D4205D31D469540491BCB
:100190002546954040191546521E002DF1DC30BD14
:1001A00010B5441A0346944209D28318891803E013
:1001B000491E0C785B1E1C70521EF9D210BD0C46F5
:1001C0000443A40703D009E010C9121F10C3042A76
:1001D000FAD203E00C781C70491C5B1C521EF9D249
:1001E00010BDD2B201E00270401C491EFBD2704724
:1001F0000022F6E710B513460A4604461946FFF7F3
:10020000F0FF204610BD30B504460020034600E054
:100210005B1C934203D2E05CCD5C401BF8D030BD48
:100220000321001D401E037812021A43491EF9D50E
:100230001046704770B502464A40D50F40004A004C
:10024000ED0740085208002814D0002A12D0C40D2F
:10025000D30D41020120C0055202490A520AE41A94
:10026000091812187D34914201D3641C00E0490042
:10027000002C01DA002070BD0023914201D3891ABD
:100280000343400849000028F7D100290AD09142D1
:1002900002D10121C90705E0914201D2012101E00B
:1002A0000121C943E005C018401900F089F970BD6B
:1002B000F0B507460846584087B0C00F0490480084
:1002C0000E46590040084908BC1A884105D23846F4
:1002D00031461E4617460B4602465800400810435A
:1002E0004CD0300D039040055900400D490D05904C
:1002F000401A0290402872DA18030121000B090508
:100300000843019004980092002805D001995242B8
:100310000020884100920190029840210A1A019918
:10032000009800F02AF905460C466B4607CB00F012
:1003300034F9C0197141039A0E0D0023D7175640A6
:100340001A467A40164344D0049A002A2DD0029AC5
:10035000012A039A15DC1205C01A914101263605BF
:10036000001C7141D20F059ED207009301920296A4
:100370002A46234600F072F907B0F0BD38463146F0
:10038000FAE71605224A0F46B218C01AB7410121F2
:100390000905001C4F4100187F411146181879418A
:1003A000E20F10436D19644113E0E2076D08154335
:1003B0006408C2071443039A01261205C01A91412A
:1003C0003605001C7141CE07400830434908C0186B
:1003D00051412A46234600F034F9CDE7FFE704985F
:1003E00001224000C117121A00238B4104983146A4
:1003F000C417381AA141EEE730B40124E407634082
:1004000030BC55E730B40124E407614030BC4FE70D
:100410000000E0FFF0B51FB488B00B9909980024E4
:1004200048400999C00F490049080991C0070B9934
:100430000090490049080B9109990898A64608437D
:100440001CD00B990A98084318D009980124400041
:10045000420D4800410D099824050003000B20437C
:1004600009900B980003000B20430B9050181C4977
:100470004018002201901446104605E00020014675
:100480000DB0F0BD032801DA034600E003239C46CB
:10049000C11A0AAE0AE05F0008ADED5B4F00F75BE2
:1004A0007D430027AA187C41491C5B1E6145F2DD93
:1004B000410004AB5A522104120C0A43240C401C84
:1004C0000828DFDB019802900099704601910090A6
:1004D000059B049A0799069800F0C0F8D0E7000041
:1004E0000DFCFFFF10B500229623114600F070F8B6
:1004F00010BDC20FD207400040080BD0C10D07232A
:10050000DB01C91840020905400A1143C20840072F
:1005100011437047002001467047F0B51FB40646EE
:10052000002082B005464024019100901BE0019913
:1005300022460F46304600F0A1F9049A059B801A26
:10054000994110D310461946224600F016F8361A83
:100550008F410197224601200021009F00F00DF8F5
:1005600038184D4100902046641E0028DFDC019BB6
:1005700000982946324607B0F0BD10B5202A04DBAA
:100580000146203A9140002010BD914020239C1A42
:100590000346E3401943904010BD10B5202A06DB06
:1005A000CB170846203A1041C1170B4306E00B4613
:1005B0001341D0402024A21A91400843194610BD8F
:1005C000002904DA401C490001D14008400070476E
:1005D00070B40024050C05D11024000402D10029B8
:1005E00021D01124050E01D100020834050F01D1DC
:1005F0000001241D850F01D18000A41C002801DB0F
:100600004000641C002908D020252E1B0D46F54013
:10061000A14000D001212943084301061B1B000A09
:10062000DB1D02D5002070BC7047DB051818801850
:100630000029F8DA401C4900F5D170BC40084000A0
:10064000704710B5002B08DA0024401C6141921855
:100650005B411A4301D14008400010BDF0B51FB402
:1006600082B005460C0003D008460CF0B1F902E058
:100670000CF0AEF920300246009021462846FFF7E4
:100680007CFF049B059A04460F4618431143084318
:1006900014D0184610431BD0009840210A1A18465F
:1006A000059900F0EBF805460E46009A0599049866
:1006B000FFF763FF084305D0012004E020463946D8
:1006C00007B0F0BD0020C11705430E432C4337434C
:1006D00000990E986305401A7905E40A00220C433C
:1006E000FD0A0A3002D500200146E9E7010510198C
:1006F00069410C9C0D9D00196941FFF7A2FFDFE7DE
:10070000F0B50C465C4085B0E40FE40703944C0060
:10071000002664085900944649080246029622437E
:1007200021D062460A431ED06200570D4A000E03D4
:100730002303550D012402462C492405781B1B0B6D
:10074000360B401823432643614600901C46501A3E
:10075000B44103D30098401C009002E09218009826
:100760005B41002803DA0020014605B0F0BD0020FF
:10077000012109050746864611E064461D46141B03
:10078000B54106D36546521BB341744607430C433B
:10079000A646CD0740084908284392185B41054604
:1007A0000D43EAD11046184313D060461946504015
:1007B0007140084306D06046101AB34106D20122A8
:1007C000002306E000220123DB0702E00122D243DE
:1007D0005310009874460105381C6141029C039D2A
:1007E00000196941FFF72DFFBFE70000FD0300007E
:1007F0004A0009030123090B1B0519430A4B10B5D5
:10080000520D9A4202DA0020014610BD064B3433E5
:100810009A4203DC9A1A00F031F810BD034BD2184B
:10082000FFF7ABFE10BD0000FF030000CDFBFFFF94
:1008300010B5002904DB0124E40740428C41214625
:10084000002B04DB1C460123DB075242A3419942E3
:1008500000D1904210BD0000064C0125064E05E077
:10086000E36807CC2B430C3C98471034B442F7D3D1
:10087000FFF77AFCAC6D05103C6E051010B5202A10
:1008800004DB0846203AD040002110BD0B46D3407F
:10089000D0402024A21A91400843194610BD70B5DB
:1008A0008C180578401C6B075B0F01D10378401C46
:1008B0002A1106D10278401C03E006780E70401C15
:1008C000491C5B1EF9D12B0705D40023521E0DD401
:1008D0000B70491CFAE70378401CCB1A921C03E00A
:1008E0001D780D70491C5B1C521EF9D5A142D8D34E
:1008F000002070BD7047F0B50F46B5B01546002119
:1009000030AA0F23445C5E1A491C94551029F9DB68
:100910001022694630A800F013FB0026B400E0194D
:10092000401CFFF77DFC395D000208430321891B51
:1009300089002CAC761C6050042EEFDB214610237E
:100940006A46084600F0C6F900200326311A8900DD
:10095000635C8200AB54635A52191B0A537063588C
:10096000401C1B0C93706158090ED1700428EDDBFC
:1009700035B0F0BD70B5BAB0054600200C46009009
:1009800020206946087210200A9038901E46039273
:1009900001A800F085F92246294601A800F008F8D0
:1009A0006A46314601A800F045F93AB070BD000032
:1009B000F7B592B00F46040004D0002F06D114986A
:1009C000002803DD6120400115B0F0BD1498002817
:1009D00004DB102804DA2079800601D49448F3E778
:1009E0002079410701D4810702D59148401CEBE7EB
:1009F0004021084320712046143000250F90143008
:100A000001901EE00026B00004904019C019039028
:100A1000FFF706FC00BA010A03980902C07807AA8A
:100A200001430498761C0019406941400498042E43
:100A30001150E8DB636A07A8019A0F9900F07CFA6D
:100A4000059D28461030059014998842DADB2079FC
:100A5000800620D400291EDD0026B0000490401935
:100A6000C0190390FFF7DCFB00BA010A03980902E2
:100A7000C07807AA01430498761C001940694140D8
:100A80000498042E1150E8DB636A07A8019A0F99B5
:100A900000F052FACAE000200B900C900D900E90DE
:100AA0000BA9636A0846019A00F046FA0B98872161
:100AB000C00F48430B990C9A4900D20F11430B9178
:100AC0000C990D9A4900D20F11430C910D990E9A71
:100AD0004900D20F11430D910E99149A49004140DB
:100AE000284610300E9190421CD10026B000029092
:100AF0004019C0190490FFF793FB00BA010A04984B
:100B00000902C0780BAB01430298761C00194269B8
:100B10000298185842405140029807AA1150042EDA
:100B2000E4DB79E00B988722C00F50430B9A0C9BB3
:100B30005200DB0F1A430B920C9A0D9B5200DB0FF5
:100B40001A430C920D9ACB0F52001A430D924A0091
:100B5000424014980E92401B0390C017820F0398D6
:100B6000002610188010029019E0B0001090401973
:100B7000C0190490FFF754FB00BA010A0498090257
:100B8000C0780BAB014310980019426910981858AF
:100B900042405140109807AA11500298761CB0426A
:100BA000E3DCB00001190BAA49691258514007AAA9
:100BB0001150039B00211B1A42199C4696460BE0DC
:100BC00072465218BA5CCD0018235B1B9A4007ABE3
:100BD0001D586A401A50491C8C45F1DC002909D087
:100BE000CD00182107AA4D1B13588021A9404B4066
:100BF000135005E007A90A580123DB075A400A50A1
:100C000007A90BAA05E0B00003195B6915586B40F2
:100C10000B50761C042EF6DB636A07A8019A0F9925
:100C200000F08AF920790421084320710020CBE6E6
:100C30001D0C0000F8B516460F46040009D0002E22
:100C400007D025468035E86D401E102804D3134890
:100C5000F8BD61204001F8BD2079400604D400228F
:100C600011462046FFF7A4FE207902210843207197
:100C7000002018210CE0C217920F1218920892005F
:100C8000121983075269DB0ECB1ADA403A54401C22
:100C9000EA6D8242EFDC00203260F8BD1F0C0000DC
:100CA00010B5040007D002230022A16800F00CFA5E
:100CB000010003D00CE06120400110BD1020206134
:100CC0000020024683001B19401C5A610428F9DBEE
:100CD000084610BDFFB5D908490083B0891D0291AF
:100CE0000368116854684B404168956861408468A6
:100CF000C0686C40A446D4681E0E60408B4CC5B2E0
:100D0000A65D655D3606354367460E023F04360E26
:100D10003F0EA65DE75D36043F023E433543AE46D7
:100D20000F0EDDB2E75D665D3F063E4365462F026E
:100D300005043F0E2D0EE75D655D3F042D022F4338
:100D40003E43CDB20096665D65462F0EE75D1D04FD
:100D50003F063E4307023F0E2D0EE75D655D3F04F3
:100D60002D022F433E4301966546EDB2070E665DA8
:100D7000E75D0D043F063E431F023F0EE75D2D0E6B
:100D8000645D3F0424022743029C3E43641E1032EC
:100D90000294002C63DD664C704620404300704690
:100DA0006449C00908401B214843434070465840ED
:100DB0001821C841434070461021C8414340704645
:100DC0000821C841434010685A4D43400098594F8C
:100DD000204041000098C00928401B25684341403D
:100DE000009818254840E841414000981025E84106
:100DF000414000980825E84141405068019D41402C
:100E00000198ED0920403D4040001B277D4368408C
:100E1000019F05467D401827FD416840019D102730
:100E2000FD416840019D0827FD4168409568684084
:100E30008446304620403F4DF4092C4040001B259D
:100E40006C436040044674401825EC416040102417
:100E50003546E54108246840E64170404BE7334C95
:100E6000C5B2665D1D0E645D240626430C02250E88
:100E70002E4C645D65462D042F0E2C4D2404ED5D33
:100E80002D022C432643294C0096DDB2655D0E0EE3
:100E9000A45D2406254364462402260E234CA45D4B
:100EA0000604370E214E2404F65D360234432543F2
:100EB000AE461E4CCDB2645D65461C4E2F0EF55DF0
:100EC0002D062C4305022F0EF55D1F042E043D0E4A
:100ED000164F7F5D65463F023E433443EEB2134DED
:100EE000AF5D050E1148405D000607431802030E72
:100EF0000E48C05C09040B0E0C490004C95C9368E1
:100F00000902084307431068009E63405168049C2F
:100F10007040D2682060754604986940416004982A
:100F20007A4083600498C26007B0F0BD986A0510EB
:100F30007F7F7F7F0101010100B5FFF7CBFE00BD80
:100F4000F7B50298860800240DE00098A7003D1828
:100F50002846FFF765F900BA000AE978000208435D
:100F60000199641CC851B442EFDB0199029A08460A
:100F700000F002F8FEBD0000F0B59208002303E087
:100F80009C0005590D515B1C9342F9DB4D4FF81F36
:100F9000F938042A48D0062A6DD0082A43D1002304
:100FA000CA6915022D0E140E455D045D2D062C43F5
:100FB00015042D0ED2B2455D825C2D04120215433C
:100FC0002C439D007D590A686A40544001225B1CF5
:100FD0000C62940065180C59EE69521C66402E6232
:100FE000042AF6DBCA6A150ED4B2455D045D2D06EF
:100FF0002C4315022D0E1204455D120E825C2D0449
:10100000120215430A692C43544005220C639400D4
:1010100065180C59EE69521C66402E62082AF6DBF0
:101020002031072BBCDDF0BD0022CB681D022D0E48
:101030001C0E455D045D2D062C431D042D0EDBB2F8
:10104000455DC35C2D041B021D432C4395007D5957
:101050000B686B405C400123521C0C619C006518BE
:101060000C59EE685B1C66402E61042BF6DB1031D8
:10107000092ADADDF0BD0022CB681D022D0E1C0E00
:10108000455D045D2D062C431D042D0EDBB2455D30
:10109000C35C2D041B021D432C4395007D590B6836
:1010A0006B405C400123521C0C619C0065180C597C
:1010B000EE685B1C66402E61042BF6DB1831092AB2
:1010C000DADDF0BD986B0510F8B59E468C46002819
:1010D00007D0002905D059078C0F002A04D1012C14
:1010E00002D061204001F8BD416A102903D01829BF
:1010F00001D0202905D1012C05D00169491E1029F4
:1011000001D31E48F8BDC2600179F923194001716D
:10111000012C20D000210B468D002D18491C6B613D
:101120000429F9DB0021182712E0CB179B0F5B186D
:101130009B089B001D182B46143300938B07565CAD
:10114000DB0EFB1A6D699E403543009B491C1D60F8
:1011500003698B42E9DC0179C9070CD161468160E2
:101160007146C90701D0032C05D10146426A2831D6
:101170006046FFF7E5FE0020F8BD00001F0C0000F0
:1011800030B55C4C85B0A068800705D506F05EFCE4
:10119000A06802218843A060A068574DC00724D0F2
:1011A000A068800521D4A068C00549D453A00FC809
:1011B000049301AB07C3102201A9544806F0E9FECD
:1011C0005248009002232A46012120880CF088FC16
:1011D000010003D04E480BF0EBFB02E04D480BF052
:1011E000E7FBA068FF21013128E0A068C00727D0F5
:1011F000A068000524D4A068400521D446A00FC8EB
:10120000049301AB07C34148102201A9103006F036
:10121000C0FE3E480223103000902A46012120885B
:101220000CF05EFC010003D03F480BF0C1FB02E074
:101230003E480BF0BDFBA068012189020843A06075
:10124000A068C00726D0A068800523D5A068000547
:1012500020D5A06840071DD435A00068029035480D
:1012600001680A20414368460AF070FF04E06846BE
:101270000AF0AAFE002809D1608802AB801C81B266
:10128000022220880CF055FF4628F0D0A0680421E7
:101290000843A060A068C00725D0A068400722D5F9
:1012A000A06880061FD4142223A16846FEF778FFA9
:1012B000E0686A461074010A5174010C9174010EC1
:1012C000D174002802D121A00BF072FBA0886B46DC
:1012D000401C81B2142220880CF066FF642804D0E0
:1012E000E068401CE06005B030BDA06820210843E4
:1012F000A060F8E704030020FFFF0000669A0C20BE
:101300000008969EE2119EB1E1F273D9AC03002071
:10131000646D0510906C0510669A0C200008969E6E
:10132000E2119EB1E2F273D91C6D05104C6C0510F0
:10133000010000003C680510303132333435363757
:101340003839414243444546000000005458207457
:101350006573742073746172740A00007FB505466A
:101360009868012202739A681C4651739868022299
:1013700002A90E3006F00DFEA16805200D74E08074
:101380007FBD70B5064608881D460C46001D81B21B
:1013900013460222304607F0CBF821882B46891CE1
:1013A0002180091D89B20222304607F0C1F8208849
:1013B000801C208070BDFEB500240E4627460568BF
:1013C00045E028680290A968022230460D3106F0F7
:1013D000E0FD3088B84209D087B2384603F07EF885
:1013E000014601AA384604F009FA019CA9680222C4
:1013F00068460F3106F0CDFDE888401F81B22220FB
:10140000005D002806D001280BD0002811D001284B
:1014100014D01BE0E08B6A461288401E904206D32F
:1014200007E0208C6A461288401E904206D20720B0
:10143000FEBD684600880818E18B03E06846008816
:101440000818218C884201D90D20FEBD029D002D77
:10145000B7D100203080FEBDFFB5C8880025401EF2
:1014600083B00E4687B2012427E0B068022208301C
:1014700001196846091D06F08CFD6846008803F0D6
:101480002DF801001DD068460A8D0088824212D0D6
:1014900001AA04F0B3F900280DD101992620405C7F
:1014A000400708D506986A00101802221C3106F081
:1014B00070FD6D1CADB2A41CA4B2BC42D5D30C9877
:1014C000058007B0F0BDFFB5074683B0002000904F
:1014D0000D9803F003F8054606980C300190002D96
:1014E00026D00837BD4223D0288D0E9988421FD8B8
:1014F0000D99884213D30E99884210D829460222AA
:101500002A31019806F045FD10220C99069806F044
:101510003CFD002809D0298D0E98814208D02E4626
:101520002C6A2036B442DDD03EE0059800210180CF
:1015300007B0F0BDA08B0D99884234D30E99884234
:1015400034D8204620300290C078012808D02046A8
:10155000083010220C9906F018FD002808D022E06F
:10156000214602220831019806F013FD0698F0E7A3
:1015700002988079400716D50098002801D1E08BA9
:101580000090E18B814211D1059802220088410030
:101590000498081821461C3106F0FBFC05980599B3
:1015A0000088401C08802468B442C3D12D6899E7A4
:1015B000064800210268052040021018017341739B
:1015C00003218173C1730020704700008403002051
:1015D00070B50D4D044611212868C90140189026A8
:1015E00001231A46C06F31460CF090F8010003D079
:1015F00030464C600CF076F8052029684002091846
:10160000087B401C087370BD8403002010B504469D
:1016100000202082A074A168A16161612060204641
:1016200005F094FD452801D0412010BDA08803217C
:101630000EF0B6FC04460FF0EBFB002812D072B699
:101640000948012201684F20400109184879A24049
:101650001043487162B6002012F0C6FB002801D08A
:101660000DF0EAF9002010BD8403002070B5C17CA4
:101670000E4D4906490EC174044611212868C9015E
:101680004018902601230022C06F31460CF03EF82E
:10169000010003D030464C600CF024F80520296886
:1016A00040020918487B401C487370BD8403002029
:1016B000F8B516460D460746002409F0A5FF002898
:1016C00006D032462946384600F002FE044604E0C1
:1016D00020356879002802D00E242046F8BD2879EC
:1016E000C10701D1012E09D0810701D4022E03D0F8
:1016F0004007F2D4042EF0D10324EEE70224ECE7F5
:10170000FFB581B00646684680890C9F0C460028CC
:1017100037D06946098A884233D87088C01FB842DA
:101720002FD3FD1DAAB20021204607F0A1FF0028FB
:1017300002D0642005B0F0BDA06806210173A06846
:10174000022203A90D3006F024FCA068022204A99D
:101750000F3006F01EFCA06802220AA9113006F024
:1017600018FC3A460B2120460B9B06F0E1FEE58073
:10177000212130698901084330610720B0730020BE
:10178000D8E74220D6E77FB50546684600890C4673
:1017900000281ED06946898988421AD8A068042189
:1017A0000173A068022202A90D3006F0F2FBA068C6
:1017B000022203A90F3006F0ECFB0520E080212176
:1017C00028698901084328610520A873002004B016
:1017D00070BD4220FBE77FB50546684600890C4690
:1017E00000281AD0A0680C210173A068022202A967
:1017F0000D3006F0CEFBA068022203A90F3006F0E0
:10180000C8FB0520E080212128698901084328615F
:101810000D20A873002004B070BD4220FBE77FB507
:101820000546684600890C9E0C46002816D069467D
:101830008989884212D8A06810210173A068022209
:1018400002A90D3006F0A5FBA068022203A90F3003
:1018500006F09FFB012E04D0022E0AD0422004B0D5
:1018600070BDA068022208A9113006F092FB072083
:1018700006E008AB10220921204606F059FE15208B
:10188000E080212128698901084328611120A8737B
:101890000020E4E77FB50546684600890C9E0C46AB
:1018A000002816D069468989884212D8A068082184
:1018B0000173A068022202A90D3006F06AFBA0683D
:1018C000022203A90F3006F064FB012E04D0022E81
:1018D0000AD0422004B070BDA068022208A91130CD
:1018E00006F057FB072006E008AB1022092120462E
:1018F00006F01EFE1520E080212128698901084399
:1019000028610920A8730020E4E7FFB581B08C6846
:101910000A9E5220207388680D461F46022203A9A2
:101920000D3006F036FB3B4632460721284606F0CE
:10193000FFFDF61CEE80002005B0F0BDFFB581B0C4
:101940000646684680890A9F0D46002827D0708881
:10195000C01EB84223D3FC1CA2B20021284607F0C7
:1019600087FE002802D0642005B0F0BDA8681221CF
:101970000173A868022203A90D3006F00AFB3A465B
:1019800007212846049B06F0D3FDEC802121306915
:101990008901084330611320B0730020E4E742203E
:1019A000E2E7000010B50B498B885B1C98420BD016
:1019B0004988891C884208D11078012804D106483A
:1019C000016804221143016010BD014603A00AF022
:1019D000EFFF10BDFC0200200C030020556E65785F
:1019E0007065637465642068616E646C653A20306C
:1019F00078253034642E0A00034900280A7801D083
:101A000000200870104670478803002070B5124C03
:101A10000E462178012500291BD10146012006F040
:101A2000A3FB60703146022006F09EFB61784018EF
:101A3000607031462031032006F096FB6178401833
:101A40000006000E607004D106F006FC0220207033
:101A50000025284670BD00008803002070B5184D91
:101A600090B02878002802D0012010B070BD6E46DA
:101A7000002404F0C2F8A100641C7050082CF8DBAC
:101A80006946012006F070FB0128F1D020220D49A3
:101A90006846FEF785FB0B492022203108A8FEF797
:101AA0007FFB6946022006F05FFB08A9032006F0D1
:101AB0005BFB06F0D1FB012028700020D5E7000079
:101AC00088030020286A05107EB5044616460D4698
:101AD000684603F049FF6846037823704078287011
:101AE0006846807830707EBD70B500210C4A03E0F6
:101AF000535C491C5918C9B2535C002BF8D1CE1C59
:101B000002243525202E04D2545451184D7088706B
:101B1000CB7004490C704D708870CB7070BD0000A4
:101B20008C030020F402002010B50AF081FA1E4C4C
:101B30004721206849014118097B002909D1A030BB
:101B40000079C00729D00EF02BFD00F043FC00F017
:101B500031FF00F003F92068014640310A78C97965
:101B60008A4319D13E21095C002915D10F490A8801
:101B7000120711D50922D2061269497A836AC9006F
:101B8000591809231B02C018806D801A0002001228
:101B9000814201DA0CF0A4FE10BD01F0E1FE02F07A
:101BA000F7FC09F01DFBD0E784030020C0000020F3
:101BB00010B5837F0122002492024168082B03D9CB
:101BC0004224914202D310E0914201D242240CE01F
:101BD00001463422064806F0DCF900F07FF80028C0
:101BE00001DA482401E00AF03DFE204610BD000065
:101BF000DC0300203EB5174D15482968827F084652
:101C0000A0310A7300246030047644768476E122A1
:101C1000C2768022027702224277302008704C7010
:101C200002AA01A96846FFF74FFF68460078A22282
:101C300001016846007A891C000201436846007968
:101C40000003014328681152A03004713EBD00001A
:101C5000DC0300208403002070B50AF0CDF905F004
:101C60007DF906F0D7FBFFF7A3FC04F03DF9184C13
:101C700018492068184D4018811001202A68C002B8
:101C80001018C166616889080167A1688908416701
:101C900009F0C6F91D2029688001228B08180287E7
:101CA000628B4287A28B4286628C828620462030DD
:101CB00002783B204001081882750021017001F074
:101CC00091FC03F043FF0DF0FBF900F0F9FE70BD4D
:101CD000DC0300200000FCEF8403002070B5002529
:101CE000ED430EF0A5F801282ED000231849032259
:101CF000888BFF24401E10438A7F4D346243821834
:101D0000088B282460431218488B30246043121833
:101D10000846203040782C24604310180D4A1818CB
:101D200084184869A0420DD10B4884420AD90D6934
:101D30000EF07EF8C1B2284600F004FD00F032FE3D
:101D4000401B251A284670BDFF23B533CEE700009F
:101D5000DC03002039190000580A0000F8B52C4FA8
:101D60003C68206E5C34401C002814D000252948B3
:101D70000023C07B00283ED00926F6062648002D09
:101D80001CD000210A460B464169521C994204D1DD
:101D9000002902D004E00125E9E7204B9A42F2D362
:101DA0002160006960603069A1680002090E000AC4
:101DB00009060143A16000F033F81DE03169A26813
:101DC0000902090A150E08D0018BC90712D0416912
:101DD000216000696060E37210E0881A00027D23D0
:101DE00000121B03984205DD100E00060843A06098
:101DF00000F016F8F8BD6360002DFBD003CC11F0A5
:101E000099FFFA2011F0D2FA39688862F8BD000013
:101E100084030020FC030020000010488813000009
:101E20000449002008610448012100686030C17144
:101E300070470000000010488403002010B507F030
:101E4000A3FE10BD70B52449002308680246403245
:101E5000537613764F225201821853710F2220308D
:101E600082750522184652020C680546A418246B98
:101E7000303523540C68A418246B63550C68303536
:101E8000A418246B63550C68A418256B0446903481
:101E9000401CC0B22B552D28E6D309688A18106B58
:101EA0009060044630345460903010600B480C460B
:101EB000483403800922427105238371C271037281
:101EC000418100F00DF8FF2020706070A070E0707C
:101ED0001F20207170BD000084030020C00000207E
:101EE00010B5064801680648406A002803D0202241
:101EF0000DF0D3FE10BD0020087010BD840300203B
:101F0000DC030020F8B5069C1F4615460646002C4B
:101F100013D0A06802220D3006F03BF8E81E82B212
:101F20003B460721204606F003FBE580A068012E12
:101F300005D01D2101730020F8BD4720F8BD1B21ED
:101F4000F8E770B515460646FFF7B2FB0446082DC4
:101F50000BD1052C09D1304609F056FB002804D0DE
:101F6000008A4004800F00D00024204670BD242346
:101F7000184204D0C81F092803D82032D17100208C
:101F80007047422070470000F1B5FFB08BB00124CC
:101F9000600205900027CC4807970168E320C00045
:101FA000081803908A98C74D0005000D0AAA05A9D4
:101FB00008F02FFE0690002872D104260AA8059981
:101FC0004218203AD27F0B2A23D00026002004900A
:101FD0000AA88119022201A8029105F0DAFF6846D9
:101FE000818809AB08AA039803F0EAFB012817D0FF
:101FF00002287DD068468088854200D30546844209
:1020000000D92046044602988078012871D0133602
:102010003BE1491E761E36040591360CCFD1D5E73B
:1020200008980090002F79D1009902222831029857
:1020300005F0ABFF00281ED100982030017B0298EC
:102040008078814217D1012808D100980299022294
:102050000830C91C05F099FF002815D00298807837
:10206000022808D10098029910220830C91C05F0F6
:102070008CFF002808D00098008DA84200D80546A3
:10208000A04200D22046044602990AA88978012974
:1020900007D013360599B6B28E4204D3012707E064
:1020A00005E1761DF6E78119022201A805F071FF0E
:1020B0000399009808318E462EE084466946026AEC
:1020C0008B8820300DE0918B994203D3012F7DD175
:1020D00099427BD9A94200D80D46A14200D30C46B3
:1020E00012688242EFD10498002817D1604601E0BF
:1020F00015E0BFE0006870450ED0018D994203D312
:10210000012F09D1994207D98D4200D30D468C4247
:1021100000D80C46012F59D17045CED1BAE00898AD
:102120000090002F72D1009902221C31029805F014
:102130002CFF00281ED100982030C17802988078AA
:10214000814217D1012808D1009802990222083053
:10215000C91C05F01AFF00281AD0029880780228BE
:1021600008D10098029910220830C91C05F00DFF13
:1021700000280DD00098808BA84200D80546A042C8
:1021800000D22046044602988078012826D003E039
:1021900002988078012805D013360798B6B2012836
:1021A0001ED021E0009849490089884216D18A98BA
:1021B00000F042FF0146009800F020FE0099098CD3
:1021C0004843009989694018022200E038E00299EA
:1021D000491D05F0DEFE01200790D4E7761DDCE7FF
:1021E000B61C0020B6B207900598864201D301279D
:1021F00005E00AA88119022201A805F0CAFE039A87
:102200000099083209980968944630E01AE0864639
:102210006A46938820300DE08A8B9A4203D3012FBF
:102220000ED19A420CD9AA4200D81546A24200D338
:10223000144609688142EFD1049800282AD102E0AF
:102240000120049026E07046006860450FD0028DA2
:10225000016A9A4203D3012F09D19A4207D99542C4
:1022600000D31546944200D81446012FE8D16045AA
:10227000CDD10FE00298C078022805D102980079EC
:10228000292801D1B61CB6B2761D0598B6B2864291
:1022900000D301270598811B042902D3864200D26E
:1022A00094E604980028FBD1A54203D906987FB094
:1022B0000CB0F0BD224629468A9803F03FFD0690F7
:1022C000F5E70000FFFF0000840300200229000062
:1022D00070B515460C46064609F07FF92034617941
:1022E000012D09D00A0702D54207920F0FD0CA0666
:1022F00025D5020709D522E0CA0702D04207920F6E
:1023000005D08A0705D5020703D4082070BD052033
:1023100070BD490707D5C00709D0E179304609F0FB
:10232000E4F85F2805D02079C00704D005E00F202D
:1023300070BD0C2070BD022070BD002070BD8906EC
:1023400007D5C007F3D0E179304609F0CEF85F2811
:10235000EFD02079810701D4022D07D0410701D4A5
:10236000042D03D00007E8D4082DE6D1032070BD6A
:1023700000B500F061FE002805D0852201699201B8
:10238000114200D0002000BD10B508480649416147
:1023900007490723CA691202120A44042243CA6188
:1023A00000218161036110BDFE7C000000E000E0BF
:1023B00004ED00E00148006870470000CC020020F6
:1023C00003490A680B689B1A8342FBD370470000DD
:1023D000CC02002010B506F0A5FE05F0B7FE0DF00A
:1023E00027FD012801D100F031F800F087F910BD78
:1023F0007047000070B51349052209685202002099
:102400008B18AC22525C19E058245D6944432C19A6
:1024100054252D5DED060FD50B480818C030428AB3
:10242000018A608905F082F83A2804D04034207D82
:10243000EF210840207570BD401CC0B28242E3D835
:1024400070BD0000840300200809000010B5FFF7EC
:10245000D1FF10BDFFB50746464881B000880D4644
:10246000454905220968520240078A18400F5269FF
:1024700058235843141841480E180DF0D9FC002871
:1024800022D0142D04D0152D20D0072D59D05CE07A
:102490002146039804F03AFA01212069890408438F
:1024A000214640312061087D0222104308758206D2
:1024B00009D56279520852006271DF221040087516
:1024C000002F4ED151E0012005B0F0BD254640352A
:1024D000287DC007F7D02146039804F017FA20465C
:1024E00004F0E6F9002825D0A18FE08F814200D2C8
:1024F0000846E8806989A889814200D20846688236
:102500002A89E9898A4200D211462982628F288865
:10251000824200D21046C9080E3989B268808842CA
:1025200000D30846A88004980068012149060843A2
:1025300004990860287D400840002875002F10D1BC
:1025400013E00398C078142802D0002005B0F0BD35
:102550004034207D04214008400008432075002FAE
:1025600003D00820C036F073ADE70820C036B07342
:10257000A9E70000C0000020840300200809000033
:1025800010B5FFF767FF10BD002101E000BF491C37
:102590008142FBD370470000F3B58BB005461C2287
:1025A00048A103A8FDF7FCFD684603F0DDF9092406
:1025B0000126E406002D67D0442069468876484805
:1025C000017A314301724C206946C8752020087594
:1025D000B22048775B2008A90870424A906A4249B5
:1025E000030C8B420AD108AFFB788F273B4008AF22
:1025F000FB70FB784007400E0343FB70506A020CEF
:102600008A420AD16B465A7CCF231A406B465A74D1
:102610005A7C8007800E02435A7432484038006B5F
:10262000020C8A4209D108AAD17889088900D170A0
:10263000D1788007800F0143D1706946C87DFB21A6
:1026400008406946C875487889780001084312280F
:1026500008D308A9C8780421084308A9C870C87815
:10266000FFF742FA03A8012180B209044018E06094
:10267000E068C003FCD469464878897800010843C3
:10268000122801D309F07CFA1849088B0028FCD0E5
:102690000E8317208881002008610C98002806D03E
:1026A000216910200140226902408A42FBD0002D9E
:1026B00002D00F49152008700F490E4808600DB070
:1026C000F0BD0000023F00023E30023C20023B4CC5
:1026D000023A400239B202345B02350B00000000BE
:1026E00000002040C007001055AA0000000010485C
:1026F0000000C040CCBCECFC14000020F8B5104E2B
:1027000030682030C57D002D19D0002405277F02B8
:1027100010E0E9070BD0C019416958206043081840
:102720004030417D204604F039FD002807D06D0877
:10273000641CE4B23068AC21095CA142E9D8F8BD60
:1027400084030020F3B581B0934A012101A805F06C
:10275000ECFB924C04222060432101A805F0E5FB2C
:1027600011272168FF01C91908670422432101A824
:1027700005F0DBFB21680422C9194867FF21843179
:1027800001A805F0D2FB2168854DC9198867A97F8A
:102790000C2201A80B3105F0C8FB05262168760242
:1027A00089198863A97F202201A805F0BEFB216852
:1027B000102289198862A97F01A805F0B6FB21685B
:1027C00028228919C862052101A805F0AEFB2168FD
:1027D000302289194863052101A805F0A6FB21686C
:1027E000FF22891908630132012101A805F09DFB30
:1027F0002168582289190864A97F01A805F095FB72
:102800002168202289194861A97F01A805F08DFB64
:102810002168782289198861A97F01A805F085FBC4
:102820000F212268C9015118C8630722032101A89A
:1028300005F07BFB0F212268C9015118086428228A
:10284000012101A805F071FB0F212268C90151186F
:102850008864AA8B012101A805F067FB0721226883
:1028600009025118C866298B282201A805F05DFBD2
:1028700007212268090251184866698B302201A895
:1028800005F053FB072122680902511888660C22C3
:10289000012101A805F049FB21680C228919086172
:1028A000012101A805F041FB216828228919096945
:1028B0008860284620300090417801A805F035FB5B
:1028C000216804228919096989688860009841781B
:1028D00001A8491C05F029FB216810228919096902
:1028E00089684860A97F01A805F01FFB21680222C2
:1028F000C9194866A97F01A805F017FB21680222C3
:10290000C919C863A97F01A805F00FFB216802223D
:10291000C9190864A97F01A805F007FB21680222F4
:10292000C9194864A97F01A805F0FFFA21680122AE
:10293000C9198864A97F01A8491C05F0F6FA216825
:102940001022C91908660B2101A805F0EEFA07212B
:1029500022680902511848600422802101A805F06C
:10296000E4FA21688919C861029ADC2042430121F6
:1029700001A8443205F0D9FA216889190862029A3F
:10298000D8204243012101A82C3205F0CEFA21685B
:10299000891948620198FEBD580A0000840300208E
:1029A000DC030020704710B5C001000C00F0ECF90A
:1029B000002010BDFEB572B63F4D082328680146C1
:1029C0004030C2791A43C27162B6002011276C46AA
:1029D000FF0182005218D219D26F52884300401C66
:1029E000C0B2E2520328F4D372B6C8190021866E31
:1029F000816662B6F00702D000200DF08BFEB007B2
:102A000002D501200DF086FE700702D502200DF0E0
:102A100081FE300702D503200DF07CFE002623E066
:102A20000D281AD2211D254A8000125820469047B1
:102A3000002812D072B62868F7224030C1791140C0
:102A4000C17162B630E03A2807D21C49231D8000CC
:102A5000E8390A58194620469047029829684018D4
:102A6000C019C06F2188018071006846415AB000CA
:102A700002902A688018C019C06F028892089200DC
:102A80001418028808348A420ED0A27891070BD01D
:102A90009107890F012901D104460834A0788008E4
:102AA000C006E078CFD5BBE7761CF6B2032EDBD3A9
:102AB0000DF02EFDFEBD000084030020F46905101A
:102AC00070B50DF03FFD124C11252068ED01401945
:102AD000006F40210DF01EFA21684919C867486F40
:102AE00040210DF017FA0926216836028A19106074
:102AF0004819FF21806F81310DF00CFA23680822FC
:102B00009919486003480021181805F046FA70BD6D
:102B100084030020E8080000FEB506462A48144653
:102B20000068E322D2008518C888032806D023460F
:102B3000002202210420FEF711FC43E089680222F2
:102B400068460D3105F025FA326990052FD46846A4
:102B50000188172903D35C20405B172801D2172076
:102B600002E0814200D20846708001204002024308
:102B700002203261019014481B210068890141182C
:102B80003788C97E76880123490710D51121C901EC
:102B9000083040182422C06F02210AF0B7FD002837
:102BA00005D08780C680014601980AF09BFDA06889
:102BB00003260673A068294602225C310D3005F019
:102BC000E8F9E6800020FEBD84030020F7B590B050
:102BD00000206A460D9090826A4AE3231268DB0067
:102BE000D218CB880446022B08D0002218210420DA
:102BF000129BFEF7B3FB002013B0F0BD8B680020E2
:102C00005E7B0A900B9088883032019209900027F1
:102C100001980BF029FB054620E028680890A98858
:102C20000998814219D1A968022207A80D3105F03F
:102C3000B0F9002F01D16846878B6846808B8742A8
:102C40000BD1294601980BF05CFB002028600A9804
:102C5000002811D00B9805600B95089D002DDCD144
:102C6000002FD4D112981921806801730121129884
:102C7000012EC18002D081E00A95EDE702A90AA8E1
:102C8000FEF799FB002879D069460A891821129B22
:102C9000FEF764FB002671E081680546022202A867
:102CA0000D3105F076F9012E66D16846008901F0F4
:102CB00015FC014668460EAA008902F09FFD0E9C95
:102CC0001099204600F09AF80D9055E02F68012EDB
:102CD0003FD1002F06D0B968022205A80D3105F0BA
:102CE00058F902E0002069468882A968022204A8F7
:102CF0000F3105F04EF9E8880D99401F80B2009021
:102D0000208CA269484369461018098A009A431822
:102D10000921284605F01CFB2220005D012804D172
:102D20006846018A00980818E08368460189808A0D
:102D300081420ED0208C0D99A269484310180021C1
:102D4000019000911098E38B0188A28B02200AF079
:102D50008BFE0A9908680A90002008600A990029E9
:102D600000D10B900121284605F08EFB69460889A9
:102D7000898A884202D13D46002DA7D10A980028B1
:102D80008AD139E78403002000B508490968084A58
:102D9000914209D14006010C06483F22028181611F
:102DA0001121018000F022F800BD00001400002075
:102DB000CCBCECFC0000104000B5094A1268094B7D
:102DC0009A420BD1084A3F2313818008906106483C
:102DD000403001603320108000F008F800BD000092
:102DE00014000020CCBCECFC000010400248018A1A
:102DF000C907FCD0704700000000104030B5024603
:102E000023239B5C0020012B1AD112890D4B9A427F
:102E100016D10D4A052312685B02D318A0329B69B4
:102E2000127B0AE045010C885D5B24052D05240D0D
:102E30002D0DAC4204D0401CC0B28242F2D800201A
:102E400030BD00000229000084030020F7B5784857
:102E50000F460068E321C9004418F88888B00728A5
:102E600004D20022062104200A9B2AE0B96802222B
:102E700068460D3105F08DF8B968022201A80F31BE
:102E800005F087F8B968022204A8113105F081F82D
:102E9000F888C01F80B2039068460288808882420A
:102EA0000CD8002A0AD00898002142880A9806F017
:102EB000D8FB002808D045200BB0F0BD062101202A
:102EC0000A9BFEF74BFAABE00A98072180680834AA
:102ED00001730121684601810594008801F0FEFA22
:102EE00005007CD086E06846008A0522D202904226
:102EF00002D0521C904226D168460088814278D385
:102F000029460B2208313846039B05F0B7FA69467B
:102F10006A8D098A8A426CD10399022901D010294D
:102F200067D1002865D12A462846296A28322030F0
:102F3000814202D06B6A1C3300E0134602A90A9852
:102F4000FEF71FFA55E02E462C6A2036B4424ED1C9
:102F50004FE06946A08B0988884247D36946898833
:102F6000884257D82320005D01283FD12046089988
:102F7000FFF744FF218CA269414351180B223846C8
:102F8000039B05F07BFA06900898012200882146F1
:102F90000005000DFEF78CFB01466A462089128A67
:102FA000904223D1002921D1E28B03998A421DD17D
:102FB000069900291AD108996A4649881289891AFE
:102FC000042927D322461B491C32884208D1206895
:102FD000B04205D00089884202D02468F7E719E0A2
:102FE00023461C3302A90A98FEF7CBF92468B442A1
:102FF000AFD12D68059885420CD06846298D808810
:10300000814207D808986A4640881289801A0428A5
:1030100000D368E768460089012803D90A99C88067
:10302000002049E76846028806210A200A9B48E7F3
:10303000840300200328000010B50D4900050B682B
:103040000521490259188A690021000DA0331B7B14
:103050000AE04C01145B2405240D844202D148018E
:10306000801810BD491CC9B28B42F2D8002010BD97
:1030700084030020FFB589B0002405460794D0885A
:103080001646052804D00022042108460C9B20E0A7
:10309000B168022208A80D3104F07BFFB16802225A
:1030A00068460F3104F075FF6846028C0088824242
:1030B0000CD8002A0AD00A98002142880C9806F001
:1030C000D0FA002808D045200DB0F0BD0421012021
:1030D0000C9BFEF743F9B9E06846008C01F0FEF95D
:1030E000060076D0083504950498864272D0694669
:1030F000308D098C884230D36946098888422CD8A3
:10310000002C0AD1012107910C9805218068022426
:1031100001730C980799806841730A984088001BD6
:10312000042857D30798012854D1201D81B2334673
:10313000283302220C9805F0FBF9A01D81B233461A
:103140002A330222A41C0C9805F0F2F96946A41C4B
:10315000308D0988A4B2884274D03746356A20374A
:10316000BD42C1D060E06946A88B098C88425AD321
:1031700069460988884265D8002C36D02320415DF5
:103180000798814260D10A984088001B042802D326
:103190000799012904D0122856D30798022853D141
:1031A000201D81B22B461C3302220C9805F0C0F979
:1031B000A41C0798A4B201280DD0201D81B22B4673
:1031C000083310220C9805F0B3F92046103084B271
:1031D00029E03DE036E0201D81B22B460833022273
:1031E0000C9805F0A5F9A01CF1E72320415D07919B
:1031F0000C9805218068022201730C980799806859
:1032000041730C98294680681C310E3004F0C1FED1
:10321000079901290CD02B460833102208210C985D
:1032200005F086F914242D68BD429CD136685BE711
:103230000C982946806802220831103004F0A9FE5B
:103240000624F0E7002C03D00C98C48000203BE754
:103250006846028C04210A200C9B3AE7830810B5CB
:103260000A4800210268052040021018A032806937
:10327000127B07E04C01045B002C01D0994204D082
:10328000491CC9B28A42F5D8002010BD8403002031
:1032900070B50C460B4E81000B4832680D180123A7
:1032A0002032D37721462846FFF786FD2868002183
:1032B000844201D1084600E0FB2032682032D177F9
:1032C00070BD0000840300200000041038B5184AC7
:1032D00014682246BA32AE34A378DD0701D0012942
:1032E0000AD05B070CD501290AD0217949070BD5F3
:1032F000E17A002905D007E0E07880210843E070FA
:1033000038BD0121E172508020794106090FF7D0C4
:103310007821084069460870002048706A460221FA
:1033200042200AF05FFB207987210840207138BDD8
:1033300084030020F8B50546002768460770154845
:1033400046260468AE3420798006800F03D0002121
:10335000084603F025FCA078400718D520794C21B9
:10336000084214D10023287E6A46194600F0E8F985
:1033700000280DD16846007828762F74284603F07F
:103380005FF9060003D120794021084320713046BF
:10339000F8BD00008403002038B5104800210468FF
:1033A0000846AE3403F0FCFB694648702079C1073B
:1033B00004D001216A46117088432071C0B2810790
:1033C00005D502216A461170FD21084020710221B5
:1033D0006A4608460AF006FB38BD00008403002058
:1033E00010B5FFF7D9FF10BDFFB50C4678A103C992
:1033F00095B001910090002108A801730321C90232
:1034000068464186012108A8734E01743568174645
:10341000AE3502F0FFFB002808D170493068401833
:1034200002F05EFAA878002802D0462019B0F0BD5C
:103430000BA8159900F0D1FA0028F7D1072010A9A0
:103440000871012C05D0022C0AD0002C0ED042208D
:10345000ECE708A8017B1020014308A8017305E0F0
:1034600011A90BA800F006FB0028DFD110A80279F3
:1034700001230CA9284600F0E7FE00287ED1022295
:103480002946189804F085FD298868468181152110
:10349000490201820784012686734E2108A88170A3
:1034A0000024C470067107214171867103A902A826
:1034B00000F084FC002861D1022202A91E9804F0C9
:1034C00068FD082F02D26846478502E00820694659
:1034D000488569460C850B4628880AAA098901F0A7
:1034E000FFFE00286DD13E4968460182022707840D
:1034F00008A8847103A902A800F060FC002860D12C
:10350000022202A91F9804F044FD6846047069462F
:1035100044704F850B4628880AAA098901F0E0FE0D
:1035200000284ED108A8007BC00723D02C4968464C
:10353000C91C01820821018408A88770047103A9AD
:1035400002A800F03BFC00283BD1FF216846C17176
:103550008171C1708170417001704471047169465C
:10356000082048850B4628880AAA098901F0B8FE78
:10357000002826D108A8007B800600E021E022D5A3
:103580002988684681811649A5310182068486739F
:1035900008A88770C470047107214171847103A960
:1035A00002A800F00BFC00280BD169460E700C85B8
:1035B0004E850B4628880AAA098901F091FE002849
:1035C00001D0472032E708A8007BA87000202DE733
:1035D000626C75656E72672184030020DE06000050
:1035E000012A0000034800210068AE30C1708170DC
:1035F000704700008403002070B50D4B1C68AE348A
:103600002379DD0612D45B0710D533280ED1E07A7A
:1036100002280BD10420107000205070C9B2022083
:103620000AF0E0F92079FB210840207170BD00000C
:103630008403002038B50246174801240068AE30E4
:10364000022A1FD0052A03D0072A07D00B2A20D12F
:10365000084609794088FFF739FE1AE0007900240E
:10366000020600D50124820703D1C20601D48006D8
:103670000FD5084600216A461170694609F066F9BF
:10368000044606E08178490703D50179FB22114001
:103690000171204638BD00008403002010B50948A0
:1036A0000468AE34E07880070BD5002003F04AF9B7
:1036B00002200AF00FF9E07801210843FD210840BB
:1036C000E07010BD8403002010B5FFF7E7FF10BDC8
:1036D0000FB410B5079C01282DD168468089174981
:1036E000884210D103A80FC800F0EAF900281DD1C4
:1036F00007F09EF9FA281ED001281CD92078F32162
:103700000840207017E00D49491C884208D0C91EA6
:10371000884205D0491C884202D0C91C88420AD17F
:1037200003AC0FCC00F0CCF9002800D0632010BC13
:1037300008BC04B018470020F9E70000022A000086
:10374000FFB5074671480D4604688FB0AE34A178C6
:103750001E46C80602D5E078C0067DD4880607D587
:10376000E0788006800F03D0022F01D0002E73D0A6
:103770008806800F06D0022F08D0032F06D0002E17
:103780006AD003E0012F01D0002FF8D1880603D4BE
:10379000002D01D0012D5FD1002E06D13020014037
:1037A000384602F033FE002856D1119900200870E7
:1037B000A0788006800F7DD00CA908A803F08EFBAE
:1037C00007900DA90AA803F0A9FB06900798002806
:1037D00002D00698002801D1012E58D1022F04A84A
:1037E00007D002F031F8002E3CD00798002803D013
:1037F00012E007F0CBFEF6E7444F45483B6806224F
:1038000008A9181804F0C1FB0028386808D0403017
:10381000417E4908490041760698002805D014E009
:103820004030417E01221143F5E7384F38483B686C
:1038300006220AA9181804F0A8FB002838680CD042
:103840004030417EFD22114041760798002809D082
:103850000698002806D01AE043E04030417E02225C
:103860001143F1E7294806220368294804A91818DA
:1038700004F08FFB052069460873002E02D108462C
:1038800008F0B8FC23480290684608F066FCA0786F
:10389000800611D51198032101702079C10603D546
:1038A000002D01D0022D1CD1800605D5012D03D09D
:1038B000032D00E018E014D1A078C00623D511999B
:1038C000012008702079C10601D5002D09D181069B
:1038D00001D5012D05D1000615D5002D13D0012DE0
:1038E00011D0422013B0F0BD012F0CD1002E0AD10F
:1038F0000648062203680648611D181804F049FBB3
:103900001199012008700020ECE7000084030020DA
:10391000DE060000A0BB0D003EB50CF01DFB04460A
:103920000CF0A8FB082C01D1082813D00A480B4939
:10393000006806224118684604F02BFB684640796F
:10394000400601D5022000E00320012302AA002145
:10395000FFF7F6FE3EBD000084030020DE060000F7
:103960001FB50E480468AE34E078010612D5A17880
:10397000C9070CD0800708D504206946087368463B
:1039800008F038FC022009F0A5FF0020E070400696
:10399000400EE07000F048F81FBD000084030020D6
:1039A0000949B22209681423525CBA311A4208D07C
:1039B000498800050905090D000D814201D101204A
:1039C0007047002070470000840300200278090738
:1039D000090F0A4302700020704710B5FFF7F6FF89
:1039E00010BD000030B50E4885B005682C46AE35D8
:1039F0002879BA34400711D5E87A01280ED115216B
:103A00004902684641800121017060886B46054A81
:103A100000F08CFE002801D10220E87205B030BD14
:103A200084030020FFFF000010B5FFF7DBFF10BD8F
:103A30007CB50446E1200D46800003F075FB0BA128
:103A400003C90090019168460CF0F0FF012003F0DB
:103A5000BDFC002801D047207CBD207820210843F0
:103A600020700920287000207CBD00001F0200008B
:103A70000000000010B5FFF7DBFF10BD10B50446D5
:103A8000022000F05DF80D48002102680520400288
:103A90001018A0328369107B05E04A019A5A002A67
:103AA00004D0491CC9B28842F7D810BD48011C5245
:103AB000C018026904210A43026110BD840300207A
:103AC0001FB582B0002401F003FF694601F0A6FE95
:103AD000009A6846116A0089203209E023235B5C62
:103AE000012B04D10B89834201D1641CE4B2096823
:103AF0009142F3D1204606B010BD000010B5044637
:103B00000146042002F012FB002809D00548E321F9
:103B10000068C900401821463C300AF0D5FB43201C
:103B200010BD00008403002004490A683B214901BC
:103B300051180A7802430A7070470000840300207D
:103B400004490A683B21490151180A7802430A7066
:103B5000704700008403002000B51138C0B2FFF7A1
:103B60007DFB002804D00122016952051143016147
:103B700000BD7047F0B5027901239B070168002A58
:103B800002D0062A03D006E05C688C4302E05C6841
:103B900000220C435C6000210F240568CD40ED0736
:103BA000ED0F37D0082909D2DE6A8D002746AF40D5
:103BB000BE431746AF403E43DE622BE00D46083D54
:103BC000082D0AD28D002646203D1F6BAE40B7431C
:103BD0001646AE4037431F631CE00D46103D082DCE
:103BE0000AD28D002646403D5F6BAE40B743164675
:103BF000AE4037435F630DE017290BD9114E8D009E
:103C00002746603D368BAF40BE431746AF400D4D53
:103C10003E432E83491CC9B21A29BED341790129DA
:103C2000D968026809D09143D960817901299968DE
:103C3000006804D081439960F0BD1143F4E701436B
:103C4000F9E700002000004003480068AE308078AB
:103C50008006800F7047000084030020F3B597B002
:103C60000D8848880590081D1DC80DAE1DC68C8A9C
:103C7000CE8A087E1390C8692031019008780090A0
:103C80004878049088780390C87802900F7900F003
:103C900011FE002817D10120400284425FD8B442AF
:103CA0005DD8002F01D1B44259D114A9284601F0A2
:103CB000B5FD002806D115AA1499059801F09EFDBE
:103CC000002802D0602019B0F0BD149D11A928462B
:103CD000183003F079FE10A88088002810D02846FC
:103CE00012A9203003F070FE10A8838800892A8D65
:103CF0001818696A10188A8B904203D16120E2E794
:103D00004820E0E715982C4B02899A4227D12322BC
:103D1000125C012A23D100680068169013980128CC
:103D20001FD16846808E29221202801A030008F0F3
:103D300073FE0604180404070A18022C0FD110E0C1
:103D4000072C0CD10DE0042C09D3E00707D1012F7B
:103D500007D1A64203D3042E01D3F00701D042209D
:103D6000B1E702980B90039B049A0A93099200987A
:103D7000019A0C9708900696059407920DA81DC805
:103D8000019002A81CC013980B4600902A46169971
:103D9000179800F0AFF9002895D168460649808E43
:103DA000FF31884205D01798018800200A4601F0AB
:103DB000C5FF002087E7000003280000F3B5A5B089
:103DC00008881A9088780C4611901022091D13A8B3
:103DD000FCF7E6F9A08A1090A17D68460172E07DAB
:103DE0000F90207E2090677EA07E1F9000200646C8
:103DF0000146129020A801810F20BB4C2390E321A3
:103E00002068C9004018199000F054FD00280BD11B
:103E100001211098490288425FD821A91A9801F01F
:103E2000FDFC002802D0602027B0F0BD219817903B
:103E300001F04EFD1A9988420CD102A80190169803
:103E4000009013AD0ECD1198FFF742FC002801D071
:103E50006320E9E76846017A8806800F05D00120D3
:103E600012902068A030007B4600C80703D012984B
:103E7000401CB61C1290080603D51298401CB61CB4
:103E8000129017980DA918301D9003F09DFD6846FB
:103E9000129C808EA41CA04237D317980EA9203004
:103EA000019003F091FD6846018F00290DD017980D
:103EB000179A6B46406A9B8E128D5918808B511849
:103EC000081AA04201D26120AEE7179884691198C0
:103ED0002568012803D0022803D04220A4E705204A
:103EE00000E01320E0832A4639460F98FEF73FF89A
:103EF000422899D0199FE28B4037788B398B411A31
:103F0000109810188019814201DA48208CE70EA918
:103F1000019803F059FD6846008F0028179802D0D9
:103F2000406A808B00E0008D2599401C0880259810
:103F300001210088A083259802220088401CA883C4
:103F40006A482081204620301790C170002181707E
:103F500081711998398B406D40186946A061097AC2
:103F60000170A06929461C31401C04F012F8119818
:103F70000128A0697ED0102213A9C01C04F009F802
:103F80002846102213A9083004F003F8388B1330A8
:103F900038832E4620361198F0701098E8831F98C9
:103FA000B07010982084109828841998398B406D2F
:103FB0004018A8610021109A03F0EFFF398B109888
:103FC0000818388317990120087117990020487143
:103FD00030716846007A810701D5012131710107EE
:103FE0000227002902DA317939433171410703D5BB
:103FF0003179042211433171400603D5307908210B
:10400000084330710F9870712098B07121461D9847
:1040100003F003FD2146019803F0E0FC29461D98BA
:1040200003F0FBFC2946019803F0D8FC1298002805
:1040300041D068461A998181A18BC1810784478448
:10404000012408A8047122A80A9008A8847323995F
:1040500041730F993820014008A801730721C173EB
:10406000002505746846007AC00708D020486946D4
:10407000088200E02AE003A924A8FFF7EFFD6846C4
:10408000007A8006800F07D019486946401E0882D2
:1040900003A924A8FFF7E2FD6846007A00060AD5C6
:1040A000292109026846018208A84473057303A9FF
:1040B00024A8FFF7D3FD259801881298401C081802
:1040C00082B2002001F03AFE0020ADE6022213A9E0
:1040D000C01C03F05EFF2846022213A9083003F03B
:1040E00058FF388B401D53E784030020032800004D
:1040F00003290000FFB55248E322006887B0D200D0
:104100008218069210AA109B0126169F9288012BF6
:1041100004D14C4B9A4201D1A030067B069D344617
:104120004035688B2B8B7C43C31A09982030039051
:10413000A34222DA48200BB0F0BD2320405C0128C6
:1041400019D108896C46208098420CD03D4C641EE1
:10415000A04208D0641CA04205D0641CA04202D03A
:10416000A41CA04207D1374CFF3CA04201D0904292
:1041700001D16220DFE7096801E029231B020398CF
:104180008142DAD109981B99846918982246FDF773
:10419000EEFE4228CFD01C98012804D11598874202
:1041A00001D24220C7E71598E083204620301C99B1
:1041B0000590817027840A98808B401CA0831098FA
:1041C000012814D02046102211A9083003F0E1FE86
:1041D00005991098C8700698298B406D4018A06109
:1041E000298B384670430818288300250FE011A852
:1041F0000FC808340FC4183CEAE72846A169784381
:104200000818159A179903F0C4FE6D1CEDB2B5425B
:10421000F3D305991898487105991998087105996B
:104220001A98887109982146183003F0F6FB214648
:10423000039803F0D3FB0798A18B018000207AE755
:104240008403002002290000FFB58FB014460E78C9
:10425000102205A8891CFBF7A3FF5048E321006842
:10426000C900451800F026FB00281ED1002C57D0AD
:10427000012E09D16846808A4949884204D12846DE
:10428000A968083081424BD1284610302969039033
:10429000814209D00AA9284603F096FB6846018DA1
:1042A000601E0D90814202D2482013B0F0BD284616
:1042B00008300CA9049003F087FB6846008E0028A4
:1042C00014D0EF680AA93846183003F07DFB384651
:1042D00020300CA903F078FB6846398D008D091851
:1042E0006846008E401C081887B200E001270120B4
:1042F0000004C01BA04201D26120D6E72C692868C7
:1043000001901298012802D0022803D008E005206D
:10431000C00200E023486085012E03D0022E05D0A4
:104320004220C2E720460830022202E02046083040
:10433000102205A903F02DFE204631462030064606
:1043400001730F98214607802785039803F065FBCA
:104350002146049803F042FB27461837E76166625E
:10436000A76126620D9884B20BE02846019903F0FC
:1043700054FB3846019903F031FB2868641EA4B24F
:104380000190002CF1D10F9801880D98081882B285
:10439000002001F0D3FC002087E700008403002008
:1043A0000118000001280000FEB58C68CD88267B2E
:1043B000012E01D00020FEBD4126052D01D01E702A
:1043C00019E0247C0A2C00D01E70002A0DD08968C8
:1043D000052268460C3103F0DCFD6D1E00AAA9B26F
:1043E00032200132FFF708F905E000880A4601464D
:1043F000022009F007FC4120FEBD10B5102100F09D
:1044000017FD10BDFFB589B0074646261D7810225E
:10441000991C05A8FBF7C4FE012D04D0022D02D083
:1044200042200DB0F0BD3846FDF7A2FF040037D0A2
:1044300020223946002003F0CBFF07002FD0194877
:104440006946088001200490394620460B9B0A9A51
:10445000FDF720FA060004D00021384604F014F8D5
:104460001EE00B98A081A068012D0FD0102205A995
:1044700003F08FFD25710121206949030843206164
:104480000948A0613846FFF739FB09E010220749C7
:1044900003F07FFDA068022205A90C30E8E764263E
:1044A0003046BEE703280000FB430410886A05106D
:1044B00002460948E3210068C900411888680831AC
:1044C00003E0038D934202D200688842F9D188420A
:1044D00000D100207047000084030020034610B57F
:1044E0000F48E3210068C90041188868083103E0DB
:1044F000148D9C4203D8104602688A42F8D18A4241
:104500000CD1018D994209D20146026A20318A42BA
:1045100003D0416A898B994200D2002010BD00006F
:1045200084030020024610B50B48120501680520DF
:104530004002081883690020120DA031097B07E0B2
:1045400044011C5B2405240D944203D0401CC0B2DE
:104550008142F5D810BD000084030020F7B5054660
:104560001746019809F080FE2E050446360D0CE032
:10457000A0882568B04207D12146019809F0C1FE04
:104580003946204603F080FF2C46002CF0D1FEBDBA
:10459000F0B58BB0002064490290E3200A68C000A7
:1045A000141872B610464030C57902231D43C571F8
:1045B00062B625464035287AC0077DD005204002E6
:1045C0001018002687694AE071017A5A002A44D0FF
:1045D000C919069109694A021FD48A0227D5022106
:1045E00004910699012309880905090D03911B21EE
:1045F00089014118C97E89070FD51121C9010830E9
:1046000040182322C06F022109F080F8010004D075
:10461000039A8A80049809F065F80698008800904B
:10462000069800F0C9F8009806F0ECFC15E0480781
:1046300013D5069800880005000D06F0BFFC002881
:1046400005D1069800880005000DFDF79DFC069930
:1046500004200969814306980161761CF6B232484C
:10466000AC210068095CB142AED805F0C3F9204620
:104670002430064609F03EFE012802D0012005F054
:10468000BBF82046183009F035FE012802D0002082
:1046900005F0B2F83C34204609F02CFE01280FD07A
:1046A00002A9204609F04FFE0420029901F03EFDC8
:1046B0000028F0D0204600E034E0029909F0F1FD36
:1046C000287A00062ED5304609F014FE012829D19B
:1046D000002003F059FEA98B23314909491CC9B2B6
:1046E000FBF748FD00281DD00F4D04462868112116
:1046F000C90108304018422601233822C06F3146D4
:1047000009F004F801000DD000228A80CC803046E8
:1047100008F0E8FF3B212A68490151180A788020F7
:1047200082430A700BB0F0BD84030020FFB589B04E
:10473000074646251E781022991C05A8FBF730FD78
:10474000012E04D0022E02D042200DB0F0BD38461A
:10475000FDF70EFE040024D020223946002003F08D
:1047600037FE07001CD005AD04960FCD6D460FC572
:10477000394620460B9B0A9AFDF78CF8050004D0B9
:104780000021384603F080FE0BE001212069490337
:10479000084320610448A0613846FFF7AFF900E004
:1047A00064252846D1E70000AD47041010B550211C
:1047B00000F0D2FC10BD0000F0B504463C48E321F7
:1047C0000068C9004518218A85B089041AD50221DC
:1047D00004911B2189014118497F41262788012323
:1047E000C9070FD01121C901083040183122C06F0C
:1047F000022108F08BFF010004D08F808E71049895
:1048000008F070FF2946208801221831FFF7A6FE24
:104810002946208801223031FFF7A0FE2946208852
:1048200001222431FFF79AFE2946208800223C31DC
:10483000FFF794FE20880005000DFFF773FE85004A
:10484000294611316846017307F0D4FC294612311C
:104850006846017307F0CEFC2946133168460173A0
:1048600007F0C8FC68461435057307F0C3FC2088C0
:1048700000F028FA208801050D48090D026805207E
:1048800040021018828F914201D100218187E06996
:10489000002802D0012103F0F7FD2022002120464C
:1048A000A56803F07AFB1720A560608005B0F0BD15
:1048B0008403002010B50B48E3210068C9004418A8
:1048C0004034207AC00709D0002003F05DFD217A32
:1048D000890701D5002803D0002010BD472010BD56
:1048E000642010BD84030020F0B55FA099B000687B
:1048F0005E491590E3220868D2008418052252020E
:10490000821892692546403514922A7AD20702D03D
:10491000622019B0F0BDAA8B01235B029A4201D933
:10492000AB8303E0172A01D21722AA83149AA0307E
:104930001392067B0DE0761EF6B2139871010F18E4
:10494000B8680F9038462022002103F026FB0F980C
:10495000B860002EEFD120460830E0606460A060AF
:1049600024600830139060612061FF22002108302C
:1049700009F08FFC2046FF220021243009F089FC39
:104980002046AA7F0021303009F083FC2046FF2218
:1049900000213C3009F07DFC00222A7210461721CC
:1049A000324B05E0149E4701BE19401C7180C0B215
:1049B0001E68A036367B8642F4D8002028832F8CD0
:1049C000688C0026149008E02820E16C70430918D8
:1049D000204603F003F8761CB6B2BE42F4D300269C
:1049E00008E03020216D70430918139802F0F6FF9B
:1049F000761CB6B214988642F3D30120FFF7A0F8D4
:104A00000124684604701A494180234604226946FD
:104A10000CA8FFF719FC002822D16846018E81827C
:104A200014490183042606858475202108A8817213
:104A30000024C472047307214173847305A90DA86F
:104A4000FFF7BCF900280BD1684604874687818EA2
:104A500015AB0EAA008E00F043FC002800D158E7E9
:104A600000202872472054E70000FFFF8403002045
:104A700001180000052A0000F8B504467D480E46DE
:104A80000068E321C90047184820C05DC0077BD0FB
:104A9000B088FEF7D1FA0546012C02D0002C75D063
:104AA000E6E0002D0CD0286941074AD4B268F188AD
:104AB000147B0029F4D062060CD56888884201D2A4
:104AC0000121B2E0D22C01D0522CF9D13846314626
:104AD00018303FE0A106890E1E293ED81E2C21D198
:104AE00001071FD50821884328612988012007F084
:104AF0007DF80121304603F0C7FC5E4811210068B3
:104B0000C9010830401842242D8801233922C06F82
:104B1000214608F0FBFD010003D08D80204608F0FF
:104B2000E1FDA5E0E1070AD01D2C10D01B2C0ED012
:104B3000410529D4012189020843EE6192E0C006B3
:104B400001D54520F8BD2988002007F03DF83846FA
:104B50003146243009F0B8FB8AE029882022002061
:104B600003F036FC05000FD00121304603F08CFC29
:104B70002B46002221460620FCF7F0FB2846FEF7D4
:104B8000BDFF75E000E001E04120F8BDB068047BA6
:104B90001D2C3AD01B2C41D00021304603F074FC70
:104BA000032C46D0052C44D0072C42D0092C40D0F1
:104BB0000B2C3ED00D2C3CD00F2C3AD0112C38D0E1
:104BC000132C36D0172C34D0192C32D0012C30D0E5
:104BD000022C35D0042C33D0062C31D0082C2FD009
:104BE0000A2C2DD00C2C2BD00E2C29D0102C27D0F9
:104BF000122C25D0162C23D0182C21D0522C1FD0AB
:104C0000D22C1DD01E2C2FD032E0002D03D02988AD
:104C1000012006F0D9FF3146022001E03146012093
:104C200006F060FF002823D00021304603F02CFC62
:104C30001EE029691020814329612988002015E0A0
:104C40002869402188432861010511D5FF210131E0
:104C5000084328612988022006F0B6FF012128694F
:104C6000C9028843286103E02988032006F0BEFFBB
:104C70000020F8BD8403002010B5114AE323126818
:104C8000DB00D2184032127AD20706D002280AD0AE
:104C9000052804D00B2810D101E0412010BD488820
:104CA000FEF7ECFE09E04888FEF7C6F9002804D0BC
:104CB00001220169920511430161002010BD00002D
:104CC00084030020F1B5FFB085B04720019000209B
:104CD000694608805348E3210068C9004718849852
:104CE000FEF7AAF90290002874D0B96808374FE09F
:104CF000684600880D4604AC20186B460222283115
:104D000011F03EFC68460088294620186B460122B7
:104D10002C3111F035FC2E462036307B69460128B7
:104D2000098804A809D040186B461022294608318A
:104D300011F026FC01902C6A27E040186B460222F5
:104D4000F4E76946098804A8401821466B46022208
:104D50001C3111F015FC6946098804A84018214649
:104D60006B460122233111F00BFC2320005D6946C4
:104D70000128098804A830D0401821466B4610222B
:104D8000083111F0FDFB01902468B442D9D12968A3
:104D9000B942ADD1019800281CD16846008881072E
:104DA0000AD0214A011D11406A4611800A1A04A93D
:104DB00008180B2103F0F1F80298008806F0FEF8BD
:104DC000002807D1849869460005000D04AA0988C7
:104DD00005F050FE7FB006B0F0BD401821466B468E
:104DE0000222083111F0CCFB019020890F49884242
:104DF000CAD120460299FEF701F84000A16903904C
:104E00006A460918128804A880186B46022211F01D
:104E1000B7FB0190A169039802220818002103F052
:104E2000BCF8B1E784030020FCFF00000229000069
:104E3000F0B593B00E46044600206946087601900E
:104E4000E0690790002827D0C788002F7DD0B006E2
:104E5000800F03D02088FEF7A3FD019006AB20460B
:104E6000019A0799FFF7A0FA412861D0B81E80B2D5
:104E7000009007988068457B002D56D0F006F1071A
:104E8000039000290FD0022F0DD329460098FBF77D
:104E900071F9002903D006E0412013B0F0BD062DC2
:104EA00017D0142D15D0B00708D5052F06D3032130
:104EB000B8078907C84201D1022048E070070ED523
:104EC000022F0CD329460098FBF754F9002902D091
:104ED00005E001203BE0082D0DD0062D0BD00398F6
:104EE000800F0ED0022F0CD329460098FBF742F911
:104EF000002902D005E0042029E0072D08D0152D57
:104F000006D0B00611D5012D04D0022D04D00CE03E
:104F100008201CE0042500E01225022F05D92946AF
:104F20000098FBF727F9002910D041206946087640
:104F300001212069490388432061019800287DD020
:104F400006AA01213120FEF757FBF6E01020810769
:104F500006D57D49B8034018070CB800C01C0EE008
:104F6000C0060098294604D5401CFBF703F987B218
:104F700002E0FBF7FFF80746781E6843801D81B208
:104F800005AB0222079803F0E3F9F0064ED5694617
:104F9000A089898A884202D9206941065BD4002011
:104FA00041E0072D0AD068430B3082B21023A1687C
:104FB000079803F063FA002815D031E01022634906
:104FC00008A802F0E6FF02980BABC100081A0B30EC
:104FD00081B20222079803F0BBF9102208A8A16849
:104FE00002F0D3FFE7E7019800280ED002980CAB3F
:104FF0006843801D81B22A46079803F0A9F90CAADC
:1050000029463320FEF7F8FA0AE007980090029844
:105010002B466843801CC2B22188022008F0AEFDF6
:105020000298401C80B20290B842BAD33820484F50
:10503000064207D06946A089898A00E077E0884265
:1050400004D86EE06846808AB8426AD0206941067A
:1050500006D5F10604D401218902084320616CE0E1
:1050600021882022002003F0B3F9050011D005218A
:10507000F2070120C902002A0DD06A46118004906F
:10508000908A3B46401C82B229462046FCF7C7FB6B
:1050900037E0452001E7B20713D5207901280ED06B
:1050A0001020A2680290019200916846808A3B46D7
:1050B000401C82B229462046FCF722FB21E0022058
:1050C000EFE7710701D5234A04E00399890F0DD05A
:1050D000204A521C69460A800490888AA389401C91
:1050E00082B229462046FCF7D5FB0AE0B0060AD575
:1050F0006846808AA389401C82B229462046FCF774
:1051000042FB642808D02846FEF7F8FC2288304687
:1051100007990EF0EBFD10E00021284603F0B4F9EA
:10512000B7E72288304607990EF0E0FD00E76846B1
:10513000027E2188022008F055FF0121E06903F07A
:10514000A3F90020E061A8E600C0FFFF886A05100F
:10515000FFFF000002280000F0B58BB00D460446AA
:105160000020694608710490E669002E16D0A80652
:10517000800F03D02088FEF713FC049001AB31466A
:105180002046049AFFF710F9412865D0E80708D0B7
:1051900021883246022008F069FA5DE041200BB018
:1051A000F0BD680705D521883246022008F022FAB2
:1051B00052E0A80739D5F0886188814205D9218855
:1051C0003246022008F05AF946E02069410604D52B
:1051D000012189020843206180E0218820220020EB
:1051E00003F0F6F805001ED021883246022008F0B0
:1051F00045F9A068801C0EF068F86188401E4018D0
:1052000086B2A0680EF061F8024633462946204671
:10521000FCF7E1FA2846FEF771FCA0683146801CD5
:105220000BF0B4FC54E04520B9E7E80614D5F0884B
:10523000412702280ED9B168801E4D7B80B285427D
:1052400001D9012016E0002D04D02946FAF792FF7B
:1052500000290FD06846077101202169400381436E
:105260002161049800282DD001AA01213120FEF7E8
:10527000C3F92DE002900220002703901EE004985D
:1052800000280DD0039805AB001D81B22A46304698
:1052900003F05EF805AA29463320FEF7ADF907E0D2
:1052A00003980096C2B22B462188022008F066FCC3
:1052B0000398401980B27F1CBFB2039002988742C6
:1052C000DDD3C9E7684602792188022008F08AFE0A
:1052D0000121E06903F0D8F80020E06100205EE7DA
:1052E000F0B5074617480E4600683B2149014018B3
:1052F000007885B01D461446C00706D003A938467D
:1053000000F08CFA00280AD102E0472005B0F0BD79
:1053100004AA3046039900F071FA002801D06020F9
:10532000F4E70499228860880968002A00D0088C74
:1053300032466E4631C603233946002000F004F899
:10534000E4E7000084030020FFB5002099B0239A11
:105350000B90129005461490064615901C46DB48AB
:105360000B460068E321C900411803910021229FE8
:10537000089109915188069111880A913B214901B0
:1053800040180078C00706D00FA9184600F046FA6A
:1053900000280AD102E047201DB0F0BD10AA0F99E5
:1053A0001B9800F02BFA002801D06020F4E7199830
:1053B000002803D0600701D5012000E000201390F1
:1053C000A007800F1C90109817902030C0780128FB
:1053D00040D11798BE4B01899942F9D11798069987
:1053E00004680A98228C4118914233D82046203014
:1053F00016908078012816D0E08B04901798806969
:1054000000788006800F7DD0039840301890007A95
:10541000800777D51C980028F5D0AD4F0F99FF373E
:105420002031206814E0BA4214D3B942DDD8049781
:10543000E4E70389A64A934203D12322125C012A9E
:1054400008D0BB4203D12322125C012A03D000689A
:105450008842EED134E105900028FBD09B4805211D
:1054600002684902511889690027009162E07801B9
:1054700000990390085A01055AD01999002901D0C2
:10548000884255D105997A008B69511C595C9A5C08
:105490000902891889B20D91890749D0022205991C
:1054A000FCF706F9002804D01998002840D06520A0
:1054B00072E7002008A9C8551C98C00718D0179893
:1054C00080690078C00613D50D98C00710D0012060
:1054D000C8550543009A039880184088159A904251
:1054E00006D91590009A0398105A0005000D1490E3
:1054F0001C9880071CD5179880690078800617D5FE
:105500000D9800E084E0800712D50220CA5D0543B3
:105510000243CA550099039840184088159988425B
:1055200006D9159000990398085A0005000D1490AB
:105530007F1CFFB265480068A030037BBB4296D851
:10554000002D65D01898007A00065FD45F48016886
:10555000052040020818816900201BE042018E5A94
:10556000360515D0AE070BD556183669B7070DD4DA
:1055700008AF3F5CBF0703D5360701D546200BE7D0
:10558000EE0705D05218127CD20701D0432003E762
:10559000401CC0B28342E1D81598C01E86B2049860
:1055A000864200D90646A8070FD52022002014996C
:1055B00002F00EFF129000287DD0F01C82B2002174
:1055C000129804F047F8002811D1E80720D02022D3
:1055D0000020149902F0FCFE0B90002807D0F01C6C
:1055E00082B200210B9804F035F8002810D08020FA
:1055F000FEF7A6FA1298002802D0002102F044FF1C
:105600000B98002802D0002102F03EFF6420C3E680
:10561000A1690A98069A0818249902F0BAFC16980B
:105620008078012801D10498E083002D46D0274BD3
:1056300005201968400208188169002008AA0CE0BA
:105640004301CF5A3F0506D05F18BC463B69175C43
:105650003B4367463B61401CC0B21C4B1B68A033F8
:105660001B7B8342ECD8A8070DD512980090F01C44
:1056700082B221461C310220A369FCF743FC0220C0
:10568000129906F02FFAE80718D00B980090F61C34
:105690002146B2B21C310120A369FCF733FC1398F8
:1056A000002805D00B988021C07C08430B99C87452
:1056B00001200B9900E005E006F014FA00206BE6EB
:1056C000422069E68020FEF73BFA9FE78403002032
:1056D00003280000FFB581B01F4606464625FCF7AB
:1056E00047FE040020D020223146002002F070FE48
:1056F000060018D0014600972046039B029AFCF74B
:105700001DF9050004D00021304602F0BDFE0BE07B
:10571000012120694903084320610548A061304602
:10572000FEF7ECF900E06425284605B0F0BD000066
:105730003557041010B56021FFF70EFD10BD10B5F0
:105740001C4613462246FFF7C5FF10BDFFB581B0CA
:10575000154606464624FDF76FFC070026D0029842
:10576000002803D07888C01EA84201D242241DE040
:1057700012483B210068490140180078000602D514
:10578000642005B0F0BDE81C82B23146002002F072
:105790001FFE06000CD0014600953846049B029A75
:1057A000FCF7B3F804463046FEF7A8F92046E8E7D0
:1057B00064248020FEF7B8F9F8E700008403002095
:1057C000F0B58468083015E0258D8D4203D1146052
:1057D00018600120F0BD26461C602036256A06E0D0
:1057E000AF8B8F4202D102201560F0BD2D68B5420B
:1057F000F6D124688442E7D10020F0BD10B50B6AD1
:10580000203106E09C8B844202D10020136010BD41
:105810001B688B42F6D1412010BD000010B5094A2B
:10582000E3231268DB00D2189368083206E01C8D6F
:10583000844202D100200B6010BD1B689342F6D158
:10584000412010BD84030020F8B5204E0446356881
:10585000AE3500F0B5F92070000A607000F0B0F9C4
:10586000A070000AE07000F0ABF9C2B28004830EB1
:105870002271002163710846275C401C7918C0B270
:1058800089B20628F8D30029E3D02078FF280CD16C
:105890006078FF2809D1A078FF2806D1E078FF289A
:1058A00003D1FF2A01D1FF2BD3D00622691D204648
:1058B00002F06BFB0028CCD03168062220467831FC
:1058C00002F063FB0028C4D0F8BD00008403002070
:1058D00002480068AE300088704700008403002052
:1058E00010B5034906220968B33102F052FB10BD1E
:1058F00084030020F7B5164600241CE000981149E7
:10590000001940188108019889000019427805782B
:10591000120215438278C078120400060243094837
:10592000154340420F1829463846FDF745FA3868B6
:10593000854204D1241DB442E0D30020FEBDFB20EB
:10594000FEBD00000000FCEFF0B50E460746002447
:1059500007E03D1900F034F92870000A6870A41CB3
:10596000E4B2B442F5D3F0BD0F4910B528390E4B5F
:10597000CA691206120F4270C9690907090F8170BE
:1059800019680A4C01234160A14202D10221017031
:1059900000E00370002A00D143700549898A491C40
:1059A0008900816010BD00002800904041A00002E5
:1059B0000000104010B5012818D8072916D80C4A45
:1059C000126813462033187759778007C906000EEE
:1059D000090E01430020074BA03204E08401E418C3
:1059E000A172401CC0B2147B8442F7D8002010BDC5
:1059F0008403002000010020074A914202DC524249
:105A0000914200DA1146FF22993251430A1251188D
:105A10000A14511808187047FFFF4F0010B50920ED
:105A2000C00600690002000A06F010FC10BD7047B5
:105A3000F0B5444F0446386885B0783016460D46B8
:105A4000002C19D0062C11D0082C0CD0182C0AD000
:105A5000282C0BD02A2C09D02C2C0AD02E2C0BD081
:105A6000D02C42D043E0102D08D040E0022D05D0CC
:105A70003DE0012D02D03AE0062D38D10A4600194A
:105A8000314602F086FA2C2C28D13078002825D017
:105A90000AF0CEF9012824D01B201F304009401CF9
:105AA00041004118012002F05DFC0AF0C1F9012813
:105AB00019D01B201F30400941004118224840786E
:105AC000401AC01EC1B2002002F04CFC38684022CF
:105AD000403001781143F92211400170002005B0D7
