:020000041004E6
:1000000000600020DD1D0410C5220410E122041050
:10001000DDCCBBAA45554C420000000000000000AA
:10002000000000000000000000000000FD2204109D
:100030000000000000000000192304103523041004
:10004000552304107123041000000000000000007C
:100050008D230410A9230410C5230410E5230410E4
:100060000000000000000000000000000000000090
:1000700000000000012404101D2404103924041081
:100080000000000055240410752404109524041069
:10009000B5240410D5240410571C0410F5240410B2
:1000A0000000000000000000000000000000000050
:1000B0000000000000000000000000000000000040
:1000C000EFF31482EFF30981002080F31488BFF36B
:1000D0006F8FF0B543464C4655465E466746F8B4CA
:1000E000164CEFF30883236006B4154C2068154CBA
:1000F0002060154C2068154C2060154C2068154C6C
:100100002060154C276800202060BFF34F8F30BF60
:1001100027600A4C246884F3088882B003BCF8BCCA
:100120009846A146AA46B346BC46F0BC04BC80F340
:10013000098881F31488BFF36F8F104708000020EF
:1001400004ED00E0900A002024ED00E0840A002085
:1001500000E200E0940A002008002040002243084A
:100160008B4274D303098B425FD3030A8B4244D37F
:10017000030B8B4228D3030C8B420DD3FF220902C1
:1001800012BA030C8B4202D31212090265D0030B80
:100190008B4219D300E0090AC30B8B4201D3CB0376
:1001A000C01A5241830B8B4201D38B03C01A5241B8
:1001B000430B8B4201D34B03C01A5241030B8B42BA
:1001C00001D30B03C01A5241C30A8B4201D3CB02A5
:1001D000C01A5241830A8B4201D38B02C01A52418A
:1001E000430A8B4201D34B02C01A5241030A8B428D
:1001F00001D30B02C01A5241CDD2C3098B4201D3A5
:10020000CB01C01A524183098B4201D38B01C01A22
:10021000524143098B4201D34B01C01A5241030999
:100220008B4201D30B01C01A5241C3088B4201D348
:10023000CB00C01A524183088B4201D38B00C01AF5
:10024000524143088B4201D34B00C01A5241411A1C
:1002500000D20146524110467047FFE701B5002029
:1002600000F0F0F802BDC0460029F7D076E77047ED
:1002700003460B437FD4002243088B4274D3030907
:100280008B425FD3030A8B4244D3030B8B4228D3A8
:10029000030C8B420DD3FF22090212BA030C8B42CE
:1002A00002D31212090265D0030B8B4219D300E06E
:1002B000090AC30B8B4201D3CB03C01A5241830BF3
:1002C0008B4201D38B03C01A5241430B8B4201D3A3
:1002D0004B03C01A5241030B8B4201D30B03C01ACC
:1002E0005241C30A8B4201D3CB02C01A5241830A46
:1002F0008B4201D38B02C01A5241430A8B4201D375
:100300004B02C01A5241030A8B4201D30B02C01A9E
:100310005241CDD2C3098B4201D3CB01C01A524105
:1003200083098B4201D38B01C01A524143098B428E
:1003300001D34B01C01A524103098B4201D30B0177
:10034000C01A5241C3088B4201D3CB00C01A52419C
:1003500083088B4201D38B00C01A524143088B4261
:1003600001D34B00C01A5241411A00D201465241FA
:10037000104670475DE0CA0F00D04942031000D319
:100380004042534000229C4603098B422DD3030A6E
:100390008B4212D3FC22890112BA030A8B420CD37E
:1003A000890192118B4208D3890192118B4204D3A7
:1003B00089013AD0921100E08909C3098B4201D327
:1003C000CB01C01A524183098B4201D38B01C01A61
:1003D000524143098B4201D34B01C01A52410309D8
:1003E0008B4201D30B01C01A5241C3088B4201D387
:1003F000CB00C01A524183088B4201D38B00C01A34
:100400005241D9D243088B4201D34B00C01A52410A
:10041000411A00D20146634652415B10104601D397
:100420004042002B00D54942704763465B1000D321
:10043000404201B5002000F005F802BD0029F8D0C7
:1004400016E770477047C046437802781B021A438C
:100450008378C0781B041343000618437047C046D6
:10046000030A4B70030C8B70030E0870CB7070473F
:1004700003005A7800781202024398781979000430
:100480000243D878000610435A7912020A43997938
:1004900009040A43D979090611437047030A5370C6
:1004A000030C9370030ED3700B0A53710B0C9371F2
:1004B0000B0E10701171D3717047C046024A136859
:1004C000013313607047C04600030020C021074A73
:1004D000074B08485360036A09061B021B0A0B43BB
:1004E00003620023936007331360704710E000E05D
:1004F000FE7C000000ED00E00E4AD3691B061B0FD6
:100500004370D9B2D3690C4A1B071B0F83700B4B86
:100510001B68436093420BD102230370002901D171
:1005200001234370064B9B8A01339B008360704715
:100530000123F2E70000904041A000022800904013
:1005400000001040F0B5070085B001AC0E0020009F
:100550001500FFF7D1FF23783B7063783370A378E1
:100560002B7005B0F0BD10B501F0E7FF10BD10B560
:1005700001F0FEFF10BD10B501F0D0FF10BD00006E
:10058000F0B51B4C1500A5440E910400EFF3108349
:10059000069372B60022174B1A7010F0E7FB0600A4
:1005A000200001F081FE331C864200D9031CDAB220
:1005B000A24200D9231CDBB20F4A990000938B584A
:1005C00001338B50009B002B07D1069B83F31088CF
:1005D0000020A9239B009D44F0BD009B012B0FD15F
:1005E0000021064B1A7A1972D2B230BF1A72ECE7A8
:1005F0005CFDFFFF0C0000200403002000007040A1
:1006000038226B46E14C9B1825701B787DA823711E
:10061000FFF772FF237ADE49DBB20A938B88DD4A4B
:100620009BB2109313685C91119300230894059278
:1006300080A91A000598C032920080589A000133B0
:100640005050082BF5D1D44CD4482368D449129388
:10065000036AD44F13938023DB051A68D24E149299
:100660005A68D24D15929A681692DA6817921A69EA
:1006700018925A6919929A691A92DA690B92DA6A8F
:100680001B921A6B1C925A6B1D921A8F92B21E9279
:100690005B6CC74A1F93CB6820930B7FDBB221931F
:1006A0008B8C9BB22293C34B1B78DBB22393C24B40
:1006B0001B78DBB224930B6B2593C04B1B78DBB20A
:1006C00026930B8F9BB22793BD4B1B78DBB22893ED
:1006D000BC4B9C461B78DBB229933B78DBB22A9358
:1006E0003378DBB22B932B78DBB22C93B64B1B7891
:1006F000DBB22D9313682E9353682F93137CDBB2D8
:100700003093137DDBB23193B04BDB7FDBB232939E
:10071000138D9BB23393D36A3493138E0491A549FE
:100720009BB25E91A44935935F91A44900236091E7
:10073000A349019261916146A44A6291A2495D94E4
:100740006397649665950F906691679269AF6BAEFB
:100750006DAD6FAC9E4A9A1892041168D9515168D8
:100760009951918BE950118CE150908C71A9C8502E
:10077000108D73A9C850D06A75A9585011004C311A
:10078000088877A9C850106D79A95850916D7BAA37
:1007900099500433082BDDD1B0231B061B688D4C08
:1007A000369363688C4A3793A3688C4D3893238AB9
:1007B0009BB23993A38A9BB23A93A3693B93237F5D
:1007C000DBB23C93238E9BB23D93636B3E93A36B52
:1007D0003F93E36B4093236C4193636C4293A36C10
:1007E000439393889BB2449313899BB24593137CA4
:1007F000DBB24693137DDBB24793138B9BB24893D6
:10080000137FDBB24993764B998889B24A91198953
:1008100089B24B91197CC9B24C91197DC9B24D91E5
:10082000198B89B24E91197FC9B24F916D490868F1
:1008300050904868519028685290287AC0B25390DE
:10084000C020000128580995039302920D0000234F
:10085000002800D1644B90AA0D939446002388A8E9
:1008600098A9052266465A43604FD21957689F518E
:1008700017681F5097685F50D768A0AA9F5004332D
:10088000202BEED18123DB055A6854921A7BD2B219
:1008900055925A8B92B256921A8B92B257925A6ACA
:1008A00058929A6A1B8859929BB25A93C0231B068E
:1008B0009B685B93009B032B06D19022C023D2053B
:1008C00051689B050B435360494B4A4A1B68079389
:1008D000503B0C9300230C99C9180968D15004337C
:1008E000502BF8D1444B079A1A607DAA537892781E
:1008F0001B011343112B04DD0020404B186001F055
:10090000F5F99023DB055A683D4B1A60089B1E7968
:100910001A788023DB051B685B0A53409E4300D096
:1009200053E6012000F0F8FCFFF7CAFB300000F0AE
:10093000F3FC344B1B78002B00D0A1E032494B680C
:100940005B0675D4314B32484A6800685C6A844261
:1009500016D1304849680068884204D00599424061
:10096000096811420CD12C4A596812685140C900DB
:1009700006D45B685A4053015AD52B689B0757D55C
:10098000264A274813681B09D91C4BE00000204069
:100990000000104000E100E020ED00E00000904089
:1009A0000000304054003040580030405C0030407F
:1009B00000004040280030402C00304034003040DF
:1009C000480030405000304060003040050040405A
:1009D000281000000000F0400000D04000007040EF
:1009E0000000E04010E000E051E5CC1A080000A053
:1009F00000000410240A0020200A00201400002017
:100A0000180000200C000020FCE100E000ED00E0F8
:100A1000840A0020940A0020900A00201000004858
:100A2000FFFF0F0081421BD813681B099942FBD8B6
:100A30007DAA537892781B011343112B05DD012009
:100A400001F054F90A4A0B4B1A60009B032B00D0AB
:100A5000BBE59022D205536807490B405360B4E5CB
:100A600006495B18116809099942FBD1E0E7C046C5
:100A7000CCBCECFC14000020FFFFFFCF0400F0FF13
:100A80000122E74F3A83E74ABE813E610C9B9159B0
:100A90009B1904361960502EF8D1079AE24B402179
:100AA0001A606A4652185C9B128880A89A80059B3F
:100AB000119A1A6000239A0011581A00059EC0323C
:100AC00092000133B150082BF5D15D9B129A782129
:100AD0001A600F9B139A6DAE1A628023149ADB057D
:100AE0001A60159A5A60169A9A60179ADA601A9ADA
:100AF0009A61199A5A61189A1A610B9A9A620B9A1A
:100B0000DA611B9ADA621C9A1A631D9A5A636A4662
:100B1000521812880C311A871F9A5A64049B209A23
:100B2000DA606A465218049B127804311A776A46D2
:100B30005218049B128804319A846A4652185E9BAC
:100B4000127804311A706A4652185F9B1278083185
:100B50001A70049B259A1A636A465218609B127891
:100B600004311A706A465218049B128804311A879D
:100B70006A465218619B127804311A706A465218FC
:100B80001278629B04311A706A465218639B12787D
:100B900004311A706A465218649B127804311A7034
:100BA0006A465218659B127804311A706A465218C8
:100BB000669B12780C311A70019B2E9A1A60019B69
:100BC0002F9A5A606A465218019B127804311A749F
:100BD0006A465218019B127804311A756A465218F7
:100BE000679B12780431DA776A465218019B1288A3
:100BF00008311A85019B349ADA626A465218019BC1
:100C000012881A86002369AA94466FAA0492614644
:100C10000C20864A59589A189204116068A909183C
:100C2000C95851600191995B91830499595A118473
:100C300071A9595889B2918473A9595889B21185FB
:100C400075A95958D16277A9595888B211004C3109
:100C5000088079A9595811657BA9595804339165C1
:100C6000082BD4D1B023369A1B061A60519B509A98
:100C70006B600023AB602A60379AE4216260389A87
:100C80008820A2606A4652181288043122826A467D
:100C9000521812880831A2823B9A4000A2616A462B
:100CA00052181278043122773E9A052662633F9AE1
:100CB00090ADA263409AE263419A2264429A6264D0
:100CC000439AA2646A465218694612880918228615
:100CD000029A09880430918069460918029A0988A5
:100CE0000430118169460918029A09780430117498
:100CF00069460918029A0978922411754021489A88
:100D000002988A430283684664000019029A0078B8
:100D10000434107768460019039A008804349080E0
:100D200068460019039A0088043410816846001947
:100D3000039A00780434107468460019039A007806
:100D400088AC10754E9A9E208A43039940000A830E
:100D500069460918039A097810301177099A52994F
:100D6000116069460918099A09781172C0220D9814
:100D700009991201885098A832005A432C495218F8
:100D8000595951601959116019589160A0A95958C1
:100D90000433D160202BEFD18123549ADB05AA21A3
:100DA0005A606A4649005218127804311A736A462A
:100DB0005218128804315A836A46521812880C312C
:100DC0001A83589A5A62599A9A626A465218128835
:100DD0001A80C0235B9A1B069A600F9B1B7A002B1C
:100DE00049D13B89082B46D93B89812B43D80E9B9F
:100DF000002B40D009223B891340934204D1802329
:100E0000DB05DB699B0533D411223B8913409342F8
:100E100010D18023DB05DB695B0529D40AE0C046DD
:100E200000001048240A0020200A0020281000009A
:100E3000080000A021223B891340934204D1802363
:100E4000DB05DB691B0513D441223B891340934228
:100E500004D18023DB05DB69DB0409D481223B89D3
:100E60001340934207D18023DB05DB699B0402D545
:100E70000122214B5A60009B032B05D19022D20501
:100E800053681E490B4053606A4628215218089B3C
:100E900012781A72009B032B2BD10020273900F007
:100EA000E3FF0A9BDB0701D4FFF78FFB00F012F989
:100EB00068ABD87003331B780B2B15D0104B1B88F5
:100EC0001B0711D590220F4BD20511691B685B1AC5
:100ED0001B021B12D9175B184B40202B04DC136933
:100EE0002D3311698B42FCD21522074B1A70FFF784
:100EF0006CFB00210800D2E7FCE100E0FFFFFFCF20
:100F0000C0000020180000200000C040024A138AE0
:100F1000DB07FCD57047C04600001040084B10B5F9
:100F20001A68084B9A4209D13F22074B40061A81A2
:100F3000000C2E3A98611A80FFF7E8FF10BDC046FA
:100F400014000020CCBCECFC00001040084B10B595
:100F50001A68084B9A4209D13F22074B80081A8130
:100F60000C3A986119641A80FFF7D0FF10BDC04693
:100F700014000020CCBCECFC000010400B4B10B562
:100F80001A680B4B9A4210D13F220A4B80081A81F3
:100F900098610A681A644A685A648A689A64CA68D6
:100FA000DA64CC221A80FFF7B1FF10BD14000020D4
:100FB000CCBCECFC00001040F7B50190017904684E
:100FC000002931D18022D2055368A3435360019B8D
:100FD00020251E68802300226D42DB05340001209D
:100FE000D44004420BD0D4B2072A26D897000E3042
:100FF000B840DC6A84430800B8400443DC62013234
:1010000004351A2AEAD1019B5A798023DB05012A8B
:101010003AD1DA683243DA60019A9279012A36D1FC
:101020009A6816439E60F7BD0629D0D18022D2056A
:101030005368002123435360C9E72700083F072F67
:1010400008D80F27AF401C6BBC430F00AF403C4398
:101050001C63D4E7103C072C0AD82F000F20203F38
:10106000B8405C6B84430800B84004435C63C6E747
:101070002F000F20403FB8401C8F84430800B84029
:101080000443A4B21C87BAE7DA68B243C3E79A689C
:10109000B2439A60C7E78023DB05012901D1D863F9
:1010A00070471864FCE7C02380211B061A680A43B6
:1010B0001A601A688A431A6070470000044B1A6A63
:1010C000012902D110431862704782431A62FBE77C
:1010D00000009040244B1A7A244BD2B21B899BB259
:1010E000002A36D11A00093A782A19D809211A009B
:1010F00006200A408A422BD0112201301A40112AC0
:1011000026D0212201301A40212A21D04122080074
:101110001A40412A1CD0812201301A40812A17D05E
:1011200002221900FF3211400B20914210D0190009
:101130000F4A0130114091420AD01A00073802408C
:10114000824205D00238184003384342584180009B
:1011500070470120022AFBD00018042AF8D0002092
:10116000082AF5D10330F3E7000090400000104852
:1011700001040000054B0122196B002802D00A432C
:101180001A63704791431963FBE7C0460000304083
:10119000F8B54A4C0500236B01681B0700D56DE0CC
:1011A00009014748FEF7DAFFC3099AB2A284454A0B
:1011B000DB0101301340C01A400880B23F2802D939
:1011C0003F233F381840032760263F4BC0B21870BA
:1011D0003E4B2A7918783A405201B04310431870B8
:1011E00001206979227F39404901B2430A432277BD
:1011F000AA7919780240BA40073081431143197027
:10120000217F81430A432277EA79002A38D10221DB
:101210001A788A431A70227F8A43012022772A7A19
:10122000216B1600C2402A4F0640760239403143F6
:101230002163216B274E0240314012020A43226390
:10124000697A226B0E00C140234F06403A40B60334
:1012500032432263226B214E01403240C9031143C5
:101260002163AA7A197802400F3012018143114399
:101270001970237F83431A432277F8BDC90090E792
:10128000022A0CD10420197811431970197881436E
:101290001970217F0A432277227F8243BDE7022112
:1012A0001A780A431A700422187810431870207FA5
:1012B00001432177217F0A43AFE7C0460000304059
:1012C0000000127A80FF7F00280030402C00304060
:1012D000FFFDFFFFFFFEFFFFFFBFFFFFFF7FFFFFE1
:1012E000054B002805DA5B681840431E9841C0B2E0
:1012F00070471B8BF8E7C0460000304007220240D1
:1013000038200449D2000B7883431800104308703A
:101310007047C04634003040054B0422196900284C
:1013200002D00A431A61704791431961FBE7C04636
:1013300000ED00E030B50E4D0100288885B0013089
:10134000FFF77CF80C1E11D10A4B1A880A4B19883A
:101350000A4B18880A4B01940393042302930093C9
:10136000033B01F0CFF9074B1C702C8005B030BD5A
:10137000FC090020780A00207A0A00201A030020C5
:101380007C0A002020030020BFF34F8F024A034B4A
:10139000DA60BFF34F8FFEE70400FA0500ED00E0CE
:1013A000024B1A78024B1A707047C046CE090020D3
:1013B0001503002010B5084B1A78002A08D0002029
:1013C000187004F0EBF8054B9321188801F03FF9F1
:1013D000034B187810BDC046140300201A030020E8
:1013E00015030020F0B591B00021092209A801F0F1
:1013F000BFF824226B4602209B18223A1A7000F094
:10140000FCFB66230CAC23709A2363700C23A3703F
:101410002023E37000232371A733A371BA23E37160
:10142000E3232372112363720623A3727F33E372D3
:10143000F7230826C0278E4D6373603BA3731022E9
:101440000D3B21002800E37366712773FFF78BF8CB
:10145000884B2900009301220A23022001F02DF974
:10146000051E02D0472011B0F0BD662323709A23D9
:1014700063700C23A3702023E370A723A371BA2306
:10148000E371E3232372112363728523E3728C23B8
:101490002773794F63735E3B2071A37310221C3B4B
:1014A00021003800E3736671A672FFF75CF8714B98
:1014B0003A001888714B04950593102303930C3B55
:1014C0000293023B019500930221330001F0D6F80C
:1014D000051EC7D1662323709A2363700C23A37063
:1014E0002023E370A723A371BA23E371E3232372BC
:1014F000112363728523E372F0232373573B6373D5
:101500008A3B2071A3731022123321003800E37349
:101510006671A672FFF727F8564B3A001888584BA9
:1015200004950593102303930B3B02930933009317
:101530000195053B022101F0A1F8031E00D091E7BF
:101540004F4A4C494F4809AD1288098800880395D5
:10155000092501932B0002950095083B01F0D2F874
:10156000051E00D07EE7662323709A2363700C2348
:10157000A3702023E370A723A371BA23E371E323AD
:101580002372112363728523E372802323732A332A
:101590006373193B2071A37310226B3B2100380049
:1015A000E3736671A672FEF7DEFF324B3A001888CD
:1015B000354B01950593012304930F3303930B3BA4
:1015C0000293093300930221C63301F057F8051E38
:1015D00000D047E7662323709A2363700C23A3701F
:1015E0002023E370A723A371BA23E371E3232372BB
:1015F000112363728523E37260232373093B6373B2
:1016000085332071A3731022B13B21003800E373AE
:101610006671A672FEF7A7FF164B3A0018881B4B9F
:1016200004950593102303930C3B02930E33009310
:1016300001950E3B022101F021F8031E00D011E7B5
:10164000134A12BA079207AC124A12BA09496260E9
:101650000C480A4A0988128800880193039402966C
:101660000096013301F04EF8002800D0FAE6FAE6C1
:10167000E20900207A0A0020D0090020760A002022
:10168000800A00201A030020740A0020780A002033
:1016900000180510FFEF0710F0B5884C89B02080C6
:1016A000874C24880134A14233D1002285490A7035
:1016B00085490A701A79D97812060904521859789E
:1016C000521899780902521880490A601A7AD97911
:1016D0001206090452185979521899791B7809028F
:1016E00052187B490A6002218B431900012B00D05C
:1016F0000821784B04201970774B1A600023774A31
:101700001380774A1360774A138003F047FF09B0CC
:10171000F0BD754C2588AC1CA1421DD10023714A37
:10172000724C1380724A23801188042263800292D3
:1017300001930092039401332A0000F0E3FF002894
:1017400002D1023000F04BFA6A4B1B78032BDED03B
:101750001722694B1A80DAE7684800880130814215
:10176000D5D167490878C0B2002809D0654A1388E6
:1017700001339BB21380574B1878FFF7DBFDC6E7A8
:101780000F2656490C885C4906940D88043DE917DC
:10179000314049190911CE01B442B8DA4B4D5A4FC4
:1017A0002D683F7805951519043D0795574DAC46B2
:1017B000079DAC4247DB002801D0534807709A18B8
:1017C000D01E971E3F780078013A78404E4F12782D
:1017D0003D786840424018783A7084463F4F41480F
:1017E0003C8094455AD109015B18DA78484D1202C1
:1017F00094469A78624492B22A800588AA4236D1E9
:1018000001325B7897B20780012B03D04A43059BD6
:10181000934214D80022354B31001F805A8020009B
:10182000FEF70CFE002907D02D4B059A1B68D51A30
:10183000B54204D2A54202D80122364B1A700022CA
:10184000314B1A7063E7059884420CD265460698BE
:10185000201A1818407828552C48005D013447405C
:10186000A4B20120A4E7604600250555F4E7254B06
:101870001D80294B1B88002B01D001339BB2012115
:101880001F4A03801170194AEF31138000233B80F7
:10189000104B51801878FFF74DFDD0E7194B0288A7
:1018A0001A801D4B1B88002B01D001339BB20121F4
:1018B000134A038011700D4A0E31E6E71A03002027
:1018C000800A002021030020E0090020C809002030
:1018D00024030020F60A00201C0300201603002029
:1018E000F809002022030020780A00207C0A00204A
:1018F0007A0A002019030020F80A0020740A002048
:1019000020030020FC0900201803002028030020E9
:10191000F4090020F2090020CC090020F0B5514C58
:1019200085B023780500002B59D003F0B7FF0100E4
:10193000280003F0ADFF0F224B4B05001B88FA2156
:10194000043BD8171040C018D62300119B00584301
:101950008900D630FEF78CFC013085423FDD002344
:10196000102723702370414B414D1A88414B1A8038
:10197000414B424A1B6812689B182B603C00404A4E
:10198000103C1388A4B2A3422BD83C490868C31862
:101990000B6000233B4913804B803B4B00241A888B
:1019A0003A4B19883A4B1888364B01940393042319
:1019B00002930093033B00F0A5FE304B1A68354BB1
:1019C0001B689A420BD3022000F010F932493348C9
:1019D000FFF7BCFA0123324A1370324A137005B084
:1019E000F0BD254A2868126811001031814233D0B9
:1019F0001B1B2D4E0F2B16DD34192100FFF7BEFAED
:101A000028682B681030E41A1978E25C914203D000
:101A10003C221C4B5A80C0E701338342F4D12B682F
:101A200010332B601AE03319D9789A78090612041A
:101A300089185B78325D1B028918C918FFF786FA8E
:101A40002B68E41A181D36191978F25C9142DFD11F
:101A500001339842F8D1E2E720322A601037BFB252
:101A60008CE7C046F2090020F80A0020F4090020A3
:101A70001C030020CC09002024030020F8090020CA
:101A8000160300207C0A0020780A00207A0A002031
:101A90001A030020C8090020AA5555AA10180510DD
:101AA00014030020CE09002028030020034B044A21
:101AB0001980022311780B4313707047F80A002035
:101AC00019030020012313B5124A040011780B43B7
:101AD00013700F22104BFA211B888900043BD81782
:101AE0001040C018D62300119B005843D630FEF793
:101AF000BFFB431DFA20800058430849FEF7B8FB9E
:101B0000C82381B21B0100930A000023200000F0CB
:101B100012FE13BD19030020F80A0020E2040000A1
:101B2000F0B5012187B006000920FFF7C7FA80232E
:101B30000024012501AF5B00380001933D71BC71A9
:101B40007C71FFF739FA802338001B0101933D7146
:101B5000FFF732FA032303A8037143710372847100
:101B6000C471447285720396FFF712FB2000FFF7E1
:101B7000C5FB2800FFF7FEFA07B0F0BD10B58020C6
:101B8000FFF7AEFB43425841C0B210BD10B508206C
:101B9000FFF7A6FB013843425841C0B210BD10B553
:101BA00000F0CBFC10BD10B500F0C7FC10BD10B5A7
:101BB0000A00002100F0DCFC10BD00000222014BF5
:101BC0001A707047FE090020012804D00123022862
:101BD00003D0082301E08023DB011800704710B513
:101BE000FFF7F2FF0021FFF756FA10BD10B5FFF71F
:101BF000EBFF0121FFF74FFA10BD13B501210400DF
:101C00000800FFF75BFA2000FFF7DEFF6A460623B5
:101C10001371002300909371684601335371FFF7ED
:101C2000CBF92000FFF7E2FF13BD10B505F010FD62
:101C300010BD10B504F0DAFB10BD10B505F02CFF97
:101C400010BD10B505F054FD10BD10B505F06EFEC9
:101C500010BD012070477047002210B5104B995CF1
:101C6000C9B2002917D11C2A14DC0220212498545F
:101C7000501C1C54901C193C1C54D01C19549B180B
:101C8000802290219BB252021343C905CB60CB68DE
:101C90001342FCD110BD995C01315218D2B2DEE77B
:101CA000FF090020002330B50E4AD15CC9B20029DB
:101CB00013D11C2B08DC02243525D4545C1C15558B
:101CC0009C1C03331055D1540222074B1A70333237
:101CD0005A7000229870DA7030BDD15C01315B1807
:101CE000DBB2E2E7FF090020880A002010B5104BA4
:101CF00000280AD0802290219BB252021343C905CA
:101D0000CB60CB681342FCD110BD042198789A783F
:101D10009CB28A439A708022902152021443C905D2
:101D2000C0B2CC60CC681442FCD19870ECE7C046DD
:101D3000880A0020012330B5234A0324117A85B094
:101D40000B4313720022214B1A60FFF7C3F96B4655
:101D5000033318701A78002A03D1013CE4B2002C36
:101D6000F3D11A78052A2BD91B780B2B10D001AC94
:101D70002000FEF7C1FB6278A37812011A43144BCE
:101D80001B681B070AD4112A02DD0120FFF7AEFFF2
:101D90000122104B1A70FEF7BCF9FEE790250E4C9D
:101DA000ED0528692368283B1B1A1B02002BEFDD79
:101DB000112A02DD0120FFF799FF23686B60E7E736
:101DC000012005B030BDC0460000204014000020B6
:101DD000C00000200C0000201800002070B5FFF7A4
:101DE000A9FF012817D1002314481549154C1A18CA
:101DF0008A4216D3002314481449154C1A188A42F3
:101E000013D30021134B144A934212D30021134BD6
:101E1000134A93420FD3134B83F3088800F0C4F99D
:101E200070BDE55804331560E1E7E55804331560EB
:101E3000E4E702C3E8E702C3EBE7C046980A0020E4
:101E4000FC0A0020F01405100800002034000020D7
:101E5000C4140510C0000020CC020020CC020020D9
:101E6000980A00200060002070B58AB003AC05001D
:101E70000E0019224349200000F05FFB6846FEF780
:101E80003BFB002D60D044233F4AA373117A433BB0
:101E90000B4313724C23E3722C3B23729233637413
:101EA000573B2375394B3A4A1B68190C914208D1AC
:101EB0007020E17D1B018143E175E17D03400B430F
:101EC000E375344B1B68190C914208D130206179BD
:101ED0001B0181436171617903400B4363712E4B98
:101EE0001B68190C914207D10321E27D0B408A4304
:101EF000E275E27D1343E3750422E37A6946934376
:101F0000E3726B465B78897893400B43112B06DDB7
:101F1000E37D1A43E275E07DC0B2FFF7C3FE802384
:101F200090222404240C5B021C43D205D460D168A7
:101F30001942FCD16B466A465B7892781B011343C9
:101F4000112B01DDFFF788FE144B1A8B002AFCD001
:101F500001221A8316329A8100221A61964207D012
:101F600090231021DB0518691A6942400A42FBD010
:101F7000002D02D015220A4B1A700A4A0A4B1A6029
:101F80000AB070BDEC12051000002040E8070010F8
:101F900055AA0000E4070010B00700100000104828
:101FA0000000C040CCBCECFC140000200822C02182
:101FB000F8B53F4B3F4D9A803F4A0904136AFF2012
:101FC0002B400B43C0211362136A09061B021B0A34
:101FD0000B431362C02292009446384B64469A58D1
:101FE000374E82433F38024360461A501A58C02089
:101FF0003240000202431A51C122FF2792009C582E
:10200000BC433F3F3C439C509C583F3734400443C3
:102010009C509C582C409C509C582402240A0C43F1
:102020009C500832944664469A58324002431A51F2
:102030001A59C0242A402404224364461A511A59CA
:102040001202120A0A431A51C422920094466446AC
:102050009A58324002431A511A59C0242A40240483
:10206000224364461A511A591202120A0A431A519B
:10207000C52292009C58BC432700C0242743C0249B
:102080009F509F5824043E40304398509858054034
:102090002C439C5098580002000A0143995001219A
:1020A0000800FFF7E1FE074A074B1A6262B6F8BD67
:1020B00000001040FFFF00FF00ED00E000E100E045
:1020C000FF00FFFF66000E000000904030B50625BF
:1020D00087B004AC2A000F49200000F02EFA22003D
:1020E0002900002000F023FB00F008FB0E236B44C6
:1020F000072201940093002103AB012000F06EFA47
:10210000FFF770F904000421012000F00CFB20000F
:1021100007B030BD05130510F0B5114D8DB02B780B
:10212000002B1AD00E2600240E4908AF32000631CB
:10213000380000F002FA0C49122003F031FB06943B
:1021400005940494039402970196009401232200BD
:102150002100200000F05AFA2C700DB0F0BDC046EE
:10216000FA0A002005130510E40A00207047000059
:10217000012210B5024B1A70FFF712F910BDC046CC
:10218000FA0A002010B5DAB2029BFFF785FA10BDFB
:1021900010B500F0ADFA10BD10B5022902D1100043
:1021A000FFF7BCFB10BD000070B5344C344B226807
:1021B0009A4209D1334D344B002134482B60FEF74D
:1021C000C5FE00232B602360314B324A19689142CF
:1021D00003D12E49096801312BD01968914203D1EE
:1021E0002A490968002924D01B68934221D1274B32
:1021F0001A68294B9A421CD1284B294A1B6812683D
:1022000082F308889847FEE7FFF760FF002800D0B8
:10221000FEE700F09DFAFFF77FFFFFF7CBF80128FC
:1022200001D1FFF7B1F8002203201100FEF7A8F951
:10223000EFE7FFF7BBFEFFF7C1FC0020FFF7DDFC77
:102240000120FFF7DAFC0220FFF7D7FC0120FFF79F
:10225000C6FCFEF73BF9E1204002FFF761FC2324B6
:1022600020000134A4B2FEF759FE7E2CF8D10D48AF
:1022700000F0B2FA0028C7D0FEE7C04604000020F4
:10228000554201B014000020CCBCECFC1018051025
:1022900010000410DDCCBBAAAA5555AA04180510DD
:1022A000001805101C13051010B5FFF767FC002877
:1022B00004D1FFF76BFC0323002800D00023180093
:1022C00010BD0000044B054A1B6810B5934202D0B4
:1022D0009B68984710BDFEE7100000200000041026
:1022E000044B054A1B6810B5934202D0DB6898473F
:1022F00010BDFEE71000002000000410044B054A4A
:102300001B6810B5934202D0DB6A984710BDFEE708
:102310001000002000000410044B054A1B6810B593
:10232000934202D09B6B984710BDFEE7100000203F
:1023300000000410054B064A1B6810B5934202D0FA
:10234000DB6B984710BDFEF7B9F8FBE710000020E3
:1023500000000410044B054A1B6810B5934202D0DC
:102360001B6C984710BDFEE7100000200000041011
:10237000044B054A1B6810B5934202D05B6C98472A
:1023800010BDFEE71000002000000410044B054AB9
:102390001B6810B5934202D01B6D984710BDFEE735
:1023A0001000002000000410044B054A1B6810B503
:1023B000934202D05B6D984710BDFEE710000020ED
:1023C00000000410054B064A1B6810B5934202D06A
:1023D0009B6D984710BD04F09FF8FBE710000020AC
:1023E00000000410044B054A1B6810B5934202D04C
:1023F000DB6D984710BDFEE71000002000000410C0
:10240000044B054A1B6810B5934202D05B6F984796
:1024100010BDFEE71000002000000410044B054A28
:102420001B6810B5934202D09B6F984710BDFEE722
:102430001000002000000410044B054A1B6810B572
:10244000934202D0DB6F984710BDFEE710000020DA
:1024500000000410054B064A1B6810B5934203D0D8
:102460000833DB6F984710BDFEE7C0461000002020
:1024700000000410054B064A1B6810B5934203D0B8
:1024800088331B68984710BDFEE7C0461000002047
:1024900000000410054B064A1B6810B5934203D098
:1024A0008C331B68984710BDFEE7C0461000002023
:1024B00000000410054B064A1B6810B5934203D078
:1024C00090331B68984710BDFEE7C04610000020FF
:1024D00000000410054B064A1B6810B5934203D058
:1024E00094331B68984710BDFEE7C04610000020DB
:1024F00000000410054B064A1B6810B5934203D038
:102500009C331B68984710BDFEE7C04610000020B2
:102510000000041010B500F019F810BD30B500240B
:10252000A24201D1002005E0035D651C0C5DA342C1
:1025300001D0181B30BD2C00F2E7002310B59A42E1
:1025400000D110BDCC5CC4540133F8E710B588420B
:1025500002D98B18984208D300239A4207D0CC5C4A
:10256000C4540133F9E78B5C8354013AFBD210BDAC
:1025700003008218934200D1704719700133F9E7C4
:10258000F0B5054600200F46079E059C174309D06D
:10259000202905D30127BF03BA4201D8914201D9AE
:1025A0004220F0BD194621430AD09C42F8D3094984
:1025B0008C4203D00849A41F8C42F1D2062BEFD3E2
:1025C000002D03D0022D01D0032DE9D1032EE7D831
:1025D000F0BD0000FFFF00007B0C00007CB5069DF5
:1025E000079C002805D0860705D1460703D40607B7
:1025F00001D442207CBD002903D0012901D0022949
:10260000F7D10095019400F0D7FA7CBDFFB587B0F3
:10261000109D159E169C01930295009407A807C86B
:102620001F463346FFF7ACFF00280ED113981499CC
:1026300003AA069443C21198129901900095029141
:1026400007A807C83B4600F015FC0BB0F0BD10B55D
:1026500007F068FC10BD70B51C4613460D46012CF2
:1026600003D0022C03D0422070BD022200E01022D1
:102670001946FDF778FF2C70002070BDF0B587B0CB
:102680001C460B46054600A9023101A80C9F0D9E71
:10269000FFF7E1FF00280ED1684605808482877528
:1026A000C6750E9901760F99417610998176694623
:1026B000119801F051F907B0F0BD70B586B014461D
:1026C0001D460A4603466946881C0A9EFFF7C3FF5B
:1026D000002804D1012C04D0022C02D0422006B0E4
:1026E00070BD23462A466946304601F07BFBF6E77B
:1026F00010B50022114601F025FC10BD10B501F007
:102700006FFE10BDF0B585B084460AA8F0C86846D3
:102710008581C68103A8019002970094604602F06B
:1027200037F905B0F0BD10B502F062FE10BD10B56E
:1027300002F080FE10BD3EB56C46069D2080618093
:10274000A280E3802581684603F096FA3EBD000032
:1027500010B503F039F91E4C472120684901411892
:10276000097B002909D1A0300079C00729D002F0E7
:10277000D1FF02F083FF0BF005FD00F003F92068A4
:10278000014640310A78C9798A4319D13E21095C52
:10279000002915D10F490A88120711D50922D2063E
:1027A0001269497A836AC900591809231B02C018A3
:1027B000806D801A00020012814201DA08F07AFE70
:1027C00010BD00F037FB01F0A5FC09F099FDD0E742
:1027D000E00A0020C000002010B5837F0122002401
:1027E00092024168082B03D94224914202D310E09F
:1027F000914201D242240CE0014634220648FDF702
:10280000B2FE00F07FF8002801DA482401E000F071
:1028100029F9204610BD0000CC0200203EB5174D1E
:1028200015482968827F0846A0310A730024603069
:10283000047644768476E122C276802202770222F0
:102840004277302008704C7002AA01A96846FDF753
:1028500079FE68460078A22201016846007A891C48
:1028600000020143684600790003014328681152C1
:10287000A03004713EBD0000CC020020E00A002020
:1028800070B503F085F808F081F907F071F80CF0E5
:1028900091FA03F0CDFA184C18492068184D4018E9
:1028A000811001202A68C0021018C1666168890879
:1028B0000167A168890841670AF026FE1D20296882
:1028C0008001228B08180287628B4287A28B428686
:1028D000628C82862046203002783B204001081816
:1028E00082750021017000F065FA02F0D5FE02F059
:1028F0005DFE0BF0CDFC70BDCC0200200000FCEFB3
:10290000E00A002070B50025ED43FFF7A2F9012889
:102910002ED0002318490322888BFF24401E104329
:102920008A7F4D3462438218088B28246043121832
:10293000488B3024604312180846203040782C24FD
:10294000604310180D4A181884184869A0420DD128
:102950000B4884420AD90D69FFF77BF9C1B22846BA
:1029600005F08AFD05F0B8FE401B251A284670BD0B
:10297000FF23B533CEE70000CC0200203919000058
:10298000580A0000F8B52C4F3C68206E5C34401C9F
:10299000002814D0002529480023C07B00283ED001
:1029A0000926F6062648002D1CD000210A460B46B3
:1029B0004169521C994204D1002902D004E001254A
:1029C000E9E7204B9A42F2D32160006960603069E8
:1029D000A1680002090E000A09060143A16000F087
:1029E00033F81DE03169A2680902090A150E08D002
:1029F000018BC90712D04169216000696060E372F0
:102A000010E0881A00027D2300121B03984205DDA6
:102A1000100E00060843A06000F016F8F8BD6360D1
:102A2000002DFBD003CC08F075FCFA2008F062FC06
:102A300039688862F8BD0000E00A0020EC0200203E
:102A40000000104888130000044900200861044871
:102A5000012100686030C17170470000000010481B
:102A6000E00A0020F8B506263248402505603248C5
:102A700000270780A9050920C00641602F4A916000
:102A8000016801602E48032104694269601E084301
:102A90003946401CFDF76BFDFFF7DBF8C1B220465D
:102AA00005F0EAFC05F018FE05F022FE04F0E0FC5B
:102AB000244917208881244C206842190146577008
:102AC000FA2088622820107002F021FE012805D12A
:102AD0002068102240300178114301700BF037FB61
:102AE000012805D12068802240300178114301700F
:102AF0002068014640300278324302700020C04313
:102B00000866FEF7D0FAFFF789FEFFF7B9FE2068E6
:102B100001212030017707214177012002F068FC74
:102B200004F00AFDFFF72EFF0248803805600221FD
:102B30000160F8BD80E100E0C000002040000048D6
:102B4000CC02002000001048E00A002038B5184AE6
:102B500014682246BA32AE34A378DD0701D00129C9
:102B60000AD05B070CD501290AD0217949070BD57A
:102B7000E17A002905D007E0E07880210843E07081
:102B800038BD0121E172508020794106090FF7D04C
:102B90007821084069460870002048706A46022182
:102BA000422000F0A9FA207987210840207138BD21
:102BB000E00A002070470000FFB50C4678A103C969
:102BC00095B001910090002108A801730321C9026A
:102BD00068464186012108A8734E0174356817467E
:102BE000AE350EF049F9002808D170493068401818
:102BF00007F0A4F9A878002802D0462019B0F0BD4B
:102C00000BA8159900F052F90028F7D1072010A958
:102C10000871012C05D0022C0AD0002C0ED04220C5
:102C2000ECE708A8017B1020014308A8017305E028
:102C300011A90BA800F049F90028DFD110A80279EA
:102C400001230CA9284601F0CDF800287ED10222EC
:102C500029461898FDF787FC298868468181152147
:102C6000490201820784012686734E2108A88170DB
:102C70000024C470067107214171867103A902A85E
:102C800000F06AFE002861D1022202A91E98FDF719
:102C90006AFC082F02D26846478502E00820694690
:102CA000488569460C850B4628880AAA098901F0DF
:102CB0003BFE00286DD13E49684601820227078409
:102CC00008A8847103A902A800F046FE002860D17C
:102CD000022202A91F98FDF746FC68460470694667
:102CE00044704F850B4628880AAA098901F01CFE0A
:102CF00000284ED108A8007BC00723D02C49684685
:102D0000C91C01820821018408A88770047103A9E5
:102D100002A800F021FE00283BD1FF216846C171C6
:102D20008171C17081704170017044710471694694
:102D3000082048850B4628880AAA098901F0F4FD75
:102D4000002826D108A8007B800600E021E022D5DB
:102D50002988684681811649A531018206848673D7
:102D600008A88770C470047107214171847103A998
:102D700002A800F0F1FD00280BD169460E700C8509
:102D80004E850B4628880AAA098901F0CDFD002846
:102D900001D0472032E708A8007BA87000202DE76B
:102DA000626C75656E726721E00A0020DE06000025
:102DB000012A0000034800210068AE30C170817014
:102DC00070470000E00A002038B502461748012489
:102DD0000068AE30022A1FD0052A03D0072A07D088
:102DE0000B2A20D1084609794088FFF7AFFE1AE088
:102DF00000790024020600D50124820703D1C2060F
:102E000001D480060FD5084600216A461170694634
:102E100000F05EF8044606E08178490703D50179A1
:102E2000FB2211400171204638BD0000E00A00205D
:102E3000704700001FB50E480468AE34E078010604
:102E400012D5A178C9070CD0800708D5042069469F
:102E50000873684602F094FE022000F025F9002075
:102E6000E0704006400EE07000F02EF81FBD00003C
:102E7000E00A0020F0B58DB00C4616A9E0C900218B
:102E8000089109910A910B911599049105A9E0C146
:102E900012A962C900930191134601460396029557
:102EA0002246012000F046F80DB0F0BD0A07920F4F
:102EB00001D0422070478A07FBD002788907890F2A
:102EC0000A4302700020704770474220704700009C
:102ED00030B5174B047A1B68C268AE331B799D0668
:102EE000AD0F04D10078042801D000200BE00120B0
:102EF00030BD401CC0B2155C012D08D01518203D16
:102F0000ED7F2818C0B2A042F3D3087830BD401C32
:102F1000DD070124C0B2002D02D0105CC00703E021
:102F20009B07F2D5105C80070028EED00C70ECE710
:102F3000E00A0020FFB595B00E46054620210CA8FA
:102F4000FEF735FE00200490564800270468681EEE
:102F5000AE34042802D8A078C0070BD0062D02D0CA
:102F6000002D0AD002E0A078800703D5E078400663
:102F7000800E0AD0462019B0F0BDA0788007F9D0A5
:102F8000E0784006800EF5D00FE0002D0DD0012D29
:102F900020D0022D28D0062D33D0032D33D0042D80
:102FA00037D0002E3BD04220E5E7002007F068FC38
:102FB0000028E0D1E078800708D50420694608732E
:102FC000684602F0DDFD022000F06EF80120E0709E
:102FD0000020D0E7012EE6D0042EE4D01F98002870
:102FE000E1D10627042008E0012EDCD0042EDAD03F
:102FF0001F980028D7D105270220E07001200490F7
:1030000010E040200DE0022E01D0032ECBD108208D
:1030100007E0012E01D0042EC5D1102001E00427C5
:103020002020E07000230BAA19461E9806F0E4FD4C
:10303000030002D000F0E0F832E01022002107A8DF
:10304000FDF795FA07A86C46279B269A1F990FC48F
:103050002B463046189A179900F088F80300E9D1FA
:1030600008A8017BC170259803AC049B289A299974
:103070000FC422AB07CB02920091019039460CA8F5
:10308000209B219A00F0C2F80300D3D107A807F0D3
:103090000BFF0300CED1012007F0F2FB0300C9D1E2
:1030A000184668E7E00A002010B50446C10611483A
:1030B000006803D51522BF210C4006E01B218901C1
:1030C0004118497EC90710D012222107890E08181D
:1030D0001121C9014018C06F002321460BF022F9CD
:1030E000010004D020460BF009F9002010BD072094
:1030F00010BD0000E00A0020F8B5891ECDB20646DA
:10310000A81C03210843401C830817481746006881
:10311000F10603D51C22BF210E4008E01B218901C6
:103120004118497E090601D40020F8BD1922310753
:10313000890E08181121C9014018C06F31460BF0E3
:10314000F1F804000ED03978217179786171A57198
:103150002A46B91CE01DFDF706FA214630460BF061
:10316000CDF8E1E70720F8BDE00A0020F8B5204BD4
:10317000204D1B6801265B19069CB60300930028AE
:1031800014D0042812D0022813D0032811D0062509
:103190002B46012810D00F4617430DD0914203D87B
:1031A000202901D3B2420AD94220F8BD302560233C
:1031B000EFE7A025F023ECE72580638001E0218084
:1031C000628020710798A0710898207209980028E1
:1031D00005D00146204606220930FDF7C4F9072034
:1031E000607100982030807B60710020F8BD000085
:1031F000E00A002008090000034881220068A0308E
:10320000417C114041747047E00A0020F8B5054642
:103210003D481E460068079F0024AE301346002933
:1032200005D002222A7001226A70A9700324002EA0
:1032300010D080788006800F0CD13019401C1F28D8
:1032400052D82E55641C281932461946FDF78BF9C1
:10325000A019C4B2002F0DD03819401C1F2843D824
:103260002F55641CE4B228193A460699FDF77BF9FC
:10327000E019C4B26846008C00281BD06846808CD8
:10328000002817D0601D1F282ED805202855641C43
:10329000E0B212212954401CC4B228190646022269
:1032A00008A9FDF760F9B01C022209A9FDF75BF936
:1032B000241DE4B20C98002810D0E01C1F2813D85D
:1032C00002202855641CE0B20A212954401CC0B2D7
:1032D0002918401CC4B2084607F0D2FF0B980028FA
:1032E0000CD000191F2801D94220F8BD28190B9ACB
:1032F0000A99FDF738F90B982018C4B221462846E0
:1033000007F02EFDF8BD0000E00A002010B50D49C1
:1033100000050B680521490259188A690021000D32
:10332000A0331B7B0AE04C01145B2405240D84426E
:1033300002D14801801810BD491CC9B28B42F2D895
:10334000002010BDE00A0020F8B5069C1F46154677
:103350000646002C13D0A06802220D30FDF703F9B9
:10336000E81E82B23B460721204606F08FFBE5802F
:10337000A068012E05D01D2101730020F8BD472053
:10338000F8BD1B21F8E70000F1B5FFB08BB00124B8
:10339000600205900027CC4807970168E320C00031
:1033A000081803908A98C74D0005000D0AAA05A9C0
:1033B00008F01DFD0690002872D104260AA8059980
:1033C0004218203AD27F0B2A23D0002600200490F6
:1033D0000AA88119022201A80291FDF7C4F86846E3
:1033E000818809AB08AA039801F098FC012817D03E
:1033F00002287DD068468088854200D305468442F5
:1034000000D92046044602988078012871D01336EE
:103410003BE1491E761E36040591360CCFD1D5E727
:1034200008980090002F79D1009902222831029843
:10343000FDF7A1F800281ED100982030017B0298EA
:103440008078814217D1012808D100980299022280
:103450000830C91CFDF78FF8002815D00298807835
:10346000022808D10098029910220830C91CFDF7E3
:1034700082F8002808D00098008DA84200D80546A0
:10348000A04200D22046044602990AA88978012960
:1034900007D013360599B6B28E4204D3012707E050
:1034A00005E1761DF6E78119022201A8FDF75BF818
:1034B0000399009808318E462EE084466946026AD8
:1034C0008B8820300DE0918B994203D3012F7DD161
:1034D00099427BD9A94200D80D46A14200D30C469F
:1034E00012688242EFD10498002817D1604601E0AB
:1034F00015E0BFE0006870450ED0018D994203D3FE
:10350000012F09D1994207D98D4200D30D468C4233
:1035100000D80C46012F59D17045CED1BAE0089899
:103520000090002F72D1009902221C310298FDF701
:1035300022F800281ED100982030C17802988078A7
:10354000814217D1012808D100980299022208303F
:10355000C91CFDF710F800281AD0029880780228BC
:1035600008D10098029910220830C91CFDF703F811
:1035700000280DD00098808BA84200D80546A042B4
:1035800000D22046044602988078012826D003E025
:1035900002988078012805D013360798B6B2012822
:1035A0001ED021E0009849490089884216D18A98A6
:1035B000FFF7ACFE0146009800F08AF80099098CEC
:1035C0004843009989694018022200E038E00299D6
:1035D000491DFCF7C8FF01200790D4E7761DDCE702
:1035E000B61C0020B6B207900598864201D3012789
:1035F00005E00AA88119022201A8FCF7B4FF039A8A
:103600000099083209980968944630E01AE0864625
:103610006A46938820300DE08A8B9A4203D3012FAB
:103620000ED19A420CD9AA4200D81546A24200D324
:10363000144609688142EFD1049800282AD102E09B
:103640000120049026E07046006860450FD0028D8E
:10365000016A9A4203D3012F09D19A4207D99542B0
:1036600000D31546944200D81446012FE8D1604596
:10367000CDD10FE00298C078022805D102980079D8
:10368000292801D1B61CB6B2761D0598B6B286427D
:1036900000D301270598811B042902D3864200D25A
:1036A00094E604980028FBD1A54203D906987FB080
:1036B0000CB0F0BD224629468A9801F073FB0690B3
:1036C000F5E70000FFFF0000E00A002002290000EB
:1036D00030B5024623239B5C0020012B1AD11289AE
:1036E0000D4B9A4216D10D4A052312685B02D3187E
:1036F000A0329B69127B0AE045010C885D5B2405C2
:103700002D05240D2D0DAC4204D0401CC0B28242C8
:10371000F2D8002030BD000002290000E00A00209D
:10372000830810B50A4800210268052040021018DD
:10373000A0328069127B07E04C01045B002C01D0B1
:10374000994204D0491CC9B28A42F5D8002010BD64
:10375000E00A002010B50446022000F033F80D48BE
:1037600000210268052040021018A0328369107BF6
:1037700005E04A019A5A002A04D0491CC9B288427D
:10378000F7D810BD48011C52C018026904210A4331
:10379000026110BDE00A002010B504460146042075
:1037A00002F068FC002809D00548E3210068C90040
:1037B000401821463C300BF017FC432010BD0000A0
:1037C000E00A002004490A683B21490151180A789F
:1037D00002430A7070470000E00A002000B511386B
:1037E000C0B2FFF79DFF002804D0012201695205F5
:1037F0001143016100BD0000F3B597B00D88488802
:103800000590081D1DC80DAE1DC68C8ACE8A087E87
:103810001390C8692031019008780090487804908E
:1038200088780390C87802900F7900F0BFFD0028D7
:1038300017D10120400284425FD8B4425DD8002FE6
:1038400001D1B44259D114A9284601F095FA0028B3
:1038500006D115AA1499059801F07EFA002802D025
:10386000602019B0F0BD149D11A92846183006F04B
:10387000B9FB10A88088002810D0284612A9203053
:1038800006F0B0FB10A8838800892A8D1818696A91
:1038900010188A8B904203D16120E2E74820E0E7CC
:1038A00015982C4B02899A4227D12322125C012AB7
:1038B00023D1006800681690139801281FD168462C
:1038C000808E29221202801A030001F04AFD0604AC
:1038D000180404070A18022C0FD110E0072C0CD191
:1038E0000DE0042C09D3E00707D1012F07D1A64230
:1038F00003D3042E01D3F00701D04220B1E7029890
:103900000B90039B049A0A9309920098019A0C97D2
:1039100008900696059407920DA81DC8019002A86C
:103920001CC013980B4600902A461699179800F071
:10393000AFF9002895D168460649808EFF3188424C
:1039400005D01798018800200A4601F02BFA0020C4
:1039500087E7000003280000F3B5A5B008881A9097
:1039600088780C4611901022091D13A8FEF717F94C
:10397000A08A1090A17D68460172E07D0F90207EA4
:103980002090677EA07E1F90002006460146129080
:1039900020A801810F20BB4C2390E3212068C9009F
:1039A0004018199000F002FD00280BD10121109859
:1039B000490288425FD821A91A9801F0DDF9002850
:1039C00002D0602027B0F0BD2198179006F0AEFA23
:1039D0001A9988420CD102A801901698009013AD54
:1039E0000ECD119806F066FA002801D06320E9E7B1
:1039F0006846017A8806800F05D001201290206861
:103A0000A030007B4600C80703D01298401CB61CAB
:103A10001290080603D51298401CB61C12901798F5
:103A20000DA918301D9006F0DDFA6846129C808EB4
:103A3000A41CA04237D317980EA92030019006F09D
:103A4000D1FA6846018F00290DD01798179A6B4656
:103A5000406A9B8E128D5918808B5118081AA0420B
:103A600001D26120AEE71798846911982568012872
:103A700003D0022803D04220A4E7052000E0132051
:103A8000E0832A4639460F9806F062FA422899D018
:103A9000199FE28B4037788B398B411A1098101898
:103AA0008019814201DA48208CE70EA9019806F0BE
:103AB00099FA6846008F0028179802D0406A808BD8
:103AC00000E0008D2599401C088025980121008880
:103AD000A083259802220088401CA8836A48208180
:103AE000204620301790C170002181708171199893
:103AF000398B406D40186946A061097A0170A06950
:103B000029461C31401CFCF72EFD11980128A069A4
:103B10007ED0102213A9C01CFCF725FD28461022D8
:103B200013A90830FCF71FFD388B133038832E465D
:103B300020361198F0701098E8831F98B070109894
:103B40002084109828841998398B406D4018A861FA
:103B50000021109AFCF70BFD398B10980818388358
:103B60001799012008711799002048713071684633
:103B7000007A810701D5012131710107022700294F
:103B800002DA317939433171410703D531790422A1
:103B900011433171400603D5307908210843307153
:103BA0000F9870712098B07121461D9806F043FA65
:103BB0002146019806F020FA29461D9806F03BFAA6
:103BC0002946019806F018FA1298002841D0684654
:103BD0001A998181A18BC18107844784012408A897
:103BE000047122A80A9008A88473239941730F993D
:103BF0003820014008A801730721C173002505740E
:103C00006846007AC00708D020486946088200E06C
:103C10002AE003A924A8FFF7EFFD6846007A800692
:103C2000800F07D019486946401E088203A924A8BE
:103C3000FFF7E2FD6846007A00060AD5292109024D
:103C40006846018208A84473057303A924A8FFF7F6
:103C5000D3FD259801881298401C081882B20020D4
:103C600001F0A0F80020ADE6022213A9C01CFCF769
:103C70007AFC2846022213A90830FCF774FC388B22
:103C8000401D53E7E00A002003280000032900003C
:103C9000FFB55248E322006887B0D200821806922E
:103CA00010AA109B0126169F9288012B04D14C4B21
:103CB0009A4201D1A030067B069D34464035688B80
:103CC0002B8B7C43C31A099820300390A34222DA3D
:103CD00048200BB0F0BD2320405C012819D1088991
:103CE0006C46208098420CD03D4C641EA04208D007
:103CF000641CA04205D0641CA04202D0A41CA042B7
:103D000007D1374CFF3CA04201D0904201D1622044
:103D1000DFE7096801E029231B0203988142DAD119
:103D200009981B9984691898224606F011F94228CF
:103D3000CFD01C98012804D11598874201D2422087
:103D4000C7E71598E083204620301C9905908170C4
:103D500027840A98808B401CA0831098012814D0D7
:103D60002046102211A90830FCF7FDFB0599109898
:103D7000C8700698298B406D4018A061298B384681
:103D800070430818288300250FE011A80FC80834D5
:103D90000FC4183CEAE72846A16978430818159A29
:103DA0001799FCF7E0FB6D1CEDB2B542F3D3059912
:103DB0001898487105991998087105991A98887189
:103DC00009982146183006F036F92146039806F086
:103DD00013F90798A18B018000207AE7E00A002000
:103DE00002290000FFB58FB014460E78102205A8F6
:103DF000891CFDF7D4FE5048E3210068C90045182E
:103E000000F0D4FA00281ED1002C57D0012E09D181
:103E10006846808A4949884204D12846A968083002
:103E200081424BD12846103029690390814209D044
:103E30000AA9284606F0D6F86846018D601E0D9046
:103E4000814202D2482013B0F0BD284608300CA9A8
:103E5000049006F0C7F86846008E002814D0EF687A
:103E60000AA93846183006F0BDF8384620300CA9AB
:103E700006F0B8F86846398D008D09186846008E3E
:103E8000401C081887B200E0012701200004C01B75
:103E9000A04201D26120D6E72C69286801901298CF
:103EA000012802D0022803D008E00520C00200E06B
:103EB00023486085012E03D0022E05D04220C2E7A0
:103EC00020460830022202E020460830102205A9D0
:103ED000FCF749FB204631462030064601730F9817
:103EE000214607802785039806F0A5F82146049807
:103EF00006F082F827461837E7616662A7612662F6
:103F00000D9884B20BE02846019906F094F83846E3
:103F1000019906F071F82868641EA4B20190002C83
:103F2000F1D10F9801880D98081882B2002000F096
:103F300039FF002087E70000E00A00200118000098
:103F400001280000F7B5064639480F460068E3210E
:103F5000C900441882B03046FFF7D8F9050064D094
:103F60002046243000900BF055F800285DD12869D8
:103F700000035AD500980BF007F8044653E0A088D8
:103F8000B0424FD120223146002005F0CFFC060080
:103F90001CD0A068002F017B427B19D033460498C7
:103FA0000BF096FB002001212A69C9048A432A618B
:103FB00000282ED0692806D03046FFF7EDFB29698E
:103FC000102001432961002005B0F0BD6420FBE70B
:103FD0000A2906D00C290AD00E290ED0082912D0A1
:103FE00023E03246214628460CF028FCDBE7324627
:103FF000214628460CF05EF8D5E732462146284691
:104000000CF052FBCFE73246214628460CF0E4F98B
:10401000C9E7214600980BF004F80121204605F07D
:10402000E1FCC9E72468002CA9D14120CCE70000BD
:10403000E00A002002460948E3210068C90041184F
:104040008868083103E0038D934202D200688842F9
:10405000F9D1884200D1002070470000E00A00201A
:10406000034610B50F48E3210068C900411888686D
:10407000083103E0148D9C4203D8104602688A423E
:10408000F8D18A420CD1018D994209D20146026AC7
:1040900020318A4203D0416A898B994200D20020A4
:1040A00010BD0000E00A0020024610B50B481205C2
:1040B000016805204002081883690020120DA03114
:1040C000097B07E044011C5B2405240D944203D0C6
:1040D000401CC0B28142F5D810BD0000E00A0020AB
:1040E000F7B50546174601980AF04EFF2E0504461F
:1040F000360D0CE0A0882568B04207D12146019812
:104100000AF08FFF3946204605F06CFC2C46002C47
:10411000F0D1FEBDF0B58BB0002064490290E320E1
:104120000A68C000141872B610464030C5790223E0
:104130001D43C57162B625464035287AC0077DD03B
:10414000052040021018002687694AE071017A5A5A
:10415000002A44D0C919069109694A021FD48A026B
:1041600027D5022104910699012309880905090D23
:1041700003911B2189014118C97E89070FD511219F
:10418000C901083040182322C06F02210AF0CAF882
:10419000010004D0039A8A8004980AF0AFF80698C8
:1041A00000880090069800F083F8009809F09DF9C7
:1041B00015E0480713D5069800880005000D09F0A2
:1041C00070F9002805D1069800880005000DFFF75A
:1041D000DBF8069904200969814306980161761C81
:1041E000F6B23248AC210068095CB142AED800F0AA
:1041F00001FF2046243006460AF00CFF012802D0B9
:10420000012000F0F9FD204618300AF003FF0128D4
:1042100002D0002000F0F0FD3C3420460AF0FAFE07
:1042200001280FD002A920460AF01DFF04200299A0
:1042300001F020FF0028F0D0204600E034E0029991
:104240000AF0BFFE287A00062ED530460AF0E2FEBC
:10425000012829D1002005F045FBA98B233149090C
:10426000491CC9B2FCF700F800281DD00F4D0446C8
:1042700028681121C901083040184226012338223C
:10428000C06F31460AF04EF801000DD000228A803E
:10429000CC8030460AF032F83B212A684901511897
:1042A0000A78802082430A700BB0F0BDE00A00203B
:1042B000F0B504463C48E3210068C9004518218A4E
:1042C00085B089041AD5022104911B218901411866
:1042D000497F412627880123C9070FD01121C90131
:1042E000083040183122C06F02210AF01BF801008B
:1042F00004D08F808E7104980AF000F82946208837
:1043000001221831FFF7ECFE2946208801223031C6
:10431000FFF7E6FE2946208801222431FFF7E0FE60
:104320002946208800223C31FFF7DAFE208800056C
:10433000000DFFF7B9FE850029461131684601736B
:1043400001F01EFC294612316846017301F018FC89
:10435000294613316846017301F012FC6846143592
:10436000057301F00DFC208800F028FA2088010573
:104370000D48090D0268052040021018828F9142F5
:1043800001D100218187E069002802D0012105F0D8
:1043900029FB202200212046A568FCF7E8F8172019
:1043A000A560608005B0F0BDE00A002010B50B48A4
:1043B000E3210068C90044184034207AC00709D0BE
:1043C000002005F08FFA217A890701D5002803D053
:1043D000002010BD472010BD642010BDE00A002061
:1043E000F0B55FA099B000685E491590E3220868B7
:1043F000D20084180522520282189269254640355F
:1044000014922A7AD20702D0622019B0F0BDAA8B8A
:1044100001235B029A4201D9AB8303E0172A01D240
:104420001722AA83149AA0301392067B0DE0761E01
:10443000F6B2139871010F18B8680F903846202211
:104440000021FCF794F80F98B860002EEFD12046B9
:104450000830E0606460A060246008301390606100
:104460002061FF22002108300AF0A3FD2046FF2230
:10447000002124300AF09DFD2046AA7F0021303023
:104480000AF097FD2046FF2200213C300AF091FD02
:1044900000222A7210461721324B05E0149E470174
:1044A000BE19401C7180C0B21E68A036367B8642A1
:1044B000F4D8002028832F8C688C0026149008E004
:1044C0002820E16C70430918204605F095FD761C04
:1044D000B6B2BE42F4D3002608E03020216D70430E
:1044E0000918139805F088FD761CB6B21498864218
:1044F000F3D30120FFF766F90124684604701A49D6
:1045000041802346042269460CA8FFF76BFC002873
:1045100022D16846018E81821449018304260685D2
:104520008475202108A881720024C47204730721B5
:104530004173847305A90DA8FFF70EFA00280BD16B
:10454000684604874687818E15AB0EAA008E00F060
:10455000EBF9002800D158E700202872472054E7E3
:104560000000FFFFE00A002001180000052A0000FB
:10457000F8B504467D480E460068E321C900471897
:104580004820C05DC0077BD0B088FEF7BFFE05465F
:10459000012C02D0002C75D0E6E0002D0CD028694B
:1045A00041074AD4B268F188147B0029F4D062062E
:1045B0000CD56888884201D20121B2E0D22C01D00A
:1045C000522CF9D13846314618303FE0A106890E09
:1045D0001E293ED81E2C21D101071FD50821884352
:1045E00028612988012005F0EFFC0121304605F003
:1045F000F9F95E4811210068C901083040184224C9
:104600002D8801233922C06F214609F08BFE01005D
:1046100003D08D80204609F071FEA5E0E1070AD0A5
:104620001D2C10D01B2C0ED0410529D4012189024C
:104630000843EE6192E0C00601D54520F8BD298807
:10464000002005F0AFFC3846314624300AF0CCFC9F
:104650008AE029882022002005F068F905000FD0A3
:104660000121304605F0BEF92B46002221460620E6
:104670000BF02EF82846FFF78FF875E000E001E018
:104680004120F8BDB068047B1D2C3AD01B2C41D0D2
:104690000021304605F0A6F9032C46D0052C44D065
:1046A000072C42D0092C40D00B2C3ED00D2C3CD0F6
:1046B0000F2C3AD0112C38D0132C36D0172C34D0E4
:1046C000192C32D0012C30D0022C35D0042C33D010
:1046D000062C31D0082C2FD00A2C2DD00C2C2BD00E
:1046E0000E2C29D0102C27D0122C25D0162C23D0FC
:1046F000182C21D0522C1FD0D22C1DD01E2C2FD0E4
:1047000032E0002D03D02988012005F04BFC314612
:10471000022001E03146012000F05EFD002823D098
:104720000021304605F05EF91EE029691020814322
:1047300029612988002015E02869402188432861E3
:10474000010511D5FF210131084328612988022084
:1047500005F028FC01212869C9028843286103E08B
:104760002988032005F030FC0020F8BDE00A002075
:1047700010B5114AE3231268DB00D2184032127AD6
:10478000D20706D002280AD0052804D00B2810D161
:1047900001E0412010BD4888FEF7DCFF09E04888B1
:1047A000FEF7B4FD002804D00122016992051143EF
:1047B0000161002010BD0000E00A0020F1B5FFB04B
:1047C00085B0472001900020694608805348E321C6
:1047D0000068C90047188498FEF798FD02900028E9
:1047E00074D0B96808374FE0684600880D4604ACBD
:1047F00020186B460222283100F0A4FD684600888C
:10480000294620186B4601222C3100F09BFD2E46D4
:104810002036307B69460128098804A809D0401851
:104820006B4610222946083100F08CFD01902C6A5D
:1048300027E040186B460222F4E76946098804A87D
:10484000401821466B4602221C3100F07BFD694670
:10485000098804A8401821466B460122233100F044
:1048600071FD2320005D69460128098804A830D025
:10487000401821466B461022083100F063FD01907C
:104880002468B442D9D12968B942ADD10198002831
:104890001CD16846008881070AD0214A011D1140B9
:1048A0006A4611800A1A04A908180B21FBF75FFE5B
:1048B0000298008808F0F5FD002807D18498694621
:1048C0000005000D04AA098807F0C2F97FB006B000
:1048D000F0BD401821466B460222083100F032FD3F
:1048E000019020890F498842CAD120460299FEF7DB
:1048F000EFFE4000A16903906A460918128804A8D7
:1049000080186B46022200F01DFD0190A1690398FA
:10491000022208180021FBF72AFEB1E7E00A002076
:10492000FCFF000002290000F0B5074617480E46BC
:1049300000683B2149014018007885B01D461446A7
:10494000C00706D003A9384600F016FA00280AD19D
:1049500002E0472005B0F0BD04AA3046039900F0FC
:10496000FBF9002801D06020F4E7049922886088D0
:104970000968002A00D0088C32466E4631C60323EF
:104980003946002000F004F8E4E70000E00A0020C7
:10499000FFB5002099B0239A0B9012900546149011
:1049A000064615901C46DB480B460068E321C9000B
:1049B000411803910021229F089109915188069185
:1049C00011880A913B21490140180078C00706D0A0
:1049D0000FA9184600F0D0F900280AD102E04720BC
:1049E0001DB0F0BD10AA0F991B9800F0B5F9002872
:1049F00001D06020F4E71998002803D0600701D5A2
:104A0000012000E000201390A007800F1C90109858
:104A100017902030C078012840D11798BE4B0189EB
:104A20009942F9D11798069904680A98228C41187E
:104A3000914233D82046203016908078012816D035
:104A4000E08B04901798806900788006800F7DD0F5
:104A5000039840301890007A800777D51C9800287A
:104A6000F5D0AD4F0F99FF372031206814E0BA42DE
:104A700014D3B942DDD80497E4E70389A64A9342E8
:104A800003D12322125C012A08D0BB4203D1232286
:104A9000125C012A03D000688842EED134E105900F
:104AA0000028FBD09B4805210268490251188969FA
:104AB0000027009162E0780100990390085A0105EF
:104AC0005AD01999002901D0884255D105997A0008
:104AD0008B69511C595C9A5C0902891889B20D9145
:104AE000890749D0022205990AF070FE002804D0F7
:104AF0001998002840D0652072E7002008A9C85501
:104B00001C98C00718D0179880690078C00613D584
:104B10000D98C00710D00120C8550543009A03988E
:104B200080184088159A904206D91590009A0398EB
:104B3000105A0005000D14901C9880071CD517987A
:104B400080690078800617D50D9800E084E0800722
:104B500012D50220CA5D05430243CA550099039845
:104B6000401840881599884206D9159000990398F5
:104B7000085A0005000D14907F1CFFB265480068BC
:104B8000A030037BBB4296D8002D65D01898007AE0
:104B900000065FD45F48016805204002081881695B
:104BA00000201BE042018E5A360515D0AE070BD50A
:104BB00056183669B7070DD408AF3F5CBF0703D559
:104BC000360701D546200BE7EE0705D05218127CB8
:104BD000D20701D0432003E7401CC0B28342E1D892
:104BE0001598C01E86B20498864200D90646A807CA
:104BF0000FD520220020149904F098FE129000286E
:104C00007DD0F01C82B20021129800F0EDF800284F
:104C100011D1E80720D020220020149904F086FE4C
:104C20000B90002807D0F01C82B200210B9800F0F6
:104C3000DBF8002810D08020FEF7C4FD1298002871
:104C400002D0002104F0CEFE0B98002802D00021F3
:104C500004F0C8FE6420C3E6A1690A98069A081801
:104C60002499FBF780FC16988078012801D10498DC
:104C7000E083002D46D0274B052019684002081814
:104C80008169002008AA0CE04301CF5A3F0506D0F5
:104C90005F18BC463B69175C3B4367463B61401C61
:104CA000C0B21C4B1B68A0331B7B8342ECD8A80707
:104CB0000DD512980090F01C82B221461C310220C2
:104CC000A369FEF741FB0220129900F085FAE8077C
:104CD00018D00B980090F61C2146B2B21C3101206E
:104CE000A369FEF731FB1398002805D00B988021AB
:104CF000C07C08430B99C87401200B9900E005E0C3
:104D000000F06AFA00206BE6422069E68020FEF798
:104D100059FD9FE7E00A002003280000F0B58468F1
:104D2000083015E0258D8D4203D1146018600120F4
:104D3000F0BD26461C602036256A06E0AF8B8F4208
:104D400002D102201560F0BD2D68B542F6D124686D
:104D50008442E7D10020F0BD10B50B6A203106E097
:104D60009C8B844202D10020136010BD1B688B42D3
:104D7000F6D1412010BD000010B5094AE3231268A6
:104D8000DB00D2189368083206E01C8D844202D101
:104D900000200B6010BD1B689342F6D1412010BD6E
:104DA000E00A002030B50F4BE3251B68ED005B19CE
:104DB000403304461B7A412085B09B0710D56B46D3
:104DC0009981DA81002018820420588203AA04A95C
:104DD0006D4607C502231A4601212046FFF7D8FD7C
:104DE00005B030BDE00A002010B5121D806892B2F7
:104DF00004F016FE10BD0000F0B57D49E3220968FD
:104E0000D2008E1885B0012806D0304618300090A8
:104E10000AF0BAF80446E7E03046243003900AF07E
:104E2000B3F80546BCE0A8682F68007B0290A8880C
:104E3000FEF76CFA040073D021882022002004F0D1
:104E400075FD019000286CD0E8886188884204D9FB
:104E500000220420019B029920E046200090029845
:104E60000E284ED00ADC801E030000F07AFA0B1CDC
:104E700013221329132F13381341130016285AD065
:104E800004DC102846D0122804D14BE018285BD04F
:104E90001D2874D000220620019B02990AF018FCFC
:104EA000002000905CE029462046019A0AF01CFD93
:104EB0004FE02A4621463046019B0AF043FF48E076
:104EC00029462046019A0AF047FE42E02069000385
:104ED00055D429462046019A0BF07EFA39E0206924
:104EE00000034CD429462046019A0BF0A7FC30E081
:104EF0002069000343D429462046019A0BF0DAF8D2
:104F000027E0206900033AD429462046019A0BF095
:104F1000CBFB1EE029462046019A0BF06BF918E006
:104F200035E040E02069800329D429462046019AD3
:104F30000BF0AFFD0DE02069800320D42946204608
:104F4000019A0AF0FBFF04E029462046019A0AF084
:104F500025FD0090452812D0692810D046280ED093
:104F60000121206909068843102108432061019826
:104F7000FEF712FC0098002809D010E0FFE700219E
:104F8000019804F02FFD009845280CD0F2E729463F
:104F900003980AF046F80121284604F023FD3D4617
:104FA000002D00D03FE705B0F0BDA0682668077B64
:104FB000A088FEF7ABF905000DD0522F01D0D22FFB
:104FC00006D1286940030ED4214628460BF0CBFCBD
:104FD0002869400307D4214600980AF022F80121ED
:104FE000204604F0FFFC3446002CDED1DBE7000055
:104FF000E00A0020F0B56348E3220168D2008DB0DA
:105000008A180C9205225202891800278D69AFE098
:105010007E01A85B002872D070190A90C069002830
:1050200066D00A990969CA0532D54A0530D5806823
:105030000124A402007BA1430A9A1D28116154D0C7
:105040001B2852D00A9A927B824202D0012802D0B9
:105050004BE0012806D10A98C0698068407B401C5B
:1050600082424CD1C80509D5A95B022004F0ACFFEF
:105070000A98FF2201690132914301610A9881690E
:105080008847452831D10A980169214301612CE004
:10509000012104F0A7FC0A990020C8610A980121A7
:1050A000026989028A43026142200190022008902D
:1050B00005900A98069020681121C901083040180F
:1050C00001232122C06F019909F02CF904000CD0B2
:1050D0000899217105996171A01D059A0699FBF740
:1050E00042FA2146019809F009F9A85B00283DD051
:1050F0000C982430049009F047FF044634E035E072
:1051000020680890A068A388017BA85B0205120DA7
:105110008446934216D11D2914D10A980069864607
:10512000C0040FD40122120371460A981143016191
:10513000A95B032004F036FFA95B2246022000F0A1
:1051400071F808E093420ED11B290CD1224661462A
:10515000022000F0AFF82146049809F062FF012117
:10516000204604F03FFC089C002CC9D17F1CFFB2F4
:10517000044C2068A030007BB84200D948E70DB04D
:10518000F0BD0000E00A0020F0B5944600220A803D
:105190006346104C1A60052322685B028646D218CB
:1051A0004120926900230FE05D01AD182F6976461A
:1051B000374207D06F880E88B74203D90F80604608
:1051C000056000205B1CDBB22568A0352D7B9D426D
:1051D000EAD8F0BDE00A00207CB50C4605466A46D8
:1051E00001A9FFF7D1FF002801D041207CBD68460E
:1051F000E1888088814200D9E08000980088A08002
:105200002046FEF7C9FA0098012D07D0016908224F
:10521000114302229143016100207CBD01694908CC
:105220004900F8E7F7B5064690799168C01E82B04C
:105230001746C5B2022268460D31FBF794F9681D86
:1052400003210843401C83081948F10603D5322284
:10525000BF210E400AE01B22016892018918097FD4
:10526000890602D4002005B0F0BD2F223107006866
:10527000890E08181121C9014018C06F314609F084
:1052800051F8040011D00398A08068460088E0809F
:10529000234625722A4607213846093304F006FBC7
:1052A0002146304609F02AF8DCE70720DBE700005A
:1052B000E00A0020F7B5064690799168C01E82B0DA
:1052C0001746C5B2022268460D31FBF74CF9681D3E
:1052D00003210843401C83081948F10603D53322F3
:1052E000BF210E400AE01B22016892018918097F44
:1052F000490602D4002005B0F0BD30223107006815
:10530000890E08181121C9014018C06F314609F0F3
:1053100009F8040011D00398A08068460088E08056
:10532000234625722A4607213846093304F0BEFA7F
:105330002146304608F0E2FFDCE70720DBE700000B
:10534000E00A002010B51C88A418A4B21C80012318
:105350005B029C4203D8FBF706F9002010BD4120F8
:1053600010BD30B47446641E2578641CAB4200D274
:105370001D46635D5B00E31830BC1847F7B5164661
:1053800000241CE000981149001940188108019878
:105390008900001942780578120215438278C07896
:1053A0001204000602430948154340420F182946DB
:1053B0003846FBF7CBFD3868854204D1241DB44242
:1053C000E0D30020FEBDFB20FEBD00000000FCEF8E
:1053D000F0B50E460746002407E03D1900F0B8F886
:1053E0002870000A6870A41CE4B2B442F5D3F0BD82
:1053F00010B5012818D8072916D80C4A1268134688
:105400002033187759778007C906000E090E01432B
:105410000020074BA03204E08401E418A172401C74
:10542000C0B2147B8442F7D8002010BDE00A0020EF
:1054300000010020F0B5444F0446386885B078304C
:1054400016460D46002C19D0062C11D0082C0CD075
:10545000182C0AD0282C0BD02A2C09D02C2C0AD09E
:105460002E2C0BD0D02C42D043E0102D08D040E0A1
:10547000022D05D03DE0012D02D03AE0062D38D1B5
:105480000A4600193146FBF76EF82C2C28D13078EB
:10549000002825D0FCF7DDFB012824D01B201F307D
:1054A0004009401C41004118012004F009FAFCF7B2
:1054B000D0FB012819D01B201F30400941004118A2
:1054C00022484078401AC01EC1B2002004F0F8F90A
:1054D00038684022403001781143F92211400170B0
:1054E000002005B0F0BDFB20D9E7FB20E4E7012D4B
:1054F00004D0FCF7AEFB012804D007E0107808F0D8
:1055000016FEEEE7D12C01D1082D01D01220E8E7DC
:10551000022231466846FBF726F80222B11C01A898
:10552000FBF721F80222311D02A8FBF71CF802222A
:10553000B11D03A8FBF717F86846838902898188A3
:105540000088FCF77AFBCCE7E00A0020EC020020A0
:1055500000210B200007026852070DD502680423C2
:105560009A430260026808231A43026004E0491C5F
:10557000052901DD0020704742689207F7D5416890
:10558000C907FCD0806880B2704710B5FFF7E0FF14
:105590000446FFF7DDFF0004201810BD024909682A
:1055A0006831C88000207047E00A002010B5054827
:1055B0006F2300681B0104220021C018FAF7D7FFEF
:1055C00010BD0000E00A002004E003780B70401CCE
:1055D000491C521E002AF8D1704700003EB50B4806
:1055E00001AA0468694602A8683400F01FF8002880
:1055F0000BD06846007AE18801228240114204D033
:1056000069460978019AFCF7C7FD3EBDE00A002013
:105610000548002100686830017141710268D208B4
:10562000D2000260C1807047E00A002070B51446C5
:105630000D4A136872B668331A79002A01D0012521
:1056400000E0002500221A715A790270187840078C
:10565000400F087018684001000A00F0BDFA206091
:1056600062B6284670BD0000E00A002003E0087022
:10567000000A491C521E002AF9D1704710B501F0EA
:10568000E3FF00F043F8FCF7E4FA012801D1FCF74E
:10569000CCFA02F009F810BD70B51A4C1B25206831
:1056A000AD0141190026184B0E720622FF21C018C9
:1056B000FAF75DFF206820214019C6730174FCF7DA
:1056C000C8FA01281CD01F2021680F4B49194874C3
:1056D0002068093307220021C018FAF748FF0A4B57
:1056E000206810330522FF21C018FAF740FF064B4F
:1056F00020681B33FF220021C01809F05AFC70BD3E
:105700005F20E1E7E00A0020C906000070470020A2
:105710007047000070B572B6184D402328680146E6
:105720004030C2791A43C27162B6154E881909F029
:1057300071FC002812D12868801909F025FC044664
:105740000AE0204609F064FB002807D128682146BA
:10575000801909F066FC2468002CF2D128688019B1
:1057600009F058FC012807D072B62868BF224030E3
:10577000C1791140C17162B670BD0000E00A00201D
:10578000E40600000A4610B50146002002F026FE9D
:1057900010BD10B501460022412002F01FFE10BDD1
:1057A00010B50A461F2801D9122010BD0146104627
:1057B00005F092FC10BD0000FEB5064602200190E7
:1057C000B0880090B5790321681D0843401C830808
:1057D000134811220068D40108300019377B0221D8
:1057E000C06F08F09FFD040017D00098A080002033
:1057F000A771E0710146234625812A4630460A33C7
:1058000004F054F82146019808F078FD00240121A5
:10581000304604F0E7F82046FEBD0724FBE7000011
:10582000E00A0020F8B5074685880F481124006873
:10583000E401083002260019012310223146C06F0E
:1058400008F070FD01000CD08D8001220024CA8078
:10585000304608F053FD0021384604F0C3F82046D6
:10586000F8BD0724FBE70000E00A0020074A914248
:1058700002DC5242914200DA1146FF229932514332
:105880000A1251180A14511808187047FFFF4F00E8
:10589000401AC010810040180012704710B509204E
:1058A000C00600690002000A00F096F910BD7047BA
:1058B00030B5EFF3108172B60922D2061269FF25C6
:1058C000821A120214120C4A91351368AC4208DC99
:1058D0000122120690431A464032D479DF252C402B
:1058E000D471C2010724D20924021B191A61034A88
:1058F000906081F3108830BDE00A0020400000482D
:1059000010B50300FFF72DFD3A332D2D2D1E21304C
:10591000332A2A2A2A2A2A2A2A2A24242424242402
:105920002424242424242424242424242424242437
:105930002424242424242424242424272727272718
:1059400027272733FDF774FA10BD04F041FA10BD84
:10595000FDF744FF10BD00F0B3FB10BD07F048FE9B
:1059600010BD07F00BFE10BDFDF724F910BD3A384D
:10597000C0B20428FAD2FFF79AFF10BD0348DF2215
:1059800000684030C1791140C1717047E00A0020C1
:1059900070B50B480B490068441826466460083609
:1059A0002460E6600025A660206929014118304680
:1059B00004F022FB6D1CEDB20B2DF5D370BD000081
:1059C000E00A0020F4060000F0B5002693B0701E37
:1059D0000E90414841490068374644180920C006E6
:1059E000006905022D0A72B6A0692146281A000234
:1059F000000A223105F0E8FC6169A5614018606188
:105A0000354800684030C1798A0663D420221143AA
:105A1000C17162B6256814E0A8686169401A00285F
:105A20000ADCBA0001A8761C85507F1CF6B2FFB2D2
:105A3000287BFFF765FF03E00E99884200D20E90A5
:105A40002D68A542E8D12046083000250C9018307A
:105A5000129018E0AF0001A8761EC159F6B2204698
:105A600004F0E9FA01A8C1590C9804F0C5FA01A89C
:105A7000C059007B3A2804D2129812990078401E2F
:105A800008706D1CEDB2002EE4D12068A04217D042
:105A90003D256D04284605F08FFC01460E98814295
:105AA00001D8284601E005F025FCA169081800028C
:105AB0000121000A09064018FFF7FAFE13B0F0BDF5
:105AC00072B6002004490722096812028918086189
:105AD0000349886062B6F1E7E00A0020F40600009E
