:020000041004E6
:100000000060002075030410510504106D050410F4
:10001000AA5555AA45554C420000000000000000BA
:10002000000000000000000000000000890504102E
:100030000000000000000000A5050410C105041028
:10004000DD050410F90504100000000000000000A8
:1000500015060410310604104D060410690604103C
:100060000000000000000000000000000000000090
:100070000000000085060410A1060410BD0604104F
:1000800000000000D9060410F90604101907041036
:100090003907041059070410790204107907041075
:1000A0000000000000000000000000000000000050
:1000B0000000000000000000000000000000000040
:1000C000EFF31482EFF30981002080F31488BFF36B
:1000D0006F8FF0B543464C4655465E466746F8B4CA
:1000E000164CEFF30883236006B4154C2068154CBA
:1000F0002060154C2068154C2060154C2068154C6C
:100100002060154C276800202060BFF34F8F30BF60
:1001100027600A4C246884F3088882B003BCF8BCCA
:100120009846A146AA46B346BC46F0BC04BC80F340
:10013000098881F31488BFF36F8F104708000020EF
:1001400004ED00E0D802002024ED00E0CC02002005
:1001500000E200E0DC020020080020400E4AD369E3
:100160001B061B0F4370D9B2D3690C4A1B07944678
:100170001B0F83700A4B1B68436063445A42534110
:1001800001330370002901D101234370054B9B8A81
:1001900001339B008360704700009040BF5FFFFD0C
:1001A0002800904000001040084B1A68084B9A4203
:1001B00000D070473F23074A40061381000C2E3BB6
:1001C00090611380138ADB07FCD5F2E7140000204E
:1001D000CCBCECFC00001040244B1A7A244BD2B269
:1001E0001B899BB2002A09D0022A3DD00220042A92
:1001F00003D00020082A00D1033070471A00093AC2
:10020000782A18D8092206201A40092AF5D0112286
:1002100001301A40112AF0D0212201301A40212A3F
:10022000EBD0412201301A40412AE6D08122013030
:100230001A40812AE1D002221900FF3211400B201E
:100240009142DAD019000B4A013011409142D4D0CA
:10025000052207381A40052ACFD002381840033843
:10026000434258418000C8E70120C6E700009040A3
:1002700000001048010400007047C046012130B55D
:10028000364A85B0137A03240B4313720022344B91
:100290001A606B46DD1CFFF79FFF28702B78002B40
:1002A00003D1013CE4B2002CF5D12B78052B02D808
:1002B000012005B030BD2B780B2B1BD001AC2000EA
:1002C000FFF74CFF6378A2781B011343112B17DC57
:1002D000244B1B681B070DD59023234ADB051969A6
:1002E0001368283B5B1A1B02002B03DD9023126866
:1002F000DB055A6001221D4B1A70FFF70AFFFEE76B
:10030000184B1B681B0717D59021174AC9050869A8
:100310001368283B1B1A1B02002BEBDD8020144BBB
:1003200040021B041B0C0343CB60CB680342DDD0AF
:10033000CB680342F9D1D9E7802290210C4B5202BD
:100340001B041B0C1343C905CB60CB681342FCD1C3
:100350000122064B1A70FFF7DCFED0E700002040B8
:1003600014000020C0000020180000200C00002015
:10037000D002002010B5FFF781FF012805D01B4BEC
:1003800083F3088800F048F810BD1948194B9842CB
:1003900007D2C243D218920801329200164900F0E7
:1003A000FBF91648164B984207D2C243D21892085E
:1003B00001329200134900F0EFF91348134B9842B1
:1003C00007D2C243D218920801329200002100F0F5
:1003D000ECF90F480F4B9842D1D2C243D218920881
:1003E00001329200002100F0E0F9C8E7006000202F
:1003F000E0020020E002002000F8051008000020C4
:1004000034000020BC070410C0000020CC020020F3
:10041000CC020020E0020020434B70B51B68002B8B
:1004200003D1424B1B68002B32D03F4B1A68404B24
:100430009A4229D03C4B3E4A1B6893426ED03A4BBD
:100440001B68002B03D1394B1B68013320D0364B7E
:100450001A68374B9A4256D0334B1B68002B04D195
:10046000324B1A68324B9A4234D02F4B1B680133FF
:100470002CD02D4B1B6801334AD02B4B1B6801330A
:1004800001D12A4B1B68FEE7284B1B68002BD1D1FA
:10049000284B294A02E0043393420FD019680131F6
:1004A000F9D03F24254D264B2B6020000134A4B207
:1004B000FFF77AFE7D2CF8D100232B60214B224AD6
:1004C00012681B6883F308889047FEE7174B1B6888
:1004D000002BCED11B4B174A02E00433934210D0BD
:1004E00019680131F9D00124144D154B2B602000FF
:1004F0000134A4B2FFF758FE3F2CF8D100232B6043
:100500000C4B124ADCE7094B1B680133A4D1BFE74F
:10051000064B1A68064B9A42AFD1DBE7034A1268D2
:100520009A428CD1B4E7C0461008041010F80510A8
:10053000AA5555AA00F8051000E80710140000207D
:10054000CCBCECFC000804100408041004F80510EE
:10055000044B054A1B6810B5934202D09B6898472C
:1005600010BDFEE71000002000000410044B054AF7
:100570001B6810B5934202D0DB68984710BDFEE7B8
:100580001000002000000410044B054A1B6810B541
:10059000934202D0DB6A984710BDFEE710000020AE
:1005A00000000410044B054A1B6810B5934202D0AA
:1005B0009B6B984710BDFEE7100000200000041060
:1005C000044B054A1B6810B5934202D0DB6B984779
:1005D00010BDFEE71000002000000410044B054A87
:1005E0001B6810B5934202D01B6C984710BDFEE704
:1005F0001000002000000410044B054A1B6810B5D1
:10060000934202D05B6C984710BDFEE710000020BB
:1006100000000410044B054A1B6810B5934202D039
:100620001B6D984710BDFEE710000020000004106D
:10063000044B054A1B6810B5934202D05B6D984786
:1006400010BDFEE71000002000000410044B054A16
:100650001B6810B5934202D09B6D984710BDFEE712
:100660001000002000000410044B054A1B6810B560
:10067000934202D0DB6D984710BDFEE710000020CA
:1006800000000410044B054A1B6810B5934202D0C9
:100690005B6F984710BDFEE71000002000000410BB
:1006A000044B054A1B6810B5934202D09B6F9847D4
:1006B00010BDFEE71000002000000410044B054AA6
:1006C0001B6810B5934202D0DB6F984710BDFEE760
:1006D0001000002000000410054B064A1B6810B5EE
:1006E000934203D084229B58984710BDFEE7C04632
:1006F0001000002000000410054B064A1B6810B5CE
:10070000934203D088229B58984710BDFEE7C0460D
:100710001000002000000410054B064A1B6810B5AD
:10072000934203D08C229B58984710BDFEE7C046E9
:100730001000002000000410054B064A1B6810B58D
:10074000934203D090229B58984710BDFEE7C046C5
:100750001000002000000410054B064A1B6810B56D
:10076000934203D094229B58984710BDFEE7C046A1
:100770001000002000000410054B064A1B6810B54D
:10078000934203D09C229B58984710BDFEE7C04679
:100790001000002000000410002310B59A4200D180
:1007A00010BDCC5CC4540133F8E7030082189342B7
:0C07B00000D1704719700133F9E7000018
:1007BC000000000000000000000004100000000019
:1007CC00000000000000000000000000000000001D
:0C07DC0000000000000000000000000011
:04000005100403756B
:00000001FF
:020000041005E5
:10F800000060002079130610811706108317061078
:10F81000AA5555AA45554C420000000000000000C2
:10F820000000000000000000000000008517061026
:10F830000000000000000000DB1106108717061012
:10F840008F170610DD1106100000000000000000F8
:10F8500091170610DF11061099170610EB1106100C
:10F860000000000000000000000000000000000098
:10F8700000000000ED110610EF110610F111061046
:10F8800000000000E1110610E3110610E51106105A
:10F89000E7110610E9110610D7110610D91106104C
:10F8A0000000000000000000000000000000000058
:10F8B0000000000000000000000000000000000048
:10F8C000EFF31482EFF30981002080F31488BFF373
:10F8D0006F8FF0B543464C4655465E466746F8B4D2
:10F8E000164CEFF30883236006B4154C2068154CC2
:10F8F0002060154C2068154C2060154C2068154C74
:10F900002060154C276800202060BFF34F8F30BF68
:10F9100027600A4C246884F3088882B003BCF8BCD2
:10F920009846A146AA46B346BC46F0BC04BC80F348
:10F93000098881F31488BFF36F8F104708000020F7
:10F9400004ED00E04C20002024ED00E040200020E9
:10F9500000E200E050200020080020400022430880
:10F960008B4274D303098B425FD3030A8B4244D387
:10F97000030B8B4228D3030C8B420DD3FF220902C9
:10F9800012BA030C8B4202D31212090265D0030B88
:10F990008B4219D300E0090AC30B8B4201D3CB037E
:10F9A000C01A5241830B8B4201D38B03C01A5241C0
:10F9B000430B8B4201D34B03C01A5241030B8B42C2
:10F9C00001D30B03C01A5241C30A8B4201D3CB02AD
:10F9D000C01A5241830A8B4201D38B02C01A524192
:10F9E000430A8B4201D34B02C01A5241030A8B4295
:10F9F00001D30B02C01A5241CDD2C3098B4201D3AD
:10FA0000CB01C01A524183098B4201D38B01C01A2A
:10FA1000524143098B4201D34B01C01A52410309A1
:10FA20008B4201D30B01C01A5241C3088B4201D350
:10FA3000CB00C01A524183088B4201D38B00C01AFD
:10FA4000524143088B4201D34B00C01A5241411A24
:10FA500000D20146524110467047FFE701B5002031
:10FA600000F0F0F802BDC0460029F7D076E77047F5
:10FA700003460B437FD4002243088B4274D303090F
:10FA80008B425FD3030A8B4244D3030B8B4228D3B0
:10FA9000030C8B420DD3FF22090212BA030C8B42D6
:10FAA00002D31212090265D0030B8B4219D300E076
:10FAB000090AC30B8B4201D3CB03C01A5241830BFB
:10FAC0008B4201D38B03C01A5241430B8B4201D3AB
:10FAD0004B03C01A5241030B8B4201D30B03C01AD4
:10FAE0005241C30A8B4201D3CB02C01A5241830A4E
:10FAF0008B4201D38B02C01A5241430A8B4201D37D
:10FB00004B02C01A5241030A8B4201D30B02C01AA6
:10FB10005241CDD2C3098B4201D3CB01C01A52410D
:10FB200083098B4201D38B01C01A524143098B4296
:10FB300001D34B01C01A524103098B4201D30B017F
:10FB4000C01A5241C3088B4201D3CB00C01A5241A4
:10FB500083088B4201D38B00C01A524143088B4269
:10FB600001D34B00C01A5241411A00D20146524102
:10FB7000104670475DE0CA0F00D04942031000D321
:10FB80004042534000229C4603098B422DD3030A76
:10FB90008B4212D3FC22890112BA030A8B420CD386
:10FBA000890192118B4208D3890192118B4204D3AF
:10FBB00089013AD0921100E08909C3098B4201D32F
:10FBC000CB01C01A524183098B4201D38B01C01A69
:10FBD000524143098B4201D34B01C01A52410309E0
:10FBE0008B4201D30B01C01A5241C3088B4201D38F
:10FBF000CB00C01A524183088B4201D38B00C01A3C
:10FC00005241D9D243088B4201D34B00C01A524112
:10FC1000411A00D20146634652415B10104601D39F
:10FC20004042002B00D54942704763465B1000D329
:10FC3000404201B5002000F005F802BD0029F8D0CF
:10FC400016E770477047C046437802781B021A4394
:10FC50008378C0781B041343000618437047C046DE
:10FC6000030A4B70030C8B70030E0870CB70704747
:10FC700003005A7800781202024398781979000438
:10FC80000243D878000610435A7912020A43997940
:10FC900009040A43D979090611437047030A5370CE
:10FCA000030C9370030ED3700B0A53710B0C9371FA
:10FCB0000B0E10701171D3717047C046024A136861
:10FCC000013313607047C04600030020C021074A7B
:10FCD000074B08485360036A09061B021B0A0B43C3
:10FCE00003620023936007331360704710E000E065
:10FCF0007E3E000000ED00E00E4AD3691B061B0F9C
:10FD00004370D9B2D3690C4A1B071B0F83700B4B8E
:10FD10001B68436093420BD102230370002901D179
:10FD200001234370064B9B8A01339B00836070471D
:10FD30000123F2E70000904041A00002280090401B
:10FD400000001040F0B5070085B001AC0E002000A7
:10FD50001500FFF7D1FF23783B7063783370A378E9
:10FD60002B7005B0F0BD10B501F06BFF10BD10B5E4
:10FD700001F082FF10BD10B501F054FF10BD00006E
:10FD8000024A138ADB07FCD57047C04600001040CA
:10FD9000084B10B51A68084B9A4209D13F22074B0D
:10FDA00040061A81000C2E3A98611A80FFF7E8FF8E
:10FDB00010BDC04614000020CCBCECFC000010407C
:10FDC000084B10B51A68084B9A4209D13F22074BDD
:10FDD00080081A810C3A986119641A80FFF7D0FFE5
:10FDE00010BDC04614000020CCBCECFC000010404C
:10FDF0000B4B10B51A680B4B9A4210D13F220A4B9D
:10FE000080081A8198610A681A644A685A648A6884
:10FE10009A64CA68DA64CC221A80FFF7B1FF10BD79
:10FE200014000020CCBCECFC00001040F7B50190A1
:10FE300001790468002931D18022D2055368A34397
:10FE40005360019B20251E68802300226D42DB0544
:10FE500034000120D44004420BD0D4B2072A26D863
:10FE600097000E30B840DC6A84430800B840044371
:10FE7000DC62013204351A2AEAD1019B5A798023C7
:10FE8000DB05012A3AD1DA683243DA60019A9279C5
:10FE9000012A36D19A6816439E60F7BD0629D0D153
:10FEA0008022D2055368002123435360C9E727000D
:10FEB000083F072F08D80F27AF401C6BBC430F002B
:10FEC000AF403C431C63D4E7103C072C0AD82F00FA
:10FED0000F20203FB8405C6B84430800B8400443C7
:10FEE0005C63C6E72F000F20403FB8401C8F84435F
:10FEF0000800B8400443A4B21C87BAE7DA68B243EA
:10FF0000C3E79A68B2439A60C7E7002303600371AE
:10FF10008371437170478023DB05012901D1D863C8
:10FF200070471864FCE70000012270B503880D00DB
:10FF30009343038049790400080023880232274E46
:10FF400010404003334003432380254B4900C85AE7
:10FF50002968244B4843181A234B994229D8490051
:10FF6000FFF7FCFC3022238893432380C023626880
:10FF700092B29B02134363606368EA889B0A9B0208
:10FF800013430322062180B2636020852B791A4037
:10FF9000238852008B43134323802A7A0823012AA3
:10FFA00018D12288134323800123228813432380FE
:10FFB00070BD0E4B9942DFD85143FFF7CFFC302282
:10FFC000238893431A0010231343238062688023FD
:10FFD00092B2CEE722889A432280E5E7FF9FFFFF97
:10FFE000CC2000200024F400A0860100801A060026
:10FFF000034B0360002303714371C3800372704796
:020000041006E4
:10000000881300008A880B881343CA8813430A891F
:1000100013434A8849895200C9030A431343C36002
:10002000704701747047007EC0B270478023028819
:10003000134303807047022300680006C00F181A9C
:100040007047006B0840411E8841C0B27047816311
:10005000704740690007800F7047C02380211B064E
:100060001A680A431A601A688A431A6070470000C7
:10007000044B1A6A012902D1104318627047824367
:100080001A62FBE700009040244B1A7A244BD2B24C
:100090001B899BB2002A36D11A00093A782A19D84E
:1000A00009211A0006200A408A422BD01122013071
:1000B0001A40112A26D0212201301A40212A21D0AB
:1000C000412208001A40412A1CD0812201301A40E6
:1000D000812A17D002221900FF3211400B209142D1
:1000E00010D019000F4A0130114091420AD01A0075
:1000F00007380240824205D0023818400338434294
:100100005841800070470120022AFBD00018042AC1
:10011000F8D00020082AF5D10330F3E70000904022
:100120000000104801040000054B0122196B002853
:1001300002D00A431A63704791431963FBE7C04634
:1001400000003040F8B54A4C0500236B01681B07DE
:1001500000D56DE009014748FFF700FCC3099AB2DA
:10016000A284454ADB0101301340C01A400880B226
:100170003F2802D93F233F381840032760263F4BD2
:10018000C0B218703E4B2A7918783A405201B043F9
:100190001043187001206979227F39404901B24328
:1001A0000A432277AA7919780240BA40073081437E
:1001B00011431970217F81430A432277EA79002A8B
:1001C00038D102211A788A431A70227F8A4301208B
:1001D00022772A7A216B1600C2402A4F0640760207
:1001E000394031432163216B274E024031401202D6
:1001F0000A432263697A226B0E00C140234F0640F6
:100200003A40B60332432263226B214E0140324012
:10021000C90311432163AA7A197802400F301201F1
:10022000814311431970237F83431A432277F8BD1A
:10023000C90090E7022A0CD10420197811431970E3
:10024000197881431970217F0A432277227F8243E4
:10025000BDE702211A780A431A7004221878104365
:100260001870207F01432177217F0A43AFE7C04602
:10027000000030400000127A80FF7F0028003040EC
:100280002C003040FFFDFFFFFFFEFFFFFFBFFFFF21
:10029000FF7FFFFF044B1A8F002902D010431887FD
:1002A000704782431A87FBE700003040024BC005CD
:1002B000C00D18807047C04600003040014B1888C0
:1002C000C0B2704700003040054B002805DA5B687B
:1002D0001840431E9841C0B270471B8BF8E7C046D8
:1002E00000003040034B9B8F1840431E9841C0B222
:1002F0007047C046000030400722024038200449C1
:10030000D2000B7883431800104308707047C04632
:1003100034003040F0B583780178002B33D040783A
:100320004AB28001002A1BDA0F230B40083B1B4A0C
:100330009B089B009B18FF22032517000D40ED0032
:10034000AF400240AA40DE69BE433243DA611F2259
:100350004B0911401E3A8A4011499B00CA50F0BD1A
:10036000FF270F4B92089200D21803233C00C025B0
:100370000B40DB009C4038409840AD005659A643E6
:1003800030435051E3E71F234A090B4001219940B4
:100390001300034A20339B00D150E0E700ED00E05A
:1003A00000E100E030B50E4D0100288885B0013035
:1003B000FFF744FC0C1E11D10A4B1A880A4B19880E
:1003C0000A4B18880A4B0194039304230293009369
:1003D000033B02F06DFD074B1C702C8005B030BD57
:1003E000EC09002034200020362000200A030020E1
:1003F0003820002010030020BFF34F8F024A034B28
:10040000DA60BFF34F8FFEE70400FA0500ED00E06D
:10041000024B1A78024B1A707047C046BE09002082
:100420000503002010B5084B1A78002A08D00020D8
:10043000187005F089FC054B9321188802F0DDFC4B
:10044000034B187810BDC046040300200A030020A7
:1004500005030020F0B591B00021092209A801F0A0
:100460000BFC24226B4602209B18223A1A7000F0E3
:1004700084FE66230CAC23709A2363700C23A37054
:100480002023E37000232371A733A371BA23E37100
:10049000E3232372112363720623A3727F33E37273
:1004A000F7230826C0278E4D6373603BA373102289
:1004B0000D3B21002800E37366712773FFF753FC9F
:1004C000884B2900009301220A23022002F0CBFC72
:1004D000051E02D0472011B0F0BD662323709A2379
:1004E00063700C23A3702023E370A723A371BA23A6
:1004F000E371E3232372112363728523E3728C2358
:100500002773794F63735E3B2071A37310221C3BEA
:1005100021003800E3736671A672FFF724FC714B6B
:100520003A001888714B04950593102303930C3BF4
:100530000293023B019500930221330002F074FC08
:10054000051EC7D1662323709A2363700C23A37002
:100550002023E370A723A371BA23E371E32323725B
:10056000112363728523E372F0232373573B637374
:100570008A3B2071A3731022123321003800E373E9
:100580006671A672FFF7EFFB564B3A001888584B7E
:1005900004950593102303930B3B029309330093B7
:1005A0000195053B022102F03FFC031E00D091E7BC
:1005B0004F4A4C494F4809AD128809880088039575
:1005C000092501932B0002950095083B02F070FC71
:1005D000051E00D07EE7662323709A2363700C23E8
:1005E000A3702023E370A723A371BA23E371E3234D
:1005F0002372112363728523E372802323732A33CA
:100600006373193B2071A37310226B3B21003800E8
:10061000E3736671A672FFF7A6FB324B3A001888A7
:10062000354B01950593012304930F3303930B3B43
:100630000293093300930221C63302F0F5FB051E35
:1006400000D047E7662323709A2363700C23A370BE
:100650002023E370A723A371BA23E371E32323725A
:10066000112363728523E37260232373093B637351
:1006700085332071A3731022B13B21003800E3734E
:100680006671A672FFF76FFB164B3A0018881B4B7A
:1006900004950593102303930C3B02930E330093B0
:1006A00001950E3B022102F0BFFB031E00D011E7B3
:1006B000134A12BA079207AC124A12BA0949626089
:1006C0000C480A4A0988128800880193039402960C
:1006D0000096013302F0ECFB002800D0FAE6FAE6BF
:1006E000D209002036200020C0090020322000203E
:1006F0003C2000200A03002030200020342000206D
:1007000000080410FFF70510F0B5884C89B0208070
:10071000874C24880134A14233D1002285490A70D4
:1007200085490A701A79D97812060904521859783D
:10073000521899780902521880490A601A7AD979B0
:100740001206090452185979521899791B7809022E
:1007500052187B490A6002218B431900012B00D0FB
:100760000821784B04201970774B1A600023774AD0
:100770001380774A1360774A138005F0E5FA09B0D1
:10078000F0BD754C2588AC1CA1421DD10023714AD7
:10079000724C1380724A2380118804226380029273
:1007A00001930092039401332A0002F081FB002898
:1007B00002D1023000F0D3FC6A4B1B78032BDED051
:1007C0001722694B1A80DAE76848008801308142B5
:1007D000D5D167490878C0B2002809D0654A138886
:1007E00001339BB21380574B1878FFF7DBFDC6E748
:1007F0000F2656490C885C4906940D88043DE9177C
:10080000314049190911CE01B442B8DA4B4D5A4F63
:100810002D683F7805951519043D0795574DAC4651
:10082000079DAC4247DB002801D0534807709A1857
:10083000D01E971E3F780078013A78404E4F1278CC
:100840003D786840424018783A7084463F4F4148AE
:100850003C8094455AD109015B18DA78484D120260
:1008600094469A78624492B22A800588AA4236D188
:1008700001325B7897B20780012B03D04A43059B76
:10088000934214D80022354B31001F805A8020003B
:10089000FFF7D4F9002907D02D4B059A1B68D51A0C
:1008A000B54204D2A54202D80122364B1A7000226A
:1008B000314B1A7063E7059884420CD2654606985E
:1008C000201A1818407828552C48005D01344740FC
:1008D000A4B20120A4E7604600250555F4E7254BA6
:1008E0001D80294B1B88002B01D001339BB20121B5
:1008F0001F4A03801170194AEF31138000233B8097
:10090000104B51801878FFF74DFDD0E7194B028846
:100910001A801D4B1B88002B01D001339BB2012193
:10092000134A038011700D4A0E31E6E70A030020D6
:100930003C20002011030020D0090020B80900202D
:1009400014030020E62000200C03002006030020F2
:10095000E809002012030020342000203820002065
:100960003620002009030020E8200020302000204D
:1009700010030020EC0900200803002018030020C9
:10098000E4090020E2090020BC090020F0B5534C26
:1009900085B023780500002B5DD005F055FB0100E4
:1009A000280005F04BFB0F224D4B05001B88FA2158
:1009B000043BD8171040C018D62300119B005843A1
:1009C0008900D630FFF754F80130854243DD00231B
:1009D000102723702370434B434D1A88434B1A80D2
:1009E000434B444A1B6812689B182B603C00424AE8
:1009F000103C1388A4B2A3422FD83E490868C318FC
:100A00000B6000233D4913804B803D4B00241A8826
:100A10003C4B19883C4B1888384B019403930423B2
:100A200002930093033B02F043FA324B1A68374BB0
:100A30001B689A420FD3022000F098FB34493548D6
:100A4000FFF7BEF921003448FFF7BAF90123334A12
:100A50001370334A137005B0F0BD254A2868126838
:100A600011001031814233D01B1B2E4E0F2B16DD8F
:100A700034192100FFF7BCF928682B681030E41AFC
:100A80001978E25C914203D03C221C4B5A80BCE7AF
:100A900001338342F4D12B6810332B601AE03319F1
:100AA000D9789A780906120489185B78325D1B029E
:100AB0008918C918FFF784F92B68E41A181D36192C
:100AC0001978F25C9142DFD101339842F8D1E2E724
:100AD00020322A601037BFB288E7C046E209002002
:100AE000E8200020E40900200C030020BC090020BD
:100AF00014030020E809002006030020382000200D
:100B000034200020362000200A030020B8090020ED
:100B1000AA5555AA1008041010F805100403002067
:100B2000BE09002018030020034B044A1980022349
:100B300011780B4313707047E82000200903002050
:100B4000012313B5124A040011780B4313700F22CE
:100B5000104BFA211B888900043BD8171040C0189D
:100B6000D62300119B005843D630FEF781FF431D6A
:100B7000FA20800058430849FEF77AFFC82381B263
:100B80001B0100930A000023200002F0AAF913BD04
:100B900009030020E8200020E20400000A0010B54C
:100BA0000100024801F070F8FEE7C046821A071003
:100BB00037B50D00012903D90F491048FFF7EEFFA3
:100BC0006B46DC1D202201235F21200000F052FA39
:100BD000012300280DD17F222178ED011140294306
:100BE00021705F3A5F21200000F0FEF9431E98411A
:100BF000C3B218003EBDC04661020000491A07108A
:100C000073B50B0040260D00B34303D00E490F48C7
:100C1000FFF7C4FF6B46DC1D222201235F21200069
:100C200000F028FA012300280BD122785F21B2437B
:100C3000154320002222257000F0D6F9431E98416A
:100C4000C3B2180076BDC04639030000491A071028
:100C500037B501AC0D00012360221E21200000F0F9
:100C600009FA032321781D40994329432170023B4F
:100C700060221E21200000F0B7F93EBD37B501AC5F
:100C80000D00022310225D21200000F0F3F9032360
:100C900070212B401A0123788B43134301222370C8
:100CA00002232911114048006178ED109943014356
:100CB00015409143294361700F325D21200000F0FF
:100CC00093F93EBD37B501AC0D00012310226B2115
:100CD000200000F0CFF90F2321782D01194029437E
:100CE00021700E3B10226B21200000F07DF93EBDEB
:100CF00037B501AC0D00012311226B21200000F05B
:100D0000B9F90F2321782D011940294321700E3B99
:100D100011226B21200000F067F93EBD37B501AC10
:100D20000D00012312226B21200000F0A3F9012302
:100D3000102221781D402D01914329432170023258
:100D40006B21200000F050F93EBD37B501AC0D001D
:100D5000012312226B21200000F08CF901232022B4
:100D600021781D406D019143294321700E3A6B217A
:100D7000200000F039F93EBD10B504002020FFF737
:100D8000A3FA0128FAD0A0B2FFF790FA10BDF0B58F
:100D9000012187B006000920FFF76AF980230024AB
:100DA000012501AF5B00380001933D71BC717C717E
:100DB000FFF73CF8802338001B0101933D71FFF7DA
:100DC00035F8032303A80371437103728471C4715E
:100DD000447285720396FFF7B5F92000FFF78CFA8D
:100DE0002800FFF7A1F907B0F0BD042313B50400F4
:100DF00001A80370013B43708470FFF78BFA210058
:100E00001020FFF747FA13BD094B10B51860E12019
:100E10004002FFF7BCFF0120FFF7E7FF054B02226E
:100E2000186800238068190000F0B2FF10BDC046AA
:100E3000F0090020F020002010B5FFF79DFF10BD45
:100E4000034B10B51B68002B00D0984710BDC0465F
:100E5000F009002007B51020FFF744FA002809D157
:100E600007BDFFF72BFA6B46D87107330121180035
:100E7000FFF7E6FF1020FFF727FA0028F1D0EFE791
:100E800001000A4A0A4810B51368046801209C4210
:100E900009D00848C05C0133087080210020C900D7
:100EA0008B4201D0136010BD1060FCE7F80D0020EC
:100EB000F40D0020F409002010B50400C0B2FFF7C3
:100EC0005BFF200010BD00000B4A10B513680B49F2
:100ED000002B00D1116080241368640118180919CF
:100EE000884205D90C220120054B40421A6010BDF2
:100EF00010601800FBE7C046FC1D0020FC0D002020
:100F00007C20002001204042704780239B0100206C
:100F10004B607047012070470020704770B50E008D
:100F200015000C00A31B9D4201DC280070BD207839
:100F3000FFF722FF0134F5E770B50E00150000241D
:100F4000AC4208D23019FFF79BFF002801D10134D1
:100F5000F6E7002CF4D0200070BD10B500F071FE53
:100F600010BD10B500F06DFE10BD10B50A000021D7
:100F700000F082FE10BD00000222014B1A70704783
:100F8000001E0020F0B5012187B006001348FFF7CE
:100F90006FF800251023042701AC2000019327716E
:100FA000A5716571FEF742FF20232771200003AC75
:100FB0000193FEF73BFF2000FFF71AF80123039689
:100FC000074E210030002371FEF7AEFF30000549C7
:100FD000FFF73DF8280007B0F0BDC046010400004F
:100FE0000000A0407F809F73F0B51E00002385B0F5
:100FF00001AD2B80AB8080235B01EB808023DB0184
:1010000004002B811948731C170069806B81FFF75E
:101010000DF81648FFF70FF80128FAD029001348F9
:10102000FEF7F0FF39001148FEF7FBFFA619B442A6
:1010300013D1802424030D48FFF70BF8032812D0A6
:1010400021000A48FEF7FDFF0028F4D007480849B0
:10105000FEF7FDFF002005B0F0BD21780348FEF744
:10106000E0FF0134E3E70120F5E7C0460000A040BF
:1010700000000810F0B587B017000193802200230C
:1010800003AC050023808EB2A380520123812C483B
:1010900001336680E2806381FEF7C8FF2848FEF7CF
:1010A000CAFF0128FAD021002548FEF7ABFF39001E
:1010B00023488027FEF7B5FF7F052148FEF7C9FFCB
:1010C000032802D1012007B0F0BD39001C48FEF70B
:1010D000B8FF0028F1D0802119484905FEF7B7FF75
:1010E000012323800023A38080235B01E3808023EE
:1010F000DB0123816B469B88668063812100104859
:101100008024FEF77FFF24030D48FEF7A2FF03288B
:10111000D8D021000A48FEF794FF0028F4D00949EE
:101120000748FEF794FF019BEC18A54201D100206F
:10113000C9E70348FEF777FF28700135F5E7C04699
:101140000000A04000000810012804D0012302285C
:1011500003D0082301E08023DB011800704710B59D
:10116000FFF7F2FF0021FEF7D6FE10BD10B5FFF726
:10117000EBFF0121FEF7CFFE10BD13B501210400E6
:101180000800FEF775FF2000FFF7DEFF6A46062322
:101190001371002300909371684601335371FEF779
:1011A00045FE2000FFF7E2FF13BD10B506F026FE56
:1011B00010BD10B505F0F0FC10BD10B507F042F8F9
:1011C00010BD10B506F06AFE10BD10B506F084FF24
:1011D00010BD0120704770477047704770477047D7
:1011E0007047704770477047704770477047704747
:1011F00070470000002210B5104B995CC9B200295D
:1012000017D11C2A14DC022021249854501C1C5491
:10121000901C193C1C54D01C19549B1880229021FE
:101220009BB252021343C905CB60CB681342FCD179
:1012300010BD995C01315218D2B2DEE7011E0020C8
:10124000002330B50E4AD15CC9B2002913D11C2B42
:1012500008DC02243525D4545C1C15559C1C033332
:101260001055D1540222074B1A7033325A700022A3
:101270009870DA7030BDD15C01315B18DBB2E2E707
:10128000011E00204420002010B5104B00280AD079
:10129000802290219BB252021343C905CB60CB68D8
:1012A0001342FCD110BD042198789A789CB28A43ED
:1012B0009A708022902152021443C905C0B2CC60BA
:1012C000CC681442FCD19870ECE7C0464420002062
:1012D000012330B5234A0324117A85B00B431372DE
:1012E0000022214B1A60FEF7CFFE6B4603331870C5
:1012F0001A78002A03D1013CE4B2002CF3D11A7809
:10130000052A2BD91B780B2B10D001AC2000FEF73F
:10131000F3FC6278A37812011A43144B1B681B0775
:101320000AD4112A02DD0120FFF7AEFF0122104B83
:101330001A70FEF7EEFAFEE790250E4CED052869CF
:101340002368283B1B1A1B02002BEFDD112A02DD4C
:101350000120FFF799FF23686B60E7E7012005B0E4
:1013600030BDC0460000204014000020C000002016
:101370000C0000201800002070B5FFF7A9FF01281D
:1013800017D1002314481549154C1A188A4216D350
:10139000002314481449154C1A188A4213D300210B
:1013A000134B144A934212D30021134B134A934216
:1013B0000FD3134B83F3088800F06AF970BDE5582A
:1013C00004331560E1E7E55804331560E4E702C330
:1013D000E8E702C3EBE7C04680200020542100204C
:1013E000FC1F07100800002034000020D01F071049
:1013F000C0000020CC020020CC0200208020002071
:101400000060002070B58AB003AC06000D00192200
:101410004149200000F015FC6846FEF76DFC002EE7
:1014200060D044233D4AA373117A433B0B431372AC
:101430004C23E3722C3B237292336374573B237526
:10144000374B384A1B68190C914208D17020E17D56
:101450001B018143E175E17D03400B43E375324B92
:101460001B68190C914208D1302061791B0181431E
:101470006171617903400B4363712C4B1B68190C3C
:10148000914207D10321E27D0B408A43E275E27D60
:101490001343E3750422E37A69469343E3726B4690
:1014A0005B78897893400B43112B06DDE37D1A436B
:1014B000E275E07DC0B2FFF7C3FE802390222404D2
:1014C000240C5B021C43D205D460D1681942FCD1C4
:1014D0006B466A465B7892781B011343112B01DD42
:1014E000FFF788FE124B1A8B002AFCD001221A83C8
:1014F00016329A8100221A61954207D0902310215A
:10150000DB0518691A6942400A42FBD0094A0A4BB6
:101510001A600AB070BDC046E419071000002040F0
:10152000E807001055AA0000E4070010B0070010FB
:1015300000001048CCBCECFC140000200822C021A4
:10154000F8B53F4B3F4D9A803F4A0904136AFF208C
:101550002B400B43C0211362136A09061B021B0AAE
:101560000B431362C02292009446384B64469A584B
:10157000374E82433F38024360461A501A58C02003
:101580003240000202431A51C122FF2792009C58A8
:10159000BC433F3F3C439C509C583F37344004433E
:1015A0009C509C582C409C509C582402240A0C436C
:1015B0009C500832944664469A58324002431A516D
:1015C0001A59C0242A402404224364461A511A5945
:1015D0001202120A0A431A51C42292009446644627
:1015E0009A58324002431A511A59C0242A402404FE
:1015F000224364461A511A591202120A0A431A5116
:10160000C52292009C58BC432700C0242743C02415
:101610009F509F5824043E403043985098580540AE
:101620002C439C5098580002000A01439950012114
:101630000800FFF7E7FE074A074B1A6262B6F8BDDB
:1016400000001040FFFF00FF00ED00E000E100E0BF
:10165000FF00FFFF66000E000000904037B501213B
:101660000800FEF705FD6846FEF74FFC6A460623B4
:1016700000251371802401236846957153710094ED
:10168000FEF7D4FB29002000FEF745FC37BD000023
:1016900070B5FFF753FFFFF76FFCFEF717FB3048FD
:1016A000FFF7B2FB0020FFF768FD0120FFF765FDA3
:1016B0000220FFF762FD2B4801F064FC051E07D0F5
:1016C0000100294800F0E0FA0020FFF748FDFEE79E
:1016D0002649274800F0D8FA00F062F8041E07D027
:1016E0000100244800F0D0FA2800FFF738FDFEE79B
:1016F000FFF7B4FF2048FFF745FC21002000FFF76B
:10170000E1FA21002000FFF7F3FA01212000FFF7A2
:1017100005FB01212000FFF718FB21002000FFF747
:10172000ADFA02212000FFF793FA40212000FFF7D5
:1017300067FA01212000FFF73BFA80202100FEF725
:10174000EAFB0E4800F01AFB01F0D8FB00F064F948
:10175000FEF768FE0128F7D1FEF74EFEF4E7C0461B
:101760003D190610B01A0710E41A0710151B0710D0
:101770001B1B0710511B0710801A0600761B071051
:101780007047FEE7704710B5FEF798FA10BD704736
:1017900010B5FFF75FFB10BD10B505F093FA10BD53
:1017A000F0B50825314C8BB021002A0008A800F0C4
:1017B00048FA6119062206A800F043FA06AA062193
:1017C000002001F08AFB041E06D00100284800F02A
:1017D0005BFA20000BB0F0BD0421012001F079FB81
:1017E00001F062FB041E02D001002248EFE722480C
:1017F00000F0C4FA122616236E446B4405AF019321
:101800002100009733002A00012001F0BDFA041ED8
:1018100002D001001948DAE7194800F0AFFA08AB26
:101820003A883188200003930194230002950095A3
:1018300001F03EFB041E02D001001248C7E7124827
:1018400000F09CFA00F056F9041E02D001000F4887
:10185000BDE70F4800F092FAFEF7FCFD002803D127
:101860000C4800F08BFAB4E70B48FAE7FD190710B3
:101870008D1B0710AE1B0710D11B0710EE1B0710A6
:101880000F1C07102B1C07105E1C07108C1C071068
:10189000AF1C0710CF1C0710EF1C0710F0B51F4C32
:1018A00087B023685B0632D523689B062FD41C4E75
:1018B0001C4A378813889F4209D3402123688B43F1
:1018C0002360002313801022174B1A601FE0DB1BDC
:1018D000142B00DD1423154A15491088154A9DB2B2
:1018E0001288DBB20592144A0988944602930023B9
:1018F0006744019380B2039700950133059A01F084
:10190000D7FA642805D1202322681343236007B047
:10191000F0BD3388ED183580C9E7C046EC200020C3
:10192000242000202220002000E100E026200020CA
:101930006420002066200020211E0020F7B507004B
:1019400000240191019B9C4200D3F7BDFF22164D5C
:1019500052002B88934201D900232B803B19197820
:10196000124E2A88B1541878FFF766FA2B88013393
:101970009BB2F218013A12782B800A2A01D00D2A64
:101980000DD10022012B0DD040200949F2540B68E3
:1019900003430B601021074BD967074B1A800134B2
:1019A000E4B2CFE72A80FAE722200020211E00209F
:1019B000EC20002004E100E02420002030B50E24BB
:1019C0008DB0114908AD22000919280000F039F93D
:1019D0000E49122004F0BAFA002002950100069088
:1019E000059004900390019400900300020001F020
:1019F000E3F9011E04D0064800F046F90DB030BDF1
:101A0000044800F0BBF9F9E7FD190710D4200020C5
:101A10000F1D07103D1D071070B50225054C2368EA
:101A20002B4204D0FFF7CAFF2368AB432360FFF7C4
:101A300035FF70BDEC200020034B044A19800123C0
:101A400011680B431360704726200020EC20002013
:101A50000121124B10B51A688A431A6002221968D4
:101A60000A4304211A601A688A431A601A681C31F2
:101A70008A431A601A680A490A401A601A680949B2
:101A80000A401A601A6808490A401A601A68074929
:101A90000A401A60FEF7BCFC10BDC046EC200020D6
:101AA000FFFEFFFFFFFDFFFFFFFBFFFFFFF7FFFF55
:101AB00070B50C001D00DAB2049BFEF725FE29006C
:101AC000049A200000F084F870BD00002021024A32
:101AD00013688B4313607047EC20002010B501F0B1
:101AE000DDF910BD10B5022902D11000FEF74EFF3E
:101AF00010BD0000F0B510242D4D93B02900220038
:101B000006A800F09EF8291922000AA800F099F80A
:101B10002900220020310EA800F093F8254D220064
:101B200006A92800FEF71FF9234E0623009601227E
:101B30002900022001F097F9071E34D11F4D220021
:101B40000AA92800FEF70FF91D4B308805930123E1
:101B50000297049301970394009413332A000221FF
:101B600001F062F9071E1ED122000EA92800FEF71F
:101B7000FAF801233088134E049302930B33039435
:101B800000930596019708332A00022101F04CF9D1
:101B9000041E08D10A4B328819880B4800F074F8EB
:101BA000200013B0F0BD094800F0E8F84724F7E73B
:101BB000191A07106A2000206420002054200020F9
:101BC0006620002068200020651D0710A31D071057
:101BD0000F4B70B51B880E0001331500140098429E
:101BE00011D00C4B1B88023398420FD11378012B74
:101BF0000CD1094A033311680B43136006E02078C7
:101C0000FFF75AF90134631B9E42F8DC70BDC046F1
:101C10006820002066200020EC20002010B500F095
:101C200019F810BD30B50024A24201D1002005E012
:101C3000035D651C0C5DA34201D0181B30BD2C0058
:101C4000F2E7002310B59A4200D110BDCC5CC45419
:101C50000133F8E710B5884202D98B18984208D3AF
:101C600000239A4207D0CC5CC4540133F9E78B5C63
:101C70008354013AFBD210BD03008218934200D175
:101C8000704719700133F9E70FB40B4B13B51C689B
:101C9000002C05D0A369002B02D1200000F0E8FA47
:101CA00005AB049AA1682000019300F0BDFC16BCAE
:101CB00008BC04B01847C046F020002070B50500ED
:101CC0000E00002804D08369002B01D100F0D0FA67
:101CD000AB69AC68002B02D1280000F0C9FA244B94
:101CE0009C420FD16C68A3891B0702D52369002B86
:101CF00020D12100280000F04DF900281AD0012041
:101D0000404270BD1B4B9C4201D1AC68EBE71A4BC3
:101D10009C42E8D1EC68E6E7013B0136A360002B6A
:101D200004DAA269934216DB0A2914D023685A1CEC
:101D3000226019703178A3680029EDD1013BA360BE
:101D4000002B0FDA22000A31280000F0CDF8431CE6
:101D5000D5D00A20D5E72200280000F0C5F8431CA2
:101D6000E8D1CCE70A2023685A1C22601870C8E723
:101D7000E81D0710081E0710C81D071010B5034BFB
:101D800001001868FFF79AFF10BDC046F020002040
:101D9000F0B51D004F4B85B01E6804000F00009287
:101DA000002E05D0B369002B02D1300000F060FA9C
:101DB000494B9C4250D17468009B022B05D0012BEB
:101DC00000D984E0002D00DA81E02100300000F02D
:101DD000E1F9616B002908D023004433994202D015
:101DE000300000F051FB002363630023A3616360B4
:101DF000A3891B0603D52169300000F045FBA389A8
:101E0000364A1340A381009B022B5AD003AB02AA8F
:101E10002100300000F0C2FAA3891843A081002DF0
:101E200024D1029D280000F025FB0195071E42D118
:101E3000029B0193AB4239D1012040420223A28987
:101E40001343A3810023A36023004733236023614E
:101E50000123636105B0F0BD214B9C4201D1B46800
:101E6000AAE7204B9C42A7D1F468A5E7002FD9D060
:101E7000B369002B02D1300000F0FAF9009B012B6E
:101E800003D1A389009A1A43A2810820A38927605D
:101E900027616561184018D001201840002398423E
:101EA00011D06D42A360A5611800D3E7019800F03E
:101EB000E1FA071EC0D08023A289019D1343A381AC
:101EC000D6E70020BAE7A560C4E7A060C2E701201A
:101ED0004042BFE7F0200020E81D07105CF3FFFF41
:101EE000081E0710C81D0710F8B505000E001400E5
:101EF000002804D08369002B01D100F0B9F9224BEE
:101F00009C422DD16C68A369A360A3891B0731D5BE
:101F10002369002B2ED023682269F7B2981A6369CF
:101F2000F6B2984205DB2100280000F033F90028C2
:101F300026D1A3680130013BA36023685A1C2260AC
:101F40001F706369984204D0A389DB071AD50A2E53
:101F500018D12100280000F01DF9002812D00FE050
:101F60000A4B9C4201D1AC68CDE7094B9C42CAD1D7
:101F7000EC68C8E72100280000F00CF80028CAD05F
:101F8000012676423000F8BDE81D0710081E071034
:101F9000C81D0710364B70B51D6806000C00002DDB
:101FA00005D0AB69002B02D1280000F061F9314B5C
:101FB0009C420FD16C680C23E25E93B219072DD4BA
:101FC000D90611D409230120336037331343A38189
:101FD000404270BD284B9C4201D1AC68EBE7274BD7
:101FE0009C42E8D1EC68E6E75B0713D5616B0029FA
:101FF00008D023004433994202D0300000F044FA64
:10200000002363632422A3899343A3810023636095
:10201000236923600823A2891343A3812369002B2A
:102020000BD1A0218022A389890092000B4093420A
:1020300003D02100300000F0D9F90123A289134018
:1020400011D00023A36063695B42A3610020236970
:102050008342BED10C23E25E1306BAD5402313435C
:10206000A3810138B5E7920700D46369A360EDE767
:10207000F0200020E81D0710081E0710C81D0710DB
:10208000F7B58A8905000C00130760D44B68002B54
:1020900004DC0B6C002B01DC0020FEBDE76A002F86
:1020A000FAD000232E682B6080235B011A4034D0C5
:1020B000606DA3895B0706D56368C01A636B002B4C
:1020C00001D0236CC01A0200216A00232800E76AAD
:1020D000B847A189431C06D12B681D2B31D82C4A47
:1020E000DA40D3072DD50023636023692360CB0436
:1020F00005D5431C02D12B68002B00D16065616BB4
:102100002E600029C8D023004433994202D0280011
:1021100000F0BAF900206063BFE70123216A2800BC
:10212000B847431CC5D12B68002BC2D01D2B01D052
:10213000162B01D12E60AFE74023A2891343A38160
:10214000ABE740230B430120A3814042A5E70F6981
:10215000002FA1D00B680F60DB1B019300239207B7
:1021600000D14B69A360019B002B00DC94E7019B2D
:102170003A00216A2800A66AB047002803DC402301
:10218000A2891343DFE7019B3F181B1A0193EAE77B
:10219000010040200B6970B505000C00002B01D137
:1021A000002070BD002804D08369002B01D100F00D
:1021B0005FF80B4B9C4209D16C680C22A35E002B8C
:1021C000EED021002800FFF75BFFEAE7054B9C42B9
:1021D00001D1AC68F1E7044B9C42EED1EC68ECE72E
:1021E000E81D0710081E0710C81D071010B502498A
:1021F00000F0B2F810BDC04695210610002310B5BE
:10220000040003604360836081814366C28103618F
:1022100043618361190008225C30FFF72DFD054BF7
:1022200024626362044BA362044BE362044B2363A6
:1022300010BDC046952B0610BD2B0610F52B0610C1
:10224000212C061070B568254A1E55430E00290042
:10225000743100F063F9041E08D000212A000160E7
:1022600046600C30A0606832FFF706FD200070BDAC
:10227000836913B50400002B28D18364C36403650C
:10228000134B144A1B6882620193984201D10123C7
:102290008361200000F020F86060200000F01CF84E
:1022A000A060200000F018F80022E06004216068BF
:1022B000FFF7A4FF01220921A068FFF79FFF022278
:1022C0001221E068FFF79AFF0123A36113BDC04606
:1022D000C41D0710ED210610F8B51E4B07001E683F
:1022E000B369002B02D13000FFF7C2FF4836B46853
:1022F0007368013B04D53368002B07D03668F6E7D6
:102300000C22A55E002D0DD06834F2E704213800C0
:10231000FFF798FF30600028F0D10C2304003B60E9
:102320002000F8BD012320005B42E3810233A3813A
:1023300065662560A560656025616561A561082207
:1023400029005C30FFF798FC6563A563A564E5642C
:10235000E6E7C046C41D0710F7B5040007000026D5
:1023600001914834002C01D13000FEBD6368A5689E
:102370000093009B013B009301D52468F2E7AB89F1
:10238000012B08D90E22AB5E013304D0290038009E
:10239000019B984706436835EBE7000070B50E00D7
:1023A0001D000E23C95E90B01400002907DA002337
:1023B0002B60B3891B0611D48023DB000FE001AA38
:1023C00000F05AFC0028F2DBF022029B12021340BC
:1023D000054A9B185A4253412B60EDE740230020E9
:1023E000236010B070BDC04600E0FFFFF7B50226C5
:1023F0008B8905000C00334206D02300473323604D
:10240000236101236361F7BD01AB6A46FFF7C6FF95
:1024100000990700280000F081F8002808D10C225C
:10242000A35E9A05EFD4032293431E43A681E4E7FB
:102430000F4BAB628023A28920601343A381009BD2
:1024400020616361019B002B0DD00E23E15E28000B
:1024500000F024FC002806D00322A38993431A002D
:1024600001231343A381A0893843A081CBE7C04651
:10247000ED21061010B5034B0100186800F04EF86E
:1024800010BDC046F020002070B50500002910D016
:102490000C1F2368002B00DAE418280000F02FFC42
:1024A0001D4A1368002B05D163601460280000F0FA
:1024B00027FC70BDA34209D9216860188342F3D17B
:1024C00018685B6841182160EEE713005A68002A1B
:1024D00001D0A242F9D919685818A0420BD120683E
:1024E0000918581819608242E0D1106852684118E2
:1024F00019605A60DAE7A04202D90C232B60D5E7B5
:1025000021686018824203D1106852684118216026
:1025100062605C60CAE7C04628200020032370B5D3
:10252000CD1C9D43083506000C2D1ED20C25A9425A
:102530001DD8300000F0E3FB254A14682100002973
:1025400019D1244C2368002B03D1300000F010FB7C
:1025500020602900300000F00BFB431C2CD10C2321
:102560003000336000F0CCFB03E0002DDFDA0C23F9
:102570003360002070BD0B685B1B1AD40B2B03D992
:102580000B60CC18256003E08C420ED163681360A9
:10259000300000F0B5FB200007220B30231D9043D4
:1025A000C31AE7D05A42E250E4E74B6863600C007C
:1025B000EEE70C004968C2E70323C41C9C43A04219
:1025C000E0D0211A300000F0D3FA431CDAD1C6E77C
:1025D000282000202C200020936810B5013B936038
:1025E000002B05DA9469A34208DBCBB20A2B05D095
:1025F0001368581C10601970C8B210BDFFF774FC46
:10260000FBE7F8B506000F001400D518AC4201D165
:10261000002007E021783A003000FFF7DDFF0134A9
:10262000431CF3D1F8BD0000F0B59FB006000F00C9
:1026300014000593002804D08369002B01D1FFF713
:1026400017FE7F4B9F425CD17768BB891B0762D521
:102650003B69002B5FD0002306AD6B6120336B76A6
:102660001033AB760294029C2378002B5DD1029B41
:10267000E31A04930DD0049B029A39003000FFF74F
:10268000C0FF431C00D1CCE06A69049B94466344BC
:102690006B612378002B00D1C3E00122002352425A
:1026A0006A6002A95432521801342B60EB60AB60AF
:1026B0001370AB6521780522624800F015FB631C9E
:1026C0009C46002835D12968CB0604D5532302AA9D
:1026D00020309B1818700B0704D553232B2002AA17
:1026E0009B18187023782A2B2CD000200A21099BD4
:1026F0002278303A092A00D86BE000282AD00993C2
:1027000028E0514B9F4201D1B7689EE74F4B9F4253
:102710009BD1F76899E739003000FFF73BFC0028B0
:1027200099D0012040421FB0F0BD252B9FD001342D
:102730009AE7444B2968C01A012383400B432B605E
:102740006446B7E7059B181D1B680590002B3ADB14
:102750000993644623782E2B0BD16378621C2A2BB5
:102760003FD1059B02341A1D1B680592002B35DBF7
:10277000079321780322364800F0B6FA002807D0E4
:10278000334B2A68C01A4023834013432B60013423
:102790002178631C06222F480293297600F0A4FAC0
:1027A000002844D02C4B002B2FD12968059B0722F1
:1027B000C90528D59B189343083305936B69039A81
:1027C0009B186B614FE75B42EB6002230B432B606E
:1027D000BFE74B4301349B18012089E701235B428B
:1027E000C6E7002314000A201A006B6021783039F4
:1027F000092903D9002BBCD00792BAE74243013420
:1028000052180123F2E70733D5E705AB00933A00EE
:10281000124B2900300000E000BF0390039B0133FE
:10282000CCD1BB895B0600D57BE70B987BE705AB7A
:1028300000933A00094B2900300000F07FF8ECE7E4
:10284000E81D0710281E0710081E0710C81D0710D6
:102850002E1E0710321E071000000000032606106F
:10286000F7B5150001938A680B6900900C0093423C
:1028700000DA130022002B6043321278002A01D0C4
:1028800001332B6023689B0602D52B6802332B6033
:10289000062723681F4027D0230043331B785A1E86
:1028A00093412268920630D4220001994332009865
:1028B000089EB047431C25D0062320682A68E1689B
:1028C00003400025042B03D18D1AEB43DB171D4079
:1028D000A3682269934201DD9B1AED180027BD42CF
:1028E00020D1002010E00137E3682A689B1A9F423C
:1028F000D2DA22000123193201990098089EB047CC
:10290000431CF0D101204042FEBD3020E11843318C
:10291000087021005A1C45310978A218433202334D
:102920001170C1E7220001231A3201990098089E14
:10293000B047431CE6D00137D1E70000F0B58BB0BB
:1029400006920A0043320793059004920A7E0C0017
:10295000109B6E2A00D18FE017D8632A2CD008D89C
:10296000002A00D199E0582A54D02600423632700D
:1029700029E0642A01D0692AF7D121681A6808067B
:1029800023D5111D1960156825E0732A00D188E050
:1029900008D86F2A29D0702AE7D1202209680A4373
:1029A000226003E0752A20D0782ADED12200782127
:1029B000453211706C4A30E00E001A684236111D23
:1029C000196013683370012379E04906D9D5111DC8
:1029D00019600023D55E002D03DA2D23049A6D4281
:1029E0001370624B0A2703932FE0206819680506CD
:1029F00003D5081D18600D6805E04006F9D50D687F
:102A0000081D1860ADB2594B082703936F2A18D0E0
:102A10000A2716E045310A70544A03921A68216861
:102A2000101D18601568080622D5CB0702D5202393
:102A3000194321601027002D03D1202322689A43D7
:102A400022602300002243331A706368A360002BC6
:102A50005CDB0422216891432160002D58D1049E43
:102A6000002B64D02600039B42361B7833705EE057
:102A70004806DAD5ADB2D8E709681A68080605D560
:102A8000111D1960136862691A6006E04906F7D5DE
:102A9000111D19601368A28A1A800023049E236105
:102AA00054E01A68111D1960166800216268300030
:102AB00000F01AF9002801D0801B60606368236170
:102AC0000023049A137041E02369320006990598A7
:102AD000079DA847431C43D0236800259B070FD4BC
:102AE000099BE06898423DDA18003BE02200012390
:102AF000193206990598079EB047431C30D001351E
:102B0000E368099A9B1A9D42F0DBE9E7002DA9D002
:102B1000049E28003900FCF7A7FF039B013E5B5C85
:102B2000280033703900FCF719FF051EF1D1082F7A
:102B300009D12368DB0706D563682269934202DC6A
:102B40003023013E3370049B9B1B2361079B09AA22
:102B500000932100069B0598FFF782FE431CB3D12A
:102B6000012040420BB0F0BD4A1E0710391E07106D
:102B7000002370B5064C050008002360FEF7A4F999
:102B8000431C03D12368002B00D02B6070BDC046CE
:102B90007C20002070B50C000E25495F00F0B2F8D3
:102BA000002803DB636D1B18636570BDA389024AAF
:102BB0001340A381F9E7C046FFEFFFFFF8B51F0000
:102BC0008B8905000C001600DB0505D50E23C95EB8
:102BD0000022022300F074F8A389054A280013405C
:102BE000A38132000E23E15E3B0000F01FF8F8BD28
:102BF000FFEFFFFF70B50C000E25495F00F060F895
:102C0000A389421C03D1054A1340A38170BD8022D1
:102C100052011343A3816065F8E7C046FFEFFFFF51
:102C200010B50E23C95E00F015F810BD70B5050093
:102C3000080011000022064C22601A00FEF76EF90F
:102C4000431C03D12368002B00D02B6070BDC0460D
:102C50007C200020002370B5064C0500080023608E
:102C6000FEF750F9431C03D12368002B00D02B60E2
:102C700070BDC0467C200020002370B5064C0500C6
:102C8000080011002360FEF740F9431C03D12368BC
:102C9000002B00D02B6070BD7C200020002370B57D
:102CA000064C050008002360FEF734F9431C03D1ED
:102CB0002368002B00D02B6070BDC0467C20002014
:102CC00070B50500080011000022064C22601A00B1
:102CD000FEF722F9431C03D12368002B00D02B60A0
:102CE00070BDC0467C200020C9B28218904201D13C
:102CF0000020704703788B42FBD00130F6E7704725
:102D00007047000070B50500080011000022064C55
:102D100022601A00FEF710F9431C03D12368002B30
:102D200000D02B6070BDC0467C200020F0B5054669
:102D300000200F46079E059C174309D0202905D384
:102D40000127BF03BA4201D8914201D94220F0BD08
:102D5000194621430AD09C42F8D309498C4203D03A
:102D60000849A41F8C42F1D2062BEFD3002D03D0CB
:102D7000022D01D0032DE9D1032EE7D8F0BD0000CC
:102D8000FFFF00007B0C00007CB5069D079C00281F
:102D900005D0860705D1460703D4060701D4422093
:102DA0007CBD002903D0012901D00229F7D100956B
:102DB000019400F0D7FA7CBDFFB587B0109D159E39
:102DC000169C01930295009407A807C81F46334636
:102DD000FFF7ACFF00280ED11398149903AA0694AC
:102DE00043C21198129901900095029107A807C853
:102DF0003B4600F015FC0BB0F0BD10B507F068FCC9
:102E000010BD70B51C4613460D46012C03D0022C94
:102E100003D0422070BD022200E010221946FCF7C8
:102E2000A2FF2C70002070BDF0B587B01C460B4689
:102E3000054600A9023101A80C9F0D9EFFF7E1FF96
:102E400000280ED16846058084828775C6750E9964
:102E500001760F994176109981766946119801F0B3
:102E600051F907B0F0BD70B586B014461D460A464C
:102E700003466946881C0A9EFFF7C3FF002804D159
:102E8000012C04D0022C02D0422006B070BD234693
:102E90002A466946304601F07BFBF6E710B5002272
:102EA000114601F025FC10BD10B501F06FFE10BDFC
:102EB000F0B585B084460AA8F0C868468581C68109
:102EC00003A8019002970094604602F037F905B01C
:102ED000F0BD10B502F062FE10BD10B502F080FE2C
:102EE00010BD3EB56C46069D20806180A280E380C7
:102EF0002581684603F096FA3EBD000010B503F048
:102F000039F91E4C4721206849014118097B0029E5
:102F100009D1A0300079C00729D002F0D1FF02F01A
:102F200083FF0BF005FD00F003F9206801464031F6
:102F30000A78C9798A4319D13E21095C002915D143
:102F40000F490A88120711D50922D2061269497A57
:102F5000836AC900591809231B02C018806D801AA2
:102F600000020012814201DA08F07AFE10BD00F082
:102F700037FB01F0A5FC09F099FDD0E7C82000203F
:102F8000C000002010B5837F012200249202416816
:102F9000082B03D94224914202D310E0914201D27E
:102FA00042240CE0014634220648FCF7DCFE00F027
:102FB0007FF8002801DA482401E000F029F92046D2
:102FC00010BD0000CC0200203EB5174D1548296801
:102FD000827F0846A0310A7300246030047644766C
:102FE0008476E122C2768022027702224277302064
:102FF00008704C7002AA01A96846FCF7A3FE684657
:103000000078A22201016846007A891C000201436F
:10301000684600790003014328681152A03004710A
:103020003EBD0000CC020020C820002070B503F097
:1030300085F808F081F907F071F80CF091FA03F0C7
:10304000CDFA184C18492068184D401881100120FD
:103050002A68C0021018C166616889080167A16802
:10306000890841670AF026FE1D2029688001228B0D
:1030700008180287628B4287A28B4286628C828606
:103080002046203002783B2040010818827500213C
:10309000017000F065FA02F0D5FE02F05DFE0BF063
:1030A000CDFC70BDCC0200200000FCEFC820002049
:1030B00070B50025ED43FEF78CF801282ED00023D3
:1030C00018490322888BFF24401E10438A7F4D3409
:1030D00062438218088B282460431218488B3024DE
:1030E000604312180846203040782C2460431018A2
:1030F0000D4A181884184869A0420DD10B48844223
:103100000AD90D69FEF765F8C1B2284605F08AFDB7
:1031100005F0B8FE401B251A284670BDFF23B533C5
:10312000CEE70000CC02002039190000580A000048
:10313000F8B52C4F3C68206E5C34401C002814D03D
:10314000002529480023C07B00283ED00926F6062A
:103150002648002D1CD000210A460B464169521C0E
:10316000994204D1002902D004E00125E9E7204B6F
:103170009A42F2D32160006960603069A168000260
:10318000090E000A09060143A16000F033F81DE0B2
:103190003169A2680902090A150E08D0018BC90716
:1031A00012D04169216000696060E37210E0881A02
:1031B00000027D2300121B03984205DD100E00065D
:1031C0000843A06000F016F8F8BD6360002DFBD046
:1031D00003CC08F075FCFA2008F062FC39688862BC
:1031E000F8BD0000C8200020EC02002000001048BC
:1031F0008813000004490020086104480121006888
:103200006030C1717047000000001048C8200020E5
:10321000F8B5062632484025056032480027078069
:10322000A9050920C00641602F4A9160016801602C
:103230002E48032104694269601E08433946401C38
:10324000FCF795FDFDF7C5FFC1B2204605F0EAFC8D
:1032500005F018FE05F022FE04F0E0FC24491720DA
:103260008881244C2068421901465770FA208862F0
:103270002820107002F021FE012805D120681022BC
:1032800040300178114301700BF037FB012805D164
:103290002068802240300178114301702068014687
:1032A00040300278324302700020C0430866FCF7C9
:1032B000D4FEFFF789FEFFF7B9FE20680121203018
:1032C000017707214177012002F068FC04F00AFD34
:1032D000FFF72EFF02488038056002210160F8BD2B
:1032E00080E100E0C000002040000048CC02002047
:1032F00000001048C820002038B5184A146822463B
:10330000BA32AE34A378DD0701D001290AD05B07B9
:103310000CD501290AD0217949070BD5E17A00297A
:1033200005D007E0E07880210843E07038BD012136
:10333000E172508020794106090FF7D078210840CA
:1033400069460870002048706A460221422000F059
:10335000A9FA207987210840207138BDC8200020B3
:1033600070470000FFB50C4678A103C995B00191E4
:103370000090002108A801730321C9026846418614
:10338000012108A8734E017435681746AE350EF05A
:10339000EFF8002808D170493068401807F0A4F908
:1033A000A878002802D0462019B0F0BD0BA81599C6
:1033B00000F052F90028F7D1072010A90871012C5C
:1033C00005D0022C0AD0002C0ED04220ECE708A831
:1033D000017B1020014308A8017305E011A90BA887
:1033E00000F049F90028DFD110A8027901230CA9C7
:1033F000284601F0CDF800287ED1022229461898EF
:10340000FCF7B1FC298868468181152149020182B7
:103410000784012686734E2108A881700024C47099
:10342000067107214171867103A902A800F06AFEA6
:10343000002861D1022202A91E98FCF794FC082FF3
:1034400002D26846478502E00820694648856946F9
:103450000C850B4628880AAA098901F03BFE002842
:103460006DD13E49684601820227078408A884710D
:1034700003A902A800F046FE002860D1022202A99A
:103480001F98FCF770FC68460470694644704F85CD
:103490000B4628880AAA098901F01CFE00284ED193
:1034A00008A8007BC00723D02C496846C91C0182AC
:1034B0000821018408A88770047103A902A800F0FC
:1034C00021FE00283BD1FF216846C1718171C17086
:1034D000817041700170447104716946082048850B
:1034E0000B4628880AAA098901F0F4FD002826D194
:1034F00008A8007B800600E021E022D529886846E4
:1035000081811649A53101820684867308A88770D7
:10351000C470047107214171847103A902A800F0ED
:10352000F1FD00280BD169460E700C854E850B46C7
:1035300028880AAA098901F0CDFD002801D047207A
:1035400032E708A8007BA87000202DE7626C756543
:103550006E726721C8200020DE060000012A0000EC
:10356000034800210068AE30C170817070470000D0
:10357000C820002038B50246174801240068AE3044
:10358000022A1FD0052A03D0072A07D00B2A20D1F0
:10359000084609794088FFF7AFFE1AE00079002459
:1035A000020600D50124820703D1C20601D4800699
:1035B0000FD5084600216A461170694600F05EF892
:1035C000044606E08178490703D50179FB221140C2
:1035D0000171204638BD0000C8200020704700005F
:1035E0001FB50E480468AE34E078010612D5A17804
:1035F000C9070CD0800708D50420694608736846BF
:1036000002F094FE022000F025F90020E070400650
:10361000400EE07000F02EF81FBD0000C820002012
:10362000F0B58DB00C4616A9E0C9002108910991AA
:103630000A910B911599049105A9E0C112A962C9DB
:1036400000930191134601460396029522460120FC
:1036500000F046F80DB0F0BD0A07920F01D04220ED
:1036600070478A07FBD002788907890F0A430270E6
:1036700000207047704742207047000030B5174B5C
:10368000047A1B68C268AE331B799D06AD0F04D166
:103690000078042801D000200BE0012030BD401C40
:1036A000C0B2155C012D08D01518203DED7F2818FB
:1036B000C0B2A042F3D3087830BD401CDD0701241E
:1036C000C0B2002D02D0105CC00703E09B07F2D50A
:1036D000105C80070028EED00C70ECE7C8200020BA
:1036E000FFB595B00E46054620210CA8FDF73DFC20
:1036F00000200490564800270468681EAE34042851
:1037000002D8A078C0070BD0062D02D0002D0AD019
:1037100002E0A078800703D5E0784006800E0AD04A
:10372000462019B0F0BDA0788007F9D0E0784006B7
:10373000800EF5D00FE0002D0DD0012D20D0022DF0
:1037400028D0062D33D0032D33D0042D37D0002EB2
:103750003BD04220E5E7002007F068FC0028E0D1DC
:10376000E078800708D5042069460873684602F0AF
:10377000DDFD022000F06EF80120E0700020D0E7AF
:10378000012EE6D0042EE4D01F980028E1D10627B0
:10379000042008E0012EDCD0042EDAD01F98002887
:1037A000D7D105270220E0700120049010E04020CE
:1037B0000DE0022E01D0032ECBD1082007E0012E10
:1037C00001D0042EC5D1102001E004272020E07094
:1037D00000230BAA19461E9806F0E4FD030002D050
:1037E00000F0E0F832E01022002107A8FCF7BFFA51
:1037F00007A86C46279B269A1F990FC42B46304674
:10380000189A179900F088F80300E9D108A8017BFD
:10381000C170259803AC049B289A29990FC422AB48
:1038200007CB02920091019039460CA8209B219A67
:1038300000F0C2F80300D3D107A807F00BFF030084
:10384000CED1012007F0F2FB0300C9D1184668E78A
:10385000C820002010B50446C1061148006803D5F1
:103860001522BF210C4006E01B2189014118497E29
:10387000C90710D012222107890E08181121C90189
:103880004018C06F002321460BF022F9010004D03C
:1038900020460BF009F9002010BD072010BD0000E4
:1038A000C8200020F8B5891ECDB20646A81C032109
:1038B0000843401C8308174817460068F10603D5E3
:1038C0001C22BF210E4008E01B2189014118497EBE
:1038D000090601D40020F8BD19223107890E081805
:1038E0001121C9014018C06F31460BF0F1F80400F6
:1038F0000ED03978217179786171A5712A46B91C89
:10390000E01DFCF730FA214630460BF0CDF8E1E738
:103910000720F8BDC8200020F8B5204B204D1B68BB
:1039200001265B19069CB6030093002814D00428D6
:1039300012D0022813D0032811D006252B460128C7
:1039400010D00F4617430DD0914203D8202901D340
:10395000B2420AD94220F8BD30256023EFE7A02506
:10396000F023ECE72580638001E0218062802071F4
:103970000798A071089820720998002805D0014680
:10398000204606220930FCF7EEF907206071009806
:103990002030807B60710020F8BD0000C82000202E
:1039A00008090000034881220068A030417C1140D2
:1039B00041747047C8200020F8B505463D481E46B2
:1039C0000068079F0024AE301346002905D002226C
:1039D0002A7001226A70A9700324002E10D080780A
:1039E0008006800F0CD13019401C1F2852D82E554C
:1039F000641C281932461946FCF7B5F9A019C4B25F
:103A0000002F0DD03819401C1F2843D82F55641C97
:103A1000E4B228193A460699FCF7A5F9E019C4B2B0
:103A20006846008C00281BD06846808C002817D080
:103A3000601D1F282ED805202855641CE0B21221D5
:103A40002954401CC4B228190646022208A9FCF7D2
:103A50008AF9B01C022209A9FCF785F9241DE4B2F9
:103A60000C98002810D0E01C1F2813D802202855DD
:103A7000641CE0B20A212954401CC0B22918401C21
:103A8000C4B2084607F0D2FF0B9800280CD00019EA
:103A90001F2801D94220F8BD28190B9A0A99FCF772
:103AA00062F90B982018C4B22146284607F02EFD73
:103AB000F8BD0000C820002010B50D4900050B68B6
:103AC0000521490259188A690021000DA0331B7B8A
:103AD0000AE04C01145B2405240D844202D1480104
:103AE000801810BD491CC9B28B42F2D8002010BD0D
:103AF000C8200020F8B5069C1F4615460646002C37
:103B000013D0A06802220D30FCF72DF9E81E82B216
:103B10003B460721204606F08FFBE580A068012E7A
:103B200005D01D2101730020F8BD4720F8BD1B21E1
:103B3000F8E70000F1B5FFB08BB0012460020590FA
:103B40000027CC4807970168E320C00008180390BD
:103B50008A98C74D0005000D0AAA05A908F01DFDA9
:103B60000690002872D104260AA805994218203A26
:103B7000D27F0B2A23D00026002004900AA88119A6
:103B8000022201A80291FCF7EEF86846818809AB91
:103B900008AA039801F098FC012817D002287DD0CC
:103BA00068468088854200D30546844200D9204675
:103BB000044602988078012871D013363BE1491EF3
:103BC000761E36040591360CCFD1D5E708980090C3
:103BD000002F79D10099022228310298FCF7CBF806
:103BE00000281ED100982030017B02988078814205
:103BF00017D1012808D10098029902220830C91C67
:103C0000FCF7B9F8002815D002988078022808D16E
:103C10000098029910220830C91CFCF7ACF8002863
:103C200008D00098008DA84200D80546A04200D2D6
:103C30002046044602990AA88978012907D013363C
:103C40000599B6B28E4204D3012707E005E1761D3F
:103C5000F6E78119022201A8FCF785F8039900987C
:103C600008318E462EE084466946026A8B882030F1
:103C70000DE0918B994203D3012F7DD199427BD9DD
:103C8000A94200D80D46A14200D30C4612688242D8
:103C9000EFD10498002817D1604601E015E0BFE09D
:103CA000006870450ED0018D994203D3012F09D1D0
:103CB000994207D98D4200D30D468C4200D80C465C
:103CC000012F59D17045CED1BAE008980090002F4D
:103CD00072D1009902221C310298FCF74CF800289E
:103CE0001ED100982030C17802988078814217D187
:103CF000012808D10098029902220830C91CFCF75B
:103D00003AF800281AD002988078022808D1009842
:103D1000029910220830C91CFCF72DF800280DD09C
:103D20000098808BA84200D80546A04200D22046C9
:103D3000044602988078012826D003E00298807813
:103D4000012805D013360798B6B201281ED021E00D
:103D5000009849490089884216D18A98FFF7ACFE3D
:103D60000146009800F08AF80099098C48430099B0
:103D700089694018022200E038E00299491DFBF7EA
:103D8000F2FF01200790D4E7761DDCE7B61C002087
:103D9000B6B207900598864201D3012705E00AA82C
:103DA0008119022201A8FBF7DEFF039A009908326D
:103DB00009980968944630E01AE086466A46938876
:103DC00020300DE08A8B9A4203D3012F0ED19A4204
:103DD0000CD9AA4200D81546A24200D3144609685D
:103DE0008142EFD1049800282AD102E001200490FA
:103DF00026E07046006860450FD0028D016A9A4245
:103E000003D3012F09D19A4207D9954200D3154611
:103E1000944200D81446012FE8D16045CDD10FE07F
:103E20000298C078022805D102980079292801D18A
:103E3000B61CB6B2761D0598B6B2864200D30127ED
:103E40000598811B042902D3864200D294E6049887
:103E50000028FBD1A54203D906987FB00CB0F0BD75
:103E6000224629468A9801F073FB0690F5E7000088
:103E7000FFFF0000C82000200229000030B50246E4
:103E800023239B5C0020012B1AD112890D4B9A42EF
:103E900016D10D4A052312685B02D318A0329B6924
:103EA000127B0AE045010C885D5B24052D05240D7D
:103EB0002D0DAC4204D0401CC0B28242F2D800208A
:103EC00030BD000002290000C8200020830810B582
:103ED0000A4800210268052040021018A0328069BB
:103EE000127B07E04C01045B002C01D0994204D006
:103EF000491CC9B28A42F5D8002010BDC820002054
:103F000010B50446022000F033F80D480021026885
:103F1000052040021018A0328369107B05E04A0199
:103F20009A5A002A04D0491CC9B28842F7D810BD59
:103F300048011C52C018026904210A43026110BDE5
:103F4000C820002010B504460146042002F068FC99
:103F5000002809D00548E3210068C900401821461F
:103F60003C300BF017FC432010BD0000C82000209F
:103F700004490A683B21490151180A7802430A7032
:103F800070470000C820002000B51138C0B2FFF70C
:103F90009DFF002804D001220169520511430161EF
:103FA00000BD0000F3B597B00D8848880590081D46
:103FB0001DC80DAE1DC68C8ACE8A087E1390C869B6
:103FC0002031019008780090487804908878039018
:103FD000C87802900F7900F0BFFD002817D10120AA
:103FE000400284425FD8B4425DD8002F01D1B44270
:103FF00059D114A9284601F095FA002806D115AA2E
:104000001499059801F07EFA002802D0602019B0BA
:10401000F0BD149D11A92846183006F0B9FB10A870
:104020008088002810D0284612A9203006F0B0FB66
:1040300010A8838800892A8D1818696A10188A8B3D
:10404000904203D16120E2E74820E0E715982C4B2D
:1040500002899A4227D12322125C012A23D10068C7
:1040600000681690139801281FD16846808E292277
:104070001202801A030001F04AFD06041804040726
:104080000A18022C0FD110E0072C0CD10DE0042CE3
:1040900009D3E00707D1012F07D1A64203D3042E8D
:1040A00001D3F00701D04220B1E702980B90039BA7
:1040B000049A0A9309920098019A0C970890069620
:1040C000059407920DA81DC8019002A81CC0139862
:1040D0000B4600902A461699179800F0AFF9002871
:1040E00095D168460649808EFF31884205D01798E1
:1040F000018800200A4601F02BFA002087E7000023
:1041000003280000F3B5A5B008881A9088780C46FB
:1041100011901022091D13A8FCF71FFFA08A109010
:10412000A17D68460172E07D0F90207E2090677E21
:10413000A07E1F90002006460146129020A8018113
:104140000F20BB4C2390E3212068C9004018199030
:1041500000F002FD00280BD101211098490288428D
:104160005FD821A91A9801F0DDF9002802D060205B
:1041700027B0F0BD2198179006F0AEFA1A99884240
:104180000CD102A801901698009013AD0ECD119895
:1041900006F066FA002801D06320E9E76846017A54
:1041A0008806800F05D0012012902068A030007B87
:1041B0004600C80703D01298401CB61C129008068F
:1041C00003D51298401CB61C129017980DA91830F0
:1041D0001D9006F0DDFA6846129C808EA41CA04259
:1041E00037D317980EA92030019006F0D1FA68460F
:1041F000018F00290DD01798179A6B46406A9B8E45
:10420000128D5918808B5118081AA04201D26120D2
:10421000AEE71798846911982568012803D0022811
:1042200003D04220A4E7052000E01320E0832A46C3
:1042300039460F9806F062FA422899D0199FE28B0E
:104240004037788B398B411A1098101880198142A9
:1042500001DA48208CE70EA9019806F099FA684621
:10426000008F0028179802D0406A808B00E0008DF4
:104270002599401C0880259801210088A083259855
:1042800002220088401CA8836A48208120462030F2
:104290001790C1700021817081711998398B406D20
:1042A00040186946A061097A0170A06929461C314D
:1042B000401CFBF758FD11980128A0697ED0102200
:1042C00013A9C01CFBF74FFD2846102213A9083084
:1042D000FBF749FD388B133038832E462036119872
:1042E000F0701098E8831F98B07010982084109890
:1042F00028841998398B406D4018A8610021109AC4
:10430000FBF735FD398B1098081838831799012071
:10431000087117990020487130716846007A81074A
:1043200001D50121317101070227002902DA317913
:1043300039433171410703D5317904221143317179
:10434000400603D530790821084330710F98707109
:104350002098B07121461D9806F043FA2146019835
:1043600006F020FA29461D9806F03BFA29460198E6
:1043700006F018FA1298002841D068461A998181EF
:10438000A18BC18107844784012408A8047122A855
:104390000A9008A88473239941730F99382001402B
:1043A00008A801730721C173002505746846007AC7
:1043B000C00708D020486946088200E02AE003A927
:1043C00024A8FFF7EFFD6846007A8006800F07D02B
:1043D00019486946401E088203A924A8FFF7E2FD98
:1043E0006846007A00060AD529210902684601823A
:1043F00008A84473057303A924A8FFF7D3FD2598E3
:1044000001881298401C081882B2002001F0A0F820
:104410000020ADE6022213A9C01CFBF7A4FC28462D
:10442000022213A90830FBF79EFC388B401D53E78E
:10443000C82000200328000003290000FFB55248CF
:10444000E322006887B0D2008218069210AA109B5F
:104450000126169F9288012B04D14C4B9A4201D120
:10446000A030067B069D34464035688B2B8B7C4301
:10447000C31A099820300390A34222DA48200BB0D7
:10448000F0BD2320405C012819D108896C462080AA
:1044900098420CD03D4C641EA04208D0641CA0423F
:1044A00005D0641CA04202D0A41CA04207D1374C06
:1044B000FF3CA04201D0904201D16220DFE70968B1
:1044C00001E029231B0203988142DAD109981B9944
:1044D00084691898224606F011F94228CFD01C981A
:1044E000012804D11598874201D24220C7E71598C8
:1044F000E083204620301C990590817027840A981B
:10450000808B401CA0831098012814D020461022D4
:1045100011A90830FBF727FC05991098C870069878
:10452000298B406D4018A061298B384670430818CC
:10453000288300250FE011A80FC808340FC4183CC9
:10454000EAE72846A16978430818159A1799FBF7F6
:104550000AFC6D1CEDB2B542F3D305991898487169
:1045600005991998087105991A9888710998214632
:10457000183006F036F92146039806F013F907982B
:10458000A18B018000207AE7C820002002290000CA
:10459000FFB58FB014460E78102205A8891CFCF7D1
:1045A000DCFC5048E3210068C900451800F0D4FA4B
:1045B00000281ED1002C57D0012E09D16846808AD0
:1045C0004949884204D12846A968083081424BD124
:1045D0002846103029690390814209D00AA928464B
:1045E00006F0D6F86846018D601E0D90814202D219
:1045F000482013B0F0BD284608300CA9049006F0FE
:10460000C7F86846008E002814D0EF680AA938461B
:10461000183006F0BDF8384620300CA906F0B8F87E
:104620006846398D008D09186846008E401C0818B0
:1046300087B200E0012701200004C01BA04201D284
:104640006120D6E72C69286801901298012802D0D1
:10465000022803D008E00520C00200E0234860855E
:10466000012E03D0022E05D04220C2E7204608309A
:10467000022202E020460830102205A9FBF773FB56
:10468000204631462030064601730F9821460780A8
:104690002785039806F0A5F82146049806F082F8CD
:1046A00027461837E7616662A76126620D9884B2D3
:1046B0000BE02846019906F094F83846019906F077
:1046C00071F82868641EA4B20190002CF1D10F98F3
:1046D00001880D98081882B2002000F039FF0020F0
:1046E00087E70000C8200020011800000128000012
:1046F000F7B5064639480F460068E321C90044185B
:1047000082B03046FFF7D8F9050064D02046243047
:1047100000900BF055F800285DD1286900035AD5A8
:1047200000980BF007F8044653E0A088B0424FD140
:1047300020223146002005F0CFFC06001CD0A068E6
:10474000002F017B427B19D0334604980BF096FB77
:10475000002001212A69C9048A432A6100282ED039
:10476000692806D03046FFF7EDFB29691020014388
:104770002961002005B0F0BD6420FBE70A2906D0BE
:104780000C290AD00E290ED0082912D023E0324677
:10479000214628460CF028FCDBE732462146284615
:1047A0000CF05EF8D5E73246214628460CF052FB65
:1047B000CFE73246214628460CF0E4F9C9E7214606
:1047C00000980BF004F80121204605F0E1FCC9E750
:1047D0002468002CA9D14120CCE70000C82000208B
:1047E00002460948E3210068C90041188868083179
:1047F00003E0038D934202D200688842F9D18842D7
:1048000000D1002070470000C8200020034610B5EA
:104810000F48E3210068C90041188868083103E0A7
:10482000148D9C4203D8104602688A42F8D18A420D
:104830000CD1018D994209D20146026A20318A4287
:1048400003D0416A898B994200D2002010BD00003C
:10485000C8200020024610B50B481205016805204B
:104860004002081883690020120DA031097B07E07F
:1048700044011C5B2405240D944203D0401CC0B2AB
:104880008142F5D810BD0000C8200020F7B50546CC
:10489000174601980AF04EFF2E050446360D0CE02F
:1048A000A0882568B04207D1214601980AF08FFF01
:1048B0003946204605F06CFC2C46002CF0D1FEBD9C
:1048C000F0B58BB0002064490290E3200A68C00074
:1048D000141872B610464030C57902231D43C571C5
:1048E00062B625464035287AC0077DD005204002B3
:1048F0001018002687694AE071017A5A002A44D0CC
:10490000C919069109694A021FD48A0227D50221D2
:1049100004910699012309880905090D03911B21BA
:1049200089014118C97E89070FD51121C9010830B5
:1049300040182322C06F02210AF0CAF8010004D0F7
:10494000039A8A8004980AF0AFF8069800880090CD
:10495000069800F083F8009809F09DF915E04807E3
:1049600013D5069800880005000D09F070F900289D
:1049700005D1069800880005000DFFF7DBF80699C1
:1049800004200969814306980161761CF6B2324819
:10499000AC210068095CB142AED800F001FF2046AE
:1049A000243006460AF00CFF012802D0012000F056
:1049B000F9FD204618300AF003FF012802D000203C
:1049C00000F0F0FD3C3420460AF0FAFE01280FD03A
:1049D00002A920460AF01DFF0420029901F020FFE1
:1049E0000028F0D0204600E034E002990AF0BFFE33
:1049F000287A00062ED530460AF0E2FE012829D199
:104A0000002005F045FBA98B23314909491CC9B297
:104A1000FBF72AF800281DD00F4D04462868112105
:104A2000C90108304018422601233822C06F3146A0
:104A30000AF04EF801000DD000228A80CC8030466A
:104A40000AF032F83B212A68490151180A7880207F
:104A500082430A700BB0F0BDC8200020F0B50446B8
:104A60003C48E3210068C9004518218A85B08904C3
:104A70001AD5022104911B2189014118497F412641
:104A800027880123C9070FD01121C9010830401818
:104A90003122C06F02210AF01BF8010004D08F8080
:104AA0008E7104980AF000F82946208801221831F6
:104AB000FFF7ECFE2946208801223031FFF7E6FEA1
:104AC0002946208801222431FFF7E0FE294620886C
:104AD00000223C31FFF7DAFE20880005000DFFF7C9
