:020000041004E6
:100000000060002075030410510504106D050410F4
:10001000AA5555AA45554C420000000000000000BA
:10002000000000000000000000000000890504102E
:100030000000000000000000A5050410C105041028
:10004000DD050410F90504100000000000000000A8
:1000500015060410310604104D060410690604103C
:100060000000000000000000000000000000000090
:100070000000000085060410A1060410BD0604104F
:1000800000000000D9060410F90604101907041036
:100090003907041059070410790204107907041075
:1000A0000000000000000000000000000000000050
:1000B0000000000000000000000000000000000040
:1000C000EFF31482EFF30981002080F31488BFF36B
:1000D0006F8FF0B543464C4655465E466746F8B4CA
:1000E000164CEFF30883236006B4154C2068154CBA
:1000F0002060154C2068154C2060154C2068154C6C
:100100002060154C276800202060BFF34F8F30BF60
:1001100027600A4C246884F3088882B003BCF8BCCA
:100120009846A146AA46B346BC46F0BC04BC80F340
:10013000098881F31488BFF36F8F104708000020EF
:1001400004ED00E0D802002024ED00E0CC02002005
:1001500000E200E0DC020020080020400E4AD369E3
:100160001B061B0F4370D9B2D3690C4A1B07944678
:100170001B0F83700A4B1B68436063445A42534110
:1001800001330370002901D101234370054B9B8A81
:1001900001339B008360704700009040BF5FFFFD0C
:1001A0002800904000001040084B1A68084B9A4203
:1001B00000D070473F23074A40061381000C2E3BB6
:1001C00090611380138ADB07FCD5F2E7140000204E
:1001D000CCBCECFC00001040244B1A7A244BD2B269
:1001E0001B899BB2002A09D0022A3DD00220042A92
:1001F00003D00020082A00D1033070471A00093AC2
:10020000782A18D8092206201A40092AF5D0112286
:1002100001301A40112AF0D0212201301A40212A3F
:10022000EBD0412201301A40412AE6D08122013030
:100230001A40812AE1D002221900FF3211400B201E
:100240009142DAD019000B4A013011409142D4D0CA
:10025000052207381A40052ACFD002381840033843
:10026000434258418000C8E70120C6E700009040A3
:1002700000001048010400007047C046012130B55D
:10028000364A85B0137A03240B4313720022344B91
:100290001A606B46DD1CFFF79FFF28702B78002B40
:1002A00003D1013CE4B2002CF5D12B78052B02D808
:1002B000012005B030BD2B780B2B1BD001AC2000EA
:1002C000FFF74CFF6378A2781B011343112B17DC57
:1002D000244B1B681B070DD59023234ADB051969A6
:1002E0001368283B5B1A1B02002B03DD9023126866
:1002F000DB055A6001221D4B1A70FFF70AFFFEE76B
:10030000184B1B681B0717D59021174AC9050869A8
:100310001368283B1B1A1B02002BEBDD8020144BBB
:1003200040021B041B0C0343CB60CB680342DDD0AF
:10033000CB680342F9D1D9E7802290210C4B5202BD
:100340001B041B0C1343C905CB60CB681342FCD1C3
:100350000122064B1A70FFF7DCFED0E700002040B8
:1003600014000020C0000020180000200C00002015
:10037000D002002010B5FFF781FF012805D01B4BEC
:1003800083F3088800F048F810BD1948194B9842CB
:1003900007D2C243D218920801329200164900F0E7
:1003A000FBF91648164B984207D2C243D21892085E
:1003B00001329200134900F0EFF91348134B9842B1
:1003C00007D2C243D218920801329200002100F0F5
:1003D000ECF90F480F4B9842D1D2C243D218920881
:1003E00001329200002100F0E0F9C8E7006000202F
:1003F000E0020020E002002000F8051008000020C4
:1004000034000020BC070410C0000020CC020020F3
:10041000CC020020E0020020434B70B51B68002B8B
:1004200003D1424B1B68002B32D03F4B1A68404B24
:100430009A4229D03C4B3E4A1B6893426ED03A4BBD
:100440001B68002B03D1394B1B68013320D0364B7E
:100450001A68374B9A4256D0334B1B68002B04D195
:10046000324B1A68324B9A4234D02F4B1B680133FF
:100470002CD02D4B1B6801334AD02B4B1B6801330A
:1004800001D12A4B1B68FEE7284B1B68002BD1D1FA
:10049000284B294A02E0043393420FD019680131F6
:1004A000F9D03F24254D264B2B6020000134A4B207
:1004B000FFF77AFE7D2CF8D100232B60214B224AD6
:1004C00012681B6883F308889047FEE7174B1B6888
:1004D000002BCED11B4B174A02E00433934210D0BD
:1004E00019680131F9D00124144D154B2B602000FF
:1004F0000134A4B2FFF758FE3F2CF8D100232B6043
:100500000C4B124ADCE7094B1B680133A4D1BFE74F
:10051000064B1A68064B9A42AFD1DBE7034A1268D2
:100520009A428CD1B4E7C0461008041010F80510A8
:10053000AA5555AA00F8051000E80710140000207D
:10054000CCBCECFC000804100408041004F80510EE
:10055000044B054A1B6810B5934202D09B6898472C
:1005600010BDFEE71000002000000410044B054AF7
:100570001B6810B5934202D0DB68984710BDFEE7B8
:100580001000002000000410044B054A1B6810B541
:10059000934202D0DB6A984710BDFEE710000020AE
:1005A00000000410044B054A1B6810B5934202D0AA
:1005B0009B6B984710BDFEE7100000200000041060
:1005C000044B054A1B6810B5934202D0DB6B984779
:1005D00010BDFEE71000002000000410044B054A87
:1005E0001B6810B5934202D01B6C984710BDFEE704
:1005F0001000002000000410044B054A1B6810B5D1
:10060000934202D05B6C984710BDFEE710000020BB
:1006100000000410044B054A1B6810B5934202D039
:100620001B6D984710BDFEE710000020000004106D
:10063000044B054A1B6810B5934202D05B6D984786
:1006400010BDFEE71000002000000410044B054A16
:100650001B6810B5934202D09B6D984710BDFEE712
:100660001000002000000410044B054A1B6810B560
:10067000934202D0DB6D984710BDFEE710000020CA
:1006800000000410044B054A1B6810B5934202D0C9
:100690005B6F984710BDFEE71000002000000410BB
:1006A000044B054A1B6810B5934202D09B6F9847D4
:1006B00010BDFEE71000002000000410044B054AA6
:1006C0001B6810B5934202D0DB6F984710BDFEE760
:1006D0001000002000000410054B064A1B6810B5EE
:1006E000934203D084229B58984710BDFEE7C04632
:1006F0001000002000000410054B064A1B6810B5CE
:10070000934203D088229B58984710BDFEE7C0460D
:100710001000002000000410054B064A1B6810B5AD
:10072000934203D08C229B58984710BDFEE7C046E9
:100730001000002000000410054B064A1B6810B58D
:10074000934203D090229B58984710BDFEE7C046C5
:100750001000002000000410054B064A1B6810B56D
:10076000934203D094229B58984710BDFEE7C046A1
:100770001000002000000410054B064A1B6810B54D
:10078000934203D09C229B58984710BDFEE7C04679
:100790001000002000000410002310B59A4200D180
:1007A00010BDCC5CC4540133F8E7030082189342B7
:0C07B00000D1704719700133F9E7000018
:1007BC000000000000000000000004100000000019
:1007CC00000000000000000000000000000000001D
:0C07DC0000000000000000000000000011
:04000005100403756B
:00000001FF
:020000041004E6
:100800000060002045190410411D0410431D041010
:10081000AA5555AA45554C420000000000000000B2
:10082000000000000000000000000000451D041052
:100830000000000000000000A7170410471D04106E
:100840004F1D0410A9170410000000000000000054
:10085000511D0410AB170410591D0410B7170410D4
:100860000000000000000000000000000000000088
:1008700000000000B9170410BB170410BD170410C6
:1008800000000000AD170410AF170410B1170410DA
:10089000B3170410B5170410A3170410A5170410FC
:1008A0000000000000000000000000000000000048
:1008B0000000000000000000000000000000000038
:1008C000EFF31482EFF30981002080F31488BFF363
:1008D0006F8FF0B543464C4655465E466746F8B4C2
:1008E000164CEFF30883236006B4154C2068154CB2
:1008F0002060154C2068154C2060154C2068154C64
:100900002060154C276800202060BFF34F8F30BF58
:1009100027600A4C246884F3088882B003BCF8BCC2
:100920009846A146AA46B346BC46F0BC04BC80F338
:10093000098881F31488BFF36F8F104708000020E7
:1009400004ED00E05019002024ED00E044190020DF
:1009500000E200E054190020080020400022430873
:100960008B4274D303098B425FD3030A8B4244D377
:10097000030B8B4228D3030C8B420DD3FF220902B9
:1009800012BA030C8B4202D31212090265D0030B78
:100990008B4219D300E0090AC30B8B4201D3CB036E
:1009A000C01A5241830B8B4201D38B03C01A5241B0
:1009B000430B8B4201D34B03C01A5241030B8B42B2
:1009C00001D30B03C01A5241C30A8B4201D3CB029D
:1009D000C01A5241830A8B4201D38B02C01A524182
:1009E000430A8B4201D34B02C01A5241030A8B4285
:1009F00001D30B02C01A5241CDD2C3098B4201D39D
:100A0000CB01C01A524183098B4201D38B01C01A1A
:100A1000524143098B4201D34B01C01A5241030991
:100A20008B4201D30B01C01A5241C3088B4201D340
:100A3000CB00C01A524183088B4201D38B00C01AED
:100A4000524143088B4201D34B00C01A5241411A14
:100A500000D20146524110467047FFE701B5002021
:100A600000F006F802BDC0460029F7D076E77047CF
:100A70007047C046437802781B021A438378C078D7
:100A80001B041343000618437047C046030A4B700B
:100A9000030C8B70030E0870CB70704703005A78FC
:100AA0000078120202439878197900040243D8783A
:100AB000000610435A7912020A43997909040A433D
:100AC000D979090611437047030A5370030C9370D8
:100AD000030ED3700B0A53710B0C93710B0E107035
:100AE0001171D3717047C046024A13680133136015
:100AF0007047C04600030020C021074A074B084842
:100B00005360036A09061B021B0A0B43036200239E
:100B1000936007331360704710E000E07E3E0000F2
:100B200000ED00E00E4AD3691B061B0F4370D9B2DB
:100B3000D3690C4A1B071B0F83700B4B1B68436068
:100B400093420BD102230370002901D1012343708A
:100B5000064B9B8A01339B00836070470123F2E7B9
:100B60000000904041A0000228009040000010408A
:100B7000F0B5070085B001AC0E0020001500FFF7AE
:100B8000D1FF23783B7063783370A3782B7005B066
:100B9000F0BD10B501F013FB10BD10B501F02AFB3C
:100BA00010BD10B501F0FCFA10BD0000024A138A16
:100BB000DB07FCD57047C04600001040084B10B55D
:100BC0001A68084B9A4209D13F22074B40061A8106
:100BD000000C2E3A98611A80FFF7E8FF10BDC0465E
:100BE00014000020CCBCECFC00001040084B10B5F9
:100BF0001A68084B9A4209D13F22074B80081A8194
:100C00000C3A986119641A80FFF7D0FF10BDC046F6
:100C100014000020CCBCECFC00001040F7B50190A3
:100C200001790468002931D18022D2055368A34399
:100C30005360019B20251E68802300226D42DB0546
:100C400034000120D44004420BD0D4B2072A26D865
:100C500097000E30B840DC6A84430800B840044373
:100C6000DC62013204351A2AEAD1019B5A798023C9
:100C7000DB05012A3AD1DA683243DA60019A9279C7
:100C8000012A36D19A6816439E60F7BD0629D0D155
:100C90008022D2055368002123435360C9E727000F
:100CA000083F072F08D80F27AF401C6BBC430F002D
:100CB000AF403C431C63D4E7103C072C0AD82F00FC
:100CC0000F20203FB8405C6B84430800B8400443C9
:100CD0005C63C6E72F000F20403FB8401C8F844361
:100CE0000800B8400443A4B21C87BAE7DA68B243EC
:100CF000C3E79A68B2439A60C7E7002303600371B1
:100D00008371437170478023DB05012901D1D863CA
:100D100070471864FCE70000012270B503880D00DD
:100D20009343038049790400080023880232274E48
:100D300010404003334003432380254B4900C85AE9
:100D40002968244B4843181A234B994229D8490053
:100D5000FFF704FE3022238893432380C023626878
:100D600092B29B02134363606368EA889B0A9B020A
:100D700013430322062180B2636020852B791A4039
:100D8000238852008B43134323802A7A0823012AA5
:100D900018D1228813432380012322881343238000
:100DA00070BD0E4B9942DFD85143FFF7D7FD30227B
:100DB000238893431A0010231343238062688023FF
:100DC00092B2CEE722889A432280E5E7FF9FFFFF99
:100DD000D01900200024F400A0860100801A06002B
:100DE000034B0360002303714371C3800372704798
:100DF000881300008A880B881343CA8813430A8922
:100E000013434A8849895200C9030A431343C36004
:100E1000704701747047007EC0B27047802302881B
:100E2000134303807047022300680006C00F181A9E
:100E30007047006B0840411E8841C0B27047816313
:100E4000704740690007800F7047C02380211B0650
:100E50001A680A431A601A688A431A6070470000C9
:100E6000044B1A6A012902D1104318627047824369
:100E70001A62FBE700009040244B1A7A244BD2B24E
:100E80001B899BB2002A36D11A00093A782A19D850
:100E900009211A0006200A408A422BD01122013073
:100EA0001A40112A26D0212201301A40212A21D0AD
:100EB000412208001A40412A1CD0812201301A40E8
:100EC000812A17D002221900FF3211400B209142D3
:100ED00010D019000F4A0130114091420AD01A0077
:100EE00007380240824205D0023818400338434296
:100EF0005841800070470120022AFBD00018042AC4
:100F0000F8D00020082AF5D10330F3E70000904024
:100F10000000104801040000054B0122196B002855
:100F200002D00A431A63704791431963FBE7C04636
:100F300000003040F8B54A4C0500236B01681B07E0
:100F400000D56DE009014748FFF708FDC3099AB2D3
:100F5000A284454ADB0101301340C01A400880B228
:100F60003F2802D93F233F381840032760263F4BD4
:100F7000C0B218703E4B2A7918783A405201B043FB
:100F80001043187001206979227F39404901B2432A
:100F90000A432277AA7919780240BA400730814380
:100FA00011431970217F81430A432277EA79002A8D
:100FB00038D102211A788A431A70227F8A4301208D
:100FC00022772A7A216B1600C2402A4F0640760209
:100FD000394031432163216B274E024031401202D8
:100FE0000A432263697A226B0E00C140234F0640F8
:100FF0003A40B60332432263226B214E0140324015
:10100000C90311432163AA7A197802400F301201F3
:10101000814311431970237F83431A432277F8BD1C
:10102000C90090E7022A0CD10420197811431970E5
:10103000197881431970217F0A432277227F8243E6
:10104000BDE702211A780A431A7004221878104367
:101050001870207F01432177217F0A43AFE7C04604
:10106000000030400000127A80FF7F0028003040EE
:101070002C003040FFFDFFFFFFFEFFFFFFBFFFFF23
:10108000FF7FFFFF044B1A8F002902D010431887FF
:10109000704782431A87FBE700003040024BC005CF
:1010A000C00D18807047C04600003040014B1888C2
:1010B000C0B2704700003040054B002805DA5B687D
:1010C0001840431E9841C0B270471B8BF8E7C046DA
:1010D00000003040034B9B8F1840431E9841C0B224
:1010E0007047C046000030400722024038200449C3
:1010F000D2000B7883431800104308707047C04635
:1011000034003040F0B583780178002B33D040783C
:101110004AB28001002A1BDA0F230B40083B1B4A0E
:101120009B089B009B18FF22032517000D40ED0034
:10113000AF400240AA40DE69BE433243DA611F225B
:101140004B0911401E3A8A4011499B00CA50F0BD1C
:10115000FF270F4B92089200D21803233C00C025B2
:101160000B40DB009C4038409840AD005659A643E8
:1011700030435051E3E71F234A090B4001219940B6
:101180001300034A20339B00D150E0E700ED00E05C
:1011900000E100E00A0010B50100024801F032F859
:1011A000FEE7C0469E18051037B50D00012903D98A
:1011B0000F491048FFF7EEFF6B46DC1D202201238C
:1011C0005F21200000F052FA012300280DD17F2278
:1011D0002178ED011140294321705F3A5F21200001
:1011E00000F0FEF9431E9841C3B218003EBDC04650
:1011F000610200006518051073B50B0040260D0054
:10120000B34303D00E490F48FFF7C4FF6B46DC1D04
:10121000222201235F21200000F028FA0123002868
:101220000BD122785F21B243154320002222257082
:1012300000F0D6F9431E9841C3B2180076BDC046EF
:10124000390300006518051037B501AC0D00012306
:1012500060221E21200000F009FA032321781D409E
:10126000994329432170023B60221E21200000F097
:10127000B7F93EBD37B501AC0D00022310225D2148
:10128000200000F0F3F9032370212B401A0123788A
:101290008B4313430122237002232911114048007C
:1012A0006178ED10994301431540914329436170E2
:1012B0000F325D21200000F093F93EBD37B501AC3F
:1012C0000D00012310226B21200000F0CFF90F2325
:1012D00021782D011940294321700E3B10226B21EA
:1012E000200000F07DF93EBD37B501AC0D000123B3
:1012F00011226B21200000F0B9F90F2321782D0174
:101300001940294321700E3B11226B21200000F06F
:1013100067F93EBD37B501AC0D00012312226B21E8
:10132000200000F0A3F90123102221781D402D0197
:1013300091432943217002326B21200000F050F9C3
:101340003EBD37B501AC0D00012312226B212000F8
:1013500000F08CF90123202221781D406D0191437A
:10136000294321700E3A6B21200000F039F93EBD6F
:1013700010B504002020FFF79FFE0128FAD0A0B28C
:10138000FFF78CFE10BDF0B5012187B006000920E3
:10139000FFF766FD80230024012501AF5B003800C4
:1013A00001933D71BC717C71FFF738FC80233800DC
:1013B0001B0101933D71FFF731FC032303A8037167
:1013C000437103728471C471447285720396FFF78E
:1013D000B1FD2000FFF788FE2800FFF79DFD07B054
:1013E000F0BD042313B5040001A80370013B437052
:1013F0008470FFF787FE21001020FFF743FE13BD26
:10140000094B10B51860E1204002FFF7BCFF012036
:10141000FFF7E7FF054B02221868002380681900D8
:1014200000F074FF10BDC04604030020DC1900204A
:1014300010B5FFF79DFF10BD034B10B51B68002BC7
:1014400000D0984710BDC0460403002007B5102007
:10145000FFF740FE002809D107BDFFF727FE6B46C6
:10146000D871073301211800FFF7E6FF1020FFF7BE
:1014700023FE0028F1D0EFE701000A4A0A4810B520
:101480001368046801209C4209D00848C05C0133FD
:10149000087080210020C9008B4201D0136010BD6C
:1014A0001060FCE70C07002008070020080300205C
:1014B00010B50400C0B2FFF75BFF200010BD0000B4
:1014C0000B4A10B513680B49002B00D11160802422
:1014D0001368640118180919884205D90C220120E3
:1014E000054B40421A6010BD10601800FBE7C04673
:1014F0001017002010070020801900200120404212
:10150000704780239B0100204B607047012070478B
:101510000020704770B50E0015000C00A31B9D4203
:1015200001DC280070BD2078FFF722FF0134F5E7C9
:1015300070B50E0015000024AC4208D23019FFF738
:101540009BFF002801D10134F6E7002CF4D02000E5
:1015500070BD10B500F033FE10BD10B500F02FFEC9
:1015600010BD10B50A00002100F044FE10BD0000BF
:101570000222014B1A70704714170020F0B50121A8
:1015800087B006001348FFF76BFC002510230427E3
:1015900001AC200001932771A5716571FFF73EFB37
:1015A00020232771200003AC0193FFF737FB2000B5
:1015B000FFF716FC01230396074E2100300023712C
:1015C000FFF7AAFB30000549FFF739FC280007B0F8
:1015D000F0BDC046010400000000A0407F809F7362
:1015E000F0B51E00002385B001AD2B80AB808023B9
:1015F0005B01EB808023DB0104002B811948731C05
:10160000170069806B81FFF709FC1648FFF70BFC98
:101610000128FAD029001348FFF7ECFB39001148E4
:10162000FFF7F7FBA619B44213D1802424030D4819
:10163000FFF707FC032812D021000A48FFF7F9FB47
:101640000028F4D007480849FFF7F9FB002005B04F
:10165000F0BD21780348FFF7DCFB0134E3E701200C
:10166000F5E7C0460000A04000000810F0B587B0C4
:10167000170001938022002303AC050023808EB263
:10168000A380520123812C4801336680E28063816C
:10169000FFF7C4FB2848FFF7C6FB0128FAD021005A
:1016A0002548FFF7A7FB390023488027FFF7B1FB48
:1016B0007F052148FFF7C5FB032802D1012007B0B1
:1016C000F0BD39001C48FFF7B4FB0028F1D08021A1
:1016D00019484905FFF7B3FB012323800023A380AA
:1016E00080235B01E3808023DB0123816B469B88A1
:1016F00066806381210010488024FFF77BFB240370
:101700000D48FFF79EFB0328D8D021000A48FFF7B9
:1017100090FB0028F4D009490748FFF790FB019B94
:10172000EC18A54201D10020C9E70348FFF773FB7D
:1017300028700135F5E7C0460000A0400000081001
:10174000012804D00123022803D0082301E08023CC
:10175000DB011800704710B5FFF7F2FF0021FFF71B
:10176000D2FA10BD10B5FFF7EBFF0121FFF7CBFA5E
:1017700010BD13B5012104000800FFF771FB200024
:10178000FFF7DEFF6A460623137100230090937172
:10179000684601335371FFF741FA2000FFF7E2FF7B
:1017A00013BD704770477047704770477047704768
:1017B0007047704770477047704770477047000028
:1017C000002210B5104B995CC9B2002917D11C2A10
:1017D00014DC022021249854501C1C54901C193CE9
:1017E0001C54D01C19549B18802290219BB2520289
:1017F0001343C905CB60CB681342FCD110BD995C83
:1018000001315218D2B2DEE715170020002330B59F
:101810000E4AD15CC9B2002913D11C2B08DC02246A
:101820003525D4545C1C15559C1C03331055D154DC
:101830000222074B1A7033325A7000229870DA7005
:1018400030BDD15C01315B18DBB2E2E71517002037
:101850004819002010B5104B00280AD08022902192
:101860009BB252021343C905CB60CB681342FCD133
:1018700010BD042198789A789CB28A439A7080228D
:10188000902152021443C905C0B2CC60CC68144206
:10189000FCD19870ECE7C04648190020012330B510
:1018A000234A0324117A85B00B4313720022214B83
:1018B0001A60FFF7E1FA6B46033318701A78002AB2
:1018C00003D1013CE4B2002CF3D11A78052A2BD9BC
:1018D0001B780B2B10D001AC2000FFF723F96278A6
:1018E000A37812011A43144B1B681B070AD4112A50
:1018F00002DD0120FFF7AEFF0122104B1A70FFF747
:1019000008F8FEE790250E4CED0528692368283B72
:101910001B1A1B02002BEFDD112A02DD0120FFF74D
:1019200099FF23686B60E7E7012005B030BDC04632
:101930000000204014000020C00000200C00002007
:101940001800002070B5FFF7A9FF012817D1002368
:1019500014481549154C1A188A4216D30023144806
:101960001449154C1A188A4213D30021134B144AF8
:10197000934212D30021134B134A93420FD3134BBC
:1019800083F3088800F06AF970BDE55804331560E8
:10199000E1E7E55804331560E4E702C3E8E702C372
:1019A000EBE7C04684190020401A0020D81D05101E
:1019B0000800002034000020AC1D0510C0000020ED
:1019C000CC020020CC0200208419002000600020FE
:1019D00070B58AB003AC06000D0019224149200001
:1019E00000F0EDFB6846FFF79DF8002E60D0442321
:1019F0003D4AA373117A433B0B4313724C23E372AA
:101A00002C3B237292336374573B2375374B384A10
:101A10001B68190C914208D17020E17D1B018143A4
:101A2000E175E17D03400B43E375324B1B68190CF4
:101A3000914208D1302061791B0181436171617944
:101A400003400B4363712C4B1B68190C914207D167
:101A50000321E27D0B408A43E275E27D1343E37587
:101A60000422E37A69469343E3726B465B78897894
:101A700093400B43112B06DDE37D1A43E275E07DB5
:101A8000C0B2FFF7C3FE802390222404240C5B0223
:101A90001C43D205D460D1681942FCD16B466A461A
:101AA0005B7892781B011343112B01DDFFF788FE51
:101AB000124B1A8B002AFCD001221A8316329A810B
:101AC00000221A61954207D090231021DB05186986
:101AD0001A6942400A42FBD0094A0A4B1A600AB00E
:101AE00070BDC0460018051000002040E807001037
:101AF00055AA0000E4070010B007001000001048CD
:101B0000CCBCECFC140000200822C021F8B53F4BEF
:101B10003F4D9A803F4A0904136AFF202B400B4334
:101B2000C0211362136A09061B021B0A0B431362CE
:101B3000C02292009446384B64469A58374E8243EE
:101B40003F38024360461A501A58C0203240000203
:101B500002431A51C122FF2792009C58BC433F3FC9
:101B60003C439C509C583F37344004439C509C5805
:101B70002C409C509C582402240A0C439C50083250
:101B8000944664469A58324002431A511A59C02466
:101B90002A402404224364461A511A591202120A96
:101BA0000A431A51C4229200944664469A5832401D
:101BB00002431A511A59C0242A402404224364467D
:101BC0001A511A591202120A0A431A51C5229200D6
:101BD0009C58BC432700C0242743C0249F509F58D3
:101BE00024043E4030439850985805402C439C5064
:101BF00098580002000A0143995001210800FFF79C
:101C0000E7FE074A074B1A6262B6F8BD00001040B3
:101C1000FFFF00FF00ED00E000E100E0FF00FFFF3C
:101C200066000E000000904037B501210800FFF764
:101C300017F96846FFF761F86A4606230025137115
:101C4000802401236846957153710094FEF7E6FFE6
:101C500029002000FFF757F837BD000070B5FFF7E7
:101C600053FFFFF785FCFEF747FF2D48FFF7C8FB42
:101C70000020FFF77EFD0120FFF77BFD0220FFF72C
:101C800078FD284801F026FC051E07D001002648F3
:101C900000F0B8FA0020FFF75EFDFEE72349244874
:101CA00000F0B0FA00F05CF8041E07D001002148F3
:101CB00000F0A8FA2800FFF74EFDFEE7FFF7B4FF9B
:101CC0001D48FFF75BFC21002000FFF7F7FA210019
:101CD0002000FFF709FB01212000FFF71BFB01217A
:101CE0002000FFF72EFB21002000FFF7C3FA02219E
:101CF0002000FFF7A9FA40212000FFF77DFA01211B
:101D00002000FFF751FA80202100FEF7FCFF0B486E
:101D100000F0F2FA01F09AFB00F050F9FAE7C04641
:101D2000E51E0410CC180510001905103119051016
:101D3000371905106D190510801A06009219051043
:101D40007047FEE7704710B5FEF7CEFE10BD704736
:101D500010B5FFF77BFB10BD10B505F0C9F810BD3D
:101D6000F0B508252D4C8BB021002A0008A800F002
:101D700026FA6119062206A800F021FA06AA062111
:101D8000002001F05EFB041E06D00100244800F094
:101D900039FA20000BB0F0BD0421012001F04DFB09
:101DA00001F036FB041E02D001001E48EFE71E487A
:101DB00000F0A2FA122616236E446B4405AF01937D
:101DC0002100009733002A00012001F09BFA041E35
:101DD00002D001001548DAE7154800F08DFA08AB8B
:101DE0003A883188200003930194230002950095DE
:101DF00001F012FB041E02D001000E48C7E70E4896
:101E000000F07AFA00F034F9041E02D001000B4809
:101E1000BDE70B4800F070FABBE7C0461918051083
:101E2000A9190510CA190510ED1905100A1A05108F
:101E30002B1A0510471A05107A1A0510A81A051052
:101E4000CB1A0510F0B51F4C87B023685B0632D55E
:101E500023689B062FD41C4E1C4A378813889F4248
:101E600009D3402123688B43236000231380102271
:101E7000174B1A601FE0DB1B142B00DD1423154ADF
:101E800015491088154A9DB21288DBB20592144A92
:101E900009889446029300236744019380B2039714
:101EA00000950133059A01F0B7FA642805D1202383
:101EB00022681343236007B0F0BD3388ED183580E6
:101EC000C9E7C046D819002038190020361900206B
:101ED00000E100E03A190020681900206A1900208A
:101EE00035170020F7B5070000240191019B9C42A3
:101EF00000D3F7BDFF22164D52002B88934201D923
:101F000000232B803B191978124E2A88B154187877
:101F1000FFF78EFA2B8801339BB2F218013A127840
:101F20002B800A2A01D00D2A0DD10022012B0DD0C1
:101F300040200949F2540B6803430B601021074B02
:101F4000D967074B1A800134E4B2CFE72A80FAE759
:101F50003619002035170020D819002004E100E0D0
:101F60003819002030B50E248DB0114908AD22007B
:101F70000919280000F023F90021080004F010FAE4
:101F800000200295010006900590049003900194B2
:101F900000900300020001F0CDF9011E04D00548B5
:101FA00000F030F90DB030BD034800F0A5F9F9E7B5
:101FB00019180510EB1A0510191B051070B502252C
:101FC000054C23682B4204D0FFF7CCFF2368AB43BA
:101FD0002360FFF737FF70BDD8190020034B044A78
:101FE0001980012311680B43136070473A190020D0
:101FF000D81900200121104B1A688A431A60022266
:1020000019680A4304211A601A688A431A601A6818
:102010001C318A431A601A6808490A401A601A6813
:1020200007490A401A601A6806490A401A601A6885
:1020300005490A401A607047D8190020FFFEFFFFCB
:10204000FFFDFFFFFFFBFFFFFFF7FFFF10B50800DD
:10205000029A190000F07AF810BD00002021024A0F
:1020600013688B4313607047D8190020704770477E
:10207000F0B510242D4D93B02900220006A800F0E1
:102080009EF8291922000AA800F099F829002200D8
:1020900020310EA800F093F8254D220006A9280053
:1020A000FEF777FD234E0623009601222900022029
:1020B00001F093F9071E34D11F4D22000AA9280010
:1020C000FEF767FD1D4B30880593012302970493AB
:1020D00001970394009413332A00022101F05EF962
:1020E000071E1ED122000EA92800FEF752FD012373
:1020F0003088134E049302930B3303940093059698
:10210000019708332A00022101F048F9041E08D182
:102110000A4B328819880B4800F074F8200013B07D
:10212000F0BD094800F0E8F84724F7E73518051036
:102130006E19002068190020581900206A19002023
:102140006C190020411B05107F1B05100F4B70B54B
:102150001B880E00013315001400984211D00C4B5F
:102160001B88023398420FD11378012B0CD1094AF6
:10217000033311680B43136006E02078FFF798F9EA
:102180000134631B9E42F8DC70BDC0466C19002010
:102190006A190020D819002010B500F019F810BDF8
:1021A00030B50024A24201D1002005E0035D651C8A
:1021B0000C5DA34201D0181B30BD2C00F2E70023B8
:1021C00010B59A4200D110BDCC5CC4540133F8E77D
:1021D00010B5884202D98B18984208D300239A423E
:1021E00007D0CC5CC4540133F9E78B5C8354013ACB
:1021F000FBD210BD03008218934200D170471970C2
:102200000133F9E70FB40B4B13B51C68002C05D054
:10221000A369002B02D1200000F0E8FA05AB049A74
:10222000A1682000019300F0BDFC16BC08BC04B0FE
:102230001847C046DC19002070B505000E000028C4
:1022400004D08369002B01D100F0D0FAAB69AC68EF
:10225000002B02D1280000F0C9FA244B9C420FD178
:102260006C68A3891B0702D52369002B20D12100AC
:10227000280000F04DF900281AD00120404270BD1E
:102280001B4B9C4201D1AC68EBE71A4B9C42E8D156
:10229000EC68E6E7013B0136A360002B04DAA26993
:1022A000934216DB0A2914D023685A1C2260197045
:1022B0003178A3680029EDD1013BA360002B0FDA30
:1022C00022000A31280000F0CDF8431CD5D00A20A6
:1022D000D5E72200280000F0C5F8431CE8D1CCE780
:1022E0000A2023685A1C22601870C8E7C41B051016
:1022F000E41B0510A41B051010B5034B0100186862
:10230000FFF79AFF10BDC046DC190020F0B51D0094
:102310004F4B85B01E6804000F000092002E05D0C0
:10232000B369002B02D1300000F060FA494B9C42A7
:1023300050D17468009B022B05D0012B00D984E09A
:10234000002D00DA81E02100300000F0E1F9616B3E
:10235000002908D023004433994202D0300000F015
:1023600051FB002363630023A3616360A3891B0601
:1023700003D52169300000F045FBA389364A13409C
:10238000A381009B022B5AD003AB02AA210030008C
:1023900000F0C2FAA3891843A081002D24D1029D28
:1023A000280000F025FB0195071E42D1029B0193F6
:1023B000AB4239D1012040420223A2891343A381B9
:1023C0000023A3602300473323602361012363615B
:1023D00005B0F0BD214B9C4201D1B468AAE7204B67
:1023E0009C42A7D1F468A5E7002FD9D0B369002B90
:1023F00002D1300000F0FAF9009B012B03D1A38930
:10240000009A1A43A2810820A38927602761656189
:10241000184018D0012018400023984211D06D4276
:10242000A360A5611800D3E7019800F0E1FA071E48
:10243000C0D08023A289019D1343A381D6E7002049
:10244000BAE7A560C4E7A060C2E701204042BFE749
:10245000DC190020C41B05105CF3FFFFE41B051012
:10246000A41B0510F8B505000E001400002804D0C8
:102470008369002B01D100F0B9F9224B9C422DD188
:102480006C68A369A360A3891B0731D52369002B5E
:102490002ED023682269F7B2981A6369F6B298427F
:1024A00005DB2100280000F033F9002826D1A368BD
:1024B0000130013BA36023685A1C22601F706369CE
:1024C000984204D0A389DB071AD50A2E18D121001F
:1024D000280000F01DF9002812D00FE00A4B9C42A2
:1024E00001D1AC68CDE7094B9C42CAD1EC68C8E782
:1024F0002100280000F00CF80028CAD001267642FE
:102500003000F8BDC41B0510E41B0510A41B05100A
:10251000364B70B51D6806000C00002D05D0AB6968
:10252000002B02D1280000F061F9314B9C420FD101
:102530006C680C23E25E93B219072DD4D90611D42E
:1025400009230120336037331343A381404270BD18
:10255000284B9C4201D1AC68EBE7274B9C42E8D169
:10256000EC68E6E75B0713D5616B002908D0230010
:102570004433994202D0300000F044FA00236363F0
:102580002422A3899343A3810023636023692360EA
:102590000823A2891343A3812369002B0BD1A02117
:1025A0008022A389890092000B40934203D021002E
:1025B000300000F0D9F90123A289134011D0002383
:1025C000A36063695B42A361002023698342BED19B
:1025D0000C23E25E1306BAD540231343A3810138CE
:1025E000B5E7920700D46369A360EDE7DC1900202A
:1025F000C41B0510E41B0510A41B0510F7B58A8940
:1026000005000C00130760D44B68002B04DC0B6C36
:10261000002B01DC0020FEBDE76A002FFAD000236A
:102620002E682B6080235B011A4034D0606DA38933
:102630005B0706D56368C01A636B002B01D0236C5F
:10264000C01A0200216A00232800E76AB847A1895E
:10265000431C06D12B681D2B31D82C4ADA40D307F6
:102660002DD50023636023692360CB0405D5431C6B
:1026700002D12B68002B00D16065616B2E600029B0
:10268000C8D023004433994202D0280000F0BAF9A0
:1026900000206063BFE70123216A2800B847431C7C
:1026A000C5D12B68002BC2D01D2B01D0162B01D118
:1026B0002E60AFE74023A2891343A381ABE74023F9
:1026C0000B430120A3814042A5E70F69002FA1D051
:1026D0000B680F60DB1B01930023920700D14B694D
:1026E000A360019B002B00DC94E7019B3A00216A68
:1026F0002800A66AB047002803DC4023A2891343C0
:10270000DFE7019B3F181B1A0193EAE70100402015
:102710000B6970B505000C00002B01D1002070BDC5
:10272000002804D08369002B01D100F05FF80B4B27
:102730009C4209D16C680C22A35E002BEED02100D4
:102740002800FFF75BFFEAE7054B9C4201D1AC682C
:10275000F1E7044B9C42EED1EC68ECE7C41B05109A
:10276000E41B0510A41B051010B5024900F0B2F8D7
:1027700010BDC04611270410002310B504000360EB
:102780004360836081814366C281036143618361E9
:10279000190008225C30FFF72DFD054B24626362AF
:1027A000044BA362044BE362044B236310BDC04699
:1027B0001131041039310410713104109D310410AD
:1027C00070B568254A1E55430E002900743100F08B
:1027D00063F9041E08D000212A00016046600C3015
:1027E000A0606832FFF706FD200070BD836913B555
:1027F0000400002B28D18364C3640365134B144A7F
:102800001B6882620193984201D1012383612000F9
:1028100000F020F86060200000F01CF8A0602000AC
:1028200000F018F80022E06004216068FFF7A4FFC0
:1028300001220921A068FFF79FFF02221221E06810
:10284000FFF79AFF0123A36113BDC046A01B05102B
:1028500069270410F8B51E4B07001E68B369002BEA
:1028600002D13000FFF7C2FF4836B4687368013BFD
:1028700004D53368002B07D03668F6E70C22A55E36
:10288000002D0DD06834F2E704213800FFF798FFDF
:1028900030600028F0D10C2304003B602000F8BD1C
:1028A000012320005B42E3810233A381656625603A
:1028B000A560656025616561A561082229005C301D
:1028C000FFF798FC6563A563A564E564E6E7C04689
:1028D000A01B0510F7B5040007000026019148343D
:1028E000002C01D13000FEBD6368A5680093009BF9
:1028F000013B009301D52468F2E7AB89012B08D98D
:102900000E22AB5E013304D029003800019B9847AA
:1029100006436835EBE7000070B50E001D000E237E
:10292000C95E90B01400002907DA00232B60B38938
:102930001B0611D48023DB000FE001AA00F05AFC33
:102940000028F2DBF022029B12021340054A9B187A
:102950005A4253412B60EDE740230020236010B022
:1029600070BDC04600E0FFFFF7B502268B89050069
:102970000C00334206D02300473323602361012338
:102980006361F7BD01AB6A46FFF7C6FF0099070018
:10299000280000F081F8002808D10C22A35E9A05D7
:1029A000EFD4032293431E43A681E4E70F4BAB62AF
:1029B0008023A28920601343A381009B206163616F
:1029C000019B002B0DD00E23E15E280000F024FCBB
:1029D000002806D00322A38993431A00012313433E
:1029E000A381A0893843A081CBE7C04669270410A2
:1029F00010B5034B0100186800F04EF810BDC0463A
:102A0000DC19002070B50500002910D00C1F2368C8
:102A1000002B00DAE418280000F02FFC1D4A136890
:102A2000002B05D163601460280000F027FC70BD06
:102A3000A34209D9216860188342F3D118685B6802
:102A400041182160EEE713005A68002A01D0A24223
:102A5000F9D919685818A0420BD1206809185818DC
:102A600019608242E0D110685268411819605A60BA
:102A7000DAE7A04202D90C232B60D5E72168601861
:102A8000824203D1106852684118216062605C6024
:102A9000CAE7C0463C190020032370B5CD1C9D43F6
:102AA000083506000C2D1ED20C25A9421DD8300079
:102AB00000F0E3FB254A14682100002919D1244CB9
:102AC0002368002B03D1300000F010FB20602900A8
:102AD000300000F00BFB431C2CD10C233000336082
:102AE00000F0CCFB03E0002DDFDA0C233360002084
:102AF00070BD0B685B1B1AD40B2B03D90B60CC1871
:102B0000256003E08C420ED163681360300000F052
:102B1000B5FB200007220B30231D9043C31AE7D0DA
:102B20005A42E250E4E74B6863600C00EEE70C00A9
:102B30004968C2E70323C41C9C43A042E0D0211A89
:102B4000300000F0D3FA431CDAD1C6E73C1900206C
:102B500040190020936810B5013B9360002B05DA03
:102B60009469A34208DBCBB20A2B05D01368581C2A
:102B700010601970C8B210BDFFF774FCFBE7F8B520
:102B800006000F001400D518AC4201D1002007E068
:102B900021783A003000FFF7DDFF0134431CF3D108
:102BA000F8BD0000F0B59FB006000F0014000593BB
:102BB000002804D08369002B01D1FFF717FE7F4B5B
:102BC0009F425CD17768BB891B0762D53B69002BAC
:102BD0005FD0002306AD6B6120336B761033AB768C
:102BE0000294029C2378002B5DD1029BE31A04938C
:102BF0000DD0049B029A39003000FFF7C0FF431C40
:102C000000D1CCE06A69049B944663446B612378ED
:102C1000002B00D1C3E00122002352426A6002A9C6
:102C20005432521801342B60EB60AB601370AB650B
:102C300021780522624800F015FB631C9C460028A1
:102C400035D12968CB0604D5532302AA20309B181E
:102C500018700B0704D553232B2002AA9B18187059
:102C600023782A2B2CD000200A21099B2278303A85
:102C7000092A00D86BE000282AD0099328E0514B9C
:102C80009F4201D1B7689EE74F4B9F429BD1F768A7
:102C900099E739003000FFF73BFC002899D001206C
:102CA00040421FB0F0BD252B9FD001349AE7444B22
:102CB0002968C01A012383400B432B606446B7E7A1
:102CC000059B181D1B680590002B3ADB0993644691
:102CD00023782E2B0BD16378621C2A2B3FD1059BC6
:102CE00002341A1D1B680592002B35DB07932178EF
:102CF0000322364800F0B6FA002807D0334B2A6882
:102D0000C01A4023834013432B6001342178631C95
:102D100006222F480293297600F0A4FA002844D016
:102D20002C4B002B2FD12968059B0722C90528D5DC
:102D30009B189343083305936B69039A9B186B6147
:102D40004FE75B42EB6002230B432B60BFE74B4333
:102D500001349B18012089E701235B42C6E7002369
:102D600014000A201A006B6021783039092903D930
:102D7000002BBCD00792BAE742430134521801231A
:102D8000F2E70733D5E705AB00933A00124B290071
:102D9000300000E000BF0390039B0133CCD1BB891E
:102DA0005B0600D57BE70B987BE705AB00933A0009
:102DB000094B2900300000F07FF8ECE7C41B051038
:102DC000041C0510E41B0510A41B05100A1C0510AB
:102DD0000E1C0510000000007F2B0410F7B5150035
:102DE00001938A680B6900900C00934200DA13008B
:102DF00022002B6043321278002A01D001332B606D
:102E000023689B0602D52B6802332B6006272368B4
:102E10001F4027D0230043331B785A1E934122685A
:102E2000920630D42200019943320098089EB047A0
:102E3000431C25D0062320682A68E168034000254A
:102E4000042B03D18D1AEB43DB171D40A3682269C5
:102E5000934201DD9B1AED180027BD4220D10020CE
:102E600010E00137E3682A689B1A9F42D2DA2200F9
:102E70000123193201990098089EB047431CF0D1F4
:102E800001204042FEBD3020E1184331087021008E
:102E90005A1C45310978A218433202331170C1E738
:102EA000220001231A3201990098089EB047431C62
:102EB000E6D00137D1E70000F0B58BB006920A00EA
:102EC00043320793059004920A7E0C00109B6E2AF1
:102ED00000D18FE017D8632A2CD008D8002A00D15F
:102EE00099E0582A54D026004236327029E0642AEC
:102EF00001D0692AF7D121681A68080623D5111D67
:102F00001960156825E0732A00D188E008D86F2A77
:102F100029D0702AE7D1202209680A43226003E001
:102F2000752A20D0782ADED122007821453211700E
:102F30006C4A30E00E001A684236111D19601368A1
:102F40003370012379E04906D9D5111D196000239A
:102F5000D55E002D03DA2D23049A6D421370624B67
:102F60000A2703932FE020681968050603D5081D7A
:102F700018600D6805E04006F9D50D68081D186059
:102F8000ADB2594B082703936F2A18D00A2716E0D1
:102F900045310A70544A03921A682168101D18605E
:102FA0001568080622D5CB0702D5202319432160D6
:102FB0001027002D03D1202322689A43226023008A
:102FC000002243331A706368A360002B5CDB042289
:102FD000216891432160002D58D1049E002B64D0BC
:102FE0002600039B42361B7833705EE04806DAD534
:102FF000ADB2D8E709681A68080605D5111D196031
:10300000136862691A6006E04906F7D5111D196058
:103010001368A28A1A800023049E236154E01A6870
:10302000111D1960166800216268300000F01AF95D
:10303000002801D0801B6060636823610023049A2C
:10304000137041E02369320006990598079DA8474F
:10305000431C43D0236800259B070FD4099BE068DD
:1030600098423DDA18003BE022000123193206990C
:103070000598079EB047431C30D00135E368099A94
:103080009B1A9D42F0DBE9E7002DA9D0049E2800A1
:103090003900FDF7E9FC039B013E5B5C28003370BF
:1030A0003900FDF75BFC051EF1D1082F09D123681B
:1030B000DB0706D563682269934202DC3023013EB8
:1030C0003370049B9B1B2361079B09AA009321007B
:1030D000069B0598FFF782FE431CB3D101204042B6
:1030E0000BB0F0BD261C0510151C0510002370B593
:1030F000064C050008002360FEF7E2F9431C03D1EB
:103100002368002B00D02B6070BDC04680190020C2
:1031100070B50C000E25495F00F0B2F8002803DB03
:10312000636D1B18636570BDA389024A1340A381B8
:10313000F9E7C046FFEFFFFFF8B51F008B890500D8
:103140000C001600DB0505D50E23C95E0022022304
:1031500000F074F8A389054A28001340A3813200C7
:103160000E23E15E3B0000F01FF8F8BDFFEFFFFF0C
:1031700070B50C000E25495F00F060F8A389421C71
:1031800003D1054A1340A38170BD8022520113432D
:10319000A3816065F8E7C046FFEFFFFF10B50E237F
:1031A000C95E00F015F810BD70B5050008001100EB
:1031B0000022064C22601A00FEF7ACF9431C03D132
:1031C0002368002B00D02B6070BDC0468019002002
:1031D000002370B5064C050008002360FEF78EF949
:1031E000431C03D12368002B00D02B6070BDC04668
:1031F00080190020002370B5064C0500080011005E
:103200002360FEF77EF9431C03D12368002B00D016
:103210002B6070BD80190020002370B5064C05009E
:1032200008002360FEF772F9431C03D12368002BCA
:1032300000D02B6070BDC0468019002070B505001D
:10324000080011000022064C22601A00FEF760F907
:10325000431C03D12368002B00D02B6070BDC046F7
:1032600080190020C9B28218904201D10020704715
:1032700003788B42FBD00130F6E7704770470000BF
:1032800070B50500080011000022064C22601A00EB
:10329000FEF74EF9431C03D12368002B00D02B60AE
:1032A00070BDC04680190020F0B5054600200F46CD
:1032B000079E059C174309D0202905D30127BF038A
:1032C000BA4201D8914201D94220F0BD19462143AA
:1032D0000AD09C42F8D309498C4203D00849A41F64
:1032E0008C42F1D2062BEFD3002D03D0022D01D05A
:1032F000032DE9D1032EE7D8F0BD0000FFFF000049
:103300007B0C00007CB5069D079C002805D0860735
:1033100005D1460703D4060701D442207CBD00290D
:1033200003D0012901D00229F7D10095019400F0C2
:10333000C1FA7CBDFFB587B0109D159E169C019308
:103340000295009407A807C81F463346FFF7ACFF55
:1033500000280ED11398149903AA069443C2119819
:10336000129901900095029107A807C83B4600F00A
:10337000FFFB0BB0F0BD70B51C4613460D46012C8B
:1033800003D0022C03D0422070BD022200E01022A4
:103390001946FDF7FEFB2C70002070BDF0B587B01C
:1033A0001C460B46054600A9023101A80C9F0D9E44
:1033B000FFF7E1FF00280ED16846058084828775FB
:1033C000C6750E9901760F994176109981766946F6
:1033D000119801F03FF907B0F0BD70B586B0144602
:1033E0001D460A4603466946881C0A9EFFF7C3FF2E
:1033F000002804D1012C04D0022C02D0422006B0B7
:1034000070BD23462A466946304601F069FBF6E75F
:1034100010B501F0EBFD10BDF0B585B084460AA8EB
:10342000F0C868468581C68103A801900297009480
:10343000604602F0B3F805B0F0BD10B502F0DEFD55
:1034400010BD10B502F0FCFD10BD000010B503F07A
:10345000B5F81E4C4721206849014118097B002915
:1034600009D1A0300079C00729D002F053FF02F043
:1034700003FF0BF067F900F003F9206801464031C3
:103480000A78C9798A4319D13E21095C002915D1EE
:103490000F490A88120711D50922D2061269497A02
:1034A000836AC900591809231B02C018806D801A4D
:1034B00000020012814201DA08F0DCFA10BD00F0CF
:1034C00037FB01F02DFC09F0FBF9D0E7CC19002007
:1034D000C000002010B5837F0122002492024168C1
:1034E000082B03D94224914202D310E0914201D229
:1034F00042240CE0014634220648FDF74AFB00F066
:103500007FF8002801DA482401E000F029F920467C
:1035100010BD0000CC0200203EB5174D15482968AB
:10352000827F0846A0310A73002460300476447616
:103530008476E122C276802202770222427730200E
:1035400008704C7002AA01A96846FDF711FB684695
:103550000078A22201016846007A891C000201431A
:10356000684600790003014328681152A0300471B5
:103570003EBD0000CC020020CC19002070B503F045
:1035800001F807F009FE06F0FDFC0BF0F7FE03F072
:10359000CFF9184C18492068184D401881100120A7
:1035A0002A68C0021018C166616889080167A168AD
:1035B000890841670AF088FA1D2029688001228B5A
:1035C00008180287628B4287A28B4286628C8286B1
:1035D0002046203002783B204001081882750021E7
:1035E000017000F065FA02F055FE02F0DDFD0BF00F
:1035F0002FF970BDCC0200200000FCEFCC19002098
:1036000070B50025ED4302F082FE01282ED0002384
:1036100018490322888BFF24401E10438A7F4D34B3
:1036200062438218088B282460431218488B302488
:10363000604312180846203040782C24604310184C
:103640000D4A181884184869A0420DD10B488442CD
:103650000AD90D6902F05BFEC1B2284605F016FAE0
:1036600005F044FB401B251A284670BDFF23B533E7
:10367000CEE70000CC02002039190000580A0000F3
:10368000F8B52C4F3C68206E5C34401C002814D0E8
:10369000002529480023C07B00283ED00926F606D5
:1036A0002648002D1CD000210A460B464169521CB9
:1036B000994204D1002902D004E00125E9E7204B1A
:1036C0009A42F2D32160006960603069A16800020B
:1036D000090E000A09060143A16000F033F81DE05D
:1036E0003169A2680902090A150E08D0018BC907C1
:1036F00012D04169216000696060E37210E0881AAD
:1037000000027D2300121B03984205DD100E000607
:103710000843A06000F016F8F8BD6360002DFBD0F0
:1037200003CC08F0D7F8FA2008F0C4F839688862AA
:10373000F8BD0000CC190020EC0200200000104869
:103740008813000004490020086104480121006832
:103750006030C1717047000000001048CC19002093
:10376000F8B5062632484025056032480027078014
:10377000A9050920C00641602F4A916001680160D7
:103780002E48032104694269601E08433946401CE3
:10379000FDF703FA02F0BBFDC1B2204605F076F951
:1037A00005F0A4FA05F0AEFA04F04EFB2449172008
:1037B0008881244C2068421901465770FA2088629B
:1037C0002820107002F0A1FD012805D120681022E8
:1037D00040300178114301700AF099FF012805D1AA
:1037E0002068802240300178114301702068014632
:1037F00040300278324302700020C0430866FDF773
:1038000024FBFFF789FEFFF7B9FE20680121203075
:10381000017707214177012002F0F0FB04F078FBEB
:10382000FFF72EFF02488038056002210160F8BDD5
:1038300080E100E0C000002040000048CC020020F1
:1038400000001048CC19002038B5184A14682246E8
:10385000BA32AE34A378DD0701D001290AD05B0764
:103860000CD501290AD0217949070BD5E17A002925
:1038700005D007E0E07880210843E07038BD0121E1
:10388000E172508020794106090FF7D07821084075
:1038900069460870002048706A460221422000F004
:1038A000A9FA207987210840207138BDCC19002061
:1038B00070470000FFB50C4678A103C995B001918F
:1038C0000090002108A801730321C90268464186BF
:1038D000012108A8734E017435681746AE350DF006
:1038E00055FD002808D170493068401806F02CFEBC
:1038F000A878002802D0462019B0F0BD0BA8159971
:1039000000F052F90028F7D1072010A90871012C06
:1039100005D0022C0AD0002C0ED04220ECE708A8DB
:10392000017B1020014308A8017305E011A90BA831
:1039300000F049F90028DFD110A8027901230CA971
:10394000284601F0CDF800287ED102222946189899
:10395000FDF71FF9298868468181152149020182F6
:103960000784012686734E2108A881700024C47044
:10397000067107214171867103A902A800F06AFE51
:10398000002861D1022202A91E98FDF702F9082F32
:1039900002D26846478502E00820694648856946A4
:1039A0000C850B4628880AAA098901F0C3FD002866
:1039B0006DD13E49684601820227078408A88471B8
:1039C00003A902A800F046FE002860D1022202A945
:1039D0001F98FDF7DEF868460470694644704F850D
:1039E0000B4628880AAA098901F0A4FD00284ED1B7
:1039F00008A8007BC00723D02C496846C91C018257
:103A00000821018408A88770047103A902A800F0A6
:103A100021FE00283BD1FF216846C1718171C17030
:103A200081704170017044710471694608204885B5
:103A30000B4628880AAA098901F07CFD002826D1B6
:103A400008A8007B800600E021E022D5298868468E
:103A500081811649A53101820684867308A8877082
:103A6000C470047107214171847103A902A800F098
:103A7000F1FD00280BD169460E700C854E850B4672
:103A800028880AAA098901F055FD002801D047209D
:103A900032E708A8007BA87000202DE7626C7565EE
:103AA0006E726721CC190020DE060000012A00009A
:103AB000034800210068AE30C1708170704700007B
:103AC000CC19002038B50246174801240068AE30F2
:103AD000022A1FD0052A03D0072A07D00B2A20D19B
:103AE000084609794088FFF7AFFE1AE00079002404
:103AF000020600D50124820703D1C20601D4800644
:103B00000FD5084600216A461170694600F05EF83C
:103B1000044606E08178490703D50179FB2211406C
:103B20000171204638BD0000CC190020704700000C
:103B30001FB50E480468AE34E078010612D5A178AE
:103B4000C9070CD0800708D5042069460873684669
:103B500002F010FE022000F025F90020E07040067F
:103B6000400EE07000F02EF81FBD0000CC190020C0
:103B7000F0B58DB00C4616A9E0C900210891099155
:103B80000A910B911599049105A9E0C112A962C986
:103B900000930191134601460396029522460120A7
:103BA00000F046F80DB0F0BD0A07920F01D0422098
:103BB00070478A07FBD002788907890F0A43027091
:103BC00000207047704742207047000030B5174B07
:103BD000047A1B68C268AE331B799D06AD0F04D111
:103BE0000078042801D000200BE0012030BD401CEB
:103BF000C0B2155C012D08D01518203DED7F2818A6
:103C0000C0B2A042F3D3087830BD401CDD070124C8
:103C1000C0B2002D02D0105CC00703E09B07F2D5B4
:103C2000105C80070028EED00C70ECE7CC19002067
:103C3000FFB595B00E46054620210CA8FDF791FC76
:103C400000200490564800270468681EAE340428FB
:103C500002D8A078C0070BD0062D02D0002D0AD0C4
:103C600002E0A078800703D5E0784006800E0AD0F5
:103C7000462019B0F0BDA0788007F9D0E078400662
:103C8000800EF5D00FE0002D0DD0012D20D0022D9B
:103C900028D0062D33D0032D33D0042D37D0002E5D
:103CA0003BD04220E5E7002007F0F0F80028E0D103
:103CB000E078800708D5042069460873684602F05A
:103CC00059FD022000F06EF80120E0700020D0E7DE
:103CD000012EE6D0042EE4D01F980028E1D106275B
:103CE000042008E0012EDCD0042EDAD01F98002832
:103CF000D7D105270220E0700120049010E0402079
:103D00000DE0022E01D0032ECBD1082007E0012EBA
:103D100001D0042EC5D1102001E004272020E0703E
:103D200000230BAA19461E9806F070FA030002D071
:103D300000F0E0F832E01022002107A8FCF72DFF88
:103D400007A86C46279B269A1F990FC42B4630461E
:103D5000189A179900F088F80300E9D108A8017BA8
:103D6000C170259803AC049B289A29990FC422ABF3
:103D700007CB02920091019039460CA8209B219A12
:103D800000F0C2F80300D3D107A807F093FB0300AB
:103D9000CED1012007F07AF80300C9D1184668E7B0
:103DA000CC19002010B50446C1061148006803D59F
:103DB0001522BF210C4006E01B2189014118497ED4
:103DC000C90710D012222107890E08181121C90134
:103DD0004018C06F002321460AF086FD010004D080
:103DE00020460AF06DFD002010BD072010BD000028
:103DF000CC190020F8B5891ECDB20646A81C0321B7
:103E00000843401C8308174817460068F10603D58D
:103E10001C22BF210E4008E01B2189014118497E68
:103E2000090601D40020F8BD19223107890E0818AF
:103E30001121C9014018C06F31460AF055FD040038
:103E40000ED03978217179786171A5712A46B91C33
:103E5000E01DFCF79EFE214630460AF031FDE1E709
:103E60000720F8BDCC190020F8B5204B204D1B6869
:103E700001265B19069CB6030093002814D0042881
:103E800012D0022813D0032811D006252B46012872
:103E900010D00F4617430DD0914203D8202901D3EB
:103EA000B2420AD94220F8BD30256023EFE7A025B1
:103EB000F023ECE72580638001E02180628020719F
:103EC0000798A071089820720998002805D001462B
:103ED000204606220930FCF75CFE0720607100983E
:103EE0002030807B60710020F8BD0000CC190020DC
:103EF00008090000034881220068A030417C11407D
:103F000041747047CC190020F8B505463D481E465F
:103F10000068079F0024AE301346002905D0022216
:103F20002A7001226A70A9700324002E10D08078B4
:103F30008006800F0CD13019401C1F2852D82E55F6
:103F4000641C281932461946FCF723FEA019C4B296
:103F5000002F0DD03819401C1F2843D82F55641C42
:103F6000E4B228193A460699FCF713FEE019C4B2E8
:103F70006846008C00281BD06846808C002817D02B
:103F8000601D1F282ED805202855641CE0B2122180
:103F90002954401CC4B228190646022208A9FCF77D
:103FA000F8FDB01C022209A9FCF7F3FD241DE4B2C0
:103FB0000C98002810D0E01C1F2813D80220285588
:103FC000641CE0B20A212954401CC0B22918401CCC
:103FD000C4B2084607F034FC0B9800280CD0001936
:103FE0001F2801D94220F8BD28190B9A0A99FCF71D
:103FF000D0FD0B982018C4B22146284607F0B6F928
:10400000F8BD0000CC19002010B50D4900050B6863
:104010000521490259188A690021000DA0331B7B34
:104020000AE04C01145B2405240D844202D14801AE
:10403000801810BD491CC9B28B42F2D8002010BDB7
:10404000CC190020F8B5069C1F4615460646002CE4
:1040500013D0A06802220D30FCF79BFDE81E82B24F
:104060003B460721204606F01BF8E580A068012E9C
:1040700005D01D2101730020F8BD4720F8BD1B218C
:10408000F8E70000F1B5FFB08BB0012460020590A5
:104090000027CC4807970168E320C0000818039068
:1040A0008A98C74D0005000D0AAA05A908F07FF9F6
:1040B0000690002872D104260AA805994218203AD1
:1040C000D27F0B2A23D00026002004900AA8811951
:1040D000022201A80291FCF75CFD6846818809ABC9
:1040E00008AA039801F020FC012817D002287DD0EF
:1040F00068468088854200D30546844200D9204620
:10410000044602988078012871D013363BE1491E9D
:10411000761E36040591360CCFD1D5E7089800906D
:10412000002F79D10099022228310298FCF739FD3D
:1041300000281ED100982030017B029880788142AF
:1041400017D1012808D10098029902220830C91C11
:10415000FCF727FD002815D002988078022808D1A6
:104160000098029910220830C91CFCF71AFD00289B
:1041700008D00098008DA84200D80546A04200D281
:104180002046044602990AA88978012907D01336E7
:104190000599B6B28E4204D3012707E005E1761DEA
:1041A000F6E78119022201A8FCF7F3FC03990098B5
:1041B00008318E462EE084466946026A8B8820309C
:1041C0000DE0918B994203D3012F7DD199427BD988
:1041D000A94200D80D46A14200D30C461268824283
:1041E000EFD10498002817D1604601E015E0BFE048
:1041F000006870450ED0018D994203D3012F09D17B
:10420000994207D98D4200D30D468C4200D80C4606
:10421000012F59D17045CED1BAE008980090002FF7
:1042200072D1009902221C310298FCF7BAFC0028D6
:104230001ED100982030C17802988078814217D131
:10424000012808D10098029902220830C91CFCF705
:10425000A8FC00281AD002988078022808D100987B
:10426000029910220830C91CFCF79BFC00280DD0D5
:104270000098808BA84200D80546A04200D2204674
:10428000044602988078012826D003E002988078BE
:10429000012805D013360798B6B201281ED021E0B8
:1042A000009849490089884216D18A98FFF7ACFEE8
:1042B0000146009800F08AF80099098C484300995B
:1042C00089694018022200E038E00299491DFCF794
:1042D00060FC01200790D4E7761DDCE7B61C0020C7
:1042E000B6B207900598864201D3012705E00AA8D7
:1042F0008119022201A8FCF74CFC039A00990832AC
:1043000009980968944630E01AE086466A46938820
:1043100020300DE08A8B9A4203D3012F0ED19A42AE
:104320000CD9AA4200D81546A24200D31446096807
:104330008142EFD1049800282AD102E001200490A4
:1043400026E07046006860450FD0028D016A9A42EF
:1043500003D3012F09D19A4207D9954200D31546BC
:10436000944200D81446012FE8D16045CDD10FE02A
:104370000298C078022805D102980079292801D135
:10438000B61CB6B2761D0598B6B2864200D3012798
:104390000598811B042902D3864200D294E6049832
:1043A0000028FBD1A54203D906987FB00CB0F0BD20
:1043B000224629468A9801F0FBFA0690F5E70000AC
:1043C000FFFF0000CC1900200229000030B5024692
:1043D00023239B5C0020012B1AD112890D4B9A429A
:1043E00016D10D4A052312685B02D318A0329B69CF
:1043F000127B0AE045010C885D5B24052D05240D28
:104400002D0DAC4204D0401CC0B28242F2D8002034
:1044100030BD000002290000CC190020830810B52F
:104420000A4800210268052040021018A032806965
:10443000127B07E04C01045B002C01D0994204D0B0
:10444000491CC9B28A42F5D8002010BDCC19002001
:1044500010B50446022000F033F80D480021026830
:10446000052040021018A0328369107B05E04A0144
:104470009A5A002A04D0491CC9B28842F7D810BD04
:1044800048011C52C018026904210A43026110BD90
:10449000CC19002010B504460146042002F06AFB46
:1044A000002809D00548E3210068C90040182146CA
:1044B0003C300BF07DF8432010BD0000CC190020EB
:1044C00004490A683B21490151180A7802430A70DD
:1044D00070470000CC19002000B51138C0B2FFF7BA
:1044E0009DFF002804D0012201695205114301619A
:1044F00000BD0000F3B597B00D8848880590081DF1
:104500001DC80DAE1DC68C8ACE8A087E1390C86960
:1045100020310190087800904878049088780390C2
:10452000C87802900F7900F047FD002817D10120CC
:10453000400284425FD8B4425DD8002F01D1B4421A
:1045400059D114A9284601F01DFA002806D115AA50
:104550001499059801F006FA002802D0602019B0DD
:10456000F0BD149D11A92846183006F041F810A896
:104570008088002810D0284612A9203006F038F88C
:1045800010A8838800892A8D1818696A10188A8BE8
:10459000904203D16120E2E74820E0E715982C4BD8
:1045A00002899A4227D12322125C012A23D1006872
:1045B00000681690139801281FD16846808E292222
:1045C0001202801A030001F0D2FC0604180404074A
:1045D0000A18022C0FD110E0072C0CD10DE0042C8E
:1045E00009D3E00707D1012F07D1A64203D3042E38
:1045F00001D3F00701D04220B1E702980B90039B52
:10460000049A0A9309920098019A0C9708900696CA
:10461000059407920DA81DC8019002A81CC013980C
:104620000B4600902A461699179800F0AFF900281B
:1046300095D168460649808EFF31884205D017988B
:10464000018800200A4601F0B3F9002087E7000046
:1046500003280000F3B5A5B008881A9088780C46A6
:1046600011901022091D13A8FCF773FFA08A109067
:10467000A17D68460172E07D0F90207E2090677ECC
:10468000A07E1F90002006460146129020A80181BE
:104690000F20BB4C2390E3212068C90040181990DB
:1046A00000F08AFC00280BD10121109849028842B1
:1046B0005FD821A91A9801F065F9002802D060207E
:1046C00027B0F0BD2198179005F036FF1A9988425F
:1046D0000CD102A801901698009013AD0ECD119840
:1046E00005F0F2FE002801D06320E9E76846017A70
:1046F0008806800F05D0012012902068A030007B32
:104700004600C80703D01298401CB61C1290080639
:1047100003D51298401CB61C129017980DA918309A
:104720001D9005F065FF6846129C808EA41CA04277
:1047300037D317980EA92030019005F059FF68462D
:10474000018F00290DD01798179A6B46406A9B8EEF
:10475000128D5918808B5118081AA04201D261207D
:10476000AEE71798846911982568012803D00228BC
:1047700003D04220A4E7052000E01320E0832A466E
:1047800039460F9805F0EAFE422899D0199FE28B2E
:104790004037788B398B411A109810188019814254
:1047A00001DA48208CE70EA9019805F021FF684640
:1047B000008F0028179802D0406A808B00E0008D9F
:1047C0002599401C0880259801210088A083259800
:1047D00002220088401CA8836A482081204620309D
:1047E0001790C1700021817081711998398B406DCB
:1047F00040186946A061097A0170A06929461C31F8
:10480000401CFCF7C6F911980128A0697ED010223F
:1048100013A9C01CFCF7BDF92846102213A90830C3
:10482000FCF7B7F9388B133038832E4620361198B1
:10483000F0701098E8831F98B0701098208410983A
:1048400028841998398B406D4018A8610021109A6E
:10485000FCF7A3F9398B10980818388317990120B1
:10486000087117990020487130716846007A8107F5
:1048700001D50121317101070227002902DA3179BE
:1048800039433171410703D5317904221143317124
:10489000400603D530790821084330710F987071B4
:1048A0002098B07121461D9805F0CBFE2146019855
:1048B00005F0A8FE29461D9805F0C3FE294601987B
:1048C00005F0A0FE1298002841D068461A9981810F
:1048D000A18BC18107844784012408A8047122A800
:1048E0000A9008A88473239941730F9938200140D6
:1048F00008A801730721C173002505746846007A72
:10490000C00708D020486946088200E02AE003A9D1
:1049100024A8FFF7EFFD6846007A8006800F07D0D5
:1049200019486946401E088203A924A8FFF7E2FD42
:104930006846007A00060AD52921090268460182E4
:1049400008A84473057303A924A8FFF7D3FD25988D
:1049500001881298401C081882B2002001F028F843
:104960000020ADE6022213A9C01CFCF712F928466C
:10497000022213A90830FCF70CF9388B401D53E7CD
:10498000CC1900200328000003290000FFB552487D
:10499000E322006887B0D2008218069210AA109B0A
:1049A0000126169F9288012B04D14C4B9A4201D1CB
:1049B000A030067B069D34464035688B2B8B7C43AC
:1049C000C31A099820300390A34222DA48200BB082
:1049D000F0BD2320405C012819D108896C46208055
:1049E00098420CD03D4C641EA04208D0641CA042EA
:1049F00005D0641CA04202D0A41CA04207D1374CB1
:104A0000FF3CA04201D0904201D16220DFE709685B
:104A100001E029231B0203988142DAD109981B99EE
:104A200084691898224605F099FD4228CFD01C9839
:104A3000012804D11598874201D24220C7E7159872
:104A4000E083204620301C990590817027840A98C5
:104A5000808B401CA0831098012814D0204610227F
:104A600011A90830FCF795F805991098C8700698B8
:104A7000298B406D4018A061298B38467043081877
:104A8000288300250FE011A80FC808340FC4183C74
:104A9000EAE72846A16978430818159A1799FCF7A0
:104AA00078F86D1CEDB2B542F3D3059918984871AA
:104AB00005991998087105991A98887109982146DD
:104AC000183005F0BEFD2146039805F09BFD0798C0
:104AD000A18B018000207AE7CC1900200229000078
:104AE000FFB58FB014460E78102205A8891CFCF77C
:104AF00030FD5048E3210068C900451800F05CFA19
:104B000000281ED1002C57D0012E09D16846808A7A
:104B10004949884204D12846A968083081424BD1CE
:104B20002846103029690390814209D00AA92846F5
:104B300005F05EFD6846018D601E0D90814202D237
:104B4000482013B0F0BD284608300CA9049005F0A9
:104B50004FFD6846008E002814D0EF680AA9384639
:104B6000183005F045FD384620300CA905F040FD11
:104B70006846398D008D09186846008E401C08185B
:104B800087B200E0012701200004C01BA04201D22F
:104B90006120D6E72C69286801901298012802D07C
:104BA000022803D008E00520C00200E02348608509
:104BB000012E03D0022E05D04220C2E72046083045
:104BC000022202E020460830102205A9FBF7E1FF8F
:104BD000204631462030064601730F982146078053
:104BE0002785039805F02DFD2146049805F00AFD60
:104BF00027461837E7616662A76126620D9884B27E
:104C00000BE02846019905F01CFD3846019905F096
:104C1000F9FC2868641EA4B20190002CF1D10F9811
:104C200001880D98081882B2002000F0C1FE002013
:104C300087E70000CC1900200118000001280000BF
:104C400002460948E3210068C90041188868083114
:104C500003E0038D934202D200688842F9D1884272
:104C600000D1002070470000CC190020034610B589
:104C70000F48E3210068C90041188868083103E043
:104C8000148D9C4203D8104602688A42F8D18A42A9
:104C90000CD1018D994209D20146026A20318A4223
:104CA00003D0416A898B994200D2002010BD0000D8
:104CB000CC190020024610B50B48120501680520EA
:104CC0004002081883690020120DA031097B07E01B
:104CD00044011C5B2405240D944203D0401CC0B247
:104CE0008142F5D810BD0000CC190020F7B505466B
:104CF000174601980AF02CFC2E050446360D0CE0F0
:104D0000A0882568B04207D1214601980AF06DFCC1
:104D10003946204605F070F92C46002CF0D1FEBD36
:104D2000F0B58BB0002064490290E3200A68C0000F
:104D3000141872B610464030C57902231D43C57160
:104D400062B625464035287AC0077DD0052040024E
:104D50001018002687694AE071017A5A002A44D067
:104D6000C919069109694A021FD48A0227D502216E
:104D700004910699012309880905090D03911B2156
:104D800089014118C97E89070FD51121C901083051
:104D900040182322C06F022109F0A6FD010004D0B3
:104DA000039A8A80049809F08BFD06980088009089
:104DB000069800F083F8009808F077FE15E04807A1
:104DC00013D5069800880005000D08F04AFE00285B
:104DD00005D1069800880005000DFFF753F90699E4
:104DE00004200969814306980161761CF6B23248B5
:104DF000AC210068095CB142AED800F001FF20464A
:104E0000243006460AF0EAFB012802D0012000F017
:104E1000F9FD204618300AF0E1FB012802D00020FD
:104E200000F0F0FD3C3420460AF0D8FB01280FD0FA
:104E300002A920460AF0FBFB0420029901F09AFE29
:104E40000028F0D0204600E034E002990AF09DFBF3
:104E5000287A00062ED530460AF0C0FB012829D159
:104E6000002005F049F8A98B23314909491CC9B232
:104E7000FBF7FAFD00281DD00F4D044628681121CC
:104E8000C90108304018422601233822C06F31463C
:104E900009F02AFD01000DD000228A80CC80304626
:104EA00009F00EFD3B212A68490151180A7880203B
:104EB00082430A700BB0F0BDCC190020F0B5044657
:104EC0003C48E3210068C9004518218A85B089045F
:104ED0001AD5022104911B2189014118497F4126DD
:104EE00027880123C9070FD01121C90108304018B4
:104EF0003122C06F022109F0F7FC010004D08F803D
:104F00008E71049809F0DCFC2946208801221831B2
:104F1000FFF7ECFE2946208801223031FFF7E6FE3C
:104F20002946208801222431FFF7E0FE2946208807
:104F300000223C31FFF7DAFE20880005000DFFF764
:104F4000B9FE8500294611316846017301F012FC53
:104F5000294612316846017301F00CFC29461331D1
:104F60006846017301F006FC68461435057301F0CC
:104F700001FC208800F028FA208801050D48090D61
:104F80000268052040021018828F914201D1002151
:104F90008187E069002802D0012105F02DF8202248
:104FA00000212046A568FBF7F8FD1720A56060806A
:104FB00005B0F0BDCC19002010B50B48E321006806
:104FC000C90044184034207AC00709D0002004F0FA
:104FD00093FF217A890701D5002803D0002010BD56
:104FE000472010BD642010BDCC190020F0B55FA093
:104FF00099B000685E491590E3220868D2008418D1
:1050000005225202821892692546403514922A7A66
:10501000D20702D0622019B0F0BDAA8B01235B0237
:105020009A4201D9AB8303E0172A01D21722AA833F
:10503000149AA0301392067B0DE0761EF6B21398F8
:1050400071010F18B8680F90384620220021FBF735
:10505000A4FD0F98B860002EEFD120460830E06024
:105060006460A06024600830139060612061FF22BA
:10507000002108300AF081FA2046FF220021243066
:105080000AF07BFA2046AA7F002130300AF075FA38
:105090002046FF2200213C300AF06FFA00222A72DB
:1050A00010461721324B05E0149E4701BE19401CE3
:1050B0007180C0B21E68A036367B8642F4D80020CC
:1050C00028832F8C688C0026149008E02820E16C3F
:1050D00070430918204605F095FA761CB6B2BE4218
:1050E000F4D3002608E03020216D7043091813988E
:1050F00005F088FA761CB6B214988642F3D30120E4
:10510000FFF7DEF90124684604701A4941802346FE
:10511000042269460CA8FFF7E3FC002822D1684668
:10512000018E81821449018304260685847520211D
:1051300008A881720024C472047307214173847328
:1051400005A90DA8FFF786FA00280BD16846048749
:105150004687818E15AB0EAA008E00F0EBF9002871
:1051600000D158E700202872472054E70000FFFFD5
:10517000CC19002001180000052A0000F8B50446EB
:105180007D480E460068E321C90047184820C05DED
:10519000C0077BD0B088FEF737FF0546012C02D050
:1051A000002C75D0E6E0002D0CD0286941074AD4C8
:1051B000B268F188147B0029F4D062060CD56888A7
:1051C000884201D20121B2E0D22C01D0522CF9D177
:1051D0003846314618303FE0A106890E1E293ED8D8
:1051E0001E2C21D101071FD5082188432861298859
:1051F000012005F0EFF90121304604F0FDFE5E4884
:1052000011210068C9010830401842242D8801236B
:105210003922C06F214609F067FB010003D08D8061
:10522000204609F04DFBA5E0E1070AD01D2C10D067
:105230001B2C0ED0410529D4012189020843EE61BF
:1052400092E0C00601D54520F8BD2988002005F070
:10525000AFF93846314624300AF0AAF98AE02988A5
:105260002022002004F06CFE05000FD00121304602
:1052700004F0C2FE2B460022214606200AF00CFD57
:105280002846FFF707F975E000E001E04120F8BD8E
:10529000B068047B1D2C3AD01B2C41D00021304635
:1052A00004F0AAFE032C46D0052C44D0072C42D093
:1052B000092C40D00B2C3ED00D2C3CD00F2C3AD0DA
:1052C000112C38D0132C36D0172C34D0192C32D0C6
:1052D000012C30D0022C35D0042C33D0062C31D008
:1052E000082C2FD00A2C2DD00C2C2BD00E2C29D0F2
:1052F000102C27D0122C25D0162C23D0182C21D0DE
:10530000522C1FD0D22C1DD01E2C2FD032E0002DBD
:1053100003D02988012005F04BF93146022001E035
:105320003146012000F05EFD002823D000213046E8
:1053300004F062FE1EE0296910208143296129885A
:10534000002015E02869402188432861010511D516
:10535000FF210131084328612988022005F028F93E
:1053600001212869C9028843286103E029880320B4
:1053700005F030F90020F8BDCC19002010B5114A15
:10538000E3231268DB00D2184032127AD20706D02B
:1053900002280AD0052804D00B2810D101E04120B2
:1053A00010BD4888FFF754F809E04888FEF72CFE46
:1053B000002804D0012201699205114301610020F7
:1053C00010BD0000CC190020F1B5FFB085B047201A
:1053D00001900020694608805348E3210068C90015
:1053E00047188498FEF710FE0290002874D0B96820
:1053F00008374FE0684600880D4604AC20186B461D
:105400000222283100F0A4FD6846008829462018B1
:105410006B4601222C3100F09BFD2E462036307B5E
:1054200069460128098804A809D040186B46102253
:105430002946083100F08CFD01902C6A27E04018C5
:105440006B460222F4E76946098804A84018214601
:105450006B4602221C3100F07BFD6946098804A8D6
:10546000401821466B460122233100F071FD2320B4
:10547000005D69460128098804A830D040182146FB
:105480006B461022083100F063FD01902468B4429D
:10549000D9D12968B942ADD1019800281CD16846FC
:1054A000008881070AD0214A011D11406A461180F7
:1054B0000A1A04A908180B21FBF76FFB0298008851
:1054C00008F0CFFA002807D1849869460005000D3E
:1054D00004AA098806F09CFE7FB006B0F0BD401813
:1054E00021466B460222083100F032FD01902089EE
:1054F0000F498842CAD120460299FEF767FF400053
:10550000A16903906A460918128804A880186B469E
:10551000022200F01DFD0190A169039802220818E3
:105520000021FBF73AFBB1E7CC190020FCFF00009B
:1055300002290000F0B5074617480E4600683B21D7
:1055400049014018007885B01D461446C00706D0B2
:1055500003A9384600F016FA00280AD102E04720D5
:1055600005B0F0BD04AA3046039900F0FBF900280D
:1055700001D06020F4E70499228860880968002A35
:1055800000D0088C32466E4631C6032339460020CF
:1055900000F004F8E4E70000CC190020FFB500207B
:1055A00099B0239A0B9012900546149006461590D8
:1055B0001C46DB480B460068E321C90041180391F3
:1055C0000021229F089109915188069111880A9122
:1055D0003B21490140180078C00706D00FA91846A2
:1055E00000F0D0F900280AD102E047201DB0F0BD3C
:1055F00010AA0F991B9800F0B5F9002801D060207F
:10560000F4E71998002803D0600701D5012000E0D5
:1056100000201390A007800F1C9010981790203046
:10562000C078012840D11798BE4B01899942F9D121
:105630001798069904680A98228C4118914233D829
:105640002046203016908078012816D0E08B0490F8
:105650001798806900788006800F7DD003984030CD
:105660001890007A800777D51C980028F5D0AD4FA8
:105670000F99FF372031206814E0BA4214D3B942A1
:10568000DDD80497E4E70389A64A934203D1232295
:10569000125C012A08D0BB4203D12322125C012AEA
:1056A00003D000688842EED134E105900028FBD099
:1056B0009B48052102684902511889690027009119
:1056C00062E0780100990390085A01055AD01999AF
:1056D000002901D0884255D105997A008B69511C67
:1056E000595C9A5C0902891889B20D91890749D0E1
:1056F000022205990AF04EFB002804D019980028D0
:1057000040D0652072E7002008A9C8551C98C00742
:1057100018D0179880690078C00613D50D98C00777
:1057200010D00120C8550543009A0398801840887E
:10573000159A904206D91590009A0398105A0005C0
:10574000000D14901C9880071CD51798806900786C
:10575000800617D50D9800E084E0800712D502205E
:10576000CA5D05430243CA55009903984018408812
:105770001599884206D9159000990398085A000592
:10578000000D14907F1CFFB265480068A030037BB9
:10579000BB4296D8002D65D01898007A00065FD4D9
:1057A0005F480168052040020818816900201BE05D
:1057B00042018E5A360515D0AE070BD556183669FC
:1057C000B7070DD408AF3F5CBF0703D5360701D537
:1057D00046200BE7EE0705D05218127CD20701D005
:1057E000432003E7401CC0B28342E1D81598C01E95
:1057F00086B20498864200D90646A8070FD5202213
:105800000020149904F09CFB129000287DD0F01C1D
:1058100082B20021129800F0EDF8002811D1E807BB
:1058200020D020220020149904F08AFB0B9000283D
:1058300007D0F01C82B200210B9800F0DBF80028A2
:1058400010D08020FEF73CFE1298002802D00021E4
:1058500004F0D2FB0B98002802D0002104F0CCFB0E
:105860006420C3E6A1690A98069A08182499FBF7F0
:1058700090F916988078012801D10498E083002DD2
:1058800046D0274B0520196840020818816900207E
:1058900008AA0CE04301CF5A3F0506D05F18BC466A
:1058A0003B69175C3B4367463B61401CC0B21C4BE5
:1058B0001B68A0331B7B8342ECD8A8070DD5129838
:1058C0000090F01C82B221461C310220A369FEF731
:1058D000B9FB0220129900F085FAE80718D00B985E
:1058E0000090F61C2146B2B21C310120A369FEF7DC
:1058F000A9FB1398002805D00B988021C07C084391
:105900000B99C87401200B9900E005E000F06AFAD9
:1059100000206BE6422069E68020FEF7D1FD9FE77C
:10592000CC19002003280000F0B58468083015E089
:10593000258D8D4203D1146018600120F0BD2646EC
:105940001C602036256A06E0AF8B8F4202D1022010
:105950001560F0BD2D68B542F6D124688442E7D1C8
:105960000020F0BD10B50B6A203106E09C8B84420C
:1059700002D10020136010BD1B688B42F6D141207C
:1059800010BD000010B5094AE3231268DB00D218ED
:105990009368083206E01C8D844202D100200B601F
:1059A00010BD1B689342F6D1412010BDCC190020D8
:1059B00030B50F4BE3251B68ED005B1940330446FF
:1059C0001B7A412085B09B0710D56B469981DA81FF
:1059D000002018820420588203AA04A96D4607C536
:1059E00002231A4601212046FFF7D8FD05B030BD3D
:1059F000CC19002010B5121D806892B204F01AFB79
:105A000010BD0000F0B57D49E3220968D2008E1870
:105A100085B0012806D030461830009009F098FD76
:105A20000446E7E030462430039009F091FD054636
:105A3000BCE0A8682F68007B0290A888FEF7E4FA13
:105A4000040073D021882022002004F079FA01900C
:105A500000286CD0E8886188884204D9002204209C
:105A6000019B029920E04620009002980E284ED01B
:105A70000ADC801E030000F07AFA0B1C13221329A3
:105A8000132F13381341130016285AD004DC1028A2
:105A900046D0122804D14BE018285BD01D2874D0C2
:105AA00000220620019B02990AF0F6F800200090DF
:105AB0005CE029462046019A0AF0FAF94FE02A46AE
:105AC00021463046019B0AF021FC48E02946204649
:105AD000019A0AF025FB42E02069000355D42946CB
