:020000041004E6
:100800000060002019230410872804108928041090
:10081000AA5555AA45554C420000000000000000B2
:100820000000000000000000000000008B28041001
:1008300000000000000000007D2104108D2804103D
:10084000952804107F210410000000000000000023
:100850009728041081210410992804108D21041078
:100860000000000000000000000000000000000088
:10087000000000008F210410912104109321041026
:10088000000000008321041085210410872104103A
:10089000892104108B210410792104107B2104107C
:1008A0000000000000000000000000000000000048
:1008B0000000000000000000000000000000000038
:1008C000EFF31482EFF30981002080F31488BFF363
:1008D0006F8FF0B543464C4655465E466746F8B4C2
:1008E000164CEFF30883236006B4154C2068154CB2
:1008F0002060154C2068154C2060154C2068154C64
:100900002060154C276800202060BFF34F8F30BF58
:1009100027600A4C246884F3088882B003BCF8BCC2
:100920009846A146AA46B346BC46F0BC04BC80F338
:10093000098881F31488BFF36F8F104708000020E7
:1009400004ED00E0AC17002024ED00E0A01700202B
:1009500000E200E0B0170020080020400022430819
:100960008B4274D303098B425FD3030A8B4244D377
:10097000030B8B4228D3030C8B420DD3FF220902B9
:1009800012BA030C8B4202D31212090265D0030B78
:100990008B4219D300E0090AC30B8B4201D3CB036E
:1009A000C01A5241830B8B4201D38B03C01A5241B0
:1009B000430B8B4201D34B03C01A5241030B8B42B2
:1009C00001D30B03C01A5241C30A8B4201D3CB029D
:1009D000C01A5241830A8B4201D38B02C01A524182
:1009E000430A8B4201D34B02C01A5241030A8B4285
:1009F00001D30B02C01A5241CDD2C3098B4201D39D
:100A0000CB01C01A524183098B4201D38B01C01A1A
:100A1000524143098B4201D34B01C01A5241030991
:100A20008B4201D30B01C01A5241C3088B4201D340
:100A3000CB00C01A524183088B4201D38B00C01AED
:100A4000524143088B4201D34B00C01A5241411A14
:100A500000D20146524110467047FFE701B5002021
:100A600000F006F802BDC0460029F7D076E77047CF
:100A70007047C046437802781B021A438378C078D7
:100A80001B041343000618437047C046030A4B700B
:100A9000030C8B70030E0870CB70704703005A78FC
:100AA0000078120202439878197900040243D8783A
:100AB000000610435A7912020A43997909040A433D
:100AC000D979090611437047030A5370030C9370D8
:100AD000030ED3700B0A53710B0C93710B0E107035
:100AE0001171D3717047C046024A13680133136015
:100AF0007047C046000300200E4AD3691B061B0F37
:100B00004370D9B2D3690C4A1B071B0F83700B4B80
:100B10001B68436093420BD102230370002901D16B
:100B200001234370064B9B8A01339B00836070470F
:100B30000123F2E70000904041A00002280090400D
:100B400000001040F0B5070085B001AC0E00200099
:100B50001500FFF7D1FF23783B7063783370A378DB
:100B60002B7005B0F0BD10B501F0ADFE10BD10B595
:100B700001F0C4FE10BD10B501F096FE10BD0000DE
:100B8000F0B51B4C1500A5440D910400EFF3108344
:100B9000069372B60022174B1A7010F089FD0600FA
:100BA000200001F063FE331C864200D9031CDAB238
:100BB000A24200D9231CDBB20F4A990000938B5844
:100BC00001338B50009B002B07D1069B83F31088C9
:100BD0000020A9239B009D44F0BD009B012B0FD159
:100BE0000021064B1A7A1972D2B230BF1A72ECE7A2
:100BF0005CFDFFFF0C00002004030020000070409B
:100C000034226B46E14C9B1825701B787DA823711C
:100C1000FFF772FF237ADE49DBB20F938B88DD4A40
:100C20009BB2109313685C91119300230894059272
:100C300080A91A000598C032920080589A000133AA
:100C40005050082BF5D1D44CD4482368D449129382
:100C5000036AD44F13938023DB051A68D24E149293
:100C60005A68D24D15929A681692DA6817921A69E4
:100C700018925A6919929A691A92DA690A92DA6A8A
:100C80001B921A6B1C925A6B1D921A8F92B21E9273
:100C90005B6CC74A1F93CB6820930B7FDBB2219319
:100CA0008B8C9BB22293C34B1B78DBB22393C24B3A
:100CB0001B78DBB224930B6B2593C04B1B78DBB204
:100CC00026930B8F9BB22793BD4B1B78DBB22893E7
:100CD000BC4B9C461B78DBB229933B78DBB22A9352
:100CE0003378DBB22B932B78DBB22C93B64B1B788B
:100CF000DBB22D9313682E9353682F93137CDBB2D2
:100D00003093137DDBB23193B04BDB7FDBB2329398
:100D1000138D9BB23393D36A3493138E0491A549F8
:100D20009BB25E91A44935935F91A44900236091E1
:100D3000A349019261916146A44A6291A2495D94DE
:100D40006397649665950E906691679269AF6BAEF6
:100D50006DAD6FAC9E4A9A1892041168D9515168D2
:100D60009951918BE950118CE150908C71A9C85028
:100D7000108D73A9C850D06A75A9585011004C3114
:100D8000088877A9C850106D79A95850916D7BAA31
:100D900099500433082BDDD1B0231B061B688D4C02
:100DA000369363688C4A3793A3688C4D3893238AB3
:100DB0009BB23993A38A9BB23A93A3693B93237F57
:100DC000DBB23C93238E9BB23D93636B3E93A36B4C
:100DD0003F93E36B4093236C4193636C4293A36C0A
:100DE000439393889BB2449313899BB24593137C9E
:100DF000DBB24693137DDBB24793138B9BB24893D0
:100E0000137FDBB24993764B998889B24A9119894D
:100E100089B24B91197CC9B24C91197DC9B24D91DF
:100E2000198B89B24E91197FC9B24F916D490868EB
:100E300050904868519028685290287AC0B25390D8
:100E4000C020000128580995039302920D00002349
:100E5000002800D1644B90AA0C939446002388A8E4
:100E600098A9052266465A43604FD21957689F5188
:100E700017681F5097685F50D768A0AA9F50043327
:100E8000202BEED18123DB055A6854921A7BD2B213
:100E900055925A8B92B256921A8B92B257925A6AC4
:100EA00058929A6A1B8859929BB25A93C0231B0688
:100EB0009B685B93009B032B06D19022C023D20535
:100EC00051689B050B435360494B4A4A1B68079383
:100ED000503B0B9300230B99C9180968D150043378
:100EE000502BF8D1444B079A1A607DAA5378927818
:100EF0001B011343112B04DD0020404B186001F04F
:100F000093F99023DB055A683D4B1A60089B1E79C4
:100F10001A788023DB051B685B0A53409E4300D090
:100F200053E6012000F05CFEFFF7CAFC300000F041
:100F300057FE344B1B78002B00D0A1E032494B68A0
:100F40005B0675D4314B32484A6800685C6A84425B
:100F500016D1304849680068884204D0059942405B
:100F6000096811420CD12C4A596812685140C900D5
:100F700006D45B685A4053015AD52B689B0757D556
:100F8000264A274813681B09D91C4BE00000204063
:100F90000000104000E100E020ED00E00000904083
:100FA0000000304054003040580030405C00304079
:100FB00000004040280030402C00304034003040D9
:100FC0004800304050003040600030400500404054
:100FD000281000000000F0400000D04000007040E9
:100FE0000000E04010E000E051E5CC1A080000A04D
:100FF00000080410501700204C1700201400002097
:10100000180000200C000020FCE100E000ED00E0F2
:10101000A0170020B0170020AC17002010000048D7
:10102000FFFF0F0081421BD813681B099942FBD8B0
:101030007DAA537892781B011343112B05DD012003
:1010400001F0F2F80A4A0B4B1A60009B032B00D008
:10105000BBE59022D205536807490B405360B4E5C5
:1010600006495B18116809099942FBD1E0E7C046BF
:10107000CCBCECFC14000020FFFFFFCF0400F0FF0D
:101080000122E74F3A83E74ABE813E610B9B9159AB
:101090009B1904361960502EF8D1079AE24B402173
:1010A0001A606A4652185C9B128880A89A80059B39
:1010B000119A1A6000239A0011581A00059EC03236
:1010C00092000133B150082BF5D15D9B129A782123
:1010D0001A600E9B139A6DAE1A628023149ADB0578
:1010E0001A60159A5A60169A9A60179ADA601A9AD4
:1010F0009A61199A5A61189A1A610A9A9A620A9A16
:10110000DA611B9ADA621C9A1A631D9A5A636A465C
:10111000521812880C311A871F9A5A64049B209A1D
:10112000DA606A465218049B127804311A776A46CC
:101130005218049B128804319A846A4652185E9BA6
:10114000127804311A706A4652185F9B127808317F
:101150001A70049B259A1A636A465218609B12788B
:1011600004311A706A465218049B128804311A8797
:101170006A465218619B127804311A706A465218F6
:101180001278629B04311A706A465218639B127877
:1011900004311A706A465218649B127804311A702E
:1011A0006A465218659B127804311A706A465218C2
:1011B000669B12780C311A70019B2E9A1A60019B63
:1011C0002F9A5A606A465218019B127804311A7499
:1011D0006A465218019B127804311A756A465218F1
:1011E000679B12780431DA776A465218019B12889D
:1011F00008311A85019B349ADA626A465218019BBB
:1012000012881A86002369AA94466FAA049261463E
:101210000C20864A59589A189204116068A9091836
:10122000C95851600191995B91830499595A11846D
:1012300071A9595889B2918473A9595889B21185F5
:1012400075A95958D16277A9595888B211004C3103
:10125000088079A9595811657BA9595804339165BB
:10126000082BD4D1B023369A1B061A60519B509A92
:101270006B600023AB602A60379AE4216260389A81
:101280008820A2606A4652181288043122826A4677
:10129000521812880831A2823B9A4000A2616A4625
:1012A00052181278043122773E9A052662633F9ADB
:1012B00090ADA263409AE263419A2264429A6264CA
:1012C000439AA2646A46521869461288091822860F
:1012D000029A09880430918069460918029A09889F
:1012E0000430118169460918029A09780430117492
:1012F00069460918029A0978922411754021489A82
:1013000002988A430283684664000019029A0078B2
:101310000434107768460019039A008804349080DA
:1013200068460019039A0088043410816846001941
:10133000039A00780434107468460019039A007800
:1013400088AC10754E9A9E208A43039940000A8308
:1013500069460918039A097810301177099A529949
:10136000116069460918099A09781172C0220C980F
:1013700009991201885098A832005A432C495218F2
:10138000595951601959116019589160A0A95958BB
:101390000433D160202BEFD18123549ADB05AA219D
:1013A0005A606A4649005218127804311A736A4624
:1013B0005218128804315A836A46521812880C3126
:1013C0001A83589A5A62599A9A626A46521812882F
:1013D0001A80C0235B9A1B069A600E9B1B7A002B17
:1013E00049D13B89082B46D93B89812B43D80D9B9A
:1013F000002B40D009223B891340934204D1802323
:10140000DB05DB699B0533D411223B8913409342F2
:1014100010D18023DB05DB695B0529D40AE0C046D7
:1014200000001048501700204C1700202810000022
:10143000080000A021223B891340934204D180235D
:10144000DB05DB691B0513D441223B891340934222
:1014500004D18023DB05DB69DB0409D481223B89CD
:101460001340934207D18023DB05DB699B0402D53F
:1014700001220E4B5A60009B032B05D19022D2050E
:1014800053680B490B4053606A463C215218089B35
:1014900012781A72009B032B05D100203B3900F013
:1014A00081FFFFF792FB00210800F8E7FCE100E074
:1014B000FFFFFFCF81220823D20511880B43138041
:1014C00070470000812310B50324DB0501785A68BA
:1014D0002140BD348901A2430A435A6042785968C9
:1014E0000F2A22D18022D2030A435A608123032487
:1014F0000179DB055A6821402D340901A2430A43D2
:101500005A608278082A1AD18022596812010A4347
:101510005A608121C2780320C9054B6802400A48FD
:101520001202034013434B6010BD084C21400724B6
:1015300059605968224024195200A143D4E75A68DF
:1015400003490A40E4E7C046FFFCFFFFFFFFBFFF7F
:10155000FFF7FFFF8123DB0501280FD15A681988A7
:10156000520204D5802252000A431A8005E0042268
:101570000A431A801A88104318807047198810226D
:10158000F2E700008123DB05012805D180221988BC
:1015900092000A431A8070471A8801490A40F9E705
:1015A000FFFDFFFF8123DB051988012803D10222FB
:1015B0000A431A80704740220A4302211A801A887F
:1015C0008A43F6E78123DB0580221988012802D1AE
:1015D0000A431A80704791431980FBE70122036890
:1015E000934303600023036043608360C360204B28
:1015F000984206D1A022F023120651680B43536093
:1016000070471C4B984205D1A022F0231206516866
:101610001B01F3E7184B984205D1A022F0231206D4
:1016200051681B02EAE7154B984205D1A022F0232E
:10163000120651681B03E1E7114B984205D1A02225
:10164000F023120651681B04D8E70E4B984205D1CF
:10165000A022F023120651681B05CFE70A4B9842DF
:10166000CED1A022F023120651681B06C6E7C04661
:101670001C0000A0300000A0440000A0580000A002
:101680006C0000A0800000A0940000A0012302686C
:10169000002902D01343036070479A430260FBE7BE
:1016A000044BDA7F002902D01043D8777047824379
:1016B000DA77FBE705009040A0231B0658607047CF
:1016C000024A138ADB07FCD57047C0460000104071
:1016D000084B10B51A68084B9A4209D13F22074BB4
:1016E00040061A81000C2E3A98611A80FFF7E8FF35
:1016F00010BDC04614000020CCBCECFC0000104023
:10170000084B10B51A68084B9A4209D13F22074B83
:1017100080081A810C3A986119641A80FFF7D0FF8B
:1017200010BDC04614000020CCBCECFC00001040F2
:10173000F7B5019001790468002931D18022D205E2
:101740005368A3435360019B20251E688023002219
:101750006D42DB0534000120D44004420BD0D4B2EA
:10176000072A26D897000E30B840DC6A8443080068
:10177000B8400443DC62013204351A2AEAD1019BE5
:101780005A798023DB05012A3AD1DA683243DA60DC
:10179000019A9279012A36D19A6816439E60F7BD64
:1017A0000629D0D18022D2055368002123435360FB
:1017B000C9E72700083F072F08D80F27AF401C6B49
:1017C000BC430F00AF403C431C63D4E7103C072CE4
:1017D0000AD82F000F20203FB8405C6B84430800DC
:1017E000B84004435C63C6E72F000F20403FB84079
:1017F0001C8F84430800B8400443A4B21C87BAE796
:10180000DA68B243C3E79A68B2439A60C7E7002335
:10181000036003718371437170478023DB050129E5
:1018200001D1D86370471864FCE70000012270B54D
:1018300003880D009343038049790400080023883E
:101840000232274E10404003334003432380254B90
:101850004900C85A2968244B4843181A234B994217
:1018600029D84900FFF77AF8302223889343238050
:10187000C023626892B29B02134363606368EA8884
:101880009B0A9B0213430322062180B263602085DA
:101890002B791A40238852008B43134323802A7AE2
:1018A0000823012A18D12288134323800123228888
:1018B0001343238070BD0E4B9942DFD85143FFF78D
:1018C0004DF83022238893431A00102313432380BA
:1018D0006268802392B2CEE722889A432280E5E7AD
:1018E000FF9FFFFF041800200024F400A0860100E1
:1018F000801A0600034B0360002303714371C38009
:1019000003727047881300008A880B881343CA88C3
:1019100013430A8913434A8849895200C9030A4379
:101920001343C360704701747047007EC0B27047B4
:101930008023028813430380704702230068000657
:10194000C00F181A7047006B0840411E8841C0B292
:1019500070478163704740690007800F7047C0235C
:1019600080211B061A680A431A601A688A431A60A3
:1019700070470000044B1A6A012902D11043186213
:10198000704782431A62FBE700009040244B1A7AAA
:10199000244BD2B21B899BB2002A36D11A00093AD5
:1019A000782A19D809211A0006200A408A422BD029
:1019B000112201301A40112A26D0212201301A406A
:1019C000212A21D0412208001A40412A1CD081221C
:1019D00001301A40812A17D002221900FF3211402B
:1019E0000B20914210D019000F4A01301140914252
:1019F0000AD01A0007380240824205D00238184047
:101A0000033843425841800070470120022AFBD02E
:101A10000018042AF8D00020082AF5D10330F3E793
:101A2000000090400000104801040000054B012216
:101A3000196B002802D00A431A6370479143196357
:101A4000FBE7C04600003040F8B54A4C0500236B68
:101A500001681B0700D56DE009014748FEF77EFFCE
:101A6000C3099AB2A284454ADB0101301340C01A6F
:101A7000400880B23F2802D93F233F38184003274F
:101A800060263F4BC0B218703E4B2A7918783A4016
:101A90005201B0431043187001206979227F394008
:101AA0004901B2430A432277AA7919780240BA4021
:101AB0000730814311431970217F81430A43227704
:101AC000EA79002A38D102211A788A431A70227FD3
:101AD0008A43012022772A7A216B1600C2402A4FBE
:101AE00006407602394031432163216B274E024084
:101AF000314012020A432263697A226B0E00C14010
:101B0000234F06403A40B60332432263226B214EF4
:101B100001403240C90311432163AA7A1978024077
:101B20000F301201814311431970237F83431A43FD
:101B30002277F8BDC90090E7022A0CD10420197859
:101B400011431970197881431970217F0A43227754
:101B5000227F8243BDE702211A780A431A700422C9
:101B6000187810431870207F01432177217F0A43A2
:101B7000AFE7C046000030400000127A80FF7F00CF
:101B8000280030402C003040FFFDFFFFFFFEFFFF2C
:101B9000FFBFFFFFFF7FFFFF024BC005C00D188096
:101BA0007047C04600003040054B002805DA5B68EE
:101BB0001840431E9841C0B270471B8BF8E7C046DF
:101BC000000030400722024038200449D2000B7840
:101BD00083431800104308707047C04634003040FB
:101BE000054B04221969002802D00A431A61704784
:101BF00091431961FBE7C04600ED00E00A0010B513
:101C00000100024800F082FEFEE7C046A01C05105D
:101C100037B50D00012903D90F491048FFF7EEFF32
:101C20006B46DC1D202201235F21200000F010FA0A
:101C3000012300280DD17F222178ED011140294395
:101C400021705F3A5F21200000F0BCF9431E9841EB
:101C5000C3B218003EBDC04661020000671C0510FB
:101C600073B50B0040260D00B34303D00E490F4857
:101C7000FFF7C4FF6B46DC1D222201235F212000F9
:101C800000F0E6F9012300280BD122785F21B2434E
:101C9000154320002222257000F094F9431E98413C
:101CA000C3B2180076BDC04639030000671C05109A
:101CB00037B501AC0D00012360221E21200000F089
:101CC000C7F9032321781D40994329432170023B22
:101CD00060221E21200000F075F93EBD37B501AC31
:101CE0000D00022310225D21200000F0B1F9032332
:101CF00070212B401A0123788B4313430122237058
:101D000002232911114048006178ED1099430143E5
:101D100015409143294361700F325D21200000F08E
:101D200051F93EBD37B501AC0D00012310226B21E6
:101D3000200000F08DF90F2321782D01194029434F
:101D400021700E3B10226B21200000F03BF93EBDBC
:101D500037B501AC0D00012311226B21200000F0EA
:101D600077F90F2321782D011940294321700E3B6B
:101D700011226B21200000F025F93EBD37B501ACE2
:101D80000D00012312226B21200000F061F90123D4
:101D9000102221781D402D019143294321700232E8
:101DA0006B21200000F00EF93EBD37B501AC0D00EF
:101DB000012312226B21200000F04AF90123202286
:101DC00021781D406D019143294321700E3A6B210A
:101DD000200000F0F7F83EBD10B504002020FFF70A
:101DE000E3FE0128FAD0A0B2FFF7D6FE10BDF0B591
:101DF000012187B006000920FFF7BCFD80230024E5
:101E0000012501AF5B00380001933D71BC717C710D
:101E1000FFF78EFC802338001B0101933D71FFF713
:101E200087FC032303A80371437103728471C47197
:101E3000447285720396FFF707FE2000FFF7C2FE8B
:101E40002800FFF7F3FD07B0F0BD10B58020FFF7C5
:101E5000ABFE43425841C0B210BD10B50820FFF799
:101E6000A3FE013843425841C0B210BD01000A4AE6
:101E70000A4810B51368046801209C4209D008483C
:101E8000C05C0133087080210020C9008B4201D062
:101E9000136010BD1060FCE7180700201407002035
:101EA000140300200B4A10B513680B49002B00D116
:101EB000116080241368640118180919884205D933
:101EC0000C220120054B40421A6010BD1060180022
:101ED000FBE7C0461C1700201C070020B417002099
:101EE00001204042704780239B0100204B607047D7
:101EF000012070470020704770B50E0015000C00DF
:101F0000A31B9D4201DC280070BD2078FFF764FF11
:101F10000134F5E770B50E0015000024AC4208D27C
:101F20003019FFF7A3FF002801D10134F6E7002C98
:101F3000F4D0200070BD10B500F0C5FC10BD10B588
:101F400000F0C1FC10BD10B50A00002100F0D6FC65
:101F500010BD00000222014B1A70704720170020AC
:101F6000F0B5012187B006001348FFF703FD0025F7
:101F70001023042701AC200001932771A57165711E
:101F8000FFF7D6FB20232771200003AC0193FFF756
:101F9000CFFB2000FFF7AEFC01230396074E210084
:101FA00030002371FFF742FC30000549FFF7D1FCF8
:101FB000280007B0F0BDC046010400000000A040AA
:101FC0007F809F73F0B51E00002385B001AD2B808C
:101FD000AB8080235B01EB808023DB0104002B813D
:101FE0001948731C170069806B81FFF7A1FC164824
:101FF000FFF7A3FC0128FAD029001348FFF784FC5F
:1020000039001148FFF78FFCA619B44213D1802480
:1020100024030D48FFF79FFC032812D021000A4833
:10202000FFF791FC0028F4D007480849FFF791FC1E
:10203000002005B0F0BD21780348FFF774FC01349F
:10204000E3E70120F5E7C0460000A04000000810CB
:10205000F0B587B0170001938022002303AC050080
:1020600023808EB2A380520123812C4801336680E5
:10207000E2806381FFF75CFC2848FFF75EFC0128E3
:10208000FAD021002548FFF73FFC3900234880277C
:10209000FFF749FC7F052148FFF75DFC032802D1CB
:1020A000012007B0F0BD39001C48FFF74CFC0028A8
:1020B000F1D0802119484905FFF74BFC012323800B
:1020C0000023A38080235B01E3808023DB01238145
:1020D0006B469B8866806381210010488024FFF74F
:1020E00013FC24030D48FFF736FC0328D8D0210049
:1020F0000A48FFF728FC0028F4D009490748FFF7F1
:1021000028FC019BEC18A54201D10020C9E7034837
:10211000FFF70BFC28700135F5E7C0460000A04032
:1021200000000810012804D00123022803D008234E
:1021300001E08023DB011800704710B5FFF7F2FFC4
:102140000121FFF76AFB10BD13B50121040008004F
:10215000FFF710FC2000FFF7E5FF6A460623137126
:10216000002300909371684601335371FFF7E0FA42
:102170002000FFF7E2FF13BD7047704770477047BC
:102180007047704770477047704770477047704797
:1021900070477047002210B5104B995CC9B20029F6
:1021A00017D11C2A14DC022021249854501C1C54E2
:1021B000901C193C1C54D01C19549B18802290214F
:1021C0009BB252021343C905CB60CB681342FCD1CA
:1021D00010BD995C01315218D2B2DEE72117002000
:1021E000002330B50E4AD15CC9B2002913D11C2B93
:1021F00008DC02243525D4545C1C15559C1C033383
:102200001055D1540222074B1A7033325A700022F3
:102210009870DA7030BDD15C01315B18DBB2E2E757
:1022200021170020A417002010B5104B00280AD059
:10223000802290219BB252021343C905CB60CB6828
:102240001342FCD110BD042198789A789CB28A433D
:102250009A708022902152021443C905C0B2CC600A
:10226000CC681442FCD19870ECE7C046A41700205B
:10227000012330B5234A0324117A85B00B4313722E
:102280000022214B1A60FFF781FB6B460333187065
:102290001A78002A03D1013CE4B2002CF3D11A7859
:1022A000052A2BD91B780B2B10D001AC2000FEF790
:1022B00023FC6278A37812011A43144B1B681B0796
:1022C0000AD4112A02DD0120FFF7AEFF0122104BD4
:1022D0001A70FEF71EFBFEE790250E4CED052869EF
:1022E0002368283B1B1A1B02002BEFDD112A02DD9D
:1022F0000120FFF799FF23686B60E7E7012005B035
:1023000030BDC0460000204014000020C000002066
:102310000C0000201800002070B5FFF7A9FF01286D
:1023200017D1002314481549154C1A188A4216D3A0
:10233000002314481449154C1A188A4213D300215B
:10234000134B144A934212D30021134B134A934266
:102350000FD3134B83F3088800F0E8F970BDE558FC
:1023600004331560E1E7E55804331560E4E702C380
:10237000E8E702C3EBE7C046B8170020701800205A
:102380005821051008000020340000202C210510E1
:10239000C0000020CC020020CC020020B817002092
:1023A0000060002070B58AB003AC06000D00192251
:1023B0004149200000F087FA6846FEF79DFB002E99
:1023C00060D044233D4AA373117A433B0B431372FD
:1023D0004C23E3722C3B237292336374573B237577
:1023E000374B384A1B68190C914208D17020E17DA7
:1023F0001B018143E175E17D03400B43E375324BE3
:102400001B68190C914208D1302061791B0181436E
:102410006171617903400B4363712C4B1B68190C8C
:10242000914207D10321E27D0B408A43E275E27DB0
:102430001343E3750422E37A69469343E3726B46E0
:102440005B78897893400B43112B06DDE37D1A43BB
:10245000E275E07DC0B2FFF7C3FE80239022240422
:10246000240C5B021C43D205D460D1681942FCD114
:102470006B466A465B7892781B011343112B01DD92
:10248000FFF788FE124B1A8B002AFCD001221A8318
:1024900016329A8100221A61954207D090231021AA
:1024A000DB0518691A6942400A42FBD0094A0A4B07
:1024B0001A600AB070BDC046301C051000002040F4
:1024C000E807001055AA0000E4070010B00700104C
:1024D00000001048CCBCECFC140000200822C021F5
:1024E000F8B53F4B3F4D9A803F4A0904136AFF20DD
:1024F0002B400B43C0211362136A09061B021B0AFF
:102500000B431362C02292009446384B64469A589B
:10251000374E82433F38024360461A501A58C02053
:102520003240000202431A51C122FF2792009C58F8
:10253000BC433F3F3C439C509C583F37344004438E
:102540009C509C582C409C509C582402240A0C43BC
:102550009C500832944664469A58324002431A51BD
:102560001A59C0242A402404224364461A511A5995
:102570001202120A0A431A51C42292009446644677
:102580009A58324002431A511A59C0242A4024044E
:10259000224364461A511A591202120A0A431A5166
:1025A000C52292009C58BC432700C0242743C02466
:1025B0009F509F5824043E403043985098580540FF
:1025C0002C439C5098580002000A01439950012165
:1025D0000800FFF7E7FE074A074B1A6262B6F8BD2C
:1025E00000001040FFFF00FF00ED00E000E100E010
:1025F000FF00FFFF66000E00000090401FB50421A1
:10260000012001F08AF9011E03D0134800F07EF981
:10261000FEE701F07EF9011E15D0104800F076F9B2
:102620000E236B44019303AB00930A2300216B44F8
:102630000822012001F034F9011E08D0084800F0FA
:1026400065F905B000BD074800F0DAF9E8E706488B
:1026500000F0D6F9F5E7C046041D0510331D05103E
:10266000721D0510551D0510931D051013B50400AE
:10267000802001214000FFF77DF9802001214002E8
:10268000FFF778F90020FEF77DFF00211848FEF7DC
:10269000FDFF0020FEF75EFF8022164B1204DA6772
:1026A0000420FFF709F80220FFF706F8FEF702FF03
:1026B0000F48FEF793FF00210120FEF7F1FF0120F4
:1026C000FEF770FF0120FEF77DFF052C0ED10023E1
:1026D0006A46694613705470022268460A71CA70CD
:1026E0008B70FEF7EFFE0120FEF734FF13BDC046EE
:1026F000080000A004E100E037B501210800FFF761
:1027000039F96846FFF783F86A46062300251371F6
:10271000802401236846957153710094FFF708F8EF
:1027200029002000FFF779F837BD000010B590B000
:10273000FFF7D4FEFFF70EFCE1204002FFF757FB46
:102740003E4801F033F9041E04D001003C4800F07B
:10275000DDF8FEE7FFF78AFF2000FFF7F5FC012018
:10276000FFF7F2FC0220FFF7EFFCFFF747FFFFF750
:10277000C3FF3448FFF7F4FB21002000FFF7D2FA33
:1027800021002000FFF7E4FA01212000FFF7F6FA0C
:1027900001212000FFF709FB21002000FFF79EFA2E
:1027A00002212000FFF784FA40212000FFF758FAA9
:1027B00001212000FFF72CFA21008020FFF72DF8DF
:1027C0001E22214908A800F07EF82100200003F015
:1027D000D2FF041E0FD001001C4800F097F81C49DE
:1027E0001C4800F093F801F09DF80022032011002E
:1027F000FEF7C6F9F7E7184800F002F9A0220694A0
:10280000110005940494039402940194009423000D
:10281000032001F05DF8011E1048DED1104800F0E1
:10282000EFF808A91E2003F09BFF011E01D00D4800
:10283000D3E70D4800F0E4F8D1E7C046D01C0510FE
:10284000AF1D0510801A0600491C0510E01D05107B
:10285000E71E0510ED1E05100E1E0510371E051093
:10286000641E05108C1E0510BC1E051010B5FFF768
:10287000ECFA002804D1FFF7F0FA0323002800D077
:102880000023180010BD7047FEE7704710B5FEF733
:102890002BF910BD7047704710B504F013FD10BD43
:1028A00010B500F019F810BD30B50024A24201D1D6
:1028B000002005E0035D651C0C5DA34201D0181BE0
:1028C00030BD2C00F2E7002310B59A4200D110BDB4
:1028D000CC5CC4540133F8E710B5884202D98B1898
:1028E000984208D300239A4207D0CC5CC4540133E9
:1028F000F9E78B5C8354013AFBD210BD03008218C8
:10290000934200D1704719700133F9E70FB40B4BB4
:1029100013B51C68002C05D0A369002B02D1200040
:1029200000F03CFA05AB049AA1682000019300F086
:1029300007FC16BC08BC04B01847C0460C180020A1
:1029400070B505000E00002804D08369002B01D16A
:1029500000F024FAAB69AC68002B02D1280000F02B
:102960001DFA244B9C420FD16C68A3891B0702D52A
:102970002369002B20D12100280000F0A1F80028B5
:102980001AD00120404270BD1B4B9C4201D1AC6863
:10299000EBE71A4B9C42E8D1EC68E6E7013B0136D5
:1029A000A360002B04DAA269934216DB0A2914D033
:1029B00023685A1C226019703178A3680029EDD170
:1029C000013BA360002B0FDA22000A31280000F03F
:1029D00021F8431CD5D00A20D5E72200280000F0BA
:1029E00019F8431CE8D1CCE70A2023685A1C22605E
:1029F0001870C8E7441F0510641F0510241F051038
:102A000010B5034B01001868FFF79AFF10BDC046D0
:102A10000C180020F8B505000E001400002804D0A2
:102A20008369002B01D100F0B9F9224B9C422DD1D2
:102A30006C68A369A360A3891B0731D52369002BA8
:102A40002ED023682269F7B2981A6369F6B29842C9
:102A500005DB2100280000F033F9002826D1A36807
:102A60000130013BA36023685A1C22601F70636918
:102A7000984204D0A389DB071AD50A2E18D1210069
:102A8000280000F01DF9002812D00FE00A4B9C42EC
:102A900001D1AC68CDE7094B9C42CAD1EC68C8E7CC
:102AA0002100280000F00CF80028CAD00126764248
:102AB0003000F8BD441F0510641F0510241F0510C9
:102AC000364B70B51D6806000C00002D05D0AB69B3
:102AD000002B02D1280000F061F9314B9C420FD14C
:102AE0006C680C23E25E93B219072DD4D90611D479
:102AF00009230120336037331343A381404270BD63
:102B0000284B9C4201D1AC68EBE7274B9C42E8D1B3
:102B1000EC68E6E75B0713D5616B002908D023005A
:102B20004433994202D0300000F03AFA0023636344
:102B30002422A3899343A381002363602369236034
:102B40000823A2891343A3812369002B0BD1A02161
:102B50008022A389890092000B40934203D0210078
:102B6000300000F0D9F90123A289134011D00023CD
:102B7000A36063695B42A361002023698342BED1E5
:102B80000C23E25E1306BAD540231343A381013818
:102B9000B5E7920700D46369A360EDE70C18002045
:102BA000441F0510641F0510241F0510F7B58A89FE
:102BB00005000C00130760D44B68002B04DC0B6C81
:102BC000002B01DC0020FEBDE76A002FFAD00023B5
:102BD0002E682B6080235B011A4034D0606DA3897E
:102BE0005B0706D56368C01A636B002B01D0236CAA
:102BF000C01A0200216A00232800E76AB847A189A9
:102C0000431C06D12B681D2B31D82C4ADA40D30740
:102C10002DD50023636023692360CB0405D5431CB5
:102C200002D12B68002B00D16065616B2E600029FA
:102C3000C8D023004433994202D0280000F0B0F9F4
:102C400000206063BFE70123216A2800B847431CC6
:102C5000C5D12B68002BC2D01D2B01D0162B01D162
:102C60002E60AFE74023A2891343A381ABE7402343
:102C70000B430120A3814042A5E70F69002FA1D09B
:102C80000B680F60DB1B01930023920700D14B6997
:102C9000A360019B002B00DC94E7019B3A00216AB2
:102CA0002800A66AB047002803DC4023A28913430A
:102CB000DFE7019B3F181B1A0193EAE70100402060
:102CC0000B6970B505000C00002B01D1002070BD10
:102CD000002804D08369002B01D100F05FF80B4B72
:102CE0009C4209D16C680C22A35E002BEED021001F
:102CF0002800FFF75BFFEAE7054B9C4201D1AC6877
:102D0000F1E7044B9C42EED1EC68ECE7441F051060
:102D1000641F0510241F051010B5024900F0B2F819
:102D200010BDC046C12C0410002310B50400036080
:102D30004360836081814366C28103614361836133
:102D4000190008225C30FFF7D9FD054B246263624D
:102D5000044BA362044BE362044B236310BDC046E3
:102D6000AD360410D53604100D3704103937041071
:102D700070B568254A1E55430E002900743100F0D5
:102D800059F9041E08D000212A00016046600C3069
:102D9000A0606832FFF7B2FD200070BD836913B5F3
:102DA0000400002B28D18364C3640365134B144AC9
:102DB0001B6882620193984201D101238361200044
:102DC00000F020F86060200000F01CF8A0602000F7
:102DD00000F018F80022E06004216068FFF7A4FF0B
:102DE00001220921A068FFF79FFF02221221E0685B
:102DF000FFF79AFF0123A36113BDC046201F0510F2
:102E0000192D0410F8B51E4B07001E68B369002B7E
:102E100002D13000FFF7C2FF4836B4687368013B47
:102E200004D53368002B07D03668F6E70C22A55E80
:102E3000002D0DD06834F2E704213800FFF798FF29
:102E400030600028F0D10C2304003B602000F8BD66
:102E5000012320005B42E3810233A3816566256084
:102E6000A560656025616561A561082229005C3067
:102E7000FFF744FD6563A563A564E564E6E7C04626
:102E8000201F0510F7B50400070000260191483403
:102E9000002C01D13000FEBD6368A5680093009B43
:102EA000013B009301D52468F2E7AB89012B08D9D7
:102EB0000E22AB5E013304D029003800019B9847F5
:102EC00006436835EBE7000070B50E001D000E23C9
:102ED000C95E90B01400002907DA00232B60B38983
:102EE0001B0611D48023DB000FE001AA00F050FC88
:102EF0000028F2DBF022029B12021340054A9B18C5
:102F00005A4253412B60EDE740230020236010B06C
:102F100070BDC04600E0FFFFF7B502268B890500B3
:102F20000C00334206D02300473323602361012382
:102F30006361F7BD01AB6A46FFF7C6FF0099070062
:102F4000280000F077F8002808D10C22A35E9A052B
:102F5000EFD4032293431E43A681E4E70F4BAB62F9
:102F60008023A28920601343A381009B20616361B9
:102F7000019B002B0DD00E23E15E280000F01AFC0F
:102F8000002806D00322A38993431A000123134388
:102F9000A381A0893843A081CBE7C046192D041036
:102FA00070B50500002910D00C1F2368002B00DA33
:102FB000E418280000F02FFC1D4A1368002B05D1EF
:102FC00063601460280000F027FC70BDA34209D99B
:102FD000216860188342F3D118685B68411821604A
:102FE000EEE713005A68002A01D0A242F9D9196805
:102FF0005818A0420BD1206809185818196082424D
:10300000E0D110685268411819605A60DAE7A042AE
:1030100002D90C232B60D5E721686018824203D1C6
:10302000106852684118216062605C60CAE7C0465F
:1030300044170020032370B5CD1C9D4308350600BE
:103040000C2D1ED20C25A9421DD8300000F0E3FB48
:10305000254A14682100002919D1244C2368002B2B
:1030600003D1300000F010FB20602900300000F098
:103070000BFB431C2CD10C233000336000F0CCFB45
:1030800003E0002DDFDA0C233360002070BD0B68F5
:103090005B1B1AD40B2B03D90B60CC18256003E003
:1030A0008C420ED163681360300000F0B5FB200045
:1030B00007220B30231D9043C31AE7D05A42E25037
:1030C000E4E74B6863600C00EEE70C004968C2E778
:1030D0000323C41C9C43A042E0D0211A300000F01E
:1030E000D3FA431CDAD1C6E7441700204817002062
:1030F000936810B5013B9360002B05DA9469A342F5
:1031000008DBCBB20A2B05D01368581C106019706D
:10311000C8B210BDFFF77EFCFBE7F8B506000F0054
:103120001400D518AC4201D1002007E021783A0004
:103130003000FFF7DDFF0134431CF3D1F8BD000080
:10314000F0B59FB006000F0014000593002804D0CE
:103150008369002B01D1FFF721FE7F4B9F425CD199
:103160007768BB891B0762D53B69002B5FD00023C2
:1031700006AD6B6120336B761033AB760294029C04
:103180002378002B5DD1029BE31A04930DD0049B9E
:10319000029A39003000FFF7C0FF431C00D1CCE099
:1031A0006A69049B944663446B612378002B00D1C9
:1031B000C3E00122002352426A6002A9543252182D
:1031C00001342B60EB60AB601370AB652178052296
:1031D000624800F015FB631C9C46002835D1296825
:1031E000CB0604D5532302AA20309B1818700B0776
:1031F00004D553232B2002AA9B18187023782A2B5E
:103200002CD000200A21099B2278303A092A00D8C4
:103210006BE000282AD0099328E0514B9F4201D14E
:10322000B7689EE74F4B9F429BD1F76899E73900FB
:103230003000FFF745FC002899D0012040421FB024
:10324000F0BD252B9FD001349AE7444B2968C01A62
:10325000012383400B432B606446B7E7059B181D91
:103260001B680590002B3ADB0993644623782E2BCC
:103270000BD16378621C2A2B3FD1059B02341A1DA7
:103280001B680592002B35DB079321780322364813
:1032900000F0B6FA002807D0334B2A68C01A402342
:1032A000834013432B6001342178631C06222F488E
:1032B0000293297600F0A4FA002844D02C4B002B6E
:1032C0002FD12968059B0722C90528D59B18934350
:1032D000083305936B69039A9B186B614FE75B4258
:1032E000EB6002230B432B60BFE74B4301349B1879
:1032F000012089E701235B42C6E7002314000A206E
:103300001A006B6021783039092903D9002BBCD011
:103310000792BAE74243013452180123F2E7073318
:10332000D5E705AB00933A00124B2900300000E0CE
:1033300000BF0390039B0133CCD1BB895B0600D552
:103340007BE70B987BE705AB00933A00094B29001C
:10335000300000F07FF8ECE7441F0510841F0510D3
:10336000641F0510241F05108A1F05108E1F0510ED
:10337000000000001B310410F7B5150001938A68A6
:103380000B6900900C00934200DA130022002B60BE
:1033900043321278002A01D001332B6023689B0648
:1033A00002D52B6802332B60062723681F4027D0E5
:1033B000230043331B785A1E93412268920630D46F
:1033C0002200019943320098089EB047431C25D043
:1033D000062320682A68E16803400025042B03D1F6
:1033E0008D1AEB43DB171D40A3682269934201DD70
:1033F0009B1AED180027BD4220D1002010E00137B4
:10340000E3682A689B1A9F42D2DA2200012319320C
:1034100001990098089EB047431CF0D1012040421A
:10342000FEBD3020E1184331087021005A1C45319F
:103430000978A218433202331170C1E72200012338
:103440001A3201990098089EB047431CE6D0013714
:10345000D1E70000F0B58BB006920A004332079323
:10346000059004920A7E0C00109B6E2A00D18FE01A
:1034700017D8632A2CD008D8002A00D199E0582AFE
:1034800054D026004236327029E0642A01D0692ADD
:10349000F7D121681A68080623D5111D196015682F
:1034A00025E0732A00D188E008D86F2A29D0702A35
:1034B000E7D1202209680A43226003E0752A20D060
:1034C000782ADED122007821453211706C4A30E032
:1034D0000E001A684236111D1960136833700123FB
:1034E00079E04906D9D5111D19600023D55E002D5C
:1034F00003DA2D23049A6D421370624B0A2703935B
:103500002FE020681968050603D5081D18600D68AE
:1035100005E04006F9D50D68081D1860ADB2594B9D
:10352000082703936F2A18D00A2716E045310A703E
:10353000544A03921A682168101D1860156808061D
:1035400022D5CB0702D52023194321601027002D57
:1035500003D1202322689A432260230000224333B0
:103560001A706368A360002B5CDB0422216891431E
:103570002160002D58D1049E002B64D02600039BAF
:1035800042361B7833705EE04806DAD5ADB2D8E734
:1035900009681A68080605D5111D19601368626963
:1035A0001A6006E04906F7D5111D19601368A28A52
:1035B0001A800023049E236154E01A68111D1960CB
:1035C000166800216268300000F01AF9002801D066
:1035D000801B6060636823610023049A137041E0DC
:1035E0002369320006990598079DA847431C43D0DC
:1035F000236800259B070FD4099BE06898423DDAB9
:1036000018003BE022000123193206990598079E15
:10361000B047431C30D00135E368099A9B1A9D429C
:10362000F0DBE9E7002DA9D0049E28003900FDF762
:103630001BFA039B013E5B5C280033703900FDF7E9
:103640008DF9051EF1D1082F09D12368DB0706D5B6
:1036500063682269934202DC3023013E3370049B8D
:103660009B1B2361079B09AA00932100069B0598D9
:10367000FFF782FE431CB3D1012040420BB0F0BDE6
:10368000A61F0510951F0510002370B5064C0500F8
:1036900008002360FEF706FC431C03D12368002BBF
:1036A00000D02B6070BDC046B417002070B50C0070
:1036B0000E25495F00F0B2F8002803DB636D1B188C
:1036C000636570BDA389024A1340A381F9E7C04630
:1036D000FFEFFFFFF8B51F008B8905000C001600F7
:1036E000DB0505D50E23C95E0022022300F074F825
:1036F000A389054A28001340A38132000E23E15E0E
:103700003B0000F01FF8F8BDFFEFFFFF70B50C00A5
:103710000E25495F00F060F8A389421C03D1054AD9
:103720001340A38170BD802252011343A3816065C1
:10373000F8E7C046FFEFFFFF10B50E23C95E00F0AB
:1037400015F810BD70B50500080011000022064CE8
:1037500022601A00FEF7D0FB431C03D12368002B24
:1037600000D02B6070BDC046B4170020002370B598
:10377000064C050008002360FEF7B2FB431C03D192
:103780002368002B00D02B6070BDC046B41700200A
:10379000002370B5064C0500080011002360FEF7F9
:1037A000A2FB431C03D12368002B00D02B6070BD0B
:1037B000B4170020002370B5064C050008002360F4
:1037C000FEF796FB431C03D12368002B00D02B602F
:1037D00070BDC046B417002070B505000800110088
:1037E0000022064C22601A00FEF784FB431C03D122
:1037F0002368002B00D02B6070BDC046B41700209A
:10380000C9B28218904201D10020704703788B42E0
:10381000FBD00130F6E770477047000070B5050037
:10382000080011000022064C22601A00FEF772FB0D
:10383000431C03D12368002B00D02B6070BDC04611
:10384000B4170020F0B5054600200F46079E059CE2
:10385000174309D0202905D30127BF03BA4201D855
:10386000914201D94220F0BD194621430AD09C4221
:10387000F8D309498C4203D00849A41F8C42F1D2E5
:10388000062BEFD3002D03D0022D01D0032DE9D15B
:10389000032EE7D8F0BD0000FFFF00007B0C000006
:1038A0007CB5069D079C002805D0860705D14607F4
:1038B00003D4060701D442207CBD002903D001298E
:1038C00001D00229F7D10095019400F05FFA7CBD88
:1038D000FFB587B0109D159E169C0193029500942C
:1038E00007A807C81F463346FFF7ACFF00280ED1D4
:1038F0001398149903AA069443C21198129901903F
:103900000095029107A807C83B4600F09DFB0BB04D
:10391000F0BD10B501F0D6FD10BD10B502F0DAFD16
:1039200010BD000010B503F033F81E4C472120688D
:1039300049014118097B002909D1A0300079C0074D
:1039400029D002F0C7FE02F077FE0BF0B5F800F0C8
:1039500003F92068014640310A78C9798A4319D1B0
:103960003E21095C002915D10F490A88120711D59B
:103970000922D2061269497A836AC90059180923B3
:103980001B02C018806D801A00020012814201DA09
:1039900008F058FA10BD00F037FB01F02DFC09F0DB
:1039A00077F9D0E700180020C000002010B5837F11
:1039B0000122002492024168082B03D9422491423B
:1039C00002D310E0914201D242240CE0014634229D
:1039D0000648FDF7C8F800F07FF8002801DA48240F
:1039E00001E000F029F9204610BD0000CC020020C3
:1039F0003EB5174D15482968827F0846A0310A73E5
:103A000000246030047644768476E122C2768022F7
:103A1000027702224277302008704C7002AA01A976
:103A20006846FDF78FF868460078A22201016846D3
:103A3000007A891C000201436846007900030143B3
:103A400028681152A03004713EBD0000CC02002055
:103A50000018002070B502F07FFF07F085FD06F02A
:103A600079FC0BF049FE03F04DF9184C1849206819
:103A7000184D4018811001202A68C0021018C16634
:103A8000616889080167A168890841670AF004FA3A
:103A90001D2029688001228B08180287628B4287CB
:103AA000A28B4286628C82862046203002783B20A0
:103AB0004001081882750021017000F065FA02F0DB
:103AC000C9FD02F051FD0BF07DF870BDCC02002065
:103AD0000000FCEF0018002070B50025ED4302F057
:103AE000F6FD01282ED0002318490322888BFF24DD
:103AF000401E10438A7F4D3462438218088B28246D
:103B000060431218488B3024604312180846203056
:103B100040782C24604310180D4A181884184869FE
:103B2000A0420DD10B4884420AD90D6902F0CFFDA5
:103B3000C1B2284605F092F905F0C0FA401B251ADB
:103B4000284670BDFF23B533CEE70000CC0200202D
:103B500039190000580A0000F8B52C4F3C68206E57
:103B60005C34401C002814D0002529480023C07B69
:103B700000283ED00926F6062648002D1CD000213C
:103B80000A460B464169521C994204D1002902D0D1
:103B900004E00125E9E7204B9A42F2D32160006955
:103BA00060603069A1680002090E000A090601433D
:103BB000A16000F033F81DE03169A2680902090A2A
:103BC000150E08D0018BC90712D041692160006928
:103BD0006060E37210E0881A00027D2300121B036C
:103BE000984205DD100E00060843A06000F016F8AC
:103BF000F8BD6360002DFBD003CC08F053F8FA2029
:103C000008F040F839688862F8BD0000001800200C
:103C1000EC02002000001048881300000449002036
:103C200008610448012100686030C17170470000DC
:103C30000000104800180020F8B50626324840253C
:103C40000560324800270780A9050920C0064160A9
:103C50002F4A9160016801602E480321046942697E
:103C6000601E08433946401CFCF781FF02F02FFD1F
:103C7000C1B2204605F0F2F805F020FA05F02AFA64
:103C800004F0CCFA244917208881244C206842197A
:103C900001465770FA2088622820107002F015FD46
:103CA000012805D1206810224030017811430170AD
:103CB0000AF0E8FE012805D1206880224030017812
:103CC000114301702068014640300278324302708F
:103CD0000020C0430866FDF742FEFFF789FEFFF7AC
:103CE000B9FE2068012120300177072141770120AA
:103CF00002F0F0FB04F0F6FAFFF72EFF02488038DE
:103D0000056002210160F8BD80E100E0C0000020F4
:103D100040000048CC02002000001048001800209D
:103D200038B5184A14682246BA32AE34A378DD0793
:103D300001D001290AD05B070CD501290AD02179CD
:103D400049070BD5E17A002905D007E0E07880210A
:103D50000843E07038BD0121E172508020794106AE
:103D6000090FF7D078210840694608700020487094
:103D70006A460221422000F0A9FA207987210840F2
:103D8000207138BD0018002070470000FFB50C46B8
:103D900078A103C995B001910090002108A8017392
:103DA0000321C90268464186012108A8734E0174A7
:103DB00035681746AE350DF001FD002808D1704971
:103DC0003068401806F0A8FDA878002802D04620E8
:103DD00019B0F0BD0BA8159900F052F90028F7D1E1
:103DE000072010A90871012C05D0022C0AD0002C44
:103DF0000ED04220ECE708A8017B1020014308A860
:103E0000017305E011A90BA800F049F90028DFD1E2
:103E100010A8027901230CA9284601F0CDF800284A
:103E20007ED1022229461898FCF79DFE2988684613
:103E300081811521490201820784012686734E2162
:103E400008A881700024C470067107214171867131
:103E500003A902A800F06AFE002861D1022202A98B
:103E60001E98FCF780FE082F02D26846478502E0C4
:103E700008206946488569460C850B4628880AAAA9
:103E8000098901F0C3FD00286DD13E4968460182D1
:103E90000227078408A8847103A902A800F046FE3F
:103EA000002860D1022202A91F98FCF75CFE684638
:103EB0000470694644704F850B4628880AAA098910
:103EC00001F0A4FD00284ED108A8007BC00723D034
:103ED0002C496846C91C01820821018408A8877002
:103EE000047103A902A800F021FE00283BD1FF21A4
:103EF0006846C1718171C1708170417001704471F7
:103F000004716946082048850B4628880AAA098951
:103F100001F07CFD002826D108A8007B800600E087
:103F200021E022D52988684681811649A531018280
:103F30000684867308A88770C470047107214171D4
:103F4000847103A902A800F0F1FD00280BD1694695
:103F50000E700C854E850B4628880AAA098901F047
:103F600055FD002801D0472032E708A8007BA87043
:103F700000202DE7626C75656E72672100180020C5
:103F8000DE060000012A0000034800210068AE3070
:103F9000C1708170704700000018002038B50246DB
:103FA000174801240068AE30022A1FD0052A03D02A
:103FB000072A07D00B2A20D1084609794088FFF745
:103FC000AFFE1AE000790024020600D50124820722
:103FD00003D1C20601D480060FD5084600216A46E7
:103FE0001170694600F05EF8044606E081784907E2
:103FF00003D50179FB2211400171204638BD000034
:1040000000180020704700001FB50E480468AE3449
:10401000E078010612D5A178C9070CD0800708D531
:10402000042069460873684602F08EFD022000F005
:1040300025F90020E0704006400EE07000F02EF8F8
:104040001FBD000000180020F0B58DB00C4616A969
:10405000E0C90021089109910A910B9115990491E9
:1040600005A9E0C112A962C9009301911346014656
:10407000039602952246012000F046F80DB0F0BDEF
:104080000A07920F01D0422070478A07FBD00278BE
:104090008907890F0A430270002070477047422049
:1040A0007047000030B5174B047A1B68C268AE3306
:1040B0001B799D06AD0F04D10078042801D00020A3
:1040C0000BE0012030BD401CC0B2155C012D08D0B2
:1040D0001518203DED7F2818C0B2A042F3D3087810
:1040E00030BD401CDD070124C0B2002D02D0105CA1
:1040F000C00703E09B07F2D5105C80070028EED0D4
:104100000C70ECE700180020FFB595B00E46054690
:1041100020210CA8FDF717FF002004905648002727
:104120000468681EAE34042802D8A078C0070BD0FB
:10413000062D02D0002D0AD002E0A078800703D51A
:10414000E0784006800E0AD0462019B0F0BDA07875
:104150008007F9D0E0784006800EF5D00FE0002D02
:104160000DD0012D20D0022D28D0062D33D0032DC7
:1041700033D0042D37D0002E3BD04220E5E700207D
:1041800007F06CF80028E0D1E078800708D504201B
:1041900069460873684602F0D7FC022000F06EF80A
:1041A0000120E0700020D0E7012EE6D0042EE4D0FC
:1041B0001F980028E1D10627042008E0012EDCD05A
:1041C000042EDAD01F980028D7D105270220E070EE
:1041D0000120049010E040200DE0022E01D0032EBB
:1041E000CBD1082007E0012E01D0042EC5D110202C
:1041F00001E004272020E07000230BAA19461E9836
:1042000006F0ECF9030002D000F0E0F832E01022F2
:10421000002107A8FCF7ABFC07A86C46279B269A51
:104220001F990FC42B463046189A179900F088F84A
:104230000300E9D108A8017BC170259803AC049B59
:10424000289A29990FC422AB07CB029200910190C2
:1042500039460CA8209B219A00F0C2F80300D3D164
:1042600007A807F00FFB0300CED1012006F0F6FFF0
:104270000300C9D1184668E70018002010B50446AD
:10428000C1061148006803D51522BF210C4006E085
:104290001B2189014118497EC90710D0122221072C
:1042A000890E08181121C9014018C06F002321464A
:1042B0000AF0D4FC010004D020460AF0BBFC002028
:1042C00010BD072010BD000000180020F8B5891EA1
:1042D000CDB20646A81C03210843401C830817489A
:1042E00017460068F10603D51C22BF210E4008E0E6
:1042F0001B2189014118497E090601D40020F8BD1F
:1043000019223107890E08181121C9014018C06F00
:1043100031460AF0A3FC04000ED039782171797877
:104320006171A5712A46B91CE01DFCF71CFC2146F1
:1043300030460AF07FFCE1E70720F8BD00180020B6
:10434000F8B5204B204D1B6801265B19069CB6036F
:104350000093002814D0042812D0022813D0032878
:1043600011D006252B46012810D00F4617430DD03B
:10437000914203D8202901D3B2420AD94220F8BD84
:1043800030256023EFE7A025F023ECE7258063804C
:1043900001E02180628020710798A0710898207246
:1043A0000998002805D00146204606220930FCF76E
:1043B000DAFB0720607100982030807B607100205C
:1043C000F8BD000000180020080900000348812201
:1043D0000068A030417C11404174704700180020F3
:1043E000F8B505463D481E460068079F0024AE30DC
:1043F0001346002905D002222A7001226A70A97092
:104400000324002E10D080788006800F0CD1301944
:10441000401C1F2852D82E55641C281932461946B4
:10442000FCF7A1FBA019C4B2002F0DD03819401C15
:104430001F2843D82F55641CE4B228193A46069920
:10444000FCF791FBE019C4B26846008C00281BD031
:104450006846808C002817D0601D1F282ED80520A4
:104460002855641CE0B212212954401CC4B22819FA
:104470000646022208A9FCF776FBB01C022209A915
:10448000FCF771FB241DE4B20C98002810D0E01C4E
:104490001F2813D802202855641CE0B20A21295491
:1044A000401CC0B22918401CC4B2084607F0B0FB3B
:1044B0000B9800280CD000191F2801D94220F8BD04
:1044C00028190B9A0A99FCF74EFB0B982018C4B2D6
:1044D0002146284607F032F9F8BD000000180020F8
:1044E00010B50D4900050B680521490259188A6964
:1044F0000021000DA0331B7B0AE04C01145B240556
:10450000240D844202D14801801810BD491CC9B253
:104510008B42F2D8002010BD00180020F8B5069C90
:104520001F4615460646002C13D0A06802220D3007
:10453000FCF719FBE81E82B23B460721204605F036
:1045400097FFE580A068012E05D01D210173002092
:10455000F8BD4720F8BD1B21F8E70000F1B5FFB01A
:104560008BB00124600205900027CC4807970168B2
:10457000E320C000081803908A98C74D0005000D7D
:104580000AAA05A908F0FBF80690002872D10426B3
:104590000AA805994218203AD27F0B2A23D0002678
:1045A000002004900AA88119022201A80291FCF7B8
:1045B000DAFA6846818809AB08AA039801F020FC62
:1045C000012817D002287DD068468088854200D314
:1045D0000546844200D92046044602988078012886
:1045E00071D013363BE1491E761E36040591360C18
:1045F000CFD1D5E708980090002F79D100990222F9
:1046000028310298FCF7B7FA00281ED10098203014
:10461000017B02988078814217D1012808D1009847
:10462000029902220830C91CFCF7A5FA002815D00F
:1046300002988078022808D1009802991022083048
:10464000C91CFCF798FA002808D00098008DA842F1
:1046500000D80546A04200D22046044602990AA886
:104660008978012907D013360599B6B28E4204D352
:10467000012707E005E1761DF6E78119022201A86E
:10468000FCF771FA0399009808318E462EE08446B3
:104690006946026A8B8820300DE0918B994203D3E2
:1046A000012F7DD199427BD9A94200D80D46A14264
:1046B00000D30C4612688242EFD10498002817D12B
:1046C000604601E015E0BFE0006870450ED0018D46
:1046D000994203D3012F09D1994207D98D4200D3C2
:1046E0000D468C4200D80C46012F59D17045CED1D1
:1046F000BAE008980090002F72D1009902221C3174
:104700000298FCF738FA00281ED100982030C178B2
:1047100002988078814217D1012808D10098029927
:1047200002220830C91CFCF726FA00281AD0029889
:104730008078022808D10098029910220830C91CFC
:10474000FCF719FA00280DD00098808BA84200D8F9
:104750000546A04200D220460446029880780128EF
:1047600026D003E002988078012805D013360798F8
:10477000B6B201281ED021E000984949008988423C
:1047800016D18A98FFF7ACFE0146009800F08AF82F
:104790000099098C4843009989694018022200E079
:1047A00038E00299491DFCF7DEF901200790D4E7B3
:1047B000761DDCE7B61C0020B6B20790059886424D
:1047C00001D3012705E00AA88119022201A8FCF7FC
:1047D000CAF9039A0099083209980968944630E0AA
:1047E0001AE086466A46938820300DE08A8B9A420A
:1047F00003D3012F0ED19A420CD9AA4200D81546F4
:10480000A24200D3144609688142EFD104980028DF
:104810002AD102E00120049026E07046006860453D
:104820000FD0028D016A9A4203D3012F09D19A4217
:1048300007D9954200D31546944200D81446012F5B
:10484000E8D16045CDD10FE00298C078022805D1AB
:1048500002980079292801D1B61CB6B2761D0598B8
:10486000B6B2864200D301270598811B042902D3E2
:10487000864200D294E604980028FBD1A54203D9D1
:1048800006987FB00CB0F0BD224629468A9801F008
:10489000FBFA0690F5E70000FFFF0000001800207B
:1048A0000229000030B5024623239B5C0020012B27
:1048B0001AD112890D4B9A4216D10D4A052312685E
:1048C0005B02D318A0329B69127B0AE045010C8879
:1048D0005D5B24052D05240D2D0DAC4204D0401C3C
:1048E000C0B28242F2D8002030BD00000229000090
:1048F00000180020830810B50A480021026805202E
:1049000040021018A0328069127B07E04C01045B62
:10491000002C01D0994204D0491CC9B28A42F5D872
:10492000002010BD0018002010B50446022000F041
:1049300033F80D4800210268052040021018A0320B
:104940008369107B05E04A019A5A002A04D0491C69
:10495000C9B28842F7D810BD48011C52C01802697C
:1049600004210A43026110BD0018002010B504465E
:104970000146042002F0E8FA002809D00548E321A6
:104980000068C900401821463C300AF0CFFF4320A0
:1049900010BD00000018002004490A683B214901AD
:1049A00051180A7802430A7070470000001800206E
:1049B00000B51138C0B2FFF79DFF002804D00122D6
:1049C000016952051143016100BD0000F3B597B0C4
:1049D0000D8848880590081D1DC80DAE1DC68C8A1F
:1049E000CE8A087E1390C869203101900878009023
:1049F0004878049088780390C87802900F7900F086
:104A000047FD002817D10120400284425FD8B442FC
:104A10005DD8002F01D1B44259D114A9284601F024
:104A20001DFA002806D115AA1499059801F006FA76
:104A3000002802D0602019B0F0BD149D11A92846AD
:104A4000183005F0BDFF10A88088002810D0284637
:104A500012A9203005F0B4FF10A8838800892A8DA0
:104A60001818696A10188A8B904203D16120E2E716
:104A70004820E0E715982C4B02899A4227D123223F
:104A8000125C012A23D1006800681690139801284F
:104A90001FD16846808E29221202801A030001F07D
:104AA000D2FC0604180404070A18022C0FD110E0E7
:104AB000072C0CD10DE0042C09D3E00707D1012FFE
:104AC00007D1A64203D3042E01D3F00701D0422020
:104AD000B1E702980B90039B049A0A9309920098FD
:104AE000019A0C9708900696059407920DA81DC888
:104AF000019002A81CC013980B4600902A461699F4
:104B0000179800F0AFF9002895D168460649808EC5
:104B1000FF31884205D01798018800200A4601F02D
:104B2000B3F9002087E7000003280000F3B5A5B023
:104B300008881A9088780C4611901022091D13A835
:104B4000FDF7F9F9A08A1090A17D68460172E07D19
:104B50000F90207E2090677EA07E1F90002006464A
:104B60000146129020A801810F20BB4C2390E32125
:104B70002068C9004018199000F08AFC00280BD169
:104B800001211098490288425FD821A91A9801F0A2
:104B900065F9002802D0602027B0F0BD2198179059
:104BA00005F0B2FE1A9988420CD102A8019016981D
:104BB000009013AD0ECD119805F06EFE002801D0C7
:104BC0006320E9E76846017A8806800F05D0012056
:104BD00012902068A030007B4600C80703D01298CE
:104BE000401CB61C1290080603D51298401CB61C37
:104BF000129017980DA918301D9005F0E1FE684637
:104C0000129C808EA41CA04237D317980EA9203086
:104C1000019005F0D5FE6846018F00290DD0179848
:104C2000179A6B46406A9B8E128D5918808B5118CB
:104C3000081AA04201D26120AEE717988469119842
:104C40002568012803D0022803D04220A4E70520CC
:104C500000E01320E0832A4639460F9805F066FEEF
:104C6000422899D0199FE28B4037788B398B411AB3
:104C7000109810188019814201DA48208CE70EA99B
:104C8000019805F09DFE6846008F0028179802D015
:104C9000406A808B00E0008D2599401C0880259893
:104CA00001210088A083259802220088401CA88347
:104CB0006A482081204620301790C1700021817001
:104CC00081711998398B406D40186946A061097A45
:104CD0000170A06929461C31401CFBF744FF119864
:104CE0000128A0697ED0102213A9C01CFBF73BFF4E
:104CF0002846102213A90830FBF735FF388B1330F4
:104D000038832E4620361198F0701098E8831F984B
:104D1000B07010982084109828841998398B406DB1
:104D20004018A8610021109AFBF721FF398B1098D9
:104D300008183883179901200871179900204871C5
:104D400030716846007A810701D501213171010770
:104D50000227002902DA317939433171410703D53D
:104D60003179042211433171400603D5307908218D
:104D7000084330710F9870712098B07121461D98CA
:104D800005F047FE2146019805F024FE29461D98AE
:104D900005F03FFE2946019805F01CFE12980028F8
:104DA00041D068461A998181A18BC18107844784CB
:104DB000012408A8047122A80A9008A884732399E2
:104DC00041730F993820014008A801730721C1736E
:104DD000002505746846007AC00708D02048694657
:104DE000088200E02AE003A924A8FFF7EFFD684647
:104DF000007A8006800F07D019486946401E088255
:104E000003A924A8FFF7E2FD6846007A00060AD548
:104E1000292109026846018208A84473057303A981
:104E200024A8FFF7D3FD259801881298401C081884
:104E300082B2002001F028F80020ADE6022213A97A
:104E4000C01CFBF790FE2846022213A90830FBF78E
:104E50008AFE388B401D53E700180020032800000D
:104E600003290000FFB55248E322006887B0D20052
:104E70008218069210AA109B0126169F9288012B79
:104E800004D14C4B9A4201D1A030067B069D34469A
:104E90004035688B2B8B7C43C31A099820300390D4
:104EA000A34222DA48200BB0F0BD2320405C012849
:104EB00019D108896C46208098420CD03D4C641E64
:104EC000A04208D0641CA04205D0641CA04202D0BD
:104ED000A41CA04207D1374CFF3CA04201D0904215
:104EE00001D16220DFE7096801E029231B02039852
:104EF0008142DAD109981B9984691898224605F0F5
:104F000015FD4228CFD01C98012804D1159887425E
:104F100001D24220C7E71598E083204620301C9933
:104F20000590817027840A98808B401CA08310987C
:104F3000012814D02046102211A90830FBF713FED7
:104F400005991098C8700698298B406D4018A0618B
:104F5000298B384670430818288300250FE011A8D4
:104F60000FC808340FC4183CEAE72846A169784303
:104F70000818159A1799FBF7F6FD6D1CEDB2B542AE
:104F8000F3D30599189848710599199808710599EE
:104F90001A98887109982146183005F03AFD214683
:104FA000039805F017FD0798A18B018000207AE790
:104FB0000018002002290000FFB58FB014460E78BB
:104FC000102205A8891CFCF7B6FF5048E3210068B1
:104FD000C900451800F05CFA00281ED1002C57D0FB
:104FE000012E09D16846808A4949884204D1284661
:104FF000A968083081424BD12846103029690390B6
:10500000814209D00AA9284605F0DAFC6846018DDC
:10501000601E0D90814202D2482013B0F0BD284698
:1050200008300CA9049005F0CBFC6846008E0028DF
:1050300014D0EF680AA93846183005F0C1FC38468C
:1050400020300CA905F0BCFC6846398D008D09188C
:105050006846008E401C081887B200E00127012036
:105060000004C01BA04201D26120D6E72C69286849
:1050700001901298012802D0022803D008E00520F0
:10508000C00200E023486085012E03D0022E05D027
:105090004220C2E720460830022202E020460830C3
:1050A000102205A9FBF75FFD204631462030064659
:1050B00001730F98214607802785039805F0A9FC06
:1050C0002146049805F086FC27461837E76166629A
:1050D000A76126620D9884B20BE02846019905F07D
:1050E00098FC3846019905F075FC2868641EA4B246
:1050F0000190002CF1D10F9801880D98081882B208
:10510000002000F0C1FE002087E70000001800200A
:10511000011800000128000002460948E321006848
:10512000C90041188868083103E0038D934202D218
:1051300000688842F9D1884200D100207047000001
:1051400000180020034610B50F48E3210068C9008D
:1051500041188868083103E0148D9C4203D810463A
:1051600002688A42F8D18A420CD1018D994209D253
:105170000146026A20318A4203D0416A898B9942F2
:1051800000D2002010BD000000180020024610B51B
:105190000B481205016805204002081883690020A9
:1051A000120DA031097B07E044011C5B2405240D8E
:1051B000944203D0401CC0B28142F5D810BD00001B
:1051C00000180020F7B50546174601980AF07EFB47
:1051D0002E050446360D0CE0A0882568B04207D1A4
:1051E000214601980AF0BFFB3946204605F0ECF84D
:1051F0002C46002CF0D1FEBDF0B58BB000206449E8
:105200000290E3200A68C000141872B610464030BD
:10521000C57902231D43C57162B625464035287AFB
:10522000C0077DD0052040021018002687694AE09B
:1052300071017A5A002A44D0C919069109694A02B3
:105240001FD48A0227D502210491069901230988D7
:105250000905090D03911B2189014118C97E8907A0
:105260000FD51121C901083040182322C06F022137
:1052700009F0F4FC010004D0039A8A80049809F034
:10528000D9FC069800880090069800F083F80098F2
:1052900008F0F3FD15E0480713D5069800880005CF
:1052A000000D08F0C6FD002805D10698008800050D
:1052B000000DFFF753F90699042009698143069808
:1052C0000161761CF6B23248AC210068095CB1423B
:1052D000AED800F001FF2046243006460AF03CFB21
:1052E000012802D0012000F0F9FD204618300AF014
:1052F00033FB012802D0002000F0F0FD3C342046B2
:105300000AF02AFB01280FD002A920460AF04DFB23
:105310000420029901F018FE0028F0D0204600E099
:1053200034E002990AF0EFFA287A00062ED53046CA
:105330000AF012FB012829D1002004F0C5FFA98B37
:1053400023314909491CC9B2FBF78EFB00281DD047
:105350000F4D044628681121C90108304018422623
:1053600001233822C06F314609F078FC01000DD0CE
:1053700000228A80CC80304609F05CFC3B212A6800
:10538000490151180A78802082430A700BB0F0BDA1
:1053900000180020F0B504463C48E3210068C9002D
:1053A0004518218A85B089041AD5022104911B2150
:1053B00089014118497F412627880123C9070FD059
:1053C0001121C901083040183122C06F022109F0B3
:1053D00045FC010004D08F808E71049809F02AFCEE
:1053E0002946208801221831FFF7ECFE2946208843
:1053F00001223031FFF7E6FE2946208801222431C0
:10540000FFF7E0FE2946208800223C31FFF7DAFE54
:1054100020880005000DFFF7B9FE850029461131EF
:105420006846017301F090FB29461231684601730A
:1054300001F08AFB294613316846017301F084FBB1
:1054400068461435057301F07FFB208800F028FAC8
:10545000208801050D48090D02680520400210183A
:10546000828F914201D100218187E069002802D01A
:10547000012104F0A9FF202200212046A568FBF7A6
:1054800076FB1720A560608005B0F0BD00180020F5
:1054900010B50B48E3210068C90044184034207A55
:1054A000C00709D0002004F00FFF217A890701D539
:1054B000002803D0002010BD472010BD642010BD7F
:1054C00000180020F0B55FA099B000685E49159003
:1054D000E3220868D20084180522520282189269D9
:1054E0002546403514922A7AD20702D0622019B09C
:1054F000F0BDAA8B01235B029A4201D9AB8303E082
:10550000172A01D21722AA83149AA0301392067B7D
:105510000DE0761EF6B2139871010F18B8680F905F
:10552000384620220021FBF722FB0F98B860002E9E
:10553000EFD120460830E0606460A060246008304D
:10554000139060612061FF22002108300AF0D3F936
:105550002046FF22002124300AF0CDF92046AA7F00
:10556000002130300AF0C7F92046FF2200213C30EC
:105570000AF0C1F900222A7210461721324B05E0C9
:10558000149E4701BE19401C7180C0B21E68A0362F
:10559000367B8642F4D8002028832F8C688C002626
:1055A000149008E02820E16C70430918204605F0AB
:1055B00011FA761CB6B2BE42F4D3002608E03020C1
:1055C000216D70430918139805F004FA761CB6B2E1
:1055D00014988642F3D30120FFF7DEF901246846D0
:1055E00004701A4941802346042269460CA8FFF73B
:1055F000E3FC002822D16846018E81821449018390
:10560000042606858475202108A881720024C472AE
:10561000047307214173847305A90DA8FFF786FA67
:1056200000280BD1684604874687818E15AB0EAAE9
:10563000008E00F0EBF9002800D158E70020287216
:10564000472054E70000FFFF001800200118000069
:10565000052A0000F8B504467D480E460068E3219F
:10566000C90047184820C05DC0077BD0B088FEF74E
:1056700037FF0546012C02D0002C75D0E6E0002D46
:105680000CD0286941074AD4B268F188147B0029FC
:10569000F4D062060CD56888884201D20121B2E0BC
:1056A000D22C01D0522CF9D13846314618303FE087
:1056B000A106890E1E293ED81E2C21D101071FD517
:1056C0000821884328612988012005F06BF9012110
:1056D000304604F079FE5E4811210068C9010830A7
:1056E000401842242D8801233922C06F214609F039
:1056F000B5FA010003D08D80204609F09BFAA5E0A1
:10570000E1070AD01D2C10D01B2C0ED0410529D446
:10571000012189020843EE6192E0C00601D54520CF
:10572000F8BD2988002005F02BF938463146243091
:105730000AF0FCF88AE029882022002004F0E8FD25
:1057400005000FD00121304604F03EFE2B4600221A
:10575000214606200AF05EFC2846FFF707F975E0AF
:1057600000E001E04120F8BDB068047B1D2C3AD078
:105770001B2C41D00021304604F026FE032C46D0DD
:10578000052C44D0072C42D0092C40D00B2C3ED005
:105790000D2C3CD00F2C3AD0112C38D0132C36D0F5
:1057A000172C34D0192C32D0012C30D0022C35D00B
:1057B000042C33D0062C31D0082C2FD00A2C2DD01D
:1057C0000C2C2BD00E2C29D0102C27D0122C25D00D
:1057D000162C23D0182C21D0522C1FD0D22C1DD007
:1057E0001E2C2FD032E0002D03D02988012005F097
:1057F000C7F83146022001E03146012000F05EFD8D
:10580000002823D00021304604F0DEFD1EE0296987
:105810001020814329612988002015E02869402152
:1058200088432861010511D5FF2101310843286112
:105830002988022005F0A4F801212869C9028843BB
:10584000286103E02988032005F0ACF80020F8BDAA
:105850000018002010B5114AE3231268DB00D218AB
:105860004032127AD20706D002280AD0052804D086
:105870000B2810D101E0412010BD4888FFF754F8F3
:1058800009E04888FEF72CFE002804D001220169B7
:10589000920511430161002010BD00000018002096
:1058A000F1B5FFB085B0472001900020694608801F
:1058B0005348E3210068C90047188498FEF710FE9A
:1058C0000290002874D0B96808374FE06846008815
:1058D0000D4604AC20186B460222283100F0A4FDCE
:1058E00068460088294620186B4601222C3100F0BA
:1058F0009BFD2E462036307B69460128098804A886
:1059000009D040186B4610222946083100F08CFD62
:1059100001902C6A27E040186B460222F4E76946A2
:10592000098804A8401821466B4602221C3100F069
:105930007BFD6946098804A8401821466B46012270
:10594000233100F071FD2320005D6946012809889C
:1059500004A830D0401821466B461022083100F0D0
:1059600063FD01902468B442D9D12968B942ADD110
:10597000019800281CD16846008881070AD0214A76
:10598000011D11406A4611800A1A04A908180B214A
:10599000FBF7EDF80298008808F04BFA002807D1D1
:1059A000849869460005000D04AA098806F018FECF
:1059B0007FB006B0F0BD401821466B460222083188
:1059C00000F032FD019020890F498842CAD120465B
:1059D0000299FEF767FF4000A16903906A46091823
:1059E000128804A880186B46022200F01DFD019069
:1059F000A1690398022208180021FBF7B8F8B1E763
:105A000000180020FCFF000002290000F0B5074646
:105A100017480E4600683B2149014018007885B0C0
:105A20001D461446C00706D003A9384600F016FAF2
:105A300000280AD102E0472005B0F0BD04AA304694
:105A4000039900F0FBF9002801D06020F4E70499E5
:105A5000228860880968002A00D0088C32466E4689
:105A600031C603233946002000F004F8E4E70000C3
:105A700000180020FFB5002099B0239A0B901290D7
:105A800005461490064615901C46DB480B460068F8
:105A9000E321C900411803910021229F0891099137
:105AA0005188069111880A913B21490140180078DC
:105AB000C00706D00FA9184600F0D0F900280AD177
:105AC00002E047201DB0F0BD10AA0F991B9800F00E
:105AD000B5F9002801D06020F4E71998002803D018
:105AE000600701D5012000E000201390A007800F7F
:105AF0001C90109817902030C078012840D117983A
:105B0000BE4B01899942F9D11798069904680A9801
:105B1000228C4118914233D820462030169080784C
:105B2000012816D0E08B04901798806900788006D1
:105B3000800F7DD0039840301890007A800777D589
:105B40001C980028F5D0AD4F0F99FF372031206801
:105B500014E0BA4214D3B942DDD80497E4E70389CC
:105B6000A64A934203D12322125C012A08D0BB42E9
:105B700003D12322125C012A03D000688842EED1AF
:105B800034E105900028FBD09B48052102684902BA
:105B9000511889690027009162E07801009903900B
:105BA000085A01055AD01999002901D0884255D1C7
:105BB00005997A008B69511C595C9A5C0902891815
:105BC00089B20D91890749D0022205990AF0A0FAFD
:105BD000002804D01998002840D0652072E70020E2
:105BE00008A9C8551C98C00718D017988069007874
:105BF000C00613D50D98C00710D00120C855054325
:105C0000009A039880184088159A904206D91590FA
:105C1000009A0398105A0005000D14901C988007F4
:105C20001CD5179880690078800617D50D9800E07C
:105C300084E0800712D50220CA5D05430243CA559D
:105C400000990398401840881599884206D9159004
:105C500000990398085A0005000D14907F1CFFB2AC
:105C600065480068A030037BBB4296D8002D65D004
:105C70001898007A00065FD45F480168052040024A
:105C80000818816900201BE042018E5A360515D0A4
:105C9000AE070BD556183669B7070DD408AF3F5C71
:105CA000BF0703D5360701D546200BE7EE0705D021
:105CB0005218127CD20701D0432003E7401CC0B227
:105CC0008342E1D81598C01E86B20498864200D956
:105CD0000646A8070FD520220020149904F018FBCF
:105CE000129000287DD0F01C82B20021129800F0A2
:105CF000EDF8002811D1E80720D0202200201499C7
:105D000004F006FB0B90002807D0F01C82B20021A3
:105D10000B9800F0DBF8002810D08020FEF73CFE46
:105D20001298002802D0002104F04EFB0B980028A6
:105D300002D0002104F048FB6420C3E6A1690A9860
:105D4000069A08182499FAF70EFF16988078012809
:105D500001D10498E083002D46D0274B0520196817
:105D6000400208188169002008AA0CE04301CF5ABC
:105D70003F0506D05F18BC463B69175C3B4367464E
:105D80003B61401CC0B21C4B1B68A0331B7B834291
:105D9000ECD8A8070DD512980090F01C82B22146CD
:105DA0001C310220A369FEF7B9FB0220129900F012
:105DB00085FAE80718D00B980090F61C2146B2B27D
:105DC0001C310120A369FEF7A9FB1398002805D018
:105DD0000B988021C07C08430B99C87401200B9953
:105DE00000E005E000F06AFA00206BE6422069E678
:105DF0008020FEF7D1FD9FE7001800200328000057
:105E0000F0B58468083015E0258D8D4203D114600B
:105E100018600120F0BD26461C602036256A06E089
:105E2000AF8B8F4202D102201560F0BD2D68B542C4
:105E3000F6D124688442E7D10020F0BD10B50B6A8A
:105E4000203106E09C8B844202D10020136010BDFB
:105E50001B688B42F6D1412010BD000010B5094AE5
:105E6000E3231268DB00D2189368083206E01C8D29
:105E7000844202D100200B6010BD1B689342F6D112
:105E8000412010BD0018002030B50F4BE3251B68E2
:105E9000ED005B19403304461B7A412085B09B0717
:105EA00010D56B469981DA8100201882042058822F
:105EB00003AA04A96D4607C502231A4601212046FC
:105EC000FFF7D8FD05B030BD0018002010B5121D39
:105ED000806892B204F096FA10BD0000F0B57D49DA
:105EE000E3220968D2008E1885B0012806D030461A
:105EF0001830009009F0EAFC0446E7E03046243010
:105F0000039009F0E3FC0546BCE0A8682F68007B1D
:105F10000290A888FEF7E4FA040073D021882022BA
:105F2000002004F0F5F9019000286CD0E888618821
:105F3000884204D900220420019B029920E04620D7
:105F4000009002980E284ED00ADC801E030000F05C
:105F50007AFA0B1C13221329132F13381341130041
:105F600016285AD004DC102846D0122804D14BE061
:105F700018285BD01D2874D000220620019B0299AE
:105F80000AF048F8002000905CE029462046019A7B
:105F90000AF04CF94FE02A4621463046019B0AF0B0
:105FA00073FB48E029462046019A0AF077FA42E05E
:105FB0002069000355D429462046019A0AF0AEFE16
:105FC00039E0206900034CD429462046019A0BF0A1
:105FD000D7F830E02069000343D429462046019ACF
:105FE0000AF00AFD27E0206900033AD4294620463A
:105FF000019A0AF0FBFF1EE029462046019A0AF0AA
:106000009BFD18E035E040E02069800329D4294653
:106010002046019A0BF0DFF90DE02069800320D4BF
:1060200029462046019A0AF02BFC04E02946204626
:10603000019A0AF055F90090452812D0692810D02D
:1060400046280ED001212069090688431021084303
:1060500020610198FEF78AFC0098002809D010E022
:10606000FFE70021019804F0AFF9009845280CD013
:10607000F2E72946039809F076FC0121284604F04E
:10608000A3F93D46002D00D03FE705B0F0BDA06864
:106090002668077BA088FEF723FA05000DD0522F53
:1060A00001D0D22F06D1286940030ED421462846BC
:1060B0000BF0FBF82869400307D42146009809F04B
:1060C00052FC0121204604F07FF93446002CDED139
:1060D000DBE7000000180020F0B56348E322016808
:1060E000D2008DB08A180C9205225202891800271E
:1060F0008D69AFE07E01A85B002872D070190A900C
:10610000C069002866D00A990969CA0532D54A05CE
:1061100030D580680124A402007BA1430A9A1D287F
:10612000116154D01B2852D00A9A927B824202D02D
:10613000012802D04BE0012806D10A98C069806886
:10614000407B401C82424CD1C80509D5A95B022086
:1061500004F028FC0A98FF22016901329143016191
:106160000A9881698847452831D10A9801692143F5
:1061700001612CE0012104F027F90A990020C8618F
:106180000A980121026989028A4302614220019032
:106190000220089005900A98069020681121C901F4
:1061A0000830401801232122C06F019908F056FDE4
:1061B00004000CD00899217105996171A01D059A00
:1061C0000699FAF7D0FC2146019808F033FDA85B48
:1061D00000283DD00C982430049009F077FB044649
:1061E00034E035E020680890A068A388017BA85BB4
:1061F0000205120D8446934216D11D2914D10A9826
:1062000000698646C0040FD40122120371460A9821
:1062100011430161A95B032004F0B2FBA95B224694
:10622000022000F071F808E093420ED11B290CD136
:1062300022466146022000F0AFF82146049809F09A
:1062400092FB0121204604F0BFF8089C002CC9D124
:106250007F1CFFB2044C2068A030007BB84200D9FC
:1062600048E70DB0F0BD000000180020F0B59446DE
:1062700000220A806346104C1A60052322685B02E4
:106280008646D2184120926900230FE05D01AD18C7
:106290002F697646374207D06F880E88B74203D9F8
:1062A0000F806046056000205B1CDBB22568A035CE
:1062B0002D7B9D42EAD8F0BD001800207CB50C462D
:1062C00005466A4601A9FFF7D1FF002801D0412009
:1062D0007CBD6846E1888088814200D9E0800098D2
