:020000041005E5
:101800000060002031540510875A0510895A0510D0
:10181000AA5555AA45554C420000000000000000A2
:101820000000000000000000000000008B5A0510BE
:101830000000000000000000935205108D5A0510B2
:10184000955A051095520510000000000000000098
:10185000595B051097520510D55B0510A352051072
:101860000000000000000000000000000000000078
:1018700000000000A5520510A7520510A95205103E
:1018800000000000995205109B5205109D52051052
:101890009F520510A15205108F520510915205104C
:1018A0000000000000000000000000000000000038
:1018B0000000000000000000000000000000000028
:1018C000EFF31482EFF30981002080F31488BFF353
:1018D0006F8FF0B543464C4655465E466746F8B4B2
:1018E000164CEFF30883236006B4154C2068154CA2
:1018F0002060154C2068154C2060154C2068154C54
:101900002060154C276800202060BFF34F8F30BF48
:1019100027600A4C246884F3088882B003BCF8BCB2
:101920009846A146AA46B346BC46F0BC04BC80F328
:10193000098881F31488BFF36F8F104708000020D7
:1019400004ED00E0C017002024ED00E0B4170020F3
:1019500000E200E0C41700200800204000224308F5
:101960008B4274D303098B425FD3030A8B4244D367
:10197000030B8B4228D3030C8B420DD3FF220902A9
:1019800012BA030C8B4202D31212090265D0030B68
:101990008B4219D300E0090AC30B8B4201D3CB035E
:1019A000C01A5241830B8B4201D38B03C01A5241A0
:1019B000430B8B4201D34B03C01A5241030B8B42A2
:1019C00001D30B03C01A5241C30A8B4201D3CB028D
:1019D000C01A5241830A8B4201D38B02C01A524172
:1019E000430A8B4201D34B02C01A5241030A8B4275
:1019F00001D30B02C01A5241CDD2C3098B4201D38D
:101A0000CB01C01A524183098B4201D38B01C01A0A
:101A1000524143098B4201D34B01C01A5241030981
:101A20008B4201D30B01C01A5241C3088B4201D330
:101A3000CB00C01A524183088B4201D38B00C01ADD
:101A4000524143088B4201D34B00C01A5241411A04
:101A500000D20146524110467047FFE701B5002011
:101A600000F006F802BDC0460029F7D076E77047BF
:101A70007047C0468446081C6146FFE71FB500F06A
:101A8000ADFB002801D40021C8421FBD10B500F0F5
:101A90003FFB4042013010BD10B500F09FFB002815
:101AA00001DB002010BD012010BDC04610B500F0C4
:101AB00095FB002801DD002010BD012010BDC046AF
:101AC00010B500F04BFB002801DC002010BD012008
:101AD00010BDC04610B500F041FB002801DA00201F
:101AE00010BD012010BDC046437802781B021A4386
:101AF0008378C0781B041343000618437047C04620
:101B0000030A4B70030C8B70030E0870CB70704788
:101B100003005A7800781202024398781979000479
:101B20000243D878000610435A7912020A43997981
:101B300009040A43D979090611437047030A53700F
:101B4000030C9370030ED3700B0A53710B0C93713B
:101B50000B0E10701171D3717047C046F0B5C646B8
:101B60004E024702760A7B0A4400C50FF700480080
:101B7000984600B5240E2A00DB00000EC90FBC46B3
:101B80008D4267D0221A002A00DCA5E000283AD155
:101B9000002F00D193E0511E002900D0BCE00124A9
:101BA000DB1B5A0146D59B019E09300001F0B0FEB7
:101BB00005388640844200DD9DE0041B3200202071
:101BC0000134E240041BA64033005E1EB3410024F2
:101BD00013435A0704D00F221A40042A00D00433BA
:101BE0005A0129D50134FF2C00D181E02A009B0144
:101BF0005B0AE4B25B02E405580AD20720431043B3
:101C000004BC9046F0BDFF2CE3D080213800C9040D
:101C1000084384461B2A00DD82E020206146D14033
:101C2000821A604690400200501E82410A439B1A6D
:101C30005A01B8D45A07CED1DE082A00FF2C3AD177
:101C4000002E00D1AEE08023DB0333435B025B0A4E
:101C5000FF24CFE7211A002952DD002831D0FF2CC4
:101C6000B7D080203E00C0040643B4461B2900DDE7
:101C7000AAE020266046C840711A66468E403100B0
:101C80004E1EB14101435B185901D3D50134FF2CDD
:101C900000D187E0012278491A405B080B401343CA
:101CA00097E7002C00D0A7E0002B00D0B6E03B1E49
:101CB00062D10026002273025B0AE4B29AE71400A4
:101CC00087E7002F4DD0481E002857D163440124D8
:101CD0005A01AFD50224DDE7002A24D1621CD2B21A
:101CE000012ADEDDDE1B720135D5FE1A0D005CE730
:101CF0002A0000237EE73300604A241A134068E775
:101D0000002963D1611CC8B201284EDDFF2949D0EA
:101D100063445B080C005CE7FF2A41D00A0079E7C6
:101D200001229B1A84E7002C1DD0FF2822D080249A
:101D3000E404524223431B2A00DD8AE01C002025D4
:101D4000D440AA1A93405A1E93412343624604008A
:101D5000D31A0D0025E7002E00D026E7002200242C
:101D6000A9E70C0035E7002B4DD0D243002AEDD077
:101D7000FF28E0D16346FF240D002AE7FF290FD09A
:101D8000010073E7002B61D0FF24002F00D120E772
:101D900080224146D203114202D0164200D13B00BC
:101DA000FF2416E7FF24002324E7002CEAD1002BB0
:101DB00058D0002F00D10CE763445A0100D439E712
:101DC0002E4A0C00134004E701215CE7002C1ED1D1
:101DD000002B40D0C94300290BD0FF2836D01B2947
:101DE00047DC1C002026CC40711A8B40591E8B41C9
:101DF00023436344040047E7002B18D13B1E2DD03A
:101E00000D00FF24E5E63B0004000D00E1E6FF289D
:101E10001CD08024E40449422343E0E7002F00D192
:101E2000D7E6DE1B72011FD5FB1A0D00D1E6FF2499
:101E3000002F00D1CDE680224046D2031042AFD021
:101E40001642ADD13B000D00FF24C2E66346FF24DD
:101E5000BFE601237AE73B000400BAE680260022B1
:101E6000F603F0E63B00B4E6331E00D0E2E60022C3
:101E700021E70123BDE7C046FFFFFF7DFFFFFFFB1A
:101E8000F0B557464E46DE464546E0B544024300AF
:101E9000C60F83B00F1C640A1B0EB24653D0FF2B33
:101EA00027D08022E400D20414437F22524290467D
:101EB0009844002399469B467D027800FB0F6D0AEB
:101EC000000E009324D0FF2846D080230021ED008F
:101ED000DB041D437F384746381A4F460F43BF0087
:101EE000B9463300009A874F53404A46BA58019387
:101EF0009746002C4ED108239946F7339846FD3B70
:101F00009B467D027800FB0F6D0A000E0093DAD12C
:101F1000002D26D1002001213300009A7A4F534032
:101F20004246101A4A460A439200BA581D00974684
:101F3000009B2C009A468B465B46022B31D15346C0
:101F4000FF21002438E0002C17D1042399460023F8
:101F5000984601339B46AFE7FF20002D0BD10221AD
:101F6000DAE7280001F0D4FC431F9D4076235B4252
:101F7000181A0021AFE70321ADE7200001F0C8FCEB
:101F8000431F9C4076235B421B1A984600239946C8
:101F90009B4691E70C239946F3339846FC3B9B46BE
:101FA0008AE7032B00D1A5E05546012B00D081E044
:101FB0000123002100242B406402C905600ADB07CD
:101FC0000843184303B03CBC90469946A246AB4632
:101FD000F0BD80240023E403FF21EDE7FF2100246E
:101FE000EAE70123591A1B2966DD019A13400021F3
:101FF0000024E1E78023DB031C4238D01D4251D08E
:102000001C436402640A3300FF21D5E763016C01BD
:10201000A3423BD21B260021013801251F004900A5
:102020005B00002F01DB9C4201D81B1B2943013EB2
:10203000002EF3D11C00631E9C410C4301007F3134
:102040000029CEDD630704D00F232340042B00D0EA
:102050000434230103D501002C4B80311C40FE29A0
:102060000DDD0123019AFF2113400024A4E7802302
:10207000DB031C436402640A3300FF219CE7012355
:10208000019AA401640AC9B2134095E71B1B1A26E2
:102090000121C2E7009B8B469A4600244CE763026D
:1020A000E5D500258024E4032C436402640A009BE8
:1020B000FF2181E70195C1E723002020CB40411A91
:1020C0008C40611E8C411C43630704D00F232340C6
:1020D000042B00D00434630105D50123019A0121AA
:1020E0001340002468E70123019AA401640A134005
:1020F000002161E78023DB031C436402640A53462A
:10210000FF2159E7D44F061014500610FFFFFFF7C8
:1021100070B5420045024E024C00C30F6D0A120E0C
:10212000760A240EC90F0120FF2A06D0FF2C03D007
:10213000A24201D1B54206D070BD002DFCD1FF2CCA
:10214000FAD1002EF8D18B4206D00120002AF3D11B
:102150002800451EA841EFE70020EDE7F0B542005A
:1021600045024C02C30F48006D0A120E640A000EAD
:10217000C90FFF2A1ED0FF2821D0002A0AD16E42A3
:102180006E41F6B200280FD1002C0DD10020002D99
:1021900009D005E0002801D1002C01D08B4211D0DC
:1021A000012158420843F0BD002EF7D0012001392B
:1021B0000843F8E7002DDED002204042F3E7002C70
:1021C000DBD0F9E78242EBDC04DBA542E8D8002053
:1021D000A542E8D20121581E0843E4E7F0B54200C9
:1021E0004D024C004602760A120EC30F6D0A240EF1
:1021F000C90FFF2A16D0FF2C18D0002A0AD170422E
:102200007041C0B2002C15D0002805D00120013942
:102210000843F0BD002C13D0994214D001205B423A
:102220001843F6E70220002EF3D1E4E70220002D48
:10223000EFD1E2E7002DE7D10020002EE9D0EDE755
:10224000002DE9D1EAE7A24206DCDFDBAE4203D88B
:102250000020AE42DAD3DCE7012049420843D8E748
:10226000F8B557464E464546DE46E0B547024600BD
:1022700088467F0A360EC40F002E47D0FF2E24D08A
:10228000FB008027FF041F43002399469A467F3EA8
:1022900043465D025800DB0F6D0A000E984643D09E
:1022A000FF283BD0EB0080250022ED041D437F3842
:1022B0003618731C41469B464B46614013430F2B17
:1022C00064D875489B00C3589F46002F42D108230D
:1022D0009946063BFF269A46DAE74146022A28D06D
:1022E000032A00D1CEE0012A00D0ACE0114000204A
:1022F0000022CCB24002D205400AE407104320433A
:102300003CBC90469946A246AB46F8BD002F15D17D
:1023100004239946033B00269A46B9E7FF20022290
:10232000002DC5D00322C3E7002D19D100200122C2
:10233000BEE70124FF220C400020DBE7380001F05B
:10234000E7FA7626431F9F4000237642361A9946C5
:102350009A469DE70C239946093BFF269A4697E744
:10236000280001F0D5FA431F9D4076235B42181ADE
:1023700000229DE780200024C003FF22BAE73D0031
:102380005246ABE73D0021005246A7E73B0C9C4676
:102390002A04120C2B0C1400604665463F043F0CC7
:1023A0007C4342435D437B43270C9B18FF18BA4292
:1023B00003D980235B029C46654424043A04240C20
:1023C000121993015C1EA3413F0C920E7D191A4312
:1023D000AD0115432B0104D501235E466A081D405B
:1023E000154332007F32002A25DD6B0704D00F230E
:1023F0002B40042B00D004352B0103D53200274B92
:1024000080321D40FE2A94DC0124A801400AD2B289
:102410000C406FE78020C003074207D0054205D17A
:1024200028434002400A4446FF2263E73843400203
:10243000400AFF225EE70124A31A1B2B05DD0C4096
:102440000022002056E75E46CBE72A002020DA4033
:10245000C31A9D402B005D1EAB4113435A0704D0A5
:102460000F221A40042A00D004335A0104D5012453
:1024700001220C4000203DE701249B01580A0C403A
:10248000002237E780200124C00328434002400A8D
:102490000C40FF222EE7C04654500610FFFFFFF706
:1024A00041024300C20F490A1B0E00207E2B0DDDA6
:1024B0009D2B0CDC802000040143952B0ADC962028
:1024C000C31AD9404842002A00D108007047034B84
:1024D000D018FBE7963B9940F4E7C046FFFFFF7F2B
:1024E00070B5002830D0C317C4185C40C50F200059
:1024F00001F00EFA9E231B1A962B0DDC9622D21A9F
:1025000094402A006402640ADBB26402DB05600ABC
:10251000D2071843104370BD992B19DC9922D21AA7
:10252000002A29DD94402200144C1440510704D0A5
:102530000F210A40042A00D00434620113D4A401FC
:10254000640ADBB22A00E0E7002200230024DCE773
:1025500005222100121AD140B922D21A9440621EDB
:1025600094410C43DAE7054B2A001C409F23A40149
:102570001B1A640ADBB2C8E72200D5E7FFFFFFFBA6
:1025800010B5041E27D001F0C3F99E231B1A962B09
:102590000ADC9622D21A94406402640ADBB2640216
:1025A000DB05600A184310BD992B17DC9922D21A5B
:1025B000002A27DD94402200134C1440510704D018
:1025C0000F210A40042A00D00434620112D4A4016D
:1025D000640ADBB2E3E700230024E0E7B92221002C
:1025E000D21A91400A00511E8A410521091ACC4095
:1025F0001443DBE7044B1C409F23A4011B1A640A0D
:10260000DBB2CCE72200D7E7FFFFFFFBF8B545467A
:10261000DE4657464E460C03E0B54E00C90F8846CD
:102620000D00610A440F0C43C70019035800DB0F6B
:102630009B464B0A510F0B43760D400D1900D200FB
:10264000D84500D1AEE0351A002D00DCF6E00028B8
:102650000FD1134300D1DBE06B1E002B00D037E11C
:10266000BA1A9742BF41641A7F42E41B0126170041
:1026700024E0C64B9E424DD080231B041943382DC5
:1026800000DD07E11F2D00DD38E12020431B9A46C5
:102690000B0050468340994613004846EB401843D0
:1026A000030050468240501E8241E9401A43BA1A44
:1026B000611A9742A441170064420C1B230262D5A1
:1026C0006402650A002D00D1DFE0280001F020F946
:1026D0000300083B1F2B00DDD2E020223C00D21A71
:1026E0009D40D4409F4025439E4200DDC4E09E1B98
:1026F000731C1F2B00DDF1E0202238002900D21AC4
:10270000D840914097402C000143781E8741DC401F
:1027100000260F437B0709D00F233B40042B05D035
:102720003B1DBB42BF417F42E4191F0023022CD551
:10273000964B01369E4200D19AE04546944BFF08E5
:102740001C406007760564020743240B760D0021C8
:102750002403230B0C0D8F4A24051C43144033051E
:1027600023435B00ED075B082B43380019003CBC9A
:1027700090469946A246AB46F8BD6446044300D154
:1027800011E2040067467B07C6D145466007FF0893
:102790000743E4087D4B9E4230D024037605240B8A
:1027A000760DD4E7331A9A46002B78DD002831D015
:1027B00076488642AED08020000401435346382B31
:1027C00000DCE9E00A43511E8A410021D219BA42D5
:1027D000BF4109197C4217000C192302D3D56B4B5A
:1027E00001369E4200D13AE10120694B1C407B0832
:1027F00007401F43E007074364088BE723003B4380
:1028000000D1CBE18022120314432403240B9EE762
:102810002E007FE70800104300D1B4E0581E0028C6
:1028200000D0DEE0BA18BA429B4164185B42E4185B
:10283000170001262302A6D50226D5E7002D6ED16A
:10284000701C4005400D012800DCF9E0B81A8446F0
:1028500087428041E51A40422D1A280200D489E0BF
:10286000D71BBA4292411C1B5242A51AD84629E7EF
:102870004546002400276AE7454CF61A2C4049E7F4
:102880003D002838854000272EE7380001F040F849
:1028900020301DE70A43511E8A41002107E7002B23
:1028A00000D0F3E0701C43055B0D012B00DCADE0B4
:1028B000364B984200D1D1E0BA18BA42BF416418F1
:1028C0007F42E419E707520817436408060021E72E
:1028D0002E48854200D193E01D00D0E629001F3E1E
:1028E000F140202B00D18DE04022D31A9D402F4390
:1028F0007D1EAF4100240F43002644E72B00080053
:10290000203BD8400300202D00D17DE04020451B16
:10291000A9400A43511E8A4100211A43C7E6002EEE
:1029200050D01A4EB04257D080266B42994636049A
:1029300034434B46382B00DDD6E01F2B00DD35E15C
:102940002026F51A2600AE40B2463E00DE40AC46D8
:10295000350056462E436546AF407D1EAF41DC40F4
:102960003743D71BBA4292410C1B5242A41A0600AD
:10297000D846A3E6644667462C4300D0A2E600256D
:102980000026002706E71E00C4E6C046FF07000039
:10299000FFFF7FFFFFFF0F801F2B63DC2020C31A88
:1029A000080098409C46834653461000D8400300D8
:1029B0005846184363469A40531E9A415346024371
:1029C000D94003E726003E4306D0EB439946002B4F
:1029D000C7D0944EB042ACD10C0017000600D846C8
:1029E00098E6904B9A450BD08246E7E6002800D047
:1029F0009EE01800104300D1E9E01C001700D84603
:102A0000884E87E6002572E7002182E723003B43DA
:102A1000002E00D0ABE0002B00D1E7E00B00134309
:102A200000D177E6BA18BA42BF4164187F42E41970
:102A3000230200D4F2E07C4B17001C40060069E63C
:102A400020003843002ED1D100285BD11C00144354
:102A500000D1A8E01C001700D8465BE60600002461
:102A6000002797E650460B002038C340994653464E
:102A7000202B00D195E0402350461B1A99400A4371
:102A8000511E8A414B4600211A439FE6002E30D149
:102A900026003E4367D0DB439A46002B1CD0614E94
:102AA000B04260D05346382B00DD96E01F2B00DD8E
:102AB0009FE02026F31A26009E409C46B3465346CC
:102AC0003E00DE4033005E461E4363469F407B1E51
:102AD0009F415346DC403743BF18974292416418E8
:102AE0005242A418060078E627437C1EA741002422
:102AF00037E74C4EB04236D080265B4236049A46C9
:102B00003443CFE71800104300D103E6B81A8446D7
:102B10006745AD41E01A6D42401B050200D42CE62A
:102B2000D71BBA4292411C1B5242A41AD846F1E567
:102B30001800104300D163E7F808670707438020B7
:102B4000E4080003044208D0DD08054205D1D2089C
:102B5000590711430F002C00D8467B0FE4001C439B
:102B6000FF00304ED6E50C0017000600D2E5002B22
:102B700038D00B00134300D142E7F808670707433A
:102B80008020E40800030442E7D0CB080342E4D1EC
:102B9000D208490711430F001C00DEE7002700247C
:102BA000D5E500216BE700250027F3E54E4625001B
:102BB000203EF5404B462E00202B2DD04025ED1A0F
:102BC000AC4027437C1EA74100243743C9E680243C
:102BD00000252403134E0027DCE527437C1EA74174
:102BE000002479E70C0017000E4E93E50C00170047
:102BF00090E556462300203EF34099465346202B4D
:102C00000ED0402356469B1B9C4027437C1EA74169
:102C10004B4600241F435FE70024D2E71700B2E5CC
:102C20000024F2E7FF070000FFFF7FFFF0B55746E3
:102C30004546DE464E46E0B50C0398464E00230B53
:102C400087B0070092469B46760DCD0F002E6BD0C5
:102C50006D4B9E4235D080245B46420F2404DB003E
:102C600014431C43C3009946684BA3469C4600236B
:102C700000276644029343461C035A00DB0F50466C
:102C8000240B520D984600D176E05F4B9A426DD0EE
:102C90008023410F1B040B435C49E4008C461C431A
:102CA000C300002062444146B6186940721C01917D
:102CB000944607430F2F00D9B0E0554ABF00D259C0
:102CC00097465B460343994600D087E000239B4626
:102CD000023308270293CEE742460192022867D0CA
:102CE000032800D10EE2012800D062E10023002475
:102CF0000022994601990140CDB2002112030B0D2B
:102D0000120B1B051343434A240513401C43640064
:102D1000ED0764082C434846210007B03CBC9046B0
:102D20009946A246AB46F0BD034399464FD05B4659
:102D3000002B00D189E1584600F0EAFD03000B3B6F
:102D40001C2B00DD7AE11D22D31A3A0001005C46FB
:102D5000DA4008398C4013008F4023439B46B94624
:102D600000232D4E0027361A029384E7534623434F
:102D70002AD10024022096E75346234320D0002C7A
:102D800000D157E1200000F0C3FD03000B3B1C2BDA
:102D900000DD49E11D21CB1A51460200D9405346BE
:102DA000083A944093400C431B4A121A00207AE7D9
:102DB0000125019B144C1D400023002299469CE7ED
:102DC0000024002201206EE7534603206BE7002316
:102DD0009B4601330427002602934CE703238146D8
:102DE0000C27029347E7802200230025120399460F
:102DF000054C82E75C464B4602986FE75C464B46C3
:102E0000019502986AE7C046FF07000001FCFFFF3A
:102E100094500610FFFF0F800DFCFFFF4A46494605
:102E2000170C1A0C1B041B0C08041900000C41435E
:102E30001500884619007D4379430395894629008A
:102E4000150045434D44029545462D0CAA46029D6A
:102E50005544A94506D98A46802149028946CA4473
:102E600051460391290C0491414609042D04090C93
:102E700088462900250C24044144240C0591210096
:102E800041438846210079438A466843414650447D
:102E90008146080C48446F43824503D9802149028A
:102EA00089464F44010C8946390049440291414604
:102EB0000F0404993F0C88460004C0198044414621
:102EC000049159460F0C0904090C884659438A4657
:102ED00039005143894641464A435146090C8B46C5
:102EE0007B43D2185A44934203D980235B029B460A
:102EF000D94451460904090C8A46414661437C4342
:102F0000130C12044B445244A1468A463C004146ED
:102F10006C434D4351464D440F0C7D19A94503D9CF
:102F20008021490288464444049F0399B84641449D
:102F30008B468345804141428846514608042F0410
:102F4000000C3F1858460299101889469042924149
:102F50004F44BA46524299469346C244D144CB4468
:102F60008F42BF41C245894199459B41934592415A
:102F70007F4249422D0C52420F435B4213437F195B
:102F8000FF185B463C19DB0D059A64021C434302A3
:102F900013435D1EAB415A46C00D03435202134317
:102FA000E20156D501205A0803401343E2071343B8
:102FB00064085A48604400284DDD5A0709D00F22A2
:102FC0001A40042A05D01A1D9A429B415B42E4181C
:102FD0001300E20104D58020514AC000144060442F
:102FE000504A904200DDE3E60125DB0862071A4300
:102FF0006402019B9146220B4405640D1D407CE652
:10300000802259461203114208D0144206D12243AD
:103010001203120B45469946434C6EE65B461A4333
:103020001203120B404C68E603005446283B9C40B8
:103030000023B9E600F06CFC2030A6E60300283B34
:103040009F400023BB4699468AE600F061FC203091
:1030500074E6B446ADE701252A1A382A06DD019B3D
:1030600000241D4000230022994646E61F2A21DC49
:1030700020252000AD1A1E00AB40A840D6405D1EA2
:10308000AB4130431843D440430709D00F230340DA
:10309000042B05D00300181D98429B415B42E418A5
:1030A000230221D50125019B01241D40002300227C
:1030B000994622E61F2521006D42281AC1400800CA
:1030C000202A1DD05F35AA1A944023435C1EA341D9
:1030D000072503431D400022002D09D00F220024A4
:1030E0001A401800042AD6D1030065076402220B97
:1030F000DB082B4301259946019B00241D40FCE57C
:103100000024E2E7802201251203224301991203E1
:10311000120B0D409946044CEFE5C046FF0300003A
:10312000FFFFFFFEFE070000FF070000F0B5464668
:10313000D6464F460C03C0B5CD0F4E00610A440F72
:103140000C43C1005800400D84468A460F00190305
:10315000500F490A0143C648760DA846DB0FD2003E
:10316000844500D1D8E001204340AB4200D1A6E025
:103170006046351A002D00DC05E1002810D10B0057
:10318000134300D1D7E06B1E002B00D04BE1534618
:103190009F1ABA458041641A4042241A01261EE053
:1031A000B34B9E4248D080231B041943382D00DDC9
:1031B00019E11F2D00DD4CE120230F005B1B1000E7
:1031C0009A409F40E840531E9A41E9400743174305
:1031D0005346DF1B611ABA45A44164420C1B23020B
:1031E00000D4C5E06402650A002D00D1F6E0280095
:1031F00000F08EFB0300083B1F2B00DDE9E02022DE
:103200003C00D21A9D40D4409F4025439E4200DDA1
:10321000DBE09E1B731C1F2B00DD0AE1202238001F
:10322000D21A290097402C009140D8407A1E97412D
:10323000DC40002601430F437B0709D00F233B40AE
:10324000042B05D03B1DBB42BF417F42E4191F0048
:10325000230225D5864B01369E4200D1AFE0854B37
:1032600001251C4043466207FF08640276051743A8
:10327000240B760D1D4000212403230B0C0D7E4AE8
:1032800024051C431440330523435B00ED075B0812
:103290002B43380019001CBC90469946A246F0BD4D
:1032A000012543466207FF081743E4081D40704BA1
:1032B0009E4236D024037605240B760DDBE7634669
:1032C000F31A002B00DC94E06046002835D06848F3
:1032D0008642B1D080273F043943382B00DCFDE023
:1032E0000A43170000217A1E9741574457458041F1
:1032F000091944420C1923023AD55D4B01369E420E
:1033000000D14BE101225B4B1C407B0817401F435F
:10331000E207174364088FE70800104300D024E752
:1033200021E723003B4300D1B9E18022120314437B
:103330002403240B9FE72E007EE70800104300D1F2
:10334000CAE0581E8446002800D0E7E052445245A7
:10335000804164184042241817000126230207D533
:103360000226CFE764462C4300D1B3E12C00674628
:103370007B0700D062E76307FF081F430125434630
:10338000E4081D4093E7002D78D1751C6D056D0D87
:10339000012D00DCF2E05046801A8245BF41651ADB
:1033A0007F42ED1B8446280200D48CE05046171A59
:1033B000BA4292410C1B5542651B984614E7012501
:1033C000434600241D40002755E72A4CF61A2C409E
:1033D00032E73D0028388540002717E7380000F025
:1033E00097FA203006E70A43170000217A1E97411A
:1033F000EEE6002B00D0E5E0731C9C465B055B0D00
:10340000012B00DC9FE01A4B9C4500D1C5E05244E3
:1034100052458041641840422418E7075208174378
:103420006408664608E71248854200D185E01D0021
:10343000BCE629001F3EF140202B00D17FE0402256
:10344000D31A9D402F437D1EAF4100240F43002619
:103450008EE72B000F00203BDF40202D71D0402352
:103460005D1BA9400A43511E8A4100211743AFE664
:10347000FF070000FFFF7FFFFFFF0F80002E3ED001
:10348000B34EB44545D0802636046D423443382DC2
:1034900000DDA8E01F2D00DD1FE12026270050469B
:1034A000761BB740E84007435046B040461EB04147
:1034B000EC403843171ABA4292410C1B5242A41AEC
:1034C000664698468BE6644667462C4300D08BE6FA
:1034D000002500260027EAE61E00ADE61F2B60DC73
:1034E0002027F81A0F00844687401000D840074371
:1034F00060468240501E8241D9401743F5E62600BF
:103500005046064305D0ED43002DD3D0904EB44530
:10351000BDD10C001700664698468DE68C48834264
:103520000BD06346D9E6002D00D096E0080010438A
:1035300000D1E2E00C0017009846854E7CE600259D
:1035400080E700218EE7230050460343002E00D081
:10355000A8E0002B00D1DEE00B00134300D16BE6A6
:1035600052445245804164184042241817002302F7
:1035700000D4FDE6774B66461C405DE625005046CC
:103580000543002ECFD1002D4FD10C00144300D1A4
:10359000A0E00C00170098464EE66646002400277F
:1035A00085E61F000800203FF8400700202B00D1CF
:1035B0008EE04020C31A99400A43511E8A410021DF
:1035C000174392E6002E14D126005046064362D0DF
:1035D000DB43002B5CD1871897429241641852421A
:1035E000A418664687E650462043441EA0410024A6
:1035F00060E7574EB4454ED0802636045B423443D4
:10360000382B00DD7FE01F2B00DD8BE0202627001C
:103610005046F61AB740D84007435046B040461EC1
:10362000B0410743DC40BF18D6E70D00154300D179
:1036300002E65046801A8245BF41651A7F42ED1B63
:103640008446280200D48DE65046171ABA429241A9
:103650000C1B5242A41A9846EEE50D00154300D10A
:103660006BE750466707C00807438020E408000363
:10367000044207D0CD08054204D12C009846D70853
:1036800049070F437B0FE4001C43FF00304ED3E596
:103690002F4EB445B4D10C0017006646CCE5002788
:1036A0000024E8E5002B39D00B00134300D144E798
:1036B000C008670707438020E40800030442E1D004
:1036C000CB080342DED1D70849070F431C00D9E7D6
:1036D000002171E700250027E9E52E002700203EA4
:1036E000F740202D2FD04026751BAC40504620437C
:1036F000441EA04100243843DCE680240025240336
:10370000134E0027D3E5504620430700781E87411B
:103710000024BF1860E70C0017008DE50C001700AF
:103720000B4E89E51E002700203EF740202B0CD0D1
:103730004026F31A9C4050462043441EA0410743B4
:103740000024BF1848E70024D0E70024F3E7C04670
:10375000FF070000FFFF7FFF4100090E4B1C70B503
:10376000DBB24602750AC40F012B14DDE0239B0077
:103770006D07360BCB1800210A0D280012051C4DD1
:1037800032435B052A405B0813435B00E4075B0898
:103790002343190070BD002914D1002D1ED028002C
:1037A00000F0B6F80A281CDC0B232A001B1ADA40AA
:1037B000030015339D400F4B12031B1A5B05160BBC
:1037C0005B0DD8E7002D06D0320B802636036D073F
:1037D0001643094BCFE7084B0026CCE70023002611
:1037E000C9E703002A000B3B9A400025E3E7C046E7
:1037F000FFFF0F8089030000FF070000F0B54C00B9
:10380000640D0B03621C450F5B0A52052B43C90F65
:10381000C500520D012A28DD3A4AA618FE2E1BDCEF
:10382000002E3EDD80010200501E82416D0F2A43B2
:10383000DB0013435A0704D00F221A40042A00D099
:1038400004338022D2041A405AD00136FF2E03D00E
:103850009B015B0AF4B201E0FF2400235802E40557
:10386000400AC90720430843F0BD002C07D01D4380
:10387000F2D08020DB0080040343FF26DAE72B43ED
:1038800003D00523DB08FF2C03D05B025B0AE4B204
:10389000E4E7002B32D08020C00303435B025B0AC5
:1038A000DCE73200173214DB80221E271204134398
:1038B000BF1B1F2F0FDC144A944664442A00A54006
:1038C0002E00A340751EAE41FA4033431343002639
:1038D000B0E70024D5E702225242961B1A00F240BC
:1038E000202F09D0094884466444A3402B435D1E21
:1038F000AB41002613439DE70023F7E70023ADE724
:103900003400BFE780FCFFFF82FCFFFFA2FCFFFF4B
:103910001C2101231B04984201D3000C10391B0AFF
:10392000984201D3000A08391B09984201D30009C3
:10393000043902A2105C40187047C046040302021A
:10394000010101010000000000000000024A1368AC
:10395000013313607047C046000300200E4AD3694C
:103960001B061B0F4370D9B2D3690C4A1B071B0FF0
:1039700083700B4B1B68436093420BD1022303708F
:10398000002901D101234370064B9B8A01339B0020
:10399000836070470123F2E70000904041A00002DD
:1039A0002800904000001040F0B5070085B001AC41
:1039B0000E0020001500FFF7D1FF23783B706378DD
:1039C0003370A3782B7005B0F0BD10B502F019F973
:1039D00010BD10B502F030F910BD10B502F002F9BB
:1039E00010BD0000F0B51B4C1500A5440D9104005E
:1039F000EFF31083069372B60022174B1A7011F082
:103A00000DF80600200002F031F8331C864200D980
:103A1000031CDAB2A24200D9231CDBB20F4A990080
:103A200000938B5801338B50009B002B07D1069BD2
:103A300083F310880020A9239B009D44F0BD009BC8
:103A4000012B0FD10021064B1A7A1972D2B230BF66
:103A50001A72ECE75CFDFFFF0C000020040300205D
:103A60000000704034226B46E14C9B1825701B7897
:103A70007DA82371FFF772FF237ADE49DBB20F9333
:103A80008B88DD4A9BB2109313685C9111930023DD
:103A90000894059280A91A000598C03292008058B7
:103AA0009A0001335050082BF5D1D44CD4482368E8
:103AB000D4491293036AD44F13938023DB051A6809
:103AC000D24E14925A68D24D15929A681692DA68BC
:103AD00017921A6918925A6919929A691A92DA69B0
:103AE0000A92DA6A1B921A6B1C925A6B1D921A8FF9
:103AF00092B21E925B6CC74A1F93CB6820930B7FD8
:103B0000DBB221938B8C9BB22293C34B1B78DBB22D
:103B10002393C24B1B78DBB224930B6B2593C04BD2
:103B20001B78DBB226930B8F9BB22793BD4B1B7880
:103B3000DBB22893BC4B9C461B78DBB229933B78C5
:103B4000DBB22A933378DBB22B932B78DBB22C9346
:103B5000B64B1B78DBB22D9313682E9353682F93CB
:103B6000137CDBB23093137DDBB23193B04BDB7F40
:103B7000DBB23293138D9BB23393D36A3493138E9B
:103B80000491A5499BB25E91A44935935F91A449E4
:103B900000236091A349019261916146A44A629118
:103BA000A2495D946397649665950E9066916792BD
:103BB00069AF6BAE6DAD6FAC9E4A9A1892041168F6
:103BC000D95151689951918BE950118CE150908CE9
:103BD00071A9C850108D73A9C850D06A75A95850E2
:103BE00011004C31088877A9C850106D79A9585038
:103BF000916D7BAA99500433082BDDD1B0231B06AD
:103C00001B688D4C369363688C4A3793A3688C4D40
:103C10003893238A9BB23993A38A9BB23A93A369C0
:103C20003B93237FDBB23C93238E9BB23D93636B2C
:103C30003E93A36B3F93E36B4093236C4193636C80
:103C40004293A36C439393889BB2449313899BB292
:103C50004593137CDBB24693137DDBB24793138B02
:103C60009BB24893137FDBB24993764B998889B214
:103C70004A91198989B24B91197CC9B24C91197D2D
:103C8000C9B24D91198B89B24E91197FC9B24F912A
:103C90006D49086850904868519028685290287A79
:103CA000C0B25390C0200001285809950393029296
:103CB0000D000023002800D1644B90AA0C93944679
:103CC000002388A898A9052266465A43604FD21956
:103CD00057689F5117681F5097685F50D768A0AA10
:103CE0009F500433202BEED18123DB055A68549278
:103CF0001A7BD2B255925A8B92B256921A8B92B2CA
:103D000057925A6A58929A6A1B8859929BB25A9350
:103D1000C0231B069B685B93009B032B06D190225C
:103D2000C023D20551689B050B435360494B4A4A57
:103D30001B680793503B0B9300230B99C918096824
:103D4000D1500433502BF8D1444B079A1A607DAA06
:103D5000537892781B011343112B04DD0020404B54
:103D6000186001F0EDFA9023DB055A683D4B1A60AC
:103D7000089B1E791A788023DB051B685B0A534079
:103D80009E4300D053E6012000F08AFFFDF798FD26
:103D9000300000F085FF344B1B78002B00D0A1E0F1
:103DA00032494B685B0675D4314B32484A6800682B
:103DB0005C6A844216D1304849680068884204D061
:103DC00005994240096811420CD12C4A5968126881
:103DD0005140C90006D45B685A4053015AD52B683C
:103DE0009B0757D5264A274813681B09D91C4BE067
:103DF000000020400000104000E100E020ED00E065
:103E000000009040000030405400304058003040E6
:103E10005C00304000004040280030402C00304022
:103E200034003040480030405000304060003040A6
:103E300005004040281000000000F0400000D04085
:103E4000000070400000E04010E000E051E5CC1AB6
:103E5000080000A00018051064170020601700205B
:103E600014000020180000200C000020FCE100E0FD
:103E700000ED00E0B4170020C4170020C017002098
:103E800010000048FFFF0F0081421BD813681B0978
:103E90009942FBD87DAA537892781B011343112BCA
:103EA00005DD012001F04CFA0A4A0B4B1A60009B19
:103EB000032B00D0BBE59022D205536807490B4085
:103EC0005360B4E506495B18116809099942FBD1B2
:103ED000E0E7C046CCBCECFC14000020FFFFFFCFA5
:103EE0000400F0FF0122E74F3A83E74ABE813E61BA
:103EF0000B9B91599B1904361960502EF8D1079AE3
:103F0000E24B40211A606A4652185C9B128880A8D6
:103F10009A80059B119A1A6000239A0011581A0082
:103F2000059EC03292000133B150082BF5D15D9B44
:103F3000129A78211A600E9B139A6DAE1A62802332
:103F4000149ADB051A60159A5A60169A9A60179AA5
:103F5000DA601A9A9A61199A5A61189A1A610A9A39
:103F60009A620A9ADA611B9ADA621C9A1A631D9A9B
:103F70005A636A46521812880C311A871F9A5A647B
:103F8000049B209ADA606A465218049B1278043126
:103F90001A776A465218049B128804319A846A463A
:103FA00052185E9B127804311A706A4652185F9B51
:103FB000127808311A70049B259A1A636A465218BF
:103FC000609B127804311A706A465218049B12885A
:103FD00004311A876A465218619B127804311A70AC
:103FE0006A4652181278629B04311A706A46521857
:103FF000639B127804311A706A465218649B1278D7
:1040000004311A706A465218659B127804311A708E
:104010006A465218669B12780C311A70019B2E9AD0
:104020001A60019B2F9A5A606A465218019B1278B7
:1040300004311A746A465218019B127804311A75B9
:104040006A465218679B12780431DA776A4652182A
:10405000019B128808311A85019B349ADA626A46FC
:104060005218019B12881A86002369AA94466FAAE7
:10407000049261460C20864A59589A18920411609D
:1040800068A90918C95851600191995B91830499F5
:10409000595A118471A9595889B2918473A95958F0
:1040A00089B2118575A95958D16277A9595888B232
:1040B00011004C31088079A9595811657BA95958CC
:1040C00004339165082BD4D1B023369A1B061A60AD
:1040D000519B509A6B600023AB602A60379AE421B1
:1040E0006260389A8820A2606A46521812880431A9
:1040F00022826A46521812880831A2823B9A4000F6
:10410000A2616A4652181278043122773E9A052637
:1041100062633F9A90ADA263409AE263419A22643F
:10412000429A6264439AA2646A46521869461288A7
:1041300009182286029A0988043091806946091874
:10414000029A09880430118169460918029A09788F
:104150000430117469460918029A0978922411757D
:104160004021489A02988A430283684664000019F5
:10417000029A00780434107768460019039A008880
:104180000434908068460019039A00880434108132
:1041900068460019039A00780434107468460019C0
:1041A000039A007888AC10754E9A9E208A43039932
:1041B00040000A8369460918039A0978103011777C
:1041C000099A5299116069460918099A0978117279
:1041D000C0220C9809991201885098A832005A43BD
:1041E0002C49521859595160195911601958916048
:1041F000A0A959580433D160202BEFD18123549AC0
:10420000DB05AA215A606A46490052181278043127
:104210001A736A465218128804315A836A46521831
:1042200012880C311A83589A5A62599A9A626A46CD
:10423000521812881A80C0235B9A1B069A600E9B44
:104240001B7A002B49D13B89082B46D93B89812B0E
:1042500043D80D9B002B40D009223B891340934249
:1042600004D18023DB05DB699B0533D411223B8914
:104270001340934210D18023DB05DB695B0529D411
:104280000AE0C046000010486417002060170020B4
:1042900028100000080000A021223B89134093420F
:1042A00004D18023DB05DB691B0513D441223B8944
:1042B0001340934204D18023DB05DB69DB0409D47E
:1042C00081223B891340934207D18023DB05DB69C0
:1042D0009B0402D501220E4B5A60009B032B05D193
:1042E0009022D20553680B490B4053606A463C212B
:1042F0005218089B12781A72009B032B05D10020DC
:104300003B3901F0DBF8FFF792FB00210800F8E7EA
:10431000FCE100E0FFFFFFCFF7B581250191ED053E
:104320006A680700520337D4254C1800FEF728F9B5
:10433000061C3800FEF7D4F86B681B069B0F012B98
:1043400003D06B681B069B0F05D18123DB055B68DF
:104350005B0324D41B4C019B211C022B21D1FDF7B4
:104360008FFD1949FDF77CFFFFF7F6F9174A184B47
:10437000FEF74CF90D00FE2104008905301CFDF705
:10438000EDFBFFF7E9F902000B0020002900FEF722
:104390004DFCFFF733FAFEBD8E24E405C5E70D4C56
:1043A000D9E7FDF76DFD0849FDF75AFFFFF7D4F98E
:1043B00002000B0005480649FEF7B8FEDAE7C046E2
:1043C00000720A47002C21479A991940333333333E
:1043D0003333E33F0003154710B5002302220121C8
:1043E000FFF79AFF0149FDF73BFF10BD1F858B408A
:1043F00081220823D20511880B43138070470000E7
:10440000812310B50324DB0501785A682140BD34AF
:104410008901A2430A435A60427859680F2A22D17F
:104420008022D2030A435A60812303240179DB05E9
:104430005A6821402D340901A2430A435A60827808
:10444000082A1AD18022596812010A435A60812130
:10445000C2780320C9054B6802400A481202034093
:1044600013434B6010BD084C214007245960596824
:10447000224024195200A143D4E75A6803490A4054
:10448000E4E7C046FFFCFFFFFFFFBFFFFFF7FFFFB2
:104490008123DB0501280FD15A681988520204D5FF
:1044A000802252000A431A8005E004220A431A803F
:1044B0001A8810431880704719881022F2E700000C
:1044C0008123DB05012805D18022198892000A4347
:1044D0001A8070471A8801490A40F9E7FFFDFFFF7B
:1044E0008123DB051988012803D102220A431A809F
:1044F000704740220A4302211A801A888A43F6E74D
:104500008123DB0580221988012802D10A431A8001
:10451000704791431980FBE78123DB051B7C184022
:10452000431E9841C0B270478123DB055A6852038D
:1045300002D4D88A80B27047988AFBE701220368C8
:10454000934303600023036043608360C360204B98
:10455000984206D1A022F023120651680B43536003
:1045600070471C4B984205D1A022F02312065168D7
:104570001B01F3E7184B984205D1A022F023120645
:1045800051681B02EAE7154B984205D1A022F0239F
:10459000120651681B03E1E7114B984205D1A02296
:1045A000F023120651681B04D8E70E4B984205D140
:1045B000A022F023120651681B05CFE70A4B984250
:1045C000CED1A022F023120651681B06C6E7C046D2
:1045D0001C0000A0300000A0440000A0580000A073
:1045E0006C0000A0800000A0940000A001230268DD
:1045F000002902D01343036070479A430260FBE72F
:10460000044BDA7F002902D01043D87770478243E9
:10461000DA77FBE705009040A0231B06586070473F
:10462000024A138ADB07FCD57047C04600001040E1
:10463000084B10B51A68084B9A4209D13F22074B24
:1046400040061A81000C2E3A98611A80FFF7E8FFA5
:1046500010BDC04614000020CCBCECFC0000104093
:10466000084B10B51A68084B9A4209D13F22074BF4
:1046700080081A810C3A986119641A80FFF7D0FFFC
:1046800010BDC04614000020CCBCECFC0000104063
:10469000F7B5019001790468002931D18022D20553
:1046A0005368A3435360019B20251E68802300228A
:1046B0006D42DB0534000120D44004420BD0D4B25B
:1046C000072A26D897000E30B840DC6A84430800D9
:1046D000B8400443DC62013204351A2AEAD1019B56
:1046E0005A798023DB05012A3AD1DA683243DA604D
:1046F000019A9279012A36D19A6816439E60F7BDD5
:104700000629D0D18022D20553680021234353606B
:10471000C9E72700083F072F08D80F27AF401C6BB9
:10472000BC430F00AF403C431C63D4E7103C072C54
:104730000AD82F000F20203FB8405C6B844308004C
:10474000B84004435C63C6E72F000F20403FB840E9
:104750001C8F84430800B8400443A4B21C87BAE706
:10476000DA68B243C3E79A68B2439A60C7E70023A6
:10477000036003718371437170478023DB051B68FD
:104780001840431E9841C0B270478023DB050129C1
:1047900001D1D86370471864FCE780234268DB05C9
:1047A0000168012A0FD11A690A431A6180238168BE
:1047B000DB050268012909D1996911439961596999
:1047C0009143596170471A698A43EEE7002907D17E
:1047D000D24399691140996159690A405A61F1E7D8
:1047E00059690A43FAE78023DB05DA69002902D018
:1047F0001043D86170478243DA61FBE78022D2051B
:10480000936A1843906270478023DB055B6A184007
:10481000431E9841C0B27047012270B503880D0055
:104820009343038049790400080023880232274E0D
:1048300010404003334003432380254B4900C85AAE
:104840002968244B4843181A234B994229D8490018
:10485000FDF784F83022238893432380C0236268C5
:1048600092B29B02134363606368EA889B0A9B02CF
:1048700013430322062180B2636020852B791A40FE
:10488000238852008B43134323802A7A0823012A6A
:1048900018D12288134323800123228813432380C5
:1048A00070BD0E4B9942DFD85143FDF757F83022C7
:1048B000238893431A0010231343238062688023C4
:1048C00092B2CEE722889A432280E5E7FF9FFFFF5E
:1048D0002C1800200024F400A0860100801A060095
:1048E000034B0360002303714371C380037270475D
:1048F000881300008A880B881343CA8813430A89E7
:1049000013434A8849895200C9030A431343C360C9
:10491000704701747047007EC0B2704780230288E0
:10492000134303807047022300680006C00F181A63
:104930007047006B0840411E8841C0B270478163D8
:10494000704740690007800F7047C02380211B0615
:104950001A680A431A601A688A431A60704700008E
:10496000044B1A6A012902D110431862704782432E
:104970001A62FBE700009040244B1A7A244BD2B213
:104980001B899BB2002A36D11A00093A782A19D815
:1049900009211A0006200A408A422BD01122013038
:1049A0001A40112A26D0212201301A40212A21D072
:1049B000412208001A40412A1CD0812201301A40AD
:1049C000812A17D002221900FF3211400B20914298
:1049D00010D019000F4A0130114091420AD01A003C
:1049E00007380240824205D002381840033843425B
:1049F0005841800070470120022AFBD00018042A89
:104A0000F8D00020082AF5D10330F3E700009040E9
:104A10000000104801040000054B0122196B00281A
:104A200002D00A431A63704791431963FBE7C046FB
:104A300000003040F8B54A4C0500236B01681B07A5
:104A400000D56DE009014748FCF788FFC3099AB219
:104A5000A284454ADB0101301340C01A400880B2ED
:104A60003F2802D93F233F381840032760263F4B99
:104A7000C0B218703E4B2A7918783A405201B043C0
:104A80001043187001206979227F39404901B243EF
:104A90000A432277AA7919780240BA400730814345
:104AA00011431970217F81430A432277EA79002A52
:104AB00038D102211A788A431A70227F8A43012052
:104AC00022772A7A216B1600C2402A4F06407602CE
:104AD000394031432163216B274E0240314012029D
:104AE0000A432263697A226B0E00C140234F0640BD
:104AF0003A40B60332432263226B214E01403240DA
:104B0000C90311432163AA7A197802400F301201B8
:104B1000814311431970237F83431A432277F8BDE1
:104B2000C90090E7022A0CD10420197811431970AA
:104B3000197881431970217F0A432277227F8243AB
:104B4000BDE702211A780A431A700422187810432C
:104B50001870207F01432177217F0A43AFE7C046C9
:104B6000000030400000127A80FF7F0028003040B3
:104B70002C003040FFFDFFFFFFFEFFFFFFBFFFFFE8
:104B8000FF7FFFFF044B1A8F002902D010431887C4
:104B9000704782431A87FBE700003040024BC00594
:104BA000C00D18807047C04600003040014B188887
:104BB000C0B2704700003040054B002805DA5B6842
:104BC0001840431E9841C0B270471B8BF8E7C0469F
:104BD00000003040034B9B8F1840431E9841C0B2E9
:104BE0007047C04600003040014BD8877047C04630
:104BF000060030400722024038200449D2000B78DA
:104C000083431800104308707047C046340030409A
:104C1000F0B583780178002B33D040784AB2800118
:104C2000002A1BDA0F230B40083B1B4A9B089B0002
:104C30009B18FF22032517000D40ED00AF400240F6
:104C4000AA40DE69BE433243DA611F224B0911409C
:104C50001E3A8A4011499B00CA50F0BDFF270F4BF6
:104C600092089200D21803233C00C0250B40DB00C1
:104C70009C4038409840AD005659A64330435051AF
:104C8000E3E71F234A090B40012199401300034A1F
:104C900020339B00D150E0E700ED00E000E100E0B0
:104CA000054B04221969002802D00A431A61704793
:104CB00091431961FBE7C04600ED00E0054A064B51
:104CC0001A60BFF34F8F054A054BDA60BFF34F8F71
:104CD000FEE7C046554201B0040000200400FA057A
:104CE00000ED00E00A0010B50100024800F0ACFF42
:104CF000FEE7C0460D51061037B50D00012903D956
:104D00000F491048FFF7EEFF6B46DC1D2022012300
:104D10005F21200000F020FA012300280DD17F221E
:104D20002178ED011140294321705F3A5F21200075
:104D300000F0CCF9431E9841C3B218003EBDC046F6
:104D400061020000D450061073B50B0040260D0020
:104D5000B34303D00E490F48FFF7C4FF6B46DC1D79
:104D6000222201235F21200000F0F6F90123002810
:104D70000BD122785F21B2431543200022222570F7
:104D800000F0A4F9431E9841C3B2180076BDC04696
:104D900039030000D450061037B501AC0D000123D3
:104DA00060221E21200000F0D7F9032321781D4046
:104DB000994329432170023B60221E21200000F00C
:104DC00085F93EBD37B501AC0D00022310225D21EF
:104DD000200000F0C1F9032370212B401A01237831
:104DE0008B431343012223700223291111404800F1
:104DF0006178ED1099430143154091432943617057
:104E00000F325D21200000F061F93EBD37B501ACE5
:104E10000D00012310226B21200000F09DF90F23CB
:104E200021782D011940294321700E3B10226B215E
:104E3000200000F04BF93EBD37B501AC0D00012359
:104E400011226B21200000F087F90F2321782D011A
:104E50001940294321700E3B11226B21200000F0E4
:104E600035F93EBD37B501AC0D00012312226B218F
:104E7000200000F071F90123102221781D402D013E
:104E800091432943217002326B21200000F01EF96A
:104E90003EBD37B501AC0D00012312226B2120006D
:104EA00000F05AF90123202221781D406D01914321
:104EB000294321700E3A6B21200000F007F93EBD16
:104EC00010B504002020FFF777FE0128FAD0A0B229
:104ED000FFF764FE10BDF0B5012187B00600092080
:104EE000FFF73EFD80230024012501AF5B00380061
:104EF00001933D71BC717C71FFF7CAFB80233800C0
:104F00001B0101933D71FFF7C3FB032303A803714A
:104F1000437103728471C471447285720396FFF702
:104F200089FD2000FFF766FE2800FFF775FD07B03A
:104F3000F0BD042313B5040001A80370013B4370C6
:104F40008470FFF765FE21001020FFF71BFE13BDE4
:104F500010B58020FFF730FE43425841C0B210BD6B
:104F600010B50820FFF728FE013843425841C0B26F
:104F700010BD000001000A4A0A4810B51368046811
:104F800001209C4209D00848C05C01330870802190
:104F90000020C9008B4201D0136010BD1060FCE7F7
:104FA0001807002014070020140300200B4A10B536
:104FB00013680B49002B00D1116080241368640131
:104FC00018180919884205D90C220120054B4042C6
:104FD0001A6010BD10601800FBE7C0461C170020C7
:104FE0001C070020DC17002001204042704780236E
:104FF0009B0100204B6070470120704700207047E4
:1050000070B50E0015000C00A31B9D4201DC2800AA
:1050100070BD2078FFF754FF0134F5E770B50E003E
:1050200015000024AC4208D23019FFF7A3FF002876
:1050300001D10134F6E7002CF4D0200070BD10B58A
:1050400000F0DFFD10BD10B500F0DBFD10BD10B5A8
:105050000A00002100F0F0FD10BD00000222014B0B
:105060001A70704720170020F0B5012187B00600A4
:105070001348FFF775FC00251023042701AC20001E
:1050800001932771A5716571FFF702FB202327713A
:10509000200003AC0193FFF7FBFA2000FFF720FC90
:1050A00001230396074E210030002371FFF7B4FB64
:1050B00030000549FFF743FC280007B0F0BDC046AB
:1050C000010400000000A0407F809F73F0B51E0027
:1050D000002385B001AD2B80AB8080235B01EB808A
:1050E0008023DB0104002B811948731C17006980A1
:1050F0006B81FFF713FC1648FFF715FC0128FAD067
:1051000029001348FFF7F6FB39001148FFF701FCAF
:10511000A619B44213D1802424030D48FFF711FCD3
:10512000032812D021000A48FFF703FC0028F4D01E
:1051300007480849FFF703FC002005B0F0BD2178BF
:105140000348FFF7E6FB0134E3E70120F5E7C0463B
:105150000000A04000000810F0B587B017000193D0
:105160008022002303AC050023808EB2A38052016D
:1051700023812C4801336680E2806381FFF7CEFBF8
:105180002848FFF7D0FB0128FAD021002548FFF777
:10519000B1FB390023488027FFF7BBFB7F0521487F
:1051A000FFF7CFFB032802D1012007B0F0BD390083
:1051B0001C48FFF7BEFB0028F1D0802119484905A3
:1051C000FFF7BDFB012323800023A38080235B0125
:1051D000E3808023DB0123816B469B8866806381AB
:1051E000210010488024FFF785FB24030D48FFF7BA
:1051F000A8FB0328D8D021000A48FFF79AFB002813
:10520000F4D009490748FFF79AFB019BEC18A54227
:1052100001D10020C9E70348FFF77DFB2870013565
:10522000F5E7C0460000A04000000810012804D0A7
:105230000123022803D0082301E08023DB011800AA
:10524000704710B5FFF7F2FF0021FFF79EFA10BD7F
:1052500010B5FFF7EBFF0121FFF797FA10BD13B56B
:10526000012104000800FFF77BFB2000FFF7DEFFB1
:105270006A46062313710023009093716846013338
:105280005371FFF705FA2000FFF7E2FF13BD7047E7
:105290007047704770477047704770477047704756
:1052A000704770477047704770470000002210B584
:1052B000104B995CC9B2002917D11C2A14DC0220BA
:1052C00021249854501C1C54901C193C1C54D01C74
:1052D00019549B18802290219BB252021343C90596
:1052E000CB60CB681342FCD110BD995C01315218E0
:1052F000D2B2DEE721170020002330B50E4AD15C80
:10530000C9B2002913D11C2B08DC02243525D45442
:105310005C1C15559C1C03331055D1540222074BBD
:105320001A7033325A7000229870DA7030BDD15C36
:1053300001315B18DBB2E2E721170020B81700202B
:1053400010B5104B00280AD0802290219BB2520247
:105350001343C905CB60CB681342FCD110BD0421B7
:1053600098789A789CB28A439A708022902152024F
:105370001443C905C0B2CC60CC681442FCD198700B
:10538000ECE7C046B8170020012330B5234A0324B8
:10539000117A85B00B4313720022214B1A60FFF77C
:1053A000EBFA6B46033318701A78002A03D1013CDC
:1053B000E4B2002CF3D11A78052A2BD91B780B2BD9
:1053C00010D001AC2000FEF7C9FA6278A378120170
:1053D0001A43144B1B681B070AD4112A02DD012053
:1053E000FFF7AEFF0122104B1A70FCF792FAFEE7AE
:1053F00090250E4CED0528692368283B1B1A1B02DB
:10540000002BEFDD112A02DD0120FFF799FF236851
:105410006B60E7E7012005B030BDC04600002040CA
:1054200014000020C00000200C0000201800002004
:1054300070B5FFF7A9FF012817D1002314481549BB
:10544000154C1A188A4216D3002314481449154CD7
:105450001A188A4213D30021134B144A934212D3D1
:105460000021134B134A93420FD3134B83F3088845
:1054700000F012FA70BDE55804331560E1E7E55815
:1054800004331560E4E702C3E8E702C3EBE7C04674
:10549000E01700209818002004560610080000208D
:1054A00034000020D8550610C0000020CC02002097
:1054B000CC020020E01700200060002070B58AB008
:1054C00003AC06000D0019224149200000F099FBB1
:1054D0006846FEF743FA002E60D044233D4AA3738A
:1054E000117A433B0B4313724C23E3722C3B237220
:1054F00092336374573B2375374B384A1B68190C3A
:10550000914208D17020E17D1B018143E175E17D6D
:1055100003400B43E375324B1B68190C914208D1D1
:10552000302061791B0181436171617903400B4334
:1055300063712C4B1B68190C914207D10321E27D4A
:105540000B408A43E275E27D1343E3750422E37A5C
:1055500069469343E3726B465B78897893400B43CB
:10556000112B06DDE37D1A43E275E07DC0B2FFF743
:10557000C3FE802390222404240C5B021C43D2052A
:10558000D460D1681942FCD16B466A465B78927848
:105590001B011343112B01DDFFF788FE124B1A8B01
:1055A000002AFCD001221A8316329A8100221A6145
:1055B000954207D090231021DB0518691A694240F3
:1055C0000A42FBD0094A0A4B1A600AB070BDC046B5
:1055D0009C4F061000002040E807001055AA00006C
:1055E000E4070010B007001000001048CCBCECFC31
:1055F000140000200822C021F8B53F4B3F4D9A808F
:105600003F4A0904136AFF202B400B43C021136259
:10561000136A09061B021B0A0B431362C022920085
:105620009446384B64469A58374E82433F3802437B
:1056300060461A501A58C0203240000202431A51E4
:10564000C122FF2792009C58BC433F3F3C439C50E3
:105650009C583F37344004439C509C582C409C50ED
:105660009C582402240A0C439C50083294466446F9
:105670009A58324002431A511A59C0242A4024042D
:10568000224364461A511A591202120A0A431A5145
:10569000C4229200944664469A58324002431A51FA
:1056A0001A59C0242A402404224364461A511A5924
:1056B0001202120A0A431A51C52292009C58BC4396
:1056C0002700C0242743C0249F509F5824043E40F5
:1056D00030439850985805402C439C5098580002ED
:1056E000000A0143995001210800FFF7E7FE074A2D
:1056F000074B1A6262B6F8BD00001040FFFF00FFC2
:1057000000ED00E000E100E0FF00FFFF66000E009A
:10571000000090401FB50421012001F0AEFA011EE7
:1057200003D0134800F090FAFEE701F0A2FA011E40
:1057300015D0104800F088FA0E236B44019303AB98
:1057400000930A2300216B440822012001F058FA3B
:10575000011E08D0084800F077FA05B000BD0748E0
:1057600000F0ECFAE8E7064800F0E8FAF5E7C04692
:10577000705106109F510610DE510610C1510610DF
:10578000FF51061013B50400802001214000FFF7EF
:10579000E7F8802001214002FFF7E2F80020FEF741
:1057A0008FFE00211848FEF721FF0020FEF770FE53
:1057B0008022164B1204DA670420FEF72DFF022028
:1057C000FEF72AFFFEF714FE0F48FEF7B7FE002192
:1057D0000120FEF715FF0120FEF782FE0120FEF7F3
:1057E0008FFE052C0ED100236A4669461370547053
:1057F000022268460A71CA708B70FEF701FE012012
:10580000FEF746FE13BDC046080000A004E100E01C
:1058100037B501210800FFF7A3F86846FEF7A7FF98
:105820006A4606230025137180240123684695717A
:1058300053710094FEF72CFF29002000FEF7A5FF0E
:1058400037BD0121F0B5080087B0FFF789F80024C3
:105850006B466A4601271C700223802601AD68460C
:1058600053709770FFF7D4F92800FEF780FF3601D8
:1058700028002C716C710196AC71FEF709FF03A82A
:10588000039604970594FEF788FF39003000FEF771
:10589000AAFF07B0F0BD000070B590B0FFF7AAFEF8
:1058A000FFF7DCFBE1204002FFF715FB0120FFF7CB
:1058B00040FB5D4801F02AFA041E04D001005B4859
:1058C00000F0C2F9FEE70520FFF75CFF2000FFF7BC
:1058D000C6FC0120FFF7C3FC0220FFF7C0FCFFF766
:1058E00019FFFFF795FF5248FFF7BEFB210020008C
:1058F000FFF78CFA21002000FFF79EFA012120001B
:10590000FFF7B0FA01212000FFF7C3FA21002000C1
:10591000FFF758FA02212000FFF73EFA402120004D
:10592000FFF712FA01212000FFF7E6F9210080209D
:10593000FEF72BFF0B250120FEF7AAFD0420FEF742
:10594000EBFD0028FAD0FEF7EFFD022100B2FEF7D2
:1059500043FD384B013D041C1860002DEBD1364946
:10596000FCF7AEF8354D002834D03549201CFCF743
:1059700077FCFCF795FD0100324800F065F9012342
:1059800002202B70FFF75DFC1E222F4908A800F0B3
:1059900038F90021080004F09EF8041E1DD0010013
:1059A0002A4800F051F92A492A48802600F04CF98B
:1059B000360101F067F92C78E4B2002CF9D13000FF
:1059C000FEF7DBFE01282AD1220004210230FEF777
:1059D00009F8EEE7FFF735FFD6E71F4800F0AEF90C
:1059E000A022069411000594049403940294019457
:1059F00000942300032001F01BF9011E1748D0D1A9
:105A0000174800F09BF908A91E2004F059F8011E60
:105A100001D01448C5E7144800F090F9C3E7042208
:105A200003201100D3E7C0463C5106101B5206105C
:105A3000801A06004417002000005040481700203C
:105A400000007A444C520610B54F061068520610FA
:105A50006F5306107553061096520610BF5206106B
:105A6000EC520610145306104453061010B5FFF7FD
:105A70006FFA002804D1FFF773FA0323002800D03F
:105A80000023180010BD7047FEE7704710B5FDF702
:105A90005DFF10BDF0B58024240185B02000FEF725
:105AA000B3FE00281DD02000FEF7A8FE0021200034
:105AB000FEF799FE2000FEF760FE214D061E12D172
:105AC00004F086F82860012501A801940295039549
:105AD000FEF763FE20002900FEF785FE3000FFF789
:105AE000B0FB05B0F0BD0126002701A80194029685
:105AF0000397FEF752FE3800FFF7AAFB0220FFF7DC
:105B0000A7FB31002000FEF76EFE04F061F8296863
:105B100004F058F80B4C206021680B4800F094F812
:105B200022680A4B9A4202D9FFF7C8F8D9E7BFF3B7
:105B30004F8F074A074BDA60BFF34F8FFEE7C0462F
:105B4000501700204C170020A653061088130000A1
:105B50000400FA0500ED00E070B51020FFF73AF8F8
:105B600000282CD01020FFF73FF8174C2678FFF7BD
:105B70001DF8164DC0B2F6B2A8552378DBB2E85C2A
:105B8000FFF70CF82378DBB2EB5C0D2B10D1002370
:105B9000112229000E48237000F0DAF8002801D104
:105BA000FFF78CF814220021280000F045F806E0E9
:105BB0002378122B04D823780133DBB2237070BD15
:105BC000002114222170EFE754170020C81700208D
:105BD000B753061010B504F02BFD10BD10B500F042
:105BE00019F810BD30B50024A24201D1002005E013
:105BF000035D651C0C5DA34201D0181B30BD2C0059
:105C0000F2E7002310B59A4200D110BDCC5CC45419
:105C10000133F8E710B5884202D98B18984208D3AF
:105C200000239A4207D0CC5CC4540133F9E78B5C63
:105C30008354013AFBD210BD03008218934200D175
:105C4000704719700133F9E70FB40B4B13B51C689B
:105C5000002C05D0A369002B02D1200000F04EFAE1
:105C600005AB049AA1682000019300F019FC16BC52
:105C700008BC04B01847C0463418002070B50500B1
:105C80000E00002804D08369002B01D100F036FA01
:105C9000AB69AC68002B02D1280000F02FFA244B2E
:105CA0009C420FD16C68A3891B0702D52369002B86
:105CB00020D12100280000F0B3F800281AD00120DC
:105CC000404270BD1B4B9C4201D1AC68EBE71A4BC4
:105CD0009C42E8D1EC68E6E7013B0136A360002B6B
:105CE00004DAA269934216DB0A2914D023685A1CED
:105CF000226019703178A3680029EDD1013BA360BF
:105D0000002B0FDA22000A31280000F033F8431C80
:105D1000D5D00A20D5E72200280000F02BF8431C3C
:105D2000E8D1CCE70A2023685A1C22601870C8E723
:105D3000F053061010540610D053061010B5034B44
:105D400001001868FFF79AFF10BDC0463418002004
:105D5000002330B59A420AD0013AC45CCD5CAC4213
:105D600004D19A4202D00133002CF6D1631B1800F3
:105D700030BD0000F8B505000E001400002804D066
:105D80008369002B01D100F0B9F9224B9C422DD13F
:105D90006C68A369A360A3891B0731D52369002B15
:105DA0002ED023682269F7B2981A6369F6B2984236
:105DB00005DB2100280000F033F9002826D1A36874
:105DC0000130013BA36023685A1C22601F70636985
:105DD000984204D0A389DB071AD50A2E18D12100D6
:105DE000280000F01DF9002812D00FE00A4B9C4259
:105DF00001D1AC68CDE7094B9C42CAD1EC68C8E739
:105E00002100280000F00CF80028CAD001267642B4
:105E10003000F8BDF053061010540610D053061091
:105E2000364B70B51D6806000C00002D05D0AB691F
:105E3000002B02D1280000F061F9314B9C420FD1B8
:105E40006C680C23E25E93B219072DD4D90611D4E5
:105E500009230120336037331343A381404270BDCF
:105E6000284B9C4201D1AC68EBE7274B9C42E8D120
:105E7000EC68E6E75B0713D5616B002908D02300C7
:105E80004433994202D0300000F03AFA00236363B1
:105E90002422A3899343A3810023636023692360A1
:105EA0000823A2891343A3812369002B0BD1A021CE
:105EB0008022A389890092000B40934203D02100E5
:105EC000300000F0D9F90123A289134011D000233A
:105ED000A36063695B42A361002023698342BED152
:105EE0000C23E25E1306BAD540231343A381013885
:105EF000B5E7920700D46369A360EDE7341800208A
:105F0000F053061010540610D0530610F7B58A89C6
:105F100005000C00130760D44B68002B04DC0B6CED
:105F2000002B01DC0020FEBDE76A002FFAD0002321
:105F30002E682B6080235B011A4034D0606DA389EA
:105F40005B0706D56368C01A636B002B01D0236C16
:105F5000C01A0200216A00232800E76AB847A18915
:105F6000431C06D12B681D2B31D82C4ADA40D307AD
:105F70002DD50023636023692360CB0405D5431C22
:105F800002D12B68002B00D16065616B2E60002967
:105F9000C8D023004433994202D0280000F0B0F961
:105FA00000206063BFE70123216A2800B847431C33
:105FB000C5D12B68002BC2D01D2B01D0162B01D1CF
:105FC0002E60AFE74023A2891343A381ABE74023B0
:105FD0000B430120A3814042A5E70F69002FA1D008
:105FE0000B680F60DB1B01930023920700D14B6904
:105FF000A360019B002B00DC94E7019B3A00216A1F
:106000002800A66AB047002803DC4023A289134376
:10601000DFE7019B3F181B1A0193EAE701004020CC
:106020000B6970B505000C00002B01D1002070BD7C
:10603000002804D08369002B01D100F05FF80B4BDE
:106040009C4209D16C680C22A35E002BEED021008B
:106050002800FFF75BFFEAE7054B9C4201D1AC68E3
:10606000F1E7044B9C42EED1EC68ECE7F0530610EC
:1060700010540610D053061010B5024900F0B2F8C3
:1060800010BDC04621600510002310B50400036058
:106090004360836081814366C281036143618361A0
:1060A000190008225C30FFF7C7FD054B24626362CC
:1060B000044BA362044BE362044B236310BDC04650
:1060C0000D6A0510356A05106D6A0510996A05108C
:1060D00070B568254A1E55430E002900743100F042
:1060E00059F9041E08D000212A00016046600C30D6
:1060F000A0606832FFF7A0FD200070BD836913B572
:106100000400002B28D18364C3640365134B144A35
:106110001B6882620193984201D1012383612000B0
:1061200000F020F86060200000F01CF8A060200063
:1061300000F018F80022E06004216068FFF7A4FF77
:1061400001220921A068FFF79FFF02221221E068C7
:10615000FFF79AFF0123A36113BDC046CC5306107D
:1061600079600510F8B51E4B07001E68B369002B57
:1061700002D13000FFF7C2FF4836B4687368013BB4
:1061800004D53368002B07D03668F6E70C22A55EED
:10619000002D0DD06834F2E704213800FFF798FF96
:1061A00030600028F0D10C2304003B602000F8BDD3
:1061B000012320005B42E3810233A38165662560F1
:1061C000A560656025616561A561082229005C30D4
:1061D000FFF732FD6563A563A564E564E6E7C046A5
:1061E000CC530610F7B5040007000026019148348F
:1061F000002C01D13000FEBD6368A5680093009BB0
:10620000013B009301D52468F2E7AB89012B08D943
:106210000E22AB5E013304D029003800019B984761
:1062200006436835EBE7000070B50E001D000E2335
:10623000C95E90B01400002907DA00232B60B389EF
:106240001B0611D48023DB000FE001AA00F050FCF4
:106250000028F2DBF022029B12021340054A9B1831
:106260005A4253412B60EDE740230020236010B0D9
:1062700070BDC04600E0FFFFF7B502268B89050020
:106280000C00334206D023004733236023610123EF
:106290006361F7BD01AB6A46FFF7C6FF00990700CF
:1062A000280000F077F8002808D10C22A35E9A0598
:1062B000EFD4032293431E43A681E4E70F4BAB6266
:1062C0008023A28920601343A381009B2061636126
:1062D000019B002B0DD00E23E15E280000F01AFC7C
:1062E000002806D00322A38993431A0001231343F5
:1062F000A381A0893843A081CBE7C046796005100F
:1063000070B50500002910D00C1F2368002B00DA9F
:10631000E418280000F02FFC1D4A1368002B05D15B
:1063200063601460280000F027FC70BDA34209D907
:10633000216860188342F3D118685B6841182160B6
:10634000EEE713005A68002A01D0A242F9D9196871
:106350005818A0420BD120680918581819608242B9
:10636000E0D110685268411819605A60DAE7A0421B
:1063700002D90C232B60D5E721686018824203D133
:10638000106852684118216062605C60CAE7C046CC
:1063900058170020032370B5CD1C9D430835060017
:1063A0000C2D1ED20C25A9421DD8300000F0E3FBB5
:1063B000254A14682100002919D1244C2368002B98
:1063C00003D1300000F010FB20602900300000F005
:1063D0000BFB431C2CD10C233000336000F0CCFBB2
:1063E00003E0002DDFDA0C233360002070BD0B6862
:1063F0005B1B1AD40B2B03D90B60CC18256003E070
:106400008C420ED163681360300000F0B5FB2000B1
:1064100007220B30231D9043C31AE7D05A42E250A3
:10642000E4E74B6863600C00EEE70C004968C2E7E4
:106430000323C41C9C43A042E0D0211A300000F08A
:10644000D3FA431CDAD1C6E7581700205C170020A6
:10645000936810B5013B9360002B05DA9469A34261
:1064600008DBCBB20A2B05D01368581C10601970DA
:10647000C8B210BDFFF77EFCFBE7F8B506000F00C1
:106480001400D518AC4201D1002007E021783A0071
:106490003000FFF7DDFF0134431CF3D1F8BD0000ED
:1064A000F0B59FB006000F0014000593002804D03B
:1064B0008369002B01D1FFF721FE7F4B9F425CD106
:1064C0007768BB891B0762D53B69002B5FD000232F
:1064D00006AD6B6120336B761033AB760294029C71
:1064E0002378002B5DD1029BE31A04930DD0049B0B
:1064F000029A39003000FFF7C0FF431C00D1CCE006
:106500006A69049B944663446B612378002B00D135
:10651000C3E00122002352426A6002A95432521899
:1065200001342B60EB60AB601370AB652178052202
:10653000624800F015FB631C9C46002835D1296891
:10654000CB0604D5532302AA20309B1818700B07E2
:1065500004D553232B2002AA9B18187023782A2BCA
:106560002CD000200A21099B2278303A092A00D831
:106570006BE000282AD0099328E0514B9F4201D1BB
:10658000B7689EE74F4B9F429BD1F76899E7390068
:106590003000FFF745FC002899D0012040421FB091
:1065A000F0BD252B9FD001349AE7444B2968C01ACF
:1065B000012383400B432B606446B7E7059B181DFE
:1065C0001B680590002B3ADB0993644623782E2B39
:1065D0000BD16378621C2A2B3FD1059B02341A1D14
:1065E0001B680592002B35DB079321780322364880
:1065F00000F0B6FA002807D0334B2A68C01A4023AF
:10660000834013432B6001342178631C06222F48FA
:106610000293297600F0A4FA002844D02C4B002BDA
:106620002FD12968059B0722C90528D59B189343BC
:10663000083305936B69039A9B186B614FE75B42C4
:10664000EB6002230B432B60BFE74B4301349B18E5
:10665000012089E701235B42C6E7002314000A20DA
:106660001A006B6021783039092903D9002BBCD07E
:106670000792BAE74243013452180123F2E7073385
:10668000D5E705AB00933A00124B2900300000E03B
:1066900000BF0390039B0133CCD1BB895B0600D5BF
:1066A0007BE70B987BE705AB00933A00094B290089
:1066B000300000F07FF8ECE7F0530610305406107D
:1066C00010540610D0530610365406103A540610D3
:1066D000000000007B640510F7B5150001938A687F
:1066E0000B6900900C00934200DA130022002B602B
:1066F00043321278002A01D001332B6023689B06B5
:1067000002D52B6802332B60062723681F4027D051
:10671000230043331B785A1E93412268920630D4DB
:106720002200019943320098089EB047431C25D0AF
:10673000062320682A68E16803400025042B03D162
:106740008D1AEB43DB171D40A3682269934201DDDC
:106750009B1AED180027BD4220D1002010E0013720
:10676000E3682A689B1A9F42D2DA22000123193279
:1067700001990098089EB047431CF0D10120404287
:10678000FEBD3020E1184331087021005A1C45310C
:106790000978A218433202331170C1E722000123A5
:1067A0001A3201990098089EB047431CE6D0013781
:1067B000D1E70000F0B58BB006920A004332079390
:1067C000059004920A7E0C00109B6E2A00D18FE087
:1067D00017D8632A2CD008D8002A00D199E0582A6B
:1067E00054D026004236327029E0642A01D0692A4A
:1067F000F7D121681A68080623D5111D196015689C
:1068000025E0732A00D188E008D86F2A29D0702AA1
:10681000E7D1202209680A43226003E0752A20D0CC
:10682000782ADED122007821453211706C4A30E09E
:106830000E001A684236111D196013683370012367
:1068400079E04906D9D5111D19600023D55E002DC8
:1068500003DA2D23049A6D421370624B0A270393C7
:106860002FE020681968050603D5081D18600D681B
:1068700005E04006F9D50D68081D1860ADB2594B0A
:10688000082703936F2A18D00A2716E045310A70AB
:10689000544A03921A682168101D1860156808068A
:1068A00022D5CB0702D52023194321601027002DC4
:1068B00003D1202322689A4322602300002243331D
:1068C0001A706368A360002B5CDB0422216891438B
:1068D0002160002D58D1049E002B64D02600039B1C
:1068E00042361B7833705EE04806DAD5ADB2D8E7A1
:1068F00009681A68080605D5111D196013686269D0
:106900001A6006E04906F7D5111D19601368A28ABE
:106910001A800023049E236154E01A68111D196037
:10692000166800216268300000F01AF9002801D0D2
:10693000801B6060636823610023049A137041E048
:106940002369320006990598079DA847431C43D048
:10695000236800259B070FD4099BE06898423DDA25
:1069600018003BE022000123193206990598079E82
:10697000B047431C30D00135E368099A9B1A9D4209
:10698000F0DBE9E7002DA9D0049E28003900FBF7D1
:106990006BF8039B013E5B5C280033703900FAF70B
:1069A000DDFF051EF1D1082F09D12368DB0706D5CD
:1069B00063682269934202DC3023013E3370049BFA
:1069C0009B1B2361079B09AA00932100069B059846
:1069D000FFF782FE431CB3D1012040420BB0F0BD53
:1069E0005254061041540610002370B5064C0500A1
:1069F00008002360FEF7DAFA431C03D12368002B5A
:106A000000D02B6070BDC046DC17002070B50C00B4
:106A10000E25495F00F0B2F8002803DB636D1B18F8
:106A2000636570BDA389024A1340A381F9E7C0469C
:106A3000FFEFFFFFF8B51F008B8905000C00160063
:106A4000DB0505D50E23C95E0022022300F074F891
:106A5000A389054A28001340A38132000E23E15E7A
:106A60003B0000F01FF8F8BDFFEFFFFF70B50C0012
:106A70000E25495F00F060F8A389421C03D1054A46
:106A80001340A38170BD802252011343A38160652E
:106A9000F8E7C046FFEFFFFF10B50E23C95E00F018
:106AA00015F810BD70B50500080011000022064C55
:106AB00022601A00FEF7A4FA431C03D12368002BBE
:106AC00000D02B6070BDC046DC170020002370B5DD
:106AD000064C050008002360FEF786FA431C03D12C
:106AE0002368002B00D02B6070BDC046DC1700204F
:106AF000002370B5064C0500080011002360FEF766
:106B000076FA431C03D12368002B00D02B6070BDA4
:106B1000DC170020002370B5064C05000800236038
:106B2000FEF76AFA431C03D12368002B00D02B60C8
:106B300070BDC046DC17002070B5050008001100CC
:106B40000022064C22601A00FEF758FA431C03D1BB
:106B50002368002B00D02B6070BDC046DC170020DE
:106B6000C9B28218904201D10020704703788B424D
:106B7000FBD00130F6E770477047000070B50500A4
:106B8000080011000022064C22601A00FEF746FAA7
:106B9000431C03D12368002B00D02B6070BDC0467E
:106BA000DC170020F0B5054600200F46079E059C27
:106BB000174309D0202905D30127BF03BA4201D8C2
:106BC000914201D94220F0BD194621430AD09C428E
:106BD000F8D309498C4203D00849A41F8C42F1D252
:106BE000062BEFD3002D03D0022D01D0032DE9D1C8
:106BF000032EE7D8F0BD0000FFFF00007B0C000073
:106C00007CB5069D079C002805D0860705D1460760
:106C100003D4060701D442207CBD002903D00129FA
:106C200001D00229F7D10095019400F05FFA7CBDF4
:106C3000FFB587B0109D159E169C01930295009498
:106C400007A807C81F463346FFF7ACFF00280ED140
:106C50001398149903AA069443C2119812990190AB
:106C60000095029107A807C83B4600F09DFB0BB0BA
:106C7000F0BD10B501F0D6FD10BD10B502F0DAFD83
:106C800010BD000010B503F039F81E4C47212068F4
:106C900049014118097B002909D1A0300079C007BA
:106CA00029D002F0C7FE02F077FE0BF0BBF800F02F
:106CB00003F92068014640310A78C9798A4319D11D
:106CC0003E21095C002915D10F490A88120711D508
:106CD0000922D2061269497A836AC9005918092320
:106CE0001B02C018806D801A00020012814201DA76
:106CF00008F05EFA10BD00F037FB01F02DFC09F042
:106D00007DF9D0E728180020C000002010B5837F4F
:106D10000122002492024168082B03D942249142A7
:106D200002D310E0914201D242240CE00146342209
:106D30000648FCF74AFE00F07FF8002801DA4824F4
:106D400001E000F029F9204610BD0000CC0200202F
:106D50003EB5174D15482968827F0846A0310A7351
:106D600000246030047644768476E122C276802264
:106D7000027702224277302008704C7002AA01A9E3
:106D80006846FCF711FE68460078A22201016846B9
:106D9000007A891C00020143684600790003014320
:106DA00028681152A03004713EBD0000CC020020C2
:106DB0002818002070B502F085FF07F08BFD06F063
:106DC0007FFC0BF04FFE03F053F9184C1849206874
:106DD000184D4018811001202A68C0021018C166A1
:106DE000616889080167A168890841670AF00AFAA1
:106DF0001D2029688001228B08180287628B428738
:106E0000A28B4286628C82862046203002783B200C
:106E10004001081882750021017000F065FA02F047
:106E2000C9FD02F051FD0BF083F870BDCC020020CB
:106E30000000FCEF2818002070B50025ED4302F09B
:106E4000F6FD01282ED0002318490322888BFF2449
:106E5000401E10438A7F4D3462438218088B2824D9
:106E600060431218488B30246043121808462030C3
:106E700040782C24604310180D4A1818841848696B
:106E8000A0420DD10B4884420AD90D6902F0CFFD12
:106E9000C1B2284605F098F905F0C6FA401B251A3C
:106EA000284670BDFF23B533CEE70000CC0200209A
:106EB00039190000580A0000F8B52C4F3C68206EC4
:106EC0005C34401C002814D0002529480023C07BD6
:106ED00000283ED00926F6062648002D1CD00021A9
:106EE0000A460B464169521C994204D1002902D03E
:106EF00004E00125E9E7204B9A42F2D321600069C2
:106F000060603069A1680002090E000A09060143A9
:106F1000A16000F033F81DE03169A2680902090A96
:106F2000150E08D0018BC90712D041692160006994
:106F30006060E37210E0881A00027D2300121B03D8
:106F4000984205DD100E00060843A06000F016F818
:106F5000F8BD6360002DFBD003CC08F059F8FA208F
:106F600008F046F839688862F8BD0000281800204B
:106F7000EC020020000010488813000004490020A3
:106F800008610448012100686030C1717047000049
:106F90000000104828180020F8B506263248402581
:106FA0000560324800270780A9050920C006416016
:106FB0002F4A9160016801602E48032104694269EB
:106FC000601E08433946401CFCF703FD02F02FFD0C
:106FD000C1B2204605F0F8F805F026FA05F030FABF
:106FE00004F0D2FA244917208881244C20684219E1
:106FF00001465770FA2088622820107002F015FDB3
:10700000012805D120681022403001781143017019
:107010000AF0EEFE012805D1206880224030017878
:1070200011430170206801464030027832430270FB
:107030000020C0430866FDF788FCFFF789FEFFF7D4
:10704000B9FE206801212030017707214177012016
:1070500002F0F0FB04F0FCFAFFF72EFF0248803844
:10706000056002210160F8BD80E100E0C000002061
:1070700040000048CC0200200000104828180020E2
:1070800038B5184A14682246BA32AE34A378DD0700
:1070900001D001290AD05B070CD501290AD021793A
:1070A00049070BD5E17A002905D007E0E078802177
:1070B0000843E07038BD0121E1725080207941061B
:1070C000090FF7D078210840694608700020487001
:1070D0006A460221422000F0A9FA2079872108405F
:1070E000207138BD2818002070470000FFB50C46FD
:1070F00078A103C995B001910090002108A80173FF
:107100000321C90268464186012108A8734E017413
:1071100035681746AE350DF007FD002808D17049D7
:107120003068401806F0AEFDA878002802D046204E
:1071300019B0F0BD0BA8159900F052F90028F7D14D
:10714000072010A90871012C05D0022C0AD0002CB0
:107150000ED04220ECE708A8017B1020014308A8CC
:10716000017305E011A90BA800F049F90028DFD14F
:1071700010A8027901230CA9284601F0CDF80028B7
:107180007ED1022229461898FCF71FFC2988684600
:1071900081811521490201820784012686734E21CF
:1071A00008A881700024C47006710721417186719E
:1071B00003A902A800F06AFE002861D1022202A9F8
:1071C0001E98FCF702FC082F02D26846478502E0B1
:1071D00008206946488569460C850B4628880AAA16
:1071E000098901F0C3FD00286DD13E49684601823E
:1071F0000227078408A8847103A902A800F046FEAC
:10720000002860D1022202A91F98FCF7DEFB684625
:107210000470694644704F850B4628880AAA09897C
:1072200001F0A4FD00284ED108A8007BC00723D0A0
:107230002C496846C91C01820821018408A887706E
:10724000047103A902A800F021FE00283BD1FF2110
:107250006846C1718171C170817041700170447163
:1072600004716946082048850B4628880AAA0989BE
:1072700001F07CFD002826D108A8007B800600E0F4
:1072800021E022D52988684681811649A5310182ED
:107290000684867308A88770C47004710721417141
:1072A000847103A902A800F0F1FD00280BD1694602
:1072B0000E700C854E850B4628880AAA098901F0B4
:1072C00055FD002801D0472032E708A8007BA870B0
:1072D00000202DE7626C75656E726721281800200A
