:020000041004E6
:1000000000600020517D0410456A041081490410ED
:10001000DDCCBBAA45554C420000000000000000AA
:100020000000000000000000000000008D9504109A
:100030000000000000000000F9750410B9980410D9
:10004000D12E0410A16A041000000000000000007E
:10005000DD9C041075950410ED120410459E0410EB
:100060000000000000000000000000000000000090
:1000700000000000D9020410B1490410994904108D
:100080000000000055650410716504108D650410B2
:10009000A9650410717D0410857104108118041085
:1000A0000000000000000000000000000000000050
:1000B0000000000000000000000000000000000040
:1000C000EFF31482EFF309811C4880F31488BFF327
:1000D0006F8FF0B543464C4655465E466746F8B4CA
:1000E000174CEFF30883236006B4164C2068164CB7
:1000F0002060164C2068164C2060164C2068164C68
:100100002060164C276800202060BFF34F8F30BF5F
:1001100027600B4C246884F3088882B003BCF8BCC9
:100120009846A146AA46B346BC46F0BC04BC80F340
:10013000098881F31488BFF36F8F10470000000017
:100140000800002004ED00E02403002024ED00E07E
:100150002803002000E200E02C03002008002040DB
:100160000348854600F07AF80048004791EA0410F9
:100170000060002030B50B460146002020220124FB
:1001800009E00D46D5409D4205D31D469540491BCB
:100190002546954040191546521E002DF1DC30BD14
:1001A00070B500242546002801DA012440420029C8
:1001B00001DA01254942FFF7DDFFAC4200D04042A1
:1001C000002C00D0494270BD10B5441A0346944239
:1001D00009D28318891803E0491E0C785B1E1C7035
:1001E000521EF9D210BD0C460443A40703D009E007
:1001F00010C9121F10C3042AFAD203E00C781C7035
:10020000491C5B1C521EF9D210BDD2B201E0027033
:10021000401C491EFBD270470022F6E710B513467A
:100220000A4604461946FFF7F0FF204610BD30B5D8
:1002300004460020034600E05B1C934203D2E05CCE
:10024000CD5C401BF8D030BD0321001D401E03785B
:1002500012021A43491EF9D510467047064C012573
:10026000064E05E0E36807CC2B430C3C984710345E
:10027000B442F7D3FFF778FFA80E0510380F05102A
:1002800070B58C180578401C6B075B0F01D10378A3
:10029000401C2A1106D10278401C03E006780E703B
:1002A000401C491C5B1EF9D12B0705D40023521EAC
:1002B0000DD40B70491CFAE70378401CCB1A921C32
:1002C00003E01D780D70491C5B1C521EF9D5A1423C
:1002D000D8D3002070BD000003480449006888425C
:1002E00001D0406F0047FEE710000020000004101E
:1002F00030B5104D8BB02878002818D00EA00FC84C
:1003000007AC0FC4104912200CF0DAFE002407A835
:100310000E21069405940191029003940494012304
:1003200022460094214620460AF008FB2C700BB0B0
:1003300030BD000037030020094F544153657276E9
:100340006963654D67720000D40200207FB50546E1
:100350009868012202739A681C46517398680222B9
:1003600002A90E3006F006FFA16805200D74E0809A
:100370007FBD70B5064608881D460C46001D81B23B
:1003800013460222304607F05DF821882B46891C6F
:100390002180091D89B20222304607F053F82088D7
:1003A000801C208070BDFEB500240E4627460568DF
:1003B00045E028680290A968022230460D3106F017
:1003C000D9FE3088B84209D087B2384603F040FAE7
:1003D000014601AA384604F0B7F8019CA968022238
:1003E00068460F3106F0C6FEE888401F81B2222021
:1003F000005D002806D001280BD0002811D001286C
:1004000014D01BE0E08B6A461288401E904206D34F
:1004100007E0208C6A461288401E904206D20720D0
:10042000FEBD684600880818E18B03E06846008836
:100430000818218C884201D90D20FEBD029D002D97
:10044000B7D100203080FEBDFFB5C8880025401E12
:1004500083B00E4687B2012427E0B068022208303C
:1004600001196846091D06F085FE6846008803F0FC
:10047000EFF901001DD068460A8D0088824212D033
:1004800001AA04F061F800280DD101992620405CF2
:10049000400708D506986A00101802221C3106F0A1
:1004A00069FE6D1CADB2A41CA4B2BC42D5D30C989D
:1004B000058007B0F0BDFFB5074683B0002000906F
:1004C0000D9803F0C5F9054606980C300190002DF3
:1004D00026D00837BD4223D0288D0E9988421FD8D8
:1004E0000D99884213D30E99884210D829460222CA
:1004F0002A31019806F03EFE10220C99069806F06B
:1005000035FE002809D0298D0E98814208D02E464C
:100510002C6A2036B442DDD03EE0059800210180EF
:1005200007B0F0BDA08B0D99884234D30E99884254
:1005300034D8204620300290C078012808D02046C8
:10054000083010220C9906F011FE002808D022E095
:10055000214602220831019806F00CFE0698F0E7C9
:1005600002988079400716D50098002801D1E08BC9
:100570000090E18B814211D1059802220088410050
:100580000498081821461C3106F0F4FD05980599D9
:100590000088401C08802468B442C3D12D6899E7C4
:1005A00006480021026805204002101801734173BB
:1005B00003218173C1730020704700008003002075
:1005C00070B50D4D044611212868C90140189026C8
:1005D00001231A46C06F31460AF076F8010003D0B5
:1005E00030464C600AF05CF8052029684002091882
:1005F000087B401C087370BD8003002010B50446C2
:1006000000202082A074A168A16161612060204661
:1006100005F08AFA452801D0412010BDA0880321A9
:100620000CF0C8F904460CF0E5FE002812D072B6B2
:100630000948012201684F20400109184879A24069
:100640001043487162B600200EF0FAFE002801D077
:100650000BF00AF8002010BD8003002070B5C17CAB
:100660000E4D4906490EC174044611212868C9017E
:100670004018902601230022C06F31460AF024F86A
:10068000010003D030464C600AF00AF805202968C2
:1006900040020918487B401C487370BD800300204D
:1006A00010B508F07FFF002803D108F085FF00286F
:1006B00001D0002010BD032010BDF8B516460D4630
:1006C0000746002408F070FD002806D0324629466F
:1006D000384601F061F8044604E0203568790028C6
:1006E00002D00E242046F8BD2879C10701D1012E81
:1006F00009D0810701D4022E03D04007F2D4042E82
:10070000F0D10324EEE70224ECE77EB5044616465A
:100710000D46684603F0DCFF684603782370407896
:1007200028706846807830707EBD000070B500216A
:100730000C4A03E0535C491C5918C9B2535C002BA6
:10074000F8D1CE1C02243525202E04D25454511841
:100750004D708870CB7004490C704D708870CB70F0
:1007600070BD0000A40A00203003002010B509F07D
:100770007FF91E4C4721206849014118097B002957
:1007800009D1A0300079C00729D00CF035FB01F069
:1007900069F801F063FB00F0DFFC2068014640319E
:1007A0000A78C9798A4319D13E21095C002915D1FB
:1007B0000F490A88120711D50922D2061269497A0F
:1007C000836AC900591809231B02C018806D801A5A
:1007D00000020012814201DA0AF09AFE10BD02F016
:1007E000B5FA03F08FF808F0CBFAD0E780030020C9
:1007F000C0000020F3B5FFB090B0044601A803F09C
:1008000067FFFE48007A0590FD4880880890FD4803
:1008100000685290FC4E002081008B191B68401C20
:1008200053AAC0B253500828F6D3F848006A519032
:10083000F748006A50900120800701684F91416895
:100840004E9181684D91C1684C9101694B9141690C
:100850004A9181694991C1690491C16A4891016BCA
:100860004791406B4590EB48008B4490E94820301D
:1008700040684690E848C1684391017F4291E6494B
:10088000203189884191E4492031097A4091E24937
:100890002031097B3F91006B3E90DF482030007D86
:1008A0003D90DD482030008B3C90DB484030017AA1
:1008B0003B91017C3A91017D3991017E3891007F15
:1008C0003790D548603000783690D448016835912B
:1008D00041683491017C3391017D3291CF492031BF
:1008E0000A7931920A893092C06A2F90088A0022D0
:1008F0002E90CB4811050818036891007BAD6B5012
:1009000045687DAB5D50858B7FAB5D50058C81ABC1
:100910005D50858C83AB5D50058D85AB5D50C56AA0
:1009200087AB5D504C231D5A89AB5D50056D8BAB79
:100930005D50836D521C8DA8D2B24350022AD8D389
:100940000B20000700682D90B64841682A91816805
:100950002991018A2891818A279181692691017FB5
:100960002591B0492031098A2491416B2391816BF3
:100970002291C06B2190AB484030016820914168C2
:100980001F9180681E90A84881881D9101891C9143
:10099000017C1B91017D1A91018B1991007F1890A8
:1009A000A2488188179101891691017C1591017DDA
:1009B0001491018B1391007F12909D4801692C9135
:1009C00040692B909B4801681191007A10909A48D9
:1009D000006800282ED00020009000201421974AA3
:1009E000414389184D68820063AB9D500D685BAB35
:1009F0009D508D686BAB9D50CB68401C73A9C0B2F5
:100A00008B500828EAD38120C00541680E91017BF4
:100A10000D91418B0B91018B0C91416A0A91816A76
:100A2000099100880F900320800780680790032CAD
:100A300002D008E08248CFE70920C00641680322BF
:100A40001207114341607F49002009687E4D5039EB
:100A500006917E4F296004C98300401CFA50C0B241
:100A600029601428F7D36946487989790001084339
:100A7000122804D376490020086008F065F80920A0
:100A8000C0064168734801605C4908790978012211
:100A900092071268520A4A4090437DD1012008F023
:100AA00077FFFFF70DFB002008F072FF6A4800781F
:100AB000002872D0694801210183002181810161F0
:100AC00008460699296081007A58296804C1401CAB
:100AD000C0B229601428F6D349490898888049494A
:100AE00052980860002053AA8100535889190B605E
:100AF000401CC0B20828F7D34449519808624449C1
:100B0000509808628B024F9818604E9858604D9824
:100B100098604C98D860499898614A9858614B9869
:100B20001861049898620498D8614898D8624798E8
:100B3000186345985863374944980883354946985F
:100B40002031486034494398C86042980877324859
:100B5000419A20308280409A02723F9A02733E9AF4
:100B60000A633D9901753C9901832B483B994030BC
:100B700001723A990174399901753899017637995A
:100B8000017725493698603108702448359901600D
:100B900034994160339901E037E1E5E0017432991D
:100BA00001751E49319A20310A71309A0A812F9AB3
:100BB000C2622E98088200227BAD194811050818E0
:100BC00091006E5806607DAE765846607FAE765ACC
:100BD000868381AE765A068483AE765A868485AE45
:100BE000765A068587AE7658C66289AE765A4C2705
:100BF0003E528BAE765806658DAE31E00000204047
:100C00000000104000E100E000E400E000ED00E042
:100C100000009040200000400000304000004040B4
:100C20000000A0400000F0400000D0400000E04084
:100C300000E000E000007040000C7040080000A0E0
:100C400051E5CC1A00000410D002002094030020CB
:100C500014000020180000200C00002000001048A4
:100C600071588165521CD2B2022AA6D30B2000070C
:100C70002D99016099482B994161002181612C993E
:100C8000016197482A9941602999816028990182D8
:100C9000279981822699816125990177239941635A
:100CA000229981632199C1638D4820994030016068
:100CB0001F9941601E9981608949249820310882DA
:100CC00088481D9981801C9901811B9901741A998A
:100CD0000175854A19991140018318990177834854
:100CE00017998180169901811599017414990175DC
:100CF000139911400183129901777D491198086079
:100D0000109808727B49009808607B4F00205BAD0B
:100D100014214143C919820063AEB6584E60AE58E3
:100D20000E606BAEB6588E6073AEB258CA60401C8F
:100D3000C0B20828ECD38120C0050E9941600D99FE
:100D400001730B9941830C9901830A9941620999B6
:100D500081620F99018003208007079981606748AD
:100D6000007A002854D083E0654A1068400637D4E2
:100D700011686448644B00685D6A4140634E3668A0
:100D8000B5421AD11268824203D061480068084215
:100D900013D16048012200681207054659681540C2
:100DA00011408D4209D191105A6808400A40904282
:100DB00016D04A480069800712D50921C90608697A
:100DC000554B0209D01C984204D80A691209824284
:100DD000FBD305E0514810180A6912098242FBD181
:100DE00069464879897900010843122805D3012012
:100DF00007F0AAFE4B484A490160032C05D109209F
:100E0000C006426821078A4342607FB012B0F0BD3D
:100E10004548018909292BD30189812928D890992E
:100E2000002925D002890921914302D1D969890578
:100E30001BD402891121914302D1D969490514D4E7
:100E400002892121914302D1D96909050DD4028972
:100E50004121914302D1D969C90406D40189812075
:100E6000884305D1D869800402D52549012008604E
:100E7000032C05D10920C006416822079143416037
:100E80002A4905980872032C26D00021002000F082
:100E9000D7FD0598C007B8D008F0B4FC69460870C3
:100EA00008780B2814D022480088000710D50921A3
:100EB000C90608691F4A1268101A0002001200D5FC
:100EC0004042202804DC08692D300A698242FCD99E
:100ED00019491520087098E70121D7E700E000E0E4
:100EE0000000F0400000D040BFFF00000000E040E4
:100EF00000007040000C7040080000A0000090400E
:100F000000E200E02C03002000ED00E028030020B8
:100F100000E100E024030020FFFF0F000400F0FFC9
:100F2000CCBCECFC14000020000010480000204065
:100F3000C0000020180000200000C040F7B50746A0
:100F4000EFF3108472B600261448067000F066F9BC
:100F500005463846FFF7A4FBB84200D33846854221
:100F600000D228460E4B81005A58521C5A50002875
:100F700009D001280BD00B49029A0A70019A0A7114
:100F80000199FFF737FC84F310880020FEBD064866
:100F9000017A067230BF0172F5E700000C000020F4
:100FA00084030020000020400000704010B5837FC3
:100FB0000122002492024168082B03D94224914265
:100FC00002D310E0914201D242240CE001463422C7
:100FD000064806F0CFF800F07FF8002801DA482430
:100FE00001E009F055F9204610BD0000C40A0020B8
:100FF0003EB5174D15482968827F0846A0310A730F
:1010000000246030047644768476E122C276802221
:10101000027702224277302008704C7002AA01A9A0
:101020006846FFF772FB68460078A2220101684615
:10103000007A891C000201436846007900030143DD
:1010400028681152A03004713EBD0000C40A00207F
:101050008003002070B508F0EFFC04F08FFC06F070
:1010600063F9FFF79DFA03F093FE184C18492068C6
:10107000184D4018811001202A68C0021018C1665E
:10108000616889080167A1688908416707F03EFE29
:101090001D2029688001228B08180287628B4287F5
:1010A000A28B4286628C82862046203002783B20CA
:1010B0004001081882750021017001F0BFFC03F0A7
:1010C000FFFB0AF0EFFD00F04FFF70BDC40A0020E7
:1010D0000000FCEF8003002070B50025ED430BF00D
:1010E000B9FB01282ED0002318490322888BFF2446
:1010F000401E10438A7F4D3462438218088B282497
:1011000060431218488B3024604312180846203080
:1011100040782C24604310180D4A18188418486928
:10112000A0420DD10B4884420AD90D690BF092FB05
:10113000C1B2284600F05AFD00F088FE401B251A77
:10114000284670BDFF23B533CEE70000C40A002057
:1011500039190000580A0000F8B52C4F3C68206E81
:101160005C34401C002814D0002529480023C07B93
:1011700000283ED00926F6062648002D1CD0002166
:101180000A460B464169521C994204D1002902D0FB
:1011900004E00125E9E7204B9A42F2D3216000697F
:1011A00060603069A1680002090E000A0906014367
:1011B000A16000F08DF81DE03169A2680902090AFA
:1011C000150E08D0018BC90712D041692160006952
:1011D0006060E37210E0881A00027D2300121B0396
:1011E000984205DD100E00060843A06000F070F87C
:1011F000F8BD6360002DFBD003CC0EF0C7F8FA20D9
:101200000DF036FC39688862F8BD000080030020CC
:10121000E40A00200000104888130000F8B5294DAA
:10122000002029680A4640321378D279934347D187
:101230004A6E120E44D13E22525C002A40D1431E17
:1012400021488D6A467A1A460024F600AD1909260F
:10125000F606376900887D1907070120002F06DA96
:10126000F314CB189C6D631B1B021B1228D4072799
:101270003F02C9190969CF0103D54A1B1202121294
:101280001ED401252D07002B06DA002A0ADA756024
:101290000E48856003200AE01120000604437460B4
:1012A000002A03DB2943084608F038FA02200549E2
:1012B000096840314A78002A02D000204870032093
:1012C000F8BD000080030020C0000020400000485E
:1012D0000449002008610448012100686030C171A0
:1012E00070470000000010488003002010B505483A
:1012F00005490068884202D0806D804710BD06F025
:1013000019FC10BD100000200000041070B5244925
:101310000023086802464032537613764F2252016A
:10132000821853710F22203082750522184652020E
:101330000C680546A418246B303523540C68A41897
:10134000246B63550C683035A418246B63550C6806
:10135000A418256B04469034401CC0B22B552D2890
:10136000E6D309688A18106B9060044630345460E4
:10137000903010600B480C464834038009224271BB
:1013800005238371C2710372418100F00DF8FF20C3
:1013900020706070A070E0701F20207170BD000090
:1013A00080030020C000002010B5064801680648F0
:1013B000406A002803D020220BF0E5F910BD002080
:1013C000087010BD80030020C40A0020F8B5069CF8
:1013D0001F4615460646002C13D0A06802220D3089
:1013E00005F0C8FEE81E82B23B460721204606F003
:1013F00029F8E580A068012E05D01D210173002089
:10140000F8BD4720F8BD1B21F8E770B51546064624
:10141000FFF753F90446082D0BD1052C09D13046AE
:1014200007F0C2FE002804D0008A4004800F00D0DC
:101430000024204670BD2423184204D0C81F092868
:1014400003D82032D171002070474220704700003D
:10145000F1B5FFB08BB00124600205900027CC48A5
:1014600007970168E320C000081803908A98C74DC9
:101470000005000D0AAA05A907F047FB0690002801
:1014800072D104260AA805994218203AD27F0B2A65
:1014900023D00026002004900AA88119022201A866
:1014A000029105F067FE6846818809AB08AA039897
:1014B00003F02CF8012817D002287DD068468088D8
:1014C000854200D30546844200D92046044602984E
:1014D0008078012871D013363BE1491E761E360410
:1014E0000591360CCFD1D5E708980090002F79D11F
:1014F000009902222831029805F038FE00281ED1FA
:1015000000982030017B02988078814217D1012811
:1015100008D10098029902220830C91C05F026FE65
:10152000002815D002988078022808D100980299E6
:1015300010220830C91C05F019FE002808D00098B8
:10154000008DA84200D80546A04200D2204604469D
:1015500002990AA88978012907D013360599B6B2ED
:101560008E4204D3012707E005E1761DF6E78119D5
:10157000022201A805F0FEFD0399009808318E466D
:101580002EE084466946026A8B8820300DE0918BFC
:10159000994203D3012F7DD199427BD9A94200D82A
:1015A0000D46A14200D30C4612688242EFD1049846
:1015B000002817D1604601E015E0BFE000687045E3
:1015C0000ED0018D994203D3012F09D1994207D939
:1015D0008D4200D30D468C4200D80C46012F59D1C4
:1015E0007045CED1BAE008980090002F72D10099D2
:1015F00002221C31029805F0B9FD00281ED1009886
:101600002030C17802988078814217D1012808D112
:101610000098029902220830C91C05F0A7FD002895
:101620001AD002988078022808D1009802991022D6
:101630000830C91C05F09AFD00280DD00098808B59
:10164000A84200D80546A04200D22046044602988F
:101650008078012826D003E002988078012805D000
:1016600013360798B6B201281ED021E000984949E8
:101670000089884216D18A9800F062FF01460098DE
:1016800000F040FE0099098C484300998969401890
:10169000022200E038E00299491D05F06BFD0120AF
:1016A0000790D4E7761DDCE7B61C0020B6B20790A1
:1016B0000598864201D3012705E00AA88119022274
:1016C00001A805F057FD039A0099083209980968A6
:1016D000944630E01AE086466A46938820300DE052
:1016E0008A8B9A4203D3012F0ED19A420CD9AA4277
:1016F00000D81546A24200D3144609688142EFD1B2
:10170000049800282AD102E00120049026E07046C7
:10171000006860450FD0028D016A9A4203D3012F01
:1017200009D19A4207D9954200D31546944200D870
:101730001446012FE8D16045CDD10FE00298C07862
:10174000022805D102980079292801D1B61CB6B229
:10175000761D0598B6B2864200D301270598811BF5
:10176000042902D3864200D294E604980028FBD1D3
:10177000A54203D906987FB00CB0F0BD2246294699
:101780008A9803F0B5F90690F5E70000FFFF000026
:10179000800300200229000070B515460C4606465D
:1017A00007F0EBFC20346179012D09D00A0702D53E
:1017B0004207920F0FD0CA0625D5020709D522E0AD
:1017C000CA0702D04207920F05D08A0705D5020743
:1017D00003D4082070BD052070BD490707D5C00798
:1017E00009D0E179304607F050FC5F2805D0207918
:1017F000C00704D005E00F2070BD0C2070BD022092
:1018000070BD002070BD890607D5C007F3D0E1790F
:10181000304607F03AFC5F28EFD02079810701D4E9
:10182000022D07D0410701D4042D03D00007E8D4CE
:10183000082DE6D1032070BD10B508480649416166
:1018400007490723CA691202120A44042243CA61E3
:1018500000218161036110BDFE7C000000E000E01A
:1018600004ED00E010B505F0C3FE05F08CFC0AF0B5
:10187000F1FF012801D100F03DF800F093F910BD0F
:10188000044805490068884202D08030C06900479A
:10189000FEE70000100000200000041070B513499E
:1018A00005220968520200208B18AC22525C19E014
:1018B00058245D6944432C1954252D5DED060FD540
:1018C0000B480818C030428A018A608904F0FAFB8C
:1018D0003A2804D04034207DEF210840207570BDA7
:1018E000401CC0B28242E3D870BD000080030020DB
:1018F0000809000010B5FFF7D1FF10BDFFB507467E
:10190000464881B000880D464549052209685202C3
:1019100040078A18400F5269582358431418414809
:101920000E180AF097FF002822D0142D04D0152D90
:1019300020D0072D59D05CE02146039803F002FE29
:101940000121206989040843214640312061087D36
:10195000022210430875820609D5627952085200A6
:101960006271DF2210400875002F4ED151E0012036
:1019700005B0F0BD25464035287DC007F7D021468B
:10198000039803F0DFFD204603F0AEFD002825D0CC
:10199000A18FE08F814200D20846E8806989A8893A
:1019A000814200D2084668822A89E9898A4200D2A7
:1019B00011462982628F2888824200D21046C908C7
:1019C0000E3989B26880884200D30846A8800498FE
:1019D000006801214906084304990860287D4008F1
:1019E00040002875002F10D113E00398C078142808
:1019F00002D0002005B0F0BD4034207D0421400815
:101A0000400008432075002F03D00820C036F07333
:101A1000ADE70820C036B073A9E70000C000002081
:101A2000800300200809000010B5FFF767FF10BD14
:101A3000002101E000BF491C8142FBD37047000038
:101A4000F3B58BB005461C2248A103A8FEF7BCFBEA
:101A5000684602F03DFE09240126E406002D67D009
:101A60004420694688764848017A314301724C2007
:101A70006946C87520200875B22048775B2008A900
:101A80000870424A906A4249030C8B420AD108AF5F
:101A9000FB788F273B4008AFFB70FB784007400E78
:101AA0000343FB70506A020C8A420AD16B465A7C8F
:101AB000CF231A406B465A745A7C8007800E02432B
:101AC0005A7432484038006B020C8A4209D108AA85
:101AD000D17889088900D170D1788007800F0143BF
:101AE000D1706946C87DFB2108406946C8754878B1
:101AF000897800010843122808D308A9C87804216E
:101B0000084308A9C870C878FEF710FE03A8012191
:101B100080B209044018E060E068C003FCD4694664
:101B20004878897800010843122801D307F01EFE87
:101B30001849088B0028FCD00E83172088810020CC
:101B400008610C98002806D0216910200140226904
:101B500002408A42FBD0002D02D00F4915200870A8
:101B60000F490E4808600DB0F0BD0000023F0002B2
:101B70003E30023C20023B4C023A400239B2023471
:101B80005B02350B0000000000002040C007001081
:101B900055AA0000000010480000C040CCBCECFC7E
:101BA00014000020F8B5104E30682030C57D002D9F
:101BB00019D0002405277F0210E0E9070BD0C019D7
:101BC00041695820604308184030417D204603F0A9
:101BD000D3FF002807D06D08641CE4B23068AC2144
:101BE000095CA142E9D8F8BD80030020F3B581B0BB
:101BF000934A012101A804F01AFF924C04222060AC
:101C0000432101A804F013FF11272168FF01C9191E
:101C100008670422432101A804F009FF2168042277
:101C2000C9194867FF21843101A804F000FF216829
:101C3000854DC9198867A97F0C2201A80B3104F0D2
:101C4000F6FE05262168760289198863A97F20227D
:101C500001A804F0ECFE2168102289198862A97F8E
:101C600001A804F0E4FE216828228919C862052130
:101C700001A804F0DCFE216830228919486305219F
:101C800001A804F0D4FE2168FF22891908630132FB
:101C9000012101A804F0CBFE2168582289190864AB
:101CA000A97F01A804F0C3FE216820228919486198
:101CB000A97F01A804F0BBFE2168782289198861F8
:101CC000A97F01A804F0B3FE0F212268C9015118B1
:101CD000C8630722032101A804F0A9FE0F2122688E
:101CE000C901511808642822012101A804F09FFEAF
:101CF0000F212268C90151188864AA8B012101A80B
:101D000004F095FE0721226809025118C866298B44
:101D1000282201A804F08BFE07212268090251182D
:101D20004866698B302201A804F081FE07212268F1
:101D30000902511888660C22012101A804F077FEDF
:101D400021680C2289190861012101A804F06FFEA5
:101D50002168282289190969886028462030009066
:101D6000417801A804F063FE2168042289190969F9
:101D7000896888600098417801A8491C04F057FEE2
:101D8000216810228919096989684860A97F01A81A
:101D900004F04DFE21680222C9194866A97F01A8F6
:101DA00004F045FE21680222C919C863A97F01A871
:101DB00004F03DFE21680222C9190864A97F01A828
:101DC00004F035FE21680222C9194864A97F01A8E0
:101DD00004F02DFE21680122C9198864A97F01A899
:101DE000491C04F024FE21681022C91908660B2141
:101DF00001A804F01CFE072122680902511848605E
:101E00000422802101A804F012FE21688919C8610A
:101E1000029ADC204243012101A8443204F007FE6B
:101E2000216889190862029AD8204243012101A839
:101E30002C3204F0FCFD2168891948620198FEBD2E
:101E4000580A000080030020C40A0020704710B523
:101E5000C001000C00F0ECF9002010BDFEB572B618
:101E60003F4D0823286801464030C2791A43C271A9
:101E700062B6002011276C46FF0182005218D21969
:101E8000D26F52884300401CC0B2E2520328F4D300
:101E900072B6C8190021866E816662B6F00702D05C
:101EA00000200BF049F8B00702D501200BF044F8F0
:101EB000700702D502200BF03FF8300702D503204F
:101EC0000BF03AF8002623E00D281AD2211D254AEE
:101ED0008000125820469047002812D072B6286819
:101EE000F7224030C1791140C17162B630E03A2822
:101EF00007D21C49231D8000E8390A58194620469C
:101F00009047029829684018C019C06F2188018045
:101F100071006846415AB00002902A688018C019C2
:101F2000C06F0288920892001418028808348A420E
:101F30000ED0A27891070BD09107890F012901D10A
:101F400004460834A0788008C006E078CFD5BBE707
:101F5000761CF6B2032EDBD30AF006FFFEBD0000AE
:101F600080030020380E051070B50AF017FF124CE0
:101F700011252068ED014019006F40210AF0DCFCBA
:101F800021684919C867486F40210AF0D5FC092625
:101F9000216836028A1910604819FF21806F81314B
:101FA0000AF0CAFC236808229919486003480021F6
:101FB000181805F0E3F870BD80030020E808000061
:101FC000FEB506462A4814460068E322D20085186A
:101FD000C888032806D02346002202210420FEF7E9
:101FE000B5F943E08968022268460D3105F0C2F870
:101FF000326990052FD468460188172903D35C20E5
:10200000405B172801D2172002E0814200D2084627
:102010007080012040020243022032610190144886
:102020001B210068890141183788C97E7688012301
:10203000490710D51121C901083040182422C06F6A
:10204000022108F041FB002805D08780C6800146A8
:10205000019808F025FBA06803260673A0682946AE
:1020600002225C310D3005F085F8E6800020FEBDCF
:1020700080030020F7B590B000206A460D90908252
:102080006A4AE3231268DB00D218CB880446022B8D
:1020900008D0002218210420129BFEF757F90020D7
:1020A00013B0F0BD8B6800205E7B0A900B9088888F
:1020B0003032019209900027019808F0A7FE0546EA
:1020C00020E028680890A9880998814219D1A96858
:1020D000022207A80D3105F04DF8002F01D1684606
:1020E000878B6846808B87420BD12946019808F080
:1020F000DAFE002028600A98002811D00B980560AD
:102100000B95089D002DDCD1002FD4D112981921F8
:102110008068017301211298012EC18002D081E0F4
:102120000A95EDE702A90AA8FEF73DF9002879D043
:1021300069460A891821129BFEF708F9002671E00A
:1021400081680546022202A80D3105F013F8012E20
:1021500066D16846008901F07BFB014668460EAAFD
:10216000008902F0F1F90E9C1099204600F0CAF89F
:102170000D9055E02F68012E3FD1002F06D0B96891
:10218000022205A80D3104F0F5FF02E000206946A7
:102190008882A968022204A80F3104F0EBFFE888C6
:1021A0000D99401F80B20090208CA2694843694677
:1021B0001018098A009A43180921284605F052F898
:1021C0002220005D012804D16846018A0098081881
:1021D000E08368460189808A81420ED0208C0D9967
:1021E000A269484310180021019000911098E38BD8
:1021F0000188A28B022008F00FFC0A9908680A9057
:10220000002008600A99002900D10B90012128467E
:1022100005F0C4F869460889898A884202D13D469A
:10222000002DA7D10A9800288AD139E78003002021
:1022300000B508490968084A914209D14006010CD5
:1022400006483F22028181611121018000F052F88D
:1022500000BD000014000020CCBCECFC00001040CD
:1022600000B5094A1268094B9A420BD1084A3F232C
:10227000138180089061064840300160332010804F
:1022800000F038F800BD000014000020CCBCECFCCD
:102290000000104000B50C4A12680C4B9A4212D153
:1022A0000B4A3F2313818008906109480B68403036
:1022B00003604B6843608B688360C968C160CC2051
:1022C000108000F017F800BD14000020CCBCECFC1E
:1022D0000000104010B501E0521ED2B2002A07D013
:1022E00003780C78401C491CA342F5D0012010BD96
:1022F000002010BD0248018AC907FCD070470000C9
:102300000000104030B5024623239B5C0020012BC7
:102310001AD112890D4B9A4216D10D4A0523126823
:102320005B02D318A0329B69127B0AE045010C883E
:102330005D5B24052D05240D2D0DAC4204D0401C01
:10234000C0B28242F2D8002030BD00000229000055
:1023500080030020F7B578480F460068E321C900E4
:102360004418F88888B0072804D2002206210420E7
:102370000A9B2AE0B968022268460D3104F0FAFE91
:10238000B968022201A80F3104F0F4FEB9680222F4
:1023900004A8113104F0EEFEF888C01F80B203904B
:1023A00068460288808882420CD8002A0AD00898A1
:1023B000002142880A9805F032F9002808D045200B
:1023C0000BB0F0BD062101200A9BFDF7BFFFABE07B
:1023D0000A98072180680834017301216846018149
:1023E0000594008801F034FA05007CD086E0684648
:1023F000008A0522D202904202D0521C904226D17D
:1024000068460088814278D329460B220831384635
:10241000039B04F0BDFF69466A8D098A8A426CD12C
:102420000399022901D0102967D1002865D12A46D5
:102430002846296A28322030814202D06B6A1C3338
:1024400000E0134602A90A98FDF793FF55E02E46D7
:102450002C6A2036B4424ED14FE06946A08B0988E1
:10246000884247D369468988884257D82320005D2F
:1024700001283FD120460899FFF744FF218CA2692B
:10248000414351180B223846039B04F081FF06900C
:1024900008980122008821460005000DFEF70DF97D
:1024A00001466A462089128A904223D1002921D10F
:1024B000E28B03998A421DD1069900291AD1089905
:1024C0006A4649881289891A042927D322461B495A
:1024D0001C32884208D12068B04205D00089884269
:1024E00002D02468F7E719E023461C3302A90A98B2
:1024F000FDF73FFF2468B442AFD12D6805988542AF
:102500000CD06846298D8088814207D808986A4691
:1025100040881289801A042800D368E76846008939
:10252000012803D90A99C880002049E76846028833
:1025300006210A200A9B48E78003002003280000A8
:1025400010B50D4900050B680521490259188A6923
:102550000021000DA0331B7B0AE04C01145B240515
:10256000240D844202D14801801810BD491CC9B213
:102570008B42F2D8002010BD80030020FFB589B047
:10258000002405460794D0881646052804D000226A
:10259000042108460C9B20E0B168022208A80D31F6
:1025A00004F0E8FDB168022268460F3104F0E2FD54
:1025B0006846028C008882420CD8002A0AD00A9809
:1025C000002142880C9805F02AF8002808D0452000
:1025D0000DB0F0BD042101200C9BFDF7B7FEB9E062
:1025E0006846008C01F034F9060076D00835049571
:1025F0000498864272D06946308D098C884230D367
:102600006946098888422CD8002C0AD101210791FB
:102610000C9805218068022401730C980799806842
:1026200041730A984088001B042857D30798012853
:1026300054D1201D81B23346283302220C9804F075
:1026400001FFA01D81B233462A330222A41C0C983C
:1026500004F0F8FE6946A41C308D0988A4B28842B3
:1026600074D03746356A2037BD42C1D060E0694634
:10267000A88B098C88425AD369460988884265D854
:10268000002C36D02320415D0798814260D10A9802
:102690004088001B042802D30799012904D012287E
:1026A00056D30798022853D1201D81B22B461C33E4
:1026B00002220C9804F0C6FEA41C0798A4B20128BC
:1026C0000DD0201D81B22B46083310220C9804F047
:1026D000B9FE2046103084B229E03DE036E0201DEE
:1026E00081B22B46083302220C9804F0ABFEA01CEA
:1026F000F1E72320415D07910C98052180680222B3
:1027000001730C980799806841730C98294680687A
:102710001C310E3004F02EFD079901290CD02B46F8
:102720000833102208210C9804F08CFE14242D6824
:10273000BD429CD136685BE70C982946806802222E
:102740000831103004F016FD0624F0E7002C03D009
:102750000C98C48000203BE76846028C04210A20C4
:102760000C9B3AE7830810B50A480021026805204F
:1027700040021018A0328069127B07E04C01045B14
:10278000002C01D0994204D0491CC9B28A42F5D824
:10279000002010BD8003002070B50C460B4E810058
:1027A0000B4832680D1801232032D3772146284682
:1027B000FFF756FD28680021844201D1084600E059
:1027C000FB2032682032D17770BD000080030020EA
:1027D0000000041038B5184A14682246BA32AE34E4
:1027E000A378DD0701D001290AD05B070CD50129A8
:1027F0000AD0217949070BD5E17A002905D007E0F5
:10280000E07880210843E07038BD0121E1725080FA
:1028100020794106090FF7D07821084069460870F1
:10282000002048706A460221422008F04DF82079C5
:1028300087210840207138BD8003002070470000C8
:10284000FFB50C4678A103C995B001910090002115
:1028500008A801730321C90268464186012108A81E
:10286000734E017435681746AE3502F0ADF8002896
:1028700008D170493068401801F0E6FEA8780028B9
:1028800002D0462019B0F0BD0BA8159900F09EFAB1
:102890000028F7D1072010A90871012C05D0022CBF
:1028A0000AD0002C0ED04220ECE708A8017B1020B3
:1028B000014308A8017305E011A90BA800F095FADF
:1028C0000028DFD110A8027901230CA9284600F0C6
:1028D00081FE00287ED102222946189804F04AFC85
:1028E00029886846818115214902018207840126D1
:1028F00086734E2108A881700024C47006710721D8
:102900004171867103A902A800F01EFC002861D164
:10291000022202A91E9804F02DFC082F02D268465C
:10292000478502E008206946488569460C850B46C4
:1029300028880AAA098901F0EFFB00286DD13E49D9
:10294000684601820227078408A8847103A902A8A7
:1029500000F0FAFB002860D1022202A91F9804F0BF
:1029600009FC68460470694644704F850B46288808
:102970000AAA098901F0D0FB00284ED108A8007BE3
:10298000C00723D02C496846C91C01820821018454
:1029900008A88770047103A902A800F0D5FB0028DD
:1029A0003BD1FF216846C1718171C1708170417056
:1029B0000170447104716946082048850B462888D7
:1029C0000AAA098901F0A8FB002826D108A8007BE3
:1029D000800600E021E022D52988684681811649D9
:1029E000A53101820684867308A88770C4700471BB
:1029F00007214171847103A902A800F0A5FB0028FA
:102A00000BD169460E700C854E850B4628880AAAA4
:102A1000098901F081FB002801D0472032E708A88E
:102A2000007BA87000202DE7626C75656E726721CF
:102A300080030020DE060000012A00000348002178
:102A40000068AE30C17081707047000080030020C4
:102A500038B50246174801240068AE30022A1FD05C
:102A6000052A03D0072A07D00B2A20D10846097966
:102A70004088FFF7AFFE1AE000790024020600D577
:102A80000124820703D1C20601D480060FD508466F
:102A900000216A461170694607F06EFC044606E0A4
:102AA0008178490703D50179FB2211400171204645
:102AB00038BD000080030020704700000FB410B53F
:102AC000079C01282DD1684680891749884210D17A
:102AD00003A80FC800F0AEF900281DD105F024FFAF
:102AE000FA281ED001281CD92078F3210840207034
:102AF00017E00D49491C884208D0C91E884205D0FC
:102B0000491C884202D0C91C88420AD103AC0FCCB0
:102B100000F090F9002800D0632010BC08BC04B07D
:102B200018470020F9E70000022A0000FFB5074619
:102B300071480D4604688FB0AE34A1781E46C806B1
:102B400002D5E078C0067DD4880607D5E0788006F7
:102B5000800F03D0022F01D0002E73D08806800F83
:102B600006D0022F08D0032F06D0002E6AD003E033
:102B7000012F01D0002FF8D1880603D4002D01D0F9
:102B8000012D5FD1002E06D130200140384602F0E1
:102B900091FB002856D1119900200870A07880067A
:102BA000800F7DD00CA908A802F09CFE07900DA90B
:102BB0000AA802F0C3FE06900798002802D00698E3
:102BC000002801D1012E58D1022F04A807D001F00E
:102BD000E1FC002E3CD00798002803D012E006F05C
:102BE000A5FAF6E7444F45483B68062208A918189D
:102BF00004F0BCFA0028386808D04030417E49080B
:102C0000490041760698002805D014E04030417E06
:102C100001221143F5E7384F38483B6806220AA9DC
:102C2000181804F0A3FA002838680CD04030417E10
:102C3000FD22114041760798002809D00698002807
:102C400006D01AE043E04030417E02221143F1E712
:102C5000294806220368294804A9181804F08AFAAA
:102C6000052069460873002E02D1084606F0DCFFF5
:102C700023480290684606F089FFA078800611D5A7
:102C80001198032101702079C10603D5002D01D0D0
:102C9000022D1CD1800605D5012D03D0032D00E0A7
:102CA00018E014D1A078C00623D51199012008702E
:102CB0002079C10601D5002D09D1810601D5012D4C
:102CC00005D1000615D5002D13D0012D11D04220BD
:102CD00013B0F0BD012F0CD1002E0AD106480622F8
:102CE00003680648611D181804F044FA1199012080
:102CF00008700020ECE7000080030020DE060000E2
:102D0000A0BB0D003EB509F031FE044609F0BCFE43
:102D1000082C01D1082813D00A480B490068062264
:102D20004118684604F026FA68464079400601D505
:102D3000022000E00320012302AA0021FFF7F6FE93
:102D40003EBD000080030020DE0600001FB50E48D7
:102D50000468AE34E078010612D5A178C9070CD01A
:102D6000800708D5042069460873684606F05CFFB2
:102D7000022007F04FFD0020E0704006400EE0709A
:102D800000F032F81FBD000080030020F0B58DB0C8
:102D90000C4616A9E0C90021089109910A910B91EE
:102DA0001599049105A9E0C112A962C90093019186
:102DB00013460146039602952246012007F08EFB3A
:102DC0000DB0F0BD10B502F0D9FB10BD0A07920F8F
:102DD00001D0422070478A07FBD002788907890F0B
:102DE0000A4302700020704770474220704700007D
:102DF00010B50446022000F051F80D480021026889
:102E0000052040021018A0328369107B05E04A01BA
:102E10009A5A002A04D0491CC9B28842F7D810BD7A
:102E200048011C52C018026904210A43026110BD06
:102E3000800300201FB582B0002401F0EFFB69463B
:102E400001F092FB009A6846116A0089203209E07D
:102E500023235B5C012B04D10B89834201D1641CC9
:102E6000E4B209689142F3D1204606B010BD0000DB
:102E700010B504460146042002F0ACF8002809D041
:102E80000548E3210068C900401821463C3007F09E
:102E9000EDFF432010BD00008003002004490A68B4
:102EA0003B21490151180A7802430A70704700001B
:102EB0008003002000B51138C0B2FFF753FC002892
:102EC00004D00122016952051143016100BD0000D7
:102ED000034804490068884201D0006C0047FEE7BF
:102EE0001000002000000410F0B5027901239B07B8
:102EF0000168002A02D0062A03D006E05C688C43F1
:102F000002E05C6800220C435C6000210F2405682D
:102F1000CD40ED07ED0F37D0082909D2DE6A8D00CC
:102F20002746AF40BE431746AF403E43DE622BE02C
:102F30000D46083D082D0AD28D002646203D1F6B08
:102F4000AE40B7431646AE4037431F631CE00D4604
:102F5000103D082D0AD28D002646403D5F6BAE40E5
:102F6000B7431646AE4037435F630DE017290BD9D0
:102F7000114E8D002746603D368BAF40BE4317464D
:102F8000AF400D4D3E432E83491CC9B21A29BED312
:102F900041790129D968026809D09143D9608179C2
:102FA00001299968006804D081439960F0BD1143FC
:102FB000F4E70143F9E7000020000040012902D0B6
:102FC00003490860704701218907C8637047000002
:102FD0004000004003480068AE3080788006800FD3
:102FE0007047000080030020F3B597B00D88488833
:102FF0000590081D1DC80DAE1DC68C8ACE8A087EA0
:103000001390C869203101900878009048780490A6
:1030100088780390C87802900F7900F0BFFD0028EF
:1030200017D10120400284425FD8B4425DD8002FFE
:1030300001D1B44259D114A9284601F095FA0028CB
:1030400006D115AA1499059801F07EFA002802D03D
:10305000602019B0F0BD149D11A92846183003F066
:103060003FFA10A88088002810D0284612A92030E6
:1030700003F036FA10A8838800892A8D1818696A27
:1030800010188A8B904203D16120E2E74820E0E7E4
:1030900015982C4B02899A4227D12322125C012ACF
:1030A00023D1006800681690139801281FD1684644
:1030B000808E29221202801A030007F09CF9060470
:1030C000180404070A18022C0FD110E0072C0CD1A9
:1030D0000DE0042C09D3E00707D1012F07D1A64248
:1030E00003D3042E01D3F00701D04220B1E70298A8
:1030F0000B90039B049A0A9309920098019A0C97EB
:1031000008900696059407920DA81DC8019002A884
:103110001CC013980B4600902A461699179800F089
:10312000AFF9002895D168460649808EFF31884264
:1031300005D01798018800200A4601F0D9FC00202C
:1031400087E7000003280000F3B5A5B008881A90AF
:1031500088780C4611901022091D13A8FDF734F849
:10316000A08A1090A17D68460172E07D0F90207EBC
:103170002090677EA07E1F90002006460146129098
:1031800020A801810F20BB4C2390E3212068C900B7
:103190004018199000F002FD00280BD10121109871
:1031A000490288425FD821A91A9801F0DDF9002868
:1031B00002D0602027B0F0BD2198179001F02EFAC0
:1031C0001A9988420CD102A801901698009013AD6C
:1031D0000ECD1198FFF772FC002801D06320E9E7BB
:1031E0006846017A8806800F05D001201290206879
:1031F000A030007B4600C80703D01298401CB61CC4
:103200001290080603D51298401CB61C129017980D
:103210000DA918301D9003F063F96846129C808E4A
:10322000A41CA04237D317980EA92030019003F0B8
:1032300057F96846018F00290DD01798179A6B46E9
:10324000406A9B8E128D5918808B5118081AA04223
:1032500001D26120AEE7179884691198256801288A
:1032600003D0022803D04220A4E7052000E0132069
:10327000E0832A4639460F98FEF7DDF8422899D0B8
:10328000199FE28B4037788B398B411A10981018B0
:103290008019814201DA48208CE70EA9019803F0D9
:1032A0001FF96846008F0028179802D0406A808B6B
:1032B00000E0008D2599401C088025980121008898
:1032C000A083259802220088401CA8836A48208198
:1032D000204620301790C1700021817081711998AB
:1032E000398B406D40186946A061097A0170A06968
:1032F00029461C31401C03F03DFF11980128A069AC
:103300007ED0102213A9C01C03F034FF28461022DF
:1033100013A9083003F02EFF388B133038832E4664
:1033200020361198F0701098E8831F98B0701098AC
:103330002084109828841998398B406D4018A86112
:103340000021109A03F01AFF398B1098081838835F
:10335000179901200871179900204871307168464B
:10336000007A810701D50121317101070227002967
:1033700002DA317939433171410703D531790422B9
:1033800011433171400603D530790821084330716B
:103390000F9870712098B07121461D9803F0C9F8FC
:1033A0002146019803F0A6F829461D9803F0C1F8BC
:1033B0002946019803F09EF81298002841D06846EB
:1033C0001A998181A18BC18107844784012408A8AF
:1033D000047122A80A9008A88473239941730F9955
:1033E0003820014008A801730721C1730025057426
:1033F0006846007AC00708D020486946088200E085
:103400002AE003A924A8FFF7EFFD6846007A8006AA
:10341000800F07D019486946401E088203A924A8D6
:10342000FFF7E2FD6846007A00060AD52921090265
:103430006846018208A84473057303A924A8FFF70E
:10344000D3FD259801881298401C081882B20020EC
:1034500001F04EFB0020ADE6022213A9C01C03F0D0
:1034600089FE2846022213A9083003F083FE388B18
:10347000401D53E7800300200328000003290000BB
:10348000FFB55248E322006887B0D2008218069246
:1034900010AA109B0126169F9288012B04D14C4B39
:1034A0009A4201D1A030067B069D34464035688B98
:1034B0002B8B7C43C31A099820300390A34222DA55
:1034C00048200BB0F0BD2320405C012819D10889A9
:1034D0006C46208098420CD03D4C641EA04208D01F
:1034E000641CA04205D0641CA04202D0A41CA042CF
:1034F00007D1374CFF3CA04201D0904201D162205D
:10350000DFE7096801E029231B0203988142DAD131
:1035100009981B99846918982246FDF78CFF422868
:10352000CFD01C98012804D11598874201D242209F
:10353000C7E71598E083204620301C9905908170DC
:1035400027840A98808B401CA0831098012814D0EF
:103550002046102211A9083003F00CFE059910989E
:10356000C8700698298B406D4018A061298B384699
:1035700070430818288300250FE011A80FC80834ED
:103580000FC4183CEAE72846A16978430818159A41
:10359000179903F0EFFD6D1CEDB2B542F3D3059919
:1035A0001898487105991998087105991A988871A1
:1035B00009982146183002F0BCFF2146039802F01A
:1035C00099FF0798A18B018000207AE780030020F3
:1035D00002290000FFB58FB014460E78102205A80E
:1035E000891CFCF7F1FD5048E3210068C90045182B
:1035F00000F0D4FA00281ED1002C57D0012E09D19A
:103600006846808A4949884204D12846A96808301A
:1036100081424BD12846103029690390814209D05C
:103620000AA9284602F05CFF6846018D601E0D90D5
:10363000814202D2482013B0F0BD284608300CA9C0
:10364000049002F04DFF6846008E002814D0EF6809
:103650000AA93846183002F043FF384620300CA93A
:1036600002F03EFF6846398D008D09186846008ECD
:10367000401C081887B200E0012701200004C01B8D
:10368000A04201D26120D6E72C69286801901298E7
:10369000012802D0022803D008E00520C00200E083
:1036A00023486085012E03D0022E05D04220C2E7B8
:1036B00020460830022202E020460830102205A9E8
:1036C00003F058FD204631462030064601730F981E
:1036D000214607802785039802F02BFF2146049896
:1036E00002F008FF27461837E7616662A761266285
:1036F0000D9884B20BE02846019902F01AFF384673
:10370000019902F0F7FE2868641EA4B20190002C13
:10371000F1D10F9801880D98081882B2002001F0AD
:10372000E7F9002087E7000080030020011800006F
:1037300001280000F7B5064639480F460068E32126
:10374000C900441882B03046FEF7FAFE050064D086
:1037500020462430009007F09FFB00285DD12869A7
:1037600000035AD5009807F051FB044653E0A088A7
:10377000B0424FD120223146002003F0B3FD0600B5
:103780001CD0A068002F017B427B19D033460498DF
:10379000FCF7DCFD002001212A69C9048A432A6163
:1037A00000282ED0692806D03046FFF761FB296932
:1037B000102001432961002005B0F0BD6420FBE723
:1037C0000A2906D00C290AD00E290ED0082912D0B9
:1037D00023E032462146284604F09CFEDBE73246D1
:1037E0002146284604F0D2FAD5E73246214628463B
:1037F00004F0C6FDCFE732462146284604F058FCC7
:10380000C9E72146009807F04EFB0121204603F04E
:10381000C5FDC9E72468002CA9D14120CCE70000F0
:103820008003002002460948E3210068C9004118CE
:103830008868083103E0038D934202D20068884211
:10384000F9D1884200D10020704700008003002099
:10385000034610B50F48E3210068C9004118886885
:10386000083103E0148D9C4203D8104602688A4256
:10387000F8D18A420CD1018D994209D20146026ADF
:1038800020318A4203D0416A898B994200D20020BC
:1038900010BD000080030020024610B50B48120541
:1038A000016805204002081883690020120DA0312C
:1038B000097B07E044011C5B2405240D944203D0DE
:1038C000401CC0B28142F5D810BD0000800300202A
:1038D000F7B505461746019807F098FA2E050446F5
:1038E000360D0CE0A0882568B04207D1214601982A
:1038F00007F0D9FA3946204603F050FD2C46002C3B
:10390000F0D1FEBDF0B58BB0002064490290E320F9
:103910000A68C000141872B610464030C5790223F8
:103920001D43C57162B625464035287AC0077DD053
:10393000052040021018002687694AE071017A5A72
:10394000002A44D0C919069109694A021FD48A0283
:1039500027D5022104910699012309880905090D3B
:1039600003911B2189014118C97E89070FD51121B7
:10397000C901083040182322C06F022106F0A4FEBE
:10398000010004D0039A8A80049806F089FE069804
:1039900000880090069800F083F8009805F0A8F9D8
:1039A00015E0480713D5069800880005000D05F0BE
:1039B0007BF9002805D1069800880005000DFDF769
:1039C00047FD069904200969814306980161761C28
:1039D000F6B23248AC210068095CB142AED803F0BF
:1039E000DFFF20462430064607F056FA012802D0B1
:1039F000012003F0D7FE2046183007F04DFA0128C9
:103A000002D0002003F0CEFE3C34204607F044FAFA
:103A100001280FD002A9204607F067FA0420029976
:103A200001F0D8FA0028F0D0204600E034E00299F6
:103A300007F009FA287A00062ED5304607F02CFA4E
:103A4000012829D1002003F029FCA98B2331490941
:103A5000491CC9B2FCF78EFB00281DD00F4D04464F
:103A600028681121C9010830401842260123382254
:103A7000C06F314606F028FE01000DD000228A807A
:103A8000CC80304606F00CFE3B212A6849015118D3
:103A90000A78802082430A700BB0F0BD80030020BA
:103AA000F0B504463C48E3210068C9004518218A66
:103AB00085B089041AD5022104911B21890141187E
:103AC000497F412627880123C9070FD01121C90149
:103AD000083040183122C06F022106F0F5FD0100C8
:103AE00004D08F808E71049806F0DAFD2946208874
:103AF00001221831FFF7ECFE2946208801223031DF
:103B0000FFF7E6FE2946208801222431FFF7E0FE78
:103B10002946208800223C31FFF7DAFE2088000584
:103B2000000DFFF7B9FE8500294611316846017383
:103B300006F07AF8294612316846017306F074F8E7
:103B4000294613316846017306F06EF8684614354D
:103B5000057306F069F8208800F028FA208801052E
:103B60000D48090D0268052040021018828F91420D
:103B700001D100218187E069002802D0012103F0F2
:103B80000DFC202200212046A56803F0F7FA17203B
:103B9000A560608005B0F0BD8003002010B50B4823
:103BA000E3210068C90044184034207AC00709D0D6
:103BB000002003F073FB217A890701D5002803D088
:103BC000002010BD472010BD642010BD80030020E0
:103BD000F0B55FA099B000685E491590E3220868CF
:103BE000D200841805225202821892692546403577
:103BF00014922A7AD20702D0622019B0F0BDAA8BA3
:103C000001235B029A4201D9AB8303E0172A01D258
:103C10001722AA83149AA0301392067B0DE0761E19
:103C2000F6B2139871010F18B8680F903846202229
:103C3000002103F0A3FA0F98B860002EEFD12046C0
:103C40000830E0606460A060246008301390606118
:103C50002061FF220021083007F0EDF82046FF2206
:103C60000021243007F0E7F82046AA7F00213030F9
:103C700007F0E1F82046FF2200213C3007F0DBF896
:103C800000222A7210461721324B05E0149E47018C
:103C9000BE19401C7180C0B21E68A036367B8642B9
:103CA000F4D8002028832F8C688C0026149008E01C
:103CB0002820E16C70430918204602F01BFC761C9A
:103CC000B6B2BE42F4D3002608E03020216D704326
:103CD0000918139802F00EFC761CB6B214988642AE
:103CE000F3D30120FFF7DAF80124684604701A497B
:103CF00041802346042269460CA8FFF76BFC00288C
:103D000022D16846018E81821449018304260685EA
:103D10008475202108A881720024C47204730721CD
:103D20004173847305A90DA8FFF70EFA00280BD183
:103D3000684604874687818E15AB0EAA008E00F078
:103D4000EBF9002800D158E700202872472054E7FB
:103D50000000FFFF8003002001180000052A00007A
:103D6000F8B504467D480E460068E321C9004718AF
:103D70004820C05DC0077BD0B088FEF7E1FB054658
:103D8000012C02D0002C75D0E6E0002D0CD0286963
:103D900041074AD4B268F188147B0029F4D0620646
:103DA0000CD56888884201D20121B2E0D22C01D022
:103DB000522CF9D13846314618303FE0A106890E21
:103DC0001E293ED81E2C21D101071FD5082188436A
:103DD00028612988012005F0FFFC0121304603F00D
:103DE000DDFA5E4811210068C901083040184224FC
:103DF0002D8801233922C06F214606F065FC0100A1
:103E000003D08D80204606F04BFCA5E0E1070AD0E8
:103E10001D2C10D01B2C0ED0410529D40121890264
:103E20000843EE6192E0C00601D54520F8BD29881F
:103E3000002005F0BFFC38463146243007F016F864
:103E40008AE029882022002003F04CFA05000FD0D8
:103E50000121304603F0A2FA2B460022214606201B
:103E6000FCF774FA2846FFF703F875E000E001E07C
:103E70004120F8BDB068047B1D2C3AD01B2C41D0EA
:103E80000021304603F08AFA032C46D0052C44D09A
:103E9000072C42D0092C40D00B2C3ED00D2C3CD00E
:103EA0000F2C3AD0112C38D0132C36D0172C34D0FC
:103EB000192C32D0012C30D0022C35D0042C33D028
:103EC000062C31D0082C2FD00A2C2DD00C2C2BD026
:103ED0000E2C29D0102C27D0122C25D0162C23D014
:103EE000182C21D0522C1FD0D22C1DD01E2C2FD0FC
:103EF00032E0002D03D02988012005F05BFC31461B
:103F0000022001E03146012005F0E2FB002823D029
:103F10000021304603F042FA1EE029691020814357
:103F200029612988002015E02869402188432861FB
:103F3000010511D5FF21013108432861298802209C
:103F400005F038FC01212869C9028843286103E093
:103F50002988032005F040FC0020F8BD80030020E4
:103F600010B5114AE3231268DB00D2184032127AEE
:103F7000D20706D002280AD0052804D00B2810D179
:103F800001E0412010BD4888FEF732FF09E0488873
:103F9000FEF7D6FA002804D00122016992051143E8
:103FA0000161002010BD000080030020F1B5FFB0CA
:103FB00085B0472001900020694608805348E321DE
:103FC0000068C90047188498FEF7BAFA02900028E2
:103FD00074D0B96808374FE0684600880D4604ACD5
:103FE00020186B46022228310CF02DFD684600880F
:103FF000294620186B4601222C310CF024FD2E4658
:104000002036307B69460128098804A809D0401869
:104010006B461022294608310CF015FD01902C6AE0
:1040200027E040186B460222F4E76946098804A895
:10403000401821466B4602221C310CF004FD6946F3
:10404000098804A8401821466B46012223310CF050
:10405000FAFC2320005D69460128098804A830D0B5
:10406000401821466B46102208310CF0ECFC019000
:104070002468B442D9D12968B942ADD10198002849
:104080001CD16846008881070AD0214A011D1140D1
:104090006A4611800A1A04A908180B2103F06EF869
:1040A0000298008804F000FE002807D18498694631
:1040B0000005000D04AA098804F058FC7FB006B082
:1040C000F0BD401821466B46022208310CF0BBFCC3
:1040D000019020890F498842CAD120460299FEF7F3
:1040E00011F94000A16903906A460918128804A8D2
:1040F00080186B4602220CF0A6FC0190A16903987F
:1041000002220818002103F039F8B1E780030020EB
:10411000FCFF000002290000F0B5074617480E46D4
:1041200000683B2149014018007885B01D461446BF
:10413000C00706D003A9384600F016FA00280AD1B5
:1041400002E0472005B0F0BD04AA3046039900F014
:10415000FBF9002801D06020F4E7049922886088E8
:104160000968002A00D0088C32466E4631C6032307
:104170003946002000F004F8E4E700008003002046
:10418000FFB5002099B0239A0B9012900546149029
:10419000064615901C46DB480B460068E321C90023
:1041A000411803910021229F08910991518806919D
:1041B00011880A913B21490140180078C00706D0B8
:1041C0000FA9184600F0D0F900280AD102E04720D4
:1041D0001DB0F0BD10AA0F991B9800F0B5F900288A
:1041E00001D06020F4E71998002803D0600701D5BA
:1041F000012000E000201390A007800F1C90109871
:1042000017902030C078012840D11798BE4B018903
:104210009942F9D11798069904680A98228C411896
:10422000914233D82046203016908078012816D04D
:10423000E08B04901798806900788006800F7DD00D
:10424000039840301890007A800777D51C98002892
:10425000F5D0AD4F0F99FF372031206814E0BA42F6
:1042600014D3B942DDD80497E4E70389A64A934200
:1042700003D12322125C012A08D0BB4203D123229E
:10428000125C012A03D000688842EED134E1059027
:104290000028FBD09B480521026849025118896912
:1042A0000027009162E0780100990390085A010507
:1042B0005AD01999002901D0884255D105997A0020
:1042C0008B69511C595C9A5C0902891889B20D915D
:1042D000890749D002220599FCF7EFF9002804D09C
:1042E0001998002840D0652072E7002008A9C85519
:1042F0001C98C00718D0179880690078C00613D59D
:104300000D98C00710D00120C8550543009A0398A6
:1043100080184088159A904206D91590009A039803
:10432000105A0005000D14901C9880071CD5179892
:1043300080690078800617D50D9800E084E080073A
:1043400012D50220CA5D05430243CA55009903985D
:10435000401840881599884206D91590009903980D
:10436000085A0005000D14907F1CFFB265480068D4
:10437000A030037BBB4296D8002D65D01898007AF8
:1043800000065FD45F480168052040020818816973
:1043900000201BE042018E5A360515D0AE070BD522
:1043A00056183669B7070DD408AF3F5CBF0703D571
:1043B000360701D546200BE7EE0705D05218127CD0
:1043C000D20701D0432003E7401CC0B28342E1D8AA
:1043D0001598C01E86B20498864200D90646A807E2
:1043E0000FD520220020149902F07CFF12900028A3
:1043F0007DD0F01C82B20021129803F009F9002848
:1044000011D1E80720D020220020149902F06AFF81
:104410000B90002807D0F01C82B200210B9803F00B
:10442000F7F8002810D08020FEF738FD12980028F9
:1044300002D0002102F0B2FF0B98002802D0002128
:1044400002F0ACFF6420C3E6A1690A98069A081836
:10445000249902F08FFE16988078012801D10498E3
:10446000E083002D46D0274B05201968400208182C
:104470008169002008AA0CE04301CF5A3F0506D00D
:104480005F18BC463B69175C3B4367463B61401C79
:10449000C0B21C4B1B68A0331B7B8342ECD8A8071F
:1044A0000DD512980090F01C82B221461C310220DA
:1044B000A369FCF78BFF0220129905F009F9E807C0
:1044C00018D00B980090F61C2146B2B21C31012086
:1044D000A369FCF77BFF1398002805D00B98802177
:1044E000C07C08430B99C87401200B9900E005E0DB
:1044F00005F0EEF800206BE6422069E68020FEF72A
:10450000CDFC9FE78003002003280000F0B58468FD
:10451000083015E0258D8D4203D11460186001200C
:10452000F0BD26461C602036256A06E0AF8B8F4220
:1045300002D102201560F0BD2D68B542F6D1246885
:104540008442E7D10020F0BD10B50B6A203106E0AF
:104550009C8B844202D10020136010BD1B688B42EB
:10456000F6D1412010BD000010B5094AE3231268BE
:10457000DB00D2189368083206E01C8D844202D119
:1045800000200B6010BD1B689342F6D1412010BD86
:1045900080030020F8B5204E04463568AE3500F0A3
:1045A000C9F92070000A607000F0C4F9A070000A18
:1045B000E07000F0BFF9C2B28004830E22710021C6
:1045C00063710846275C401C7918C0B289B206287E
:1045D000F8D30029E3D02078FF280CD16078FF2899
:1045E00009D1A078FF2806D1E078FF2803D1FF2A5F
:1045F00001D1FF2BD3D00622691D204602F0B6FD63
:104600000028CCD0316806222046783102F0AEFD79
:104610000028C4D0F8BD00008003002002480068D4
:10462000AE3000887047000080030020002803D0CF
:10463000012803D0022804D00820704701208003FD
:10464000704701207047000010B503490622096831
:10465000B33102F08FFD10BD80030020F7B5164680
:1046600000241CE0009811490019401881080198A5
:104670008900001942780578120215438278C078C3
:104680001204000602430948154340420F18294608
:104690003846FDF7E5FD3868854204D1241DB44253
:1046A000E0D30020FEBDFB20FEBD00000000FCEFBB
:1046B000F0B50E460746002407E03D1900F03AF930
:1046C0002870000A6870A41CE4B2B442F5D3F0BDAF
:1046D0000F4910B528390E4BCA691206120F4270E5
:1046E000C9690907090F817019680A4C01234160E3
:1046F000A14202D10221017000E00370002A00D122
:1047000043700549898A491C8900816010BD0000F9
:104710002800904041A000020000104010B5012880
:1047200018D8072916D80C4A126813462033187770
:1047300059778007C906000E090E01430020074B78
:10474000A03204E08401E418A172401CC0B2147BC2
:104750008442F7D8002010BD800300200001002013
:10476000074A914202DC5242914200DA1146FF228E
:10477000993251430A1251180A14511808187047F7
:10478000FFFF4F00401AC010810040180012704710
:1047900010B50920C00600690002000A05F070FA91
:1047A00010BD7047F0B5444F0446386885B0783086
:1047B00016460D46002C19D0062C11D0082C0CD012
:1047C000182C0AD0282C0BD02A2C09D02C2C0AD03B
:1047D0002E2C0BD0D02C42D043E0102D08D040E03E
:1047E000022D05D03DE0012D02D03AE0062D38D152
:1047F0000A460019314602F0BDFC2C2C28D1307835
:10480000002825D008F026F8012824D01B201F30CE
:104810004009401C41004118012002F02DFD08F024
:1048200019F8012819D01B201F30400941004118F8
:1048300022484078401AC01EC1B2002002F01CFD80
:1048400038684022403001781143F922114001704C
:10485000002005B0F0BDFB20D9E7FB20E4E7012DE7
:1048600004D007F0F7FF012804D007E0107804F027
:10487000FCFBEEE7D12C01D1082D01D01220E8E796
:1048800002223146684602F075FC0222B11C01A8E2
:1048900002F070FC0222311D02A802F06BFC022221
:1048A000B11D03A802F066FC6846838902898188ED
:1048B00000880AF0D9F8CCE780030020E40A002041
:1048C00070B51A4C1B252068AD0141190026184B04
:1048D0000E720622FF21C01802F050FC2068202131
:1048E0004019C673017407F0B5FF01281CD01F20C2
:1048F00021680F4B491948742068093307220021A9
:10490000C01802F03BFC0A4B206810330522FF213F
:10491000C01802F033FC064B20681B33FF22002135
:10492000C01806F088FA70BD5F20E1E78003002020
:10493000C906000000210B200007026852070DD5B0
:10494000026804239A430260026808231A43026043
:1049500004E0491C052901DD0020704742689207E8
:10496000F7D54168C907FCD0806880B2704710B5A0
:10497000FFF7E0FF0446FFF7DDFF0004201810BD3D
:10498000034804490068884201D0C0680047FEE738
:104990001000002000000410034804490068884209
:1049A00001D0C06F0047FEE7100000200000041097
:1049B000034804490068884201D0806F0047FEE741
:1049C0001000002000000410F0B5454C05252668B5
:1049D0006D027019406C0027416B4248AE368DB0B5
:1049E000814242D006216846FFF762FE6946487957
:1049F000C021084369464871206806224019406C6E
:104A00002430FFF72BFE0746102105A8FFF750FEC4
:104A1000206810224019406C05A9001DFFF71EFEFA
:104A20000743102109A8FFF743FE20681022401910
:104A3000406C09A91430FFF711FE0146394313D128
:104A4000206829494019406C264F40188008810091
:104A50002648081839460490FDF702FC04980068BF
:104A6000B84201D1002700E0FB2722685019406CB2
:104A7000A63224300190062001460090002008F064
:104A800084FC002802D12068A6300190701D009A95
:104A9000019902F06FFB2268102631460020803217
:104AA00008F073FC002807D0206832464119496C91
:104AB0008030091D02F05EFB2268314600209032F2
:104AC00008F063FC002807D0206832464119496C81
:104AD0009030143102F04EFB38460DB0F0BD0000AE
:104AE00080030020AAAAAAAA3400FCEF0000041048
:104AF00030B50F4BE3251B68ED005B1940330446CE
:104B00001B7A412085B09B0710D56B469981DA81CD
:104B1000002018820420588203AA04A96D4607C504
:104B200002231A4601212046FFF72AFB05B030BDBB
:104B300080030020024600200146535C002B00D079
:104B40000120491CC9B20629F7D370470248006802
:104B50002030C07F704700008003002070B50E46F3
:104B6000054601462022002002F0BCFB040023D0B1
:104B7000284600F0D3F8050027D02879B04224D188
:104B8000A87880071FD4A06801210173A0680021C4
:104B90004673A06802268673A068C173A06801747A
:104BA000A06841740620E0802146052000F012FA3A
:104BB000002803D0412509E064250BE0A8783043A4
:104BC000A870002506E0462500E042250021204689
:104BD00002F0E4FB284670BDFEB5048841880191CF
:104BE0008688C78800890090204600F097F8050065
:104BF00066D0E878002863D0A8780007400F01D07D
:104C000046255EE020222146002002F06BFB0400D6
:104C100048D001992C48891F81424BD8B11F81424D
:104C200048D80198B04245D8FF20F530874241D29C
:104C30000099781C7043890088423BD8224900982B
:104C4000091F0A38884235D8A06812210173A0686C
:104C5000E9784173A06808218173A0680021C173BD
:104C6000A068019901740199A068090A4174A068BB
:104C7000310A8674A068C174A068390A0775A068F3
:104C80004175A068009981750099A068090AC175ED
:104C90000C20E0802146052000F09CF9002803D07C
:104CA000412508E064250CE0A87806210843A87097
:104CB000002506E042250021204602F06FFB00E0BF
:104CC00042252846FEBD00007A0C000070B514464F
:104CD0000D4600280BD11146284604F08DFB2146D5
:104CE0002846FFF73DF92146284600F0A3FA70BD9B
:104CF00070B505460C46002000F010F800280BD0D7
:104D00002905090D018000218170002C01D10821A5
:104D1000817001210171C17070BD000030B5024683
:104D20000A4811230068DB010021C318A030047B6E
:104D300007E0586E0D0140190588954204D0491CC2
:104D4000C9B28C42F5D8002030BD0000800300209D
:104D500030B50A49112309680246DB010020CB184F
:104D6000A031097B07E05C6E050164192488944238
:104D700003D0401CC0B28142F5D830BD8003002072
:104D80008068017A407A0002081880B270470000FB
:104D900070B50023134A1DE01125ED0140191901DA
:104DA000466E0024C81C345410684019466E081D15
:104DB000345410684019406E445210684019466ED1
:104DC00008460830345210680C314019406E5B1CA4
:104DD0004450DBB21068AC21095C9942DCD8002059
:104DE00070BD00008003002010B5024688680C46A4
:104DF000817AC07A0002081881B2E088001FE08042
:104E0000042909D005290CD006290FD001212046FC
:104E100002F0C4FA002010BD21461046FEF7A0FFA4
:104E200008E02146104600F02BF903E02146104629
:104E300004F068FA0028EED0E188091DE18010BD79
:104E4000F3B581B00D4600268888FFF767FF07009D
:104E50002FD03C46287B08340228F8682ED0002842
:104E600034D0E888218840182080284602F010FAC3
:104E700061688A680146104601F0A8FB01212846B6
:104E800002F08CFA0120616802F0C2F96068FFF755
:104E900077FF001D218880B281421FD881421BD13B
:104EA0006168C88061680198FFF79EFF06000FD017
:104EB00017E00121284602F071FA12E0002801D023
:104EC0004526E3E76560E8882080DFE7656005E068
:104ED00000206060208004E0452E02D1384600F0BA
:104EE000BBF93046FEBD024610B50020002A05D0B1
:104EF000012A02D11046FFF7A3FF10BD1046FFF7AD
:104F000073FF10BD70B50546801E0C46030005F00A
:104F100072FA0A0C1C1C06180B0B0B0B060B0A462C
:104F200020782946FFF7D2FE70BD2846FFF718F813
:104F30002146284604F060FA2146284600F07AF916
:104F400070BD284604F058FA70BD6288097828467A
:104F500004F04EF970BD0000F0B585B0FFF7F8FE23
:104F60001B4D04462868A030007BA0422DD9204666
:104F7000323069460873684604F056FE11262868E8
:104F8000F6018019426E002124011153286827463A
:104F90008019426EE01C115428680C378019426E4B
:104FA000201D115428688019406EC05900280CD06B
:104FB000012102F0F3F9296800208919496EC851CE
:104FC00029688919496E0834085305B0F0BD0000FE
:104FD0008003002010B50C460146042805D00529A1
:104FE00003D0062901D0502010BDA068A27902721A
:104FF000E088020AA0684272A0688172A068090A6B
:10500000C172E088001DE080022020732046FBF77B
:10501000F5FA0028E8D0E088001FE080412010BDAC
:10502000F8B5323801060220144E00901125306880
:10503000ED010C0D42191B218901526E4118897E28
:10504000175B012349070CD5083040191E220221A5
:10505000C06F05F039FB010003D08F80009805F088
:105060001FFB3168002049194A6E211D50543168D8
:105070004919496EE41C0855F8BD00008003002062
:10508000F0B50D468DB000210A91A96800280F7B6C
:1050900002D0012822D0C5E0A888FFF759FE634E50
:1050A00004463068A030007BA04215D9122F08D1E9
:1050B0005F4802902046323069460873684604F023
:1050C00065FD11203168C0010818406E21014018AB
:1050D0008178FD22114081700021A0E0A888FFF7AF
:1050E00037FE06465148AC220168525CB24218D9DC
:1050F0001120C0010818406E32018418A2781007F0
:1051000010D5122F10D1500710D4A9882A4642205A
:1051100005F02EFEA07804210843A070A868407B0B
:1051200020717BE0132F0AD0012F42D0A868417B69
:10513000A888FFF713FD0A9000286FD072E0A868D6
:10514000E778437BBB4269D1520767D5027C407C3C
:1051500001230002101887B242200490A88806900C
:105160001B2080010818807E800710D51120C00107
:10517000083108181D22C06F049905F0A5FA010036
:1051800005D0069A8A80CF80049805F089FAA07825
:10519000FB210840A070E078401C0006000EE07083
:1051A00001D10120E07068463236067304F03CFD00
:1051B00034E0100732D4A868E178407B88422DD1D2
:1051C00050072BD5FB200240A270E078401C00065F
:1051D000000EE07001D10120E0706846323606739F
:1051E00004F022FD114811210068C901083040185F
:1051F0004224AE8820220223C06F214605F064FAC3
:1052000001000BD0A868437B877BC07B8E800002A7
:1052100038188B710881204605F042FA0121284692
:1052200002F0BCF80A980DB0F0BD00008003002029
:105230003075000010B5022809D0052801D00B28D0
:1052400008D1084609794088FFF752FD02E04888F6
:10525000FFF782FE002010BDF8B5054680781021CA
:105260000843A87042200090114811210068C9012C
:1052700008304018012702263B462122C06F0099C2
:1052800005F022FA04000AD02771667132462946D9
:10529000A01D01F06FFF2146009805F001FA0121E1
:1052A000E86802F07BF80020E8602881F8BD000083
:1052B00080030020FEB50F460646002407F0E4FBFD
:1052C000054607F053FB082D01D3082811D202A987
:1052D000684600F0EFFA002F684606D04079400695
:1052E00001D5022102E0032100E0017AB14200D0A1
:1052F00041242046FEBD0000FFB507468DB00020CA
:105300000890079073481E460168734815460C18AC
:105310001120800108184775C275002B01D00021AB
:1053200001750E9800287DD0FFF704FC002879D085
:10533000002E03D020342079012873D0FF24002EC2
:1053400007D0022D02D0032D02D002E0002500E09C
:10535000012560486149006840180B90022F01D078
:10536000032F66D1684605700622401C0E9901F095
:1053700001FF6946002002F06FF8FF2803D00B9967
:10538000C2005118CC795349002E0A68544910D0F4
:105390005118CC7200220A75FF284AD036204443A7
:1053A0004C48FF2100682F312018095C002903D0E8
:1053B00014E05118CC71EFE70146FF31FF3047315F
:1053C0001F3002F017F94348062200682118FF3108
:1053D00005A8483101F0CEFE012007903D49FF228B
:1053E00008684E322018125C002A19D10146FF319C
:1053F000FF304031303002F0FDF8364806220068B8
:105400002118FF3103A8413101F0B4FE01200890BA
:10541000002E05D02F48012102683148101801756F
:10542000079800E010E0002803D03246012105A8CB
:1054300002E0324629460E9800F09CFE08980028AB
:1054400002D0012103A811E0002F06D0012F1AD0AD
:10545000022F02D0032F07D115E01E480622016853
:105460006846783101F086FE0021684600F0ECFEC7
:105470000124A402002F10D0012F16D0022F0CD02F
:10548000032F24D111E0134806220168154809189A
:10549000684601F06FFE0121E7E70E480068816F62
:1054A000041909027B30E1640CE00A4805680D48E4
:1054B0002818FAF7C9FE00022C19401CE0640948BC
:1054C000C01C2818FAF7C0FE0002000A2065002060
:1054D00011B0F0BD80030020080900005C0400004A
:1054E00040040000DE06000070B50146403004882C
:1054F0004A8F0025944200D31446C28903899A42F8
:1055000000D21346CA8F898F8A4200D30A46868901
:1055100041898E4200D231464688A64200D00125FC
:10552000C488944200D00125028A9A4200D0012505
:10553000408A884200D00125284670BD10B5FFF78B
:10554000D3FF10BD70B50C46054602224031C01C89
:1055500007F019F9214602224E31681D07F013F9B0
:10556000214602223E31E81D07F00DF9214628466A
:1055700002224C31093007F006F970BD70B50D46B6
:105580000B490024884204D8032107F013FA0828A5
:1055900001D302240AE00749012209682031C97DAC
:1055A0008240114202D1294600F0E6FA204670BD41
:1055B000FF0E000080030020F0B58F4D04468F4998
:1055C000286885B04018019007F0D0F905267602CA
:1055D000002C7DD008280DD3422007460390884830
:1055E0000024029007F02CFA009008200490009804
:1055F000082802D30C2005B0F0BD00F01FFD00F01C
:105600000FFC00987F498001421828688019018E9C
:1056100001988030036BC0315980016B09800021F3
:10562000C94301820021456ACB1DEF54856AEF54BE
:10563000C56AEF54056AEF54066B039DF554039B4E
:105640003F0A1B0A0393466A029D0B1DF554866AA6
:10565000F554C66AF554066AF554066BF554029B78
:10566000491C1B0AC9B202930329DCD300991123F8
:105670004907090E456A0B43AB72856AAB72C56A6E
:10568000AB72019B1D7E0223022D0BD1456AAE7ABF
:105690001E43AE72856AAE7A1E43AE72C56AAE7A9A
:1056A0001E43AE72466A0127F772866AF772C66AAF
:1056B000F7721943036B9972036A9972036B0321A2
:1056C000D972016ACF7200210B465354551800E07D
:1056D0004CE06B71491CC9B20529F6D3802595723F
:1056E00001992031CE7BD672868C1682068E568228
:1056F000454E9661454ED6613E462027BE54D37531
:10570000019A127E002A04D0012A04D0062A12D15E
:1057100010E018240FE003228368282452029342E9
:1057200009D1C368934206D100220492FF22563267
:10573000028200E01024497B002904D0012904D012
:10574000022906D103E0C02102E02C4301E0402100
:105750000C430499C2680902806853184218E10892
:10576000C900491C009809F0ABFB44E772B6082851
:105770000AD22A6891194B6958214143891C5C5C03
:105780006407640F012C01D062B633E7F024A45CF7
:10579000002C04D01126FF24B6019219D4710022E6
:1057A0005A54452329685B01CC18267B012383408A
:1057B0009E43267362B60446124E0C3E3088082380
:1057C0000007000F1C43A04214D18A6300F07CFD47
:1057D000012801D105F048FF0D49286832881207D9
:1057E000120FA24206D1826B8A4203D2826B521CF4
:1057F0008263F3E70020FEE6800300200809000032
:105800008100B000CC000020D6BE898E55555500D1
:1058100000710200FFB50C4691B00146102204A8A9
:1058200001F0A8FC1022214608A801F0A3FC04A85E
:10583000009008A801900CA8029000266846067304
:1058400018481949006809274518FF062C46803476
:1058500072B66846007B002808D062B610220CA9F8
:10586000139801F087FC002015B0F0BD286D396950
:10587000401A0E4900020988000A09070BD514993D
:10588000002908D10A49FF38884204D368460673C4
:10589000606430BF03E06846666406F0DDFF62B610
:1058A000D6E700008003002008090000C0000020A7
:1058B00002FF7F0070B5044608480D46006808499D
:1058C00046182046316807F065FC72682271100A9C
:1058D0006071100C2870002070BD00008003002053
:1058E0000809000070B50D46044607F03FF8082887
:1058F00001D31F2070BD09480949006840180022E3
:10590000416B931CC95CA154521C062AF8DB406B06
:1059100000784006C00F2870002070BD8003002072
:105920000809000010B504460348807A06F034FFE9
:105930002070002010BD000000010020F8B50C46CA
:10594000054607F0A1F8082801D31F20F8BD0A4E2C
:10595000052730687F02C019406B06222946801C4B
:1059600006F011FF3068C019406B00784006C00F88
:1059700020700020F8BD000080030020F8B55B4FC8
:105980005B483D6800222818014605230276203135
:105990005B020A73ED186E6B283686636D6B544E8E
:1059A000503545630835856207258D73416B0A7054
:1059B000456B062169703C68E1184D6B7835C5630D
:1059C000496B0825A03101640146C0314A720A7250
:1059D000CD738D731B250D82FF2549354D82FB2527
:1059E0008D82C03ECE820D834E8342496265216521
:1059F00001463C462668B518F618776B60351646A2
:105A00002D7E2A36BD552668F618776B1646523617
:105A1000BD552668F618776B16467A36BD5526684A
:105A2000F618776B1646A236BD550D70521CD2B2D1
:105A3000491C062ADED300250D70826B06215170A9
:105A4000426B5170024680325561294695611BE0D8
:105A500005256D025B1958254D435F692B46264E7F
:105A60000A33FE52052327685B02FB185F692B4649
:105A700000262033FE50052327685B02FB182435DF
:105A80005B69491C5E51C9B22368AC25ED5C8D424F
:105A9000DED8002501219583C902018455640520C3
:105AA000216840020918898C936B891C59802168F0
:105AB0000818808C516B801C48801048818D2068AC
:105AC00040300186FBF722FC45212068490141183E
:105AD00023220D73920108218018817400F010F8C0
