:020000041004E6
:100000000060002075030410510504106D050410F4
:10001000AA5555AA45554C420000000000000000BA
:10002000000000000000000000000000890504102E
:100030000000000000000000A5050410C105041028
:10004000DD050410F90504100000000000000000A8
:1000500015060410310604104D060410690604103C
:100060000000000000000000000000000000000090
:100070000000000085060410A1060410BD0604104F
:1000800000000000D9060410F90604101907041036
:100090003907041059070410790204107907041075
:1000A0000000000000000000000000000000000050
:1000B0000000000000000000000000000000000040
:1000C000EFF31482EFF30981002080F31488BFF36B
:1000D0006F8FF0B543464C4655465E466746F8B4CA
:1000E000164CEFF30883236006B4154C2068154CBA
:1000F0002060154C2068154C2060154C2068154C6C
:100100002060154C276800202060BFF34F8F30BF60
:1001100027600A4C246884F3088882B003BCF8BCCA
:100120009846A146AA46B346BC46F0BC04BC80F340
:10013000098881F31488BFF36F8F104708000020EF
:1001400004ED00E0D802002024ED00E0CC02002005
:1001500000E200E0DC020020080020400E4AD369E3
:100160001B061B0F4370D9B2D3690C4A1B07944678
:100170001B0F83700A4B1B68436063445A42534110
:1001800001330370002901D101234370054B9B8A81
:1001900001339B008360704700009040BF5FFFFD0C
:1001A0002800904000001040084B1A68084B9A4203
:1001B00000D070473F23074A40061381000C2E3BB6
:1001C00090611380138ADB07FCD5F2E7140000204E
:1001D000CCBCECFC00001040244B1A7A244BD2B269
:1001E0001B899BB2002A09D0022A3DD00220042A92
:1001F00003D00020082A00D1033070471A00093AC2
:10020000782A18D8092206201A40092AF5D0112286
:1002100001301A40112AF0D0212201301A40212A3F
:10022000EBD0412201301A40412AE6D08122013030
:100230001A40812AE1D002221900FF3211400B201E
:100240009142DAD019000B4A013011409142D4D0CA
:10025000052207381A40052ACFD002381840033843
:10026000434258418000C8E70120C6E700009040A3
:1002700000001048010400007047C046012130B55D
:10028000364A85B0137A03240B4313720022344B91
:100290001A606B46DD1CFFF79FFF28702B78002B40
:1002A00003D1013CE4B2002CF5D12B78052B02D808
:1002B000012005B030BD2B780B2B1BD001AC2000EA
:1002C000FFF74CFF6378A2781B011343112B17DC57
:1002D000244B1B681B070DD59023234ADB051969A6
:1002E0001368283B5B1A1B02002B03DD9023126866
:1002F000DB055A6001221D4B1A70FFF70AFFFEE76B
:10030000184B1B681B0717D59021174AC9050869A8
:100310001368283B1B1A1B02002BEBDD8020144BBB
:1003200040021B041B0C0343CB60CB680342DDD0AF
:10033000CB680342F9D1D9E7802290210C4B5202BD
:100340001B041B0C1343C905CB60CB681342FCD1C3
:100350000122064B1A70FFF7DCFED0E700002040B8
:1003600014000020C0000020180000200C00002015
:10037000D002002010B5FFF781FF012805D01B4BEC
:1003800083F3088800F048F810BD1948194B9842CB
:1003900007D2C243D218920801329200164900F0E7
:1003A000FBF91648164B984207D2C243D21892085E
:1003B00001329200134900F0EFF91348134B9842B1
:1003C00007D2C243D218920801329200002100F0F5
:1003D000ECF90F480F4B9842D1D2C243D218920881
:1003E00001329200002100F0E0F9C8E7006000202F
:1003F000E0020020E002002000F8051008000020C4
:1004000034000020BC070410C0000020CC020020F3
:10041000CC020020E0020020434B70B51B68002B8B
:1004200003D1424B1B68002B32D03F4B1A68404B24
:100430009A4229D03C4B3E4A1B6893426ED03A4BBD
:100440001B68002B03D1394B1B68013320D0364B7E
:100450001A68374B9A4256D0334B1B68002B04D195
:10046000324B1A68324B9A4234D02F4B1B680133FF
:100470002CD02D4B1B6801334AD02B4B1B6801330A
:1004800001D12A4B1B68FEE7284B1B68002BD1D1FA
:10049000284B294A02E0043393420FD019680131F6
:1004A000F9D03F24254D264B2B6020000134A4B207
:1004B000FFF77AFE7D2CF8D100232B60214B224AD6
:1004C00012681B6883F308889047FEE7174B1B6888
:1004D000002BCED11B4B174A02E00433934210D0BD
:1004E00019680131F9D00124144D154B2B602000FF
:1004F0000134A4B2FFF758FE3F2CF8D100232B6043
:100500000C4B124ADCE7094B1B680133A4D1BFE74F
:10051000064B1A68064B9A42AFD1DBE7034A1268D2
:100520009A428CD1B4E7C0461008041010F80510A8
:10053000AA5555AA00F8051000E80710140000207D
:10054000CCBCECFC000804100408041004F80510EE
:10055000044B054A1B6810B5934202D09B6898472C
:1005600010BDFEE71000002000000410044B054AF7
:100570001B6810B5934202D0DB68984710BDFEE7B8
:100580001000002000000410044B054A1B6810B541
:10059000934202D0DB6A984710BDFEE710000020AE
:1005A00000000410044B054A1B6810B5934202D0AA
:1005B0009B6B984710BDFEE7100000200000041060
:1005C000044B054A1B6810B5934202D0DB6B984779
:1005D00010BDFEE71000002000000410044B054A87
:1005E0001B6810B5934202D01B6C984710BDFEE704
:1005F0001000002000000410044B054A1B6810B5D1
:10060000934202D05B6C984710BDFEE710000020BB
:1006100000000410044B054A1B6810B5934202D039
:100620001B6D984710BDFEE710000020000004106D
:10063000044B054A1B6810B5934202D05B6D984786
:1006400010BDFEE71000002000000410044B054A16
:100650001B6810B5934202D09B6D984710BDFEE712
:100660001000002000000410044B054A1B6810B560
:10067000934202D0DB6D984710BDFEE710000020CA
:1006800000000410044B054A1B6810B5934202D0C9
:100690005B6F984710BDFEE71000002000000410BB
:1006A000044B054A1B6810B5934202D09B6F9847D4
:1006B00010BDFEE71000002000000410044B054AA6
:1006C0001B6810B5934202D0DB6F984710BDFEE760
:1006D0001000002000000410054B064A1B6810B5EE
:1006E000934203D084229B58984710BDFEE7C04632
:1006F0001000002000000410054B064A1B6810B5CE
:10070000934203D088229B58984710BDFEE7C0460D
:100710001000002000000410054B064A1B6810B5AD
:10072000934203D08C229B58984710BDFEE7C046E9
:100730001000002000000410054B064A1B6810B58D
:10074000934203D090229B58984710BDFEE7C046C5
:100750001000002000000410054B064A1B6810B56D
:10076000934203D094229B58984710BDFEE7C046A1
:100770001000002000000410054B064A1B6810B54D
:10078000934203D09C229B58984710BDFEE7C04679
:100790001000002000000410002310B59A4200D180
:1007A00010BDCC5CC4540133F8E7030082189342B7
:0C07B00000D1704719700133F9E7000018
:1007BC000000000000000000000004100000000019
:1007CC00000000000000000000000000000000001D
:0C07DC0000000000000000000000000011
:04000005100403756B
:00000001FF
:020000041004E6
:100800000060002089110410791404108914041068
:10081000AA5555AA45554C420000000000000000B2
:100820000000000000000000000000009914041007
:100830000000000000000000E70F04109B140410EB
:10084000E90F0410EB0F041000000000000000008E
:10085000ED0F0410EF0F0410F10F0410FD0F041042
:100860000000000000000000000000000000000088
:1008700000000000FF0F041001100410031004100A
:1008800000000000F30F0410F50F0410F70F041020
:10089000F90F0410FB0F0410E50F04109D14041051
:1008A0000000000000000000000000000000000048
:1008B0000000000000000000000000000000000038
:1008C000EFF31482EFF30981002080F31488BFF363
:1008D0006F8FF0B543464C4655465E466746F8B4C2
:1008E000164CEFF30883236006B4154C2068154CB2
:1008F0002060154C2068154C2060154C2068154C64
:100900002060154C276800202060BFF34F8F30BF58
:1009100027600A4C246884F3088882B003BCF8BCC2
:100920009846A146AA46B346BC46F0BC04BC80F338
:10093000098881F31488BFF36F8F104708000020E7
:1009400004ED00E01017002024ED00E00417002063
:1009500000E200E0141700200800204000224308B5
:100960008B4274D303098B425FD3030A8B4244D377
:10097000030B8B4228D3030C8B420DD3FF220902B9
:1009800012BA030C8B4202D31212090265D0030B78
:100990008B4219D300E0090AC30B8B4201D3CB036E
:1009A000C01A5241830B8B4201D38B03C01A5241B0
:1009B000430B8B4201D34B03C01A5241030B8B42B2
:1009C00001D30B03C01A5241C30A8B4201D3CB029D
:1009D000C01A5241830A8B4201D38B02C01A524182
:1009E000430A8B4201D34B02C01A5241030A8B4285
:1009F00001D30B02C01A5241CDD2C3098B4201D39D
:100A0000CB01C01A524183098B4201D38B01C01A1A
:100A1000524143098B4201D34B01C01A5241030991
:100A20008B4201D30B01C01A5241C3088B4201D340
:100A3000CB00C01A524183088B4201D38B00C01AED
:100A4000524143088B4201D34B00C01A5241411A14
:100A500000D20146524110467047FFE701B5002021
:100A600000F006F802BDC0460029F7D076E77047CF
:100A70007047C0460E4AD3691B061B0F4370D9B29C
:100A8000D3690C4A1B071B0F83700B4B1B68436019
:100A900093420BD102230370002901D1012343703B
:100AA000064B9B8A01339B00836070470123F2E76A
:100AB0000000904041A0000228009040000010403B
:100AC00010B5054C2822210000F058FD00232370AA
:100AD0006370A370E37010BD34000020002270B575
:100AE0001500164B9C1804322560282AFAD10A0AF0
:100AF0005A700A0C9A70020A5A71020C9A71020E0C
:100B0000DA710400082219700D4D090ED9701871A0
:100B10002034121AE02109064118A94203D81118FD
:100B2000066859180E600430A042F3D1BFF34F8F0E
:100B3000044A054BDA60BFF34F8FFEE73400002014
:100B4000FF5F00000400FA0500ED00E0F7B501903A
:100B500001790468002931D18022D2055368A3436A
:100B60005360019B20251E68802300226D42DB0517
:100B700034000120D44004420BD0D4B2072A26D836
:100B800097000E30B840DC6A84430800B840044344
:100B9000DC62013204351A2AEAD1019B5A7980239A
:100BA000DB05012A3AD1DA683243DA60019A927998
:100BB000012A36D19A6816439E60F7BD0629D0D126
:100BC0008022D2055368002123435360C9E72700E0
:100BD000083F072F08D80F27AF401C6BBC430F00FE
:100BE000AF403C431C63D4E7103C072C0AD82F00CD
:100BF0000F20203FB8405C6B84430800B84004439A
:100C00005C63C6E72F000F20403FB8401C8F844331
:100C10000800B8400443A4B21C87BAE7DA68B243BC
:100C2000C3E79A68B2439A60C7E70000044B1A6AA8
:100C3000012902D110431862704782431A62FBE710
:100C400000009040244B1A7A244BD2B21B899BB2ED
:100C5000002A36D11A00093A782A19D809211A002F
:100C600006200A408A422BD0112201301A40112A54
:100C700026D0212201301A40212A21D04122080009
:100C80001A40412A1CD0812201301A40812A17D0F3
:100C900002221900FF3211400B20914210D019009E
:100CA0000F4A0130114091420AD01A000738024021
:100CB000824205D002381840033843425841800030
:100CC00070470120022AFBD00018042AF8D0002027
:100CD000082AF5D10330F3E70000904000001048E7
:100CE00001040000054B0122196B002802D00A43C1
:100CF0001A63704791431963FBE7C0460000304018
:100D0000F8B54A4C0500236B01681B0700D56DE060
:100D100009014748FFF722FEC3099AB2A284454A57
:100D2000DB0101301340C01A400880B23F2802D9CD
:100D30003F233F381840032760263F4BC0B218704E
:100D40003E4B2A7918783A405201B043104318704C
:100D500001206979227F39404901B2430A43227751
:100D6000AA7919780240BA400730814311431970BB
:100D7000217F81430A432277EA79002A38D1022170
:100D80001A788A431A70227F8A43012022772A7AAE
:100D9000216B1600C2402A4F06407602394031438B
:100DA0002163216B274E0240314012020A43226325
:100DB000697A226B0E00C140234F06403A40B603C9
:100DC00032432263226B214E01403240C90311435A
:100DD0002163AA7A197802400F301201814311432E
:100DE0001970237F83431A432277F8BDC90090E727
:100DF000022A0CD104201978114319701978814303
:100E00001970217F0A432277227F8243BDE70221A6
:100E10001A780A431A700422187810431870207F39
:100E200001432177217F0A43AFE7C04600003040ED
:100E30000000127A80FF7F00280030402C003040F4
:100E4000FFFDFFFFFFFEFFFFFFBFFFFFFF7FFFFF75
:100E5000024BC005C00D18807047C04600003040EE
:100E6000054B002805DA5B681840431E9841C0B264
:100E700070471B8BF8E7C046000030400722024055
:100E800038200449D2000B788343180010430870BF
:100E90007047C0463400304010B504002020FFF7F2
:100EA000DFFF0128FAD0A0B2FFF7D2FF10BDF0B5E6
:100EB000012187B006000920FFF7B8FE8023002437
:100EC000012501AF5B00380001933D71BC717C715D
:100ED000FFF73CFE802338001B0101933D71FFF7B3
:100EE00035FE032303A80371437103728471C47137
:100EF000447285720396FFF703FF2000FFF7BEFFE1
:100F00002800FFF7EFFE07B0F0BD000001000A4A1D
:100F10000A4810B51368046801209C4209D00848AB
:100F2000C05C0133087080210020C9008B4201D0D1
:100F3000136010BD1060FCE7D0060020CC06002036
:100F4000CC0200200B4A10B513680B49002B00D1CE
:100F5000116080241368640118180919884205D9A2
:100F60000C220120054B40421A6010BD1060180091
:100F7000FBE7C046D4160020D40600201817002036
:100F800001204042704780239B0100204B60704746
:100F9000012070470020704770B50E0015000C004E
:100FA000A31B9D4201DC280070BD2078FFF774FF71
:100FB0000134F5E770B50E0015000024AC4208D2EC
:100FC0003019FFF7A3FF002801D10134F6E7002C08
:100FD000F4D0200070BD00000222014B1A7070474F
:100FE000D8160020704770477047704770477047A9
:100FF0007047704770477047704770477047704739
:1010000070477047002210B5104B995CC9B2002997
:1010100017D11C2A14DC022021249854501C1C5483
:10102000901C193C1C54D01C19549B1880229021F0
:101030009BB252021343C905CB60CB681342FCD16B
:1010400010BD995C01315218D2B2DEE7D9160020EA
:10105000002330B50E4AD15CC9B2002913D11C2B34
:1010600008DC02243525D4545C1C15559C1C033324
:101070001055D1540222074B1A7033325A70002295
:101080009870DA7030BDD15C01315B18DBB2E2E7F9
:10109000D91600200817002010B5104B00280AD0E0
:1010A000802290219BB252021343C905CB60CB68CA
:1010B0001342FCD110BD042198789A789CB28A43DF
:1010C0009A708022902152021443C905C0B2CC60AC
:1010D000CC681442FCD19870ECE7C0460817002099
:1010E000012330B5234A0324117A85B00B431372D0
:1010F0000022214B1A60FFF7A5FD6B4603331870E1
:101100001A78002A03D1013CE4B2002CF3D11A78FA
:10111000052A2BD91B780B2B10D001AC2000FFF730
:10112000A9FC6278A37812011A43144B1B681B07B1
:101130000AD4112A02DD0120FFF7AEFF0122104B75
:101140001A70FFF7E6FBFEE790250E4CED052869C7
:101150002368283B1B1A1B02002BEFDD112A02DD3E
:101160000120FFF799FF23686B60E7E7012005B0D6
:1011700030BDC0460000204014000020C000002008
:101180000C0000201800002070B5FFF7A9FF01280F
:1011900017D1002314481549154C1A188A4216D342
:1011A000002314481449154C1A188A4213D30021FD
:1011B000134B144A934212D30021134B134A934208
:1011C0000FD3134B83F3088800F06AF970BDE5581C
:1011D00004331560E1E7E55804331560E4E702C322
:1011E000E8E702C3EBE7C0461C1700208017002089
:1011F0004827041008000020340000201C27041099
:10120000C0000020CC020020CC0200201C170020CF
:101210000060002070B58AB003AC05000E001922F2
:101220004349200000F0AAF96846FFF723FC002D8F
:1012300060D044233F4AA373117A433B0B4313729C
:101240004C23E3722C3B237292336374573B237518
:10125000394B3A4A1B68190C914208D17020E17D44
:101260001B018143E175E17D03400B43E375344B82
:101270001B68190C914208D1302061791B01814310
:101280006171617903400B4363712E4B1B68190C2C
:10129000914207D10321E27D0B408A43E275E27D52
:1012A0001343E3750422E37A69469343E3726B4682
:1012B0005B78897893400B43112B06DDE37D1A435D
:1012C000E275E07DC0B2FFF7C3FE802390222404C4
:1012D000240C5B021C43D205D460D1681942FCD1B6
:1012E0006B466A465B7892781B011343112B01DD34
:1012F000FFF788FE144B1A8B002AFCD001221A83B8
:1013000016329A8100221A61964207D0902310214A
:10131000DB0518691A6942400A42FBD0002D02D051
:1013200015220A4B1A700A4A0A4B1A600AB070BD9D
:10133000D824041000002040E807001055AA00003F
:10134000E4070010B0070010000010480000C04083
:10135000CCBCECFC140000200822C021F8B53F4BA7
:101360003F4D9A803F4A0904136AFF202B400B43EC
:10137000C0211362136A09061B021B0A0B43136286
:10138000C02292009446384B64469A58374E8243A6
:101390003F38024360461A501A58C02032400002BB
:1013A00002431A51C122FF2792009C58BC433F3F81
:1013B0003C439C509C583F37344004439C509C58BD
:1013C0002C409C509C582402240A0C439C50083208
:1013D000944664469A58324002431A511A59C0241E
:1013E0002A402404224364461A511A591202120A4E
:1013F0000A431A51C4229200944664469A583240D5
:1014000002431A511A59C0242A4024042243644634
:101410001A511A591202120A0A431A51C52292008D
:101420009C58BC432700C0242743C0249F509F588A
:1014300024043E4030439850985805402C439C501B
:1014400098580002000A0143995001210800FFF753
:10145000E1FE074A074B1A6262B6F8BD0000104071
:10146000FFFF00FF00ED00E000E100E0FF00FFFFF4
:1014700066000E0000009040EFF308800149FFF77E
:101480002DFBFEE70100ECBCEFF308800149FFF7FC
:1014900025FBFEE70200ECBC704770477047000078
:1014A00030B58FB001ADFFF757FF2800FFF7E2FA24
:1014B000FFF792FDE1204002FFF7F9FC04A8FFF7D7
:1014C000FFFA049B1F4A1B0C1B0493422AD11E489F
:1014D00000F0E0F804991D4800F062F805991C48F6
:1014E00000F05EF806991B4800F05AF807991A4870
:1014F00000F056F80899194800F052F80999184870
:1015000000F04EF80A99174800F04AF80B9916486F
:1015100000F046F80C99154800F042F80D9914486F
:1015200000F03EF80024002C05D1AB786A782978C9
:10153000104800F035F8601C0F49FFF795FA0C00D1
:10154000F1E7C0460000ECBCF12404100D250410A6
:101550002E2504104F250410702504109125041029
:10156000B2250410D3250410F42504101526041008
:101570003626041057260410FFFF0F00002310B575
:101580009A4200D110BDCC5CC4540133F8E703008B
:101590008218934200D1704719700133F9E70000B7
:1015A0000FB40B4B13B51C68002C05D0A369002B9E
:1015B00002D1200000F03CFA05AB049AA16820009B
:1015C000019300F007FC16BC08BC04B01847C046E5
:1015D0001C17002070B505000E00002804D0836998
:1015E000002B01D100F024FAAB69AC68002B02D1CA
:1015F000280000F01DFA244B9C420FD16C68A3898F
:101600001B0702D52369002B20D12100280000F000
:10161000A1F800281AD00120404270BD1B4B9C420B
:1016200001D1AC68EBE71A4B9C42E8D1EC68E6E7E5
:10163000013B0136A360002B04DAA269934216DB5A
:101640000A2914D023685A1C226019703178A368C3
:101650000029EDD1013BA360002B0FDA22000A31F3
:10166000280000F021F8431CD5D00A20D5E722003D
:10167000280000F019F8431CE8D1CCE70A202368C1
:101680005A1C22601870C8E7A8260410C826041047
:101690008826041010B5034B01001868FFF79AFF65
:1016A00010BDC0461C170020F8B505000E00140040
:1016B000002804D08369002B01D100F0B9F9224B36
:1016C0009C422DD16C68A369A360A3891B0731D507
:1016D0002369002B2ED023682269F7B2981A636918
:1016E000F6B2984205DB2100280000F033F900280B
:1016F00026D1A3680130013BA36023685A1C2260F5
:101700001F706369984204D0A389DB071AD50A2E9B
:1017100018D12100280000F01DF9002812D00FE098
:101720000A4B9C4201D1AC68CDE7094B9C42CAD11F
:10173000EC68C8E72100280000F00CF80028CAD0A7
:10174000012676423000F8BDA8260410C8260410F1
:1017500088260410364B70B51D6806000C00002D5D
:1017600005D0AB69002B02D1280000F061F9314BA4
:101770009C420FD16C680C23E25E93B219072DD402
:10178000D90611D409230120336037331343A381D1
:10179000404270BD284B9C4201D1AC68EBE7274B1F
:1017A0009C42E8D1EC68E6E75B0713D5616B002942
:1017B00008D023004433994202D0300000F03AFAB6
:1017C000002363632422A3899343A38100236360DE
:1017D000236923600823A2891343A3812369002B73
:1017E0000BD1A0218022A389890092000B40934253
:1017F00003D02100300000F0D9F90123A289134061
:1018000011D00023A36063695B42A36100202369B8
:101810008342BED10C23E25E1306BAD540231343A4
:10182000A3810138B5E7920700D46369A360EDE7AF
:101830001C170020A8260410C826041088260410AF
:10184000F7B58A8905000C00130760D44B68002B9C
:1018500004DC0B6C002B01DC0020FEBDE76A002FCE
:10186000FAD000232E682B6080235B011A4034D00D
:10187000606DA3895B0706D56368C01A636B002B94
:1018800001D0236CC01A0200216A00232800E76AF5
:10189000B847A189431C06D12B681D2B31D82C4A8F
:1018A000DA40D3072DD50023636023692360CB047E
:1018B00005D5431C02D12B68002B00D16065616BFC
:1018C0002E600029C8D023004433994202D028005A
:1018D00000F0B0F900206063BFE70123216A28000F
:1018E000B847431CC5D12B68002BC2D01D2B01D09B
:1018F000162B01D12E60AFE74023A2891343A381A9
:10190000ABE740230B430120A3814042A5E70F69C9
:10191000002FA1D00B680F60DB1B019300239207FF
:1019200000D14B69A360019B002B00DC94E7019B75
:101930003A00216A2800A66AB047002803DC402349
:10194000A2891343DFE7019B3F181B1A0193EAE7C3
:10195000010040200B6970B505000C00002B01D17F
:10196000002070BD002804D08369002B01D100F055
:101970005FF80B4B9C4209D16C680C22A35E002BD4
:10198000EED021002800FFF75BFFEAE7054B9C4201
:1019900001D1AC68F1E7044B9C42EED1EC68ECE776
:1019A000A8260410C82604108826041010B5024981
:1019B00000F0B2F810BDC04655190410002310B550
:1019C000040003604360836081814366C2810361D8
:1019D00043618361190008225C30FFF7D8FD054B95
:1019E00024626362044BA362044BE362044B2363EF
:1019F00010BDC0464123041069230410A123041024
:101A0000CD23041070B568254A1E55430E002900E9
:101A1000743100F059F9041E08D000212A00016039
:101A200046600C30A0606832FFF7B1FD200070BD49
:101A3000836913B50400002B28D18364C364036554
:101A4000134B144A1B6882620193984201D101230F
:101A50008361200000F020F86060200000F01CF896
:101A6000A060200000F018F80022E0600421606807
:101A7000FFF7A4FF01220921A068FFF79FFF0222C0
:101A80001221E068FFF79AFF0123A36113BDC0464E
:101A900084260410AD190410F8B51E4B07001E680B
:101AA000B369002B02D13000FFF7C2FF4836B4689B
:101AB0007368013B04D53368002B07D03668F6E71E
:101AC0000C22A55E002D0DD06834F2E70421380009
:101AD000FFF798FF30600028F0D10C2304003B6032
:101AE0002000F8BD012320005B42E3810233A38183
:101AF00065662560A560656025616561A561082250
:101B000029005C30FFF743FD6563A563A564E564C8
:101B1000E6E7C04684260410F7B504000700002657
:101B200001914834002C01D13000FEBD6368A568E6
:101B30000093009B013B009301D52468F2E7AB8939
:101B4000012B08D90E22AB5E013304D029003800E6
:101B5000019B984706436835EBE7000070B50E001F
:101B60001D000E23C95E90B01400002907DA00237F
:101B70002B60B3891B0611D48023DB000FE001AA80
:101B800000F050FC0028F2DBF022029B120213400E
:101B9000054A9B185A4253412B60EDE74023002031
:101BA000236010B070BDC04600E0FFFFF7B502260D
:101BB0008B8905000C00334206D023004733236095
:101BC000236101236361F7BD01AB6A46FFF7C6FFDE
:101BD00000990700280000F077F8002808D10C22AF
:101BE000A35E9A05EFD4032293431E43A681E4E744
:101BF0000F4BAB628023A28920601343A381009B1B
:101C000020616361019B002B0DD00E23E15E280053
:101C100000F01AFC002806D00322A38993431A007F
:101C200001231343A381A0893843A081CBE7C04699
:101C3000AD19041070B50500002910D00C1F2368E1
:101C4000002B00DAE418280000F02FFC1D4A13686E
:101C5000002B05D163601460280000F027FC70BDE4
:101C6000A34209D9216860188342F3D118685B68E0
:101C700041182160EEE713005A68002A01D0A24201
:101C8000F9D919685818A0420BD1206809185818BA
:101C900019608242E0D110685268411819605A6098
:101CA000DAE7A04202D90C232B60D5E7216860183F
:101CB000824203D1106852684118216062605C6002
:101CC000CAE7C046FC160020032370B5CD1C9D4317
:101CD000083506000C2D1ED20C25A9421DD8300057
:101CE00000F0E3FB254A14682100002919D1244C97
:101CF0002368002B03D1300000F010FB2060290086
:101D0000300000F00BFB431C2CD10C23300033605F
:101D100000F0CCFB03E0002DDFDA0C233360002061
:101D200070BD0B685B1B1AD40B2B03D90B60CC184E
:101D3000256003E08C420ED163681360300000F030
:101D4000B5FB200007220B30231D9043C31AE7D0B8
:101D50005A42E250E4E74B6863600C00EEE70C0087
:101D60004968C2E70323C41C9C43A042E0D0211A67
:101D7000300000F0D3FA431CDAD1C6E7FC1600208D
:101D800000170020936810B5013B9360002B05DA23
:101D90009469A34208DBCBB20A2B05D01368581C08
:101DA00010601970C8B210BDFFF77EFCFBE7F8B5F4
:101DB00006000F001400D518AC4201D1002007E046
:101DC00021783A003000FFF7DDFF0134431CF3D1E6
:101DD000F8BD0000F0B59FB006000F001400059399
:101DE000002804D08369002B01D1FFF721FE7F4B2F
:101DF0009F425CD17768BB891B0762D53B69002B8A
:101E00005FD0002306AD6B6120336B761033AB7669
:101E10000294029C2378002B5DD1029BE31A049369
:101E20000DD0049B029A39003000FFF7C0FF431C1D
:101E300000D1CCE06A69049B944663446B612378CB
:101E4000002B00D1C3E00122002352426A6002A9A4
:101E50005432521801342B60EB60AB601370AB65E9
:101E600021780522624800F015FB631C9C4600287F
:101E700035D12968CB0604D5532302AA20309B18FC
:101E800018700B0704D553232B2002AA9B18187037
:101E900023782A2B2CD000200A21099B2278303A63
:101EA000092A00D86BE000282AD0099328E0514B7A
:101EB0009F4201D1B7689EE74F4B9F429BD1F76885
:101EC00099E739003000FFF745FC002899D0012040
:101ED00040421FB0F0BD252B9FD001349AE7444B00
:101EE0002968C01A012383400B432B606446B7E77F
:101EF000059B181D1B680590002B3ADB099364466F
:101F000023782E2B0BD16378621C2A2B3FD1059BA3
:101F100002341A1D1B680592002B35DB07932178CC
:101F20000322364800F0B6FA002807D0334B2A685F
:101F3000C01A4023834013432B6001342178631C73
:101F400006222F480293297600F0A4FA002844D0F4
:101F50002C4B002B2FD12968059B0722C90528D5BA
:101F60009B189343083305936B69039A9B186B6125
:101F70004FE75B42EB6002230B432B60BFE74B4311
:101F800001349B18012089E701235B42C6E7002347
:101F900014000A201A006B6021783039092903D90E
:101FA000002BBCD00792BAE74243013452180123F8
:101FB000F2E70733D5E705AB00933A00124B29004F
:101FC000300000E000BF0390039B0133CCD1BB89FC
:101FD0005B0600D57BE70B987BE705AB00933A00E7
:101FE000094B2900300000F07FF8ECE7A826041028
:101FF000E8260410C826041088260410EE260410D3
:10200000F226041000000000AF1D0410F7B5150003
:1020100001938A680B6900900C00934200DA130068
:1020200022002B6043321278002A01D001332B604A
:1020300023689B0602D52B6802332B600627236892
:102040001F4027D0230043331B785A1E9341226838
:10205000920630D42200019943320098089EB0477E
:10206000431C25D0062320682A68E1680340002528
:10207000042B03D18D1AEB43DB171D40A3682269A3
:10208000934201DD9B1AED180027BD4220D10020AC
:1020900010E00137E3682A689B1A9F42D2DA2200D7
:1020A0000123193201990098089EB047431CF0D1D2
:1020B00001204042FEBD3020E1184331087021006C
:1020C0005A1C45310978A218433202331170C1E716
:1020D000220001231A3201990098089EB047431C40
:1020E000E6D00137D1E70000F0B58BB006920A00C8
:1020F00043320793059004920A7E0C00109B6E2ACF
:1021000000D18FE017D8632A2CD008D8002A00D13C
:1021100099E0582A54D026004236327029E0642AC9
:1021200001D0692AF7D121681A68080623D5111D44
:102130001960156825E0732A00D188E008D86F2A55
:1021400029D0702AE7D1202209680A43226003E0DF
:10215000752A20D0782ADED12200782145321170EC
:102160006C4A30E00E001A684236111D196013687F
:102170003370012379E04906D9D5111D1960002378
:10218000D55E002D03DA2D23049A6D421370624B45
:102190000A2703932FE020681968050603D5081D58
:1021A00018600D6805E04006F9D50D68081D186037
:1021B000ADB2594B082703936F2A18D00A2716E0AF
:1021C00045310A70544A03921A682168101D18603C
:1021D0001568080622D5CB0702D5202319432160B4
:1021E0001027002D03D1202322689A432260230068
:1021F000002243331A706368A360002B5CDB042267
:10220000216891432160002D58D1049E002B64D099
:102210002600039B42361B7833705EE04806DAD511
:10222000ADB2D8E709681A68080605D5111D19600E
:10223000136862691A6006E04906F7D5111D196036
:102240001368A28A1A800023049E236154E01A684E
:10225000111D1960166800216268300000F01AF93B
:10226000002801D0801B6060636823610023049A0A
:10227000137041E02369320006990598079DA8472D
:10228000431C43D0236800259B070FD4099BE068BB
:1022900098423DDA18003BE02200012319320699EA
:1022A0000598079EB047431C30D00135E368099A72
:1022B0009B1A9D42F0DBE9E7002DA9D0049E28007F
:1022C0003900FEF7D1FB039B013E5B5C28003370B5
:1022D0003900FEF743FB051EF1D1082F09D1236811
:1022E000DB0706D563682269934202DC3023013E96
:1022F0003370049B9B1B2361079B09AA0093210059
:10230000069B0598FFF782FE431CB3D10120404293
:102310000BB0F0BD0A270410F9260410002370B595
:10232000064C050008002360FEF70CFE431C03D199
:102330002368002B00D02B6070BDC046181700200A
:1023400070B50C000E25495F00F0B2F8002803DBE1
:10235000636D1B18636570BDA389024A1340A38196
:10236000F9E7C046FFEFFFFFF8B51F008B890500B6
:102370000C001600DB0505D50E23C95E00220223E2
:1023800000F074F8A389054A28001340A3813200A5
:102390000E23E15E3B0000F01FF8F8BDFFEFFFFFEA
:1023A00070B50C000E25495F00F060F8A389421C4F
:1023B00003D1054A1340A38170BD8022520113430B
:1023C000A3816065F8E7C046FFEFFFFF10B50E235D
:1023D000C95E00F015F810BD70B5050008001100C9
:1023E0000022064C22601A00FEF7D6FD431C03D1E2
:1023F0002368002B00D02B6070BDC046181700204A
:10240000002370B5064C050008002360FEF7B8FDF8
:10241000431C03D12368002B00D02B6070BDC04645
:1024200018170020002370B5064C050008001100A5
:102430002360FEF7A8FD431C03D12368002B00D0C6
:102440002B6070BD18170020002370B5064C0500E6
:1024500008002360FEF79CFD431C03D12368002B7A
:1024600000D02B6070BDC0461817002070B5050065
:10247000080011000022064C22601A00FEF78AFDB7
:10248000431C03D12368002B00D02B6070BDC046D5
:1024900018170020C9B28218904201D1002070475D
:1024A00003788B42FBD00130F6E77047704700009D
:1024B00070B50500080011000022064C22601A00C9
:1024C000FEF778FD431C03D12368002B00D02B605E
:1024D00070BDC04618170020023F00023E30023C8B
:1024E00020023B4C023A400239B202345B02350B07
:1024F000004170706C69636174696F6E2063726112
:1025000073682064657465637465640D004372616B
:10251000736820496E666F207369676E61747572A7
:1025200065203D2030782530386C780D0A004372E4
:1025300061736820496E666F205350202020202050
:102540002020203D2030782530386C780D0A00435B
:102550007261736820496E666F20523020202020FF
:10256000202020203D2030782530386C780D0A005E
:10257000437261736820496E666F205231202020BB
:1025800020202020203D2030782530386C780D0A1E
:1025900000437261736820496E666F2052322020BA
:1025A0002020202020203D2030782530386C780DE8
:1025B0000A00437261736820496E666F20523320AF
:1025C000202020202020203D2030782530386C78B5
:1025D0000D0A00437261736820496E666F205231A4
:1025E00032202020202020203D2030782530386CDB
:1025F000780D0A00437261736820496E666F204C43
:102600005220202020202020203D203078253038E6
:102610006C780D0A00437261736820496E666F2002
:10262000504320202020202020203D2030782530BD
:10263000386C780D0A00437261736820496E666FCA
:1026400020785053522020202020203D2030782513
:1026500030386C780D0A0048656C6C6F20576F72CB
:102660006C643A20426C75654E52472D25642028D3
:1026700025642E2564292069732068657265210D03
:102680000A000000201700200000000000000000E9
:10269000000000000000000000000000000000003A
:1026A000000000000000000000000000000000002A
:1026B000000000000000000000000000000000001A
:1026C000000000000000000000000000000000000A
:1026D00000000000000000000000000000000000FA
:1026E0000000000000000000232D302B2000686C4B
:1026F0004C00656667454647003031323334353625
:10270000373839414243444546003031323334355D
:0C2710003637383961626364656600008A
:10271C000000000000000000000804100000000091
:10272C00000000000000000000000000000000009D
:0C273C0000000000000000000000000091
:102748002017002000000000A8260410C826041046
:1027580088260410000000000000000000000000AF
:102768000000000000000000000000000000000061
:102778000000000000000000000000000000000051
:102788000000000000000000000000000000000041
:102798000000000000000000000000000000000031
:0427A800000000002D
:040000051004118949
:00000001FF
